:080000000C9407020C940000AF
:100008000C9400000C9400000C9400000C94000068
:100018000C9400000C9400000C9400000C94170D34
:100028000C9400000C9400000C9400000C94000048
:100038000C9400000C9400000C9498040C9400009C
:100048000C94D3030C947D040C9437040C94000096
:100058000C9400000C9400000C9400000C94000018
:100068000C9400000C9400000C9400000C94000008
:100078000C9400000C9400000C9400000C940000F8
:100088000C9400001027E80364000A000100001027
:100098000001100001000000080031323334353609
:1000A8002020202020202020202020003334002061
:1000B800EEF6ECF6EC20ECE3E9F8E420333020002F
:1000C80020EEFAF7F9F820ECE3E9F8E420333020E1
:1000D8000020ECE020EEE7E5E1F820E327203330CC
:1000E800200020F9E9E7E420E4F1FAE9EEE420331E
:1000F800302000E4FAE7EC20F9E9E7E420E32720E0
:1001080033302000E3E9F8E420333020ECF6ECF655
:10011800E5EC202400202020202020202020202062
:10012800202020202000303330003030310030399A
:10013800390030313000313830003032300031325F
:10014800332020202020202000313233343536203F
:100158002020202020202020200032353235323542
:100168002020202020202020202000303030003087
:100178003035003036300020E3E9F8E420EEF1F4C1
:10018800F82031202020200020E3E9F8E420EEF1D7
:10019800F4F82032202020200020E3E9F8E420EEC3
:1001A800F1F4F820332020202000F0E020E4EEFADB
:1001B800EF2E2E2E00EEE0F8E2EF20F9EEE5FA2120
:1001C8000000F9ECE5ED2CE4F9FAEEF920E1202045
:1001D80020200020ECE7E9F4E5F920E3E9E9F8E973
:1001E800ED2E00F0E020ECF4FAE5E72020202020B6
:1001F800202020002020202020E0FA20E4E3ECFA50
:100208002121212000F0E020E4EEFAEF2020202038
:10021800202020202000202020ECF4FAE9E7FA2012
:10022800E3ECFA2E2E2E00EEFAE1F6F220E0E9F4E5
:10023800E5F12E2E2E00202020E0E9EF20EEF2F04E
:10024800E420202020002020E4F7E520EEF0E5FA65
:10025800F72E2E2E2000202020E9F920EEF2F0E4DF
:1002680020202020002020F0E020ECE3E1F82E2ED2
:100278002E200020E4F7E520E1F9E9EEE5F9200079
:1002880020E4F0E020E4EEFAEF2E2E2E0020FAF41F
:10029800F8E9E820F8E0F9E90020F8F9E9EEFA20B1
:1002A800E4F7E5E3E9ED002020F7E5E320E2E9F9EA
:1002B800E420002020F7E5E320ECF7E5E720002024
:1002C800F9EEE5FA20E4E3E9E9F8E9ED2000F7E9D9
:1002D800E3E5E32020ECF4E920E3E9F8E5FA00207F
:1002E800E6EEF0E9ED2029F9F0E9E5FA282000E446
:1002F800E2E3F8E5FA20F4F0EC20E3ECFA00E2E9B6
:10030800F8F1FA20FAE5EBF0E40020E4EBF0F12054
:10031800F7E5E320230020E4EBF0F120F7E5E32004
:10032800E2E9F9E4200020E4EBF0F120F7E5E3202E
:10033800ECF7E5E7200020E4EBF0F120F9ED2023CD
:100348000020F7E5E32020ECE3E9F8E4202300208F
:1003580020E6EEEF20E4EEFAF0E4200020E6EEEFEF
:1003680020F4FAE9E7FA20E3ECFA20002020E6EE90
:10037800EF20FAE0E5F8E420002020E6EEEF20EC9C
:10038800EEF2F0E420002020E6EEEF20F9E9E7E4C1
:100398002000E6E9E4E5E920E3ECFA203120F2E385
:1003A800203400E4E2E3F8FA20F6ECE9EC20302C03
:1003B800312C3200E0E9F4E5F120EBECECE9200027
:1003C800F0E9FAE5F720ECE0E7F820F4FAE9E7E4E9
:1003D80000EEF6E120E7E8E9F4FA20F9E9E7E400BD
:1003E800E2E9F8F1FA20F4F0EC00E2E9F8F1FA2099
:1003F800E3E52DE2E9E3E900020002009E000100C6
:10040800AE07A0000000F894EE27ECBBF1E0F5BFC2
:10041800E5BFE0936C00F8E1F1BDE1BD8DE0A2E03D
:10042800BB27ED938A95E9F780E090E1A0E0B1E081
:10043800ED930197E9F7E0E0F4E085919591009755
:1004480061F0A591B59105901590BF01F001059057
:100458000D920197E1F7FB01F0CF8BBFEFEFEDBFF6
:10046800E0E1EEBFC0E0D5E00C94AF041A9310E0D1
:10047800E0911705E03019F0E981E03009F401C096
:100488008BC1E091A007E03089F0689431F8A09121
:10049800AE07A93050F4E091AE07EF5FE093AE07E6
:1004A800F0E0ED55F84FA981A08376C1A981A43267
:1004B800D1F4A0E031FCA1E0A03019F00E94EC15C5
:1004C80030F00E94F215E981E093A30709C0E0919A
:1004D800AD07EF5FE093AD07F0E0ED55F84FE08131
:1004E800E983689431F8E981E093A107F0E0309757
:1004F800A1F410E0153030F40E94F815A0E3A083B1
:100508001F5FF8CFE0919F07E03019F4E1E0E09336
:100518009F07E3E0E093A00732C1E130A0E0FA07CB
:1005280021F0E230A0E0FA0709F404C0E330A0E0CB
:10053800FA0709F404C0E430A0E0FA0709F404C09B
:10054800E530A0E0FA0709F404C0E630A0E0FA07B5
:1005580009F404C0E730A0E0FA0709F404C0E83061
:10056800A0E0FA0709F404C0E930A0E0FA0709F4AA
:1005780004C0EA30A0E0FA0709F404C0EB30A0E0B8
:10058800FA0709F404C0EC30A0E0FA0709F404C043
:10059800ED30A0E0FA0709F404C0EE30A0E0FA0755
:1005A80009F404C0EF30A0E0FA0709F404C0E03110
:1005B800A0E0FA0709F404C0E131A0E0FA0709F461
:1005C80004C0E231A0E0FA0709F404C0E331A0E076
:1005D800FA0709F404C0E431A0E0FA0709F404C0FA
:1005E800E531A0E0FA0709F404C0E631A0E0FA0713
:1005F80009F404C0E731A0E0FA0709F404C0E831BF
:10060800A0E0FA0709F404C0E931A0E0FA0709F408
:1006180004C0EA31A0E0FA0709F404C0EB31A0E015
:10062800FA0709F404C0EC31A0E0FA0709F404C0A1
:10063800ED31A0E0FA0709F404C0EE31A0E0FA07B2
:1006480009F404C0EF31A0E0FA0709F406C0E0326B
:10065800A0E0FA0711F00C947F031F5F0E94F815C1
:10066800A3E40E94FD15BF01A9810E9400160E9403
:100678000616BF01A9810E940B16A1E30E9411165C
:10068800E0918D07E05DEC931F5F0E94F8150E94D2
:1006980018160E946F190E9406160E9418160E94CA
:1006A80087190E940616BF01A09160070E942016B4
:1006B8000E940616BF01A09160070E9400160E94C2
:1006C80026160E940616BF01A09160070E940B160D
:1006D800A0E30E941116E0916207E170E05DEC93DF
:1006E800E0919F07E03019F4E3E0E0939F07E3E02F
:1006F800E093A00744C0E132A0E0FA07B9F41F5F15
:100708000E94F815A3E40E94FD15A0E30E94FD15C0
:10071800A0E30E94FD15A5E40E942C1619F4E3E05D
:10072800E0939F07E3E0E093A00729C0E232A0E04E
:10073800FA0789F41F5F0E94F815A0E50E94FD15CD
:10074800A2E50E942C1619F4E3E0E0939F07E3E08A
:10075800E093A00714C0E332A0E0FA0781F41F5F1A
:100768000E94F815A9E40E94FD15A6E50E942C1622
:1007780019F4E3E0E0939F07E3E0E093A007109308
:100788001706E0E0E093110744241A9A689424F8C5
:10079800E1E07E2EE0E0ECB91881229608950E94EF
:1007A80031161A93AF93BF93EF93FF93AFB7AF93FD
:1007B80066241CB1103089F122FC2EC00E94381624
:1007C8001083E0911C05F0E03196A0911606B0E088
:1007D800AE17BF079CF07724E89424F8E7B7EE7FBC
:1007E800E7BF442011F4E1E04E2E141511F468948B
:1007F80001C0E89421F8689422F805C0A091160673
:10080800A13008F0410EE0911606EF5FE09316065E
:100818000E943816A0E0A08313C0E89422F8E0E014
:10082800E09316060E943816A3E5A083E091160609
:10083800F0E0E35EFA4FA0E0A083E89421F84424B6
:10084800E09116060E943E16EB3FA0E0FA071CF066
:10085800E0E0E0931606AF91AFBFFF91EF91BF9133
:10086800AF9119913FC00E943116AF93BF93EF9398
:10087800FF93AFB7AF93E0911107E03029F1E09112
:100888001706F0E03196A09111070E94411624F452
:10089800E2E07E2E559A17C0E0911706A091110745
:1008A800EA1730F4442011F4E1E04E2E4CB806C0AB
:1008B8000E9445164E0E0E944516ECB9E0911107AC
:1008C800EF5FE093110708C00E944516ECB9E0916C
:1008D8001107EF5FE0931107AF91AFBFFF91EF9161
:1008E800BF91AF91E991EFBFF991E991B991A991C0
:1008F8001895EA93EFB7EA93AF93BF93EF93FF93FB
:10090800AFB7AF9355981A984424E3E07E2EE89445
:1009180024F86624AF91AFBFFF91EF91BF91AF91DB
:10092800E991EFBFE99118950E944C16E0919F0755
:10093800E03061F00E945A1621F4E7B7EE7FE7BF76
:1009480005C0E091A107EA930E943A02E89421F8D1
:100958000E9461161895EFE1E1BDEFE0E1BDE0E02E
:10096800EBBBEFEFEABBE0E8E8BBE1E2E7BBE0E0C6
:10097800E5BBEFEFE4BBE0EDE2BBE2B3EE7BE2BB4D
:10098800E0E0E1BBE1B3ED67E1BBE7E0E3B9EEEF3F
:10099800E2B9E0E0E0936200EFEFE0936100ECE998
:1009A800E0936500E4E0E0936400E6E0E3BFE0E0A4
:1009B800E0BFEBE4E2BFE0E0E1BFEFBDEEBDEDBDBF
:1009C800ECBDEBBDEABDE9BDE8BDE0937900E0937D
:1009D8007800E4BDEAEFE3BDEBE0E5BDE3E4E093D6
:1009E8008B00E0E0E0938A00E0938900E0938800C0
:1009F800E1E0E0938700E0E0E0938600E093850083
:100A0800E0938400E0938300E0938200E0936A001F
:100A1800EABFE9BFE7B7E068E7BFE7B7E469E7BF60
:100A2800E7B7EE7FE7BFE0E0E0937D00EBB9E8EDE4
:100A3800EAB9E6E0E0939500E9E1E9B9E0E0E0939E
:100A48009000E0939B00E0939A00E0939D00E09370
:100A58009900E0939800E0E8E8B9E0E0E0BD789418
:100A68000E949F120E94EE0D0E94840F55246894E4
:100A780023F8E89424F822F821F8E3EBE0937207CE
:100A8800E7B7EE7FE7BF55980DD2E8E3E0939D07FF
:100A9800C09AA8950E945F10E0916300E87051F435
:100AA800A0915C07A33328F4E0915C07EF5FE09323
:100AB8005C0703C0E0E0E0935C07A0915C07A23309
:100AC80089F40E946F160E947616E2EAF0E00E940E
:100AD8007E160E948216E3E0E0937807E4E0EA934A
:100AE8000E944910E0916300E07111F0879904C0F9
:100AF800E0911705E03009F00AC0A0916307A3331D
:100B080028F4E0916307EF5FE093630703C0E0E038
:100B1800E0936307A0916307A23339F40E94861615
:100B28000E948B16E4E0E0937807E0916507E030D7
:100B380021F4E0916607E03009F418C00E94861697
:100B4800E0E0E0936607E0915E07E03049F00E943C
:100B5800C415E0915E07EF5FE09367070E949A165D
:100B6800E1E0E0936807E4E0E0937807E091670745
:100B7800E03021F4E0916807E03009F411C00E94E8
:100B8800A116E09368070E94C615E0916107E0305E
:100B980011F0AA2009F004C0E1E2EA930E943A02A7
:100BA800E0915B07E03031F0E0E0E0935B07E3E0E1
:100BB800E0937807E0917A07E03029F0E0E0E093ED
:100BC8007A070E94AE169920E1F4E5E09E2E0E9475
:100BD800EF11E0937707E030A1F0E0915F07E03094
:100BE80021F0EF5FE0936407A89A42D2E09168078A
:100BF800E03021F4E0911705E03009F002C00E94CE
:100C08009A1624FC02C00E94461150D427FE05C043
:100C1800E89427F8E8E7E0939E0726FE44C0E894A6
:100C280026F8E0911705E03039F0E0919E07E030B2
:100C380019F0E150E0939E07E091A007E03099F1A8
:100C4800E150E093A007E03071F5E0919F07E030B4
:100C580011F10E945A16C9F4E091A107E03049F455
:100C68000E94EC1518F00E94B51602C00E94B81632
:100C78000BC0E0E0E0937907CC240E9486160E941E
:100C8800B516E1E0E093A20705C0E091A107EA9359
:100C98000E943A0208C00E94EC1518F00E94B5168E
:100CA80002C00E94B816A0919D07A23020F0A09122
:100CB8001705A03009F00FC00E94BC16E13220F4DD
:100CC800E0919907E03009F403C00E94BC16AE2EEB
:100CD800E0E0E0939907E0919E07E03021F4A091CD
:100CE8001705A13008F401C0E3D0A0919C07AE37E6
:100CF80020F0A0911705A23008F404C0E0E0E093CA
:100D08009C0736D025FEFECFE89425F8C2CEFFCF4B
:100D1800E0917B07E03039F4E0E0E0931705E894D0
:100D280020F8C6D024C0E1E0E0931705E0917B07E6
:100D3800E150E0937B070E94C516E081E0937C07B1
:100D48000E94CB16EAE0F0E00E946F190E94D016CC
:100D58000E94D516A0917507B0917607AE1BBF0B00
:100D6800A0937307B0937407E0E0E0931A05089521
:100D7800A0911705A83009F40895E0918807E0309C
:100D880049F00E94D916E081E09389070E94D9169C
:100D9800AEE204C00E94D916A0918907A083A09151
:100DA8008807E1E0EA27E09388070895E0E0E09308
:100DB8009C070E94CB16549741F40E94E016E0E28B
:100DC8000E94E716E4E00E94ED160E94CB165E979B
:100DD80041F40E946F16E1E00E94E716E7E00E94E6
:100DE800ED160E94CB16989741F40E94F716E1E0A1
:100DF8000E94E716E7E00E94ED160E94CB161A97AC
:100E080059F40E94FE16E0E2E0938B07E0E1E093DC
:100E18000505E3E00E9405170E94CB16DC9759F4FC
:100E28000E941517E0E2E0938B07E2E0E0930505E6
:100E3800E5E00E9405170E94CB16D29759F40E944C
:100E48001C17E5E0E0938B07E3E0E0930505E6E097
:100E58000E9405170E94CB16A634E0E0BE0759F49D
:100E68000E942317E5E0E0938B07E1E0E093050596
:100E7800E6E00E9405170E94CB16A035E0E0BE0709
:100E880051F40E942A17E0938B07E2E0E0930505EE
:100E9800E8E00E940517E0911A05E03011F00E9481
:100EA800321708950E94A1160E9437174AD4089550
:100EB8000E94A1160E943717E0E0E0939D07552491
:100EC80008951A93E0E0E0939D07A0917707A53174
:100ED80049F4CC24B394DB1410F4E1E0BE2E0E9454
:100EE8003F17C4C0A0917707A73151F4CC24E1E0A3
:100EF800EB1510F0BD2C01C0BA940E943F17B6C084
:100F0800A0917707A631B1F5E0919907E03041F05B
:100F18000E94BC16E13220F40E94BC16E03011F4A5
:100F2800AA20F9F0AA2019F40E94BC16AE2EE1E01E
:100F3800F0E0E0939A07F0939B07E89426F855248D
:100F4800E0E0E0937907AA920E942710EA930E94B2
:100F58003A02E1E0E0935B07C0906D070E944A17F0
:100F680002C00E944F17EA930E944910E0E0E09304
:100F780099077CC0A0917707A831E9F5CC24FFD464
:100F88001E2F0E945417309769F5113039F40E94CA
:100F980086160E948B160E944A1720C0123061F4F0
:100FA800689427F8E89420F8E1E0E09317050E9498
:100FB80059170E94651712C0133059F4689427F81E
:100FC800E1E0E093170520F80E9459170E94651781
:100FD80005C0E0E0E09399070E944F17EA930E944A
:100FE800491008C0E0E0E09399070E944F17EA9380
:100FF8000E9449103BC0A0917707A13010F0AB3098
:1010080008F020C00E944A17EA930E944910AA24B7
:10101800BB24A0917707AA3019F4E0E0E0937707A2
:10102800E0919907F0E0E157F84FA0917707A08386
:10103800A0919907AA3028F4E0919907EF5FE0930F
:10104800990714C0A0917707A13181F4CC24E0E07E
:10105800E0939907E1E0E0937A070E944A17EA9340
:101068000E944910E1E2EA930E943A021991089518
:10107800E0911705E03029F4E3E0E093790721DFF8
:1010880001C1A0911705A13011F00C94AA08E8E756
:10109800E0939E07A0917707A53191F4E091180598
:1010A800A0917C07EA1711F4E1E003C0E0917C0706
:1010B800EF5FE0937C070E94D5160E946D1745C02C
:1010C800A0917707A73189F4A0917C07A13019F482
:1010D800E091180503C0E0917C07E150E0937C079C
:1010E8000E94D5160E946D1730C0A0917707A631CF
:1010F80031F5E09119050E947117A0917B07B0E0C6
:10110800AE17BF07D4F40E94C516A0917C07A08330
:10111800E0917B07EF5FE0937B07E1E0E0937C07DA
:10112800A0917507B0917607EAE00E9464190E94C1
:1011380074170E94D5160E946D1738DE06C0A0915C
:101148007707A13111F40E94791796C0E0918807BA
:10115800E03009F40DDEE8E7E0939E07A0917707F9
:10116800A831B1F40E94CB161A9789F4E091870749
:10117800EF5FE0938707E0E0E0938A07E0910505D9
:10118800A0918707EA1718F4E1E0E093870774C095
:10119800A0917707A531A1F40E947F17E0918B07F2
:1011A800A0911A05AE1720F4E0911A05EF5F01C06F
:1011B800E1E0E0931A050E9432170E9484175CC090
:1011C800A0917707A73199F40E947F17A0911A057B
:1011D800A23020F0E0911A05E15002C0E0918B079F
:1011E800E0931A050E9484170E94321745C0A09107
:1011F8007707A13161F5A0918707A23048F0E09107
:101208008707E150E0938707E0E0E0938A071EC074
:101218000E947F170E9423170E948D170E9494171F
:10122800E0938E0775DDA0918E07A53019F40E9412
:1012380079170CC00E942A170E949C170E94A217B7
:1012480019F40E94A91711F00E94B11715C0A091B6
:101258007707A63189F00E94CB161A9711F44BD064
:101268000BC0A0911705A83009F40895A09187072D
:10127800A13009F408D018D0E3E0E0937807E1E062
:10128800EA9303D708951A93E09187070E9471178C
:101298001E2FE09105051E1730F40E94BD17A0E22D
:1012A800A0831F5FF6CFC2C4A0917707A13010F0CA
:1012B800AB3008F01FC0A0917707AA3019F4E0E01E
:1012C800E09377070E94D916DF01E0917707E05D88
:1012D800EC93E0918707EF5FE0938707E0910505BE
:1012E800A0918707EA1718F4E1E0E0938707E0E0A8
:1012F800E0938A0708951A93E0E0E0938C07A091A1
:101308007707A13010F0AB3008F0CFC0A091770775
:10131800AA3019F4E0E0E09377070E94C217A09181
:101328008A07A43051F4A0917707A43031F0A53092
:1013380021F0A93011F00E94C217A0918A07A630A7
:1013480018F0E1E0E0938A07A0918A07A53029F414
:10135800E0917707E05D1E2FA5C0E0918C07E03093
:1013680011F00C943D0AA0917707A130B1F4A09137
:101378008A07A13009F417E2A0918A07A23009F47C
:101388001DE2A0918A07A33009F41EE2A0918A0702
:10139800A33011F40E94C2176CC0A0917707A23045
:1013A80049F4E0918A07EE510E94C81711F40E948F
:1013B800C2175FC0A0917707A33049F4E0918A076C
:1013C800E1520E94C81711F40E94C21752C0A0919E
:1013D8007707A43029F4E0918A07E4511E2F49C009
:1013E800A0917707A53029F4E0918A07E8511E2FCC
:1013F80040C0A0917707A63049F4E0918A07EB51E5
:101408000E94C81711F40E94C21733C0A091770731
:10141800A73049F4E0918A07E9500E94C81711F4EF
:101428000E94C21726C0A0917707A83049F4E0911E
:101438008A07EC500E94C81711F40E94C21719C0FD
:10144800A0917707A93029F4E0918A07E0511E2F6F
:1014580010C0E0918A07E35C6E2FE0917707A3E064
:10146800EA02F001E60F1E2FA0918C07A23009F4C2
:10147800105EE0917707E030A9F4A0918A07A130C7
:1014880009F410E2A0918A07A23009F418E2A091A9
:101498008A07A33009F419E2A0918A07A33011F44E
:1014A8000E94C2170E94D9161083C0C30E94CD178C
:1014B800A0911705A23060F00E94D617FBD0A0912A
:1014C8001705A33021F40E94D6170E948915D9C0A8
:1014D800AA2011F0CC2009F45AC00E94FE160E94DE
:1014E800DB17552029F40E94E117E7EBF0E01FC055
:1014F800E2E0E51529F40E94E117E8ECF0E017C0F6
:10150800E5E0E51529F40E94E117E9EDF0E00FC0E8
:10151800E3E0E51529F40E94E117EAEEF0E007C0E0
:10152800E6E0E51541F40E94E117EBEFF0E0FA93ED
:10153800EA930E94D715AA2D0E942016309779F0B9
:10154800AA2D0E942016E05DE09325070E94E61769
:101558000E94EC17E09324070E94E6170DC0AA2DFD
:101568000E940016309731F0AA2D0E940016E05D07
:10157800E0932407AA2DBB27EAE0F0E00E948A192D
:10158800E05DE09323070E94D61794D074C0AA2088
:1015980021F0E0911705E03009F03BC00E94FE16EB
:1015A8000E94DB170E94E11785D00E94D617ECE055
:1015B800F1E00E947E16E3E0E0933507AA2D0E9431
:1015C80020163097A9F0AA2D0E942016E05DE0931E
:1015D8002C070E94E6170E94EC17E0932B07EA2DD0
:1015E8000E94F2170E942616E05DE0932A0710C0B9
:1015F800AA2D0E940016309731F0AA2D0E940016DD
:10160800E05DE0932C07AA2D0E94F617E0932B07C4
:1016180032C0E091A207E03051F1A091A207A130B9
:1016280039F4E9E0F0E00E947417EAE0F0E00AC05B
:10163800A091A207A23051F4EDE0F0E00E947417E7
:10164800EEE0F0E0E0937507F0937607E0E0E093D2
:10165800A2070E94CD170E94FD170E946C130E94DA
:10166800D6170E948915E4E0E09379070AC00E9422
:10167800FD170E946C13E6E2F7E0FA93EA930E94E2
:1016880089150E94E1170E9404180E94D61701D0FC
:10169800089530FC0EC00E940718E0E0EA930E940B
:1016A8000413E881F981FA93EA93E0E4EA930E944B
:1016B8000413B7C11A930E940C18EDE1F1E00E94DF
:1016C8007E1610E0E09105051E1728F40E94BD174C
:1016D800E081E03009F408C00E9411180E94BD178B
:1016E800E081EC931F5FEECF7BC41A930A9311E05D
:1016F800E09105050E947117EA5FFA4FA081A032B8
:10170800C9F4E09105050E9471170E2F013068F0A9
:10171800A02FB0E0AA5FBA4FE02F0E947117EA5FCE
:10172800FA4FE081EC930150F1CFE0E3E093060536
:101738001F5FDECFEA81EA930E9461121981088156
:1017480050C448D20E941C17E3E00E949C170E94D4
:10175800171879F4E0910705EF70E43050F4E09140
:101768000705EF70E33021F4E0910705EF7009F405
:1017780008C00E941F18EEE2F1E00E947E160E9447
:1017880082160E942418E0935D070E94301821F009
:10179800E0E3E09306050FC0E0910705E07021F053
:1017A800E0910805E07009F40AC00E941F18E2E3FE
:1017B800F1E00E947E16E2E0EA930E9461120E9424
:1017C8002418E0935E07E3E0EA930E947D120E94EA
:1017D800941741F00E941F18E6E3F1E00E947E167C
:1017E8000E943C180E942418E0935F07A0915F07AD
:1017F800A33609F4A89AE0915F07E03009F4A898A5
:101808000E94401829F00E941F18E6E3F1E008C082
:10181800E0910705EF7051F40E941F18EAE3F1E028
:10182800FA93EA930E94D7150E944C18E091070595
:10183800F0E0EF70F070AAE0B0E00E946A19DF01F2
:10184800E0910805F0E0EF70F070EA0FFB1FE093FD
:101858006D07F0936E070E945018E23060F4E13093
:1018680049F4E0910705EF70E83021F4E0910805AC
:10187800EF7009F405C00E941F18EEE3F1E00EC0F6
:10188800E0910605EF7029F4E0910705EF70E2306A
:1018980008F00AC00E941F18E2E4F1E0FA93EA9304
:1018A8000E94D7150E945C18E0910605EF70A4E627
:1018B800EA02602DE0910705EF70AAE0EA02F00164
:1018C800A62FAE0FE0910805EF70EA0FE0936007CE
:1018D8000E942317E1E00E949C170E941718E093CA
:1018E8008D07A0918D07A53010F4E03009F407C0EA
:1018F800E0918D070E947117E0938D0706C00E9442
:101908001F180E9460180E9482160E9430188E2E9E
:10191800E2E0E81540F4E1E08E2E0E941F180E94D4
:1019280060180E9463180E944018E0936107A09114
:101938006107A23050F0E1E3E09306050E944C18DD
:10194800E0910605EF70E09361070E945018E0935C
:101958006207A0916207A23050F0E1E3E093060528
:101968000E945C18E0910605EF70E0936207E0E0E2
:10197800E0931705E3E2EA930E943A0208950E9471
:10198800CA19E0E03E2F1E2FEAE0E09305050E9409
:101998006F16E0919907E030A9F13F5F3A930E94F2
:1019A8007D1200E020E0E09199072E1710F4003036
:1019B80009F012C0E22FF0E00F01EA5FFA4FA081B0
:1019C800F001E157F84FE081F0E0F0960E944116EF
:1019D80009F001E02F5FE7CF003071F411E0E22F4A
:1019E800F0E0EA5FFA4FA081A13220F0A0919907B8
:1019F800AA3008F001C010E0333210F4103009F0BA
:101A080001C0CBCF313011F4103009F401C012E01D
:101A1800323011F4103009F401C013E0E12F0E94B4
:101A2800CF19249608950E944C16689425F8E091E1
:101A38006F07F09170070E946718EA0FFB1F0E945A
:101A48006C18992009F09A94E0916B07F0916C0753
:101A5800309771F0ABE6B7E0ED91FD913197FE93C9
:101A6800EE93E0916B07F0916C07309709F41DD362
:101A7800A0911705A23058F0A0919A07B0919B0742
:101A8800E6E5F0E00E948719309709F471D9AAE9D0
:101A9800B7E00E947118A0919A07B0919B07AA3FDE
:101AA800E0E0BE0710F40C94EB0DE0919A07F0917A
:101AB8009B07EA5FF040E0939A07F0939B076894CE
:101AC80026F8CC20D9F0E0E0E0937907CA94E091B9
:101AD8006D07F0916E073197AC2D0E94411649F4BD
:101AE800E4E0E0937807E2E0E81519F4E5E0EA932A
:101AF800CCD2CC2019F4E1E0E0937A07E0916407B6
:101B0800E03021F0A0916407A33608F008C0E09106
:101B18006407E150E0936407E03009F4A898E09185
:101B28006507E03099F0E0E0E0937907E4E0F0E061
:101B38000E947417E5E0F0E00E94D016E091650776
:101B4800E150E0936507E1E0EA939FD2E0916707EF
:101B5800E03099F0E2E0F0E00E947417E3E0F0E092
:101B68000E94D016E0916707E150E0936707E2E032
:101B7800E81519F4E3E0EA9388D2E0917907E030B8
:101B880041F0E0919D07E03021F4E0911705E03045
:101B980009F00AC0E0917907E150E0937907E03055
:101BA80019F4E1E0E0937A07E0919907E03011F049
:101BB800AA2009F004C0E0911705E03009F004C03C
:101BC800E0919D07EF5F01C0E0E0E0939D070E9470
:101BD800611618951A930E942A170E949C170E9452
:101BE800A21719F40E94A91709F025C00E9423170B
:101BF8000E948D17E0910605EF70E530E1F0A091A5
:101C08000605AF3FC1F010E01436A8F4E091630078
:101C1800E87011F4B79B0CC0E6E0F5E0FA93EA939C
:101C2800E0E3F1E00E947E160E943C1819910895A5
:101C380000001F5FE9CFE7E0F0E00E947417E8E0DA
:101C4800F0E00E94D0160E94CD170E94FD170E9456
:101C58006C130E94E1170E9477180E9404180E94D2
:101C6800D61717DDE8EEF3E0FA93EA930E944C19D1
:101C78000E94E0160E947616E6E4F1E00E947E16C5
:101C88000E94821612E0113258F40E941F18E9EAE5
:101C9800F0E00E947E161A930E9461121F5FF3CF34
:101CA8000E946F160E947616E1E5F1E00E947E160A
:101CB8000E9482160E94F7160E947616E2E6F1E06C
:101CC8000E947E160E9482160E941517E2E0E09399
:101CD800050511E0113250F5143668F4A12F0E9461
:101CE8000016E05DE0930605A12F0E94F617E09329
:101CF8000705E0E214C0A12F0E942016E05DE093E2
:101D08000605E12F0E94F217DF010E94EC17E0930D
:101D18000705E12F0E94F2170E942616E05DE09366
:101D280008051A930E9461121F5FD4CF0E941C17E6
:101D3800E3E00E947A18E3E7F1E00E947E160E9431
:101D480082160E941F18E7E7F1E00E947E160E94A3
:101D580063180E941F18E6E3F1E00E947E160E94B5
:101D68003C180E941F18E2E4F1E00E947E160E94CF
:101D78004C180E941F18EBE7F1E00E947E160E94A3
:101D88005C180E94FE16E0E10E947A18EFE7F1E085
:101D98000E947E160E9482160E941F18E0E9F1E058
:101DA8000E947E160E9463180E941F18E1EAF1E063
:101DB8000E947E160E943C1814E0113258F40E94CA
:101DC8001F18EDE1F1E00E947E161A930E9461123D
:101DD8001F5FF3CF0E942317E1E00E947A180E9448
:101DE80060180E9482160E941F180E9460180E94A4
:101DF80063180E941F180E9460180E944C180E94C5
:101E08001F180E9460180E945C180E941F18E0E3C7
:101E1800F1E00E947E160E943C180E942A170E9438
:101E28009C170E94A21719F40E94A91749F00E9452
:101E3800B117E0E3E0930605E09307050E946318F5
:101E4800E0E0E0937307E0937407E1E0F0E00E94BC
:101E5800D0160E94CD170E94FD170E946C130E9495
:101E6800E1170E9477180E9404180E94D61711DC07
:101E7800E2E2EA930E943A020C946013A881A1302E
:101E880021F4A981BA81EC91ACC0A881A23059F49F
:101E9800A981BA81EC91AAE0EA02A981BA811196D6
:101EA800EC91E00D9EC0A881A330A9F4A981BA8164
:101EB800EC91A4E6EA02602DA981BA811196EC9111
:101EC800AAE0EA02F001E60F0E2EA981BA81129665
:101ED800EC91E00D86C0E0E084C01A9310E0103267
:101EE80068F4E12FF0E0E65CF84FE081A981EA1799
:101EF80019F4E12FEF5FC6C01F5FF1CFE0E0C2C069
:101F080060971A930A930E94E117E2EBF1E00E94AE
:101F18007E160E94E1170E947718EDEBF1E00E940F
:101F28007E160E94D6170E9404180E94D617B1DBAD
:101F3800DD240E94FE16E0E1E093050511E0113270
:101F4800E8F51A930E947D18E0E1EA9365D0FE0156
:101F58003296FA93EA9336D0E03001F5E12F0E94E9
:101F68007117E65CF84FA1E0A08301E00132B0F4FC
:101F78000A930E947D1837D0E03071F00E941F1834
:101F880021D0E03049F4E12F0E947117E65CF84F48
:101F9800DF01EC91EF5FEC930F5FE8CFE12F0E9438
:101FA8007117E65CF84FA081DA1630F4E12F0E9431
:101FB8007117E65CF84FD0801F5FC1CF1981088187
:101FC800629608951A9310E0103148F40E9411188F
:101FD800AC91A03211F0E0E003C01F5FF5CFE1E063
:101FE8001881239608951A9310E0103190F40E94F6
:101FF8008418EC91E01518F4E1E0188122C00E94E1
:102008008418EC910E1618F4E0E018811AC01F5FCE
:10201800ECCFE0E0188115C0E881E03091F0E150A4
:10202800E883AB81BC81F0E0EA0FFB1F0F01E88178
:10203800A981BA81F0E0AE0FBF1FEC91D001EC93FB
:10204800EBCF259608951A930E941517E2E0E093C6
:102058000505E981EA930E947D12E981EA9345DB4F
:10206800E0910605EF700E948B18E0910705EF706C
:10207800EA0F1E2F113010F0113208F002C0E12FC4
:1020880001C0E0E0188122960895882059F0E8817F
:10209800E0937107E8EEF3E00E949018EAE1E0931C
:1020A8008A0001C002D00C944013E0E0E09371076D
:1020B8000E9495180895E0917107E03011F40C948E
:1020C8004511F0E0E130A0E0FA0761F40E949A18A7
:1020D800A53DE3E0BE0718F00E949F1802C00E94C9
:1020E800A718C7C0E230A0E0FA0771F40E949A1856
:1020F800A939E3E0BE0728F0E0E8F2E00E946C1896
:1021080002C00E94A718B5C0E330A0E0FA0771F436
:102118000E949A18AD3BE2E0BE0728F0E0E8F0E044
:102128000E946C1802C00E94A718A3C0E430A0E067
:10213800FA0711F50E949A18A73EE3E0BE0718F0C7
:102148000E949F1818C00E949A18AD3AE3E0BE0793
:1021580080F00E94AA1819F40E94B11802C00E94C7
:10216800B8180E94BE180E94C11810F40E949F1847
:1021780002C00E94A7187DC0E530A0E0FA0711F060
:102188000C943D110E949A18A73EE3E0BE0718F090
:102198000E949F186EC00E949A18AD3AE3E0BE07ED
:1021A80080F00E94AA1819F40E94B11802C00E9477
:1021B800B8180E94BE180E94C11810F40E949F18F7
:1021C80058C00E949A18A934E3E0BE0718F00E948C
:1021D80095184FC00E949A18A734E3E0BE0718F07C
:1021E8000E949F1846C00E949A18AD30E3E0BE07CF
:1021F80098F0EAE1E0938A000E94AA1819F40E9474
:10220800B11802C00E94B8180E94BE180E94C118D6
:1022180010F40E949F182DC00E949A18A93AE2E073
:10222800BE0718F00E94951824C00E949A18A73A71
:10223800E2E0BE0718F00E949F181BC00E949A187F
:10224800AD36E2E0BE0798F0EAE1E0938A000E942A
:10225800AA1819F40E94B11802C00E94B8180E9466
:10226800BE180E94C11810F40E949F1802C00E9454
:10227800A718E0916A07E0938700E0916907E09367
:102288008600089522FE06C021FE04C0E0911705CD
:10229800E03009F09FC0E89422F821F8E0E0E093EC
:1022A8007907E093A007E0939F07E7B7EE7FE7BFC2
:1022B800E0E0E093A20755240E94EC1518F00E9474
:1022C800B51602C00E94B816E0911D05F0E0E03393
:1022D800A0E0FA0709F47EC0E934A0E0FA0799F40F
:1022E800A0912005A63571F40E942A17E0930505F0
:1022F800E0911E05E0930605E0911F05E0930705B0
:102308000E94631863C0E334A0E0FA0781F5A09146
:102318002005A13429F4E2E05E2EC0906D071BC0B1
:10232800A0912005A53429F4E3E05E2EE5E0CE2E49
:1023380012C0A0912005A63421F4E5E05E2ECE2E31
:102348000AC0A0912005A23431F4CC240E9486163C
:10235800E2E0E093A207E091A207E03039F40E949E
:10236800CF180E94D41811F4E0E2AE2E2FC0E43545
:10237800A0E0FA0759F40E94CF180E94D41811F46B
:10238800E0E2AE2EC0906007E6E01FC0E535A0E0B1
:10239800FA07D1F4E0916507E03021F4E09167078E
:1023A800E03009F010C00E94AE160E949A16E09123
:1023B8005D07EF5FE0936507E1E0E09366070E9441
:1023C8004A17EA9362DE02C0E8E05E2EE0E0EA9394
:1023D8000E943A0208951A9310911B050DD0E093BC
:1023E8001B05103011F4E11719F4E0E00C946013A8
:1023F800E0911B050C9460131A930A93C69810E198
:102408000E94DC1800E00430E8F514FF0CC0B29B11
:1024180002C0E1E04FC0B39B02C0E2E04BC0B49BF6
:1024280002C0E3E047C015FF0CC0B29B02C0E4E065
:1024380041C0B39B02C0E5E03DC0B49B02C0E6E0EA
:1024480039C016FF0CC0B29B02C0E7E033C0B39B93
:1024580002C0E8E02FC0B49B02C0E9E02BC017FF20
:102468000CC0B29B02C0E8E125C0B39B02C0EAE001
:1024780021C0B49B02C0E1E11DC0110F0E94DC180D
:102488000F5FC1CFE3B1EF70E3B9C69A00E00E3138
:1024980018F400000F5FFBCFB29B02C0E5E10AC051
:1024A800B39B02C0E7E106C0B49B02C0E6E102C0EC
:1024B800C698E0E00991199108950E94E3180E94D6
:1024C800E918E09105051E1710F4103108F00DC049
:1024D800A0E0B5E00E9471183197DF010E94BD1796
:1024E800E0810E94B9191F5FECCF0E94CF190C94AC
:1024F80057150E94E3180E94E918E09105051E1778
:1025080010F4103108F00FC00E94BD170F01A0E0B1
:10251800B5E00E9471183197DF010E94AD19D00112
:10252800EC931F5FEACF0E94BD17A0E0A0830E9432
:10253800CF190C9457150E94FF180E94FF180E948B
:10254800FF180E94FF18E0E2EA938AD0E8E2EA93D3
:1025580080D0E0E1EA937DD0ECE0EA937AD0E6E03F
:10256800EA9377D0E1E0EA9374D001D00895AA986D
:10257800AB98E8E4EA936DD00E9403190E9407190A
:102588000E940B190E9403190E9403190E94031943
:102598000E9403190E940F190E9403190E9403192F
:1025A8000E9403190E940B190E9407190E9403191F
:1025B8000E940F190E9403190E940719E1E1EA938A
:1025C8003BD00E940B190E940319E0E0EA9334D033
:1025D800E0E0EA9331D008950E94CA1930E0EC8116
:1025E8003E1758F400E010E00436E0E01E0718F447
:1025F8000F5F1F4FF9CF3F5FF2CF0E94CF1953C231
:102608001A93E981E058EA9324D010E0103120F4BD
:102618000E941419E03009F406C00E941419EA93C4
:102628000BD01F5FF3CF103128F4E0E2EA9304D017
:102638001F5FF9CF1881A2C20E941B19E4600E9493
:1026480025190E942919E07FE4600E942519AA989B
:1026580013C00E941B190E9425190E94291909C03C
:10266800E5E0EA93B9DFE5B3EF70E5BBE5B3AE2F7C
:10267800E881E07F0E942519219608951A9310E8B1
:10268800AF9AEFE7E4BBAB9AAA9817FF0FC0AF9ACF
:10269800000000000000A99A00000000000013B329
:1026A80017FF13B3AF98A99809D0EFCFEFEFE4BBAA
:1026B800E5B3EF70E5BBAB981991089500000000F1
:1026C800A99A000000000000A998000000000895E1
:1026D8001A93E0911705E03011F00C940A14EB817D
:1026E800FC81309781F40E940C18EAECF1E00E941A
:1026F8007E16A981BA811D96E1E0EC93A981BA8181
:102708001F96E2E0EC93AB81BC81119731F40E94F3
:102718000C18EBEDF1E00E947E16AB81BC8112979C
:1027280031F40E940C18EBEEF1E00E947E16AB81AA
:10273800BC81139731F40E940C18ECEFF1E00E9471
:102748007E16AB81BC81149731F40E940C18EDE021
:10275800F2E00E947E16AB81BC81159731F40E948D
:102768000C18EEE1F2E00E947E16AB81BC8117974F
:1027780031F40E940C18EDE0F2E00E947E16AB8165
:10278800BC81189731F40E940C18EFE2F2E00E9425
:102798007E16AB81BC81199731F40E940C18EEE3C8
:1027A800F2E00E947E16AB81BC811A9731F40E9438
:1027B8000C18EEE4F2E00E947E16AB81BC811B97F8
:1027C80031F40E940C18EEE5F2E00E947E16AB810F
:1027D800BC811C9731F40E940C18EDE6F2E00E94CF
:1027E8007E16AB81BC811D9731F40E940C18EBE773
:1027F800F2E00E947E16AB81BC811E9731F40E94E4
:102808000C18E8E8F2E00E947E163FC1EB81FC81DB
:10281800309781F40E940C18E5E9F2E00E947E16D8
:10282800A0E020FCA1E0A13010F0E2E001C0E8E067
:10283800E0931805AB81BC81129749F40E940C18EB
:10284800E1EAF2E00E947E16E2E0E0931905AB812E
:10285800BC81139749F40E940C18EFEAF2E00E9439
:102868007E16E2E0E0931905AB81BC81149749F428
:102878000E940C18EBEBF2E00E947E16E2E0E09377
:102888001905AB81BC81119749F40E940C18E7EC3B
:10289800F2E00E947E16E2E0E0931905AB81BC816C
:1028A800169749F40E940C18E6EDF2E00E947E1695
:1028B800E2E0E0931905AB81BC81159749F40E94C9
:1028C8000C18E7EEF2E00E947E16E2E0E0931905AC
:1028D800AB81BC81179749F40E940C18E7EFF2E02E
:1028E8000E947E16E2E0E0931905AB81BC8118973F
:1028F80049F40E940C18E6E0F3E00E947E16E2E03C
:10290800E0931905AB81BC81549749F40E940C18D7
:10291800E2E1F3E00E947E160E943119C6D0AB8135
:10292800BC815E9731F40E940C18EEE1F3E00E943E
:102938007E16AB81BC81989731F40E940C18EEE2A8
:10294800F3E00E947E16AB81BC811A9749F40E947D
:102958000C18EEE3F3E00E947E160E943119A5D010
:10296800AB81BC81DC9749F40E940C18E9E4F3E0E0
:102978000E947E160E94311998D0AB81BC81D297F3
:1029880091F5A0911A05A13031F40E940C18E7E5E1
:10299800F3E00E947E16A0911A05A23031F40E943D
:1029A8000C18E4E6F3E00E947E16A0911A05A33005
:1029B80031F40E940C18E4E7F3E00E947E16A0911F
:1029C8001A05A43031F40E940C18E1E8F3E00E94E3
:1029D8007E16A0911A05A53031F40E940C18EEE875
:1029E800F3E00E947E16AB81BC81A634E0E0BE070E
:1029F80091F5A0911A05A13031F40E940C18EAE96A
:102A0800F3E00E947E16A0911A05A23031F40E94CC
:102A18000C18EBEAF3E00E947E16A0911A05A33089
:102A280031F40E940C18ECEBF3E00E947E16A091A2
:102A38001A05A43031F40E940C18E8ECF3E00E9467
:102A48007E16A0911A05A53031F40E940C18E9ED04
:102A5800F3E00E947E16AB81BC81A035E0E0BE07A2
:102A6800A1F4A0911A05A13031F40E940C18E8EEE7
:102A7800F3E00E947E16A0911A05A23031F40E945C
:102A88000C18E2EFF3E00E947E160E940C180E94D8
:102A9800E2151E2F103130F40E941118E0E2EC9379
:102AA8001F5FF8CF1881259608952497AE81A43624
:102AB80058F40E940016E05DE983AE810E94F61783
:102AC800E883E0E0EA8315C0AE810E942016E05D4D
:102AD800EA83EE810E94F217DF010E94EC17E98376
:102AE800EE810E94F2170E942616E05DE883E0E07E
:102AF800EB83EC81FD81FA93EA93FE013296FA9317
:102B0800EA930E94C815279608951A930A9300E03D
:102B1800083090F50E9435191C91E02FAA81BB81DD
:102B2800F0E0EA0FFB1FBF010E943B19AE0FBF1F69
:102B3800EC91DB01EC930E943B19EA0FFB1F108319
:102B48000E943519AC91A03E28F00E943519AC912D
:102B5800AB3F08F004C00E9435190E944619103E88
:102B680010F01B3F08F006C00E943B19AE0FBF1FB4
:102B78000E9446190F5FCCCF1981088124960895C9
:102B8800959A089595980895E991F991A991B9911F
:102B9800CD016D916623E9F7119761916D936623D5
:102BA800E1F7FC010895E991F991A991B991CD0155
:102BB80005900D920020E1F7FC010895A991B991C3
:102BC800EE27FF276D91662311F03196FBCF08950C
:102BD800E091AE07A091AD07AE170895E0E0E0934D
:102BE800AE07E093AD070895E12FF0E0E95EF94FF5
:102BF8000895A0831F5FF8CFB0E0EAE0F0E00E94FC
:102C080082190895E05DDB01EC931F5FEDCFBB27D0
:102C1800EAE0F0E00E948A19F5CFA0831F5FA12F98
:102C2800B0E0A95EB94F0895BF01A0916D07B091BA
:102C38006E07EAE0F0E00895B0E0E4E6F0E00E9414
:102C480082190895DF01EAE0F0E00E948A190895E8
:102C5800A083E0919F07E0300895AA93BA93EA937E
:102C6800FA93EFB7EA930895E0911606F0E0E45E70
:102C7800FA4F0895F0E033960895B0E0EA17FB079D
:102C88000895E0911107F0E0E95EF94FE0810895B9
:102C98000A921A92FA926A937A938A939A93AA93C7
:102CA800BA93EA93FA93EFB7EA930895E0919F07EE
:102CB800E150E0939F07E0300895E991EFBFF99163
:102CC800E991B991A9919991899179916991F9902D
:102CD800199009900895E5E4F0E0E0930205F09377
:102CE80003050895EAE0E0930505E6E0F5E0FA93C8
:102CF800EA930895FA93EA930C94D715E1E0EA93DE
:102D08000C946112E0E0E0939907AA240895E091F9
:102D18005D07EF5FE0936507EAEFF0E0E0939A075D
:102D2800F0939B07E1E0E09366070895EAEFF0E08F
:102D3800E0939A07F0939B070895E0E0E093730708
:102D4800E0937407E1E0F0E0E0937507F09376070D
:102D5800E0E00895AA24E0E0E0939907BB240C94EE
:102D68005C07E89431F83ACFE4E2EA930C943A022B
:102D7800EFE8F7E0FA93EA93E0919907EA930C9465
:102D8800420FE0917B07F0E0E358F84F0895A091D7
:102D98007307B09174070895E0937507F093760769
:102DA8000895E0917C07F0E00895E0918707F0E04E
:102DB8003197EA5FFA4F0895E9E5F0E0E0930205FC
:102DC800F09303050895E0938B07EAE0E093050587
:102DD8000895E0931705E1E0E0931A05E09387076B
:102DE800E09388070895EFE4F0E0E0930205F0939C
:102DF80003050895E9E9F1E0E0930205F09303057E
:102E08000895E0931705E1E0E0931A05E09387073A
:102E1800E0E0E0938C07E0938A07E1E0E09388071D
:102E28000895E9E9F3E0E0930205F09303050895B6
:102E3800E9EDF3E0E0930205F09303050895E8EE69
:102E4800F3E0E0930205F09303050895E0E4F0E071
:102E5800E0930205F0930305E2E00895E0911A0576
:102E6800EA930C947D12E0931A05E0E0E0937B0767
:102E7800E09317050895BA920E94710FAE2EE3E011
:102E8800E0937807E1E0EA930C944910E3E0E093DB
:102E98007807E1E00895E5E0E0937807E2E0089537
:102EA800E0917307F09174070895E0E0E0937B07E1
:102EB800E1E0E0937C07E0E0E0937307E0937407B8
:102EC80070CF65DFEA0FFB1F67DFE0E0E09399074B
:102ED800DDCF5DDFEA0FFB1F5FCFF0E0319708958C
:102EE800E0937307F093740708950E948C060E947C
:102EF800A50B0C94840FE0911A05EA930C946112C7
:102F0800E1E0E0938707E0E0E0938C07E0938A072D
:102F18000895E1E0E0930505E3E0EA930C947D125F
:102F2800E3E0EA930E94790BE0910605EF700895BB
:102F3800E0930505E1E0EA930C947D12E4EBF0E000
:102F4800A491E0910605EA170895E4EBF0E03196C4
:102F5800A491E0910705EA170895E4EBF0E00490E6
:102F680000920605E4EBF0E0319604900092070524
:102F7800C5CEE12FF0E0EA5FFA4F0895E0918A07A5
:102F8800EF5FE0938A0708951E2FA0918A07A33068
:102F9800089586DFFA93EA93E6E1F7E0FA93EA9375
:102FA8000C946C13E6E2F7E0FA93EA930895E0E1F3
:102FB800E0930505AA920C947D12E6E1F7E0FA93F6
:102FC800EA930895EA2DF0E0E456F040DF01089511
:102FD800EAE0F0E00E948219E05D0895F0E0E4562E
:102FE800F0400895BB27EAE0F0E00E948A19E05D0E
:102FF8000895E0917507F0917607FA93EA93D2CF96
:103008000E948915DACFEA81FB81FA93EA93089541
:10301800E981FA81FA93EA930895A981BA81EE27A2
:10302800A10FBE1F0895E1E0EA930E94790BE09199
:103038000605EF700895E6E0F5E0FA93EA9308953F
:10304800E0910705EF70AAE0EA02F001AE2FE091E7
:103058000805EF70EA0F0895E2E0EA930E947D12F6
:10306800E2E0EA930E94790BE0910605EF7008957B
:10307800E3E0EA930C946112E4E0EA930E947D1283
:10308800E4E0EA930E94790BE0910605EF70089559
:10309800E4E0EA930C946112E5E0EA930E947D1261
:1030A800E5E0EA930E94790BE0910605EF70089538
:1030B800E5E0EA930C946112E4E3F1E01BCEE2E070
:1030C800EA930C946112A0916907B0916A07089578
:1030D800E0936907F0936A070895ED91FD913196A1
:1030E800FE93EE9308950E9489155CCFE093050541
:1030F800A2CF0E947D12FE013296FA93EA939BCFEB
:10310800AB81BC81EE27A10FBE1F0C9086CFAAE031
:10311800EA02F001AE2F0895E0936B07F0936C0775
:103128000895E0E0E0938A001B980895A0916B074A
:10313800B0916C070895E0917807ACE0EA9FF00140
:10314800E058FF4FC5CFE1E0F0E0E6CFEFDFE6E083
:10315800F0E00E94871930970895E0EDFFEFE093C3
:103168006F07F09370070895E0E0E0936F07E0932E
:1031780070070895E09178077DCDACE0B0E00E943B
:103188006A19A0E8B0E00E94A619EA1BFB0B9BDFB6
:10319800AE17BF070895E0911E05F0E0F097B7CF8E
:1031A800E0911F05F0E0F097EA0FAE2EAA200895EF
:1031B800E3B1EF70E3B9E3B1E12BE3B908950E94FD
:1031C800CA19EC81E093040588CE9F01E0910205BD
:1031D800F0910305E050F040BF01E0910505F0E0F3
:1031E800D9010E946A19E60FF71FE0930005F093D2
:1031F800010510E00895E0E3EA930C943413E4E049
:10320800EA930C942013EEE0EA930C942013EFE178
:10321800EA930C942013E0E0EA930E942013EFCF86
:10322800AA81BB81EE27A10FBE1FEC9108950E94D1
:103238004213E5B3EF70E5BBE5B3AE2FE881E07F5D
:103248000895EA2BE5BB0C946213E5B3EF70E5BB78
:10325800E5B3AE2FE881E2950895E0911A05EA9367
:10326800D2CEAA81BB81EE27A00FBE1F0895E02F02
:10327800F0E0AFE0B0E00E94A619EA1BFB0BAA81C0
:10328800BB810895EC91F0E0E054F040EC93089590
:10329800E991F991309639F088EE93E00197F1F7CA
:1032A800A8953197C9F70895F195E195F0400895EB
:1032B800FA9FF02DEB9FF00DEA9FE02DF10D089598
:1032C8006E2F6A9FF0016B9FF00D08952DD0F0DFEF
:1032D8000EF4EADF08950024112490E1AA0FBB1F21
:1032E800001C111C0E1A1F0A18F40E0E1F1E01C016
:1032F800A1609A9599F7FD01D001089515D0EBDFEB
:103308000EF4D2DF0895E7DFFD010895E894B7FFD2
:1033180004C0A095B09511966894F7FDC5DFDBDF72
:10332800FD010EF4C1DF0895E894F7FF02C0BCDF89
:103338006894B7FF06C0A095B095119600F803945D
:1033480000FA08951B2EBF2FF12D1A2EAE2FE12D56
:103358000895E199FECFFF93FFB7F894AEBBBFBBCA
:10336800E09AEDB3FFBFFF910895E19B02C0A895D5
:10337800FCCF9FB7F894AEBBBFBBE09A8DB3E817FC
:1033880019F0EDBBE29AE19A9FBF08953A932A9308
:103398001A930A9308953B812A8119810881089517
:00000001FF
