:0E0000000C949B020C9400000C9400000C94D5
:10000E0000000C9400000C9400000C9400000C9462
:10001E0000000C9400000C94050E0C9400000C943F
:10002E0000000C9400000C9400000C9400000C9442
:10003E0000000C949C030C9400000C94CE020C94C3
:10004E0080030C943C030C9400000C9400000C9460
:10005E0000000C9400000C9400000C9400000C9412
:10006E0000000C9400000C9400000C9400000C9402
:10007E0000000C9400000C9400000C94000010275B
:10008E00E80364000A0001000010000110000100E6
:10009E00000000000000313233343536202020209D
:1000AE002020202020202000332E352E333000201B
:1000BE00EEF6ECF6EC20ECE3E9F8E4203330200029
:1000CE0020EEFAF7F9F820ECE3E9F8E420333020DB
:1000DE000020ECE020EEE7E5E1F820E327203330C6
:1000EE00200020F9E9E7E420E4F1FAE9EEE4203318
:1000FE00302000E4FAE7EC20F9E9E7E420E32720DA
:10010E0033302000E3E9F8E420333020ECF6ECF64F
:10011E00E5EC20240020202020202020202020205C
:10012E002020202020003033300030303100303994
:10013E003900303130003138300030323000313259
:10014E003300313233343536003235323532350004
:10015E0030303000303035003036300020E3E9F8F2
:10016E00E420EEF1F4F82031202020200020E3E9F5
:10017E00F8E420EEF1F4F82032202020200020E3D5
:10018E00E9F8E420EEF1F4F820332020202000F0EE
:10019E00E020E4EEFAEF2E2E2E00EEE0F8E2EF2055
:1001AE00F9EEE5FA2100202020202020202020201A
:1001BE002020202020200000F9ECE5ED2CE4F9FAB7
:1001CE00EEF920E1202020200020ECE7E9F4E5F90B
:1001DE0020E3E9E9F8E9ED2E00F0E020ECF4FAE591
:1001EE00E72020202020202020002020202020E09A
:1001FE00FA20E4E3ECFA2121212000F0E020E4EEE5
:10020E00FAEF20202020202020202000202020EC8B
:10021E00F4FAE9E7FA20E3ECFA2E2E2E00EEFAE1DC
:10022E00F6F220E0E9F4E5F12E2E2E00202020E05B
:10023E00E9EF20EEF2F0E42020202000EEEEEEE9D1
:10024E00F820E4E3E52DE2E9E3E900202020E9F9D6
:10025E0020EEF2F0E420202020002020F0E020EC20
:10026E00E3E1F82E2E2E200020E4F7E520E1F9E957
:10027E00EEE5F92000F9E5E3F820EEF1F4F820239D
:10028E0000F9E9E3E5F820E4F1FAE9E9ED00E4FA32
:10029E00F7E1EC20EEF1F4F8202300F7E1ECE42096
:1002AE00E4F1FAE9E9EEE400E4F2E1F8FA20F9E922
:1002BE00E7E420F0EBF9ECE400E7E9E9E2EF20EC0B
:1002CE00E020EEE7E5E1F800E7E9E9E2EF20ECE017
:1002DE0020EEE7E9E9E200F9E5E3F820F9ED20E3A5
:1002EE00E9F8E420230020FAF4F8E9E820F8E0F930
:1002FE00E90020F8F9E9EEFA20E4F7E5E3E9ED008C
:10030E002020F7E5E320E2E9F9E420002020F7E5DC
:10031E00E320ECF7E5E7200020F9EEE5FA20E4E330
:10032E00E9E9F8E9ED2000F0E9FAE5E120ECF4E97D
:10033E0020E3E9F8E5FA0020E6EEF0E9ED2029F9F0
:10034E00F0E9E5FA282000E4E2E3F8E5FA20F4F01B
:10035E00EC20E3ECFA00E2E9F8F1FA20FAE5EBF032
:10036E00E400EEF1F4F8E920E8ECF4E5EF203100DA
:10037E00EEF1F4F8E920E8ECF4E5EF203200EEF1CE
:10038E00F4F8E920E8ECF4E5EF203300EEF6E12096
:10039E00E4F2E1F8FA20F9E9E7E400E8ECF4E5EF3D
:1003AE00203120ECE3E9F8E42000E8ECF4E5EF205E
:1003BE003220ECE3E9F8E42000E8ECF4E5EF20333A
:1003CE0020ECE3E9F8E42000E4F2E1F8FA20F9E9A0
:1003DE00E7E420E327200020E4EBF0F120F7E5E34B
:1003EE0020230020E4EBF0F120F7E5E320E2E9F929
:1003FE00E4200020E4EBF0F120F7E5E320ECF7E554
:10040E00E7200020E4EBF0F120F9ED202300F0E9E5
:10041E00FAE5E120ECE3E9F8E42023002020E6EE03
:10042E00EF20E4EEFAF0E4200020E6EEEF20F4FAFE
:10043E00E9E7FA20E3ECFA20002020E6EEEF20FABE
:10044E00E0E5F8E420002020E6EEEF20ECEEF2F0FE
:10045E00E420002020E6EEEF20F9E9E7E42000E6B4
:10046E00E9E4E5E920E3ECFA203120F2E320340060
:10047E00E4E2E3F8FA20F6ECE9EC20302C312C32F1
:10048E0000E0E9F4E5F120EBECECE92000F0E9FA0C
:10049E00E5F720ECE0E7F820F4FAE9E7E400EEF601
:1004AE00E120E7E8E9F4FA20F9E9E7E400ECF9E302
:1004BE00F820E8ECF4E5F0E9ED00ECF7E1EC20E8EB
:1004CE00ECF4E5F0E9ED00EEF6E120E8F1E800E20B
:1004DE00E9F8F1FA20F4F0EC00E2E9F8F1FA20EE96
:1004EE00EEE9F80001002D4E414E00494E46000047
:1004FE00020002009E0001000005B500010001058A
:10050E00B50001000205B50001000305B5000100AC
:10051E000405B50001000505B50004000400A000A7
:10052E000100E007F2040000F894EE27ECBBF1E0C6
:10053E00F5BFE5BFE0936C00F8E1F1BDE1BD8DE0E4
:10054E00A2E0BB27ED938A95E9F780E090E1A0E069
:10055E00B1E0ED930197E9F7EEEFF4E08591959117
:10056E00009761F0A591B59105901590BF01F0012E
:10057E0005900D920197E1F7FB01F0CF8BBFEFEFE6
:10058E00EDBFE0E1EEBFC0E0D5E00C94B3030E94F6
:10059E00111D1A9324FE03C019910C947903AF9385
:1005AE00BF93EF93FF93AFB7AF939924689425F859
:1005BE00E3E0E09309051CB1103089F122FC2EC056
:1005CE000E94181D1083E0912A05F0E03196A0914B
:1005DE003406B0E0AE17BF079CF0E0E0E0930905EB
:1005EE00E7B7EE7FE7BF662011F4E1E06E2E161539
:1005FE0011F4689401C0E89421F8689422F805C0BB
:10060E00A0913406A13008F0610EE0913406EF5F40
:10061E00E09334060E94181DA0E0A08313C0E89456
:10062E0022F8E0E0E09334060E94181DA3E5A083B3
:10063E00E0913406F0E0E55DFA4FA0E0A083E89487
:10064E0021F86624E09134060E941E1DEB3FA0E0C7
:10065E00FA071CF0E0E0E0933406AF91AFBFFF91D4
:10066E00EF91BF91AF9119913DC00E94111DAF93B3
:10067E00BF93EF93FF93AFB7AF93E0913F07E03097
:10068E0019F1E0913506F0E03196A0913F070E94F6
:10069E00211D14F4559A17C0E0913506A0913F071D
:1006AE00EA1730F4662011F4E1E06E2E6CB806C045
:1006BE000E94251D6E0E0E94251DECB9E0913F078C
:1006CE00EF5FE0933F0708C00E94251DECB9E09153
:1006DE003F07EF5FE0933F07AF91AFBFFF91EF9101
:1006EE00BF91AF91E991EFBFF991E991B991A991BC
:1006FE001895EA93EFB7EA93AF93BF93EF93FF93F7
:10070E00AFB7AF9355981A986624E0E0E0930905C9
:10071E00E89424F89924AF91AFBFFF91EF91BF9168
:10072E00AF91E991EFBFE99118950E942C1DE091D0
:10073E00D107E03061F00E943A1D21F4E7B7EE7F59
:10074E00E7BF05C0E091D307EA930E94B713E89480
:10075E0021F80E94411D1895EFE1E1BDEFE0E1BDEA
:10076E00E0E0EBBBEFEFEABBE0E8E8BBE1E2E7BBC2
:10077E00E0E0E5BBEFEFE4BBE0EDE2BBE2B3EE7B26
:10078E00E2BBE0E0E1BBE1B3ED67E1BBE7E0E3B97B
:10079E00EEEFE2B9E0E0E0936200EFEFE09361008C
:1007AE00ECE9E0936500E4E0E0936400E6E0E3BF8B
:1007BE00E0E0E0BFEBE4E2BFE0E0E1BFEFBDEEBDA5
:1007CE00EDBDECBDEBBDEABDE9BDE8BDE093790042
:1007DE00E0937800E4BDEAEFE3BDEBE0E5BDE3E4D2
:1007EE00E0938B00E0E0E0938A00E0938900E093D1
:1007FE008800E1E0E0938700E0E0E0938600E0937C
:10080E008500E0938400E0938300E0938200E09300
:10081E006A00EABFE9BFE7B7E068E7BFE7B7E46998
:10082E00E7BFE7B7EE7FE7BFE0E0E0937D00EBB90F
:10083E00E8EDEAB9E6E0E0939500E9E1E9B9E0E038
:10084E00E0939000E0939B00E0939A00E0939D006C
:10085E00E0939900E0939800E0E8E8B9E0E0E0BDAD
:10086E0078940E9447180E94E70E0E9484100E94FE
:10087E004F1DE0930705689423F8E89424F825F8B3
:10088E0022F821F8E3EBE093A107E7B7EE7FE7BF8D
:10089E0055982BD2E8E3E093CF07C09AA8950E9413
:1008AE005F11E0916300E87051F4A0918B07A333C0
:1008BE0028F4E0918B07EF5FE0938B0703C0E0E035
:1008CE00E0938B07A0918B07A23389F40E94531DEE
:1008DE000E945A1DE4EAF0E00E94621D0E94661D0D
:1008EE00E3E0E093A807E4E0EA930E944911E09167
:1008FE006300E07111F0879904C0A0910605A03045
:10090E0009F00AC0A0919207A33328F4E091920750
:10091E00EF5FE093920703C0E0E0E0939207A091AF
:10092E009207A23339F40E946A1D0E946F1DE4E003
:10093E00E093A807E0919407E03021F4E091950749
:10094E00E03009F418C00E946A1DE0E0E0939507BC
:10095E00E0918D07E03049F00E947F1CE0918D07F9
:10096E00EF5FE09396070E947E1DE1E0E09397070C
:10097E00E4E0E093A807E0919607E03021F4E091DF
:10098E009707E03009F412C00E94851DE093970787
:10099E000E94811CE0919007E03019F0A0E0DA1679
:1009AE0009F004C0E1E2EA930E94B713E0918A07CE
:1009BE00E03031F0E0E0E0938A07E3E0E093A8074F
:1009CE00E091AA07E03029F0E0E0E093AA070E9448
:1009DE00921D8820E1F4E5E08E2E0E947117E093BF
:1009EE00A607E030A1F0E0918E07E03021F0EF5F36
:1009FE00E0939307A89A6FD2E0919707E03021F425
:100A0E00E0910605E03009F002C00E947E1D24FC34
:100A1E0002C00E944C12E9D430FE05C0E89430F8B2
:100A2E00E8E7E093D00727FE3CC0E89427F8A091B2
:100A3E000905A33019F4E0E0E093090525FE02C094
:100A4E00E89425F8E0910605E03039F0E091D00702
:100A5E00E03019F0E150E093D007E091D207E0309A
:100A6E0001F1E150E093D207E030D9F4E091D107E3
:100A7E00E030A9F00E943A1D79F4A091D307A0307E
:100A8E0021F4A0910805A03009F003C00E94991D21
:100A9E0002C00E949D1D02C00E94991D02C00E94AC
:100AAE009D1DA091CF07A23020F0A0910605A03089
:100ABE0009F00FC00E94A91DE13220F4E091CB078E
:100ACE00E03009F403C00E94A91DDE2EE0E0E093A1
:100ADE00CB07E091D007E03021F4A0910605A130BC
:100AEE0008F403C015D014D006D1A091CE07AE37AE
:100AFE0020F0A0910605A23008F404C0E0E0E093D7
:100B0E00CE0730D026FEFECFE89426F8C7CEFFCF14
:100B1E00E091AB07E03039F4E0E0E0930605E894AD
:100B2E0020F8E9D01EC00E94B21D0E94B91DE081BE
:100B3E00E093AC070E94BF1DEDE0F0E00E94AA21F9
:100B4E000E94C41D0E94C91DA091A407B091A507C3
:100B5E00AE1BBF0BA093A207B093A307E0E0E093F8
:100B6E0028050895A0910605A53009F40895E09191
:100B7E00BB07E03049F00E94CD1DE081E093BC0739
:100B8E000E94CD1DAEE204C00E94CD1DA091BC07F7
:100B9E00A083A091BB07E1E0EA27E093BB0708958D
:100BAE00E0E0E093CE070E94BF1D5A9739F40E94F1
:100BBE00D41DE0E20E94DB1D0E94E11D0E94BF1DBC
:100BCE00979739F40E94531DE1E00E94DB1D0E94AD
:100BDE00EC1D0E94BF1DD49739F40E94F71DE1E071
:100BEE000E94DB1D0E94EC1D0E94BF1D1D9739F453
:100BFE000E94FE1D0E94051EE4E00E940C1E0E9433
:100C0E00BF1DAE34E0E0BE0741F40E941C1EE0E2C0
:100C1E00E0932505E2E00E94231E0E94BF1DA13431
:100C2E00E0E0BE0741F40E94271EE5E0E0932505B3
:100C3E00E3E00E94231E0E94BF1DAB35E0E0BE071D
:100C4E0041F40E942E1EE8E0E0932505E1E00E94AB
:100C5E00231E0E94BF1DA836E0E0BE0759F40E9475
:100C6E00351EE2E0E0932505E6E0E0931305E5E0AE
:100C7E000E940C1E0E94BF1DA537E0E0BE0731F496
:100C8E000E943C1E0E94051E0E94E11D0E94BF1D77
:100C9E00A238E0E0BE0731F40E94431E0E94051EFA
:100CAE000E94E11D0E94BF1DAF38E0E0BE0731F487
:100CBE000E944A1E0E94051E0E94E11D0E94BF1D39
:100CCE00AC39E0E0BE0751F40E94511EE0E2E09321
:100CDE002505E1E0E09313050E94EC1DE091280547
:100CEE00E03011F00E94581E08950E94851D0E944A
:100CFE005D1EB7D508950E94851D0E945D1EE0E021
:100D0E00E093CF07E0930A05E093890708951A93BD
:100D1E00F2DFA091A607A53159F4E0E0E093890730
:100D2E00A394CA1410F4E1E0AE2E0E94651ED2C048
:100D3E00A091A607A73161F4E0E0E0938907E1E016
:100D4E00EA1510F0AC2C01C0AA940E94651EC2C018
:100D5E00A091A607A631B9F5E091CB07E03041F09E
:100D6E000E94A91DE13220F40E94A91DE03011F469
:100D7E00DD2001F1DD2019F40E94A91DDE2EE1E037
:100D8E00F0E0E093CC07F093CD07E89427F8E0E08D
:100D9E00E093A9070E94B016E1E0EA930E94B71310
:100DAE00E1E0E0938A07E0919C07E09389070E94B7
:100DBE00701E02C00E94751EEA930E944911E0E067
:100DCE00E093CB0787C0A091A607A83111F00C9431
:100DDE003507E0E0E0938907BDD61E2F0E947A1EEC
:100DEE00309799F5113039F40E946A1D0E946F1DDB
:100DFE000E94701E26C0123069F40E94B0166894CC
:100E0E0030F8E89420F80E94B21D0E947F1E0E94C6
:100E1E00881E17C0133081F40E94B016689430F803
:100E2E00E1E0E093060520F8E0E0E093AB070E94D6
:100E3E007F1E0E94881E05C0E0E0E093CB070E9453
:100E4E00751EEA930E94491108C0E0E0E093CB07BB
:100E5E000E94751EEA930E9449113CC0A091A607FC
:100E6E00A13010F0AB3008F020C00E94701EEA9343
:100E7E000E944911DD24AA24A091A607AA3019F4D4
:100E8E00E0E0E093A607E091CB07F0E0EF53F84FD8
:100E9E00A091A607A083A091CB07AA3028F4E091D9
:100EAE00CB07EF5FE093CB0715C0A091A607A1314A
:100EBE0089F4E0E0E0938907E093CB07E1E0E0936B
:100ECE00AA070E94701EEA930E944911E2E0EA937B
:100EDE000E94B71388C2E0910605E03029F4E3E0E2
:100EEE00E093A90714DF1BC1A0910605A13011F0F4
:100EFE000C94E007E8E7E093D007A091A607A53190
:100F0E0091F4E0912605A091AC07EA1711F4E1E007
:100F1E0003C0E091AC07EF5FE093AC070E94C91DE0
:100F2E000E94901E45C0A091A607A73189F4A091FA
:100F3E00AC07A13019F4E091260503C0E091AC078F
:100F4E00E150E093AC070E94C91D0E94901E30C074
:100F5E00A091A607A63131F5E09127050E94941EB7
:100F6E00A091AB07B0E0AE17BF07D4F40E94B91D35
:100F7E00A091AC07A083E091AB07EF5FE093AB07C6
:100F8E00E1E0E093AC07A091A407B091A507EDE0D6
:100F9E000E949F210E94971E0E94C91D0E94901EB2
:100FAE00FFDD06C0A091A607A13111F40E949C1E80
:100FBE00AFC0E091BB07E03009F4D4DDE8E7E09381
:100FCE00D007A091A607A831F9F40E94BF1D1D9766
:100FDE0091F4E091BA07EF5FE093BA07E0E0E09397
:100FEE00BD07E0911305A091BA07EA1718F4E1E0E6
:100FFE00E093BA0708C0A0910605A33021F4E1E002
:10100E00E093BA078DD084C0A091A607A531C1F494
:10101E00A0910605A53011F00E94A21EE0912505B3
:10102E00A0912805AE1720F4E0912805EF5F01C0CE
:10103E00E1E0E09328050E94581E0E94A71E68C09A
:10104E00A091A607A731B9F4A0910605A53011F01D
:10105E000E94A21EA0912805A23020F0E091280542
:10106E00E15002C0E0912505E09328050E94A71EDD
:10107E000E94581E4DC0A091A607A131A1F5A091C6
:10108E00BA07A23048F0E091BA07E150E093BA07F0
:10109E00E0E0E093BD0726C00E94A21E0E942E1E15
:1010AE000E94B01E0E94B71EE093C00731DDA091D2
:1010BE00C007A53019F40E949C1E14C00E94351E54
:1010CE000E94BF1EE6E0EA930E94E51CE03051F05C
:1010DE000E94CF1EE6EBF0E00E94D41E0E94E51C9B
:1010EE000E94661D15C0A091A607A63189F00E9428
:1010FE00BF1D1D9711F451D00BC0A0910605A53050
:10110E0009F40895A091BA07A13009F409D019D0B5
:10111E00E3E0E093A807E1E0EA930E944911089505
:10112E001A93E091BA070E94941E1E2FE0911305A8
:10113E001E1730F40E94D91EA0E2A0831F5FF6CFC7
:10114E0052C1A091A607A13010F0AB3008F024C018
:10115E00A091A607AA3019F4E0E0E093A6070E943A
:10116E00CD1DDF01E091A607E05DEC93E091BA079B
:10117E00EF5FE093BA07E0911305A091BA07EA1763
:10118E0040F4E1E0E093BA07A0910605A43009F41B
:10119E00C7DFE0E0E093BD0708951A93E0E0E09327
:1011AE00BE07A091A607A13010F0AB3008F01BC10E
:1011BE00A091A607AA3019F4E0E0E093A607E0910B
:1011CE00A607A091A707EA1711F0E1E003C0E0918E
:1011DE00BD07EF5FE093BD07E091A607E093A70779
:1011EE00A091BD07A43051F4A091A607A43031F010
:1011FE00A53021F0A93011F00E94DE1EA091BD078E
:10120E00A63018F0E1E0E093BD07A091BD07A53030
:10121E0029F4E091A607E05D1E2FE2C0E091BE0723
:10122E00E03011F00C94DE09A091A607A130B1F4C4
:10123E00A091BD07A13009F417E2A091BD07A2301D
:10124E0009F41DE2A091BD07A33009F41EE2A0919E
:10125E00BD07A33011F40E94DE1EA9C0A091A607FF
:10126E00A23049F4E091BD07EE510E94E41E11F444
:10127E000E94DE1E9CC0A091A607A33049F4E09107
:10128E00BD07E1520E94E41E11F40E94DE1E8FC0C3
:10129E00A091A607A430A9F4A091BD07A13009F42E
:1012AE0010EFA091BD07A23009F41FEEA091BD076B
:1012BE00A33009F41EEEA091BD07A43009F41DEE73
:1012CE0076C0A091A607A530A9F4A091BD07A130C4
:1012DE0009F419EEA091BD07A23009F41BEEA091FE
:1012EE00BD07A33009F41AEEA091BD07A43009F48E
:1012FE001CEE5DC0A091A607A63049F4E091BD0793
:10130E00EB510E94E41E11F40E94DE1E50C0A0910B
:10131E00A607A73049F4E091BD07E9500E94E41EEC
:10132E0011F40E94DE1E43C0A091A607A830B1F4AE
:10133E00A091BD07A13009F416EFA091BD07A23010
:10134E0009F415EFA091BD07A33009F417EFA09192
:10135E00BD07A33011F40E94DE1E29C0A091A6077E
:10136E00A930A9F4A091BD07A13009F411EFA09105
:10137E00BD07A23009F412EFA091BD07A33009F406
:10138E0014EFA091BD07A43009F413EF10C0E09143
:10139E00BD07E35C6E2FE091A607A3E0EA02F00121
:1013AE00E60F1E2FA091BE07A23009F4105EE09149
:1013BE00A607E030A9F4A091BD07A13009F410E210
:1013CE00A091BD07A23009F418E2A091BD07A33089
:1013DE0009F419E2A091BD07A33011F40E94DE1E9C
:1013EE000E94CD1D1083199108950E94E91EA091AF
:1013FE000605A03011F0A13009F40CC00E94F21EB7
:10140E0058D1A0910605A43021F40E94F21E0E942C
:10141E003E1C3EC1DD2021F0E0918907E03009F449
:10142E0064C00E94FE1D0E94F71EE0910A05F0E0C6
:10143E00309739F40E94FD1EEDEBF0E00E94621D24
:10144E002BC0E130A0E0FA0739F40E94FD1EEEEC4D
:10145E00F0E00E94621D20C0E430A0E0FA0739F4EB
:10146E000E94FD1EEFEDF0E00E94621D15C0E230FD
:10147E00A0E0FA0739F40E94FD1EE0EFF0E00E94B2
:10148E00621D0AC0E530A0E0FA0731F40E94FD1E8D
:10149E00E1E0F1E00E94621D0E94021F309779F098
:1014AE000E94021FE05DE09353070E94091F0E94F5
:1014BE000F1FE05DE09352070E94091F0BC00E94B0
:1014CE00141F309729F00E94141FE05DE09352071D
:1014DE00AD2DBB27EAE0F0E00E94C521E05DE09370
:1014EE0051070E94F21EE5D0CDC0DD2021F0E09123
:1014FE000605E03009F037C00E94FE1D0E94F71E5F
:10150E000E94FD1ED6D00E94F21EE2E1F1E00E9482
:10151E00621DE3E0E09363070E94021F309799F08B
:10152E000E94021FE05DE0935A070E94091F0E946D
:10153E000F1FE05DE09359070E94091F0E94171FBD
:10154E00E09358070FC00E94141F309729F00E9495
:10155E00141FE05DE0935A07AD2DBB270E94171FA5
:10156E00E09359078FC0E0910705E03011F40C9419
:10157E00450B0E941D1F49F4E9E0F0E00E94971E02
:10158E00EAE0F0E00E94C41D68C0E230A0E0FA0775
:10159E0049F4EDE0F0E00E94971EEEE0F0E00E94CC
:1015AE00C41D5BC0E630A0E0FA0749F4E9E0F0E0C4
:1015BE000E94971EE4E1F0E00E94C41D4EC0E73089
:1015CE00A0E0FA0749F4E3E1F0E00E94971EE5E19E
:1015DE00F0E00E94C41D41C0E430A0E0FA0791F48F
:1015EE00EFE0F0E00E94971EE0910B05E03019F05D
:1015FE00EEE0F0E002C0E0E1F0E0E093A407F0934B
:10160E00A5072BC0E530A0E0FA0791F4E1E1F0E088
:10161E000E94971EE0910C05E03019F0EEE0F0E02C
:10162E0002C0E2E1F0E0E093A407F093A50715C035
:10163E00E830A0E0FA0789F4E6E1F0E00E94971E98
:10164E00E0910D05E03019F0EEE0F0E002C0E0E1CF
:10165E00F0E0E093A407F093A507E0E0E093070520
:10166E000E94E91E0E94221F0E9416190E94F21E5D
:10167E000E943E1CE4E0E093A9070AC00E94221FCC
:10168E000E941619E4E5F7E0FA93EA930E943E1CD5
:10169E000E94FD1E0E94291F0E94F21E01D0089575
:1016AE000E942C1FA9C2E1E0E51511F40E942C1F27
:1016BE00A3C21A930E943C1F0E94411F10E0E091AA
:1016CE0013051E1728F40E94D91EE081E03009F49C
:1016DE0008C00E94441F0E94D91EE081EC931F5F38
:1016EE00EECF188129C01A930A9311E0E0911305E9
:1016FE000E94941EEC5EFA4FA081A03211F0A03031
:10170E00A9F4E09113050E94941E0E2F013048F0AB
:10171E000E944A1FE02F0E94941E0E944F1F0150EC
:10172E00F5CFE0E3E09314051F5FE0CFEA81EA9383
:10173E000E9401181981088123960895A297E0E06E
:10174E00E883E9830E94092210E000E020E011E026
:10175E00E0912505A12F0E94541FEA17FB0714F4F0
:10176E000C94340C1A930E941E181A93BCDF30E0AE
:10177E0020E000E0E0911305A02F0E94541FAE1749
:10178E00BF0754F40E94591FE081E03029F00E94F7
:10179E00591FA081A03209F418C00E94591FA081C0
:1017AE00A03311F4303009F001C00DC031E00E94B9
:1017BE005E1F0E94611F0E94591FE0810E94681FD8
:1017CE00ED93FC932F5F0F5FD5CF4FEF5FEF203080
:1017DE0011F040E050E0E1E0F0E0EE83FF8301E045
:1017EE002017ECF0A22FB0E0A7FDBFEFE02FF0E046
:1017FE00E7FDFFEF0E946C1F0E94611F0E94E12116
:10180E00AE81BF810E9497214E0F5F1FAE81BF81B7
:10181E00EAE00E949F21EE83FF830F5FE1CFEAA5EE
:10182E00FBA54E175F071CF44AA55BA509C0E8A5EA
:10183E00F9A5E417F5071CF448A559A501C00BC07E
:10184E005A934A930E94CF1E0E94831C1A934BDF19
:10185E001A930E9401181F5F7BCF0E941022AC9634
:10186E000895AED20E94271EE3E00E94711F79F404
:10187E00E0911505EF70E43050F4E0911505EF702E
:10188E00E33021F4E0911505EF7009F408C00E94D1
:10189E00CF1EE4E3F1E00E94621D0E94661D0E94CD
:1018AE007F1FE0938C070E948B1F21F0E0E3E093F3
:1018BE0014050FC0E0911505E07021F0E0911605BA
:1018CE00E07009F40AC00E94CF1EE8E3F1E00E9426
:1018DE00621DE2E0EA930E9401180E947F1FE093CE
:1018EE008D07E3E0EA930E941E180E94B71E41F096
:1018FE000E94CF1EECE3F1E00E94621D0E94971F32
:10190E000E947F1FE0938E07A0918E07A33609F4E5
:10191E00A89AE0918E07E03009F4A8980E949B1FC8
:10192E0029F00E94CF1EECE3F1E008C0E09115050E
:10193E00EF7051F40E94CF1EE0E4F1E0FA93EA93C7
:10194E000E94D01C0E94A71FE09115050E94681FDF
:10195E00AAE0B0E00E94A521DF01E09116050E94E9
:10196E00681FEA0FFB1FE0939C07F0939D070E94F0
:10197E00AB1FE23060F4E13049F4E0911505EF70F1
:10198E00E83021F4E0911605EF7009F405C00E94CD
:10199E00CF1EE4E4F1E00EC0E0911405EF7029F4DF
:1019AE00E0911505EF70E23008F00AC00E94CF1EDC
:1019BE00E8E4F1E0FA93EA930E94D01C0E94B71F6C
:1019CE00E0911405EF70A4E6EA02602DE091150592
:1019DE00EF70AAE0EA02F001A62FAE0FE091160515
:1019EE00EF70EA0FE0938F070E942E1EE1E00E9437
:1019FE00711FE093BF07A091BF07A53010F4E03030
:101A0E0009F407C0E091BF070E94941EE093BF0740
:101A1E0006C00E94CF1E0E94BB1F0E94661D0E9420
:101A2E008B1FBE2EE2E0EB1540F4E1E0BE2E0E94CD
:101A3E00CF1E0E94BB1F0E94BE1F0E949B1FE093E1
:101A4E009007A0919007A23050F0E1E3E0931405C7
:101A5E000E94A71FE0911405EF70E09390070E947B
:101A6E00AB1FE0939107A0919107A23050F0E1E3F4
:101A7E00E09314050E94B71FE0911405EF70E093F8
:101A8E009107E6E0EA930E941E18E6E00E94C21F4C
:101A9E00E0930B05E7E0EA930E941E18E7E00E9430
:101AAE00C21FE0930C05E8E0EA930E941E18E8E0DE
:101ABE000E94C21F5E2EE0E3E09314050E94C91F30
:101ACE00E8E0EA930E9401180E94511E0E94D11F65
:101ADE00E0E0F0E0FA93EA93E1E0F0E0FA93EA93C3
:101AEE002DDE0E941C1EE2E00E94D81FE1E0F0E015
:101AFE00FA93EA93E0E2F0E0FA93EA931FDEE0E075
:101B0E00E0930605E4E0EA932BD6E0910B05E03076
:101B1E0051F0E0E0E0930C05E0930D05E1E0E09379
:101B2E000B05E6E014C0E0910C05E03041F0E1E079
:101B3E00E0930C05E0E0E0930D05E8E008C0E091CD
:101B4E000D05E03031F0E1E0E0930D05E9E0EA93B8
:101B5E0007D608950E940B22E0E03E2F1E2FEAE0EA
:101B6E00E09313050E94531DE091CB07E030A9F1DD
:101B7E003F5F3A930E941E1800E020E0E091CB07F1
:101B8E002E1710F4003009F012C00E945E1F0F01D4
:101B9E00EC5EFA4FA081F001EF53F84FE081F0E0D8
:101BAE00F0960E94211D09F001E02F5FE7CF003073
:101BBE0071F411E00E945E1FEC5EFA4FA081A1321B
:101BCE0020F0A091CB07AA3008F001C010E033320C
:101BDE0010F4103009F001C0CBCF313011F41030B9
:101BEE0009F401C012E0323011F4103009F401C0D2
:101BFE0013E0E12F0E941222249608950E942C1DBC
:101C0E00689426F8E0919E07F0919F070E94DE1FD0
:101C1E00EA0FFB1F0E94E31F882009F08A94E091CF
:101C2E009A07F0919B07309771F0AAE9B7E0ED9112
:101C3E00FD913197FE93EE93E0919A07F0919B07F9
:101C4E00309709F42FD3A0910605A23060F0A09131
:101C5E00CC07B091CD07E6E5F0E00E94C2213097A7
:101C6E0011F40E94B905ACECB7E00E94E81FA091F8
:101C7E00CC07B091CD07AA3FE0E0BE0710F40C945C
:101C8E00E40EE091CC07F091CD07EA5FF040E093CF
:101C9E00CC07F093CD07689427F8E0918907E030E0
:101CAE0011F1E0E0E093A907E0918907E150E0939C
:101CBE008907E0919C07F0919D073197A0918907C4
:101CCE000E94211D49F4E4E0E093A807E2E0EB1541
:101CDE0019F4E5E0EA93D6D2E0918907E03019F4E1
:101CEE00E1E0E093AA07E0919307E03021F0A091A4
:101CFE009307A33608F008C0E0919307E150E093F4
:101D0E009307E03009F4A898E0919407E03099F039
:101D1E00E0E0E093A907E4E0F0E00E94971EE5E022
:101D2E00F0E00E94C41DE0919407E150E093940707
:101D3E00E1E0EA93A7D2E0919607E03099F0E2E075
:101D4E00F0E00E94971EE3E0F0E00E94C41DE091D7
:101D5E009607E150E0939607E2E0EB1519F4E3E005
:101D6E00EA9390D2E091A907E03041F0E091CF07DD
:101D7E00E03021F4E0910605E03009F00AC0E09170
:101D8E00A907E150E093A907E03019F4E1E0E093F0
:101D9E00AA07E091CB07E03019F0A0E0DA1609F0BF
:101DAE0004C0E0910605E03009F004C0E091CF07D1
:101DBE00EF5F01C0E0E0E093CF070E94411D189550
:101DCE001A930E94351E0E94BF1EE0911305EA93DE
:101DDE000E94E51CE03039F50E942E1E0E94B01EB6
:101DEE00E0911405EF70E530F1F0A0911405AF3FCE
:101DFE00D1F010E01436B8F4E0916300E87039F0D9
:101E0E000E94CF1E0E94EE1F0E94971F32C1B79BE9
:101E1E0007C00E94CF1E0E94EE1F0E94971F29C16D
:101E2E0000001F5FE7CFE7E0F0E00E94971EE8E0BA
:101E3E00F0E00E94C41D0E94E91E0E94221F0E9413
:101E4E0016190E94FD1E0E94F11F0E94291F0E945A
:101E5E00F21E26DC0E94F41F0E94D41DEAE00E94AE
:101E6E00D81F0E94EF170E94CF1EECE4F1E00E94F3
:101E7E00621D0E94661D0E94531D0E945A1DE0E5C0
:101E8E00F1E00E94621D0E94661D0E94F71D0E94D5
:101E9E005A1DE7E5F1E00E94621D0E94661D0E9438
:101EAE001C1EE2E0E093130511E0113248F51436E2
:101EBE0078F40E94FA1F0E940F1FE05DE093140554
:101ECE00A12FBB270E94171FE0931505E0E211C05A
:101EDE000E94FA1F0E94FD1FE09314050E9403202A
:101EEE000E940F1FE05DE09315050E9403200E94E3
:101EFE00171FE09316051A930E9401181F5FD5CF86
:101F0E000E94271EE3E00E940920EEE5F1E00E9408
:101F1E00621D0E94661D0E94CF1EE2E6F1E00E9445
:101F2E00621D0E94BE1F0E94CF1EECE3F1E00E94D4
:101F3E00621D0E94971F0E94CF1EE8E4F1E00E94EE
:101F4E00621D0E94A71F0E94CF1EE6E6F1E00E94CE
:101F5E00621D0E94B71F0E94FE1DE0E10E94D81F65
:101F6E000E94EF170E94CF1EEAE6F1E00E94621D6A
:101F7E000E94661D0E94CF1EEBE7F1E00E94621DDB
:101F8E000E94BE1F0E94CF1EECE8F1E00E94621D6F
:101F9E000E94971F0E943C1EE0E10E94D81F0E94E3
:101FAE00EF170E94431EE0E10E94D81F0E94EF1718
:101FBE000E944A1EE0E10E94D81F0E94EF170E9465
:101FCE00511E0E94D11F0E940C200E94E3170E94F6
:101FDE002E1EE1E00E9409200E94BB1F0E94661D7A
:101FEE000E94CF1E0E94EE1F0E94BE1F0E94CF1E97
:101FFE000E94BB1F0E94A71F0E94CF1E0E94BB1FE4
:10200E000E94B71F0E94CF1E0E94EE1F0E94C91F82
:10201E000E94971F0E94351E0E94BF1E0E94BE1C6A
:10202E00E03061F00E94CF1EE6EBF0E00E94621DF0
:10203E000E94661D0E940C200E94BE1FE0E0E093ED
:10204E00A207E093A307E1E0F0E00E94C41D0E9406
:10205E00E91E0E94221F0E9416190E94FD1E0E9458
:10206E00F11F0E94291F0E94F21E1ADBE3E0EA9381
:10207E0077D319910895A881A13021F4A981BA814D
:10208E00EC91ACC0A881A23059F4A981BA81EC912F
:10209E00AAE0EA02A981BA811196EC91E00D9EC0E8
:1020AE00A881A330A9F4A981BA81EC91A4E6EA0231
:1020BE00602DA981BA811196EC91AAE0EA02F00195
:1020CE00E60F0E2EA981BA811296EC91E00D86C014
:1020DE00E0E084C01A9310E0103268F40E941320DE
:1020EE00E859F84FE081A981EA1719F4E12FEF5F63
:1020FE00C6C01F5FF1CFE0E0C2C060971A930A938B
:10210E000E94FD1EEDE9F1E00E94621D0E94FD1E7F
:10211E000E94F11FE8EAF1E00E94621D0E94F21E89
:10212E000E94291F0E94F21EBBDACC240E94FE1DC3
:10213E00E0E1E093130511E01132E8F51A930E94E5
:10214E001620E0E1EA9365D0FE013296FA93EA9307
:10215E0036D0E03001F5E12F0E94941EE859F84F79
:10216E00A1E0A08301E00132B0F40A930E94162090
:10217E0037D0E03071F00E94CF1E21D0E03049F40C
:10218E00E12F0E94941EE859F84FDF01EC91EF5FAA
:10219E00EC930F5FE8CFE12F0E94941EE859F84FA1
:1021AE00A081CA1630F4E12F0E94941EE859F84F10
:1021BE00C0801F5FC1CF19810881629608951A935E
:1021CE0010E0103148F40E94441FAC91A03211F07F
:1021DE00E0E003C01F5FF5CFE1E01881239608957C
:1021EE001A9310E0103190F40E941D20EC91E0152E
:1021FE0018F4E1E0188122C00E941D20EC910E1609
:10220E0018F4E0E018811AC01F5FECCFE0E01881EF
:10221E0015C0E881E03091F0E150E883AB81BC81DC
:10222E00F0E0EA0FFB1F0F01E881A981BA81F0E00F
:10223E00AE0FBF1FEC91D001EC93EBCF2596089516
:10224E001A930E941C1EE2E0E0931305E981EA93C3
:10225E000E941E18E981EA9346DAE0911405EF70A8
:10226E000E942420E0911505EF70EA0F1E2F113009
:10227E0010F0113208F002C0E12F01C0E0E0188129
:10228E0022960895BB2059F0E881E093A007E8EE6E
:10229E00F3E00E942920EAE1E0938A0001C002D017
:1022AE0021960895E0E0E093A0070E942E20089565
:1022BE00E091A007E03011F40C944B120E941D1F08
:1022CE0061F40E943320A53DE3E0BE0718F00E94A2
:1022DE00382002C00E944020CFC0E230A0E0FA07B2
:1022EE0071F40E943320A939E3E0BE0728F0E0E83C
:1022FE00F2E00E94E31F02C00E944020BDC0E33006
:10230E00A0E0FA0771F40E943320AD3BE2E0BE0775
:10231E0028F0E0E8F0E00E94E31F02C00E94402097
:10232E00ABC0E430A0E0FA0721F50E943320A73EAF
:10233E00E3E0BE0718F00E9438201AC00E94332036
:10234E00AD3AE3E0BE0790F00E94432019F40E94DC
:10235E004A2002C00E9451200E9457200E945A20FB
:10236E000E94612010F40E94382002C00E9440207A
:10237E0083C0E530A0E0FA0711F00C9443120E94DE
:10238E003320A73EE3E0BE0718F00E94382074C049
:10239E000E943320AD3AE3E0BE0790F00E94432046
:1023AE0019F40E944A2002C00E9451200E94572018
:1023BE000E945A200E94612010F40E9438205CC0B6
:1023CE000E943320A934E3E0BE0718F00E942E20AD
:1023DE0053C00E943320A734E3E0BE0718F00E94DA
:1023EE0038204AC00E943320AD30E3E0BE07A8F08B
:1023FE00EAE1E0938A000E94432019F40E944A20E9
:10240E0002C00E9451200E9457200E945A200E9412
:10241E00612010F40E9438202FC00E943320A93A68
:10242E00E2E0BE0718F00E942E2026C00E94332044
:10243E00A73AE2E0BE0718F00E9438201DC00E94A5
:10244E003320AD36E2E0BE07A8F0EAE1E0938A0061
:10245E000E94432019F40E944A2002C00E9451207B
:10246E000E9457200E945A200E94612010F40E9460
:10247E00382002C00E944020E0919907E093870027
:10248E00E0919807E0938600089522FE06C021FE93
:10249E0004C0E0910605E03009F061C15520B9F0A5
:1024AE00E0E0E0932F070E9465200E946D20E0E19E
:1024BE00EA930E94FD1CE4E2F6E0FA93EA930E948E
:1024CE0072200E94F41F0E9465200E947220E894E0
:1024DE0022F821F8E0E0E093A907E7B7EE7FE7BF27
:1024EE00E0E0E0930705E0912B05F0E0E033A0E09B
:1024FE00FA0761F4A0910805A13021F0A23011F085
:10250E00A53019F41ED40E94991D26C1E035A0E015
:10251E00FA0711F00C940A13A0912C05A73411F0B0
:10252E000C94E212A0910805A63011F00C94E21260
:10253E000E944F1DEA93FBD3A0912D05A63449F4BA
:10254E00E0E0E0930C05E0930B05E6E0EA930ED491
:10255E0032C0E0910C05E030B1F016D4F2D3E09128
:10256E000C05EF5FE0930C05E5E0EA93FFD3A09135
:10257E000C05A13220F0E0E0E0930C053CC0E8E051
:10258E00EA93EED018C0E0910B05E030A1F0D9D35C
:10259E00E0910B05EF5FE0930B05E4E0EA93E6D3E1
:1025AE00A0910B05A13220F0E0E0E0930B0523C0D3
:1025BE00E6E0EA93D5D0A0912C05AE3419F5A091A2
:1025CE000805A730F9F40E944F1DEA93B0D3E091AD
:1025DE000D05E030B9F0B5D3E0910D05EF5FE09356
:1025EE000D05E8E0EA93C2D3A0910D05A13238F0B3
:1025FE00E0E0E0930D05E5E0EA93B2D00895E9E05E
:10260E00EA93AED0A9C0E934A0E0FA07F1F40E9433
:10261E007820A0912C05A635B9F4A0910805A33019
:10262E0019F4E0E0E0930805E3E0EA939FD30E94FB
:10263E00351EE6E00E940920EDE2F5E00E94D41E70
:10264E000E94FD1C0E94BE1F87C0E334A0E0FA0763
:10265E0011F00C947213A0910805A43019F4E0E067
:10266E00E09308050E947C200E94812011F4E0E294
:10267E00DE2EA0912C05A13441F4E1E0E0930A0591
:10268E00E0919C07E093890723C0A0912C05A53407
:10269E0039F4E2E0E0930A05E5E0E093890718C01B
:1026AE00A0912C05A63439F4E4E0E0930A05E5E0A8
:1026BE00E09389070DC0A0912C05A23411F4E2E03D
:1026CE0005C0A0912C05A73419F4E7E0EA934ED388
:1026DE000E94782041C0E435A0E0FA07C1F4A09131
:1026EE000805A43019F4E0E0E09308050E947C2070
:1026FE000E94812011F4E0E2DE2EE0918F07E0933C
:10270E008907E5E0E0930A050E94782025C0E535AB
:10271E00A0E0FA07D9F4E0919407E03021F4E091BB
:10272E009607E03009F010C00E94921D0E947E1D97
:10273E00E0918C07EF5FE0939407E1E0E09395075B
:10274E000E94701EEA939EDD0E947820E7E0E093DF
:10275E000A05E0E0EA9304D0E0E0E0933406089541
:10276E001A930A9310E000E0E0910605E03009F0BC
:10277E00DAC2E091D207E03091F0A091DF07AA30E3
:10278E0018F4AA81A03009F409C0E091DF07EF5FC9
:10279E00E093DF070E948920AA81A083C4C2AA8188
:1027AE00A53001F5E0910805E03039F00E948D204A
:1027BE00E081EA83E89432F814C0E091DF07A0913B
:1027CE00DE07AE1710F0C5D2AEC2E0E0E093D1073F
:1027DE00E091DE07EF5FE093DE070E948920E08143
:1027EE00EA8314C0E0910805E03081F4E091DF0740
:1027FE00A091DE07AE1730F0ACD20E948D20AA81D8
:10280E00A08304C00E948D20E081EA83EA81E093D8
:10281E00D307F0E0309799F410E0143040F40E94A2
:10282E001320EA5CF94FA0E3A0831F5FF6CFE0917F
:10283E00D107E03019F4E1E0E093D107FBC1E130BC
:10284E00A0E0FA0711F00C94B414DD2011F481D23B
:10285E006AC2E4E0E0930805E0E0E0930A051F5F3A
:10286E000E941320EB5CF94FA3E4A0830E94511E3B
:10287E00E1E0E0931305DA920E941E181F5F0E949A
:10288E0013200E949020EB5CF94FFF93EF930E9470
:10289E0097200E940F1FE05DAF91BF910E949D2077
:1028AE00EB5CF94FFF93EF930E9497200E94171F46
:1028BE00AF91BF91EC931F5F0E94FA1FAB5CB94FB3
:1028CE00E091BF07E05D0E949D200E94A0200E9423
:1028DE00AA210E94AA200E94A0200E94C2210E942A
:1028EE00AA200E94AD200E94FD1FDB010E949D20A8
:1028FE000E94AD200E940F1FDF010E94171FDB01F7
:10290E000E949D20EB5CF94FBF01A0918F07BB2762
:10291E000E94171FDB010E949D20EB5CF94FA0E384
:10292E00A0831F5F0E94FA1FAB5CB94FE091910725
:10293E00E170E05DEC931F5F0E94FA1FAB5CB94F34
:10294E00EB2DE370E05DEC93E091D107E03019F4EC
:10295E00E3E0E093D107E9E06EC1E230A0E0FA07D0
:10296E00E1F4E5E00E94B420EB5CF94FA3E40E9491
:10297E00B820EB5CF94FA5E40E94B820EB5CF94F50
:10298E00A0E30E94B820EB5CF94FA0E30E94BB20AD
:10299E0019F4E3E0E093D1074DC1E330A0E0FA076C
:1029AE0079F4E2E00E94B4200E94C020EB5CF94F63
:1029BE00A2E50E94BB2019F4E3E0E093D1073AC1EF
:1029CE00E430A0E0FA0791F4E3E00E94B420EB5C5F
:1029DE00F94FA9E40E94B820EB5CF94FA6E50E94DE
:1029EE00BB2019F4E3E0E093D10724C1E630A0E068
:1029FE00FA0711F00C949F15E0910B05E03019F4D5
:102A0E00E0E2E0930B05E6E00E94B4200E94C020B5
:102A1E000E94C420EB5CF94FA3E50E94B820EB5C4A
:102A2E00F94FBF01A0910B050E94C8200E94AA2059
:102A3E00EB5CF94FBF01A0910B05BB270E94171F3E
:102A4E00DB01EC930E943C1E0E94CA200E944A1F8A
:102A5E00EC91E03041F0FD01A081A03221F0E09137
:102A6E0013050E1708F007C01F5F0E94FA1F0E9481
:102A7E00D4200F5FEBCF1F5F0E9413200E94D9203E
:102A8E000E94431E0E94CA200E944A1FEC91E03011
:102A9E0021F0FD01A081A03209F404C0E0911305DC
:102AAE000E1708F007C01F5F0E94FA1F0E94D42065
:102ABE000F5FEACF1F5F0E9413200E94D9200E9451
:102ACE004A1E0E94CA200E944A1FEC91E03021F05B
:102ADE00FD01A081A03209F404C0E09113050E1788
:102AEE0008F007C01F5F0E94FA1F0E94D4200F5FDC
:102AFE00EACF1F5F0E9413200E94D9200E94511E10
:102B0E00E1E0E0931305E0910B05EA930E941E1895
:102B1E001F5F0E9413200E949020EB5CF94FACE7E0
:102B2E000E94BB2019F4E3E0E093D107E9E083C0F3
:102B3E00E830A0E0FA0761F5E0910C05E03019F4F9
:102B4E00E0E2E0930B05E6E00E94B4200E94C02074
:102B5E000E94C4200E94C420EB5CF94FBF01A091DB
:102B6E000C050E94C8200E94AA20EB5CF94FBF0101
:102B7E00A0910C05BB270E94171FDB01EC93E0917F
:102B8E00D107E03019F4E3E0E093D107E9E053C058
:102B9E00E930A0E0FA0711F00C942416E0910D052F
:102BAE00E03019F4E0E2E0930D05E7E00E94B42076
:102BBE000E94C020EB5CF94FAEE40E94B820EB5CA3
:102BCE00F94FA3E50E94B820EB5CF94FBF01A0912D
:102BDE000D050E94C8200E94AA20EB5CF94FBF0190
:102BEE00A0910D05BB270E94171FDB01EC930E94DD
:102BFE00FE1DE0E1E0931305E0910D05EA930E94BE
:102C0E001E1800E00E94591FE081E03021F0E09193
:102C1E0013050E1708F007C01F5F0E94FA1F0E94CF
:102C2E00D4200F5FEFCFE091D107E03019F4E3E04D
:102C3E00E093D107E3E0E093D207109335060E94AC
:102C4E001320EA5CF94FA0E0A083552011F40C94F8
:102C5E008E16E0E0E0932A05E0932F07EFE2F7E00F
:102C6E00FA93EA93E5E3F6E00E94D41E0E94FD1C5F
:102C7E00EFE2F7E0FA93EA930E94DB1C4E2EE6E0B9
:102C8E00E41508F44E2E0E94DE20AEE2A0830E94D0
:102C9E00DE20DF01E09108050E94E420DF01E091D3
:102CAE00DE070E94E420DF01E091DF070E94E420AE
:102CBE00BF01A091D4070E94E820BF01A091D507C3
:102CCE00B0E0EAE0F0E00E94C521EF70E05DDB01CC
:102CDE00EC930E94DE20BF01A091D3070E94E82052
:102CEE00AEE2A0830E94DE20A0E0A0830E94DE2040
:102CFE00A0E0A0830E946D200E9472200E94F41F0B
:102D0E00E0E0E0932F070E946D200E947220E0E029
:102D1E00E0933F0766241A9A689424F8E1E0E09362
:102D2E000905E0E0ECB91981088123960895E0E0E9
:102D3E00E093D207E093D107E881EA9311DD0C947A
:102D4E00EA180E944F1DE093D207E0E0E093D1070E
:102D5E000895E0E0E093D307E89431F8E093DF07BD
:102D6E00E093DE07EEDF709008050895E0E0E09353
:102D7E000A05E093A907E09389070E946A1DE8817E
:102D8E00E09307050C94EA181A930A9316E000E0F4
:102D9E000E943C1EE0E10E94D81F00E00E94CF1E60
:102DAE000E94411F0E94591FA0E0A083552091F060
:102DBE00E0E0F5E0FA93EA930E946D200E945A0B30
:102DCE000E94F41FE1E0F5E0FA93EA93E2E0F5E009
:102DDE000E94F2200E9413200E94F62021F0E09122
:102DEE0013050E1708F009C00E944A1F0E941320F7
:102DFE000E94FB201F5F0F5FEDCF0E94591FA0E0C6
:102E0E00A083552081F00E94CF1EE3E0F5E00E94E2
:102E1E00F2200E94F41FE4E0F5E0FA93EA93E5E075
:102E2E00F5E00E94F2200E9413200E94F62009F481
:102E3E001F5F0E9400210E94431EE0E10E94D81FE6
:102E4E0000E00E94CF1E0E94411F0E94591FA0E069
:102E5E00A0830E9413200E94F62021F0E09113051A
:102E6E000E1708F003C00E940521F3CF0E94591FD0
:102E7E00A0E0A0830E9413200E94F62009F41F5F99
:102E8E000E9400210E944A1EE0E10E94D81F00E02D
:102E9E000E94CF1E0E94411F0E94591FA0E0A083D6
:102EAE000E9413200E94F62021F0E09113050E17C8
:102EBE0008F003C00E940521F3CF0E94591FA0E025
:102ECE00A0830E9413200E94F62009F41F5F0E9427
:102EDE0000216FC01A93109129050DD0E09329059A
:102EEE00103011F4E11719F4E0E00C940A19E09196
:102EFE0029050C940A191A930A93C69810E10E9498
:102F0E000F2100E00430E8F514FF0CC0B29B02C0A4
:102F1E00E1E04FC0B39B02C0E2E04BC0B49B02C0E5
:102F2E00E3E047C015FF0CC0B29B02C0E4E041C015
:102F3E00B39B02C0E5E03DC0B49B02C0E6E039C0E1
:102F4E0016FF0CC0B29B02C0E7E033C0B39B02C0B9
:102F5E00E8E02FC0B49B02C0E9E02BC017FF0CC005
:102F6E00B29B02C0E8E125C0B39B02C0EAE021C0DB
:102F7E00B49B02C0E1E11DC0110F0E940F210F5F33
:102F8E00C1CFE3B1EF70E3B9C69A00E00E3118F489
:102F9E0000000F5FFBCFB29B02C0E5E10AC0B39BFE
:102FAE0002C0E7E106C0B49B02C0E6E102C0C698CB
:102FBE00E0E00991199108951A9311E0E091250529
:102FCE00E11720F01A9316D01F5FF8CF0C940A1950
:102FDE001A930E94CF1EE4EBF1E00E94621D11E0F5
:102FEE00E0912505E11720F01A9304D01F5FF8CF6A
:102FFE000C940A190E9416210E941C2110E0E091E7
:10300E0013051E1710F4103108F00DC0AEE0B5E038
:10301E000E94E81F3197DF010E94D91EE0810E94B5
:10302E00F8211F5FECCF0E9412220C940E1C0E94FE
:10303E0016210E941C210E94CF1EE4EBF1E00E949B
:10304E00621D10E0E09113051E1710F4103108F008
:10305E000FC00E94D91E0F01AEE0B5E00E94E81F1E
:10306E003197DF010E94EC21D001EC931F5FEACF74
:10307E000E94D91EA0E0A0830E9412220C940E1C66
:10308E000E9431210E9431210E9431210E94312162
:10309E00E0E2EA938CD0E8E2EA9382D0E0E1EA93B0
:1030AE007FD0ECE0EA937CD0E6E0EA9379D0E1E0E1
:1030BE00EA9376D001D00895AA98AB98E8E4EA9303
:1030CE006FD00E9435210E9439210E943D210E941D
:1030DE0035210E9435210E9435210E9435210E9402
:1030EE0041210E9435210E9435210E9435210E94E6
:1030FE003D210E9439210E9435210E9441210E94CA
:10310E0035210E943921E1E1EA933DD00E943D2113
:10311E000E943521E0E0EA9336D0E0E0EA9333D026
:10312E0008950E940B2230E0EC813E1758F400E027
:10313E0010E00436E0E01E0718F40F5F1F4FF9CFC2
:10314E003F5FF2CF0E9412220C940E1C1A93E9815B
:10315E00E058EA9325D010E0103120F40E94462169
:10316E00E03009F406C00E944621EA930CD01F5F9E
:10317E00F3CF103128F4E0E2EA9305D01F5FF9CFC8
:10318E0018810C947D1C0E944D21E4600E945721F1
:10319E000E945B21E07FE4600E945721AA9813C031
:1031AE000E944D210E9457210E945B2109C0E5E03B
:1031BE00EA93B7DFE5B3EF70E5BBE5B3AE2FE88179
:1031CE00E07F0E945721219608951A9310E8AF9A36
:1031DE00EFE7E4BBAB9AAA9817FF0FC0AF9A0000B7
:1031EE0000000000A99A00000000000013B317FFB2
:1031FE0013B3AF98A99809D0EFCFEFEFE4BBE5B3C7
:10320E00EF70E5BBAB981991089500000000A99AE4
:10321E00000000000000A9980000000008951A9315
:10322E00E0910605E03011F00C94341AEB81FC812C
:10323E00309789F40E943C1FE6ECF1E00E94621D7B
:10324E00A981BA811D96E1E0EC93A981BA811F96FE
:10325E00E2E0EC9301C1E130A0E0FA0739F40E94FC
:10326E003C1FE7EDF1E00E94621DF6C0E230A0E0E7
:10327E00FA0739F40E943C1FE7EEF1E00E94621D4E
:10328E00EBC0E330A0E0FA0739F40E943C1FE8EFF0
:10329E00F1E00E94621DE0C0E430A0E0FA0729F4DC
:1032AE000E943C1F0E946321D7C0E530A0E0FA07C0
:1032BE0039F40E943C1FEAE1F2E00E94621DCCC08C
:1032CE00E730A0E0FA0729F40E943C1F0E94632118
:1032DE00C3C0E830A0E0FA0739F40E943C1FEBE2CD
:1032EE00F2E00E94621DB8C0E930A0E0FA0739F49E
:1032FE000E943C1FEAE3F2E00E94621DADC0EA307C
:10330E00A0E0FA0739F40E943C1FEAE4F2E00E94C2
:10331E00621DA2C0EB30A0E0FA0739F40E943C1FF8
:10332E00E9E5F2E00E94621D97C0EC30A0E0FA07DA
:10333E0039F40E943C1FE8E6F2E00E94621D8CC048
:10334E00ED30A0E0FA0739F40E943C1FE6E7F2E008
:10335E000E94621D81C0EE30A0E0FA0729F40E949F
:10336E003C1F0E94632178C0EF30A0E0FA0791F471
:10337E000E943C1FE3E8F2E00E94621DE0910B0503
:10338E00E03019F00E94941E01C0E0E2EA930E9420
:10339E00662162C0E031A0E0FA0739F40E943C1FBA
:1033AE00EFE8F2E00E94621D57C0E131A0E0FA079B
:1033BE0091F40E943C1FECE9F2E00E94621DE09144
:1033CE000C05E03019F00E94941E01C0E0E2EA9371
:1033DE000E94662141C0E231A0E0FA0739F40E9452
:1033EE003C1FE9EAF2E00E94621D36C0E331A0E024
:1033FE00FA0739F40E943C1FE6EBF2E00E94621DD0
:10340E002BC0E431A0E0FA0739F40E943C1FE7EC30
:10341E00F2E00E94621D20C0E531A0E0FA0739F407
:10342E000E943C1FE6EDF2E00E94621D15C0E631DF
:10343E00A0E0FA0789F40E943C1FE5EEF2E00E943C
:10344E00621DE0910D05E03019F00E94941E01C03E
:10345E00E0E2EA930E946621CCC1EB81FC813097B9
:10346E0081F40E943C1FE4EFF2E00E94621DA0E096
:10347E0020FCA1E0A13010F0E2E001C0ECE0E0930E
:10348E002605AB81BC81129749F40E943C1FE0E0F7
:10349E00F3E00E94621DE2E0E0932705AB81BC8160
:1034AE00139749F40E943C1FEEE0F3E00E94621D68
:1034BE00E2E0E0932705AB81BC81149749F40E94AA
:1034CE003C1FEAE1F3E00E94621DE2E0E093270573
:1034DE00AB81BC81119749F40E943C1FE6E2F3E0F8
:1034EE000E94621DE2E0E0932705AB81BC81169736
:1034FE0049F40E943C1FE5E3F3E00E94621DE2E006
:10350E00E0932705AB81BC81159749F40E943C1FBF
:10351E00E5E4F3E00E94621DE2E0E0932705AB8153
:10352E00BC81179749F40E943C1FE5E5F3E00E9429
:10353E00621DE2E0E0932705AB81BC81189749F448
:10354E000E943C1FE4E6F3E00E94621DE2E0E0937D
:10355E002705AB81BC81199749F40E943C1FE0E717
:10356E00F3E00E94621DE2E0E0932705AB81BC818F
:10357E001A9749F40E943C1FEEE7F3E00E94621D89
:10358E00E2E0E0932705AB81BC811B9749F40E94D2
:10359E003C1FECE8F3E00E94621DE2E0E093270599
:1035AE00AB81BC811C9749F40E943C1FEAE9F3E011
:1035BE000E94621DE2E0E0932705AB81BC81A53736
:1035CE00E0E0BE0741F40E943C1FE9EAF3E00E94EE
:1035DE00621D0E946C21AB81BC81A238E0E0BE0767
:1035EE0041F40E943C1FE8EBF3E00E94621D0E9432
:1035FE006C21AB81BC81AF38E0E0BE0741F40E9484
:10360E003C1FE7ECF3E00E94621D0E946C21AB812F
:10361E00BC81AC39E0E0BE0741F40E943C1FE6EDF0
:10362E00F3E00E94621D0E946C21AB81BC815A970F
:10363E0041F40E943C1FE5EEF3E00E94621D0E94E1
:10364E006C21AB81BC81979731F40E943C1FE1EF56
:10365E00F3E00E94621DAB81BC81D49731F40E94CD
:10366E003C1FE1E0F4E00E94621DAB81BC811D971E
:10367E0041F40E943C1FE1E1F4E00E94621D0E94B1
:10368E006C21AB81BC81AE34E0E0BE0741F40E94F8
:10369E003C1FECE1F4E00E94621D0E946C21AB81A4
:1036AE00BC81A134E0E0BE0791F5A0912805A130C0
:1036BE0031F40E943C1FEAE2F4E00E94621DA091E8
:1036CE002805A23031F40E943C1FE7E3F4E00E948B
:1036DE00621DA0912805A33031F40E943C1FE7E43F
:1036EE00F4E00E94621DA0912805A43031F40E94DE
:1036FE003C1FE4E5F4E00E94621DA0912805A53070
:10370E0031F40E943C1FE1E6F4E00E94621DAB81A1
:10371E00BC81AB35E0E0BE0711F00C94E61BA09126
:10372E002805A13031F40E943C1FEDE6F4E00E9422
:10373E00621DA0912805A23031F40E943C1FEEE7D5
:10374E00F4E00E94621DA0912805A33031F40E947E
:10375E003C1FEFE8F4E00E94621DA0912805A43002
:10376E0031F40E943C1FEBE9F4E00E94621DA0912F
:10377E002805A53031F40E943C1FECEAF4E00E94CB
:10378E00621DA0912805A63031F40E943C1FEBEB80
:10379E00F4E00E94621DA0912805A73031F40E942A
:1037AE003C1FE8ECF4E00E94621DA0912805A830B1
:1037BE0031F40E943C1FE5EDF4E00E94621DAB81E6
:1037CE00BC81A836E0E0BE07A1F4A0912805A13087
:1037DE0031F40E943C1FEDEDF4E00E94621DA091B9
:1037EE002805A23031F40E943C1FE7EEF4E00E945F
:1037FE00621D0E943C1F0E94DB1C1E2F103130F4F4
:10380E000E94441FE0E2EC931F5FF8CF18812596CB
:10381E0008952497AE81A43660F40E94C820E05D1E
:10382E00E983AE81BB270E94171FE883E0E0EA839D
:10383E0012C0AE81B0E00E94FD1FEA830E9470218B
:10384E000E940F1FE05DE9830E9470210E94171FE6
:10385E00E883E0E0EB83EC81FD81FA93EA93FE01CD
:10386E003296FA93EA930E94AF1C279608951A9304
:10387E000A9300E00830C0F50E9476211C91E02FDB
:10388E00AA81BB81F0E0EA0FFB1FBF010E947C21E1
:10389E00AA81BB81AE0FBF1FEC91DB01EC930E949E
:1038AE007C21AA81BB81EA0FFB1F10830E94762127
:1038BE00AC91A03E28F00E947621AC91AB3F08F06F
:1038CE0004C00E9476210E948121103E10F01B3F01
:1038DE0008F008C00E947C21AA81BB81AE0FBF1FD9
:1038EE000E9481210F5FC6CF198108812496089509
:1038FE00959A089595980895A991B991E991F9919C
:10390E0030962AF4E095F09531966DE26D93E89439
:10391E0080E197E20DD088EE93E00AD084E69927F5
:10392E0007D08AE005D06E2F10D066276C930895CD
:10393E006627E817F90720F06395E81BF90BC9F71E
:10394E00662311F416F008956894605D6D930895E2
:10395E00E991F991A991B991CD016D916623E9F79C
:10396E00119761916D936623E1F7FC010895E9913A
:10397E00F991A991B9911D900590011421F400209F
:10398E00D1F7EE2708951018E1F3E1E008F4E250C4
:10399E000895E991F991A991B991CD0105900D92F2
:1039AE000020E1F7FC010895A991B991EE27FF27B8
:1039BE006D91662311F03196FBCF089500241124EA
:1039CE006991E991F991A991B991662349F06A95A6
:1039DE001D900590011421F40020B9F7EE270895EB
:1039EE001018E1F3E1E008F4E25008957991E991BD
:1039FE00F991A991B991CD01772351F07A95619101
:103A0E006D936623C9F7772319F07A956D93FBCFE3
:103A1E00FC010895AA93BA93EA93FA93EFB7EA9347
:103A2E000895E0913406F0E0E65DFA4F0895F0E077
:103A3E0033960895B0E0EA17FB070895E0913F072B
:103A4E00F0E0EB5CF94FE08108950A921A92FA9237
:103A5E006A937A938A939A93AA93BA93EA93FA9370
:103A6E00EFB7EA930895E091D107E150E093D107C3
:103A7E00E0300895E991EFBFF991E991B991A991DB
:103A8E009991899179916991F99019900990089578
:103A9E00E0E0E09308050895EDE4F0E0E093100512
:103AAE00F09311050895EAE0E0931305E4E1F5E0E3
:103ABE00FA93EA930895FA93EA930C94D01CE1E0FA
:103ACE00EA930C940118E0E0E093CB07DD2408950F
:103ADE00E0918C07EF5FE0939407EAEFF0E0E0935C
:103AEE00CC07F093CD07E1E0E09395070895EAEF58
:103AFE00F0E0E093CC07F093CD070895E0E0E0937B
:103B0E00A207E093A307E1E0F0E0E093A407F093AF
:103B1E00A507E0E00895DD24E0E0E093CB07AA24BA
:103B2E000C948206E5E0EA930C94B7130E94B0164B
:103B3E00E1E0EA930E94BD16E0E0E0930C05E0930D
:103B4E000B050895E1ECF7E0FA93EA93E091CB07C9
:103B5E00EA930C944210E1E0E0930605E0E0E09376
:103B6E00AB070895E091AB07F0E0E355F84F0895E9
:103B7E00A091A207B091A3070895E093A407F09334
:103B8E00A5070895E091AC07F0E00895E091BA071B
:103B9E00F0E03197EC5EFA4F0895E1E6F0E0E09345
:103BAE001005F09311050895E0932505EAE0E093E2
:103BBE0013050895E3E0E0930605E1E0E0932805A0
:103BCE00E093BA07E093BB070895E2E0E0930605A1
:103BDE00E1E0E0932805E093BA07E093BB07089570
:103BEE00E7E5F0E0E0931005F09311050895E1EAA2
:103BFE00F1E0E0931005F09311050895E0E2E093F3
:103C0E002505E0E1E09313050895E0930605E1E054
:103C1E00E0932805E093BA07E0E0E093BE07E09357
:103C2E00BD07E1E0E093BB070895E1EAF3E0E0931E
:103C3E001005F09311050895E0931305E2E0E5CF2A
:103C4E00E1EEF3E0E0931005F09311050895E0EF37
:103C5E00F3E0E0931005F09311050895E0E4F0E031
:103C6E00E0931005F09311050895E8EFF3E0E0936B
:103C7E001005F09311050895E8EFF5E0E0931005B7
:103C8E00F09311050895E8EFF7E0E0931005F09337
:103C9E0011050895E8EFF9E0E0931005F093110592
:103CAE000895E0912805EA930C941E18E0932805D8
:103CBE00E0E0E093AB07E09306050895AA920E9418
:103CCE007110DE2EE3E0E093A807E1E0EA930C9496
:103CDE004911E3E0E093A807E1E00895E5E0E09301
:103CEE00A807E2E00895E091A207F091A3070895D6
:103CFE00E1E0E093AC07E0E0E093A207E093A307D6
:103D0E0041CF36DFEA0FFB1F38DFE0E0E093CB0751
:103D1E00E0CF2EDFEA0FFB1F30CFF0E03197089592
:103D2E00E093A207F093A30708950E948F050E94C7
:103D3E00380C0C948410E0912805EA930C94011829
:103D4E00E1E0E093BA07E0E0E093BE07E093BD0741
:103D5E000895E1E0E0931305E3E0EA930C941E1856
:103D6E00E3E0EA930E947A0BE0911405EF70089558
:103D7E00E6E0E0931305E1E0EA930E941E18E4E109
:103D8E00F5E0FA93EA93E6EBF0E0FA93EA930895FE
:103D9E00E4E1F5E0FA93EA930895FA93EA93E6E004
:103DAE00EA930895E12FF0E0EC5EFA4F0895E0916A
:103DBE00BD07EF5FE093BD0708951E2FA091BD07CD
:103DCE00A330089590DFFA93EA93E4E4F7E0FA93D0
:103DDE00EA930C941619E4E5F7E0FA93EA93089542
:103DEE00E0E1E0931305DA920C941E18E4E4F7E098
:103DFE00FA93EA930895AD2DB0E0E4E6F0E00E9468
:103E0E00BD210895ED2DF0E0E456F040DF01089558
:103E1E00EAE0F0E00E94BD210895AD2DB0E0F8CFAC
:103E2E00EAE0F0E00E94C521E05D0895F0E0E130A7
:103E3E00A0E0FA070895E091A407F091A507FA9380
:103E4E00EA93C9CF0E943E1CD1CFEA81FB81FA933F
:103E5E00EA93E0E0EA930E94AD18E881F981FA93C3
:103E6E00EA93E0E4EA930C94AD18E981FA81FA93AF
:103E7E00EA930895E3E2F1E01ECEA981BA81EE271E
:103E8E00A10FBE1F0895A02FB0E0AC5EBA4F0895EB
:103E9E00EC5EFA4FE081EC930895B0E0A7FDBFEF22
:103EAE00F0E00895E02FF0E0EC5EFA4F0895E22F77
:103EBE00F0E00895DE011896EE0FFF1FAE0FBF1F44
:103ECE000895F0E0EF70F07008950E94E521EA1B6E
:103EDE00FB0B0895E0931305E1E0EA930E941E1890
:103EEE00E1E0EA930E947A0BE0911405EF700895D9
:103EFE00E0911505EF70AAE0EA02F001AE2FE09115
:103F0E001605EF70EA0F0895E2E0EA930E941E187C
:103F1E00E2E0EA930E947A0BE0911405EF700895A7
:103F2E00E3E0EA930C940118E4E0EA930E941E1871
:103F3E00E4E0EA930E947A0BE0911405EF70089585
:103F4E00E4E0EA930C940118E5E0EA930E941E184F
:103F5E00E5E0EA930E947A0BE0911405EF70089564
:103F6E00E5E0EA930C940118EAE3F1E0A4CDE2E077
:103F7E00EA930C940118EA930E947A0BE0911405CF
:103F8E00E1700895E6E0EA930E940118E7E0EA93F3
:103F9E000C940118E1E0E0931305E0E2E0932505AF
:103FAE000895E0931305E0E2E09325050895A091AE
:103FBE009807B09199070895E0939807F0939907A1
:103FCE000895ED91FD913196FE93EE930895EBEBEE
:103FDE00F0E071CD0E943E1CFECEE4EFF1E0FA93CC
:103FEE00EA930C948721A12FB0E00895E4E6F0E067
:103FFE000E94BD21E05D0895E12FF0E0E456F0400F
:10400E00DF010895E0931305C3CEE0E3E0931405BA
:10401E00E0E0E09315050895E12FF0E008950E9489
:10402E001E18FE013296FA93EA93B2CEAB81BC8192
:10403E00EE27A10FBE1F0C9020CFAAE0EA02F001DE
:10404E00AE2F0895E0939A07F0939B070895E0E052
:10405E00E0938A001B980895A0919A07B0919B0750
:10406E000895E091A807ACE0EA9FF001E058FF4FF9
:10407E00A3CFE1E0F0E0E6CFEFDFE6E0F0E00E9474
:10408E00C22130970895E0EDFFEFE0939E07F09385
:10409E009F070895E0E0E0939E07E0939F07089541
:1040AE00E091A807C4CCACE0B0E00E94A521A0E846
:1040BE00B0E00BCF7CDFAE17BF070895E0E0E093D2
:1040CE002406E4E2F6E0FA93EA930895EAE2F5E0D4
:1040DE00FA93EA930895EFE2F7E0FA93EA930C94D9
:1040EE005A0BE0E0EA930C949E16E0912D05F0E059
:1040FE00F097A3CFE0912E05F0E0F097EA0FDE2EB9
:10410E00DD200895F0E0EC52F84F0895E091DE07BF
:10411E00F9CFEB5CF94FA0911405A0831F5F7CCF04
:10412E00DA920E942711F0E0DF010895EC931F5FF1
:10413E0073CFEB5CF94FBF01A0919C07B0919D0727
:10414E00EAE0F0E00895E05DDB01F0CFEB5CF94FC3
:10415E00BF01A0918F07B0E00895E09308051F5F9F
:10416E005BCFA0831F5F58CFA083E091D107E030D3
:10417E000895EB5CF94FA0E5F4CFEB5CF94FA7E4A3
:10418E00F0CFB0E045CEE0E1E0931305E0910B05F2
:10419E00EA930E941E1800E00895AB5CB94FE02F21
:1041AE00F0E076CEEB5CF94FACE7A0830895E42DFA
:1041BE004394F0E0E15DF84F0895EF70E05DEC930D
:1041CE00F6CFBB27EAE0F0E00E94C521EF70E05D7C
:1041DE00DB01EC93ECCFFA93EA930C945A0BE65D69
:1041EE00FA4FA081AC370895E65DFA4FE081EC936B
:1041FE000895E0910C05EA930C940118E02F0F5FDF
:10420E00F0E0EC5EFA4FDF01E12F1F5FF0E0ECCF44
:10421E00E3B1EF70E3B9E3B1E12BE3B908950E9486
:10422E000B22EC81E093120578CD9F01E0911005F1
:10423E00F0911105E050F040BF01E0911305F0E060
:10424E00D9010E94A521E60FF71FE0930E05F0930A
:10425E000F050895E0E3EA930C94DE18E4E0EA9388
:10426E000C94CA18EEE0EA930C94CA18EFE1EA93A4
:10427E000C94CA18E0E0EA930E94CA18EFCFAA8104
:10428E00BB81EE27A10FBE1FEC9108950E94EC1882
:10429E00E5B3EF70E5BBE5B3AE2FE881E07F08959F
:1042AE00EA2BE5BB0C940C19E5B3EF70E5BBE5B357
:1042BE00AE2FE881E2950895E9E0F2E0FCCBEA81C9
:1042CE00FB81FA93EA930C94101CE0912805EA9373
:1042DE00F6CFEE81F0E0E456F040DF010895AA81BA
:1042EE00BB81EE27A00FBE1F0895E02FF0E0AFE0D8
:1042FE00B0E0EBCDEC91F0E0E054F040EC9308959B
:10430E00E991F991309639F088EE93E00197F1F743
:10431E00A8953197C9F70895F195E195F040089564
:10432E00FA9FF02DEB9FF00DEA9FE02DF10D089511
:10433E006E2F6A9FF0016B9FF00D08952DD0F0DF68
:10434E000EF4EADF08950024112490E1AA0FBB1F9A
:10435E00001C111C0E1A1F0A18F40E0E1F1E01C08F
:10436E00A1609A9599F7FD01D001089515D0EBDF64
:10437E000EF4D2DF0895E7DFFD010895E894B7FF4C
:10438E0004C0A095B09511966894F7FDC5DFDBDFEC
:10439E00FD010EF4C1DF0895E894F7FF02C0BCDF03
:1043AE006894B7FF06C0A095B095119600F80394D7
:1043BE0000FA0895ED91FC91119708951B2EBF2FD1
:1043CE00F12D1A2EAE2FE12D0895E199FECFFF9318
:1043DE00FFB7F894AEBBBFBBE09AEDB3FFBFFF9142
:1043EE000895E19B02C0A895FCCF9FB7F894AEBB91
:1043FE00BFBBE09A8DB3E81719F0EDBBE29AE19AD4
:10440E009FBF08955A934A933A932A931A930A9305
:10441E0008955D814C813B812A811981088108951F
:00000001FF
