:100000006DC09AC271C1FCCFFBCFFACFF9CFF8CF48
:10001000FCC3F6CFF5CF3AC1F3CFF2CFF1CFF0CF9B
:10002000EFCF404346494C4F5255585B5E60636684
:10003000686A6D6F7173757678797B7C7D7E7E7F63
:100040007F7F7F7F7F7F7E7E7D7C7B7978767573F7
:10005000716F6D6A686663605E5B5855524F4C49BC
:100060004643403C393633302D2A2724211F1C19A2
:10007000171512100E0C0A090706040302010100ED
:1000800000000000000001010203040607090A0C39
:100090000E10121517191C1F2124272A2D30333654
:1000A000393C31003200330034003500360037006F
:1000B0003800390030002A0023004400303030304E
:1000C0003230313200006B60574F3D38322E040021
:1000D000EE00C6000400F200CA000000F894EE270B
:1000E000ECBBE5BFF8E1A895A4B7A77FA4BFF1BD1D
:1000F000E1BD8DE0A2E0BB27ED938A95E9F780E0B2
:1001000091E0A0E6ED930197E9F7EEECF0E0859140
:100110009591009761F0A591B59105901590BF015B
:10012000F00105900D920197E1F7FB01F0CFE0E0BF
:10013000E3BBE4BBE5BBEFE5EDBFE1E0EEBFC0EA4A
:10014000D0E000C0E0E8E6BDE0E0E6BDEBBBE0E10A
:10015000EABBE0E0E8BBE4E0E7BBE0E0E0BFE2E010
:10016000E3BFEAE0E2BFE0E0E6BFECBFEFBDE1E005
:10017000EEBDEFEEEDBDE0E8ECBDE0E0E5BDE4BDD9
:10018000EBBDEABDE9BDE8BDE3E0E5BFE0E8E2BB09
:10019000E0E5EBBFEABFE1E0E9BFE0E0EDB9E0E8B0
:1001A000E8B9E0E0E3B9E0E4E1B9E6E0E7B9E5E8C1
:1001B000E6B91F981C9AA895EEE1E1BDEEE0E1BD1D
:1001C0007894BBD1E0E4FFE1E093A800F093A900AC
:1001D000A89561D471F0A8EAB0E063D4A091A8001A
:1001E000B091A900A835EBE1BE0714F4DC9801C07A
:1001F000DC9A5DD439F0A4EAB0E053D458D411F4B9
:100200008824DC985AD439F0AAEAB0E04AD455D40C
:1002100009F4DC988824E091D200EF5FE093D200EB
:10022000A091D200A23020F0BED1E0E0E093D20055
:100230004AD451F0A6EAB0E034D445D429F4C298A7
:10024000E0E0E093C80045D4E091C600A091C5006D
:10025000EA1738F0A091C700EA1710F440D409F06B
:100260000DC0C29AE0EAFFE0E093A600F093A70079
:10027000E1E0E093C800AA24DC9A2BD4222009F004
:1002800022243320F1F33324A3CFFFCFAA93BA93D0
:10029000EA93FA93EFB7EA93EAE0E2BF442021F051
:1002A0004A94442009F46624E1E03E2EA0EAB0E03E
:1002B0001AD4A091A000B091A100A03AEFE0BE072F
:1002C00064F0E091A000F091A100E05AFF40E093BB
:1002D000A000F093A100E1E02E2EE991EFBFF9918B
:1002E000E991B991A99118950A921A92FA926A9392
:1002F0007A938A939A93AA93BA93EA93FA93EFB76D
:10030000EA93E1E06E2EEEE14E2EE9B3EF707E2E21
:10031000EDE0E71511F0882009F001C0CDD2E72DFE
:10032000E13039F4E6D3A2EAB0E09ED3E1E0CE2E8C
:100330007EC0E23039F4DDD3A4EAB0E095D3E2E048
:10034000CE2E75C0E33039F4D4D3A6EAB0E08CD316
:10035000E3E0CE2E6CC0E43039F4CBD3A8EAB0E0B1
:1003600083D3E4E0CE2E63C0E53039F4C2D3AAEAE9
:10037000B0E07AD3E5E0CE2E5AC0E63039F4B9D3F6
:10038000ACEAB0E071D3E6E0CE2E51C0E73039F4EC
:10039000B0D3AEEAB0E068D3E7E0CE2E48C0E83094
:1003A00039F4A7D3A0EBB0E05FD3E8E0CE2E3FC096
:1003B000E93039F49ED3A2EBB0E056D3E9E0CE2E7B
:1003C00036C0E03039F495D3A4EBB0E04DD3EAE089
:1003D000CE2E2DC0EA3039F48CD3A6EBB0E044D356
:1003E000EBE0CE2E24C0EB3039F483D3A8EBB0E0A1
:1003F0003BD3ECE0CE2E1BC0EF3039F47AD3AAEB1E
:10040000B0E032D3E0E1CE2E12C0ED3081F4BB2457
:10041000E1E4CE2EE1E08E2EE0EDF7E0E093A400E3
:10042000F093A500E0E0E093C200E093C3006620F3
:1004300009F474C0882021F4AFEDB0E047D26DC05C
:10044000E1E4EC1521F4E1E0BE2EDC9866C0EAE0C0
:10045000EC1509F4CC24E1E0EB1511F4DC2C5CC0C4
:10046000E2E0EB1519F4C092C20056C0E3E0EB15D0
:1004700009F052C0C092C300E9E0ED1541F4A0912B
:10048000C200A93021F4A091C300A93009F00CC02A
:10049000EFEAF0E033D3ACEBB0E0E6D232D388D26F
:1004A000DC9AEAEFF0E033C0E5E0ED1511F4DD246D
:1004B0000FC0E6E0ED1511F4E2E009C0E7E0ED154C
:1004C00011F4E4E004C0E8E0ED1529F4E6E0DE2EE6
:1004D000E1E0E093C400E091C400E030E9F0E0E046
:1004E000E093C400E091C200E093AF00E091C3004C
:1004F000E093B000ED2DF0E001D3E1E0EA93E2E01B
:10050000EA93AFEAB0E054D2DC9AE4ECF9E0E0938D
:10051000AA00F093AB0011D0B394CC24E991EFBFC3
:10052000F991E991B991A9919991899179916991FB
:10053000F9901990099018951895E3D254D2E4EBEC
:10054000F0E0A091AF00B0E0E6D239F4A091B000A5
:10055000E4EBF0E0B0E0DFD209F004C0E0E0E093CB
:10056000CF000EC0E091AF00D9D2E091B000DBD255
:10057000E093CF00E091B100D1D2E091B200D3D2AC
:10058000E093D100E091B300C9D2E091B400CBD2A6
:10059000E093C900E091B500C1D2E091B600C3D2AA
:1005A000E093C6000895E6E0E7B9369A349BFECFA3
:1005B000349A95B0BBD268F4662011F46CD209F07D
:1005C00001C0DC9AB8D219F4E0E0E093CB00E1E09E
:1005D0000EC0662021F483D211F46FD209F001C05D
:1005E000DC98A9D219F0E0E0E093CB00E0E0E093E2
:1005F000CA00A5D2AA3028F4E091CB00EF5FE093C7
:10060000CB009DD2A63078F096D239F09BD29FD203
:100610001CF4A7EDB0E067D206C09DD298D21CF4BE
:10062000A9EDB0E060D282D268F4662011F433D232
:1006300009F001C0DC9A94D219F4E0E0E093CD0017
:10064000E1E00EC0662021F44AD211F436D209F05E
:1006500001C0DC9885D219F0E0E0E093CD00E0E045
:10066000E093CC00A091CD00AA3028F4E091CD0019
:10067000EF5FE093CD00A091CD00A63078F070D26E
:1006800039F072D264D21CF4ABEDB0E02CD206C0CB
:1006900070D25DD21CF4ADEDB0E025D2E091CF0078
:1006A000E093D500E091D100E093D600A091CF0077
:1006B000A03021F4A091D100A03009F01AC05ED280
:1006C00011F439D209F003C05CD2E093D400E09178
:1006D000D400E695E093D500FF276627772751D30E
:1006E000ADECBCEC8CE89FE379D3A6EDB0E010D381
:1006F000EC93A091D5004AD211F41DD209F41CC08C
:10070000E091CE00E03031F446D24AD21CF443D21C
:1007100051D20CF009C0E091C500E03011F0EF5F5C
:1007200001C0E0E0E093C500E0E0E093D900E09391
:10073000DA00E1E0E093CE0021D211F4FCD109F01F
:1007400019C0E091CE00E03031F01BD229D21CF468
:1007500018D230D20CF004C0E091C500EF5F01C0A8
:10076000E0E0E093C500E0E0E093D700E093D8003C
:10077000E093CE00A091D60009D211F4F1D109F492
:100780001CC0E091D000E03031F421D225D21CF41D
:100790001ED22CD20CF009C0E091C700E03011F05D
:1007A000EF5F01C0E0E0E093C700E0E0E093DD0030
:1007B000E093DE00E1E0E093D000E0D111F4D0D18D
:1007C00009F019C0E091D000E03031F01CD204D221
:1007D0001CF419D20BD20CF004C0E091C700EF5FFB
:1007E00001C0E0E0E093C700E0E0E093DB00E093CD
:1007F000DC00E093D0000895E0E0E093F70008D239
:10080000E0E001C0E1E0EEBD08950A921A92AA93D9
:10081000BA93EA93FA93EFB7EA93E091F600A091C6
:10082000F800B091F900F7D1E093F800F093F900E7
:10083000E091F700A091FA00B091FB00ECD1E093B9
:10084000FA00F093FB00E091F800F091F900E7D195
:10085000E093FC00F093FD00E091FA00F091FB00C2
:10086000DED1E093FE00F093FF00E091FC00F091F8
:10087000FD00EE5DFF4F0490D7D1A491D5D1E49156
:10088000E695E6954CD3EA1BE00DF0E0E093A2007C
:10089000F093A300E091A200E8BDE091A200F091E6
:1008A000A300E1D2E9BDE991EFBFF991E991B991D6
:1008B000A991199009901895E1E0ECB9E1E2EFBD3A
:1008C000E1E0EEBDD59A98DF78940895B4D148D38D
:1008D00010E000E000E0AA81BB81D2D0A02FB0E000
:1008E000AE17BF0708F061C0AA81BB81EE27A00F39
:1008F000BE1F1C91113319F4A1D1A3D14EC01233E4
:1009000019F49CD1A1D149C0133319F497D19FD1C7
:1009100044C0143319F49ED194D13FC0153319F457
:1009200099D192D13AC0163319F494D190D135C0EF
:10093000173319F492D185D130C0183319F48DD101
:1009400083D12BC0193319F488D181D126C010333B
:1009500019F486D179D121C01A3219F481D171D11B
:100960001CC0133219F47CD172D117C0113419F4A0
:10097000E091F5000EC0123419F4E091F40009C0C2
:10098000133419F4E091F30004C0143441F4E091FD
:10099000F200E093F700E091EE00E093F60032DF22
:1009A00062D161D129DF0F5F96CFDFD224960895FF
:1009B0005ED166D1EE811E1710F4103108F012C01E
:1009C000A895E1E0E0930001ACEAB0E08CD031976B
:1009D00095D0AE81BF81EE27A10FBE1FAC9126D06E
:1009E0001F5FE8CF20C043D1A091AC00B091AD0013
:1009F000A156B04F30D044D1EE811E1710F4103103
:100A000008F011C0E12FAC81BD8105D1FF93EF93B8
:100A1000ACEAB0E068D03197DF011DD0AF91BF9153
:100A2000EC931F5FE9CF9FD22A960895AA93E09195
:100A30000001E03071F0E0E0E0930001ECB3EF7C06
:100A4000ECBBE299FECFE881A981BA8177D2E49A22
:100A5000E29A23960895EFD0E299FECFE19AA88119
:100A6000B98161D222960895E6D0E991F991A991D0
:100A7000B991CD0105900D920020E1F7FC01089598
:100A8000DAD0A991B991EE27FF276D91662311F075
:100A90003196FBCF0895E091A800F091A90030971E
:100AA0000895ED91FD913197FE93EE930895E091B5
:100AB000A400F091A50030970895E091AA00F0916C
:100AC000AB0030970895E091A600F091A700309711
:100AD0000895E0E0E093C500E093C7000895E09139
:100AE000C800E0300895ED91FD913196FE93EE93AC
:100AF0000895EFEDF0E0FA93EA930895FA93EA93FC
:100B00000895E0E0F0E0FADFE1E0EA93E8E0EA935C
:100B1000AFEAB0E00895EA17FB070895EF70AAE086
:100B2000ADD1AE2F0895EF70EA0F0895E091C9009E
:100B3000EC59E9150895E091CA00E0300895A091BC
:100B4000CB000895A091D700B091D8000895A43C9F
:100B5000E9E0BE070895A091D900B091DA000895A8
:100B6000E091CC00E0300895A091DB00B091DC0072
:100B70000895A091DD00B091DE000895E0DFA5307A
:100B80000895E0DFEAE0F0E0B7D10895E5E093D121
:100B9000E093D300F3CFDFDFEAE0F0E0ADD10895DA
:100BA0000F01A091D300E091D500EA1BEE0FD00118
:100BB000F0E0B1CFBF01E091D300A091D500AE0F1E
:100BC000E2E05CD1DB01F0E0AE17BF070895D1DFB2
:100BD000EAE0F0E091D108950F01A091D300E091F7
:100BE000D600EA1BEE0FD001F0E095CFBF01E091F7
:100BF000D300A091D600AE0FE2E040D1DB01F0E0DF
:100C0000AE17BF070895B0DFEAE0F0E075D10895B0
:100C1000E093F7000895F0E0EA0FFB1F0895349683
:100C20001BD1EF77F0700895E091FE00F091FF0086
:100C3000EE5DFF4F0895BA93AA930895E091F500F1
:100C4000E7CFE091F1000895E091F0000895E09180
:100C5000EF000895E091F400DBCFE091F300D8CFEE
:100C6000E091F200D5CFA6E9B0E01BD0C5CDE3DF1F
:100C700075D1EF81E093AE00E1502E2F3327089518
:100C8000E885F985E050F040BF01EE81D901F0E040
:100C90000DD1E60FF71FE093AC00F093AD0010E02C
:100CA0000895109639F0A89588EE93E00197F1F732
:100CB0001197C9F70895552342F4503811F4E0FF15
:100CC00004C03196691F791F6BF050E8572711F463
:100CD0005F9373C05F3F31F0660F000C57956795C7
:100CE000752F08955F9300200AF072C06BC050E822
:100CF000192E1522880F991F9527550F879550E8B3
:100D0000072E0522660F771F7527550F67950895E3
:100D1000689401C0E8945F93F2DF703818F07F3F69
:100D200008F44BC056E1571BAAF4519558300EF405
:100D3000593030F0EFEFFFEF6FEF7FE777F91AC030
:100D400077275523B9F0EE0FFF1F661F771F5A95BF
:100D5000D1F710C07727583028F0EF2FF62F672FE4
:100D60005850F9CF552331F076956795F795E7956B
:100D70005A95D1F700200AF467D05F9108956894DE
:100D800001C0E894309760407040B1F0002426F034
:100D9000772312F4009458D0172E7EE1112032F000
:100DA0007A95EE0FFF1F661F111CF9CFEF2FF62F5C
:100DB000612D5F938ADF5F910895EE27FF27BF01C2
:100DC0005F910895EFEFFFEF6FE77FEF5F91089579
:100DD000EFEFFFEF6FE77FE75F9108955F9387DFA6
:100DE000703859F3903849F301240894791F23F49B
:100DF00024F300203AF3ECCF3F934F931124332791
:100E00004427552798E1330F441F551FEE1FFF1F3E
:100E1000661F30F43A0F4B1F581FE11DF11D611D75
:100E20009A9589F74F913F9166232AF0550FEE1F4F
:100E3000FF1F661F02C07395E3F23DDF5F910895C7
:100E4000F195E195F0400895F09560957095E195E4
:100E5000FF4F6F4F7F4F0895F695E795F695E7950D
:100E6000F695E7950895EF2FFF27E7FDFFEF08952B
:100E7000FE2FFF0FFF0B6F2F7F2F08950018B9E093
:100E800003C008F40A0E0694E795BA95D1F70895C1
:100E900081E10024111805C010F40A0E1B1E1694DF
:100EA0000794F795E7958A95B9F708952AD0F0DF6A
:100EB0000EF4C6DF0895002498E0AA0F001C0E1A55
:100EC00010F40E0E01C0A1609A95B9F7EA2FA02D7B
:100ED00008950024112490E1AA0FBB1F001C111CCF
:100EE0000E1A1F0A18F40E0E1F1E01C0A1609A955B
:100EF00099F7FD01D001089504D0EBDF0EF4A0DFD7
:100F00000895E894F7FF02C09BDF6894B7FF06C01E
:100F1000B195A195B04000F8039400FA08951A2EF7
:100F2000AE2FE12D0895E199FECFFF93FFB7F8941E
:100F3000AEBBE09AEDB3FFBFFF910895E19B02C005
:100F4000A895FCCF9FB7F894AEBBE09A8DB3E81795
:100F500019F0EDBBE29AE19A9FBF08953A932A9364
:100F60001A930A9308953B812A8119810881089573
:00000001FF
