:100000006DC09CC273C1FCCFFBCFFACFF9CFF8CF44
:10001000FEC3F6CFF5CF3CC1F3CFF2CFF1CFF0CF97
:10002000EFCF404346494C4F5255585B5E60636684
:10003000686A6D6F7173757678797B7C7D7E7E7F63
:100040007F7F7F7F7F7F7E7E7D7C7B7978767573F7
:10005000716F6D6A686663605E5B5855524F4C49BC
:100060004643403C393633302D2A2724211F1C19A2
:10007000171512100E0C0A090706040302010100ED
:1000800000000000000001010203040607090A0C39
:100090000E10121517191C1F2124272A2D30333654
:1000A000393C31003200330034003500360037006F
:1000B0003800390030002A0023004400303030304E
:1000C0003230303800006B60574F3D38322E04001C
:1000D000EE00C6000400F200CA000000F894EE270B
:1000E000ECBBE5BFF8E1A895A4B7A77FA4BFF1BD1D
:1000F000E1BD8DE0A2E0BB27ED938A95E9F780E0B2
:1001000091E0A0E6ED930197E9F7EEECF0E0859140
:100110009591009761F0A591B59105901590BF015B
:10012000F00105900D920197E1F7FB01F0CFE0E0BF
:10013000E3BBE4BBE5BBEFE5EDBFE1E0EEBFC0EA4A
:10014000D0E000C0E0E8E6BDE0E0E6BDEBBBE0E10A
:10015000EABBE0E0E8BBE4E0E7BBE0E0E0BFE2E010
:10016000E3BFEAE0E2BFE0E0E6BFECBFEFBDE1E005
:10017000EEBDEFEEEDBDE0E8ECBDE0E0E5BDE4BDD9
:10018000EBBDEABDE9BDE8BDE3E0E5BFE0E8E2BB09
:10019000E0E5EBBFEABFE1E0E9BFE0E0EDB9E0E8B0
:1001A000E8B9E0E0E3B9E0E4E1B9E6E0E7B9E5E8C1
:1001B000E6B91F981C9AA895EEE1E1BDEEE0E1BD1D
:1001C0007894BDD1E0E4FFE1E093A800F093A900AA
:1001D000A89563D471F0A8EAB0E065D4A091A80016
:1001E000B091A900A835EBE1BE0714F4DC9801C07A
:1001F000DC9A5FD439F0A4EAB0E055D45AD411F4B3
:100200008824DC985CD439F0AAEAB0E04CD457D406
:1002100009F4DC988824E091D200EF5FE093D200EB
:10022000A091D200A23020F0C0D1E0E0E093D20053
:100230004CD469F0A6EAB0E036D447D441F4C29871
:10024000E0E0E093C800E093C500E093C700E091D0
:10025000C600A091C500EA1738F0A091C700EA17C0
:1002600010F439D409F00CC0C29AE0EDF7E0E09345
:10027000A600F093A700E1E0E093C800AA24DC9A6E
:10028000222009F022243320F1F33324A1CFFFCF21
:10029000AA93BA93EA93FA93EFB7EA93EAE0E2BF3C
:1002A000442021F04A94442009F46624E1E03E2EE3
:1002B000A0EAB0E014D4A091A000B091A100A03AAF
:1002C000EFE0BE0764F0E091A000F091A100E05AD9
:1002D000FF40E093A000F093A100E1E02E2EE99111
:1002E000EFBFF991E991B991A99118950A921A92E3
:1002F000FA926A937A938A939A93AA93BA93EA9317
:10030000FA93EFB7EA93E1E06E2EEEE14E2EE9B3F9
:10031000EF707E2EEDE0E71511F0882009F001C0A6
:10032000CDD2E72DE13039F4E0D3A2EAB0E09ED39C
:10033000E1E0CE2E7EC0E23039F4D7D3A4EAB0E0BB
:1003400095D3E2E0CE2E75C0E33039F4CED3A6EAE1
:10035000B0E08CD3E3E0CE2E6CC0E43039F4C5D3EA
:10036000A8EAB0E083D3E4E0CE2E63C0E53039F4F0
:10037000BCD3AAEAB0E07AD3E5E0CE2E5AC0E6308C
:1003800039F4B3D3ACEAB0E071D3E6E0CE2E51C07D
:10039000E73039F4AAD3AEEAB0E068D3E7E0CE2E76
:1003A00048C0E83039F4A1D3A0EBB0E05FD3E8E077
:1003B000CE2E3FC0E93039F498D3A2EBB0E056D34B
:1003C000E9E0CE2E36C0E03039F48FD3A4EBB0E0B4
:1003D0004DD3EAE0CE2E2DC0EA3039F486D3A6EB19
:1003E000B0E044D3EBE0CE2E24C0EB3039F47DD323
:1003F000A8EBB0E03BD3ECE0CE2E1BC0EF3039F4DD
:1004000074D3AAEBB0E032D3E0E1CE2E12C0ED30CF
:1004100081F4BB24E1E4CE2EE1E08E2EE0EDF7E0A6
:10042000E093A400F093A500E0E0E093C200E09325
:10043000C300662009F474C0882021F4AFEDB0E059
:1004400047D26DC0E1E4EC1521F4E1E0BE2EDC986A
:1004500066C0EAE0EC1509F4CC24E1E0EB1511F4F8
:10046000DC2C5CC0E2E0EB1519F4C092C20056C06F
:10047000E3E0EB1509F052C0C092C300E9E0ED15CE
:1004800041F4A091C200A93021F4A091C300A93089
:1004900009F00CC0EFEAF0E02DD3ACEBB0E0E6D20F
:1004A0002CD388D2DC9AEAEFF0E033C0E5E0ED151A
:1004B00011F4DD240FC0E6E0ED1511F4E2E009C00F
:1004C000E7E0ED1511F4E4E004C0E8E0ED1529F4EF
:1004D000E6E0DE2EE1E0E093C400E091C400E0300D
:1004E000E9F0E0E0E093C400E091C200E093AF00E7
:1004F000E091C300E093B000ED2DF0E0FBD2E1E02D
:10050000EA93E2E0EA93AFEAB0E054D2DC9AE4EC9A
:10051000F9E0E093AA00F093AB0011D0B394CC249F
:10052000E991EFBFF991E991B991A99199918991D7
:1005300079916991F9901990099018951895DDD2E3
:1005400054D2E4EBF0E0A091AF00B0E0E0D239F497
:10055000A091B000E4EBF0E0B0E0D9D209F004C023
:10056000E0E0E093CF000EC0E091AF00D3D2E09185
:10057000B000D5D2E093CF00E091B100CBD2E091B2
:10058000B200CDD2E093D100E091B300C3D2E091AC
:10059000B400C5D2E093C900E091B500BBD2E091B0
:1005A000B600BDD2E093C6000895E6E0E7B9369AFA
:1005B000349BFECF349A95B0B5D268F4662011F41E
:1005C0006CD209F001C0DC9AB2D219F4E0E0E093F9
:1005D000CB00E1E00EC0662021F47DD211F46FD291
:1005E00009F001C0DC98A3D219F0E0E0E093CB0061
:1005F000E0E0E093CA009FD2AA3028F4E091CB005B
:10060000EF5FE093CB0097D2A63078F090D239F02C
:1006100095D299D21CF4A7EDB0E061D206C097D272
:1006200092D21CF4A9EDB0E05AD27CD268F46620D4
:1006300011F433D209F001C0DC9A8ED219F4E0E053
:10064000E093CD00E1E00EC0662021F444D211F425
:1006500036D209F001C0DC987FD219F0E0E0E093D7
:10066000CD00E0E0E093CC00A091CD00AA3028F4CA
:10067000E091CD00EF5FE093CD00A091CD00A630DA
:1006800078F06AD239F06CD25ED21CF4ABEDB0E0F7
:1006900026D206C06AD257D21CF4ADEDB0E01FD20C
:1006A000E091CF00E093D500E091D100E093D60037
:1006B000A091CF00A03021F4A091D100A03009F08A
:1006C0001AC058D211F433D209F003C056D2E093C5
:1006D000D400E091D400E695E093D500FF2766278B
:1006E00077274BD3ADECBCEC8CE89FE374D3A6ED3D
:1006F000B0E00AD3EC93A091D50044D211F417D204
:1007000009F41CC0E091CE00E03031F440D244D274
:100710001CF43DD24BD20CF009C0E091C500E03092
:1007200011F0EF5F01C0E0E0E093C500E0E0E0938E
:10073000D900E093DA00E1E0E093CE001BD211F49F
:10074000F6D109F019C0E091CE00E03031F015D2B9
:1007500023D21CF412D22AD20CF004C0E091C500BE
:10076000EF5F01C0E0E0E093C500E0E0E093D70078
:10077000E093D800E093CE00A091D60003D211F40C
:10078000EBD109F41CC0E091D000E03031F41BD271
:100790001FD21CF418D226D20CF009C0E091C70079
:1007A000E03011F0EF5F01C0E0E0E093C700E0E06F
:1007B000E093DD00E093DE00E1E0E093D000DAD1E9
:1007C00011F4CAD109F019C0E091D000E03031F045
:1007D00016D2FED11CF413D205D20CF004C0E09165
:1007E000C700EF5F01C0E0E0E093C700E0E0E09306
:1007F000DB00E093DC00E093D0000895E0E0E093BC
:10080000F70002D2E0E001C0E1E0EEBD08950A92F7
:100810001A92AA93BA93EA93FA93EFB7EA93E09104
:10082000F600A091F800B091F900F1D1E093F80042
:10083000F093F900E091F700A091FA00B091FB006D
:10084000E6D1E093FA00F093FB00E091F800F0911C
:10085000F900E1D1E093FC00F093FD00E091FA0093
:10086000F091FB00D8D1E093FE00F093FF00E091FF
:10087000FC00F091FD00EE5DFF4F0490D1D1A491FA
:10088000CFD1E491E695E6954AD3EA1BE00DF0E07E
:10089000E093A200F093A300E091A200E8BDE091F4
:1008A000A200F091A300DCD2E9BDE991EFBFF9917C
:1008B000E991B991A991199009901895E1E0ECB9E5
:1008C000E1E2EFBDE1E0EEBDD59A98DF78940895BE
:1008D000AED146D310E000E000E0AA81BB81D2D0C7
:1008E000A02FB0E0AE17BF0708F061C0AA81BB819E
:1008F000EE27A00FBE1F1C91113319F49BD19DD17F
:100900004EC0123319F496D19BD149C0133319F458
:1009100091D199D144C0143319F498D18ED13FC0EC
:10092000153319F493D18CD13AC0163319F48ED102
:100930008AD135C0173319F48CD17FD130C0183328
:1009400019F487D17DD12BC0193319F482D17BD111
:1009500026C0103319F480D173D121C01A3219F492
:100960007BD16BD11CC0133219F476D16CD117C076
:10097000113419F4E091F5000EC0123419F4E0912D
:10098000F40009C0133419F4E091F30004C01434E6
:1009900041F4E091F200E093F700E091EE00E09383
:1009A000F60032DF5CD15BD129DF0F5F96CFDDD25D
:1009B0002496089558D160D1EE811E1710F410319D
:1009C00008F012C0A895E1E0E0930001ACEAB0E0C5
:1009D00086D031978FD0AE81BF81EE27A10FBE1F89
:1009E000AC9126D01F5FE8CF20C03DD1A091AC00D4
:1009F000B091AD00A156B04F30D03ED1EE811E1760
:100A000010F4103108F011C0E12FAC81BD81FFD08E
:100A1000FF93EF93ACEAB0E062D03197DF011DD0D5
:100A2000AF91BF91EC931F5FE9CF9DD22A960895B5
:100A3000AA93E0910001E03071F0E0E0E093000162
:100A4000ECB3EF7CECBBE299FECFE881A981BA81DF
:100A500075D2E49AE29A23960895E9D0E299FECFFE
:100A6000E19AA881B9815FD222960895E0D0E991F8
:100A7000F991A991B991CD0105900D920020E1F76E
:100A8000FC010895D4D0A991B991EE27FF276D916B
:100A9000662311F03196FBCF0895E091A800F09104
:100AA000A90030970895ED91FD913197FE93EE9353
:100AB0000895E091A400F091A50030970895E09189
:100AC000AA00F091AB0030970895E091A600F09154
:100AD000A70030970895E091C800E0300895ED91A7
:100AE000FD913196FE93EE930895EFEDF0E0FA93C9
:100AF000EA930895FA93EA930895E0E0F0E0FADFCC
:100B0000E1E0EA93E8E0EA93AFEAB0E00895EA179B
:100B1000FB070895EF70AAE0AED1AE2F0895EF70F5
:100B2000EA0F0895E091C900EC59E9150895E091A4
:100B3000CA00E0300895A091CB000895A091D7009D
:100B4000B091D8000895A43CE9E0BE070895A091B3
:100B5000D900B091DA000895E091CC00E03008951A
:100B6000A091DB00B091DC000895A091DD00B09170
:100B7000DE000895E0DFA5300895E0DFEAE0F0E070
:100B8000BBD10895E5E097D1E093D300F3CFDFDF49
:100B9000EAE0F0E0B1D108950F01A091D300E09117
:100BA000D500EA1BEE0FD001F0E0B1CFBF01E0911C
:100BB000D300A091D500AE0FE2E05DD1DB01F0E003
:100BC000AE17BF070895D1DFEAE0F0E095D10895B0
:100BD0000F01A091D300E091D600EA1BEE0FD001E7
:100BE000F0E095CFBF01E091D300A091D600AE0F09
:100BF000E2E041D1DB01F0E0AE17BF070895B0DFBE
:100C0000EAE0F0E079D10895E093F7000895F0E08C
:100C1000EA0FFB1F089534961CD1EF77F07008950A
:100C2000E091FE00F091FF00EE5DFF4F0895BA9352
:100C3000AA930895E091F500E7CFE091F1000895BF
:100C4000E091F0000895E091EF000895E091F40044
:100C5000DBCFE091F300D8CFE091F200D5CFA6E949
:100C6000B0E01BD0CBCDE3DF79D1EF81E093AE00D4
:100C7000E1502E2F33270895E885F985E050F040A4
:100C8000BF01EE81D901F0E011D1E60FF71FE0932B
:100C9000AC00F093AD0010E00895109639F0A895DF
:100CA00088EE93E00197F1F71197C9F7089555235E
:100CB00042F4503811F4E0FF04C03196691F791FE7
:100CC0006BF050E8572711F45F9373C05F3F31F02A
:100CD000660F000C57956795752F08955F93002058
:100CE0000AF073C06CC050E8192E1522880F991FA6
:100CF0009527550F879550E8072E0522660F771F19
:100D00007527550F67950895689401C0E8945F931F
:100D1000F2DF703818F07F3F08F44BC056E1571BE4
:100D2000AAF4519558300EF4593030F0EFEFFFEF40
:100D30006FEF7FE777F91AC077275523B9F0EE0FE9
:100D4000FF1F661F771F5A95D1F710C077275830BD
:100D500028F0EF2FF62F672F5850F9CF552331F099
:100D600076956795F795E7955A95D1F700200AF49F
:100D700068D05F910895689401C0E894309760400E
:100D80007040B1F0002426F0772312F4009459D07B
:100D9000172E7EE1112032F07A95EE0FFF1F661FAD
:100DA000111CF9CFEF2FF62F612D5F938ADF5F9132
:100DB0000895EE27FF27662777275F910895EFEFC5
:100DC000FFEF6FE77FEF5F910895EFEFFFEF6FE7C2
:100DD0007FE75F9108955F9386DF703851F3903815
:100DE00041F301240894791F23F41CF300203AF303
:100DF000ECCF3F934F93112433274427552798E195
:100E0000330F441F551FEE1FFF1F661F30F43A0FAC
:100E10004B1F581FE11DF11D611D9A9589F74F91D8
:100E20003F9166232AF0550FEE1FFF1F661F02C079
:100E30007395E3F23CDF5F910895F195E195F04001
:100E40000895F09560957095E195FF4F6F4F7F4F36
:100E50000895F695E795F695E795F695E795089543
:100E6000EF2FFF27E7FDFFEF0895FE2FFF0FFF0B8A
:100E70006F2F7F2F08950A2EAA1BB9E003C008F434
:100E8000A00DA695E795BA95D1F708950A2E1B2EC9
:100E900081E1AA27BB1B05C010F4A00DB11DB695BA
:100EA000A795F795E7958A95B9F708952AD0EEDFCB
:100EB0000EF4C3DF0895002498E0AA0F001C0E1A58
:100EC00010F40E0E01C0A1609A95B9F7EA2FA02D7B
:100ED00008950024112490E1AA0FBB1F001C111CCF
:100EE0000E1A1F0A18F40E0E1F1E01C0A1609A955B
:100EF00099F7FD01D001089504D0EBDF0EF49DDFDA
:100F00000895E894F7FF02C098DF6894B7FF06C021
:100F1000A095B095119600F8039400FA08951A2E42
:100F2000AE2FE12D0895E199FECFFF93FFB7F8941E
:100F3000AEBBE09AEDB3FFBFFF910895E19B02C005
:100F4000A895FCCF9FB7F894AEBBE09A8DB3E81795
:100F500019F0EDBBE29AE19A9FBF08953A932A9364
:100F60001A930A9308953B812A8119810881089573
:00000001FF
