:0A0000000C949F010C9400000C9476
:10000A0000000C9400000C9400000C9400000C9466
:10001A0000000C9400000C9400000C94C8080C9486
:10002A0000000C9400000C9400000C9400000C9446
:10003A0000000C9400000C9400000C9400000C9436
:10004A0000000C9400000C9400000C9400000C9426
:10005A0000000C9400000C9400000C9400000C9416
:10006A0000000C9400000C9400000C9400000C9406
:10007A0000000C9400000C9400000C9400000C94F6
:10008A0000001027E80364000A00010000100001C4
:10009A00100001000400313233343536202020208C
:1000AA00202020202020200020EEF6ECF6EC20EC88
:1000BA00E3E9F8E42033302000E3E9F8E4203330C0
:1000CA0020ECF6ECF6E5EC2024002020202020206D
:1000DA002020202020202020202000300031003144
:1000EA00323320202020202020003132333435368C
:1000FA0020202020202020202020003235323532B6
:10010A0035202020202020202020200030300030E0
:10011A00350039390020E3E9F8E420EEF1F4F8205B
:10012A0031202020200020E3E9F8E420EEF1F4F861
:10013A002032202020200020E3E9F8E420EEF1F428
:10014A00F820332020202000F0E020E4EEFAEF2E01
:10015A002E2E00EEE0F8E2EF20F9EEE5FA2100009B
:10016A00F9ECE5ED2CE4F9FAEEF920E12020202063
:10017A000020ECE7E9F4E5F920E3E9E9F8E9ED2EF6
:10018A0000F0E020ECF4FAE5E720202020202020EF
:10019A0020002020202020E0FA20E4E3ECFA2121AC
:1001AA00212000F0E020E4EEFAEF20202020202099
:1001BA0020202000202020ECF4FAE9E7FA20E3ECE2
:1001CA00FA2E2E2E00EEFAE1F6F220E0E9F4E5F13D
:1001DA002E2E2E00202020E0E9EF20EEF2F0E4207F
:1001EA00202020002020E4F7E520EEF0E5FAF72EA3
:1001FA002E2E2000202020E9F920EEF2F0E4202023
:10020A002020002020F0E020ECE3E1F82E2E2E2022
:10021A000020FAF4F8E9E820F8E0F9E90020F8F912
:10022A00E9EEFA20E4F7E5E3E9ED002020F7E5E35B
:10023A0020E2E9F9E420002020F7E5E320ECF7E5E5
:10024A00E7200020F9EEE5FA20E4E3E9E9F8E9ED30
:10025A002000F7E9E3E5E32020ECF4E920E3E9F8FC
:10026A00E5FA0020E6EEF0E9ED2029F9F0E9E5FAF1
:10027A00282000E4E2E3F8E5FA20F4F0EC20E3ECCD
:10028A00FA0020E4EBF0F120F7E5E320230020E474
:10029A00EBF0F120F7E5E320E2E9F9E4200020E4BD
:1002AA00EBF0F120F7E5E320ECF7E5E7200020E4A6
:1002BA00EBF0F120F9ED20230020F7E5E32020EC14
:1002CA00E3E9F8E42023002020E6EEEF20E4EEFA4A
:1002DA00F0E4200020E6EEEF20F4FAE9E7FA20E362
:1002EA00ECFA20002020E6EEEF20FAE0E5F8E42020
:1002FA00002020E6EEEF20F6ECF6E5EC2000E6E939
:10030A00E4E5E920E3ECFA203120F2E3203400E4CA
:10031A00E2E3F8FA20F6ECE9EC20302C312C32003A
:10032A00E0E9F4E5F120EBECECE920000100020041
:10033A009E000000F894EE27ECBBF1E0F5BFE5BFA4
:10034A00E0936C00F8E1F1BDE1BD8DE0A2E0BB27CE
:10035A00ED938A95E9F780E090E1A0E0B1E0ED93B2
:10036A000197E9F7E6E3F3E085919591009761F04B
:10037A00A591B59105901590BF01F00105900D92D8
:10038A000197E1F7FB01F0CF8BBFEFEFEDBFE0E1A3
:10039A00EEBFC0E0D5E00C94D201EFE1E1BDEFE0A1
:1003AA00E1BDE0E0EBBBEFEFEABBE0E8E8BBE1E28E
:1003BA00E7BBE0E0E5BBEFEFE4BBE0EDE2BBE2B3B5
:1003CA00EE7BE2BBE0E0E1BBE1B3ED67E1BBE4E079
:1003DA00E3B9EFEFE2B9E0E0E0936200EFEFE09318
:1003EA006100ECE9E0936500E4E0E0936400E0E09A
:1003FA00E3BFE0BFE2BFE1BFEFBDEEBDEDBDECBDC7
:10040A00EBBDEABDE9BDE8BDE0937900E093780071
:10041A00EBE0E4BDE0E0E3BDE3E6E5BDE3E4E09361
:10042A008B00E0E0E0938A00E0938900E093880083
:10043A00E1E0E0938700E0E0E0938600E093850046
:10044A00E0938400E0938300E0938200E0936A00E3
:10045A00EABFE9BFE7B7E069E7BFE0E0E0937D0004
:10046A00EBB9EAB9E0939500E9B9E0939000E0931B
:10047A009B00E0939A00E0939D00E0939900E0933B
:10048A009800E0E8E8B9E0E0E0BD78940E94450E03
:10049A0063D70E94110BE3EBE0937805E7B7EE7F91
:1004AA00E7BF5598CBD122FC03C0E3B1E360E3B9BF
:1004BA00E8E3E093A205C09AA8950E94E30BE091B5
:1004CA006300E87029F4E3E3DE1608F4D39401C06C
:1004DA00DD24E2E3ED1589F40E9437110E943E11F2
:1004EA00E0EAF0E00E9446110E944A11E3E0E0933C
:1004FA007E05E4E0EA930E94CD0BE0916300E0718F
:10050A0011F0879904C0E0911705E03009F00AC09C
:10051A00A0916B05A33328F4E0916B05EF5FE0939C
:10052A006B0503C0E0E0E0936B05A0916B05A23375
:10053A0039F40E944E110E945311E4E0E0937E05C3
:10054A00E0916D05E03021F4E0916E05E03009F4A8
:10055A0019C00E944E11E0E0E0936E05EAEFE093C5
:10056A00A005E0916805E03011F00E940F11E091BA
:10057A006805EF5FE0936F05E1E0E0937005E4E062
:10058A00E0937E05E0916F05E03021F4E09170057B
:10059A00E03009F406C00E945E11E09370050E94E3
:1005AA001111AA2021F0AA24E3E0E0937E0521FE9E
:1005BA0008C0E9E0F0E00E946B11EAE0F0E00E9476
:1005CA007011E0918005E03039F0E0E0E0938005B9
:1005DA009924E0939F0566245520E9F4E5E05E2E10
:1005EA000E94C20CE0937D05E030A9F0E091690514
:1005FA00E03021F0EF5FE0936C05A89A04D2E09115
:10060A007005E03021F4E0911705E03009F003C0ED
:10061A00EAEFE093A005F9D325FE05C0E89425F892
:10062A00E8E7E093A30524FE0DC0E89424F8E091DE
:10063A001705E03039F0E091A305E03019F0E150F8
:10064A00E093A305A091A205A23020F0A09117057E
:10065A00A03009F015C021FE03C0E89421F80FC0AC
:10066A000E947511E13220F4E0919F05E03009F40F
:10067A0003C00E9475119E2EE0E0E0939F05E4D02E
:10068A00E091A305E03021F4A0911705A13008F408
:10069A0001C0DAD0A091A105AE3720F0A0911705CC
:1006AA00A23008F404C0E0E0E093A10542D0E09152
:1006BA001C05E03041F422FC03C0E3B1E36002C050
:1006CA00E3B1EC7FE3B923FEFECFE89423F8F4CE3E
:1006DA00FFCFE0918105E03039F4E0E0E0931705BF
:1006EA00E89420F8B1D024C0E1E0E0931705E09146
:1006FA008105E150E09381050E947E11E081E0933B
:10070A0082050E948411EAE0F0E00E9448140E94E7
:10071A0070110E948911A0917B05B0917C05AE1BD6
:10072A00BF0BA0937905B0937A05E0E0E0931A0530
:10073A000895E0918E05E03049F00E948D11E08124
:10074A00E0938F050E948D11AEE204C00E948D11C4
:10075A00A0918F05A083A0918E05E1E0EA27E0939E
:10076A008E050895E0E0E093A1050E948411549754
:10077A0041F40E949411E0E20E949B11E4E00E947D
:10078A00A1110E9484115E9741F40E943711E1E0A1
:10079A000E949B11E7E00E94A1110E948411989780
:1007AA0041F40E94AB11E1E00E949B11E7E00E9434
:1007BA00A1110E9484111A9759F40E94B211E0E221
:1007CA00E0939105E0E1E0930505E3E00E94B911A9
:1007DA000E948411DC9759F40E94C911E0E2E09367
:1007EA009105E2E0E0930505E5E00E94B9110E9457
:1007FA008411D29759F40E94D011E4E0E093910554
:10080A00E2E0E0930505E6E00E94B9110E94841136
:10081A00A634E0E0BE0759F40E94D711E3E0E09362
:10082A009105E1E0E0930505E6E00E94B911E09147
:10083A001A05E03011F00E94DE1108950E945E113F
:10084A000E94E311CAD308950E945E110E94E31127
:10085A00E0E0E093A20508951A93E0E0E093A20590
:10086A00A0917D05A53151F4BB246394861410F43C
:10087A00E1E06E2E6A92BDD69E2EC1C0A0917D0582
:10088A00A73159F4BB24E1E0E61510F0682C01C049
:10089A006A946A92AED69E2EB2C0A0917D05A63108
:1008AA0011F00C949704E0919F05E03041F00E940A
:1008BA007511E13220F40E947511E03011F499208B
:1008CA0049F1992019F40E9475119E2EE1E0E093F6
:1008DA00A005E89424F8E4E64E2E22FC06C09A927B
:1008EA003ED7EA930E94340D05C09A9238D7EA930C
:1008FA000E94A20D21FC08C04424E1E0AE2EB09073
:10090A006A050E94EB1103C099240E94F011EA9330
:10091A003FD704C00E94F011EA933AD7E0E0E0938F
:10092A009F0570C0A0917D05A831D9F5BB24D6D307
:10093A001E2F0E94F511309761F5113039F40E948B
:10094A004E110E9453110E94EB1120C0123061F423
:10095A00689425F8E89420F8E1E0E09317050E94EE
:10096A00FA110E94061212C0133059F4689425F83D
:10097A00E1E0E093170520F80E94FA110E9406129E
:10098A0005C0E0E0E0939F050E94F011EA9300D7CA
:10099A0007C0E0E0E0939F050E94F011EA93F8D6C1
:1009AA0031C0A0917D05A13010F0AB3008F01FC016
:1009BA000E94EB11EA93ECD699246624A0917D0556
:1009CA00AA3019F4E0E0E0937D05E0919F05F0E09C
:1009DA00EB56FA4FA0917D05A083A0919F05AA30FE
:1009EA0028F4E0919F05EF5FE0939F050BC0A0916B
:1009FA007D05A13139F4BB24E0E0E0939F05E3E0F3
:100A0A000E940E12C7C4E0911705E03029F4E3E012
:100A1A00E0937F0521DFE5C0A0911705A13011F011
:100A2A000C947205A0917D05A53191F4E091180509
:100A3A00A0918205EA1711F4E1E003C0E091820572
:100A4A00EF5FE09382050E9489110E94141244C04C
:100A5A00A0917D05A73189F4A0918205A13019F4EE
:100A6A00E091180503C0E0918205E150E093820508
:100A7A000E9489110E9414122FC0A0917D05A631EF
:100A8A0031F5E09119050E941812A0918105B0E094
:100A9A00AE17BF07D4F40E947E11A0918205A083ED
:100AAA00E0918105EF5FE0938105E1E0E093820543
:100ABA00A0917B05B0917C05EAE00E943D140E945A
:100ACA006B110E9489110E9414124CDE05C0A0917C
:100ADA007D05A13109F4FDDD81C0E0918E05E0308C
:100AEA0009F427DEA0917D05A831B1F40E94841192
:100AFA001A9789F4E0918D05EF5FE0938D05E0E0A8
:100B0A00E0939005E0910505A0918D05EA1718F488
:100B1A00E1E0E0938D0562C0A0917D05A531A1F4C5
:100B2A000E941B12E0919105A0911A05AE1720F4BC
:100B3A00E0911A05EF5F01C0E1E0E0931A050E9417
:100B4A00DE110E9420124AC0A0917D05A73199F4B6
:100B5A000E941B12A0911A05A23020F0E0911A05FA
:100B6A00E15002C0E0919105E0931A050E9420121B
:100B7A000E94DE1133C0A0917D05A131F9F4A09144
:100B8A008D05A23048F0E0918D05E150E0938D0586
:100B9A00E0E0E093900511C00E941B120E94DE1152
:100BAA00E0910605EF70E093940593DDA09194051A
:100BBA00A53009F48EDD11D22FD510C0A0917D0584
:100BCA00A63161F00E9484111A9711F443D006C02D
:100BDA00A0918D05A13009F405D015D0E3E00E945B
:100BEA000E1208951A93E0918D050E9418121E2F75
:100BFA00E09105051E1730F40E942912A0E2A08395
:100C0A001F5FF6CFC7C3A0917D05A13010F0AB30AE
:100C1A0008F01FC0A0917D05AA3019F4E0E0E09326
:100C2A007D050E948D11DF01E0917D05E05DEC9369
:100C3A00E0918D05EF5FE0938D05E0910505A091A8
:100C4A008D05EA1718F4E1E0E0938D05E0E0E09302
:100C5A00900508951A93E0E0E0939205A0917D052E
:100C6A00A13010F0AB3008F0CFC0A0917D05AA30BA
:100C7A0019F4E0E0E0937D050E942E12A091900500
:100C8A00A43051F4A0917D05A43031F0A53021F0B3
:100C9A00A93011F00E942E12A0919005A63018F0EA
:100CAA00E1E0E0939005A0919005A53029F4E09148
:100CBA007D05E05D1E2FA5C0E0919205E03011F0A0
:100CCA000C94ED06A0917D05A130B1F4A091900598
:100CDA00A13009F417E2A0919005A23009F41DE2AF
:100CEA00A0919005A33009F41EE2A0919005A330CB
:100CFA0011F40E942E126CC0A0917D05A23049F415
:100D0A00E0919005EE510E94341211F40E942E12C5
:100D1A005FC0A0917D05A33049F4E0919005E152AE
:100D2A000E94341211F40E942E1252C0A0917D0525
:100D3A00A43029F4E0919005E4511E2F49C0A091F6
:100D4A007D05A53029F4E0919005E8511E2F40C099
:100D5A00A0917D05A63049F4E0919005EB510E94DF
:100D6A00341211F40E942E1233C0A0917D05A730CF
:100D7A0049F4E0919005E9500E94341211F40E945E
:100D8A002E1226C0A0917D05A83049F4E091900565
:100D9A00EC500E94341211F40E942E1219C0A09134
:100DAA007D05A93029F4E0919005E0511E2F10C06D
:100DBA00E0919005E35C6E2FE0917D05A3E0EA02E5
:100DCA00F001E60F1E2FA0919205A23009F4105EE1
:100DDA00E0917D05E030A9F4A0919005A13009F4D5
:100DEA0010E2A0919005A23009F418E2A0919005B2
:100DFA00A33009F419E2A0919005A33011F40E94DE
:100E0A002E120E948D111083C5C20E943912A09120
:100E1A001705A23060F00E94421298D0A0911705DF
:100E2A00A33021F40E9442120E94D4107AC0992061
:100E3A0011F0BB2009F431C00E94B2110E9447127E
:100E4A00E2EBF0E00E9446110E945212309779F0CC
:100E5A000E945212E05DE09332050E9459120E94EC
:100E6A005F12E05DE09331050E9459120BC00E94A7
:100E7A006412309729F00E946412E05DE093310514
:100E8A00A92DBB27EAE0F0E00E946314E05DE0933D
:100E9A0030050E9442125AD040C0992021F0E091B8
:100EAA001705E03009F035C00E94B2110E944712BE
:100EBA004DD00E944212E3ECF0E00E944611E3E0BA
:100ECA00E09342050E945212309799F00E94521202
:100EDA00E05DE09339050E9459120E945F12E05DBD
:100EEA00E09338050E9459120E946712E093370571
:100EFA000FC00E946412309729F00E946412E05DCC
:100F0A00E0933905A92DBB270E946712E0933805A3
:100F1A0004C00E946D120E94120FE3E3F5E00E94E2
:100F2A0074120E9478120E947B1201D008950E94C6
:100F3A008012E0E0EA930E94AA0EE881F981FA930E
:100F4A00EA93E0E4EA930E94AA0E1BC11A930E9454
:100F5A008512E4EDF0E00E94461110E0E0910505EB
:100F6A001E1728F40E942912E081E03009F408C013
:100F7A000E948A120E942912E081EC931F5FEECF31
:100F8A00BBC31A930A9311E0E09105050E94181257
:100F9A00EA5FFA4FA081A032C9F4E09105050E94E8
:100FAA0018120E2F013068F0A02FB0E0AA5FBA4FD6
:100FBA00E02F0E941812EA5FFA4FE081EC93015089
:100FCA00F1CFE0E3E09306051F5FDECFEA81EA9303
:100FDA000E940F0E1981088190C30E94D711E1E087
:100FEA00E09305050E949012E0939405A091940560
:100FFA00A53011F4B1D108C00E949C12E5EEF0E0D0
:10100A000E9446110E94A1120E94D011E2E00E94A1
:10101A00A5120E94B312CE2E0E94BC120E94B312D5
:10102A00E09368050E9490120E94B312E09369054A
:10103A00A0916905A33609F4A89AE0916905E03000
:10104A0009F4A898E4E0EA930E94270EE4E00E94DB
:10105A00C812E0936A050E94D711E1E00E94A51226
:10106A00E0939305A0919305A53010F4E03009F4BC
:10107A001DC0E09193050E941812E0939305E2B314
:10108A00E164E2BB02B2E0919305E270F0E0F5950B
:10109A00E795AE2FE0919305E170E295E07FEE0FC0
:1010AA00EE0FEA2BE095E021E2BB09C0E2B3E1646E
:1010BA00E2BB0E949C120E94CF120E944A110E9417
:1010CA00BC127E2EE2E0E71540F4E1E07E2E0E949B
:1010DA009C120E94CF120E94D21208950E94A31459
:1010EA00E0E03E2F1E2FEAE0E09305050E9437114B
:1010FA00E0919F05E030B1F13F5F3A930E94270EDD
:10110A0000E020E0E0919F052E1710F4003009F06E
:10111A0013C0E22FF0E00F01EA5FFA4FA081F0015D
:10112A00EB56FA4FE081F0E0F096B0E0EA17FB07E1
:10113A0009F001E02F5FE6CF003071F411E0E22FF1
:10114A00F0E0EA5FFA4FA081A13220F0A0919F055A
:10115A00AA3008F001C010E0333210F4103009F060
:10116A0001C0CACF313011F4103009F401C012E0C5
:10117A00323011F4103009F401C013E0E12F0E945B
:10118A00A814249608950A921A92FA926A937A9364
:10119A008A939A93AA93BA93EA93FA93EFB7EA9344
:1011AA00689423F8E0917505F09176050E94D612AD
:1011BA00EA0FFB1F0E94DB12552009F05A94E091B6
:1011CA007305F0917405309771F0A3E7B5E0ED91DE
:1011DA00FD913197FE93EE93E0917305F0917405BA
:1011EA00309709F4E5D2442041F04A94442029F486
:1011FA00689421F8E0E0E0931C05A0911705A2305D
:10120A0050F0A091A005BB27E6E5F0E00E94631428
:10121A00309709F48EDAE091A005EF5FE093A0051C
:10122A00A091A005AA3F10F40C94A309F0E0EA5F8C
:10123A00F040E093A005689424F8BB20A9F0BB20F5
:10124A0099F0BA94E0916A050E941812AB2DB0E0A9
:10125A00EA17FB0749F4E4E0E0937E05E2E0E715CC
:10126A0019F4E5E0EA9394D2E091A305E03019F08D
:10127A00E150E093A305E0916C05E03021F0A091E4
:10128A006C05A33608F008C0E0916C05E150E093C4
:10129A006C05E03009F4A898E0916D05E03081F022
:1012AA00E4E0F0E00E946B11E5E0F0E00E947011CA
:1012BA00E0916D05E150E0936D05E1E0EA9368D2B3
:1012CA00E0916F05E03099F0E2E0F0E00E946B11E6
:1012DA00E3E0F0E00E947011E0916F05E150E093C5
:1012EA006F05E2E0E71519F4E3E0EA9351D2E091E1
:1012FA007F05E03021F0E091A205E03009F00AC054
:10130A00E0917F05E150E0937F05E03019F4E1E0D8
:10131A00E0938005E0919F05E03021F4992011F4D3
:10132A0021FE04C0E0911705E03009F004C0E09105
:10133A00A205EF5F01C0E0E0E093A205E991EFBFEB
:10134A00F991E991B991A9919991899179916991C3
:10135A00F9901990099018951A93E0E4F0E0E09357
:10136A000205F0930305E1E0E0930505EA930E9484
:10137A00270EA0919405A530C9F0A0910605AF3FAC
:10138A0078F410E0143658F4E0916300E87011F430
:10139A00B79B02C01991089500001F5FF3CF06C0E2
:1013AA000E949C120E94CF120E944A11E7E0F0E0CC
:1013BA000E946B11E8E0F0E00E9470110E9439125D
:1013CA000E946D120E94120F0E9478120E9442120D
:1013DA000E94E012ACDDE8EEF3E0FA93EA930E9491
:1013EA000D140E9494110E943E11E9EEF0E00E9451
:1013FA0046110E944A1112E0113258F40E949C12BE
:10140A00E7EAF0E00E9446111A930E940F0E1F5F4E
:10141A00F3CF0E9437110E943E11E4EFF0E00E94E0
:10142A0046110E944A110E94AB110E943E11E5E04A
:10143A00F1E00E9446110E944A110E94C911E2E09D
:10144A00E093050511E0113240F5143678F4A12F26
:10145A00B0E00E945F12E05DE0930605A12FBB2772
:10146A000E946712E0930705E0E210C0A12F0E94D4
:10147A00E312E09306050E94EA120E945F12E05D01
:10148A00E09307050E94EA120E946712E09308059A
:10149A001A930E940F0E1F5FD6CF0E94D011E2E06E
:1014AA000E94F012E6E1F1E00E9446110E944A1100
:1014BA000E949C12E9E1F1E00E9446110E94D212B8
:1014CA000E949C12ECE1F1E00E9446110E94A112D6
:1014DA000E949C12E9E1F1E00E944611E4E0EA93DD
:1014EA000E940F0E0E94D711E1E00E94F0120E94A2
:1014FA00CF120E944A110E949C120E94CF120E948F
:10150A00D2120E949C12E5EEF0E00E9446110E945F
:10151A00A1120E94B211E0E10E94F012EFE1F1E0A3
:10152A000E9446110E944A110E949C12E0E3F1E0D7
:10153A000E9446110E94D2120E949C12E1E4F1E03C
:10154A000E9446110E94A11214E0113258F40E941E
:10155A009C12E4EDF0E00E9446111A930E940F0ECD
:10156A001F5FF3CFE0E0E0937905E0937A05E1E0CD
:10157A00F0E00E9470110E9439120E946D120E94BE
:10158A00120F0E9478120E9442120E94E012CFDCCF
:10159A000C94060FA881A13021F4A981BA81EC919B
:1015AA00ACC0A881A23059F4A981BA81EC91AAE011
:1015BA00EA02A981BA811196EC91E00D9EC0A88138
:1015CA00A330A9F4A981BA81EC91A4E6EA02602DBC
:1015DA00A981BA811196EC91AAE0EA02F001E60F1C
:1015EA000E2EA981BA811296EC91E00D86C0E0E038
:1015FA0084C01A9310E0103268F4E12FF0E0E95B3E
:10160A00FA4FE081A981EA1719F4E12FEF5FBDC013
:10161A001F5FF1CFE0E0B9C060971A930A93E3E243
:10162A00F5E0FA93EA93E2E5F1E00E9446110E949E
:10163A0078120E944212EDE5F1E00E9446110E94E2
:10164A0042120E94E01273DC88240E94B211E0E187
:10165A00E093050511E01132E8F51A930E94F3129E
:10166A00E0E1EA9365D0FE013296FA93EA9336D026
:10167A00E03001F5E12F0E941812E95BFA4FA1E070
:10168A00A08301E00132B0F40A930E94F31237D02A
:10169A00E03071F00E949C1221D0E03049F4E12F31
:1016AA000E941812E95BFA4FDF01EC91EF5FEC93AD
:1016BA000F5FE8CFE12F0E941812E95BFA4FA08171
:1016CA008A1630F4E12F0E941812E95BFA4F8080E3
:1016DA001F5FC1CF19810881629608951A9310E09D
:1016EA00103148F40E948A12AC91A03211F0E0E065
:1016FA0003C01F5FF5CFE1E01881239608951A937E
:10170A0010E0103190F40E94FA12EC91E01518F4EE
:10171A00E1E0188122C00E94FA12EC910E1618F428
:10172A00E0E018811AC01F5FECCFE0E0188115C015
:10173A00E881E03091F0E150E883AB81BC81F0E0D0
:10174A00EA0FFB1F0F01E881A981BA81F0E0AE0F11
:10175A00BF1FEC91D001EC93EBCF259608951A9315
:10176A000E94C911E2E0E0930505E981EA930E942B
:10177A00270EE9810E94C8121E2F113010F0113273
:10178A0008F002C0E12F01C0E0E018812296089516
:10179A00772059F0E881E0937705E8EEF3E00E94BC
:1017AA000113EAE1E0938A0001C002D00C94E60E2C
:1017BA00E0E0E09377050E9406130895E09177052B
:1017CA00E03011F40C94C10CF0E0E130A0E0FA072B
:1017DA0061F40E940B13A53DE3E0BE0718F00E94D6
:1017EA00101302C00E941813BFC0E230A0E0FA072B
:1017FA0071F40E940B13A939E3E0BE0728F0E0E870
:10180A00F2E00E94DB1202C00E941813ADC0E3305E
:10181A00A0E0FA0771F40E940B13AD3BE2E0BE07A9
:10182A0028F0E0E8F0E00E94DB1202C00E941813E0
:10183A009BC0E430A0E0FA0701F50E940B13A73E13
:10184A00E3E0BE0718F00E94101316C00E940B13A3
:10185A00AD3AE3E0BE0770F00E941B1319F40E9430
:10186A00221302C00E9429130E942F1310F40E940F
:10187A00101302C00E94181377C0E530A0E0FA07DF
:10188A0011F00C94B90C0E940B13A73EE3E0BE07BB
:10189A0018F00E94101368C00E940B13AD3AE3E0DF
:1018AA00BE0770F00E941B1319F40E94221302C093
:1018BA000E9429130E942F1310F40E94101354C07F
:1018CA000E940B13A934E3E0BE0718F00E94061326
:1018DA004BC00E940B13A734E3E0BE0718F00E9426
:1018EA00101342C00E940B13AD30E3E0BE0788F02C
:1018FA00EAE1E0938A000E941B1319F40E94221362
:10190A0002C00E9429130E942F1310F40E94101380
:10191A002BC00E940B13A93AE2E0BE0718F00E94FE
:10192A00061322C00E940B13A73AE2E0BE0718F082
:10193A000E94101319C00E940B13AD36E2E0BE07D5
:10194A0088F0EAE1E0938A000E941B1319F40E94CE
:10195A00221302C00E9429130E942F1310F40E941E
:10196A00101302C00E941813E0917205E0938700D9
:10197A00E0917105E093860008951A9310911B0572
:10198A000DD0E0931B05103011F4E11719F4E0E0D3
:10199A000C94060FE0911B050C94060F1A930A93F8
:1019AA00C69810E10E94411300E00430E8F514FFE4
:1019BA000CC0B29B02C0E1E04FC0B39B02C0E2E0A0
:1019CA004BC0B49B02C0E3E047C015FF0CC0B29BFA
:1019DA0002C0E4E041C0B39B02C0E5E03DC0B49B55
:1019EA0002C0E6E039C016FF0CC0B29B02C0E7E0B5
:1019FA0033C0B39B02C0E8E02FC0B49B02C0E9E049
:101A0A002BC017FF0CC0B29B02C0E8E125C0B39BF4
:101A1A0002C0EAE021C0B49B02C0E1E11DC0110F7F
:101A2A000E9441130F5FC1CFE3B1EF70E3B9C69AC9
:101A3A0000E00E3118F400000F5FFBCFB29B02C02A
:101A4A00E5E10AC0B39B02C0E7E106C0B49B02C04D
:101A5A00E6E102C0C698E0E0099119910895E8818B
:101A6A000E9418120E944813EA5FE0931C05A8819D
:101A7A00A93020F00E944E130E9453130E945B1358
:101A8A0031F0E1E0E0931D05A881BB2703C00E9465
:101A9A006313DF01E8E0F0E00E9468130E94791303
:101AAA00E095E121E3B9B19B02C021FE01C001C06A
:101ABA00FACFA0911C05A73010F021FE01C019C071
:101ACA0021FC04C080E991E00197F1F70E947913A3
:101ADA00E129E3B9B19902C021FE01C001C0FACFE0
:101AEA0021FC04C080E991E00197F1F70E9480137C
:101AFA00E0CF0E947913E095E121E3B9E0911C055A
:101B0A00E030C9F00E948013B19902C021FE01C0E1
:101B1A0001C0FACF84E393E00197F1F70E9486139C
:101B2A0021F00E947913E12904C00E947913E095FB
:101B3A00E121E3B9E3CF0C94E60EE8810E94181282
:101B4A000E944813EA5FE0931C05A881A93020F09F
:101B5A000E944E130E9453130E945B1331F0E1E07E
:101B6A00E0931D05A881BB2703C00E946313DF0110
:101B7A00E8E0F0E00E9468130E947913E129E3B9D2
:101B8A00B19902C021FE01C001C0FACFA0911C0583
:101B9A00A73010F021FE01C01AC021FC04C080E465
:101BAA0091E00197F1F70E947913E095E121E3B9F9
:101BBA00B19B02C021FE01C001C0FACF21FC04C0C2
:101BCA0080E491E00197F1F70E948013DFCF0E9431
:101BDA007913E129E3B9E0911C05E030C9F00E94CC
:101BEA008013B19B02C021FE01C001C0FACF88E573
:101BFA0092E00197F1F70E94861329F00E94791367
:101C0A00E095E12103C00E947913E129E3B9E3CF0A
:101C1A000C94E60E0E9494130E949A13E091050513
:101C2A001E1710F4103108F009C00E94B0130E9468
:101C3A002912E0810E9492141F5FF0CF0E94A8141B
:101C4A000C94A4100E9494130E949A13E091050523
:101C5A001E1710F4103108F00BC00E9429120F0150
:101C6A000E94B0130E948614D001EC931F5FEECF3E
:101C7A000E942912A0E0A0830E94A8140C94A41028
:101C8A000E94BA130E94BA130E94BA130E94BA138E
:101C9A00E0E2EA938AD0E8E2EA9380D0E0E1EA93CC
:101CAA007DD0ECE0EA937AD0E6E0EA9377D0E1E0FF
:101CBA00EA9374D001D00895AA98AB98E8E4EA931D
:101CCA006DD00E94BE130E94C2130E94C6130E94C6
:101CDA00BE130E94BE130E94BE130E94BE130E942E
:101CEA00CA130E94BE130E94BE130E94BE130E9412
:101CFA00C6130E94C2130E94BE130E94CA130E94F6
:101D0A00BE130E94C213E1E1EA933BD00E94C613BC
:101D1A000E94BE13E0E0EA9334D0E0E0EA9331D0C7
:101D2A0008950E94A31430E0EC813E1758F400E0B5
:101D3A0010E00436E0E01E0718F40F5F1F4FF9CFDA
:101D4A003F5FF2CF0E94A814FAC11A93E981E058C2
:101D5A00EA9324D010E0103120F40E94CF13E0302F
:101D6A0009F406C00E94CF13EA930BD01F5FF3CF8A
:101D7A00103128F4E0E2EA9304D01F5FF9CF18810A
:101D8A0047C20E94D613E4600E94E0130E94E41343
:101D9A00E07FE4600E94E013AA9813C00E94D61361
:101DAA000E94E0130E94E41309C0E5E0EA93B9DF58
:101DBA00E5B3EF70E5BBE5B3AE2FE881E07F0E94A3
:101DCA00E013219608951A9310E8AF9AEFE7E4BB5F
:101DDA00AB9AAA9817FF0FC0AF9A00000000000044
:101DEA00A99A00000000000013B317FF13B3AF98BD
:101DFA00A99809D0EFCFEFEFE4BBE5B3EF70E5BBED
:101E0A00AB981991089500000000A99A00000000FB
:101E1A000000A9980000000008951A93E0911705A0
:101E2A00E03011F00C949C0FEB81FC81309781F427
:101E3A000E948512EAE6F1E00E944611A981BA8160
:101E4A001D96E1E0EC93A981BA811F96E2E0EC933A
:101E5A00AB81BC81119731F40E948512EBE7F1E066
:101E6A000E944611AB81BC81129731F40E948512FF
:101E7A00EBE8F1E00E944611AB81BC81139731F483
:101E8A000E948512ECE9F1E00E944611AB81BC8107
:101E9A00149731F40E948512EDEAF1E00E9446118E
:101EAA00AB81BC81159731F40E948512EEEBF1E00B
:101EBA000E944611AB81BC81179731F40E948512AA
:101ECA00EDEAF1E00E944611AB81BC81189731F42A
:101EDA000E948512EFECF1E00E944611AB81BC81B1
:101EEA00199731F40E948512EEEDF1E00E94461135
:101EFA00AB81BC811A9731F40E948512EEEEF1E0B3
:101F0A000E944611AB81BC811B9731F40E94851255
:101F1A00EEEFF1E00E944611AB81BC811C9731F4CF
:101F2A000E948512EDE0F2E00E944611FAC0EB81B0
:101F3A00FC81309781F40E948512EBE1F2E00E9465
:101F4A004611A0E020FCA1E0A13010F0E2E001C0BF
:101F5A00E7E0E0931805AB81BC81129749F40E942F
:101F6A008512E7E2F2E00E944611E2E0E0931905E9
:101F7A00AB81BC81139749F40E948512E5E3F2E034
:101F8A000E944611E2E0E0931905AB81BC811497E7
:101F9A0049F40E948512E1E4F2E00E944611E2E06F
:101FAA00E0931905AB81BC81119749F40E9485120F
:101FBA00EDE4F2E00E944611E2E0E0931905AB81FC
:101FCA00BC81169749F40E948512ECE5F2E00E9462
:101FDA004611E2E0E0931905AB81BC81159749F4FB
:101FEA000E948512EDE6F2E00E944611E2E0E093DB
:101FFA001905AB81BC81179749F40E948512EDE758
:10200A00F2E00E944611E2E0E0931905AB81BC813F
:10201A00549749F40E948512ECE8F2E00E944611B6
:10202A000E94EC138ED0AB81BC815E9731F40E9482
:10203A008512E8E9F2E00E944611AB81BC819897CB
:10204A0031F40E948512E8EAF2E00E944611AB815F
:10205A00BC811A9749F40E948512E8EBF2E00E94CB
:10206A0046110E94EC136DD0AB81BC81DC9749F418
:10207A000E948512E3ECF2E00E9446110E94EC13E2
:10208A0060D0AB81BC81D29741F5A0911A05A130ED
:10209A0031F40E948512E1EDF2E00E944611A0910E
:1020AA001A05A23031F40E948512EEEDF2E00E9488
:1020BA004611A0911A05A33031F40E948512EEEE62
:1020CA00F2E00E944611A0911A05A43031F40E9450
:1020DA008512EBEFF2E00E944611AB81BC81A63477
:1020EA00E0E0BE07F1F4A0911A05A13031F40E9494
:1020FA008512E8E0F3E00E944611A0911A05A23089
:10210A0031F40E948512E9E1F3E00E944611A091A0
:10211A001A05A33031F40E948512EAE2F3E00E9424
:10212A0046110E9485120E942D111E2F103130F483
:10213A000E948A12E0E2EC931F5FF8CF188125967D
:10214A0008952497AE81A43668F4B0E00E945F1225
:10215A00E05DE983AE81BB270E946712E883E0E075
:10216A00EA8311C0AE810E94E312EA830E94F0134F
:10217A000E945F12E05DE9830E94F0130E946712D9
:10218A00E883E0E0EB83EC81FD81FA93EA93FE01B8
:10219A003296FA93EA930E941311279608951A9396
:1021AA000A9300E0083090F50E94F6131C91E02F84
:1021BA00AA81BB81F0E0EA0FFB1FBF010E94FC135A
:1021CA00AE0FBF1FEC91DB01EC930E94FC13EA0FE8
:1021DA00FB1F10830E94F613AC91A03E28F00E94C8
:1021EA00F613AC91AB3F08F004C00E94F6130E94AC
:1021FA000714103E10F01B3F08F006C00E94FC13A3
:10220A00AE0FBF1F0E9407140F5FCCCF1981088140
:10221A0024960895959A089595980895E991F991C3
:10222A00A991B991CD016D916623E9F71197619151
:10223A006D936623E1F7FC010895E991F991A9915B
:10224A00B991CD0105900D920020E1F7FC010895A6
:10225A00A991B991EE27FF276D91662311F0319666
:10226A00FBCF0895E1E4F0E0E0930205F093030563
:10227A000895EAE0E0930505E6E0F5E0FA93EA93CB
:10228A000895FA93EA930C942211E1E0EA930C94EC
:10229A000F0EE0E0E0939F0599240895EAEFE0939A
:1022AA00A005EC2DEF5FE0936D05E1E0E0936E058C
:1022BA000895E0E0E0937905E0937A05E1E0F0E043
:1022CA00E0937B05F0937C05E0E00895E0937905BF
:1022DA00F0937A050895E0937B05F0937C050895C1
:1022EA00E5E9F5E0FA93EA93E0919F05EA930C9405
:1022FA00CF0AE0918105F0E0ED57FA4F0895A091D9
:10230A007905B0917A050895E0918205F0E0089583
:10231A00E0918D05F0E03197EA5FFA4F0895E5E51F
:10232A00F0E0E0930205F09303050895E093910528
:10233A00EAE0E09305050895E0931705E1E0E093EC
:10234A001A05E0938D05E0938E050895EBE4F0E01D
:10235A00E0930205F09303050895E5E9F1E0E093BF
:10236A000205F09303050895E0931705E1E0E09371
:10237A001A05E0938D05E0E0E0939205E09390055D
:10238A00E1E0E0938E050895E5E9F3E0E0930205C4
:10239A00F09303050895E5EDF3E0E0930205F09369
:1023AA0003050895EDEDF3E0E0930205F0930305CC
:1023BA000895E0911A05EA930C94270EE0931A0502
:1023CA00E0E0E0938105E09317050895E3E0E093E8
:1023DA007E05E1E00895E5E0E0937E05E2E00895F8
:1023EA00E0917905F0917A050895E0E0E09381059E
:1023FA00E1E0E0938205E0E0E0937905E0937A0575
:10240A0083CF7DDFEA0FFB1F66DFE0E0E0939F05E5
:10241A00DDCFE0937E05E1E0EA930C94CD0B6FDF0C
:10242A00EA0FFB1F58CFF0E031970895E0911A05A3
:10243A00EA930C940F0EE1E0E0938D05E0E0E0935F
:10244A009205E09390050895E12FF0E0EA5FFA4FD4
:10245A000895E0919005EF5FE093900508951E2F8F
:10246A00A0919005A3300895BBDFFA93EA93E3E2C3
:10247A00F5E0FA93EA930C94120FE3E3F5E0FA938A
:10248A00EA930895E0E1E09305059A920E94270EE7
:10249A00E3E2F5E0FA93EA930895A92DB0E0E4E6C1
:1024AA00F0E00E945B140895E92DF0E0E456F04054
:1024BA00DF010895EAE0F0E00E945B140895A92D77
:1024CA00B0E0F8CFEAE0F0E00E946314E05D08951E
:1024DA00E0917B05F0917C05FA93EA93CECFFA93CB
:1024EA00EA930C94D410E3E2F5E0F9CFE3E2F5E0E5
:1024FA00FA93EA93C2CFEA81FB81FA93EA930895A9
:10250A00E981FA81FA93EA930895A981BA81EE27BB
:10251A00A10FBE1F0895E3E0EA930E94270EE3E0AD
:10252A00EA930E94C607E0910605EF700895E6E077
:10253A00F5E0FA93EA930895E3E0EA930C940F0E18
:10254A00E0930505E1E0EA930E94270EE1E0EA93B1
:10255A000E94C607E0910605EF700895AAE0EA0214
:10256A00F001AE2FE0910705EF70EA0F0895E2E05F
:10257A00EA930E94270EE2E0EA930E94C607E091DE
:10258A000605EF700895EA930E94C607E0910605D2
:10259A00EF70E4CFE7EEF0E074CEE2E0EA930C9459
:1025AA000F0EA0917105B09172050895E09371051F
:1025BA00F093720508950E94D41098CFB0E0E4E633
:1025CA00F0E00E945B14E05D0895E12FF0E0E4562C
:1025DA00F040DF010895E0930505A9CF0E94270E78
:1025EA00FE013296FA93EA93A2CFAB81BC81EE2721
:1025FA00A10FBE1F0C9089CFE0937305F093740569
:10260A000895E0E0E0938A001B980895A09173056D
:10261A00B09174050895E0917E05ACE0EA9FF0015F
:10262A00E058FF4FC3CFE1E0F0E0E6CFEFDFE6E0AE
:10263A00F0E00E94601430970895E0EDFFEFE09318
:10264A007505F09376050895E0E0E0937505E0934B
:10265A0076050895E0917E05F0E03396ACE0B0E0AF
:10266A000E944314A0E8B0E00E947F14EA1BFB0B0F
:10267A0098DFAE17BF070895E3B1EF70E3B9E3B18E
:10268A00E12BE3B90895DF01E8E0F0E00E945B1472
:10269A000895E881F0E0BF013197F5CF31960E94A5
:1026AA002E143196DB01EA1BE8830895A881BB2723
:1026BA00E2E0F0E00E94631430970895E0E0E093CE
:1026CA001D05E881B0CE0E946314DF01E2E0F0E06C
:1026DA000E945B14A1E00E941D14E095EF70EE0FBA
:1026EA00EE0FE0931E05089513B0E0911D05A1E0D9
:1026FA000E941D140895E0911C05E150E0931C0509
:10270A000895E0911C05A1E0B0E00E942514DF01C4
:10271A00E0911E05F0E0EA23FB23309708950E941A
:10272A00A314EC81E09304057ECE9F01E09102059B
:10273A00F0910305E050F040BF01E0910505F0E09B
:10274A00D9010E944314E60FF71FE0930005F093A6
:10275A00010510E00895A0E0B5E0ED91FD913196F4
:10276A00FE93EE933197DF010895E0E3EA930C9428
:10277A00DA0EE4E0EA930C94C60EEEE0EA930C94C7
:10278A00C60EEFE1EA930C94C60EE0E0EA930E94CB
:10279A00C60EEFCFAA81BB81EE27A10FBE1FEC9117
:1027AA0008950E94E80EE5B3EF70E5BBE5B3AE2FDE
:1027BA00E881E07F0895EA2BE5BB0C94080FE5B3A6
:1027CA00EF70E5BBE5B3AE2FE881E2950895E0919D
:1027DA001A05EA9390CEEE81F0E0E456F040DF016C
:1027EA000895AA81BB81EE27A00FBE1F0895E02F8E
:1027FA00F0E0AFE0B0E00E947F14EA1BFB0BAA8175
:10280A00BB810895EC91F0E0E054F040EC93089518
:10281A00E991F991309639F080ED97E00197F1F757
:10282A00A8953197C9F70895F195E195F040089573
:10283A00EE230E2EEA2F19F0EE0F0A94E9F7089507
:10284A00EE230E2EFD0121F0EE0FFF1F0A94E1F791
:10285A000895EE0FFF1FEE0FFF1FEE0FFF1F0895E3
:10286A00FA9FF02DEB9FF00DEA9FE02DF10D0895F0
:10287A006E2F6A9FF0016B9FF00D08952DD0F0DF47
:10288A000EF4D2DF08950024112490E1AA0FBB1F91
:10289A00001C111C0E1A1F0A18F40E0E1F1E01C06E
:1028AA00A1609A9599F7FD01D001089515D0EBDF43
:1028BA000EF4BADF0895E7DFFD010895E894B7FF43
:1028CA0004C0A095B09511966894F7FDADDFDBDFE3
:1028DA00FD010EF4A9DF0895E894F7FF02C0A4DF12
:1028EA006894B7FF06C0A095B095119600F80394B6
:1028FA0000FA08951B2EBF2FF12D1A2EAE2FE12DAF
:10290A000895E199FECFFF93FFB7F894AEBBBFBB22
:10291A00E09AEDB3FFBFFF910895E19B02C0A8952D
:10292A00FCCF9FB7F894AEBBBFBBE09A8DB3E81754
:10293A0019F0EDBBE29AE19A9FBF08953A932A9360
:10294A001A930A9308953B812A811981088108956F
:00000001FF
