:100000000C9497010C9400000C9400000C940000D8
:100010000C9400000C9400000C9400000C94000060
:100020000C9400000C94B9080C9400000C9400008F
:100030000C9400000C9400000C9400000C94000040
:100040000C9400000C9400000C9400000C94000030
:100050000C9400000C9400000C9400000C94000020
:100060000C9400000C9400000C9400000C94000010
:100070000C9400000C9400000C9400000C94000000
:100080000C9400000C9400000C9400001027E8036E
:1000900064000A00010000100001100001000000CF
:1000A00031323334353620202020202020202020DB
:1000B000200020EEF6ECF6EC20ECE3E9F8E4203347
:1000C000302000E3E9F8E420333020ECF6ECF6E5EC
:1000D000EC20240020202020202020202020202070
:1000E0002020202000300031003132332020202019
:1000F00020202000313233343536202020202020AB
:10010000202020200032353235323520202020209A
:1001100020202020200030300030350039390020E8
:10012000E3E9F8E420EEF1F4F8203120202020006B
:1001300020E3E9F8E420EEF1F4F82032202020203A
:100140000020E3E9F8E420EEF1F4F8203320202049
:100150002000F9ECE5ED2CE4F9FAEEF920E120209D
:1001600020200020ECE7E9F4E5F920E3E9E9F8E9EB
:10017000ED2E00F0E020ECF4FAE5E720202020202E
:10018000202020002020202020E0FA20E4E3ECFAC8
:100190002121212000F0E020E4EEFAEF20202020B1
:1001A000202020202000202020ECF4FAE9E7FA208B
:1001B000E3ECFA2E2E2E00EEFAE1F6F220E0E9F45E
:1001C000E5F12E2E2E00202020E0E9EF20EEF2F0C7
:1001D000E420202020002020E4F7E520EEF0E5FADE
:1001E000F72E2E2E2000202020E9F920EEF2F0E458
:1001F00020202020002020F0E020ECE3E1F82E2E4B
:100200002E200020FAF4F8E9E820F8E0F9E90020CF
:10021000F8F9E9EEFA20E4F7E5E3E9ED002020F74C
:10022000E5E320E2E9F9E420002020F7E5E320EC13
:10023000F7E5E7200020F9EEE5FA20E4E3E9E9F844
:10024000E9ED2000F7E9E3E5E32020ECF4E920E321
:10025000E9F8E5FA0020E6EEF0E9ED2029F9F0E909
:10026000E5FA282000E4E2E3F8E5FA20F4F0EC20D7
:10027000E3ECFA0020E4EBF0F120F7E5E3202300C3
:1002800020E4EBF0F120F7E5E320E2E9F9E42000D7
:1002900020E4EBF0F120F7E5E320ECF7E5E72000C0
:1002A00020E4EBF0F120F9ED20230020F7E5E32036
:1002B00020ECE3E9F8E42023002020E6EEEF20E440
:1002C000EEFAF0E4200020E6EEEF20F4FAE9E7FA97
:1002D00020E3ECFA20002020E6EEEF20FAE0E5F83B
:1002E000E420002020E6EEEF20F6ECF6E5EC20001E
:1002F000E6E9E4E5E920E3ECFA203120F2E32034FA
:1003000000E4E2E3F8FA20F6ECE9EC20302C312CA2
:100310003200E0E9F4E5F120EBECECE9200002002A
:10032000020002001E030200A4059E000000F894D3
:10033000EE27ECBBF1E0F5BFE5BFE0936C00F8E120
:10034000F1BDE1BD8DE0A2E0BB27ED938A95E9F711
:1003500080E090E1A0E0B1E0ED930197E9F78BBF79
:10036000E0E2F3E085919591009761F0A591B59158
:1003700005901590BF01F00105900D920197E1F7EE
:10038000FB01F0CFEFEFEDBFE0E1EEBFC0E0D5E065
:100390000C94CA01EFE1E1BDEFE0E1BDE0E0EBBBB1
:1003A000EFEFEABBE0E8E8BBE1E2E7BBE0E0E5BB9A
:1003B000EFEFE4BBE0EDE2BBE2B3EE7BE2BBE0E0FB
:1003C000E1BBE1B3ED67E1BBE4E0E3B9EFEFE2B934
:1003D000E0E0E0936200EFEFE0936100ECE9E0938E
:1003E0006500E4E0E0936400E0E0E3BFE0BFE2BF6B
:1003F000E1BFEFBDEEBDEDBDECBDEBBDEABDE9BDBE
:10040000E8BDE0937900E0937800EBE0E4BDE0E044
:10041000E3BDE3E6E5BDE3E4E0938B00E0E0E093D9
:100420008A00E0938900E0938800E1E0E093870090
:10043000E0E0E0938600E0938500E0938400E093A1
:100440008300E0938200E0936A00EABFE9BFE7B768
:10045000E069E7BFE0E0E0937D00EBB9EAB9E09343
:100460009500E9B9E0939000E0939B00E0939A0037
:10047000E0939D00E0939900E0939800E0E8E8B9EC
:10048000E0E0E0BD78940E94AD0E53D70E94FF0AD1
:10049000E3EBE0935C05E7B7EE7FE7BF5598D9D172
:1004A00021FC03C0E3B1E360E3B9E8E3E0939C051A
:1004B000C09AA8950E94AC0BE0916300E87051F4DB
:1004C000A0914A05A33328F4E0914A05EF5FE09339
:1004D0004A0503C0E0E0E0934A05A0914A05A23333
:1004E00089F40E94EB100E94F210E0EAF0E00E9412
:1004F000FA100E94FE10E3E0E0936205E4E0EA9364
:100500000E94960BE0916300E07111F0879904C09E
:10051000E0916505E03009F00AC0A0914F05A333D2
:1005200028F4E0914F05EF5FE0934F0503C0E0E052
:10053000E0934F05A0914F05A23351F40E940211A0
:10054000EAEFE0939A050E940711E4E0E093620568
:10055000E0915105E03021F4E0915205E03009F4DA
:1005600014C00E940211E0E0E0935205EAEFE0932C
:100570009A050E94B10CE0914C05E0935305E1E02F
:10058000E0935405E4E0E0936205E0915305E03028
:1005900021F4E0915405E03009F409C0EAEFE0935A
:1005A0009A050E940F11E09354050E94B30CE0914C
:1005B0004905E03031F0E0E0E0934905E3E0E09305
:1005C000620520FE08C0E9E0F0E00E941C11EAE0AC
:1005D000F0E00E942111E0916405E03039F0E0E0A4
:1005E000E0936405AA24E0939905BB245520F1F417
:1005F000E5E05E2E0E947F0FE0936105E030B1F0F0
:10060000E0914D05E03019F0E0935005A89A06D22C
:10061000E0915405E03031F4E03021F4E0916505DB
:10062000E03009F003C0EAEFE0939A05F5D325FE28
:1006300005C0E89425F8E8E7E0939D0523FE0DC08A
:10064000E89423F8E0916505E03039F0E0919D05EC
:10065000E03019F0E150E0939D05A0919C05A23097
:1006600020F0A0916505A03009F015C020FE03C060
:10067000E89420F80FC00E942611E13220F4E091A6
:100680009905E03009F403C00E942611AE2EE0E087
:10069000E0939905E4D0E0919D05E03021F4A0912C
:1006A0006505A13008F401C0DAD0A0919B05AE37F2
:1006B00020F0A0916505A23008F404C0E0E0E093CA
:1006C0009B0542D0442041F421FC03C0E3B1E36028
:1006D00002C0E3B1EC7FE3B922FEFECFE89422F83A
:1006E0000C945902FFCFE0916605E03039F4E0E068
:1006F000E0936505E89424F8B2D025C0E1E0E093EA
:100700006505E0916605E150E09366050E942F11B2
:10071000E081E09367050E943511EAE0F0E00E9475
:10072000D2130E942111E0916705A0915F05B0915D
:100730006005F0E0AE1BBF0BA0935D05B0935E05B6
:10074000E0E0E09375050895E0917605E03049F02A
:100750000E943A11E081E09377050E943A11AEE2DF
:1007600004C00E943A11A0917705A083A09176055C
:10077000E1E0EA27E09376050895E0E0E0939B0549
:100780000E943511549741F40E944111E0E20E9409
:100790004811E4E00E944E110E9435115E9741F429
:1007A0000E94EB10E1E00E944811E7E00E944E1128
:1007B0000E943511989741F40E945811E1E00E947F
:1007C0004811E7E00E944E110E9435111A9759F422
:1007D0000E945F11E0E2E0937A05E0E1E0937905A1
:1007E000E3E00E9466110E943511DC9759F40E94E3
:1007F0007611E0E2E0937A05E2E0E0937905E5E046
:100800000E9466110E943511D29759F40E947D1101
:10081000E4E0E0937A05E2E0E0937905E6E00E9407
:1008200066110E943511A634E0E0BE0759F40E941B
:100830008411E3E0E0937A05E1E0E0937905E6E0F6
:100840000E946611E0917505E03011F00E948B1155
:1008500008950E940F110E949011BBD308950E9429
:100860000F110E949011E0E0E0939C0508951A9307
:10087000E0E0E0939C05A0916105A53151F4CC2402
:10088000B394DB1410F4E1E0BE2EBA92A4D6AE2EDF
:10089000C1C0A0916105A73159F4CC24E1E0EB156A
:1008A00010F0BD2C01C0BA94BA9295D6AE2EB2C04B
:1008B000A0916105A63111F00C949E04E091990578
:1008C000E03041F00E942611E13220F40E9426110E
:1008D000E03011F4AA2051F1AA2019F40E94261147
:1008E000AE2EE1E0E0939A05E89423F8E4E69E2E2C
:1008F00021FC06C0AA9200D7EA930E94F50F05C01A
:10090000AA92FAD6EA930E945A1020FC09C09924B0
:10091000E1E0E0934905C0904E050E94981103C0A4
:10092000AA240E949D11EA9301D704C00E949D1140
:10093000EA93FCD6E0E0E09399056FC0A0916105D1
:10094000A831D1F5CC24C4D31E2F0E94A211309718
:1009500059F5113051F4EAEFE0939A050E94021123
:100960000E9407110E9498111CC0123051F4689423
:1009700025F8E89424F8E1E0E09365050E94A711CA
:1009800010C0133049F4689425F8E1E0E093650560
:1009900024F80E94A71105C0E0E0E09399050E94A9
:1009A0009D11EA93C3D607C0E0E0E09399050E9449
:1009B0009D11EA93BBD631C0A0916105A13010F022
:1009C000AB3008F01FC00E949811EA93AFD6AA245A
:1009D000BB24A0916105AA3019F4E0E0E093610521
:1009E000E0919905F0E0E157FA4FA0916105A083ED
:1009F000A0919905AA3028F4E0919905EF5FE09362
:100A000099050BC0A0916105A13139F4CC24E0E037
:100A1000E0939905E3E00E94BD11A9C4E09165054A
:100A2000E03031F4E3E0E09363050E943704E1C075
:100A3000A0916505A13011F00C947205A09161059B
:100A4000A53181F4E0916805A0916705EA1711F4DA
:100A5000E1E003C0E0916705EF5FE09367050E9466
:100A6000C3113FC0A0916105A73179F4A09167053A
:100A7000A13019F4E091680503C0E0916705E150E9
:100A8000E09367050E94C3112CC0A0916105A631B7
:100A900011F5E0916905E150A0916605AE17C0F42B
:100AA0000E942F11A0916705A083E0916605EF5F7A
:100AB000E0936605E1E0E0936705A0915F05B091E2
:100AC0006005EAE00E94B9130E941C110E94C31144
:100AD0000E94BD0306C0A0916105A13111F40E94DE
:100AE000730384C0E0917605E03011F40E94A40302
:100AF000A0916105A831B1F40E9435111A9789F4CB
:100B0000E0917405EF5FE0937405E0E0E093780511
:100B1000E0917905A0917405EA1718F4E1E0E093FB
:100B2000740564C0A0916105A531A1F40E94CA11A9
:100B3000E0917A05A0917505AE1720F4E091750556
:100B4000EF5F01C0E1E0E09375050E948B110E9408
:100B5000CF114CC0A0916105A73199F40E94CA1130
:100B6000A0917505A23020F0E0917505E15002C01A
:100B7000E0917A05E09375050E94CF110E948B11D8
:100B800035C0A0916105A13109F5A0917405A2308D
:100B900048F0E0917405E150E0937405E0E0E093E3
:100BA000780513C00E94CA110E948B11E0917B0549
:100BB000EF70E0938E050E947303A0918E05A5301F
:100BC00011F40E94730305D21AD510C0A0916105DB
:100BD000A63161F00E9435111A9711F442D006C077
:100BE000A0917405A13009F405D014D0E3E00E946F
:100BF000BD1108951A93E0917405E1501E2FE09104
:100C000079051E1730F40E94D811A0E2A0831F5F5F
:100C1000F6CFADC3A0916105A13010F0AB3008F064
:100C20001FC0A0916105AA3019F4E0E0E0936105CE
:100C30000E943A11DF01E0916105E05DEC93E091E3
:100C40007405EF5FE0937405E0917905A091740558
:100C5000EA1718F4E1E0E0937405E0E0E09378052A
:100C600008951A93E0E0E0938C05A0916105A1300E
:100C700010F0AB3008F0CFC0A0916105AA3019F494
:100C8000E0E0E09361050E94DD11A0917805A430B9
:100C900051F4A0916105A43031F0A53021F0A930C4
:100CA00011F00E94DD11A0917805A63018F0E1E066
:100CB000E0937805A0917805A53029F4E0916105CD
:100CC000E05D1E2FA5C0E0918C05E03011F00C9482
:100CD000EF06A0916105A130B1F4A0917805A13093
:100CE00009F417E2A0917805A23009F41DE2A09161
:100CF0007805A33009F41EE2A0917805A33011F421
:100D00000E94DD116CC0A0916105A23049F4E09110
:100D10007805EE510E94E31111F40E94DD115FC0CD
:100D2000A0916105A33049F4E0917805E1520E9459
:100D3000E31111F40E94DD1152C0A0916105A430AD
:100D400029F4E0917805E4511E2F49C0A091610576
:100D5000A53029F4E0917805E8511E2F40C0A091FC
:100D60006105A63049F4E0917805EB510E94E3114A
:100D700011F40E94DD1133C0A0916105A73049F440
:100D8000E0917805E9500E94E31111F40E94DD1111
:100D900026C0A0916105A83049F4E0917805EC5097
:100DA0000E94E31111F40E94DD1119C0A0916105A8
:100DB000A93029F4E0917805E0511E2F10C0E09190
:100DC0007805E35C6E2FA0916105E3E0EA9FF001F6
:100DD000E60F1E2FA0918C05A23009F4105EE09161
:100DE0006105E030A9F4A0917805A13009F410E282
:100DF000A0917805A23009F418E2A0917805A330FB
:100E000009F419E2A0917805A33011F40E94DD11D4
:100E10000E943A111083ABC20E94E811A0916505AF
:100E2000A23060F00E94F1118FD0A0916505A3302F
:100E300021F40E94F1110E94710E70C0AA2011F0DD
:100E4000CC2009F42CC00E945F110E94F611E2EB45
:100E5000F0E00E94FA100E940112E03061F00E945E
:100E60000112E05DE09313050E940612E093120563
:100E7000AA2DA4560AC00E940D12E03029F00E944B
:100E80000D12E05DE0931205AA2DEAE00E94E51341
:100E9000E05DE09311050E94F11156D03BC0AA20FD
:100EA00021F0E0916505E03009F030C00E945F114B
:100EB0000E94F61149D00E94F111E3ECF0E00E948B
:100EC000FA10E3E0E09323050E940112E03079F08C
:100ED0000E940112E05DE0931A050E940612E09361
:100EE0001905AA2D0E941212E09318050EC00E9447
:100EF0000D12E03029F00E940D12E05DE0931A051A
:100F0000AA2D0E941812E093190504C00E941D1218
:100F10000E94B50CE4E1F5E00E9424120E94281220
:100F20000E942B1201D008950E943012E0E0EA9353
:100F30000E94130FE881F981FA93EA93E0E4EA93BF
:100F40000E94130F249608951A930E943512E4ED1F
:100F5000F0E00E94FA1010E0E09179051E1728F4E5
:100F60000E94D811E081E03009F408C00E943A12D2
:100F70000E94D811E081EC931F5FEECF1881239679
:100F800008951A930A9311E0E0917905E11B0E94FC
:100F90004012E032B1F4E0917905E1500E2F0130BA
:100FA00058F0A02FB0E0A558BA4FE02FE1500E94B2
:100FB0004012EC930150F3CFE0E3E0937B051F5F19
:100FC000E3CFEA81EA930E94820C1981088123967B
:100FD00008950E948411E1E0E09379050E94451292
:100FE000E0938E05A0918E05A53011F4A2D108C022
:100FF0000E945112E5EEF0E00E94FA100E94561293
:101000000E947D11E2E00E945A120E946812E09351
:101010004B050E9472120E946812E0934C050E94D8
:1010200045120E946812E0934D05A0914D05A3362C
:1010300009F4A89AE0914D05E03009F4A898E4E09D
:10104000EA930E94950CE4E00E947E12E0934E0524
:101050000E948411E1E00E945A12E0938D05A09154
:101060008D05A53010F4E03009F41AC0E0918D052B
:10107000E150E0938D05E2B3E164E2BB02B2E0919E
:101080008D05E270E695AE2FE0918D05E170E29559
:10109000E07FEE0FEE0FEA2BE095E021E2BB09C006
:1010A000E2B3E164E2BB0E9451120E9485120E94E9
:1010B000FE100E9472128E2EE2E0E81540F4E1E08C
:1010C0008E2E0E9451120E9485120E94881208954D
:1010D0000E941C14E0E03E2F1E2FEAE0E093790509
:1010E0000E94EB10E0919905E03091F13F5F3A9357
:1010F0000E94950C00E020E0E09199052E1710F475
:10110000003009F011C0E22FF0E00F01E558FA4F6E
:10111000E081AE2FF001E157FA4FE081E05DEA1780
:1011200009F001E02F5FE8CF003061F411E0E22F19
:101130000E944012E13220F0A0919905AA3008F0F7
:1011400001C010E0333210F4103009F001C0CECFEE
:10115000313011F4103009F401C012E0323011F4D2
:10116000103009F401C013E0E12F0E9423142496EB
:1011700008950A921A92FA926A937A938A939A93AA
:10118000AA93BA93EA93FA93EFB7EA93689422F892
:10119000E0915905F0915A050E948C12EA0FFB1F4D
:1011A0000E949112552009F05A940E94961230978D
:1011B00051F00E94961231970E949B120E94961243
:1011C000309709F4C3D2992031F09A94992019F4F8
:1011D000689420F84424A0916505A23048F0A091BD
:1011E0009A05E6E50E94E513E03011F40E94A4039D
:1011F000E0919A05EF5FE0939A05E150A0919A057E
:10120000AA3F10F40C948B09E0919A05EA5FE093F1
:101210009A05689423F8CC2089F0CC2079F0CA9400
:10122000E0914E05E150EC1549F4E4E0E0936205ED
:10123000E2E0E81519F4E5E0EA9378D2E0919D0543
:10124000E03019F0E150E0939D05E0915005E03069
:1012500021F0A0915005A33608F008C0E091500598
:10126000E150E0935005E03009F4A898E091510571
:10127000E03081F0E4E0F0E00E941C11E5E0F0E0F5
:101280000E942111E0915105E150E0935105E1E008
:10129000EA934CD2E0915305E03099F0E2E0F0E0BF
:1012A0000E941C11E3E0F0E00E942111E09153053F
:1012B000E150E0935305E2E0E81519F4E3E0EA9326
:1012C00035D2E0916305E03021F0E0919C05E030FB
:1012D00009F00AC0E0916305E150E0936305E03056
:1012E00019F4E1E0E0936405E0919905E03021F420
:1012F000AA2011F420FE04C0E0916505E03009F059
:1013000007C0E0919C05EF5FE0939C05E15003C0AE
:10131000E0E0E0939C05E991EFBFF991E991B99183
:10132000A9919991899179916991F9901990099070
:1013300018951A93E0E4F0E0E093A005F093A1057E
:10134000E1E0E0937905EA930E94950CA0918E0567
:10135000A530D1F0A0917B05AF3F80F410E01436AA
:1013600060F4E0916300E87011F4B79B02C019913A
:10137000089500001F5F0C94AF0906C00E9451122F
:101380000E9485120E94FE10E7E0F0E00E941C110E
:10139000E8E0F0E00E9421110E94E8110E941D1275
:1013A0000E94B50C0E9428120E94F1110E94710E39
:1013B0000E942B120E949407E8EEF3E0FA93EA935E
:1013C0000E9499130E9441110E94F210E9EEF0E090
:1013D0000E94FA100E94FE1012E0113258F40E948E
:1013E0005112E7EAF0E00E94FA101A930E94820C70
:1013F0001F5FF3CF0E94EB100E94F210E4EFF0E0C9
:101400000E94FA100E94FE100E9458110E94F210D1
:10141000E5E0F1E00E94FA100E94FE100E947611B1
:10142000E2E0E093790511E0113228F5143660F41A
:10143000A12F0E94A012E0937B05A12F0E941812F9
:10144000E0937C05E0E210C0A12FE4E60E94C41303
:10145000E05DE0937B05A12FA4560E94A012E093CB
:101460007C05A12F0E941212E0937D051A930E9421
:10147000820C1F5FD9CF0E947D11E2E00E94A5126D
:10148000E6E1F1E00E94FA100E94FE100E94511263
:10149000E9E1F1E00E94FA100E9488120E945112C4
:1014A000ECE1F1E00E94FA100E9456120E945112E3
:1014B000E9E1F1E00E94FA10E4E0EA930E94820C74
:1014C0000E948411E1E00E94A5120E9485120E94F0
:1014D000FE100E9451120E9485120E9488120E94E2
:1014E0005112E5EEF0E00E94FA100E9456120E949E
:1014F0005F11E0E10E94A512EFE1F1E00E94FA1015
:101500000E94FE100E945112E0E3F1E00E94FA10E6
:101510000E9488120E945112E1E4F1E00E94FA1048
:101520000E94561214E0113258F40E945112E4ED58
:10153000F0E00E94FA101A930E94820C1F5FF3CF12
:10154000E0E0E0935D05E0935E05E1E0F0E00E94FD
:1015500021110E94E8110E941D120E94B50C0E94E8
:1015600028120E94F1110E94710E0E942B120E94FB
:10157000940719910895A881A13021F4A981BA8115
:10158000EC918EC0A881A23059F4A981BA81AC91A6
:10159000EAE0EA9FA981BA811196EC91E00D80C042
:1015A000A881A330B1F4A981BA81AC91E4E6EA9FA5
:1015B000F0016E2FA981BA811196AC91EAE0EA9F01
:1015C000F001E60F0E2EA981BA811296EC91E00D82
:1015D00067C0E0E065C01A9310E0103268F4E12FB4
:1015E0000E94A812E081A981EA1721F4E12FEF5FA0
:1015F00018819AC01F5FF1CFE0E0188195C0609715
:101600001A930A93DD240E945F11E0E1E0937905CB
:1016100011E0113288F51A930E94AC12E0E1EA93CE
:101620005AD0FE013296FA93EA932AD0E030D1F4F0
:101630000E94B312A1E0A08301E0013298F40A9362
:101640000E94AC122FD0E03059F00E94511218D0F5
:10165000E03031F40E94B312DF01EC91EF5FEC93C4
:101660000F5FEBCF0E94B312E081DE1618F40E94E8
:10167000B312D0801F5FCDCF198108816296089583
:101680001A9310E0103150F40E943A12AC91A0323B
:1016900019F0E0E0188104C01F5FF4CFE1E0188189
:1016A000239608951A9310E0103190F40E94B61218
:1016B000EC91E01518F4E1E018811CC00E94B6120C
:1016C000EC910E1618F4E0E0188114C01F5FECCF07
:1016D000E0E018810FC0E881E03061F0E150E8837C
:1016E000AB81BC810E94BD12E881A981BA810E94B0
:1016F000C212F1CF259608951A930E947611E2E066
:10170000E0937905E981EA930E94950CE9810E94B2
:101710007E121E2F113010F0113208F003C0E12F9D
:10172000188102C0E0E0188122960895882059F0BF
:10173000E881E0935B05E8EEF3E00E949B12EAE1AA
:10174000E0938A0001C002D021960895E0E0E09382
:101750005B050E94C9120895E0915B05E03011F429
:101760000C94810CE13061F40E94CE12A53DE3E0BF
:10177000BE0718F00E94D31202C00E94DD12B7C04B
:10178000E23071F40E94CE12A939E3E0BE0728F0DE
:10179000E0E8F2E00E94911202C00E94DD12A7C0B0
:1017A000E33071F40E94CE12AD3BE2E0BE0728F0B8
:1017B000E0E8F0E00E94911202C00E94DD1297C0A2
:1017C000E43001F50E94CE12A73EE3E0BE0718F018
:1017D0000E94D31216C00E94CE12AD3AE3E0BE07BB
:1017E00070F00E94E01219F40E94E71202C00E94F9
:1017F000EE120E94F41210F40E94D31202C00E9452
:10180000DD1275C0E53011F00C94770C0E94CE12F9
:10181000A73EE3E0BE0718F00E94D31268C00E9402
:10182000CE12AD3AE3E0BE0770F00E94E01219F468
:101830000E94E71202C00E94EE120E94F41210F4FD
:101840000E94D31254C00E94CE12A934E3E0BE0716
:1018500018F00E94C9124BC00E94CE12A734E3E0D8
:10186000BE0718F00E94D31242C00E94CE12AD30C3
:10187000E3E0BE0788F0EAE1E0938A000E94E0120C
:1018800019F40E94E71202C00E94EE120E94F412A4
:1018900010F40E94D3122BC00E94CE12A93AE2E0AB
:1018A000BE0718F00E94C91222C00E94CE12A73AA9
:1018B000E2E0BE0718F00E94D31219C00E94CE12B7
:1018C000AD36E2E0BE0788F0EAE1E0938A000E94CC
:1018D000E01219F40E94E71202C00E94EE120E9468
:1018E000F41210F40E94D31202C00E94DD12E091A3
:1018F0005605E0938700E0915505F0915605E09379
:10190000860008950E940313E09179051E1710F4D4
:10191000103108F009C00E9420130E94D811E08104
:101920000E9409141F5FF0CF18C00E940313E091BA
:1019300079051E1710F4103108F00BC00E94D81161
:101940000F010E9420130E94FD13D001EC931F5F32
:10195000EECF0E94D811A0E0A0830E942314259608
:101960000895959A0895959808951A93E0916505BC
:10197000E03011F00C943F0DEB81FC81309781F445
:101980000E943512E2E5F1E00E94FA10A981BA81C5
:101990001D96E1E0EC93A981BA811F96E2E0EC93F9
:1019A000AB81BC81119731F40E943512E3E6F1E07E
:1019B0000E94FA10AB81BC81129731F40E9435125B
:1019C000E3E7F1E00E94FA10AB81BC81139731F498
:1019D0000E943512E4E8F1E00E94FA10AB81BC816C
:1019E000149731F40E943512E5E9F1E00E94FA10F3
:1019F000AB81BC81159731F40E943512E6EAF1E023
:101A00000E94FA10AB81BC81179731F40E94351205
:101A1000E5E9F1E00E94FA10AB81BC81189731F43E
:101A20000E943512E7EBF1E00E94FA10AB81BC8115
:101A3000199731F40E943512E6ECF1E00E94FA1099
:101A4000AB81BC811A9731F40E943512E6EDF1E0CA
:101A50000E94FA10AB81BC811B9731F40E943512B1
:101A6000E6EEF1E00E94FA10AB81BC811C9731F4E4
:101A70000E943512E5EFF1E00E94FA10F7C0EB8109
:101A8000FC81309769F40E943512E3E0F2E00E9495
:101A9000FA1024FE02C0E2E001C0E7E0E09368052E
:101AA000AB81BC81129749F40E943512EFE0F2E05D
:101AB0000E94FA10E2E0E0936905AB81BC811397C4
:101AC00049F40E943512EDE1F2E00E94FA10E2E0E2
:101AD000E0936905AB81BC81149749F40E943512EB
:101AE000E9E2F2E00E94FA10E2E0E0936905AB81DE
:101AF000BC81119749F40E943512E5E3F2E00E949F
:101B0000FA10E2E0E0936905AB81BC81169749F4D5
:101B10000E943512E4E4F2E00E94FA10E2E0E09361
:101B20006905AB81BC81159749F40E943512E5E542
:101B3000F2E00E94FA10E2E0E0936905AB81BC811B
:101B4000179749F40E943512E5E6F2E00E94FA1078
:101B5000E2E0E0936905AB81BC81549749F40E94AF
:101B60003512E4E7F2E00E94FA100E942B138ED0A7
:101B7000AB81BC815E9731F40E943512E0E8F2E05F
:101B80000E94FA10AB81BC81989731F40E94351203
:101B9000E0E9F2E00E94FA10AB81BC811A9749F4A7
:101BA0000E943512E0EAF2E00E94FA100E942B1324
:101BB0006DD0AB81BC81DC9749F40E943512EBEA11
:101BC000F2E00E94FA100E942B1360D0AB81BC811E
:101BD000D29741F5A0917505A13031F40E943512DC
:101BE000E9EBF2E00E94FA10A0917505A23031F401
:101BF0000E943512E6ECF2E00E94FA10A091750501
:101C0000A33031F40E943512E6EDF2E00E94FA10A2
:101C1000A0917505A43031F40E943512E3EEF2E094
:101C20000E94FA10AB81BC81A634E0E0BE07F1F45B
:101C3000A0917505A13031F40E943512E0EFF2E079
:101C40000E94FA10A0917505A23031F40E9435125D
:101C5000E1E0F3E00E94FA10A0917505A33031F4A1
:101C60000E943512E2E1F3E00E94FA100E94351260
:101C70000E94E1101E2F103130F40E943A12E0E26F
:101C8000EC931F5FF8CF1881259608952497AE81B5
:101C9000A43650F40E94A012E983AE810E9418126B
:101CA000E883E0E0EA8311C0AE81E4E60E94C41359
:101CB000E05DEA83AE81A4560E94A012E983AE8162
:101CC0000E941212E883E0E0EB83EC81FD81FA933D
:101CD000EA93FE013296FA93EA930E94C710279680
:101CE00008951A930A9300E00830A0F50E942F137C
:101CF0001C91E02FAA81BB810E94BD120E94351366
:101D00000E94C2120E9435130E943A1310830E944F
:101D10002F13AC91A03E28F00E942F13AC91AB3F43
:101D200008F009C0E02FAA81BB810E943A13DF01AD
:101D3000EC91E054EC93103E10F01B3F08F008C00B
:101D40000E9435130E943A13DF01EC91E054EC93AA
:101D50000F5FCACF1981088181C00E943E130E9483
:101D60003E130E943E130E943E13E0E2EA938DD0A0
:101D7000E8E2EA9381D0E0E1EA937ED0ECE0EA93F6
:101D80007BD0E6E0EA9378D0E1E0EA9375D001D029
:101D90000895AA98AB98E8E4EA936ED00E944213A3
:101DA0000E9446130E944A130E9442130E9442134B
:101DB0000E9442130E9442130E944E130E9442133B
:101DC0000E9442130E9442130E944A130E9446132B
:101DD0000E9442130E944E130E9442130E94461317
:101DE000E1E1EA933DD00E944A130E944213E0E0F1
:101DF000EA9336D0E0E0EA9333D008950E941C14B1
:101E000030E0EC813E1758F400E010E00436E0E0EA
:101E10001E0718F40F5F1F4FF9CF3F5FF2CF0E94EC
:101E20002314259608951A93E981E058EA9324D063
:101E300010E0103120F40E945313E03009F406C082
:101E40000E945313EA930CD01F5FF3CF103128F494
:101E5000E0E2EA9305D01F5FF9CF18812496089538
:101E60000E945A13E4600E9464130E946813E460A5
:101E70000E946413AA9816C00E945A130E94641309
:101E80000E9468130E9464130DC0E5E0EA930E946B
:101E9000FE0EE5B3EF70E5BBE5B3AE2FE881E07F62
:101EA0000E946413219608951A9310E8AF9AEFE701
:101EB000E4BBAB9AAA9817FF10C0AF9A00000000CD
:101EC0000000A99A00000000000013B317FF13B32D
:101ED000AF98A9980AD00C945B0FEFEFE4BBE5B381
:101EE000EF70E5BBAB981991089500000000A99A26
:101EF000000000000000A9980000000008951A9357
:101F00001091A3050CD0E093A305103011F4E11754
:101F100011F4E0E002C0E091A305199108951A932D
:101F20000A93C69810E10E94711300E0043010F08B
:101F30000C94D90F14FF0CC0B29B02C0E1E031C079
:101F4000B39B02C0E2E02DC0B49B02C0E3E029C015
:101F500015FF0CC0B29B02C0E4E023C0B39B02C0DB
:101F6000E5E01FC0B49B02C0E6E01BC016FF0CC03A
:101F7000B29B02C0E7E015C0B39B02C0E8E011C00D
:101F8000B49B02C0E9E00DC017FF0EC0B29B02C0B7
:101F9000E8E107C0B39B02C0EAE003C0B49B04C001
:101FA000E1E1099119910895110F0E9471130F5FDA
:101FB000BDCFE3B1EF70E3B9C69A00E00E3120F473
:101FC00000000F5F0C94DE0FB29B02C0E5E10AC077
:101FD000B39B02C0E7E106C0B49B02C0E6E102C0C9
:101FE000C698E0E00991199108950E947813EA5F7C
:101FF0004E2EA881A93020F00E9478130E947F13F2
:10200000E881E17021F0E1E07E2EE88104C07724D0
:10201000A881A150EA2FE7700E9489130E949313B0
:10202000E095E121E3B9B19B02C020FE01C001C0EF
:10203000FACFE6E0E41510F420FE01C018C020FC41
:1020400004C088EC90E00197F1F70E949313E12916
:10205000E3B9B19902C020FE01C001C0FACF20FC53
:1020600004C088EC90E00197F1F74A94E2CF0E9417
:102070009313E095E121E3B94420D9F04A94B19952
:1020800002C020FE01C001C0FACF8AE991E00197A9
:10209000F1F7E42DA1E00E94A913E62121F00E94AE
:1020A0009313E12904C00E949313E095E121E3B961
:1020B000E3CF61C00E947813EA5F4E2EA881A93059
:1020C00020F00E9478130E947F13E881E17021F0D4
:1020D000E1E07E2EE88104C07724A881A150EA2F98
:1020E000E7700E9489130E949313E129E3B9B19923
:1020F00002C020FE01C001C0FACFE6E0E41510F4F2
:1021000020FE01C017C020FC03C085ED8A95F1F7C1
:102110000E949313E095E121E3B9B19B02C020FE38
:1021200001C001C0FACF20FC03C085ED8A95F1F70C
:102130004A94E3CF0E949313E129E3B94420D9F0F4
:102140004A94B19B02C020FE01C001C0FACF8CE2CC
:1021500091E00197F1F7E42DA1E00E94A913E62197
:1021600029F00E949313E095E12103C00E9493138C
:10217000E129E3B9E3CF219608955F9BFECFECB14F
:1021800008955D9BFECFE881ECB921960895E99111
:10219000F991A991B991CD016D916623E9F7119754
:1021A00061916D936623E1F7FC010895E991F9913E
:1021B000A991B991CD0105900D920020E1F7FC01A4
:1021C0000895A991B991EE27FF276D91662311F02B
:1021D0003196FBCF0895E1E4F0E0E093A005F093A1
:1021E000A1050895EAE0E0937905EBE7F5E0FA93BD
:1021F000EA930895FA93EA930C94D610E1E0EA93F7
:102200000C94820CE0E0E0939905AA240895E091F3
:102210004B05E0935105E1E0E09352050895E0E0BD
:10222000E0935D05E0935E05E1E0F0E0E0935F059B
:10223000F0936005E0E00895E0935D05F0935E059E
:102240000895E0935F05F09360050895EFE8F5E0E9
:10225000FA93EA93E0919905EA930C94BB0AE09112
:102260006605F0E0E659FA4F0895A0915D05B0913A
:102270005E050895E0917405E150F0E0E558FA4FED
:102280000895E5E5F0E0E093A005F093A105089539
:10229000E0937A05EAE0E09379050895E093650517
:1022A000E1E0E0937505E0937405E0937605089509
:1022B000EBE4F0E0E093A005F093A1050895E5E9D3
:1022C000F1E0E093A005F093A1050895E093650582
:1022D000E1E0E0937505E0937405E0E0E0938C05A0
:1022E000E0937805E1E0E09376050895E5E9F3E011
:1022F000E093A005F093A1050895E5EDF3E0E093E8
:10230000A005F093A1050895EDEDF3E0E093A0059D
:10231000F093A1050895E0917505EA930C94950C4E
:10232000E0937505E0E0E0936605E09365050895A8
:10233000E3E0E0936205E1E00895E5E0E093620503
:10234000E2E00895E0915D05F0915E050895E0E01A
:10235000E0936605E1E0E0936705E0E0E0935D056A
:10236000E0935E05E091670580DFF0E0EA0FFB1F78
:1023700068DFE0E0E0939905DBCFE0936205E1E000
:10238000EA930C94960BE09167056FDFF0E0EA0F9B
:10239000FB1F57CFE0917505EA930C94820CE1E0A6
:1023A000E0937405E0E0E0938C05E09378050895F0
:1023B000E12FF0E0E558FA4F0895E0917805EF5FDE
:1023C000E093780508951E2FA0917805A330089515
:1023D000B9DFFA93EA93E4E0F5E0FA93EA930C9418
:1023E000B50CE4E1F5E0FA93EA930895E0E1E093B7
:1023F0007905AA920E94950CE4E0F5E0FA93EA933D
:102400000895AA2DE4E60E94C4130895AA2DA456A7
:10241000EAE00E94C413E05D0895AA2DEAE00E945C
:10242000C4130895A456EAE00E94E513E05D089500
:10243000EAE00E94E513E05D0895E0915F05F09108
:102440006005FA93EA93CDCFFA93EA930C94710E58
:10245000E4E0F5E0F9CFE4E0F5E0FA93EA93C1CFE8
:10246000EA81FB81FA93EA930895E981FA81FA936C
:10247000EA930895A981BA81EE27A10FBE1F08959E
:10248000F0E0E558FA4FE0810895E3E0EA930E9416
:10249000950CE3E0EA930E94C107E0917B05EF70A1
:1024A0000895EBE7F5E0FA93EA930895E3E0EA9301
:1024B0000C94820CE0937905E1E0EA930E94950C7C
:1024C000E1E0EA930E94C107E0917B05EF70089577
:1024D000AE2FEAE0EA9FF001AE2FE0917C05EF70AD
:1024E000EA0F0895E2E0EA930E94950CE2E0EA9395
:1024F0000E94C107E0917B05EF700895EA930E9466
:10250000C107E0917B05EF70E3CFE7EEF0E072CE1C
:10251000E2E0EA930C94820CA0915505B091560527
:102520000895E0935505F09356050895E0915705F9
:10253000F09158050895E0935705F09358050895D4
:10254000EAE00E94C413E05D0895E0937905A9CF05
:10255000F0E0E85DFA4F08950E94950CFE01329676
:10256000FA93EA939ECFE12FE150F2CFAB81BC8189
:10257000EE27A10FBE1F0C907DCFF0E0EA0FFB1FEE
:102580000F010895F0E0AE0FBF1FEC91D001EC9366
:102590000895E0E0E0938A001B980895A091570504
:1025A000B09158050895E0916205F0E0ACE0B0E02C
:1025B0000E94BF13E058FF4FB4CFE1E0F0E0BBCF83
:1025C000EDDFE6E0F0E00E94E81330970895E0EDDB
:1025D000FFEFE0935905F0935A050895E0E0E0938A
:1025E0005905E0935A050895E0916205ED5FACE06E
:1025F000EA9FF001A0E80E94F913EA1B8DDFF0E0EA
:10260000AE17BF0708950E941C14EC81E093A20549
:10261000E1502E2F3327E091A005F091A105EF5F47
:10262000FF4FBF01E0917905D901F0E00E94BF138F
:10263000E60FF71FE0939E05F0939F0510E00895C5
:10264000A0919E05B0919F051196A0939E05B09311
:102650009F0511970895E0917505EA9301CFAA812E
:10266000BB81EE27A00FBE1F0895EFE0E01BAA81FB
:10267000BB810895F0E0EA0FFB1F0895E0E3EA93C1
:102680000C94450FE4E0EA930C94300FEEE0EA93EB
:102690000C94300FEFE1EA930C94300FE0E0EA93F2
:1026A0000E94300FEFCFAA81BB81EE27A10FBE1F82
:1026B000EC9108950E94540FE5B3EF70E5BBE5B3CC
:1026C000AE2FE881E07F0895EA2BE5BB0C94750FEF
:1026D000E5B3EF70E5BBE5B3AE2FE881E295E07FAF
:1026E0000895E3B1EF70E3B9E3B1E12BE3B90895E5
:1026F000A881A150EA2FE695E695E6950895EF5F4B
:10270000AE2FE8E0EA9FF001EF5FA881EA1BE883C3
:102710000895E695A1E00E94A913E095EF70EE0FF1
:10272000EE0F6E2E089513B0E72DA1E00E94A913BD
:102730000895E991F991309639F088EE93E0019788
:10274000F1F7A8953197C9F70895F195E195F04013
:102750000895EE230E2EEA2F19F0EE0F0A94E9F7F2
:102760000895FA9FF02DEB9FF00DEA9FE02DF10DFB
:1027700008956E2F6A9FF0016B9FF00D08952BD086
:10278000F0DF0EF4E2DF0895002498E0AA0F001CA9
:102790000E1A10F40E0E01C0A1609A95B9F7EA2F37
:1027A000A02D08950024112490E1AA0FBB1F001C46
:1027B000111C0E1A1F0A18F40E0E1F1E01C0A16074
:1027C0009A9599F7FD01D0010895DEDFEA2F08956B
:1027D000E9DFFD010895E894F7FF02C0B6DF6894D1
:1027E000B7FF06C0A095B095119600F8039400FAC3
:1027F00008951A2EAE2FE12D0895E199FECFFF9393
:10280000FFB7F894AEBBBFBBE09AEDB3FFBFFF913B
:102810000895E19B02C0A895FCCF9FB7F894AEBB8A
:10282000BFBBE09A8DB3E81719F0EDBBE29AE19ACD
:102830009FBF08955A934A933A932A931A930A93FF
:1028400008955D814C813B812A8119810881089519
:00000001FF
