:040000000C946604F2
:100004000C9400000C9400000C9400000C9400006C
:100014000C9400000C9400000C9400000C9400005C
:100024000C94FB100C9400000C9400000C94000041
:100034000C9400000C9400000C9400000C945B05DC
:100044000C9400000C9499040C9415050C94FF0472
:100054000C9400000C9400000C9400000C9400001C
:100064000C9400000C9400000C9400000C9400000C
:100074000C9400000C9400000C9400000C940000FC
:100084000C9400000C9400001027E80364000A009C
:100094000100001000011000010000000000000039
:1000A40031323334353620202020202020202020D7
:1000B4002000332E352E35302E3235300052696E05
:1000C400677320746F20617070203330200020EE3D
:1000D400F6ECF6EC20ECE3E9F8E4203330200044BD
:1000E40069616C7320746F2061707020333020005C
:1000F40020EEFAF7F9F820ECE3E9F8E420333020B5
:10010400004661696C20636F6E6E656374203330E2
:10011400200020ECE020EEE7E5E1F820E32720339F
:1001240030200043616C6C2074696D656F757420B8
:100134003330200020F9E9E7E420E4F1FAE9EEE4C1
:100144002033302000202053746172742074616C59
:100154006B2033302000E4FAE7EC20F9E9E7E420EF
:10016400E32720333020004170702033302020708A
:10017400726573732020202400E3E9F8E42033300F
:1001840020ECF6ECF6E5EC202400202020202020B2
:100194002020202020202020202000303330003058
:1001A40030310030393900303130003138300030EE
:1001B40032300031323300313233343536003235A7
:1001C40032353235003030300030303500303630A2
:1001D4000041706172742023312020202000E3E963
:1001E400F8E420233100417061727420233220200E
:1001F40020200041706172742023332020202000CD
:1002040020202020202020202020202020202020EA
:10021400000048656C6C6F2C2055736520202020ED
:10022400202000546F207365617263682061206E22
:10023400616D6500546865206C617463680069735E
:1002440020756E6C6F636B6564005761697420740C
:10025400696C6C00656E64206F662064656C6179FE
:1002640000202020726573657420646F6E652E2EE5
:100274002E004E6F20616E7377657200537973742C
:10028400656D206572726F7200436F6E6E65637484
:10029400656400506C656173652074616C6B004C1F
:1002A400696E65206973206275737900506C6561AD
:1002B400736520776169740053656E6465642020FA
:1002C4006E6F20230053656E64696E6720646F6EE1
:1002D400652E005265636569766564206E6F202320
:1002E400005265636569766520646F6E652E00460D
:1002F40061696C206F76657220746F2047534D00DE
:100304004E6F2047534D20756E69742E004E6F203A
:1003140047534D2063616C6C0053656E64656420C3
:100324006E616D65202300566F6C74616765206192
:10033400707020230050524F472E204D454E5500DB
:1003440041636365737320636F646573004D617308
:1003540074657220436F6465005573657220636F22
:1003640064650054656E616E74730052656C6179E6
:100374007320746F2041706172742E0054696D692A
:100384006E67732028736563290053657474696EFE
:1003940067730046572056657273696F6E73005019
:1003A400686F6E65730050686F6E65732067726F57
:1003B400757020320050686F6E65732067726F75B8
:1003C4007020330043616C6C20666F7277617264D5
:1003D400696E670050686F6E6520666F7220230037
:1003E40050686F6E65203220666F7220230050685B
:1003F4006F6E65203320666F7220230043616C6C3E
:1004040020666F72776172642300456E7465722092
:10041400636F6465202300536574206D6173746594
:100424007220636F64650053657420757365722070
:10043400636F646500456E746572206E616D65203E
:10044400230052656C617920746F2041702E230063
:1004540044656C61792054696D6500446F6F722046
:100464004F70656E696E6700496C6C756D696E617D
:1004740074696F6E004469616C2054696D65005441
:10048400616C6B2054696D6500446F6F7220494440
:100494002028317E342900536F756E64207479707E
:1004A400652028317E332900526573657420747980
:1004B40070652028317E3629004F464620616674D7
:1004C400657220756E6C6F636B00466F7263652096
:1004D40063616C6C2028307E31290053656E646939
:1004E4006E672070686F6E657300476574696E6728
:1004F4002070686F6E6573004465627567206D6F68
:1005040064652028307E312900576F726B206D6F2F
:1005140064652028317E3429004C43442046572EFC
:1005240056455200322D576972652046572E56455E
:100534005200F9ECE5ED2CE4F9FAEEF920E1202083
:1005440020200020ECE7E9F4E5F920E3E9E9F8E903
:10055400ED2E00F0E020ECF4FAE5E7202020202046
:10056400202020002020202020E0FA20E4E3ECFAE0
:100574002121212000F0E020E4EEFAEF20202020C9
:10058400202020202000202020ECF4FAE9E7FA20A3
:10059400E3ECFA2E2E2E00EEFAE1F6F220E0E9F476
:1005A400E5F12E2E2E00202020E0E9EF20EEF2F0DF
:1005B400E42020202000EEEEEEE9F820E4E3E52D2F
:1005C400E2E9E3E900202020E9F920EEF2F0E4205A
:1005D400202020002020F0E020ECE3E1F82E2E2E55
:1005E400200020E4F7E520E1F9E9EEE5F92000F93F
:1005F400E5E3F820EEF1F4F8202300F9E9E3E5F867
:1006040020E4F1FAE9E9ED00E4FAF7E1EC20EEF197
:10061400F4F8202300F7E1ECE420E4F1FAE9E9EE50
:10062400E400E4F2E1F8FA20F9E9E7E420F0EBF978
:10063400ECE400E7E9E9E2EF20ECE020EEE7E5E1B5
:10064400F800E7E9E9E2EF20ECE020EEE7E9E9E28F
:1006540000F9E5E3F820F9ED20E3E9F8E4202300CC
:10066400EEFAE720E1E3E9F8E4202300EEF1E3F811
:1006740020F9EEE5FA0020FAF4F8E9E820F8E0F9C8
:10068400E90020F8F9E9EEFA20E4F7E5E3E9ED0002
:100694002020F7E5E320E2E9F9E420002020F7E553
:1006A400E320ECF7E5E7200020F9EEE5FA20E4E3A7
:1006B400E9E9F8E9ED2000F0E9FAE5E120ECF4E9F4
:1006C40020E3E9F8E5FA0020E6EEF0E9ED2029F967
:1006D400F0E9E5FA282000E4E2E3F8E5FA20F4F092
:1006E400EC20E3ECFA00E2E9F8F1FA20FAE5EBF0A9
:1006F400E400E8ECF4E5F0E9ED20ECF4E920E3E9CA
:10070400F8E400EEF1F4F8E920E8ECF4E5EF203247
:1007140000EEF1F4F8E920E8ECF4E5EF203300EE24
:10072400F6E120E4F2E1F8FA20F9E9E7E400E8EC84
:10073400F4E5EF20ECE3E9F8E42000E8ECF4E5EF7D
:10074400203220ECE3E9F8E42000E8ECF4E5EF20C3
:100754003320ECE3E9F8E42000E4F2E1F8FA20F9CC
:10076400E9E7E420E327200020E4EBF0F120F7E5BB
:10077400E320230020E4EBF0F120F7E5E320E2E9B5
:10078400F9E4200020E4EBF0F120F7E5E320ECF7B6
:10079400E5E7200020E4EBF0F120F9ED202300F060
:1007A400E9FAE5E120ECE3E9F8E42023002020E67F
:1007B400EEEF20E4EEFAF0E4200020E6EEEF20F481
:1007C400FAE9E7FA20E3ECFA20002020E6EEEF2035
:1007D400FAE0E5F8E420002020E6EEEF20ECEEF26B
:1007E400F0E420002020E6EEEF20F9E9E7E4200021
:1007F400E6E9E4E5E920E3ECFA203120F2E32034F1
:1008040000E4E2E3F8FA20F6ECE9EC20302C312C99
:100814003200E0E9F4E5F120EBECECE92000F0E94A
:10082400FAE5F720ECE0E7F820F4FAE9E7E400EE73
:10083400F6E120E7E8E9F4FA20F9E9E7E400ECF965
:10084400E3F820E8ECF4E5F0E9ED00ECF7E1EC2066
:10085400E8ECF4E5F0E9ED00EEF6E120E8F1E8007B
:10086400E0E5F4EF20F4F2E5ECFA20F4F0EC00E239
:10087400E9F8F1FA20F4F0EC00E2E9F8F1FA20EEFC
:10088400EEE9F80001002D4E414E00494E460000AD
:10089400010002009E0004000400A0000100000505
:1008A400B50001000105B50001000205B500010015
:1008B4000305B50001000405B50001000505B500F8
:1008C40001003F0888080000F894EE27ECBBF1E033
:1008D400F5BFE5BFE0936C00F8E1F1BDE1BD8DE04B
:1008E400A2E0BB27ED938A95E9F780E090E1A0E0D0
:1008F400B1E0ED930197E9F7E4E9F8E0859195918A
:10090400009761F0A591B59105901590BF01F00194
:1009140005900D920197E1F7FB01F0CF8BBFEFEF4C
:10092400EDBFE0E1EEBFC0E0D5E00C9465050E94A8
:1009340061231A93AF93BF93EF93FF93AFB7AF9332
:1009440088241CB1E1E0E2BFE7B7E160E7BF44FC03
:1009540040C01030B1F1E0917A05F0E0E25FFA4F67
:100964001083E0910E05F0E03196A0917A05B0E095
:10097400AE17BF0794F0E7B7EE7FE7BF992011F4F5
:10098400E1E09E2E191511F4689401C0E89421F851
:10099400E0E14E2AE7EF4E2207C0A0917A05A1308C
:1009A40018F0E8E04E2A910EE0917A05EF5FE093AB
:1009B4007A05E0917A05F0E0E25FFA4FA0E0A083C7
:1009C40008C0E7EE4E22E0E0E0937A05E89421F8CF
:1009D4009924E0917A05F0E03396E134A0E0FA0737
:1009E4001CF0E0E0E0937A05AF91AFBFFF91EF9187
:1009F400BF91AF9119910C945405EA93EFB7EA9320
:100A0400AF93BF93EF93FF93AFB7AF9356981A98F2
:100A14009924EDEF4E228824AF91AFBFFF91EF915F
:100A2400BF91AF914CC00E946123AF93BF93EF93EA
:100A3400FF93AFB7AF93E091CB05E03029F1E0919C
:100A44007B05F0E03196A091CB05B0E0EA17FB07F7
:100A54001CF45598569A17C0E0917B05A091CB05DC
:100A6400EA1730F4992011F4E1E09E2E9CB806C0F8
:100A74000E9468239E0E0E946823ECB9E091CB0586
:100A8400EF5FE093CB0508C00E946823ECB9E091C6
:100A9400CB05EF5FE093CB05AF91AFBFFF91EF9133
:100AA400BF91AF91E991EFBFF991E991B991A99102
:100AB4001895EA93EFB7EA93E7B7EE7FE7BFE991BA
:100AC400EFBFE9911895EFE1E1BDEFE0E1BDE0E0B2
:100AD400EBBBEFEFEABBE0E8E8BBE1E2E7BBE0E059
:100AE400E5BBEFEFE4BBE0EDE2BB909AECE7E1BBE2
:100AF4008898E7E0E3B9EEEFE2B9E0E0E093620062
:100B0400EFEFE0936100ECE9E0936500E4E0E0934B
:100B14006400E7E0E3BFE0E0E0BFE1E0E2BFE0E083
:100B2400E1BFEFBDEEBDEDBDECBDEBBDEABDE9BD82
:100B3400E8BDE0937900E0937800E4BDEAEFE3BD1B
:100B4400EBE0E5BDE3E4E0938B00E0E0E0938A00B2
:100B5400E0938900E0938800E1E0E0938700E0E01F
:100B6400E0938600E0938500E0938400E0938300A3
:100B7400E0938200E0936A00EABFE9BFE7B7E06868
:100B8400E7BFE7B7E469E7BFE7B7EE7FE7BFE0E0B9
:100B9400E0937D00EBB9E8EDEAB9E6E0E093950077
:100BA400E9E1E9B9E0E0E0939000E0939B00E09391
:100BB4009A00E0939D00E0939900E0939800E0E8A8
:100BC400E8B9E0E0E0BD78940E94461A0E94BE1B9A
:100BD4000E946F23A091ED07A23378F4809906C098
:100BE400E091F407EF5FE093F40701C006C0E091E1
:100BF400ED07EF5FE093ED07EDCFA091ED07A23392
:100C040010F0E1E001C0E0E0E09306050E946F23EC
:100C14000E945D0FE0E0E0930805689422F8E894F0
:100C240021F8E3EBE0930408E7B7EE7FE7BF5598BC
:100C340031D2E8E3E0932E08C09AA8950E94CD141F
:100C4400E0916300E87051F4A091ED07A33328F418
:100C5400E091ED07EF5FE093ED0703C0E0E0E09380
:100C6400ED07A091ED07A23371F40E9475230E9451
:100C74007C23A4EAB0E00E948423E3E0E0930B0821
:100C8400A4E00E94B614E0916300E07111F087992A
:100C940004C0A0910705A03009F00AC0A091F40790
:100CA400A33328F4E091F407EF5FE093F40703C063
:100CB400E0E0E093F407A091F407A23339F40E9432
:100CC40089230E948E23E4E0E0930B08E091F60769
:100CD400E03021F4E091F707E03009F41BC00E94F2
:100CE4008923E0E0E093F707E091EF07E03049F073
:100CF4000E94C322E091EF07EF5FE093F8070E94A0
:100D04009D23E1E0E093F907E4E0E0930B08ABE016
:100D14000E943B17E091F807E03021F4E091F907D5
:100D2400E03009F412C0E0910705E03011F40E94AC
:100D3400A423E0E0E093F9070E94C522E091F207C2
:100D4400E03019F0A2E00E943B17E091EC07E0309C
:100D540031F0E0E0E093EC07E3E0E0930B08E0918E
:100D64000D08E03029F0E0E0E0930D080E94B02384
:100D7400BB20E1F4E5E0BE2E0E94FD1AE0930908D1
:100D8400E030A1F0E091F007E03021F0EF5FE09374
:100D9400F507A89A93D2E091F907E03021F4E091A5
:100DA4000705E03009F002C00E949D2341FC02C007
:100DB4000E94B21589D526FE05C0E89426F8E8E716
:100DC400E0932F0825FE3CC0E89425F8E091070540
:100DD400E03039F0E0912F08E03019F0E150E09371
:100DE4002F08E0913108E03059F1E150E0933108E7
:100DF400E03031F5E0913008E030D9F0E150E09393
:100E04003008E03091F4A0913208A03021F4A09190
:100E14000905A03009F004C0A6E00E943B1704C0F5
:100E24000E94461A0E94B72303C0A6E00E943B1703
:100E340007C00E94461AA1E00E94541A0E94B723D8
:100E4400A0912E08A23020F0A0910705A03009F04F
:100E540019C0E0912A08E03091F00E94BD23E630E9
:100E640070F40E94BD23CE2EAC2D0E948D14E03070
:100E740029F0AC2D0E948D14EB3F08F0CC24E0E067
:100E8400E0932A08E0912F08E03021F4A0910705AF
:100E9400A13008F403C015D014D003D1A0912D08BB
:100EA400AE3720F0A0910705A23008F404C0E0E0BA
:100EB400E0932D0834D024FEFECFE89424F8BDCE70
:100EC400FFCFE0910E08E03039F4E0E0E09307054D
:100ED400E89420F8E6D022C00E94C523E0910E08D1
:100EE400F0E0E05FF74FE081E0930F080E94CC232D
:100EF400EDE0F0E00E94D9270E94D123E0910F0891
:100F0400F0E0A0910708B0910808AE1BBF0BA093B6
:100F14000508B0930608E0E0E09368050895A09101
:100F24000705A53009F40895E0911E08E03049F062
:100F34000E94D623E081E0931F080E94D623AEE2EC
:100F440004C00E94D623A0911F08A083A0911E086C
:100F5400E1E0EA27E0931E080895E0E0E0932D081D
:100F64000E94CC235A9739F40E94DD23E5E00E94C5
:100F7400E4230E94EA230E94CC23979739F40E9429
:100F84007523E1E00E94E4230E94F5230E94CC2310
:100F9400D49739F40E940024E1E00E94E4230E94E3
:100FA400F5230E94CC231D9759F40E940724EAEFED
:100FB400E0936505EAE0E0935305E4E00E940E2423
:100FC4000E94CC23AE34E0E0BE0729F40E941E2424
:100FD400EAEF0E9425240E94CC23A134E0E0BE075E
:100FE40029F40E942C24E5E00E9425240E94CC23AD
:100FF400AB35E0E0BE0759F40E943324E9E0E09306
:101004006505E1E0E0935305E2E00E940E240E94AE
:10101400CC23A836E0E0BE0741F40E943A24E2E083
:101024000E944124E5E00E940E240E94CC23A238B1
:10103400E0E0BE0721F40E9447240E94EA230E94B4
:10104400CC23AF38E0E0BE0721F40E9447240E947D
:10105400EA230E94CC23AC39E0E0BE0721F40E94CD
:1010640047240E94EA230E94CC23A537E0E0BE0770
:1010740051F40E944F24E0E0E0936505E1E0E09341
:1010840053050E94F523E0916805E03011F00E94B9
:10109400562408950E94A4230E945A240E945D0F9E
:1010A40008950E94A4230E945A24E0E0E0932E08AD
:1010B400E0930A05E093EB0708951A93F2DFA091F9
:1010C4000908A53169F4E0E0E093EB07D394E091DB
:1010D400EA07ED1510F4E1E0DE2E0E946224EDC073
:1010E400A0910908A73169F4E0E0E093EB07E1E09F
:1010F400ED1518F0D090EA0701C0DA940E9462243A
:10110400DCC0A0910908A63109F046C0E0912A0884
:10111400E03041F00E94BD23EB3F20F40E94BD2348
:10112400E03011F4CC2081F1CC2019F40E94BD23CD
:10113400CE2EE1E0F0E0E0932B08F0932C08E89445
:1011440025F8E0E0E0930C080E94461AAC2D0E94BA
:101154008D14E13028F0AC2D0E948D14EB3F08F083
:101164000DC0A1E00E943B17E1E0E093EC07E091A1
:10117400FE07E093EB070E946C2403C0CC240E947A
:1011840071240E94B61404C00E9471240E94B614F3
:10119400E0E0E0932A0891C0A0910908A83109F081
:1011A40053C0E0E0E093EB070E94A6101E2F0E94BC
:1011B4007624309709F040C0113039F40E94892315
:1011C4000E948E230E946C2434C0123041F4A091FA
:1011D400F607A03021F4A091F807A03009F00BC065
:1011E4000E94461A689426F8E89420F80E94C523C1
:1011F4000E947B241EC0133041F4A091F607A03056
:1012040021F4A091F807A03009F00EC00E94461AFC
:10121400689426F8E1E0E093070520F8E0E0E09325
:101224000E080E947B2405C0E0E0E0932A080E9497
:1012340071240E94B61407C0E0E0E0932A080E94DB
:1012440071240E94B61439C0A0910908A13010F08D
:10125400AB3008F01FC00E946C240E94B614CC244A
:10126400DD24A0910908AA3019F4E0E0E09309080C
:10127400E0912A08F0E0EC5DF74FA0910908A08303
:10128400A0912A08A63028F4E0912A08EF5FE093A1
:101294002A0813C0A0910908A13179F4E0E0E09391
:1012A400EB07E0932A08E1E0E0930D080E946C2428
:1012B4000E94B614A2E00E943B1704C3E091070504
:1012C400E03029F4E3E0E0930C08F7DE17C1A091C5
:1012D4000705A13009F05CC0E8E7E0932F08A0916E
:1012E4000908A53181F4E0916605A0910F08EA1779
:1012F40011F4E1E003C0E0910F08EF5FE0930F0801
:101304000E948E2444C0A0910908A73179F4A091C9
:101314000F08A13019F4E091660503C0E0910F08AD
:10132400E150E0930F080E948E2431C0A091090877
:10133400A63139F5E0916705F0E03197A0910E08E8
:10134400B0E0AE17BF07DCF4E0910E08F0E0E05F18
:10135400F74FA0910F08A083E0910E08EF5FE09390
:101364000E08E1E0E0930F08A0910708B091080887
:10137400EDE00E94CE270E9495240E948E24EDDD8C
:1013840006C0A0910908A13111F49BDD94D5B0C029
:10139400E0911E08E03009F4C2DDE8E7E0932F088D
:1013A400A0910908A831F9F40E94CC231D9791F467
:1013B400E0911D08EF5FE0931D08E0E0E093200852
:1013C400E0915305A0911D08EA1718F4E1E0E093B9
:1013D4001D0808C0A0910705A33021F4E1E0E093C3
:1013E4001D088DD085C0A0910908A531C1F4A09134
:1013F4000705A53011F00E949A24E0916505A0919B
:101404006805AE1720F4E0916805EF5F01C0E1E0E4
:10141400E09368050E9456240E949E2469C0A0910E
:101424000908A731B9F4A0910705A53011F00E946D
:101434009A24A0916805A23020F0E0916805E1505B
:1014440002C0E0916505E09368050E949E240E9415
:1014540056244EC0A0910908A131A9F5A0911D08F8
:10146400A23048F0E0911D08E150E0931D08E0E04F
:10147400E093200827C00E949A240E9433240E94EB
:10148400A7240E94AD24E09323081BDDE0912308E8
:10149400E03019F016DD0FD515C00E943A240E94E1
:1014A400B424A0E10E943323E03061F00E94C324FD
:1014B400E6EBF0E0FA93EA93A0E10E943323A1E083
:1014C4000E94821B15C0A0910908A63189F00E94D0
:1014D400CC231D9711F44FD00BC0A0910705A53064
:1014E40009F40895A0911D08A13009F408D017D07B
:1014F400E3E0E0930B08A1E00E94B61408951A9368
:10150400E0911D08E1501E2FE09153051E1730F4A1
:101514000E94C824A0E2A0831F5FF6CFD3C1A0918C
:101524000908A13010F0AB3008F024C0A0910908DC
:10153400AA3019F4E0E0E09309080E94D623DF0101
:10154400E0910908E05DEC93E0911D08EF5FE09302
:101554001D08E0915305A0911D08EA1740F4E1E04D
:10156400E0931D08A0910705A43009F4C8DFE0E06A
:10157400E093200808951A93E0E0E0932108A091F5
:101584000908A13010F0AB3008F09CC1A091090803
:10159400AA3019F4E0E0E0930908E0910908A09169
:1015A4000A08EA1711F0E1E003C0E0912008EF5FB8
:1015B400E0932008E0910908E0930A08A09120082C
:1015C400A430C9F4A0910908A730A9F0A93021F0EA
:1015D400A0910605A13069F0A0910908A43041F05A
:1015E400A53031F0A93021F0A0910605A03009F012
:1015F40002C00E94CD24A0912008A63018F0E1E09A
:10160400E0932008A0912008A53029F4E09109086E
:10161400E05D1E2F54C1E0912108E03009F036C18D
:10162400A0910908A130B1F4A0912008A13009F4D7
:1016340017E2A0912008A23009F41DE2A09120082D
:10164400A33009F41EE2A0912008A33011F40E94F3
:10165400CD241CC1A0910908A230B9F4A0910605BB
:10166400A13021F4E0912008E05C07C0E091060578
:10167400E03021F4E0912008EE511E2FA0912008C3
:10168400A33011F40E94CD2401C1A0910908A33014
:10169400B9F4A0910605A13021F4E0912008ED5B96
:1016A40007C0E0910605E03021F4E0912008E15202
:1016B4001E2FA0912008A33011F40E94CD24E6C06F
:1016C400A0910908A43031F5A0910605A13049F490
:1016D400E0912008EA5B0E94D32411F40E94CD24F7
:1016E40018C0E0910605E030A1F4A0912008A130D3
:1016F40009F410EFA0912008A23009F41FEEA09184
:101704002008A33009F41EEEA0912008A43009F4A7
:101714001DEEBCC0A0910908A53031F5A0910605C5
:10172400A13049F4E0912008E75B0E94D32411F42E
:101734000E94CD2418C0E0910605E030A1F4A091E8
:101744002008A13009F419EEA0912008A23009F470
:101754001BEEA0912008A33009F41AEEA0912008F2
:10176400A43009F41CEE92C0A0910908A630B9F483
:10177400A0910605A13021F4E0912008E45B07C0A4
:10178400E0910605E03021F4E0912008EB511E2F92
:10179400A0912008A33011F40E94CD2477C0A09119
:1017A4000908A730B1F4A0910605A13029F4E0910D
:1017B4002008E15B1E2F0CC0E0910605E03041F4E7
:1017C400E0912008E9500E94D32411F40E94CD2412
:1017D4005DC0A0910908A83019F5A0910605A130B3
:1017E40029F4E0912008ED5A1E2F13C0E09106055C
:1017F400E03079F4A0912008A13009F416EFA0910B
:101804002008A23009F415EFA0912008A33009F4B0
:1018140017EFA0912008A33011F40E94CD2436C004
:10182400A0910908A93011F5A0910605A13029F469
:10183400E0912008EA5A1E2F18C0E0910605E03016
:10184400A1F4A0912008A13009F411EFA09120087F
:10185400A23009F412EFA0912008A33009F414EF88
:10186400A0912008A43009F413EF10C0E0912008DF
:10187400E35C6E2FE0910908A3E0EA02F001E60FB1
:101884001E2FA0912108A23009F4105EE0910908EE
:10189400E030A9F4A0912008A13009F410E2A0914D
:1018A4002008A23009F418E2A0912008A33009F41A
:1018B40019E2A0912008A33011F40E94CD240E94C3
:1018C400D6231083199108950E94D824A091070566
:1018D400A03011F0A13009F40AC0A0EEB5E00ED298
:1018E400A0910705A43011F40E94DF24F4C1CC2098
:1018F40021F0E091EB07E03009F4CFC00E94072407
:101904000E94E324E0910A05F0E03097A1F4A0914D
:101914000605A13029F40E94E924A1ECB0E008C036
:10192400E0910605E03031F40E94E924A2EDB0E034
:101934000E941A235FC0E130A0E0FA07A1F4A0914D
:101944000605A13029F40E94E924A3EEB0E008C002
:10195400E0910605E03031F40E94E924A4EFB0E000
:101964000E941A2347C0E430A0E0FA07A1F4A09132
:101974000605A13029F40E94E924A5E0B1E008C0DD
:10198400E0910605E03031F40E94E924A6E1B1E0DB
:101994000E941A232FC0E230A0E0FA07A1F4A0911C
:1019A4000605A13029F40E94E924A7E2B1E008C0A9
:1019B400E0910605E03031F40E94E924A8E3B1E0A7
:1019C4000E941A2317C0E530A0E0FA0799F4A09109
:1019D4000605A13029F40E94E924A9E4B1E008C075
:1019E400E0910605E03031F40E94E924AAE5B1E073
:1019F4000E941A230E94EE243097C1F0A09106059C
:101A0400A13049F40E94EE240E94F5240E94FA2495
:101A1400E093DF050AC0E0910605E03031F40E944E
:101A2400EE240E940F25E093DD0533C00E941425A7
:101A34003097C9F0A0910605A13049F40E941425FD
:101A44000E94F5240E941B25E093DE050BC0E09163
:101A54000605E03039F40E941425E05D0E94222539
:101A6400E093DD0516C0A0910605A13049F4E0E23B
:101A7400E093DD05AC2D0E941B25E093DE0509C033
:101A8400E0910605E03029F4E0E20E942225E0938B
:101A9400DD05A0EEB5E032D11AC1CC2021F0E091F1
:101AA4000705E03009F07CC00E9407240E94E3246B
:101AB400A0EDB5E023D1A0910605A13039F4E0EE04
:101AC400F5E0FA93EA93ABE6B1E00AC0E0910605CB
:101AD400E03041F4E0EEF5E0FA93EA93ADE7B1E0EB
:101AE4000E941A23E3E0E093EF050E94EE2430976E
:101AF40001F1A0910605A13089F40E94EE24E05D75
:101B0400E093E4050E9414250E942625E093E50550
:101B1400AC2D0E941B25E093E6050AC0E091060562
:101B2400E03031F40E94EE240E940F25E093DD059D
:101B340036C00E9414253097E1F0A0910605A1302B
:101B440059F40E941425E05DE093E405AC2D0E9455
:101B54001B25E093E5050CC0E0910605E03041F457
:101B64000E9414250E94F5240E941B25E093DE05A3
:101B740016C0A0910605A13049F4E0E2E093E40523
:101B8400AC2D0E941B25E093E50509C0E0910605F4
:101B9400E03029F4E0E20E942225E093DD0597C0BD
:101BA400E0910805E03009F490C0F0E0E130A0E0F5
:101BB400FA0749F4E9E0F0E00E949524EAE0F0E055
:101BC4000E94D12375C0E230A0E0FA0749F4EDE0A9
:101BD400F0E00E949524EEE0F0E00E94D12368C07A
:101BE400E630A0E0FA0749F4E9E0F0E00E94952429
:101BF400E4E1F0E00E94D1235BC0E730A0E0FA0703
:101C040049F4E3E1F0E00E949524E5E1F0E00E946C
:101C1400D1234EC0E430A0E0FA0791F4EFE0F0E005
:101C24000E949524E0910B05E03019F0EEE0F0E01D
:101C340002C0E0E1F0E0E0930708F093080838C040
:101C4400E530A0E0FA0791F4E1E1F0E00E94952488
:101C5400E0910C05E03019F0EEE0F0E002C0E2E1C2
:101C6400F0E0E0930708F093080822C0E830A0E011
:101C7400FA0791F4E6E1F0E00E949524E0910D0565
:101C8400E03019F0EEE0F0E002C0E0E1F0E0E093D3
:101C94000708F09308080CC0E930A0E0FA0741F403
:101CA400E7E1F0E00E949524E8E1F0E00E94D1230E
:101CB400E0E0E09308050E94D8240E942D250E94AC
:101CC400DF24E4E0E0930C0806C00E942D25A0EE7A
:101CD400B5E00E947A220E9437250E94E9240E94DE
:101CE4003B250895BA93AA930E943F2580C2BA93D4
:101CF400AA93552011F00E943F2579C2BA93AA9362
:101D04001A930E944D250E94522510E0E09153053C
:101D14001E1728F40E94C824E081E03009F408C0AA
:101D24000E9456250E94C824E081EC931F5FEECFE9
:101D3400188123960895AA930E94362811E030E072
:101D4400303039F500E0E09153050E1750F40E944D
:101D54005C25A081A03310F0AA3308F002C00F5F05
:101D6400F2CFE0915305E017A1F0E1500E2F0130BE
:101D740058F00E946125E02FF0E03197EC5AFA4FB9
:101D8400E081EC930150F3CFE0E3E09354051F5F4F
:101D9400D7CFAC810E94821B0E943D2825960895CE
:101DA400BA93AA936297E0E0E883E9830E94342817
:101DB40010E000E020E040E050E011E0E091650533
:101DC400E11708F474C0A895A12F0E949A1BA12FB3
:101DD400B2DF30E020E000E0E09153050E1750F44C
:101DE4000E945C25E081E03029F00E945C25A081FE
:101DF400A03209F419C0A8950E945C25A081A033E3
:101E040011F4303009F001C00DC031E0E22FF0E0F0
:101E1400DE011896AE0FBF1F0E945C25E081EF70B3
:101E2400EC932F5F0F5FD8CFE1E0F0E0EE83FF8308
:101E340040E050E001E02017E0F0A895A22FBB2776
:101E4400E02FF0E00E946625DE011896AE0FBF1F5A
:101E5400EC91F0E0AE81BF810E94C6274E0F5F1F58
:101E6400AE81BF81EAE00E94CE27EE83FF830F5F3D
:101E7400E2CFEA8DFB8DE417F50718F04A8D5B8DF0
:101E840009C0E88DF98D4E175F0718F0488D598DFC
:101E940001C00BC05A934A93A4E5B5E00E94C7223F
:101EA400A12F49DFA12F0E94821B1F5F87CF0E94B1
:101EB4003B286C9608951A93A89590D2A8950E94F1
:101EC4002C24E3E00E946B2579F4E0915505EF7032
:101ED400E43050F4E0915505EF70E33021F4E091E3
:101EE4005505EF7009F406C00E94C324AFE9B1E0C0
:101EF4000E9484230E947725E093EE070E948325A5
:101F040021F0E0E3E09354050FC0E0915505E07043
:101F140021F0E0915605E07009F409C00E94C32441
:101F2400A3EAB1E00E941A23A2E00E94821B0E944D
:101F34007725E093EF07A3E00E949A1B0E94AD244B
:101F440021F00E94C3240E948D250E947725E093EE
:101F5400F007A091F007A33609F4A89AE091F007DE
:101F6400E03009F4A8980E94942529F00E94C32423
:101F7400A7EAB1E008C0E0915505EF7049F40E946A
:101F8400C324ABEAB1E00E941A23A4E00E94821B9E
:101F9400E0915505F0E0EF70F070AAE0B0E00E9427
:101FA400D427DF01E0915605F0E0EF70F070EA0FFE
:101FB400FB1FE093FE07F093FF070E949E25E2308B
:101FC40060F4E13049F4E0915505EF70E83021F414
:101FD400E0915605EF7009F405C00E94C324AFEAEE
:101FE400B1E00EC0E0915405EF7029F4E09155057D
:101FF400EF70E23008F009C00E94C324A3EBB1E003
:102004000E941A23A5E00E94821B0E94A825EF705B
:10201400EA0FE093F1070E943324E1E00E946B256C
:10202400E0932208A0912208A53010F4E03009F4CE
:1020340006C0E0912208E150E093220806C00E9405
:10204400C324A5EAB1E00E9484230E948325AE2E16
:10205400E2E0EA1530F4E1E0AE2E0E94C3240E94CF
:10206400B9250E949425E093F207A091F207A230CB
:1020740058F0E1E3E0935405A4E00E94821BE09150
:102084005405EF70E093F207A9E00E949A1BA9E0BF
:1020940052DEE0915405E770E0930308A091030831
:1020A400A03011F0A53048F0E1E0E0930308E1E34B
:1020B400E0935405A9E00E94821B0E949E25E093B0
:1020C400F307A091F307A23058F0E1E3E09354053D
:1020D400A5E00E94821BE0915405EF70E093F307A2
:1020E4000E941E24E3E0E0935305EAEFE0936505C4
:1020F400E1E0F0E0FA93EA93AAEFB0E051DE11E0F8
:102104001B3F48F4A12F0E948D14F0E0EC50FA4FCD
:1021140010831F5FF5CFE0E0E0930705A5E00E9480
:102124003B17A4E00E943B1742D30E94A4230E94C1
:10213400D8240E942D250E9437250E94DF240E9466
:10214400E9240E943B25F0C20E943628E0E03E2F9D
:102154001E2FE6E0E09353050E947523E0912A08C0
:10216400E030B1F13F5FA32F0E949A1B00E020E012
:10217400E0912A082E1710F4003009F013C0E22F62
:10218400F0E0EC5AFA4FA081E22FF0E0EC5DF74F5B
:10219400E081F0E0F096B0E0EA17FB0709F001E017
:1021A4002F5FE6CF003071F411E0E22FF0E0EC5A3B
:1021B400FA4FA081A13220F0A0912A08A63008F09D
:1021C40001C010E0383010F4103009F001C0CACF5B
:1021D400313011F4103009F401C012E0323011F43E
:1021E400103009F401C013E0E12F0E943D28249629
:1021F40008950A921A92FA926A937A938A939A9316
:10220400AA93BA93EA93FA93EFB7EA93689424F8FB
:10221400E0910008F09101080E94C025EA0FFB1F1D
:102224000E94C525BB2009F0BA94E091FC07F09107
:10223400FD07309771F0ACEFB7E0ED91FD91319768
:10224400FE93EE93E091FC07F091FD07309709F4BB
:102254009CD3A0910705A23060F0A0912B08B09107
:102264002C08E6E5F0E00E94F127309711F40E9473
:102274009107ABE2B8E00E94CA25A0912B08B09167
:102284002C08AA3FE0E0BE0708F49AC0E0912B08AE
:10229400F0912C08EA5FF040E0932B08F0932C08AF
:1022A400689425F8E091EB07E03011F1E0E0E09369
:1022B4000C08E091EB07E150E093EB07E091FE0797
:1022C400F091FF073197A091EB07B0E0EA17FB0705
:1022D40041F4E4E0E0930B08E2E0EA1511F4A5E030
:1022E40043D3E091EB07E03019F4E1E0E0930D080B
:1022F400E091F507E03021F0A091F507A33608F04E
:1023040008C0E091F507E150E093F507E03009F4E7
:10231400A898E091F607E03091F0E0E0E0930C0833
:10232400E4E0F0E00E949524E5E0F0E00E94D1238F
:10233400E091F607E150E093F607A1E015D3E091B0
:10234400F807E03091F0E2E0F0E00E949524E3E049
:10235400F0E00E94D123E091F807E150E093F80700
:10236400E2E0EA1511F4A3E0FFD2E0910C08E030BA
:1023740041F0E0912E08E03021F4E0910705E030CF
:1023840009F00AC0E0910C08E150E0930C08E03039
:1023940019F4E1E0E0930D08E0912A08E03019F027
:1023A400A0E0CA1609F004C0E0910705E03009F086
:1023B40004C0E0912E08EF5F01C0E0E0E0932E0836
:1023C400E991EFBFF991E991B991A9919991899115
:1023D40079916991F9901990099018951A930E942E
:1023E4003A240E94B424A09153050E943323E03080
:1023F40029F50E9433240E94A724E0915405EF702C
:10240400E0932308E030D1F4A0915405AF3FB1F03C
:1024140010E0143698F4E0916300E87029F00E940B
:10242400C3240E94D02580C1B79B05C00E94C32449
:102434000E94D02579C100001F5FEBCFE7E0F0E0F8
:102444000E949524E8E0F0E00E94D1230E94D82461
:102454000E942D250E9437250E94DF240E94E92432
:102464000E943B25A8950E94D725A895A0912308F2
:10247400A130F9F0A23009F441C0A0912308A3309F
:1024840009F46DC0A0912308A43009F492C0A0916E
:102494002308A53021F4E0E0E09323080AC0A091CA
:1024A4002308A63009F4E3C0A0912308A73009F457
:1024B400E2C00E94DD23E6E0E0935305E5E0E0930B
:1024C40065050E946F1B0E94C324A7EBB1E00E9424
:1024D4008423E0912308E03009F0EEC00E947523C4
:1024E4000E947C23ABEBB1E00E9484230E94002471
:1024F4000E947C23A2ECB1E00E9484230E941E244B
:10250400E3E0E093530511E01B3F20F5A895143652
:1025140060F40E94DB25E05DE0935405A12F0E9446
:102524001B25E0935505E0E20EC0A12F0E94E22591
:10253400E09354050E94DB250E942625E09355056F
:10254400A12F0E941B25E0935605A12F0E94821BF8
:102554001F5FDACFE0912308E03009F0ADC0A89501
:102564000E942C24E3E00E94E925A9ECB1E00E943A
:1025740084230E94C324ADECB1E00E941A23A2E09C
:102584000E94EC250E948D250E94C324A3EBB1E098
:102594000E941A23A4E00E94EC25A1EDB1E00E9460
:1025A4001A23A5E00E94821BE0912308E03009F081
:1025B40083C0A8950E940724EAE0E0935305EAEF5C
:1025C400E09365050E946F1BA0910605A13029F4D4
:1025D4000E94C324A5EDB1E008C0E0910605E030F7
:1025E40031F40E94C324A2EEB1E00E941A23A1E0B8
:1025F4000E94821BA0910605A13029F40E94C324E5
:10260400AAEEB1E008C0E0910605E03031F40E9482
:10261400C324A2EEB1E00E941A23A2E00E94821B0E
:10262400A0910605A13029F40E94C324A7EFB1E0CC
:1026340008C0E0910605E03031F40E94C324A2EE04
:10264400B1E00E941A23A3E00E94821B14E01B3F06
:1026540050F4A8950E94C3240E945225A12F0E94E1
:10266400821B1F5FF4CFE0912308E03029F5E0914D
:102674002308E03009F5A8950E943324E1E00E9484
:10268400E925A5EAB1E00E9484230E94C3240E94A4
:10269400B9250E94C324A5EAB1E00E941A23A4E04C
:1026A4000E94EC25A5EAB1E00E941A23A5E00E944D
:1026B400821BA9E00E94821BA8950E943324E1E0BA
:1026C4000E94E925AFEBB0E00E941A23A6E00E9425
:1026D400821BA7E00E94821BA3E00E94821B0E942F
:1026E4003A24E0E1E0935305A1E00E949A1B0E9482
:1026F400C324A6EBB0E00E940623E03079F00E94E8
:10270400C324A6EBB0E00E948423E0E3E0935405E5
:10271400E0E0E0935505A2E00E94821BE0910705EA
:10272400E03011F4A3E0A5D319910895AA93A881E8
:10273400A13021F4A981BA81EC91B3C0A881A2305F
:1027440051F4A981BA81EC910E94EF25E981FA81C3
:10275400E181EA0FA6C0A881A33099F4A981BA81C6
:10276400EC91A4E6EA02602DE981FA81E181AAE014
:10277400EA02F001A62FAE0FE981FA81E281EA0FA5
:1027840090C0E0E08EC0AA931A9310E01A3F68F458
:10279400E12FF0E0E151F94FE081A981EA1719F442
:1027A400E12FEF5FDEC01F5FF1CFE0E0DAC02A97D0
:1027B4001A930A93E9E1F0E00E949524E4E0F0E042
:1027C4000E94D1230E94D8240E942D250E943725DF
:1027D4000E94DF240E94E9240E943B25E0E0E0936C
:1027E400EA070E940724EAE0E093530511E01B3F47
:1027F40008F03DC0A895A12F0E94F4250E94C3248F
:10280400AAE071D0DE01129636D0E030F1F40E94D5
:10281400FB25A1E0A08301E00B3FB0F4A895A02F15
:102824000E94F425A4E5B5E03ED0E03059F0A4E5DB
:10283400B5E021D0E03031F40E94FB25DF01EC91BA
:10284400EF5FEC930F5FE8CF04C00E94FB25A0E08C
:10285400A0830E94FB25A081E091EA07EA1728F4EF
:102864000E94FB25E081E093EA071F5FC0CF198136
:1028740008812C960895BA93AA931A9310E0103104
:1028840020F4E09153051E1708F009C00E94562554
:10289400AC91A03211F0E0E003C01F5FF0CFE1E0A3
:1028A400188123960895BA93AA931A9310E01031CD
:1028B40020F4E09153051E1708F012C00E9401266F
:1028C400EC91E01518F4E1E0188123C00E94012680
:1028D400EC910E1618F4E0E018811BC01F5FE7CFDF
:1028E400E0E0188116C0AA93E881E03091F0E1504D
:1028F400E883AB81BC81F0E0EA0FFB1F0F01E881A4
:10290400A981BA81F0E0AE0FBF1FEC91D001EC9326
:10291400EBCF25960895AA931A930E941E24E3E010
:10292400E0935305A9810E949A1BA9810E949D0EE0
:10293400A0915305A33019F40E94A82507C0E09183
:102944005405EF700E94EF25E0915505EF70EA0FF2
:102954001E2F113010F01B3F08F002C0E12F01C000
:10296400E0E0188122960895AA93AA2059F0E881FC
:10297400E0930208E8EEF3E00E940826EAE1E0931F
:102984008A0001C002D021960895E0E0E093020895
:102994000E940D260895E0910208E03009F4DFC09A
:1029A400F0E0E130A0E0FA0761F40E941226A53DB0
:1029B400E3E0BE0718F00E94172602C00E941F26FB
:1029C400C6C0E230A0E0FA0771F40E941226A939C9
:1029D400E3E0BE0728F0E0E8F2E00E94C52502C06B
:1029E4000E941F26B4C0E330A0E0FA0771F40E94ED
:1029F4001226AD3BE2E0BE0728F0E0E8F0E00E94DA
:102A0400C52502C00E941F26A2C0E430A0E0FA0738
:102A140011F50E941226A73EE3E0BE0718F00E94BB
:102A2400172618C00E941226AD3AE3E0BE0780F0D4
:102A34000E94222619F40E94292602C00E943026F0
:102A44000E9436260E94412610F40E94172602C0D6
:102A54000E941F267CC0E530A0E0FA0709F077C089
:102A64000E941226A73EE3E0BE0718F00E94172634
:102A74006EC00E941226AD3AE3E0BE0780F00E94C9
:102A8400222619F40E94292602C00E9430260E94A0
:102A940036260E94412610F40E94172658C00E9430
:102AA4001226A934E3E0BE0718F00E940D264FC099
:102AB4000E941226A734E3E0BE0718F00E941726EE
:102AC40046C00E941226AD30E3E0BE0798F0EAE16A
:102AD400E0938A000E94222619F40E94292602C04B
:102AE4000E9430260E9436260E94412610F40E943D
:102AF40017262DC00E941226A93AE2E0BE0718F05C
:102B04000E940D2624C00E941226A73AE2E0BE07C6
:102B140018F00E9417261BC00E941226AD36E2E070
:102B2400BE0798F0EAE1E0938A000E94222619F495
:102B34000E94292602C00E9430260E9436260E9446
:102B4400412610F40E94172602C00E941F26E0911D
:102B5400FB07E0938700E091FA07E093860008956D
:102B640044FE7DC1EFEE4E2221FE04C0E091070534
:102B7400E03009F070C1E2E0E515B1F4E0E0E09383
:102B8400BB050E9445260E944D26A0E10E944C23CD
:102B9400EAE6F5E0FA93EA930E9452260E94D725CA
:102BA4000E9445260E945226E89421F8E0E0E09332
:102BB4000C08E7B7EE7FE7BFE0E0E0930805E0919B
:102BC4000F05F0E0E033A0E0FA0771F4A0910905E5
:102BD400A13031F0A23021F0A53011F0A83019F461
:102BE4004BD4A6E046D137C1E035A0E0FA0709F09E
:102BF40064C0A0911005A734E9F5A0910905A63099
:102C0400C9F50E945626A0911105A63429F40E9404
:102C1400B723A6E047D42EC0E0910C05E030A1F024
:102C240050D42AD4E0910C05EF5FE0930C05A5E0A5
:102C340039D4A0910C05A13220F0E0E0E0930C051A
:102C440036C0A9E016D116C0E0910B05E03091F032
:102C540013D4E0910B05EF5FE0930B05A4E022D4BD
:102C6400A0910B05A13220F0E0E0E0930B051FC01A
:102C7400A7E0FFD0A0911005AE34F1F4A0910905AE
:102C8400A730D1F40E945626E0910D05E030A1F062
:102C9400F3D3E0910D05EF5FE0930D05A8E002D4B6
:102CA400A0910D05A13230F0E0E0E0930D05A6E01F
:102CB400E0D00895AAE0DDD0CEC0E934A0E0FA0760
:102CC40059F5A0911005A635D9F4A0910905A330B2
:102CD40019F4E0E0E0930905A3E0E4D30E943A2468
:102CE400E0E10E94E925E1E1F5E0FA93EA93A0919D
:102CF4000E05A2500E944C23A2E00E94821B0BC02E
:102D0400A0911005AD3439F4552029F0E0E0E093AA
:102D14000905A9E0C7D39DC0E334A0E0FA0709F090
:102D24004EC0A0910905A43019F4E0E0E093090530
:102D3400E0911305E053A4E6EA02602DE091110549
:102D4400E053AAE0EA02F001A62FAE0F0E945C262F
:102D540011F4E0E2CE2EEC2DF0E0EC50FA4FC080FE
:102D6400A0911005A13441F4E1E0E0930A05E0915B
:102D7400FE07E093EB0722C0A0911005A53439F4B7
:102D8400E2E0E0930A05E5E0E093EB0717C0A091C9
:102D94001005A63439F4E4E0E0930A05E5E0E09395
:102DA400EB070CC0A0911005A23411F4A2E005C0F9
:102DB400A0911005A73411F4A7E074D34AC0E435F8
:102DC400A0E0FA0731F5A0910905A43019F4E0E078
:102DD400E0930905E0911305E053A4E6EA02F0014B
:102DE400AE2FE0911105AE0FA053EAE0EA02F00124
:102DF400AE2F0E945C2611F4E0E2CE2EEC2DF0E022
:102E0400EC50FA4FC080E091F107E093EB07E5E066
:102E14001EC0E535A0E0FA07C9F4E091F607E030FA
:102E240021F4E091F807E03009F00FC00E94B023CC
:102E34000E949D23E091EE07EF5FE093F607E1E047
:102E4400E093F7070E946C248FDD03C0E7E0E09372
:102E54000A05A0E008D3E0E0E0937A0509C00E94E7
:102E6400632620F0A0913108A03009F001C00CD3F2
:102E74000895AA931A930A9310E000E0E0910705DD
:102E8400E03009F0ECC2E0913108E03011F441FE89
:102E940013C0A0913E08A93018F4AA81A03009F407
:102EA4000AC0E0913E08EF5FE0933E08F0E0ED5C7D
:102EB400F74FAA81A083D3C2AA81A630F1F4E0918E
:102EC4000905E03039F00E946926E081EA83E8943C
:102ED40027F812C00E94632610F0D6D2C0C2E0E0E8
:102EE400E0933008E0913D08EF5FE0933D08F0E0A7
:102EF400ED5CF74FE081EA8313C0E0910905E0300F
:102F040049F40E94632628F0BFD20E946926AA8150
:102F1400A08306C023FC04C00E946926E081EA83E2
:102F2400EA81E093320810E0F0E03097B1F410E069
:102F3400143040F4E12FF0E0E458FA4FA0E3A0830A
:102F44001F5FF6CFE0913008E03019F4E1E0E09340
:102F54003008E3E0E09331080BC2E130A0E0FA0767
:102F640009F041C0CC2011F48FD279C2E4E0E0939F
:102F74000905E0E0E0930A050E946F26A3E4A0831C
:102F84000E946F26A0E3A0830E946F26FF93EF9315
:102F94000E947526DF010E947A26AF91BF91EC93BF
:102FA4000E946F26FF93EF930E9475260E942625A8
:102FB400AF91BF91EC930E946F26FF93EF930E9411
:102FC4007526DF01E4E6F0E00E94EC27E05DAF91B6
:102FD400BF910E947F2619F4E2E0E0933008E6E016
:102FE400E0933108C5C1E230A0E0FA07D1F4E5E08E
:102FF4000E948426A3E4A0830E946F26A5E4A083F4
:103004000E946F26A0E3A0830E946F26A0E30E9483
:10301400872619F4E2E0E0933008E3E0E093310816
:10302400A7C1E330A0E0FA0791F4E2E00E9484260D
:103034000E948C260E948F26A2E50E94872619F4FE
:10304400E2E0E0933008E6E0E093310891C1E43037
:10305400A0E0FA0709F05CC0E2E00E9484260E9426
:103064008C260E948F26A0E5A0830E949226E091E0
:103074002208EF5CEC930E946F260E949826E4E6F7
:10308400F0E00E949E260E949826EAE0F0E00E946A
:103094009E260E949826EAE0F0E00E94F1270E9412
:1030A400A426BF01A091F1070E94E225DB01EC9365
:1030B4000E946F26BF01A091F107B0E00E947A261A
:1030C400DB01EC930E946F26BF01A091F1070E94DF
:1030D4001B25DB01EC930E949226E0910308EF701C
:1030E400E05DEC930E949226E091F307E170E05DCD
:1030F400EC930E949226EA2DE370E05D0E947F2605
:1031040019F4E2E0E0933008E3E0E093310830C1E1
:10311400E530A0E0FA0791F4E3E00E948426A9E4F4
:10312400A0830E946F26A6E50E94872619F4E2E098
:10313400E0933008E6E0E09331081AC1EB30A0E0F8
:10314400FA0791F4E8E00E948426A5E5A0830E9492
:103154006F26A1E30E94872619F4E2E0E093300889
:10316400E3E0E093310804C1E730A0E0FA0709F096
:103174008DC0E0910B05E03019F4E0E2E0930B051B
:10318400E6E00E9484260E948C260E94A8260E94C3
:103194008F26BF01A0910B050E94AB26BF01A09111
:1031A4000B050E941B25DB01EC930E944F240E9417
:1031B400B1260E946125EC91E03041F0FD01A0812F
:1031C400A03221F0E09153050E1708F008C00E94C8
:1031D40092260E945C25E081EC930F5FEACF0E9467
:1031E4006F260E94BA260E94B1260E946125EC91A6
:1031F400E03021F0FD01A081A03209F404C0E09187
:1032040053050E1708F008C00E9492260E945C2500
:10321400E081EC930F5FE9CF0E946F260E94BA26EB
:103224000E94B1260E946125EC91E03021F0FD015D
:10323400A081A03209F404C0E09153050E1708F0F0
:1032440008C00E9492260E945C25E081EC930F5FE7
:10325400E9CF0E946F260E94BA26E1E0E09353056D
:10326400A0910B050E949A1B0E946F26A091540501
:10327400A0830E946F26ACE70E94872619F4E2E03F
:10328400E0933008E6E0E093310872C0E930A0E052
:10329400FA0729F5E0910C05E03019F4E0E2E09337
:1032A4000B05E6E00E9484260E948C260E94A82634
:1032B4000E94A826BF01A0910C050E94AB26BF0165
:1032C400A0910C050E941B25DB010E947F2619F4A6
:1032D400E2E0E0933008E6E0E093310849C0EA30E8
:1032E400A0E0FA0709F044C0E0910D05E03019F4BC
:1032F400E0E2E0930D05E7E00E9484260E948C261C
:10330400AEE4A0830E946F260E948F26BF01A09185
:103314000D050E94AB26BF01A0910D050E941B253F
:10332400DB01EC930E940724EAE0E0935305A091AB
:103334000D050E949A1B00E00E945C25E081E030AC
:1033440021F0E09153050E1708F008C00E94922660
:103354000E945C25E081EC930F5FEECFE091300892
:10336400E03019F4E2E0E0933008E3E0E093310860
:1033740010937B05E12FF0E0E458FA4FA0E0A0831E
:103384007894E2E0E51509F05FC0E0E0E0930E0513
:10339400E093BB05EBEBF5E0FA93EA93EBE7F5E09A
:1033A400FA93EA93A6E00E944C23ABEBB5E00E94AB
:1033B40027237E2EE6E0E71508F47E2E0E94BD2624
:1033C400AEE2A0830E94BD26DF01E09109050E94C0
:1033D400C326DF01E0913D080E94C326DF01E0918E
:1033E4003E080E94C326BF01A09133080E94C7264D
:1033F400BF01A0913408B0E0EAE0F0E00E94F427B5
:10340400EF70E05DDB01EC930E94BD26BF01A0914B
:1034140032080E94C726AEE2A0830E94BD26A0E027
:10342400A0830E94BD26A0E0A0830E944D260E9496
:103434005226AAEFB0E00E94B827E0E0E093BB0573
:103444000E944D260E945226E0E0E093CB05992489
:103454001A9AE2E04E2AE0E0ECB95698559A19819E
:10346400088123960895AA930E94D126689423F88C
:10347400A881FFDC0C94531CE0E0E09309050E9452
:10348400D126E89423F80895E0E0E0933208442438
:10349400E89423F8E0933E08E0933D08EDDF609064
:1034A40009050895AA93E0E0E0930A05E0930C0867
:1034B400E093EB070E948923E881E09308050C94CC
:1034C400531C1A930A9316E000E00E944F240E94B2
:1034D400D7260E9452250E945C25A0E0A083E2E04A
:1034E400E51591F4E0E0F5E0FA93EA93AEE0B5E097
:1034F4000E94790E0E94D725E1E0F5E0FA93EA9361
:10350400A2E0B5E00E94790E0E94DF26A081AC37CC
:1035140021F0E09153050E1708F009C00E946125BF
:103524000E94DF26E081EC931F5F0F5FEDCF0E94C6
:103534005C25A0E0A083E2E0E51581F40E94C324A9
:10354400A3E0B5E00E94790E0E94D725E4E0F5E0FF
:10355400FA93EA93A5E0B5E00E94790E0E94DF2673
:10356400A081AC3709F41F5F0E94E4260E94D7268D
:103574000E9452250E945C25A0E0A0830E94DF26C1
:10358400A081AC3721F0E09153050E1708F003C079
:103594000E94E926F3CF0E945C25A0E0A0830E944C
:1035A400DF26A081AC3709F41F5F0E94E4260E9445
:1035B400D7260E9452250E945C25A0E0A0830E9489
:1035C400DF26A081AC3721F0E09153050E1708F0F7
:1035D40003C00E94E926F3CF0E945C25A0E0A083EB
:1035E4000E94DF26A081AC3709F41F5FA0910C056F
:1035F4000E94821B6FC01A93109169050DD0E0934D
:103604006905103011F4E11719F4E0E00C94731C0F
:10361400E09169050C94731C1A930A93C69810E1FF
:103624000E94F72600E00430E8F514FF0CC0B29BBA
:1036340002C0E1E04FC0B39B02C0E2E04BC0B49BC8
:1036440002C0E3E047C015FF0CC0B29B02C0E4E037
:1036540041C0B39B02C0E5E03DC0B49B02C0E6E0BC
:1036640039C016FF0CC0B29B02C0E7E033C0B39B65
:1036740002C0E8E02FC0B49B02C0E9E02BC017FFF2
:103684000CC0B29B02C0E8E125C0B39B02C0EAE0D3
:1036940021C0B49B02C0E1E11DC0110F0E94F726B6
:1036A4000F5FC1CFE3B1EF70E3B9C69A00E00E310A
:1036B40018F400000F5FFBCFB29B02C0E5E10AC023
:1036C400B39B02C0E7E106C0B49B02C0E6E102C0BE
:1036D400C698E0E00991199108951A930E94C324B1
:1036E400A4E0B2E00E941A2311E0E0916505E1171D
:1036F40028F0A895A12F04D01F5FF7CF0C94731C5A
:103704000E94FE2610E0E09153051E1710F41031BC
:1037140008F00DC0AEE4B5E00E94CA253197DF0180
:103724000E94C824E0810E9423281F5FECCF72C04E
:103734000E94FE260E94C324A4E0B2E00E941A2341
:1037440010E0E09153051E1710F4103108F00FC07B
:103754000E94C8240F01AEE4B5E00E94CA25319747
:10376400DF010E941728D001EC931F5FEACF0E946B
:10377400C824A0E0A0834EC0A0E387D0A0E385D0F6
:10378400A0E383D0A0E381D0A0E27FD0A8E276D0EA
:10379400A0E174D0ACE072D0A6E070D0A1E06ED00D
:1037A40001D00895AA98AB98A8E468D0A4E00E9438
:1037B4001B270E9420270E942627A0E052D00E94A7
:1037C4002627A4E04ED0AFE10E941B27A4E049D0F5
:1037D400A0E047D0A4E045D0A4E00E941B27A1E1CB
:1037E40040D00E942027A0E03CD0A0E03AD0089529
:1037F400AA930E94362830E0EC813E1758F400E08A
:1038040010E00436E0E01E0718F40F5F1F4FF9CFF5
:103814003F5FF2CF0E943D2825960895AA931A93FC
:10382400A981A0582BD010E0103140F4AA81BB81AB
:10383400EE27A10FBE1FEC91E03009F409C0AA8164
:10384400BB81EE27A10FBE1FAC910BD01F5FECCF45
:10385400103120F4A0E205D01F5FFACF188124961E
:1038640008950E942F27E4600E943A270E943E2771
:10387400E07FE4600E943A27AA9813C00E942F2791
:103884000E943A270E943E2709C0AA93A5E0B0DF10
:10389400E5B3EF70E5BBE5B3AE2FE881E07F0E94AE
:1038A4003A27219608951A9310E8AF9AEFE7E4BBFC
:1038B400AB9AAA9817FF0FC0AF9A0000000000004F
:1038C400A99A00000000000013B317FF13B3AF98C8
:1038D400A99809D0EFCFEFEFE4BBE5B3EF70E5BBF8
:1038E400AB981991089500000000A99A0000000007
:1038F4000000A998000000000895BA93AA931A93AF
:10390400A0910605A13009F0C9C2E0910705E03095
:1039140009F024C1EB81FC81309739F40E944D25D4
:10392400A6E1B2E00E94462718C1E130A0E0FA0700
:1039340039F40E944D25A7E2B2E00E941A230DC17A
:10394400E230A0E0FA0739F40E944D25A8E3B2E082
:103954000E941A2302C1E330A0E0FA0739F40E945E
:103964004D25A2E4B2E00E941A23F7C0E430A0E09F
:10397400FA0739F40E944D25AEE4B2E00E941A23FE
:10398400ECC0E530A0E0FA0739F40E944D25A8E523
:10399400B2E00E941A23E1C0E730A0E0FA0739F44C
:1039A4000E944D25AEE4B2E00E941A23D6C0E8304E
:1039B400A0E0FA0739F40E944D25A5E6B2E00E9482
:1039C4001A23CBC0E930A0E0FA0739F40E944D2550
:1039D400A6E7B2E00E941A23C0C0EA30A0E0FA07CA
:1039E40039F40E944D25A0E8B2E00E941A23B5C024
:1039F400EB30A0E0FA0739F40E944D25ADE8B2E0BF
:103A04000E941A23AAC0EC30A0E0FA0739F40E94FD
:103A14004D25A7E9B2E00E941A239FC0ED30A0E033
:103A2400FA0739F40E944D25A3EAB2E00E941A2352
:103A340094C0EE30A0E0FA0739F40E944D25A0EBC3
:103A4400B2E00E941A2389C0EF30A0E0FA0789F49B
:103A54000E944D25ACEBB2E00E941A23E0910B05C5
:103A6400E03011F0E15001C0E0E2EA930E945327F4
:103A740074C0E031A0E0FA0739F40E944D25A9ECA6
:103A8400B2E00E941A2369C0E131A0E0FA0789F488
:103A94000E944D25A7EDB2E00E941A23E0910C0587
:103AA400E03011F0E15001C0E0E2EA930E945327B4
:103AB40054C0E231A0E0FA0739F40E944D25A5EE86
:103AC400B2E00E941A2349C0E331A0E0FA0739F4B6
:103AD4000E944D25A3EFB2E00E941A233EC0E431B8
:103AE400A0E0FA0739F40E944D25A4E0B3E00E9457
:103AF4001A2333C0E531A0E0FA0739F40E944D25BA
:103B0400A1E1B3E00E941A2328C0E631A0E0FA073D
:103B140089F40E944D25ADE1B3E00E941A23E0919F
:103B24000D05E03011F0E15001C0E0E2EA930E949B
:103B3400532713C0E731A0E0FA0749F40E944D254A
:103B4400ABE2B3E00E9457270E945D2706C0E8312C
:103B5400A0E0FA0711F40E9463279FC1EB81FC8166
:103B6400309761F40E944D25A9E3B3E00E948B27AE
:103B740010F0E2E001C0E8E0E0936605AB81BC81AF
:103B8400129731F40E944D25A4E4B3E00E949227D9
:103B9400AB81BC81139731F40E944D25A1E5B3E0BC
:103BA4000E949227AB81BC81149731F40E944D2569
:103BB400ADE5B3E00E949227AB81BC81119731F44B
:103BC4000E944D25A7E6B3E00E949227AB81BC81F9
:103BD400169731F40E944D25AFE6B3E00E94922778
:103BE400AB81BC81159731F40E944D25A0E8B3E068
:103BF4000E949227AB81BC81179731F40E944D2516
:103C0400AEE8B3E00E949227AB81BC81189731F4EF
:103C14000E944D25A7E9B3E00E949227AB81BC81A5
:103C24001A9731F40E944D25A3EAB3E00E9492272B
:103C3400AB81BC811B9731F40E944D25AAEAB3E005
:103C44000E949227AB81BC811C9731F40E944D25C0
:103C5400A9EBB3E00E949227AB81BC81199731F4A0
:103C64000E944D25A8ECB3E00E949227AB81BC8151
:103C7400A238E0E0BE0731F40E944D25A8EDB3E080
:103C84000E949827AB81BC81AF38E0E0BE0731F4D5
:103C94000E944D25A4EEB3E00E949827AB81BC811D
:103CA400AC39E0E0BE0731F40E944D25A2EFB3E049
:103CB4000E949827AB81BC81A537E0E0BE0731F4B0
:103CC4000E944D25A0E0B4E00E949827AB81BC81FE
:103CD4005A9731F40E944D25AEE0B4E00E94982733
:103CE400AB81BC81979731F40E944D25ABE1B4E0E0
:103CF4000E941A23AB81BC81D49731F40E944D25D4
:103D0400ABE2B4E00E941A23AB81BC811D9731F46D
:103D14000E944D25A9E3B4E00E949827AB81BC81A1
:103D2400AE34E0E0BE0731F40E944D25A6E4B4E0D1
:103D34000E949827AB81BC81A134E0E0BE0791F5D5
:103D4400A0916805A13031F40E944D25A4E5B4E0AA
:103D54000E941A23A0916805A23031F40E944D25D7
:103D6400AFE5B4E00E941A23A0916805A33031F4B2
:103D74000E944D25ACE6B4E00E941A23A091680588
:103D8400A43031F40E944D25A9E7B4E00E941A231F
:103D9400A0916805A53031F40E944D25A3E8B4E054
:103DA4000E941A23AB81BC81AB35E0E0BE0709F069
:103DB4005AC0A0916805A13031F40E944D25ADE8A8
:103DC400B4E00E941A23A0916805A23031F40E9445
:103DD4004D25ABE9B4E00E941A23A0916805A330F5
:103DE40031F40E944D25ACEAB4E00E941A23A0915C
:103DF4006805A43031F40E944D25ADEBB4E00E9477
:103E04001A23A0916805A53031F40E944D25AEEC2B
:103E1400B4E00E941A23A0916805A63031F40E94F0
:103E24004D25AFEDB4E00E941A23A0916805A73098
:103E340031F40E944D25AEEEB4E00E941A23A09105
:103E44006805A83031F40E944D25ACEFB4E00E941F
:103E54001A23A0916805A93031F40E944D25ADE0E4
:103E6400B5E00E941A23AB81BC81A836E0E0BE070E
:103E7400A1F4A0916805A13031F40E944D25ADE173
:103E8400B5E00E941A23A0916805A23031F40E9483
:103E94004D25A8E2B5E00E941A23D2C2E09106059E
:103EA400E03009F0CDC2E0910705E03009F029C106
:103EB400EB81FC81309739F40E944D25A6E3B5E0EF
:103EC4000E9446271DC1E130A0E0FA0739F40E94A0
:103ED4004D25A7E4B5E00E941A2312C1E230A0E008
:103EE400FA0739F40E944D25A7E5B5E00E941A238C
:103EF40007C1E330A0E0FA0739F40E944D25A8E693
:103F0400B5E00E941A23FCC0E430A0E0FA0729F4CB
:103F14000E944D250E949E27F3C0E530A0E0FA07D9
:103F240039F40E944D25AAE8B5E00E941A23E8C09E
:103F3400E730A0E0FA0729F40E944D250E949E274D
:103F4400DFC0E830A0E0FA0739F40E944D25ABE960
:103F5400B5E00E941A23D4C0E930A0E0FA0739F48E
:103F64000E944D25AAEAB5E00E941A23C9C0EA308E
:103F7400A0E0FA0739F40E944D25AAEBB5E00E94AF
:103F84001A23BEC0EB30A0E0FA0739F40E944D2595
:103F9400A9ECB5E00E941A23B3C0EC30A0E0FA0704
:103FA40039F40E944D25A8EDB5E00E941A23A8C05B
:103FB400ED30A0E0FA0739F40E944D25A6EEB5E0F5
:103FC4000E941A239DC0EE30A0E0FA0729F40E9453
:103FD4004D250E949E2794C0EF30A0E0FA0789F493
:103FE4000E944D25A3EFB5E00E941A23E0910B0532
:103FF400E03011F0E15001C0E0E2EA930E9453275F
:104004007FC0E031A0E0FA0739F40E944D25AFEFFC
:10401400B5E00E941A2374C0E131A0E0FA0789F4E4
:104024000E944D25ACE0B6E00E941A23E0910C05F5
:10403400E03011F0E15001C0E0E2EA930E9453271E
:104044005FC0E231A0E0FA0739F40E944D25A9E1EE
:10405400B6E00E941A2354C0E331A0E0FA0739F411
:104064000E944D25A6E2B6E00E941A2349C0E4311D
:10407400A0E0FA0739F40E944D25A7E3B6E00E94B8
:104084001A233EC0E531A0E0FA0739F40E944D2519
:10409400A6E4B6E00E941A2333C0E631A0E0FA0792
:1040A40089F40E944D25A5E5B6E00E941A23E0910B
:1040B4000D05E03011F0E15001C0E0E2EA930E9406
:1040C40053271EC0E731A0E0FA0749F40E944D25AA
:1040D400A4E6B6E00E9457270E945D2711C0E8318C
:1040E400A0E0FA0719F40E9463270AC0E931A0E0AE
:1040F400FA0731F40E944D25A0E7B6E00E941A2386
:104104009FC1EB81FC81309761F40E944D25AAE7A1
:10411400B6E00E948B2710F0E2E001C0E8E0E093F3
:104124006605AB81BC81129731F40E944D25A6E847
:10413400B6E00E949227AB81BC81139731F40E94B0
:104144004D25A4E9B6E00E949227AB81BC81149767
:1041540031F40E944D25A0EAB6E00E949227AB817B
:10416400BC81119731F40E944D25ACEAB6E00E945F
:104174009227AB81BC81169731F40E944D25ABEB9D
:10418400B6E00E949227AB81BC81159731F40E945E
:104194004D25ABECB6E00E949227AB81BC8117970A
:1041A40031F40E944D25ABEDB6E00E949227AB811D
:1041B400BC81189731F40E944D25AAEEB6E00E9406
:1041C4009227AB81BC811A9731F40E944D25A6EF4A
:1041D400B6E00E949227AB81BC811B9731F40E9408
:1041E4004D25A7E0B7E00E949227AB81BC811C97C4
:1041F40031F40E944D25A5E1B7E00E949227AB81DE
:10420400BC81199731F40E944D25A3E2B7E00E94C6
:104214009227AB81BC81A238E0E0BE0731F40E9452
:104224004D25A2E3B7E00E949827AB81BC81AF384B
:10423400E0E0BE0731F40E944D25AFE3B7E00E94F1
:104244009827AB81BC81AC39E0E0BE0731F40E9411
:104254004D25AEE4B7E00E949827AB81BC81A53719
:10426400E0E0BE0731F40E944D25ADE5B7E00E94C1
:104274009827AB81BC815A9731F40E944D25ACE656
:10428400B7E00E949827AB81BC81979731F40E94D4
:104294004D25A8E7B7E00E941A23AB81BC81D497CF
:1042A40031F40E944D25A8E8B7E00E941A23AB819F
:1042B400BC811D9731F40E944D25A8E9B7E00E9406
:1042C4009827AB81BC81AE34E0E0BE0731F40E9494
:1042D4004D25A3EAB7E00E949827AB81BC81A134A5
:1042E400E0E0BE0791F5A0916805A13031F40E9489
:1042F4004D25A1EBB7E00E941A23A0916805A230D6
:1043040031F40E944D25AEEBB7E00E941A23A09130
:104314006805A33031F40E944D25AEECB7E00E944D
:104324001A23A0916805A43031F40E944D25ABED09
:10433400B7E00E941A23A0916805A53031F40E94C9
:104344004D25A8EEB7E00E941A23AB81BC81AB35A2
:10435400E0E0BE0709F05AC0A0916805A13031F42D
:104364000E944D25A4EFB7E00E941A23A09168058E
:10437400A23031F40E944D25A5E0B8E00E941A2332
:10438400A0916805A33031F40E944D25A6E1B8E060
:104394000E941A23A0916805A43031F40E944D258F
:1043A400A2E2B8E00E941A23A0916805A53031F476
:1043B4000E944D25A3E3B8E00E941A23A09168054A
:1043C400A63031F40E944D25A2E4B8E00E941A23DD
:1043D400A0916805A73031F40E944D25AFE4B8E000
:1043E4000E941A23A0916805A83031F40E944D253B
:1043F400ACE5B8E00E941A23A0916805A93031F415
:104404000E944D25A4E6B8E00E941A23AB81BC812A
:10441400A836E0E0BE07A1F4A0916805A13031F40C
:104424000E944D25A3E7B8E00E941A23A0916805D5
:10443400A23031F40E944D25ADE7B8E00E941A2362
:10444400A981BA810E9427231E2F103130F40E94C3
:104454005625E0E2EC931F5FF8CF18812596089566
:10446400BA93AA932497A0910605A130D9F4AE81FA
:10447400A43650F40E94A227E883AE810E941B2533
:10448400E983E0E0EA830DC0AE810E94E225E8837F
:10449400AE81B0E00E947A260E94AA27EA83E0E077
:1044A400EB831CC0E0910605E03001F5AE81A43633
:1044B40040F40E94A2270E94AA27E883E0E0EA834E
:1044C4000DC0AE810E94E225EA83AE81B0E00E9475
:1044D4007A260E94AA27E883E0E0EB83EC81FD8141
:1044E400FA93EA93DE0112960E94F5222796089524
:1044F400BA93AA931A930A93A0910605A130E9F1FD
:1045040000E00830D0F50E94AD271C91E02FAA816D
:10451400BB81F0E0EA0FFB1FBF010E94B327AA8111
:10452400BB81AE0FBF1FEC91DB01EC930E94B3275C
:10453400AA81BB81EA0FFB1F10830E94AD27AC91B7
:10454400A03E28F00E94AD27AC91AB3F08F005C017
:104554000E94AD27EC91E054EC93103E10F01B3F09
:1045640008F009C00E94B327AA81BB81AE0FBF1F08
:10457400EC91E054EC930F5FC4CF19810881249629
:104584000895959A089595980895BA93AA93A99130
:10459400B991E991F99130962AF4E095F095319624
:1045A4006DE26D93E89480E197E20DD088EE93E09C
:1045B4000AD084E6992707D08AE005D06E2F10D060
:1045C40066276C9308956627E817F90720F063952A
:1045D400E81BF90BC9F7662311F416F008956894E3
:1045E400605D6D930895BA93AA93E991F991A991A5
:1045F400B991CD016D916623E9F7119761916D939E
:104604006623E1F7FC010895BA93AA93E991F9911D
:10461400A991B9911D900590011421F40020D1F7BE
:10462400EE2708951018E1F3E1E008F4E25008954C
:10463400BA93AA93E991F991A991B991CD01059001
:104644000D920020E1F7FC010895BA93AA93A99171
:10465400B991EE27FF276D91662311F03196FBCFB8
:104664000895AA93002411246991E991F991A991DB
:10467400B991662349F06A951D900590011421F4BF
:104684000020B9F7EE2708951018E1F3E1E008F4EB
:10469400E2500895AA937991E991F991A991B99178
:1046A400CD01772351F07A9561916D936623C9F713
:1046B400772319F07A956D93FBCFFC010895AA93A3
:1046C400BA93EA93FA93EFB7EA930895E091CB058E
:1046D400F0E0E558FA4FE0810895E0E0E093F40754
:1046E400E093ED070895E1E6F0E0E0935005F093E0
:1046F40051050895E6E0E0935305E4E5F5E0FA9307
:10470400EA9308950E941A23A1E00C94821BE0E02E
:10471400E0932A08CC240895E091EE07EF5FE0933C
:10472400F607EAEFF0E0E0932B08F0932C08E1E0C1
:10473400E093F7070895EAEFF0E0E0932B08F09395
:104744002C080895E0E0E0930508E0930608E1E012
:10475400F0E0E0930708F09308080895CC24E0E023
:10476400E0932A08DD240C945308E0E0E0930C0560
:10477400E0930B050895E4E2F8E0FA93EA93A0913C
:104784002A080C949813E1E0E0930705E0E0E09335
:104794000E080895A0910508B09106080895E093C5
:1047A4000708F09308080895E0911D08F0E0319798
:1047B400EC5AFA4F0895EDE6F0E0E0935005F093DB
:1047C40051050895E0936505E6E0E09353050895E7
:1047D400E3E0E0930705E1E0E0936805E0931D085A
:1047E400E0931E080895E2E0E0930705E1E0E0931A
:1047F4006805E0931D08E0931E080895E7E6F0E0DD
:10480400E0935005F09351050895EBE8F0E0E09350
:104814005005F09351050895E0930705E1E0E09316
:104824006805E0931D08E0E0E0932108E093200888
:10483400E1E0E0931E080895EFE4FAE0E093500508
:10484400F09351050895E0936505E3E0E093530583
:10485400E2E0E2CFEDE3FDE0E0935005F093510593
:104864000895ECE4FDE0E0935005F09351050895BC
:10487400E0E4F0E0E0935005F09351050895E093EF
:104884006505E0E1E09353050895E5E5FDE0E09377
:104894005005F0935105E0E0F2CFE5E5FDE0E0934B
:1048A4005005F09351050895A09168050C949A1B46
:1048B400E0E0E0936805E0930E08E09307050895AF
:1048C400AD2D0E94C513CE2EE3E0E0930B08A1E0CA
:1048D4000C94B614E3E0E0930B08A1E00895E5E03E
:1048E400E0930B08A2E00895E0910508F091060812
:1048F4000895E1E0E0930F08E0E0E0930508E09319
:104904000608E0910F08F0E045DFEA0FFB1F47DFE0
:10491400E0E0E0932A08DECFE0910F08F0E03ADF10
:10492400EA0FFB1F3CCFE0930508F09306080895B7
:10493400A09168050C94821BE1E0E0931D08E0E07F
:10494400E0932108E09320080895E1E0E093530503
:10495400A3E00C949A1BA3E00E949D0EE0915405E1
:10496400EF700895E0E1E0935305A1E00E949A1BE3
:10497400E4E5F5E0FA93EA93E6EBF0E0FA93EA93E0
:104984000895E4E5F5E0FA93EA930895E12FF0E061
:10499400EC5AFA4F0895E0912008EF5FE093200865
:1049A40008951E2FA0912008A33008959DDFFA9347
:1049B400EA93A0EDB5E00C947F1CA0EEB5E00C9456
:1049C4007A22EAE0E0935305AC2D0C949A1BE0EDB7
:1049D400F5E0FA93EA930895AC2DB0E0E4E6F0E054
:1049E4000E94EC270895E05DE093DD05AC2D089569
:1049F400B0E0EAE0F0E00E94EC27DF01EAE0F0E05A
:104A04000E94F427E05DE093DE05AC2DBB27EAE0CD
:104A1400F0E00E94F427E05D0895E05DE093DF0597
:104A2400AC2DE6CFAC2DB0E0EAE0F0E00E94EC273C
:104A34000895BB27EAE0F0E00E94F427E05D0895C2
:104A4400E093DE05AC2DF5CFDF01EAE0F0E00E9453
:104A5400F427E05D0895E0910708F0910808FA93BF
:104A6400EA93A0EEB5E00C947F1CA0EDB5E00C94A5
:104A74007A22A0EEB5E00C94740EEA81FB81FA93DD
:104A8400EA93A0E00E94101CE881F981FA93EA936A
:104A9400A0E40C94101CE981FA81FA93EA93089536
:104AA400AEE8B1E00C941A23A981BA81EE27A10FD4
:104AB400BE1F0895E02FF0E0EC5AFA4F0895A02F9E
:104AC400B0E0AC5ABA4F08950E941028EA1BFB0BC1
:104AD4000895E0935305A1E00E949A1BA1E00E946F
:104AE4009D0EE0915405EF700895E0915505EF7027
:104AF400AAE0EA02F001AE2FE0915605EF70EA0F4A
:104B04000895A2E00E949A1BA2E00E949D0EE091EB
:104B14005405EF700895A7EAB1E00E941A23A3E0B8
:104B24000C94821BA4E00E949A1BA4E00E949D0E98
:104B3400E0915405EF700895A5E00E949A1BA5E04A
:104B44000E949D0EE0915405EF700895E091540584
:104B5400EF70A4E6EA02602DE0915505EF70AAE03B
:104B6400EA02F001A62FAE0FE09156050895A5EADA
:104B7400B1E00E941A23A2E00C94821BA091FA07D0
:104B8400B091FB070895E093FA07F093FB070895AB
:104B9400ED91FD913196FE93EE930895AFEBB0E065
:104BA4000E941A23A3E00C94821BA4EFB1E00C949E
:104BB400B827A12FB0E0EAE0F0E00E94EC270895C6
:104BC400B0E0E4E6F0E00E94EC27E05D0895E093B5
:104BD4005305D7CE0E94821BD4CEAAE0EA02F0018C
:104BE400AE2F08950E949A1BFE013296FA93EA931F
:104BF4000895E12FF0E03197E151F94F0895AB8129
:104C0400BC81EE27A10FBE1F0C904ECFE093FC0792
:104C1400F093FD070895E0E0E0938A001B9808955F
:104C2400A091FC07B091FD070895E0910B08ACE05A
:104C3400EA9FF001E058FF4FA6CFE1E0F0E0E6CFB5
:104C4400EFDFE6E0F0E00E94F12730970895E0ED11
:104C5400FFEFE0930008F09301080895E0E0E0938B
:104C64000008E09301080895E0910B08F0E0339602
:104C7400ACE0B0E00E94D427A0E8B0E025CF7EDF0E
:104C8400AE17BF070895E0E0E0936A05EAE6F5E0B1
:104C9400FA93EA930895EEE0F5E0FA93EA9308951F
:104CA400ABEBB5E00C94790EE0E0E0930905A0E0ED
:104CB4000C94351AE0911205E053EA0FCE2ECC2065
:104CC4000895E0913E08A0913D08AE170895E09143
:104CD4003D08F0E0ED5CF74F08951F5FE12FF0E031
:104CE400E558FA4F0895AC2D0E948D14F0E0089514
:104CF400EAE0F0E00E94EC27A7CEEC93E0913008C4
:104D0400E0300895E0930905E8CFA083E0913008EE
:104D1400E0300895A0E5A083E0CFA3E5A083DDCF34
:104D24001F5FA12FB0E0A558BA4F0895BF01A0910D
:104D3400FE07B091FF0708950E94D927E05DDB01CB
:104D4400EC93CBCFE05DDB01EC93C7CFA7E4A0836A
:104D5400C4CFB0E0EAE0F0E00E94EC27F3CFE0E15A
:104D6400E0935305A0910B050E949A1B00E008955F
:104D7400ACE7A08392CDE72D7394F0E0E554FA4FAD
:104D84000895EF70E05DEC93F6CFBB27EAE0F0E026
:104D94000E94F427EF70E05DDB01EC93ECCFE0E0E0
:104DA400E0933108E09330080895E0E1E09353057F
:104DB400E0E0E093650500E0E4CDE12FF0E0E25FA0
:104DC400FA4F0895A0910C050E94821B66CDE02F36
:104DD4000F5FF0E0EC5AFA4FDF01E12F1F5FF0E0C4
:104DE400E25FFA4FE081EC930895E3B1EF70E3B929
:104DF400E3B1E12BE3B90895AA930E943628EC812C
:104E0400E0935205F0E031979F01E0915005F09155
:104E14005105E050F040BF01E0915305F0E0D901A5
:104E24000E94D427E60FF71FE0934E05F0934F0539
:104E340008950E94331CAEE00C94331CAFE10E9431
:104E4400331CA4E00C94331CA4E00E94331CA4E0A3
:104E54000E94331CA4E00C94331CAA930E94551C9A
:104E6400E5B3EF70E5BBE5B3AE2FE881E07F0895CD
:104E7400EA2BE5BB0C94751CE5B3EF70E5BBE5B319
:104E8400AE2FE881E29508950E941A23A981BA8180
:104E94001D96E1E0EC93A981BA811F96E2E0EC93C0
:104EA4000895AA81BB810C9432220E941A23E091B6
:104EB4001105EF7092CEE0911205EF70EA0FEA93BC
:104EC400F0CFE0911705A981BA81EC93E091160522
:104ED400A981BA811196EC93E0911505A981BA8153
:104EE4001296EC93E0911405A981BA811396EC9380
:104EF400E0911305A981BA811496EC93A981BA8132
:104F04001696E0E2EC93A981BA811796E0E0EC935F
:104F140008950E941A23A0E020FCA1E0A130089586
:104F24000E941A23E2E0E093670508950E941A2381
:104F3400E0916805EA93B5CFA9E7B5E00C941A238C
:104F4400AE81B0E0EAE0F0E00E94EC27E05D089575
:104F5400E983AE816ECDAA81BB81EE27A00FBE1F6F
:104F64000895E02FF0E0AFE0B0E0AECD109639F058
:104F740088EE93E00197F1F7A8951197C9F7089582
:104F8400F195E195F0400895FA9FF02DEB9FF00D17
:104F9400EA9FE02DF10D08956E2F6A9FF0016B9F3B
:104FA400F00D08952DD0F0DF0EF4EADF089500240B
:104FB400112490E1AA0FBB1F001C111C0E1A1F0A1A
:104FC40018F40E0E1F1E01C0A1609A9599F7FD01F9
:104FD400D001089515D0EBDF0EF4D2DF0895E7DF9A
:104FE400FD010895E894B7FF04C0A095B09511960B
:104FF4006894F7FDC5DFDBDFFD010EF4C1DF089522
:10500400E894F7FF02C0BCDF6894B7FF06C0A09520
:10501400B095119600F8039400FA08951B2EBF2F43
:10502400F12D1A2EAE2FE12D0895E199FECFFF93B5
:10503400FFB7F894AEBBBFBBE09AEDB3FFBFFF91DF
:105044000895E19B02C0A895FCCF9FB7F894AEBB2E
:10505400BFBBE09A8DB3E81719F0EDBBE29AE19A71
:105064009FBF08955A934A933A932A931A930A93A3
:1050740008955D814C813B812A81198108810895BD
:00000001FF
