:0E0000000C949C020C9400000C9400000C94D4
:10000E0000000C9400000C9400000C9400000C9462
:10001E0000000C9400000C94D00D0C9400000C9475
:10002E0000000C9400000C9400000C9400000C9442
:10003E0000000C9491030C9400000C94CF020C94CD
:10004E004B030C9435030C9400000C9400000C949C
:10005E0000000C9400000C9400000C9400000C9412
:10006E0000000C9400000C9400000C9400000C9402
:10007E0000000C9400000C9400000C94000010275B
:10008E00E80364000A0001000010000110000100E6
:10009E00000000000000313233343536202020209D
:1000AE002020202020202000332E352E3437002013
:1000BE00EEF6ECF6EC20ECE3E9F8E4203330200029
:1000CE0020EEFAF7F9F820ECE3E9F8E420333020DB
:1000DE000020ECE020EEE7E5E1F820E327203330C6
:1000EE00200020F9E9E7E420E4F1FAE9EEE4203318
:1000FE00302000E4FAE7EC20F9E9E7E420E32720DA
:10010E0033302000E3E9F8E420333020ECF6ECF64F
:10011E00E5EC20240020202020202020202020205C
:10012E002020202020003033300030303100303994
:10013E003900303130003138300030323000313259
:10014E003300313233343536003235323532350004
:10015E0030303000303035003036300020E3E9F8F2
:10016E00E420EEF1F4F82031202020200020E3E9F5
:10017E00F8E420EEF1F4F82032202020200020E3D5
:10018E00E9F8E420EEF1F4F82033202020200000DE
:10019E002020202020202020202020202020202051
:1001AE000000F9ECE5ED2CE4F9FAEEF920E120205F
:1001BE0020200020ECE7E9F4E5F920E3E9E9F8E98D
:1001CE00ED2E00F0E020ECF4FAE5E72020202020D0
:1001DE00202020002020202020E0FA20E4E3ECFA6A
:1001EE002121212000F0E020E4EEFAEF2020202053
:1001FE00202020202000202020ECF4FAE9E7FA202D
:10020E00E3ECFA2E2E2E00EEFAE1F6F220E0E9F4FF
:10021E00E5F12E2E2E00202020E0E9EF20EEF2F068
:10022E00E42020202000EEEEEEE9F820E4E3E52DB8
:10023E00E2E9E3E900202020E9F920EEF2F0E420E3
:10024E00202020002020F0E020ECE3E1F82E2E2EDE
:10025E00200020E4F7E520E1F9E9EEE5F92000F9C8
:10026E00E5E3F820EEF1F4F8202300F9E9E3E5F8F0
:10027E0020E4F1FAE9E9ED00E4FAF7E1EC20EEF121
:10028E00F4F8202300F7E1ECE420E4F1FAE9E9EEDA
:10029E00E400E4F2E1F8FA20F9E9E7E420F0EBF902
:1002AE00ECE400E7E9E9E2EF20ECE020EEE7E5E13F
:1002BE00F800E7E9E9E2EF20ECE020EEE7E9E9E219
:1002CE0000F9E5E3F820F9ED20E3E9F8E420230056
:1002DE00EEFAE720E1E3E9F8E4202300EEF1E3F89B
:1002EE0020F9EEE5FA0020FAF4F8E9E820F8E0F952
:1002FE00E90020F8F9E9EEFA20E4F7E5E3E9ED008C
:10030E002020F7E5E320E2E9F9E420002020F7E5DC
:10031E00E320ECF7E5E7200020F9EEE5FA20E4E330
:10032E00E9E9F8E9ED2000F0E9FAE5E120ECF4E97D
:10033E0020E3E9F8E5FA0020E6EEF0E9ED2029F9F0
:10034E00F0E9E5FA282000E4E2E3F8E5FA20F4F01B
:10035E00EC20E3ECFA00E2E9F8F1FA20FAE5EBF032
:10036E00E400E8ECF4E5F0E9ED20ECF4E920E3E953
:10037E00F8E400EEF1F4F8E920E8ECF4E5EF2032D1
:10038E0000EEF1F4F8E920E8ECF4E5EF203300EEAE
:10039E00F6E120E4F2E1F8FA20F9E9E7E400E8EC0E
:1003AE00F4E5EF20ECE3E9F8E42000E8ECF4E5EF07
:1003BE00203220ECE3E9F8E42000E8ECF4E5EF204D
:1003CE003320ECE3E9F8E42000E4F2E1F8FA20F956
:1003DE00E9E7E420E327200020E4EBF0F120F7E545
:1003EE00E320230020E4EBF0F120F7E5E320E2E93F
:1003FE00F9E4200020E4EBF0F120F7E5E320ECF740
:10040E00E5E7200020E4EBF0F120F9ED202300F0E9
:10041E00E9FAE5E120ECE3E9F8E42023002020E608
:10042E00EEEF20E4EEFAF0E4200020E6EEEF20F40A
:10043E00FAE9E7FA20E3ECFA20002020E6EEEF20BE
:10044E00FAE0E5F8E420002020E6EEEF20ECEEF2F4
:10045E00F0E420002020E6EEEF20F9E9E7E42000AA
:10046E00E6E9E4E5E920E3ECFA203120F2E320347A
:10047E0000E4E2E3F8FA20F6ECE9EC20302C312C23
:10048E003200E0E9F4E5F120EBECECE92000F0E9D4
:10049E00FAE5F720ECE0E7F820F4FAE9E7E400EEFD
:1004AE00F6E120E7E8E9F4FA20F9E9E7E400ECF9EF
:1004BE00E3F820E8ECF4E5F0E9ED00ECF7E1EC20F0
:1004CE00E8ECF4E5F0E9ED00EEF6E120E8F1E80005
:1004DE00E2E9F8F1FA20F4F0EC00E2E9F8F1FA20A2
:1004EE00EEEEE9F8000001002D4E414E00494E4659
:1004FE000000010002009E0004000400A0000100A4
:10050E000005B50001000105B50001000205B500AA
:10051E0001000305B50001000405B5000100050545
:10052E00B50001001307F4040000F894EE27ECBBAD
:10053E00F1E0F5BFE5BFE0936C00F8E1F1BDE1BD80
:10054E008DE0A2E0BB27ED938A95E9F780E090E17C
:10055E00A0E0B1E0ED930197E9F7E0E0F5E08591D9
:10056E009591009761F0A591B59105901590BF01F9
:10057E00F00105900D920197E1F7FB01F0CF8BBFD3
:10058E00EFEFEDBFE0E1EEBFC0E0D5E00C949B03D2
:10059E000E94FA1C1A93AF93BF93EF93FF93AFB7DA
:1005AE00AF9388241CB1E1E0E2BFE7B7E160E7BF9B
:1005BE0044FC40C01030B1F1E0917905F0E0E35F0A
:1005CE00FA4F1083E0910D05F0E03196A091790578
:1005DE00B0E0AE17BF0794F0E7B7EE7FE7BF992004
:1005EE0011F4E1E09E2E191511F4689401C0E894FF
:1005FE0021F8E0E14E2AE7EF4E2207C0A0917905DF
:10060E00A13018F0E8E04E2A910EE0917905EF5FE7
:10061E00E0937905E0917905F0E0E35FFA4FA0E011
:10062E00A08308C0E7EE4E22E0E0E0937905E8945F
:10063E0021F89924E0917905F0E03396E134A0E0B9
:10064E00FA071CF0E0E0E0937905AF91AFBFFF91A0
:10065E00EF91BF91AF9119910C948A03EA93EFB782
:10066E00EA93AF93BF93EF93FF93AFB7AF935698C1
:10067E001A989924EDEF4E228824AF91AFBFFF91C7
:10068E00EF91BF91AF914CC00E94FA1CAF93BF93F4
:10069E00EF93FF93AFB7AF93E091CA05E03029F126
:1006AE00E0917A05F0E03196A091CA05B0E0EA1724
:1006BE00FB071CF45598569A17C0E0917A05A09145
:1006CE00CA05EA1730F4992011F4E1E09E2E9CB889
:1006DE0006C00E94011D9E0E0E94011DECB9E09104
:1006EE00CA05EF5FE093CA0508C00E94011DECB970
:1006FE00E091CA05EF5FE093CA05AF91AFBFFF91DE
:10070E00EF91BF91AF91E991EFBFF991E991B99155
:10071E00A9911895EA93EFB7EA93E7B7EE7FE7BF93
:10072E00E991EFBFE9911895EFE1E1BDEFE0E1BD91
:10073E00E0E0EBBBEFEFEABBE0E8E8BBE1E2E7BBF2
:10074E00E0E0E5BBEFEFE4BBE0EDE2BBE2B3EE7B56
:10075E00E2BBE0E0E1BBE1B3ED67E1BBE7E0E3B9AB
:10076E00EEEFE2B9E0E0E0936200EFEFE0936100BC
:10077E00ECE9E0936500E4E0E0936400E7E0E3BFBA
:10078E00E0E0E0BFE1E0E2BFE0E0E1BFEFBDEEBDE3
:10079E00EDBDECBDEBBDEABDE9BDE8BDE093790072
:1007AE00E0937800E4BDEAEFE3BDEBE0E5BDE3E402
:1007BE00E0938B00E0E0E0938A00E0938900E09301
:1007CE008800E1E0E0938700E0E0E0938600E093AC
:1007DE008500E0938400E0938300E0938200E09331
:1007EE006A00EABFE9BFE7B7E068E7BFE7B7E469C9
:1007FE00E7BFE7B7EE7FE7BFE0E0E0937D00EBB940
:10080E00E8EDEAB9E6E0E0939500E9E1E9B9E0E068
:10081E00E0939000E0939B00E0939A00E0939D009C
:10082E00E0939900E0939800E0E8E8B9E0E0E0BDDD
:10083E0078940E9497160E9413180E944F0CE0E0C5
:10084E00E0930705689422F8E89421F8E3EBE0932F
:10085E00D406E7B7EE7FE7BF559835D2E8E3E093CD
:10086E000207C09AA8950E945411E0916300E870A7
:10087E0051F4A091BE06A33328F4E091BE06EF5FBB
:10088E00E093BE0603C0E0E0E093BE06A091BE0674
:10089E00A23371F40E94081D0E940F1DA4EAB0E05D
:1008AE000E94171DE3E0E093DB06A4E00E943D11D9
:1008BE00E0916300E07111F0879904C0A0910605E4
:1008CE00A03009F00AC0A091C506A33328F4E09128
:1008DE00C506EF5FE093C50603C0E0E0E093C506F2
:1008EE00A091C506A23339F40E941C1D0E94211D41
:1008FE00E4E0E093DB06E091C706E03021F4E091FE
:10090E00C806E03009F418C00E941C1DE0E0E09318
:10091E00C806E091C006E03049F00E945C1CE091F0
:10092E00C006EF5FE093C9060E94301DE1E0E09340
:10093E00CA06E4E0E093DB06E091C906E03021F45C
:10094E00E091CA06E03009F412C0E0910605E030ED
:10095E0011F40E94371DE0E0E093CA060E945E1C6F
:10096E00E091C306E03019F0A2E00E94AD13E091D1
:10097E00BD06E03031F0E0E0E093BD06E3E0E09349
:10098E00DB06E091DD06E03029F0E0E0E093DD06E5
:10099E000E94431DBB20E1F4E5E0BE2E0E944C17E1
:1009AE00E093D906E030A1F0E091C106E03021F0ED
:1009BE00EF5FE093C606A89A99D2E091CA06E0309E
:1009CE0021F4E0910605E03009F002C00E94301DCE
:1009DE0041FC02C00E9439120DD525FE05C0E894D7
:1009EE0025F8E8E7E093030724FE40C0E89424F8D6
:1009FE00E0910605E03039F0E0910307E03019F0A0
:100A0E00E150E0930307E0910507E03061F1E1501A
:100A1E00E0930507E03031F5E0910407E030D9F0BE
:100A2E00E150E0930407E03091F4A0910607A03066
:100A3E0021F4A0910805A03009F004C0A6E00E94A0
:100A4E00AD1304C00E9497160E944A1D03C0A6E073
:100A5E000E94AD1307C00E949716A1E00E94A31634
:100A6E000E944A1D03C0A6E00E94AD13A09102078A
:100A7E00A23020F0A0910605A03009F019C0E09137
:100A8E00FE06E03091F00E94501DE43670F40E9494
:100A9E00501DCE2EAC2D0E941B11E03029F0AC2D36
:100AAE000E941B11E13208F0CC24E0E0E093FE0638
:100ABE00E0910307E03021F4A0910605A13008F47F
:100ACE0003C015D014D005D1A0910107AE3720F088
:100ADE00A0910605A23008F404C0E0E0E0930107FF
:100AEE0034D023FEFECFE89423F8BCCEFFCFE091A6
:100AFE00DE06E03039F4E0E0E0930605E89420F8F5
:100B0E00E8D022C00E94581DE091DE06F0E0E052CF
:100B1E00F94FE081E093DF060E945F1DEDE0F0E00B
:100B2E000E94F2200E94641DE091DF06F0E0A09189
:100B3E00D706B091D806AE1BBF0BA093D506B093C7
:100B4E00D606E0E0E09367050895A0910605A5306E
:100B5E0009F40895E091EE06E03049F00E94691D17
:100B6E00E081E093EF060E94691DAEE204C00E9490
:100B7E00691DA091EF06A083A091EE06E1E0EA27A1
:100B8E00E093EE060895E0E0E09301070E945F1DFA
:100B9E005A9739F40E94701DE3E60E94771D0E9459
:100BAE007D1D0E945F1D979739F40E94081DE1E09C
:100BBE000E94771D0E94881D0E945F1DD49739F4F4
:100BCE000E94931DE1E00E94771D0E94881D0E94E5
:100BDE005F1D1D9741F40E949A1DE3E60E94A11D20
:100BEE00E4E00E94A71D0E945F1DAE34E0E0BE0748
:100BFE0041F40E94B71DE3E6E0936405E2E00E9433
:100C0E00BE1D0E945F1DA134E0E0BE0741F40E94AC
:100C1E00C21DE5E0E0936405E3E00E94BE1D0E9464
:100C2E005F1DAB35E0E0BE0741F40E94C91DE8E050
:100C3E00E0936405E1E00E94BE1D0E945F1DA83690
:100C4E00E0E0BE0759F40E94D01DE2E0E093640597
:100C5E00E6E0E0935205E5E00E94A71D0E945F1DAD
:100C6E00A238E0E0BE0721F40E94D71D0E947D1D30
:100C7E000E945F1DAF38E0E0BE0721F40E94D71D31
:100C8E000E947D1D0E945F1DAC39E0E0BE0721F47D
:100C9E000E94D71D0E947D1D0E945F1DA537E0E0BA
:100CAE00BE0751F40E94DF1DE0E0E0936405E1E031
:100CBE00E09352050E94881DE0916705E03011F027
:100CCE000E94E61D08950E94371D0E94EA1DE0D580
:100CDE0008950E94371D0E94EA1DE0E0E09302078E
:100CEE00E0930905E093BC0608951A93F2DFA091F4
:100CFE00D906A53169F4E0E0E093BC06D394E09107
:100D0E00BB06ED1510F4E1E0DE2E0E94F21DEDC0E3
:100D1E00A091D906A73169F4E0E0E093BC06E1E0CA
:100D2E00ED1518F0D090BB0601C0DA940E94F21DAA
:100D3E00DCC0A091D906A63109F046C0E091FE06AE
:100D4E00E03041F00E94501DE43620F40E94501D08
:100D5E00E03011F4CC2081F1CC2019F40E94501D0A
:100D6E00CE2EE1E0F0E0E093FF06F0930007E8946A
:100D7E0024F8E0E0E093DC060E949716AC2D0E946A
:100D8E001B11E13028F0AC2D0E941B11E13208F04E
:100D9E000DC0A1E00E94AD13E1E0E093BD06E0912D
:100DAE00CF06E093BC060E94FC1D03C0CC240E941B
:100DBE00011E0E943D1104C00E94011E0E943D11A1
:100DCE00E0E0E093FE0691C0A091D906A83109F0AB
:100DDE0053C0E0E0E093BC060E947B0D1E2F0E94E4
:100DEE00061E309709F040C0113039F40E941C1DC8
:100DFE000E94211D0E94FC1D34C0123041F4A091AE
:100E0E00C706A03021F4A091C906A03009F00BC08E
:100E1E000E949716689425F8E89420F80E94581DB1
:100E2E000E940B1E1EC0133041F4A091C706A030C5
:100E3E0021F4A091C906A03009F00EC00E949716A9
:100E4E00689425F8E1E0E093060520F8E0E0E093F1
:100E5E00DE060E940B1E05C0E0E0E093FE060E9437
:100E6E00011E0E943D1107C0E0E0E093FE060E94C5
:100E7E00011E0E943D1139C0A091D906A13010F07B
:100E8E00AB3008F01FC00E94FC1D0E943D11CC2407
:100E9E00DD24A091D906AA3019F4E0E0E093D9063A
:100EAE00E091FE06F0E0EC50F94FA091D906A08338
:100EBE00A091FE06AA3028F4E091FE06EF5FE093C3
:100ECE00FE0613C0A091D906A13179F4E0E0E093BB
:100EDE00BC06E093FE06E1E0E093DD060E94FC1DF9
:100EEE000E943D11A2E00E94AD1382C2E091060560
:100EFE00E03029F4E3E0E093DC06F7DE17C1A091C1
:100F0E000605A13009F05CC0E8E7E0930307A09165
:100F1E00D906A53181F4E0916505A091DF06EA17A7
:100F2E0011F4E1E003C0E091DF06EF5FE093DF062E
:100F3E000E941E1E44C0A091D906A73179F4A0913B
:100F4E00DF06A13019F4E091650503C0E091DF06DC
:100F5E00E150E093DF060E941E1E31C0A091D9061B
:100F6E00A63139F5E0916605F0E03197A091DE06E5
:100F7E00B0E0AE17BF07DCF4E091DE06F0E0E05221
:100F8E00F94FA091DF06A083E091DE06EF5FE093BC
:100F9E00DE06E1E0E093DF06A091D706B091D80619
:100FAE00EDE00E94E7200E94251E0E941E1EEBDD32
:100FBE0006C0A091D906A13111F499DD69D4B0C053
:100FCE00E091EE06E03009F4C0DDE8E7E0930307B8
:100FDE00A091D906A831F9F40E945F1D1D9791F4D6
:100FEE00E091ED06EF5FE093ED06E0E0E093F006B2
:100FFE00E0915205A091ED06EA1718F4E1E0E093B6
:10100E00ED0608C0A0910605A33021F4E1E0E093BF
:10101E00ED068DD085C0A091D906A531C1F4A09161
:10102E000605A53011F00E942A1EE0916405A091DC
:10103E006705AE1720F4E0916705EF5F01C0E1E0B0
:10104E00E09367050E94E61D0E942E1E69C0A091C6
:10105E00D906A731B9F4A0910605A53011F00E946A
:10106E002A1EA0916705A23020F0E0916705E1509D
:10107E0002C0E0916405E09367050E942E1E0E9457
:10108E00E61D4EC0A091D906A131A9F5A091ED069D
:10109E00A23048F0E091ED06E150E093ED06E0E07D
:1010AE00E093F00627C00E942A1E0E94C91D0E94CE
:1010BE00371E0E943D1EE093F30619DDE091F30604
:1010CE00E03019F014DDE4D315C00E94D01D0E944B
:1010DE00441EA6E00E94CC1CE03061F00E94531E1C
:1010EE00E6EBF0E0FA93EA93A6E00E94CC1CA1E0B6
:1010FE000E94D11715C0A091D906A63189F00E9481
:10110E005F1D1D9711F44FD00BC0A0910605A530A1
:10111E0009F40895A091ED06A13009F408D017D076
:10112E00E3E0E093DB06A1E00E943D1108951A93DF
:10113E00E091ED06E1501E2FE09152051E1730F49E
:10114E000E94581EA0E2A0831F5FF6CF51C1A0914E
:10115E00D906A13010F0AB3008F024C0A091D9060A
:10116E00AA3019F4E0E0E093D9060E94691DDF0170
:10117E00E091D906E05DEC93E091ED06EF5FE09330
:10118E00ED06E0915205A091ED06EA1740F4E1E07C
:10119E00E093ED06A0910605A43009F4C8DFE0E067
:1011AE00E093F00608951A93E0E0E093F106A09123
:1011BE00D906A13010F0AB3008F01AC1A091D906B3
:1011CE00AA3019F4E0E0E093D906E091D906A09197
:1011DE00DA06EA1711F0E1E003C0E091F006EF5FE6
:1011EE00E093F006E091D906E093DA06A091F006BE
:1011FE00A43051F4A091D906A43031F0A53021F0DD
:10120E00A93011F00E945D1EA091F006A63018F0D4
:10121E00E1E0E093F006A091F006A53029F4E0910C
:10122E00D906E05D1E2FE1C0E091F106E03009F035
:10123E00C3C0A091D906A130B1F4A091F006A1309F
:10124E0009F417E2A091F006A23009F41DE2A09174
:10125E00F006A33009F41EE2A091F006A33011F4BB
:10126E000E945D1EA9C0A091D906A23049F4E0915A
:10127E00F006EE510E94631E11F40E945D1E9CC08A
:10128E00A091D906A33049F4E091F006E1520E94F4
:10129E00631E11F40E945D1E8FC0A091D906A4306A
:1012AE00A9F4A091F006A13009F410EFA091F00678
:1012BE00A23009F41FEEA091F006A33009F41EEE41
:1012CE00A091F006A43009F41DEE76C0A091D906C7
:1012DE00A530A9F4A091F006A13009F419EEA09161
:1012EE00F006A23009F41BEEA091F006A33009F42B
:1012FE001AEEA091F006A43009F41CEE5DC0A09188
:10130E00D906A63049F4E091F006EB510E94631E17
:10131E0011F40E945D1E50C0A091D906A73049F469
:10132E00E091F006E9500E94631E11F40E945D1ECA
:10133E0043C0A091D906A830B1F4A091F006A13017
:10134E0009F416EFA091F006A23009F415EFA09162
:10135E00F006A33009F417EFA091F006A33011F4B4
:10136E000E945D1E29C0A091D906A930A9F4A091B2
:10137E00F006A13009F411EFA091F006A23009F4A5
:10138E0012EFA091F006A33009F414EFA091F0062D
:10139E00A43009F413EF10C0E091F006E35C6E2F59
:1013AE00E091D906A3E0EA02F001E60F1E2FA0910C
:1013BE00F106A23009F4105EE091D906E030A9F4EE
:1013CE00A091F006A13009F410E2A091F006A2302F
:1013DE0009F418E2A091F006A33009F419E2A091E5
:1013EE00F006A33011F40E945D1E0E94691D108349
:1013FE00199108950E94681EA0910605A03011F063
:10140E00A13009F40AC0AFEDB5E060D1A091060598
:10141E00A43011F40E946F1E46C1CC2021F0E09141
:10142E00BC06E03009F464C00E949A1D0E94731E2F
:10143E00E0910905F0E0309739F40E94791EADEB8A
:10144E00B0E00E94B31C2BC0E130A0E0FA0739F4E3
:10145E000E94791EAEECB0E00E94B31C20C0E430B6
:10146E00A0E0FA0739F40E94791EAFEDB0E00E94B9
:10147E00B31C15C0E230A0E0FA0739F40E94791EC1
:10148E00A0EFB0E00E94B31C0AC0E530A0E0FA075E
:10149E0031F40E94791EA1E0B1E00E94B31C0E94BB
:1014AE007E1E309779F00E947E1EE05DE093DE0591
:1014BE000E94851E0E948B1EE05DE093DD050E945A
:1014CE00851E0BC00E94901E309729F00E94901E20
:1014DE00E05DE093DD05AC2DBB27EAE0F0E00E9475
:1014EE000D21E05DE093DC05AFEDB5E0EFD0D7C0A8
:1014FE00CC2021F0E0910605E03009F039C00E94C1
:10150E009A1D0E94731EAFECB5E0E0D0EFEDF5E052
:10151E00FA93EA93A2E1B1E00E94B31CE3E0E093F8
:10152E00EE050E947E1E309799F00E947E1EE05DB1
:10153E00E093E5050E94851E0E948B1EE05DE09300
:10154E00E4050E94851E0E94931EE093E3050FC0E2
:10155E000E94901E309729F00E94901EE05DE0934D
:10156E00E505AC2DBB270E94931EE093E40597C0C2
:10157E00E0910705E03009F490C0F0E0E130A0E022
:10158E00FA0749F4E9E0F0E00E94251EEAE0F0E0F7
:10159E000E94641D75C0E230A0E0FA0749F4EDE048
:1015AE00F0E00E94251EEEE0F0E00E94641D68C08F
:1015BE00E630A0E0FA0749F4E9E0F0E00E94251ECB
:1015CE00E4E1F0E00E94641D5BC0E730A0E0FA07A2
:1015DE0049F4E3E1F0E00E94251EE5E1F0E00E940F
:1015EE00641D4EC0E430A0E0FA0791F4EFE0F0E0A5
:1015FE000E94251EE0910A05E03019F0EEE0F0E0C1
:10160E0002C0E0E1F0E0E093D706F093D80638C0D0
:10161E00E530A0E0FA0791F4E1E1F0E00E94251E2A
:10162E00E0910B05E03019F0EEE0F0E002C0E2E1EF
:10163E00F0E0E093D706F093D80622C0E830A0E0A1
:10164E00FA0791F4E6E1F0E00E94251EE0910C0508
:10165E00E03019F0EEE0F0E002C0E0E1F0E0E093FF
:10166E00D706F093D8060CC0E930A0E0FA0741F493
:10167E00E7E1F0E00E94251EE8E1F0E00E94641D23
:10168E00E0E0E09307050E94681E0E94991E0E94EA
:10169E006F1EE4E0E093DC0606C00E94991EAFEDDB
:1016AE00B5E00E94171C0E94A31E0E94791E0E9484
:1016BE00A71E0895BA93AA930E94AB1E68C2BA934E
:1016CE00AA93552011F00E94AB1E61C2BA93AA9341
:1016DE001A930E94B91E0E94BE1E10E0E0915205A0
:1016EE001E1728F40E94581EE081E03009F408C04D
:1016FE000E94C21E0E94581EE081EC931F5FEECF27
:10170E00188128C0AA931A930A9311E0E09152050A
:10171E00F0E03197ED5AFA4FA081A03211F0A030CF
:10172E00A1F4E0915205E1500E2F013048F00E94D5
:10173E00C81EE02FF0E031970E94CD1E0150F5CF6C
:10174E00E0E3E09353051F5FE1CFAA810E94D1171A
:10175E001981088123960895BA93AA93A297E0E07F
:10176E00E883E9830E94512110E000E020E011E0BF
:10177E00E0916405A12FB0E0A7FDBFEFF0E0EA17FE
:10178E00FB070CF481C0A895A12F0E94EC17A12F86
:10179E00B9DF30E020E000E0E0915205A02FB0E08C
:1017AE00A7FDBFEFF0E0AE17BF0754F40E94D21EA4
:1017BE00E081E03029F00E94D21EA081A03209F40F
:1017CE001AC0A8950E94D21EA081A03311F4303009
:1017DE0009F001C00EC031E0E22FF0E00E94D71EEA
:1017EE000E94D21EE081F0E0EF70F070ED93FC935A
:1017FE002F5F0F5FD1CF4FEF5FEF203011F040E042
:10180E0050E0E1E0F0E0EE83FF8301E02017F4F01A
:10181E00A895A22FB0E0A7FDBFEFE02FF0E0E7FD07
:10182E00FFEF0E94DE1E0E94D71E0E942921AE816C
:10183E00BF810E94DF204E0F5F1FAE81BF81EAE0A5
:10184E000E94E720EE83FF830F5FE0CFEAA5FBA5A2
:10185E004E175F071CF44AA55BA509C0E8A5F9A5BC
:10186E00E417F5071CF448A559A501C00BC05A93FF
:10187E004A93A3E5B5E00E94601CA12F43DFA12F80
:10188E000E94D1171F5F74CF0E945821AC96089505
:10189E001A93A89573D2A8950E94C21DE3E00E94E8
:1018AE00E31E79F4E0915405EF70E43050F4E091CA
:1018BE005405EF70E33021F4E0915405EF7009F414
:1018CE0006C00E94531EA4E3B1E00E94171D0E94A1
:1018DE00EF1EE093BF060E94FB1E21F0E0E3E093B3
:1018EE0053050FC0E0915405E07021F0E0915505CD
:1018FE00E07009F409C00E94531EA8E3B1E00E94F3
:10190E00B31CA2E00E94D1170E94EF1EE093C00606
:10191E00A3E00E94EC170E943D1E21F00E94531E70
:10192E000E94051F0E94EF1EE093C106A091C10602
:10193E00A33609F4A89AE091C106E03009F4A898FC
:10194E000E940C1F29F00E94531EACE3B1E008C0A8
:10195E00E0915405EF7049F40E94531EA0E4B1E0EB
:10196E000E94B31CA4E00E94D117E0915405F0E050
:10197E00EF70F070AAE0B0E00E94ED20DF01E09180
:10198E005505F0E0EF70F070EA0FFB1FE093CF0605
:10199E00F093D006A5E00E94EC17A5E0B3DEE0912F
:1019AE005305EF70E23060F4E13049F4E0915405F4
:1019BE00EF70E83021F4E0915505EF7009F405C0A1
:1019CE000E94531EA4E4B1E00EC0E0915305EF70E7
:1019DE0029F4E0915405EF70E23008F009C00E943E
:1019EE00531EA8E4B1E00E94B31CA5E00E94D117DB
:1019FE00E0915305EF70A4E6EA02602DE0915405E4
:101A0E000E94161FA62FAE0FE0915505EF70EA0F3C
:101A1E00E093C2060E94C91DE1E00E94E31EE0931E
:101A2E00F206A091F206A53010F4E03009F406C0DB
:101A3E00E091F206E150E093F20606C00E94531EBA
:101A4E00AAE3B1E00E94171D0E94FB1EAE2EE2E03B
:101A5E00EA1530F4E1E0AE2E0E94531E0E941B1FC9
:101A6E000E940C1FE093C306A091C306A23058F04B
:101A7E00E1E3E0935305A4E00E94D117E0915305F2
:101A8E00EF70E093C3060E94B71DE2E00E94221F92
:101A9E00E1E0F0E0FA93EA93A3E6B0E05DDE11E058
:101AAE00143648F4A12F0E941B11F0E0ED50FA4FAE
:101ABE0010831F5FF5CFE0E0E0930605A5E00E94DE
:101ACE00AD13A4E00E94AD1305D30E94371D0E94F2
:101ADE00681E0E94991E0E94A31E0E946F1E0E94E5
:101AEE00791E0E94A71EB3C20E945321E0E03E2F32
:101AFE001E2FEAE0E09352050E94081DE091FE06BB
:101B0E00E030B1F13F5FA32F0E94EC1700E020E020
:101B1E00E091FE062E1710F4003009F013C0E22FEC
:101B2E00F0E0ED5AFA4FA081E22FF0E0EC50F94FC1
:101B3E00E081F0E0F096B0E0EA17FB0709F001E073
:101B4E002F5FE6CF003071F411E0E22FF0E0ED5A96
:101B5E00FA4FA081A13220F0A091FE06AA3008F023
:101B6E0001C010E0363610F4103009F001C0CACFB3
:101B7E00313011F4103009F401C012E0323011F49A
:101B8E00103009F401C013E0E12F0E945A2124966F
:101B9E0008950A921A92FA926A937A938A939A9372
:101BAE00AA93BA93EA93FA93EFB7EA93689423F859
:101BBE00E091D106F091D2060E94281FEA0FFB1F7A
:101BCE000E942D1FBB2009F0BA94E091CD06F09132
:101BDE00CE06309771F0ADECB6E0ED91FD913197F8
:101BEE00FE93EE93E091CD06F091CE06309709F478
:101BFE004ED3A0910605A23060F0A091FF06B091E1
:101C0E000007E6E5F0E00E940A21309711F40E94E9
:101C1E00AC05AFEFB6E00E94321FA091FF06B09167
:101C2E000007AA3FE0E0BE0708F49AC0E091FF0665
:101C3E00F0910007EA5FF040E093FF06F093000793
:101C4E00689424F8E091BC06E03011F1E0E0E093F6
:101C5E00DC06E091BC06E150E093BC06E091CF06B5
:101C6E00F091D0063197A091BC06B0E0EA17FB07C1
:101C7E0041F4E4E0E093DB06E2E0EA1511F4A5E0BE
:101C8E00F5D2E091BC06E03019F4E1E0E093DD0618
:101C9E00E091C606E03021F0A091C606A33608F00A
:101CAE0008C0E091C606E150E093C606E03009F4A4
:101CBE00A898E091C706E03091F0E0E0E093DC06F2
:101CCE00E4E0F0E00E94251EE5E0F0E00E94641DD5
:101CDE00E091C706E150E093C706A1E0C7D2E091BC
:101CEE00C906E03091F0E2E0F0E00E94251EE3E04C
:101CFE00F0E00E94641DE091C906E150E093C90630
:101D0E00E2E0EA1511F4A3E0B1D2E091DC06E03096
:101D1E0041F0E0910207E03021F4E0910605E03059
:101D2E0009F00AC0E091DC06E150E093DC06E030F9
:101D3E0019F4E1E0E093DD06E091FE06E03019F0E3
:101D4E00A0E0CA1609F004C0E0910605E03009F0E3
:101D5E0004C0E0910207EF5F01C0E0E0E0930207EC
:101D6E00E991EFBFF991E991B991A9919991899171
:101D7E0079916991F9901990099018951A930E948A
:101D8E00D01D0E94441EA09152050E94CC1CE03032
:101D9E0029F50E94C91D0E94371EE0915305EF7070
:101DAE00E093F306E030D1F4A0915305AF3FB1F0CC
:101DBE0010E0143698F4E0916300E87029F00E9468
:101DCE00531E0E94381F43C1B79B05C00E94531E6D
:101DDE000E94381F3CC100001F5FEBCFE7E0F0E030
:101DEE000E94251EE8E0F0E00E94641D0E94681E1D
:101DFE000E94991E0E94A31E0E946F1E0E94791EB1
:101E0E000E94A71EA8950E943F1FA895A091F306B9
:101E1E00A130E1F0A230E1F1A33009F471C0A0913C
:101E2E00F306A43009F490C0A091F306A53021F476
:101E3E00E0E0E093F3060AC0A091F306A63009F4A1
:101E4E00AFC0A091F306A73009F4AEC00E94701D7A
:101E5E00EAE00E94221F0E94BE170E94531EACE4AD
:101E6E00B1E00E94171DE091F306E03009F0B7C013
:101E7E000E94081D0E940F1DA0E5B1E00E94171DD3
:101E8E000E94931D0E940F1DA7E5B1E00E94171D31
:101E9E000E94B71DE2E0E093520511E0143658F5AA
:101EAE00A895143678F4A12FB0E00E948B1EE05D49
:101EBE00E0935305A12FBB270E94931EE093540578
:101ECE00E0E212C0A12F0E94431FE0935305E12FC1
:101EDE000E944A1F0E948B1EE05DE0935405E12F85
:101EEE000E944A1F0E94931EE0935505A12F0E9447
:101EFE00D1171F5FD3CFE091F306E03009F06FC02A
:101F0E00A8950E94C21DE3E00E944F1FAEE5B1E00E
:101F1E000E94171D0E94531EA2E6B1E00E94521F9E
:101F2E000E94051F0E94531EA8E4B1E00E94581F94
:101F3E00A6E6B1E00E94B31CA5E00E94D117E09185
:101F4E00F306E03009F04BC0A8950E949A1DE0E11F
:101F5E000E94221F0E94BE170E94531EAAE6B1E0E5
:101F6E000E94171D0E94531EABE7B1E00E94521F44
:101F7E00ACE8B1E00E94B31CA3E00E94D11714E0BC
:101F8E00143650F4A8950E94531E0E94BE1EA12F17
:101F9E000E94D1171F5FF4CFE091F306E030F9F401
:101FAE00E091F306E030D9F4A8950E94C91DE1E056
:101FBE000E944F1FAAE3B1E00E94171D0E94531EFC
:101FCE000E941B1F0E94531EAAE3B1E00E94581FDD
:101FDE00AAE3B1E00E94B31CA5E00E94D117A89518
:101FEE000E94C91DE1E00E944F1FA6E3B1E00E94CE
:101FFE00B31CA6E00E94D117A7E00E94D117A3E060
:10200E000E94D1170E94D01DE6E0E0935205A1E098
:10201E000E94EC170E94531EA6EBB0E00E949F1C7C
:10202E00E03079F00E94531EA6EBB0E00E94171D1F
:10203E00E0E3E0935305E0E0E0935405A2E00E9454
:10204E00D117E0910605E03011F4A3E07FD319918A
:10205E000895AA93A881A13021F4A981BA81EC91A7
:10206E00AEC0A881A23051F4A981BA81EC910E9430
:10207E005E1FE981FA81E181EA0FA1C0A881A33038
:10208E0099F4A981BA81EC91A4E6EA02602DE98166
:10209E00FA81E181AAE0EA02F001A62FAE0FE981F2
:1020AE00FA81E281EA0F8BC0E0E089C0AA931A930D
:1020BE0010E0133668F4E12FF0E0E95AF94FE081B1
:1020CE00A981EA1719F4E12FEF5FCDC01F5FF1CFA1
:1020DE00E0E0C9C060971A930A93E9E1F0E00E942C
:1020EE00251EE4E0F0E00E94641D0E94681E0E941E
:1020FE00991E0E94A31E0E946F1E0E94791E0E94AE
:10210E00A71EE0E0E093BB060E949A1DE0E1E0937B
:10211E00520511E0143608F03DC0A895A12F0E947B
:10212E00631F0E94531EA0E167D0DE01129636D0C7
:10213E00E030F1F40E946A1FA1E0A08301E00436B2
:10214E00B0F4A895A02F0E94631FA3E5B5E039D087
:10215E00E03059F0A3E5B5E021D0E03031F40E9433
:10216E006A1FDF01EC91EF5FEC930F5FE8CF04C0C5
:10217E000E946A1FA0E0A0830E946A1FA081E091C6
:10218E00BB06EA1728F40E946A1FE081E093BB06A3
:10219E001F5FC0CF1981088162960895BA93AA93E2
:1021AE001A9310E0103148F40E94C21EAC91A03276
:1021BE0011F0E0E003C01F5FF5CFE1E01881239638
:1021CE000895BA93AA931A9310E0103190F40E94D6
:1021DE00701FEC91E01518F4E1E0188123C00E9405
:1021EE00701FEC910E1618F4E0E018811BC01F5FF3
:1021FE00ECCFE0E0188116C0AA93E881E03091F0B0
:10220E00E150E883AB81BC81F0E0EA0FFB1F0F01C8
:10221E00E881A981BA81F0E0AE0FBF1FEC91D00129
:10222E00EC93EBCF25960895AA931A930E94B71DAF
:10223E00E2E0E0935205A9810E94EC17A9810E9469
:10224E00890BE09153050E94161FAE2FE0915405A5
:10225E00EF70EA0F1E2F113010F0143608F002C086
:10226E00E12F01C0E0E0188122960895AA93AA20DA
:10227E0059F0E881E093D306E8EEF3E00E94771F71
:10228E00EAE1E0938A0001C002D021960895E0E0D1
:10229E00E093D3060E947C1F0895E091D306E030B0
:1022AE0009F4DFC0F0E0E130A0E0FA0761F40E942B
:1022BE00811FA53DE3E0BE0718F00E94861F02C0F5
:1022CE000E948E1FC6C0E230A0E0FA0771F40E9491
:1022DE00811FA939E3E0BE0728F0E0E8F2E00E9492
:1022EE002D1F02C00E948E1FB4C0E330A0E0FA077B
:1022FE0071F40E94811FAD3BE2E0BE0728F0E0E8DA
:10230E00F0E00E942D1F02C00E948E1FA2C0E4307A
:10231E00A0E0FA0711F50E94811FA73EE3E0BE0779
:10232E0018F00E94861F18C00E94811FAD3AE3E08C
:10233E00BE0780F00E94911F19F40E94981F02C0E0
:10234E000E949F1F0E94A51F0E94B01F10F40E94A2
:10235E00861F02C00E948E1F7CC0E530A0E0FA07E7
:10236E0009F077C00E94811FA73EE3E0BE0718F078
:10237E000E94861F6EC00E94811FAD3AE3E0BE0729
:10238E0080F00E94911F19F40E94981F02C00E94B3
:10239E009F1F0E94A51F0E94B01F10F40E94861F4F
:1023AE0058C00E94811FA934E3E0BE0718F00E94B6
:1023BE007C1F4FC00E94811FA734E3E0BE0718F0B8
:1023CE000E94861F46C00E94811FAD30E3E0BE070B
:1023DE0098F0EAE1E0938A000E94911F19F40E949E
:1023EE00981F02C00E949F1F0E94A51F0E94B01F2F
:1023FE0010F40E94861F2DC00E94811FA93AE2E0B0
:10240E00BE0718F00E947C1F24C00E94811FA73AAD
:10241E00E2E0BE0718F00E94861F1BC00E94811FBB
:10242E00AD36E2E0BE0798F0EAE1E0938A000E9442
:10243E00911F19F40E94981F02C00E949F1F0E94B4
:10244E00A51F0E94B01F10F40E94861F02C00E949A
:10245E008E1FE091CC06E0938700E091CB06E093CF
:10246E008600089544FE68C1EFEE4E2221FE04C0A0
:10247E00E0910605E03009F05BC1E2E0E515B1F44C
:10248E00E0E0E093BA050E94B41F0E94BC1FA0E1D9
:10249E000E94E51CE9E6F5E0FA93EA930E94C11F5B
:1024AE000E943F1F0E94B41F0E94C11FE89421F892
:1024BE00E0E0E093DC06E7B7EE7FE7BFE0E0E09315
:1024CE000705E0910E05F0E0E033A0E0FA0761F4B5
:1024DE00A0910805A13021F0A23011F0A53019F419
:1024EE0019D4A6E033D124C1E035A0E0FA0709F0F3
:1024FE0064C0A0910F05A734E9F5A0910805A63098
:10250E00C9F50E94C51FA0911005A63429F40E949A
:10251E004A1DA6E011D42EC0E0910B05E030A1F0CB
:10252E001AD4F8D3E0910B05EF5FE0930B05A5E00D
:10253E0003D4A0910B05A13220F0E0E0E0930B054F
:10254E0036C0A9E003D116C0E0910A05E03091F043
:10255E00E1D3E0910A05EF5FE0930A05A4E0ECD326
:10256E00A0910A05A13220F0E0E0E0930A051FC019
:10257E00A7E0ECD0A0910F05AE34F1F4A0910805C0
:10258E00A730D1F40E94C51FE0910C05E030A1F0F8
:10259E00C1D3E0910C05EF5FE0930C05A8E0CCD31E
:1025AE00A0910C05A13230F0E0E0E0930C05A6E01E
:1025BE00CDD00895AAE0CAD0BBC0E934A0E0FA0796
:1025CE0059F5A0E0A0D3A0910F05A635C9F4A091AE
:1025DE000805A33019F4E0E0E0930805A3E0ACD3BE
:1025EE000E94D01DE6E00E944F1FE0E1F5E0FA9355
:1025FE00EA93A6E00E94E51CA2E00E94D1170BC050
:10260E00A0910F05AD3439F4552029F0E0E0E093A8
:10261E000805A9E091D38CC0E334A0E0FA0709F0D5
:10262E0045C0A0910805A43019F4E0E0E093080538
:10263E00E0911005E0530E945E1F0E94CB1F11F423
:10264E00E0E2CE2EEC2DF0E0ED50FA4FC080A091DE
:10265E000F05A13441F4E1E0E0930905E091CF06C6
:10266E00E093BC0622C0A0910F05A53439F4E2E038
:10267E00E0930905E5E0E093BC0617C0A0910F05B5
:10268E00A63439F4E4E0E0930905E5E0E093BC06F6
:10269E000CC0A0910F05A23411F4A2E005C0A091C8
:1026AE000F05A73411F4A7E047D340C0E435A0E0EE
:1026BE00FA07E1F4A0910805A43019F4E0E0E093E4
:1026CE000805E0911005E0530E945E1F0E94CB1F8B
:1026DE0011F4E0E2CE2EEC2DF0E0ED50FA4FC0807A
:1026EE00E091C206E093BC06E5E01EC0E535A0E031
:1026FE00FA07C9F4E091C706E03021F4E091C9066B
:10270E00E03009F00FC00E94431D0E94301DE09181
:10271E00BF06EF5FE093C706E1E0E093C8060E94B4
:10272E00FC1DA4DD03C0E7E0E0930905A0E0EBD2B9
:10273E00E0E0E093790509C00E94D21F20F0A0913D
:10274E000507A03009F001C0EBD20895AA931A93A1
:10275E000A9310E000E0E0910605E03009F0CFC2E8
:10276E00E0910507E03011F441FE13C0A09112076D
:10277E00A93018F4AA81A03009F40AC0E09112071A
:10278E00EF5FE0931207F0E0E95FF84FAA81A083B4
:10279E00B6C2AA81A630F1F4E0910805E03039F016
:1027AE000E94D81FE081EA83E89426F812C00E94A6
:1027BE00D21F10F0B5D2A3C2E0E0E0930407E0917F
:1027CE001107EF5FE0931107F0E0E95FF84FE0814A
:1027DE00EA8311C0E0910805E03049F40E94D21F4F
:1027EE0028F09ED20E94D81FAA81A08304C00E9406
:1027FE00D81FE081EA83EA81E093060710E0F0E05B
:10280E003097B1F410E0143040F4E12FF0E0E558C9
:10281E00FA4FA0E3A0831F5FF6CFE0910407E030EC
:10282E0019F4E1E0E0930407E4E0E0930507F0C15A
:10283E00E130A0E0FA0709F03FC0CC2011F470D2CD
:10284E005EC2E4E0E0930805E0E0E09309050E9433
:10285E00DE1FA3E4A0830E94DF1DE1E0E09352059A
:10286E00AC2D0E94EC170E94DE1FA0915305A08391
:10287E000E94DE1FFF93EF93AC2DD6DCF0E0DF015C
:10288E000E948B1EE05DAF91BF91EC930E94DE1F04
:10289E00FF93EF93AC2DC8DCF0E0DF010E94931E96
:1028AE00AF91BF910E94E41F19F4E1E0E093040799
:1028BE00E9E0E0930507ACC1E230A0E0FA07D1F4FD
:1028CE00E5E00E94E91FA3E4A0830E94DE1FA5E4B9
:1028DE00A0830E94DE1FA0E3A0830E94DE1FA0E360
:1028EE000E94EC1F19F4E1E0E0930407E4E0E093AA
:1028FE0005078EC1E330A0E0FA0791F4E2E00E94F2
:10290E00E91F0E94F11F0E94F41FA2E50E94EC1F16
:10291E0019F4E1E0E0930407E9E0E093050778C1DC
:10292E00E430A0E0FA0709F055C0E2E00E94E91F8A
:10293E000E94F11F0E94F41FA0E50E94F71FE09174
:10294E00F206EF5CEC930E94DE1F0E94FE1FE4E68F
:10295E00F0E00E9404200E94FE1FEAE0F0E00E94D8
:10296E0004200E94FE1FEAE0F0E00E940A210E946D
:10297E000A20BF01A091C2060E94431F0E940E2092
:10298E00BF01A091C206B0E00E948B1EDF010E9423
:10299E00931E0E940E20BF01A091C206BB270E946B
:1029AE00931E0E940E20A0E30E94F71FE091C40622
:1029BE00E170E05DEC930E941120EA2DE370E05D82
:1029CE000E94E41F19F4E1E0E0930407E4E0E093D1
:1029DE0005071EC1E530A0E0FA0791F4E3E00E947E
:1029EE00E91FA9E4A0830E94DE1FA6E50E94EC1F4A
:1029FE0019F4E1E0E0930407E9E0E093050708C16C
:102A0E00E730A0E0FA0709F08BC0E0910A05E0304C
:102A1E0019F4E0E2E0930A05E6E00E94E91F0E9445
:102A2E00F11F0E9417200E94F41FBF01A0910A05FA
:102A3E00B0E00E948B1E0E940A20BF01A0910A05E1
:102A4E00BB270E94931EDB01EC930E94DF1D0E94A8
:102A5E001A200E94C81EEC91E03041F0FD01A081C9
:102A6E00A03221F0E09152050E1708F006C00E9428
:102A7E0011200E9423200F5FECCF0E94DE1F0E94C8
:102A8E0026200E941A200E94C81EEC91E03021F0F0
:102A9E00FD01A081A03209F404C0E09152050E1789
:102AAE0008F006C00E9411200E9423200F5FEBCF7A
:102ABE000E94DE1F0E9426200E941A200E94C81E1D
:102ACE00EC91E03021F0FD01A081A03209F404C0A8
:102ADE00E09152050E1708F006C00E9411200E94C8
:102AEE0023200F5FEBCF0E94DE1F0E942620E1E025
:102AFE00E0935205A0910A050E94EC170E94DE1F7A
:102B0E00A0915305A0830E94DE1FACE70E94EC1F2C
:102B1E0019F4E1E0E0930407E9E0E093050778C0DB
:102B2E00E930A0E0FA0749F5E0910B05E03019F421
:102B3E00E0E2E0930A05E6E00E94E91F0E94F11F21
:102B4E000E9417200E941720BF01A0910B05B0E034
:102B5E000E948B1E0E940A20BF01A0910B05BB276D
:102B6E000E94931EDB010E94E41F19F4E1E0E09342
:102B7E000407E9E0E09305074BC0EA30A0E0FA074E
:102B8E0009F046C0E0910C05E03019F4E0E2E09364
:102B9E000C05E7E00E94E91F0E94F11FAEE4A0833E
:102BAE000E94DE1F0E94F41FBF01A0910C05B0E031
:102BBE000E948B1E0E940A20BF01A0910C05BB270C
:102BCE000E94931EDB01EC930E949A1DE0E1E093BC
:102BDE005205A0910C050E94EC1700E00E94D21E37
:102BEE00E081E03021F0E09152050E1708F006C0AA
:102BFE000E9411200E9423200F5FF0CFE091040766
:102C0E00E03019F4E1E0E0930407E4E0E093050717
:102C1E0010937A05E12FF0E0E558FA4FA0E0A0837B
:102C2E007894E2E0E51509F05FC0E0E0E0930D0571
:102C3E00E093BA05EAEBF5E0FA93EA93EAE7F5E0FA
:102C4E00FA93EA93A6E00E94E51CAAEBB5E00E9477
:102C5E00C01C7E2EE6E0E71508F47E2E0E94292089
:102C6E00AEE2A0830E942920DF01E09108050E94B8
:102C7E002F20DF01E09111070E942F20DF01E0914C
:102C8E0012070E942F20BF01A09107070E94332038
:102C9E00BF01A0910807B0E0EAE0F0E00E940D212C
:102CAE00EF70E05DDB01EC930E942920BF01A09143
:102CBE0006070E943320AEE2A0830E942920A0E0E6
:102CCE00A0830E942920A0E0A0830E94BC1F0E9426
:102CDE00C11FAAEFB0E00E94D120E0E0E093BA0558
:102CEE000E94BC1F0E94C11FE0E0E093CA05992418
:102CFE001A9AE2E04E2AE0E0ECB95698559A1981FC
:102D0E00088123960895AA930E943D20A8811EDD76
:102D1E000C94A818E0E0E09308050E943D20089569
:102D2E00E0E0E09306074424E0931207E0931107D6
:102D3E00F1DF609008050895AA93E0E0E09309059D
:102D4E00E093DC06E093BC060E941C1DE881E09334
:102D5E0007050C94A8181A930A9316E000E00E9437
:102D6E00DF1D0E9443200E94BE1E0E94D21EA0E0C4
:102D7E00A083E2E0E51591F4E0E0F5E0FA93EA9342
:102D8E00ADE0B5E00E94660B0E943F1FE1E0F5E06A
:102D9E00FA93EA93A2E0B5E00E94660B0E944B20E4
:102DAE00A081AC3721F0E09152050E1708F009C052
:102DBE000E94C81E0E944B20E081EC931F5F0F5FA4
:102DCE00EDCF0E94D21EA0E0A083E2E0E51581F4D3
:102DDE000E94531EA3E0B5E00E94660B0E943F1FA7
:102DEE00E4E0F5E0FA93EA93A5E0B5E00E94660B05
:102DFE000E944B20A081AC3709F41F5F0E94502027
:102E0E000E9443200E94BE1E0E94D21EA0E0A083FC
:102E1E000E944B20A081AC3721F0E09152050E1795
:102E2E0008F003C00E945520F3CF0E94D21EA0E0EE
:102E3E00A0830E944B20A081AC3709F41F5F0E9433
:102E4E0050200E9443200E94BE1E0E94D21EA0E06F
:102E5E00A0830E944B20A081AC3721F0E091520557
:102E6E000E1708F003C00E945520F3CF0E94D21E09
:102E7E00A0E0A0830E944B20A081AC3709F41F5F15
:102E8E00A0910B050E94D1176FC01A93109168057F
:102E9E000DD0E0936805103011F4E11719F4E0E05D
:102EAE000C94C818E09168050C94C8181A930A93EC
:102EBE00C69810E10E94632000E00430E8F514FF8C
:102ECE000CC0B29B02C0E1E04FC0B39B02C0E2E077
:102EDE004BC0B49B02C0E3E047C015FF0CC0B29BD1
:102EEE0002C0E4E041C0B39B02C0E5E03DC0B49B2C
:102EFE0002C0E6E039C016FF0CC0B29B02C0E7E08C
:102F0E0033C0B39B02C0E8E02FC0B49B02C0E9E01F
:102F1E002BC017FF0CC0B29B02C0E8E125C0B39BCB
:102F2E0002C0EAE021C0B49B02C0E1E11DC0110F56
:102F3E000E9463200F5FC1CFE3B1EF70E3B9C69A71
:102F4E0000E00E3118F400000F5FFBCFB29B02C001
:102F5E00E5E10AC0B39B02C0E7E106C0B49B02C024
:102F6E00E6E102C0C698E0E00991199108951A931E
:102F7E000E94531EAEE9B1E00E94B31C11E0E09135
:102F8E006405E11728F0A895A12F04D01F5FF7CF95
:102F9E000C94C8180E946A2010E0E09152051E178A
:102FAE0010F4103108F00DC0ADE4B5E00E94321FF0
:102FBE003197DF010E94581EE0810E9440211F5F61
:102FCE00ECCF0E945A210C94E51B0E946A200E94AD
:102FDE00531EAEE9B1E00E94B31C10E0E091520521
:102FEE001E1710F4103108F00FC00E94581E0F016A
:102FFE00ADE4B5E00E94321F3197DF010E9434210B
:10300E00D001EC931F5FEACF0E94581EA0E0A08370
:10301E000E945A210C94E51BA0E387D0A0E385D033
:10302E00A0E383D0A0E381D0A0E27FD0A8E276D047
:10303E00A0E174D0ACE072D0A6E070D0A1E06ED06A
:10304E0001D00895AA98AB98A8E468D0A4E00E9495
:10305E0087200E948C200E949220A0E052D00E94D5
:10306E009220A4E04ED0AFE10E948720A4E049D088
:10307E00A0E047D0A4E045D0A4E00E948720A1E1C3
:10308E0040D00E948C20A0E03CD0A0E03AD0089521
:10309E00AA930E94532130E0EC813E1758F400E0D1
:1030AE0010E00436E0E01E0718F40F5F1F4FF9CF53
:1030BE003F5FF2CF0E945A210C94E51BAA931A93FC
:1030CE00A981A0582BD010E0103140F4AA81BB8109
:1030DE00EE27A10FBE1FEC91E03009F409C0AA81C2
:1030EE00BB81EE27A10FBE1FAC910BD01F5FECCFA3
:1030FE00103120F4A0E205D01F5FFACF18810C9496
:10310E005A1C0E949B20E4600E94A6200E94AA20C6
:10311E00E07FE4600E94A620AA9813C00E949B2024
:10312E000E94A6200E94AA2009C0AA93A5E0B0DFA3
:10313E00E5B3EF70E5BBE5B3AE2FE881E07F0E940B
:10314E00A620219608951A9310E8AF9AEFE7E4BBF4
:10315E00AB9AAA9817FF0FC0AF9A000000000000AC
:10316E00A99A00000000000013B317FF13B3AF9825
:10317E00A99809D0EFCFEFEFE4BBE5B3EF70E5BB55
:10318E00AB981991089500000000A99A0000000064
:10319E000000A998000000000895BA93AA931A930C
:1031AE00E0910605E03009F062C1EB81FC813097B9
:1031BE0089F40E94B91EA0EBB1E00E94B31CA98154
:1031CE00BA811D96E1E0EC93A981BA811F96E2E0E7
:1031DE00EC934CC1E130A0E0FA0739F40E94B91E1D
:1031EE00A1ECB1E00E94B31C41C1E230A0E0FA07AD
:1031FE0039F40E94B91EA1EDB1E00E94B31C36C194
:10320E00E330A0E0FA0739F40E94B91EA2EEB1E055
:10321E000E94B31C2BC1E430A0E0FA0729F40E94EF
:10322E00B91E0E94B22022C1E530A0E0FA0739F49F
:10323E000E94B91EA4E0B2E00E94B31C17C1E73091
:10324E00A0E0FA0729F40E94B91E0E94B2200EC116
:10325E00E830A0E0FA0739F40E94B91EA5E1B2E009
:10326E000E94B31C03C1E930A0E0FA0739F40E94B2
:10327E00B91EA4E2B2E00E94B31CF8C0EA30A0E08E
:10328E00FA0739F40E94B91EA4E3B2E00E94B31CFF
:10329E00EDC0EB30A0E0FA0739F40E94B91EA3E4AA
:1032AE00B2E00E94B31CE2C0EC30A0E0FA0739F4A1
:1032BE000E94B91EA2E5B2E00E94B31CD7C0ED3049
:1032CE00A0E0FA0739F40E94B91EA0E6B2E00E940F
:1032DE00B31CCCC0EE30A0E0FA0729F40E94B91E50
:1032EE000E94B220C3C0EF30A0E0FA0789F40E941A
:1032FE00B91EADE6B2E00E94B31CE0910A05E030C3
:10330E0011F0E15001C0E0E2EA930E94B620AEC097
:10331E00E031A0E0FA0739F40E94B91EA9E7B2E045
:10332E000E94B31CA3C0E131A0E0FA0789F40E9409
:10333E00B91EA6E8B2E00E94B31CE0910B05E03086
:10334E0011F0E15001C0E0E2EA930E94B6208EC077
:10335E00E231A0E0FA0739F40E94B91EA3E9B2E007
:10336E000E94B31C83C0E331A0E0FA0739F40E9437
:10337E00B91EA0EAB2E00E94B31C78C0E431A0E00E
:10338E00FA0739F40E94B91EA1EBB2E00E94B31CF9
:10339E006DC0E531A0E0FA0739F40E94B91EA0EC29
:1033AE00B2E00E94B31C62C0E631A0E0FA0789F4D5
:1033BE000E94B91EAFECB2E00E94B31CE0910C0566
:1033CE00E03011F0E15001C0E0E2EA930E94B62035
:1033DE004DC0E731A0E0FA0799F40E94B91EAEED98
:1033EE00B2E00E94B31CE09110050E94161FAE2F92
:1033FE00E0911105EF70EA0FEA930E94B62036C0F5
:10340E00E831A0E0FA0741F5E0911605A981BA81ED
:10341E00EC93E0911505A981BA811196EC93E09198
:10342E001405A981BA811296EC93E0911305A98136
:10343E00BA811396EC93E0911205A981BA81149684
:10344E00EC93A981BA811696E0E2EC93A981BA8138
:10345E001796E0E0EC930AC0E931A0E0FA0731F4E8
:10346E000E94B91EAAEEB2E00E94B31C99C1EB8174
:10347E00FC81309781F40E94B91EA4EFB2E00E9445
:10348E00B31CA0E020FCA1E0A13010F0E2E001C0EE
:10349E00E8E0E0936505AB81BC81129731F40E94A0
:1034AE00B91EA0E0B3E00E94BA20AB81BC81139795
:1034BE0031F40E94B91EAEE0B3E00E94BA20AB8197
:1034CE00BC81149731F40E94B91EAAE1B3E00E94A8
:1034DE00BA20AB81BC81119731F40E94B91EA6E2CD
:1034EE00B3E00E94BA20AB81BC81169731F40E94E2
:1034FE00B91EA5E3B3E00E94BA20AB81BC8115973B
:10350E0031F40E94B91EA5E4B3E00E94BA20AB814B
:10351E00BC81179731F40E94B91EA5E5B3E00E9455
:10352E00BA20AB81BC81189731F40E94B91EA4E673
:10353E00B3E00E94BA20AB81BC811A9731F40E948D
:10354E00B91EA0E7B3E00E94BA20AB81BC811B97E5
:10355E0031F40E94B91EA1E8B3E00E94BA20AB81FB
:10356E00BC811C9731F40E94B91EAFE8B3E00E94F3
:10357E00BA20AB81BC81199731F40E94B91EADE916
:10358E00B3E00E94BA20AB81BC81A238E0E0BE0756
:10359E0031F40E94B91EACEAB3E00E94C020AB81A8
:1035AE00BC81AF38E0E0BE0731F40E94B91EA9EB32
:1035BE00B3E00E94C020AB81BC81AC39E0E0BE0715
:1035CE0031F40E94B91EA8ECB3E00E94C020AB817A
:1035DE00BC81A537E0E0BE0731F40E94B91EA7ED0D
:1035EE00B3E00E94C020AB81BC815A9731F40E9497
:1035FE00B91EA6EEB3E00E94C020AB81BC819797A6
:10360E0031F40E94B91EA2EFB3E00E94B31CAB814D
:10361E00BC81D49731F40E94B91EA2E0B4E00E949E
:10362E00B31CAB81BC811D9731F40E94B91EA2E17F
:10363E00B4E00E94C020AB81BC81AE34E0E0BE0796
:10364E0031F40E94B91EADE1B4E00E94C020AB81FE
:10365E00BC81A134E0E0BE0791F5A0916705A130D1
:10366E0031F40E94B91EABE2B4E00E94B31CA091EB
:10367E006705A23031F40E94B91EA8E3B4E00E949F
:10368E00B31CA0916705A33031F40E94B91EA8E4C3
:10369E00B4E00E94B31CA0916705A43031F40E94DF
:1036AE00B91EA5E5B4E00E94B31CA0916705A53034
:1036BE0031F40E94B91EA2E6B4E00E94B31CAB81A5
:1036CE00BC81AB35E0E0BE0709F050C0A0916705A4
:1036DE00A13031F40E94B91EAEE6B4E00E94B31CD4
:1036EE00A0916705A23031F40E94B91EAFE7B4E095
:1036FE000E94B31CA0916705A33031F40E94B91E3D
:10370E00A0E9B4E00E94B31CA0916705A43031F487
:10371E000E94B91EACE9B4E00E94B31CA0916705EB
:10372E00A53031F40E94B91EADEAB4E00E94B31C7C
:10373E00A0916705A63031F40E94B91EACEBB4E03F
:10374E000E94B31CA0916705A73031F40E94B91EE8
:10375E00A9ECB4E00E94B31CA0916705A83031F427
:10376E000E94B91EA6EDB4E00E94B31CAB81BC81D1
:10377E00A836E0E0BE07A1F4A0916705A13031F4B0
:10378E000E94B91EAEEDB4E00E94B31CA091670575
:10379E00A23031F40E94B91EA8EEB4E00E94B31C10
:1037AE00A981BA810E94C01C1E2F103130F40E94D4
:1037BE00C21EE0E2EC931F5FF8CF188125960895A4
:1037CE00BA93AA932497AE81A43668F4B0E00E940F
:1037DE008B1EE05DE983AE81BB270E94931EE883BA
:1037EE00E0E0EA8313C0AE810E94431FEA83EE81BC
:1037FE000E944A1F0E948B1EE05DE983EE810E94AB
:10380E004A1F0E94931EE883E0E0EB83EC81FD816A
:10381E00FA93EA93DE0112960E948E1C2796089563
:10382E00BA93AA931A930A9300E00830D0F50E9437
:10383E00C6201C91E02FAA81BB81F0E0EA0FFB1F8E
:10384E00BF010E94CC20AA81BB81AE0FBF1FEC919D
:10385E00DB01EC930E94CC20AA81BB81EA0FFB1FF7
:10386E0010830E94C620AC91A03E28F00E94C62074
:10387E00AC91AB3F08F005C00E94C620EC91E0541D
:10388E00EC93103E10F01B3F08F009C00E94CC20B4
:10389E00AA81BB81AE0FBF1FEC91E054EC930F5F7A
:1038AE00C4CF1981088124960895959A0895959804
:1038BE000895BA93AA93A991B991E991F991309685
:1038CE002AF4E095F09531966DE26D93E89480E1DF
:1038DE0097E20DD088EE93E00AD084E6992707D0C0
:1038EE008AE005D06E2F10D066276C930895662758
:1038FE00E817F90720F06395E81BF90BC9F7662363
:10390E0011F416F008956894605D6D930895BA935E
:10391E00AA93E991F991A991B991CD016D9166237F
:10392E00E9F7119761916D936623E1F7FC01089514
:10393E00BA93AA93E991F991A991B9911D90059025
:10394E00011421F40020D1F7EE2708951018E1F3A9
:10395E00E1E008F4E2500895BA93AA93E991F9913F
:10396E00A991B991CD0105900D920020E1F7FC01CE
:10397E000895BA93AA93A991B991EE27FF276D9155
:10398E00662311F03196FBCF0895AA9300241124DB
:10399E006991E991F991A991B991662349F06A95D6
:1039AE001D900590011421F40020B9F7EE2708951B
:1039BE001018E1F3E1E008F4E2500895AA9379912A
:1039CE00E991F991A991B991CD01772351F07A95A9
:1039DE0061916D936623C9F7772319F07A956D93EC
:1039EE00FBCFFC010895AA93BA93EA93FA93EFB72B
:1039FE00EA930895E091CA05F0E0E658FA4FE081A7
:103A0E000895EDE4F0E0E0934F05F093500508952E
:103A1E00EAE0E0935205E3E5F5E0FA93EA930895C0
:103A2E000E94B31CA1E00C94D117E0E0E093FE06D7
:103A3E00CC240895E091BF06EF5FE093C706EAEF4E
:103A4E00F0E0E093FF06F0930007E1E0E093C80694
:103A5E000895EAEFF0E0E093FF06F0930007089573
:103A6E00E0E0E093D506E093D606E1E0F0E0E093E7
:103A7E00D706F093D8060895CC24E0E0E093FE0636
:103A8E00DD240C947006E0E0E0930B05E0930A054C
:103A9E000895E4EFF6E0FA93EA93A091FE060C94F3
:103AAE003010E1E0E0930605E0E0E093DE060895D5
:103ABE00A091D506B091D6060895E093D706F0935F
:103ACE00D8060895E091ED06F0E03197ED5AFA4FE1
:103ADE000895E1E6F0E0E0934F05F0935005089568
:103AEE00E0936405EAE0E09352050895E3E0E09385
:103AFE000605E1E0E0936705E093ED06E093EE0640
:103B0E000895E2E0E0930605E1E0E0936705E093B7
:103B1E00ED06E093EE060895E7E5F0E0E0934F053D
:103B2E00F09350050895EFE3F4E0E0934F05F09322
:103B3E0050050895E0936405E0E1E0935205089581
:103B4E00E0930605E1E0E0936705E093ED06E0E023
:103B5E00E093F106E093F006E1E0E093EE060895BF
:103B6E00EFE6FAE0E0934F05F09350050895E093E9
:103B7E005205E2E0E5CFE5E3FBE0E0934F05F0937D
:103B8E0050050895E4E4FBE0E0934F05F0935005F3
:103B9E000895E0E4F0E0E0934F05F09350050895AA
:103BAE00ECE4FBE0E0934F05F0935005E0E0C2CF6C
:103BBE00ECE4FBE0E0934F05F09350050895A091DF
:103BCE0067050C94EC17E0E0E0936705E093DE06E2
:103BDE00E09306050895AD2D0E945D10CE2EE3E014
:103BEE00E093DB06A1E00C943D11E3E0E093DB06ED
:103BFE00A1E00895E5E0E093DB06A2E00895E091F0
:103C0E00D506F091D6060895E1E0E093DF06E0E0F8
:103C1E00E093D506E093D606E091DF06F0E048DFAC
:103C2E00EA0FFB1F4ADFE0E0E093FE06DECFE091F5
:103C3E00DF06F0E03DDFEA0FFB1F3FCFE093D50636
:103C4E00F093D6060895A09167050C94D117E1E084
:103C5E00E093ED06E0E0E093F106E093F0060895C0
:103C6E00E1E0E0935205A3E00C94EC17A3E00E9470
:103C7E00890BE0915305EF700895E6E0E09352054D
:103C8E00A1E00E94EC17E3E5F5E0FA93EA93E6EB88
:103C9E00F0E0FA93EA930895E3E5F5E0FA93EA93F8
:103CAE000895E12FF0E0ED5AFA4F0895E091F006F5
:103CBE00EF5FE093F00608951E2FA091F006A3305B
:103CCE0008959DDFFA93EA93AFECB5E00C94D41807
:103CDE00AFEDB5E00C94171CE0E1E0935205AC2D6E
:103CEE000C94EC17EFECF5E0FA93EA930895AC2DF3
:103CFE00B0E0E4E6F0E00E9405210895EC2DF0E03E
:103D0E00E456F040DF010895EAE0F0E00E9405215C
:103D1E000895AC2DB0E0F8CFEAE0F0E00E940D215E
:103D2E00E05D0895E091D706F091D806FA93EA93F4
:103D3E00AFEDB5E00C94D418AFECB5E00C94171CB5
:103D4E00AFEDB5E00C94610BEA81FB81FA93EA9337
:103D5E00A0E00E946518E881F981FA93EA93A0E445
:103D6E000C946518E981FA81FA93EA930895A3E217
:103D7E00B1E00C94B31CA981BA81EE27A10FBE1F2E
:103D8E000895A02FB0E0AD5ABA4F0895ED5AFA4FEC
:103D9E00E081EC930895E02FF0E0ED5AFA4F08958C
:103DAE00DE011896EE0FFF1FAE0FBF1F08950E9483
:103DBE002D21EA1BFB0B0895E0935205A1E00E9412
:103DCE00EC17A1E00E94890BE0915305EF70089566
:103DDE00E0915405EF70AAE0EA02F001AE2FE091F7
:103DEE005505EF70EA0F0895A2E00E94EC17A2E0CD
:103DFE000E94890BE0915305EF700895ACE3B1E09A
:103E0E000E94B31CA3E00C94D117A4E00E94EC17FF
:103E1E00A4E00E94890BE0915305EF700895EF70B6
:103E2E00AAE0EA02F0010895AAE3B1E00E94B31CF1
:103E3E00A2E00C94D117E0935205E3E6E0936405FB
:103E4E000895A091CB06B091CC060895E093CB06D1
:103E5E00F093CC060895ED91FD913196FE93EE937D
:103E6E000895A6E3B1E00E94B31CA3E00C94D11711
:103E7E00A4EFB1E00C94D120B0E0E4E6F0E00E94B3
:103E8E000521E05D0895F0E0E456F040DF0108956D
:103E9E00E093520501CF0E94B31CA2E00E94D117FD
:103EAE00FBCE0E94B31CA4E00E94D117F5CEAAE06F
:103EBE00EA02F001AE2F08950E94EC17FE01329631
:103ECE00FA93EA930895E12FF0E03197E95AF94F0A
:103EDE000895AB81BC81EE27A10FBE1F0C904BCF76
:103EEE00E093CD06F093CE060895E0E0E0938A00CD
:103EFE001B980895A091CD06B091CE060895E0913D
:103F0E00DB06ACE0EA9FF001E058FF4F9FCFE1E007
:103F1E00F0E0E6CFEFDFE6E0F0E00E940A21309716
:103F2E000895E0EDFFEFE093D106F093D2060895E9
:103F3E00E0E0E093D106E093D2060895E091DB062F
:103F4E00F0E03396ACE0B0E00E94ED20A0E8B0E0E7
:103F5E002ECF77DFAE17BF070895E0E0E093690537
:103F6E00E9E6F5E0FA93EA930895EDE0F5E0FA93C9
:103F7E00EA930895AAEBB5E00C94660BE0E0E093AB
:103F8E000805A0E00C948A16E0911105E053EA0FA3
:103F9E00CE2ECC200895E0911207A0911107AE17F6
:103FAE000895E0911107F0E0E95FF84F08951F5F63
:103FBE00E12FF0E0E658FA4F0895EC93E0910407F4
:103FCE00E0300895E0930805F2CFA083E091040756
:103FDE00E0300895A0E5A083EACFA3E5A083E7CF64
:103FEE00A0831F5FA12FB0E0A658BA4F0895BF015E
:103FFE00A091CF06B091D00608950E94F220E05D08
:10400E00DB01EC93D4CFE05DDB01EC93D0CFDB0191
:10401E00EC93CDCF1F5FA12FB0E0A658BA4F0895F5
:10402E00A7E4A083C4CFE0E1E0935205A0910A0576
:10403E000E94EC1700E00895E02FF0E0A7CEACE769
:10404E00A083B6CDE72D7394F0E0E654FA4F0895B1
:10405E00EF70E05DEC93F6CFBB27EAE0F0E00E9454
:10406E000D21EF70E05DDB01EC93ECCFE0E0E0932F
:10407E000507E09304070895E0E1E0935205E0E0C0
:10408E00E093640500E008CEE12FF0E0E35FFA4F25
:10409E000895A0910B050E94D1178ACDE02F0F5FD6
:1040AE00F0E0ED5AFA4FDF01E12F1F5FF0E0E35F22
:1040BE00FA4FE081EC930895E3B1EF70E3B9E3B109
:1040CE00E12BE3B90895AA930E945321EC81E0936A
:1040DE005105F0E031979F01E0914F05F0915005A9
:1040EE00E050F040BF01E0915205F0E0D9010E948E
:1040FE00ED20E60FF71FE0934D05F0934E05089562
:10410E000E948818AEE00C948818AFE10E948818BF
:10411E00A4E00C948818A4E00E948818A4E00E94E1
:10412E008818A4E00C948818AA930E94AA18E5B3E4
:10413E00EF70E5BBE5B3AE2FE881E07F0895EA2B83
:10414E00E5BB0C94CA18E5B3EF70E5BBE5B3AE2F33
:10415E00E881E2950895A3EFB1E00C94B31CAA8117
:10416E00BB810C94E71B0E94B31CE2E0E093660552
:10417E0008950E94B31CE0916705EA93F0CFAA81DF
:10418E00BB81EE27A00FBE1F0895E02FF0E0AFE039
:10419E00B0E00DCE109639F088EE93E00197F1F76E
:1041AE00A8951197C9F70895F195E195F0400895F6
:1041BE00FA9FF02DEB9FF00DEA9FE02DF10D089583
:1041CE006E2F6A9FF0016B9FF00D08952DD0F0DFDA
:1041DE000EF4EADF08950024112490E1AA0FBB1F0C
:1041EE00001C111C0E1A1F0A18F40E0E1F1E01C001
:1041FE00A1609A9599F7FD01D001089515D0EBDFD6
:10420E000EF4D2DF0895E7DFFD010895E894B7FFBD
:10421E0004C0A095B09511966894F7FDC5DFDBDF5D
:10422E00FD010EF4C1DF0895E894F7FF02C0BCDF74
:10423E006894B7FF06C0A095B095119600F8039448
:10424E0000FA0895ED91FC91119708951B2EBF2F42
:10425E00F12D1A2EAE2FE12D0895E199FECFFF9389
:10426E00FFB7F894AEBBBFBBE09AEDB3FFBFFF91B3
:10427E000895E19B02C0A895FCCF9FB7F894AEBB02
:10428E00BFBBE09A8DB3E81719F0EDBBE29AE19A45
:10429E009FBF08955A934A933A932A931A930A9377
:1042AE0008955D814C813B812A8119810881089591
:00000001FF
