:080000000C946E040C94000046
:100008000C9400000C9400000C9400000C94000068
:100018000C9400000C9400000C9400000C94131134
:100028000C9400000C9400000C9400000C94000048
:100038000C9400000C9400000C9463050C940000D0
:100048000C94A1040C941D050C9407050C94000055
:100058000C9400000C9400000C9400000C94000018
:100068000C9400000C9400000C9400000C94000008
:100078000C9400000C9400000C9400000C940000F8
:100088000C9400001027E80364000A000100001027
:10009800000110000100000000000000313233347C
:1000A8003536202020202020202020202000332E1C
:1000B800362E30332E3132380052696E6773207411
:1000C8006F20617070203330200020EEF6ECF6ECE3
:1000D80020ECE3E9F8E420333020004469616C73D4
:1000E80020746F20617070203330200020EEFAF702
:1000F800F9F820ECE3E9F8E42033302000466169A0
:100108006C20636F6E6E656374203330200020ECC2
:10011800E020EEE7E5E1F820E32720333020004334
:10012800616C6C2074696D656F75742033302000C4
:1001380020F9E9E7E420E4F1FAE9EEE4203330209D
:1001480000202053746172742074616C6B2033300A
:100158002000E4FAE7EC20F9E9E7E420E32720337C
:100168003020004170702033302020707265737326
:100178002020202400E3E9F8E420333020ECF6ECDA
:10018800F6E5EC202400202020202020202020201C
:100198002020202020200030333000303031003043
:1001A80039390030313000313830003032300031E8
:1001B8003233003132333435360032353235323568
:1001C800003030300030303500303630004170615A
:1001D80072742023312020202000E3E9F8E4202352
:1001E800310041706172742023322020202000E306
:1001F800E9F8E4202332004170617274202333202F
:1002080020202000E3E9F8E42023330020202020E8
:1002180020202020202020202020202000004865A9
:100228006C6C6F2C205573652020202020200054F2
:100238006F207365617263682061206E616D65006F
:10024800546865206C6174636800697320756E6C0E
:100258006F636B656400576169742074696C6C0026
:10026800656E64206F662064656C617900202020CB
:10027800726573657420646F6E652E2E2E004E6F46
:1002880020616E737765720053797374656D2065AC
:1002980072726F7200436F6E6E65637465640050AE
:1002A8006C656173652074616C6B004C696E6520C8
:1002B8006973206275737900506C65617365207786
:1002C8006169740053656E64656420206E6F202335
:1002D8000053656E64696E6720646F6E652E005208
:1002E80065636569766564206E6F202300526563D7
:1002F8006569766520646F6E652E004661696C20BD
:100308006F76657220746F2047534D004E6F2047FB
:10031800534D20756E69742E004E6F2047534D2043
:1003280063616C6C0053656E646564206E616D6515
:10033800202300566F6C74616765206170702023FC
:100348000050524F472E204D454E5500416363657E
:10035800737320636F646573004D617374657220F5
:10036800436F6465005573657220636F646500545C
:10037800656E616E74730052656C61797320746F79
:100388002041706172742E0054696D696E67732024
:1003980028736563290053657474696E6773004632
:1003A800572056657273696F6E730050686F6E657B
:1003B800730050686F6E65732067726F75702032B6
:1003C8000050686F6E65732067726F757020330018
:1003D80043616C6C20666F7277617264696E670046
:1003E80050686F6E6520666F7220230050686F6ECC
:1003F80065203220666F7220230050686F6E65207A
:100408003320666F7220230043616C6C20666F7224
:10041800776172642300456E74657220636F64654A
:10042800202300536574206D617374657220636FB7
:10043800646500536574207573657220636F646525
:1004480000456E746572206E616D652023005265EB
:100458006C617920746F2041702E230044656C61B3
:10046800792054696D6500446F6F72204F70656E16
:10047800696E6700496C6C756D696E6174696F6E41
:10048800004469616C2054696D650054616C6B208F
:1004980054696D6500446F6F722049442028317E8D
:1004A800342900536F756E64207479706520283183
:1004B8007E3329005265736574207479706520282D
:1004C800317E3629004F4646206166746572207574
:1004D8006E6C6F636B00466F7263652063616C6C52
:1004E8002028307E31290053656E64696E6720705C
:1004F800686F6E657300476574696E672070686F12
:100508006E6573004465627567206D6F64652028A9
:10051800307E312900576F726B206D6F646520281B
:10052800317E3429004C43442046572E564552000C
:10053800322D576972652046572E56455200F9EC00
:10054800E5ED2CE4F9FAEEF920E120202020002046
:10055800ECE7E9F4E5F920E3E9E9F8E9ED2E00F044
:10056800E020ECF4FAE5E7202020202020202000DD
:100578002020202020E0FA20E4E3ECFA21212120A9
:1005880000F0E020E4EEFAEF2020202020202020B8
:100598002000202020ECF4FAE9E7FA20E3ECFA2E18
:1005A8002E2E00EEFAE1F6F220E0E9F4E5F12E2E27
:1005B8002E00202020E0E9EF20EEF2F0E4202020B9
:1005C8002000EEEEEEE9F820E4E3E52DE2E9E3E9C8
:1005D80000202020E9F920EEF2F0E420202020007D
:1005E8002020F0E020ECE3E1F82E2E2E200020E47D
:1005F800F7E520E1F9E9EEE5F92000F9E5E3F8206F
:10060800EEF1F4F8202300F9E9E3E5F820E4F1FA43
:10061800E9E9ED00E4FAF7E1EC20EEF1F4F8202343
:1006280000F7E1ECE420E4F1FAE9E9EEE400E4F2B1
:10063800E1F8FA20F9E9E7E420F0EBF9ECE400E767
:10064800E9E9E2EF20ECE020EEE7E5E1F800E7E990
:10065800E9E2EF20ECE020EEE7E9E9E200F9E5E382
:10066800F820F9ED20E3E9F8E4202300EEFAE7208A
:10067800E1E3E9F8E4202300EEF1E3F820F9EEE500
:10068800FA0020FAF4F8E9E820F8E0F9E90020F89F
:10069800F9E9EEFA20E4F7E5E3E9ED002020F7E5D3
:1006A800E320E2E9F9E420002020F7E5E320ECF775
:1006B800E5E7200020F9EEE5FA20E4E3E9E9F8E9C6
:1006C800ED2000F0E9FAE5E120ECF4E920E3E9F8AF
:1006D800E5FA0020E6EEF0E9ED2029F9F0E9E5FA7F
:1006E800282000E4E2E3F8E5FA20F4F0EC20E3EC5B
:1006F800FA00E2E9F8F1FA20FAE5EBF0E400E8ECB8
:10070800F4E5F0E9ED20ECF4E920E3E9F8E400EEA3
:10071800F1F4F8E920E8ECF4E5EF203200EEF1F42A
:10072800F8E920E8ECF4E5EF203300EEF6E120E408
:10073800F2E1F8FA20F9E9E7E400E8ECF4E5EF2063
:10074800ECE3E9F8E42000E8ECF4E5EF203220ECF3
:10075800E3E9F8E42000E8ECF4E5EF203320ECE3EB
:10076800E9F8E42000E4F2E1F8FA20F9E9E7E42006
:10077800E327200020E4EBF0F120F7E5E320230055
:1007880020E4EBF0F120F7E5E320E2E9F9E42000CA
:1007980020E4EBF0F120F7E5E320ECF7E5E72000B3
:1007A80020E4EBF0F120F9ED202300F0E9FAE5E18F
:1007B80020ECE3E9F8E42023002020E6EEEF20E433
:1007C800EEFAF0E4200020E6EEEF20F4FAE9E7FA8A
:1007D80020E3ECFA20002020E6EEEF20FAE0E5F82E
:1007E800E420002020E6EEEF20ECEEF2F0E420001A
:1007F8002020E6EEEF20F9E9E7E42000E6E9E4E569
:10080800E920E3ECFA203120F2E3203400E4E2E3CB
:10081800F8FA20F6ECE9EC20302C312C3200E0E933
:10082800F4E5F120EBECECE92000F0E9FAE5F7203B
:10083800ECE0E7F820F4FAE9E7E400EEF6E120E777
:10084800E8E9F4FA20F9E9E7E400ECF9E3F820E84C
:10085800ECF4E5F0E9ED00ECF7E1EC20E8ECF4E588
:10086800F0E9ED00EEF6E120E8F1E800E0E5F4EF6C
:1008780020F4F2E5ECFA20F4F0EC00E2E9F8F1FA01
:1008880020F4F0EC00E2E9F8F1FA20EEEEE9F800E5
:1008980001002D4E414E00494E4600000100020065
:1008A8009E0004000400A00001000005B50001003E
:1008B8000105B50001000205B50001000305B500FA
:1008C80001000405B50001000505B5000100520747
:1008D80098080000F894EE27ECBBF1E0F5BFE5BFFF
:1008E800E0936C00F8E1F1BDE1BD8DE0A2E0BB272B
:1008F800ED938A95E9F780E090E1A0E0B1E0ED930F
:100908000197E9F7E4EAF8E085919591009761F09D
:10091800A591B59105901590BF01F00105900D9234
:100928000197E1F7FB01F0CF8BBFEFEFEDBFE0E1FF
:10093800EEBFC0E0D5E00C946D050E94AD231A937C
:10094800AF93BF93EF93FF93AFB7AF9388241CB1D6
:10095800E1E0E2BFE7B7E160E7BF44FC40C0103028
:10096800B1F1E0917A05F0E0E25FFA4F1083E0918F
:100978000E05F0E03196A0917A05B0E0AE17BF07FA
:1009880094F0E7B7EE7FE7BF992011F4E1E09E2EDF
:10099800191511F4689401C0E89421F8E0E14E2A91
:1009A800E7EF4E2207C0A0917A05A13018F0E8E0E1
:1009B8004E2A910EE0917A05EF5FE0937A05E09177
:1009C8007A05F0E0E25FFA4FA0E0A08308C0E7EE06
:1009D8004E22E0E0E0937A05E89421F89924E0912A
:1009E8007A05F0E03396E134A0E0FA071CF0E0E085
:1009F800E0937A05AF91AFBFFF91EF91BF91AF91AF
:100A080019910C945C05EA93EFB7EA93AF93BF93FF
:100A1800EF93FF93AFB7AF9356981A989924EDEFD9
:100A28004E228824AF91AFBFFF91EF91BF91AF9154
:100A38004CC00E94AD23AF93BF93EF93FF93AFB722
:100A4800AF93E091CB05E03029F1E0917B05F0E030
:100A58003196A091CB05B0E0EA17FB071CF4559836
:100A6800569A17C0E0917B05A091CB05EA1730F4A0
:100A7800992011F4E1E09E2E9CB806C00E94B42390
:100A88009E0E0E94B423ECB9E091CB05EF5FE09392
:100A9800CB0508C00E94B423ECB9E091CB05EF5F09
:100AA800E093CB05AF91AFBFFF91EF91BF91AF91AD
:100AB800E991EFBFF991E991B991A9911895EA9354
:100AC800EFB7EA93E7B7EE7FE7BFE991EFBFE991A8
:100AD8001895EFE1E1BDEFE0E1BDE0E0EBBBEFEF42
:100AE800EABBE0E8E8BBE1E2E7BBE0E0E5BBEFEF4B
:100AF800E4BBE0EDE2BB909AECE7E1BB8898E7E065
:100B0800E3B9EEEFE2B9E0E0E0936200EFEFE093E3
:100B18006100ECE9E0936500E4E0E0936400E7E05D
:100B2800E3BFE0E0E0BFE1E0E2BFE0E0E1BFEFBD4E
:100B3800EEBDEDBDECBDEBBDEABDE9BDE8BDE093A2
:100B48007900E0937800E4BDEAEFE3BDEBE0E5BDB2
:100B5800E3E4E0938B00E0E0E0938A00E09389000F
:100B6800E0938800E1E0E0938700E0E0E09386000E
:100B7800E0938500E0938400E0938300E093820093
:100B8800E0936A00EABFE9BFE7B7E068E7BFE7B705
:100B9800E469E7BFE7B7EE7FE7BFE0E0E0937D00F9
:100BA800EBB9E8EDEAB9E6E0E0939500E9E1E9B9E7
:100BB800E0E0E0939000E0939B00E0939A00E093DC
:100BC8009D00E0939900E0939800E0E8E8B9E0E040
:100BD800E0BD78940E948D1A0E94061C0E94BB23D7
:100BE800A091F906A23378F4809906C0E091000735
:100BF800EF5FE093000701C006C0E091F906EF5FE0
:100C0800E093F906EDCFA091F906A23310F0E1E0E8
:100C180001C0E0E0E09306050E94BB230E94720F2A
:100C2800E0E0E0930805689422F8E89421F8E3EB03
:100C3800E0931007E7B7EE7FE7BF559831D2E8E3B6
:100C4800E0934107C09AA8950E941215E0916300AD
:100C5800E87051F4A091F906A33328F4E091F9065D
:100C6800EF5FE093F90603C0E0E0E093F906A09196
:100C7800F906A23371F40E94C1230E94C823A4EA92
:100C8800B0E00E94D023E3E0E0931707A4E00E94BD
:100C9800FB14E0916300E07111F0879904C0A09102
:100CA8000705A03009F00AC0A0910007A33328F473
:100CB800E0910007EF5FE093000703C0E0E0E093F6
:100CC8000007A0910007A23339F40E94D5230E949F
:100CD800DC23E4E0E0931707E0910207E03021F419
:100CE800E0910307E03009F41BC00E94D523E0E03F
:100CF800E0930307E091FB06E03049F00E940F23E0
:100D0800E091FB06EF5FE09304070E94EB23E1E02C
:100D1800E0930507E4E0E0931707ABE00E9487172C
:100D2800E0910407E03021F4E0910507E03009F490
:100D380012C0E0910705E03011F40E94F223E0E0D0
:100D4800E09305070E941123E091FE06E03019F0B8
:100D5800A2E00E948717E091F806E03031F0E0E069
:100D6800E093F806E3E0E0931707E0911907E03015
:100D780041F0E0E0E0931907CC24E0933607DD2446
:100D880096D1BB20E1F4E5E0BE2E0E94451BE0931E
:100D98001507E030A1F0E091FC06E03021F0EF5FAC
:100DA800E0930107A89AA1D2E0910507E03021F469
:100DB800E0910705E03009F002C00E94EB2341FCF6
:100DC80002C00E94F71597D526FE05C0E89426F8BC
:100DD800E8E7E093420725FE3CC0E89425F8E09157
:100DE8000705E03039F0E0914207E03019F0E150B2
:100DF800E0934207E0914407E03059F1E150E09375
:100E08004407E03031F5E0914307E030D9F0E15094
:100E1800E0934307E03091F4A0914507A03021F416
:100E2800A0910905A03009F004C0A6E00E94871728
:100E380004C00E948D1A0E94FE2303C0A6E00E94EF
:100E4800871707C00E948D1AA1E00E949B1A0E9472
:100E5800FE23A0914107A23020F0A0910705A03001
:100E680009F019C0E0913607E03091F00E9404249F
:100E7800E13870F40E940424CE2EAC2D0E94CB14CD
:100E8800E03029F0AC2D0E94CB14E13808F0CC24D6
:100E9800E0E0E0933607E0914207E03021F4A091CA
:100EA8000705A13008F403C015D014D000D1A091D3
:100EB8004007AE3720F0A0910705A23008F404C01F
:100EC800E0E0E093400734D024FEFECFE89424F815
:100ED800BACEFFCFE0911A07E03039F4E0E0E093B2
:100EE8000705E89420F8E3D022C00E940C24E09182
:100EF8001A07F0E0E45EF84FE081E0931B070E94D8
:100F08001324EDE0F0E00E9463280E941824E09189
:100F18001B07F0E0A0911307B0911407AE1BBF0B9D
:100F2800A0931107B0931207E0E0E09368050895D5
:100F3800A0910705A53009F40895E0912A07E0304B
:100F480049F00E941D24E081E0932B070E941D2494
:100F5800AEE204C00E941D24A0912B07A083A0919B
:100F68002A07E1E0EA27E0932A070895E0E0E09302
:100F780040070E9413245A9739F40E942424E4E17C
:100F88000E942B240E9431240E941324979739F43D
:100F98000E94C123E1E00E942B240E943C240E946D
:100FA8001324D49739F40E944724E1E00E942B24AB
:100FB8000E943C240E9413241D9741F40E944E2451
:100FC800E0E80E945524E4E00E945B240E94132478
:100FD800AE34E0E0BE0729F40E946B24E0E80E94EA
:100FE80072240E941324A134E0E0BE0729F40E9471
:100FF8007924E5E00E9472240E941324AB35E0E0D6
:10100800BE0759F40E948024E9E0E0936505E1E019
:10101800E0935305E2E00E945B240E941324A83663
:10102800E0E0BE0741F40E948724E2E00E945524D4
:10103800E5E00E945B240E941324A238E0E0BE078A
:1010480021F40E948E240E9431240E941324AF3878
:10105800E0E0BE0721F40E948E240E9431240E9401
:101068001324AC39E0E0BE0721F40E948E240E94CC
:1010780031240E941324A537E0E0BE0751F40E94F2
:101088009624E0E0E0936505E1E0E09353050E94D3
:101098003C24E0916805E03011F00E949D240895F9
:1010A8000E94F2230E94A1240E94720F08950E94B8
:1010B800F2230E94A124E0E0E0934107E0930A05AF
:1010C800E093F70608951A93F2DFA0911507A5316A
:1010D80069F4E0E0E093F706D394E091F606ED15A5
:1010E80010F4E1E0DE2E0E94A924FEC0A0911507AD
:1010F800A73169F4E0E0E093F706E1E0ED1518F0B8
:10110800D090F60601C0DA940E94A924EDC0A091FF
:101118001507A63109F049C0E0E0E0933D07E091EA
:101128003607E03041F00E940424E13820F40E94A0
:101138000424E03011F4CC2081F1CC2019F40E9471
:101148000424CE2EE1E0F0E0E0933E07F0933F0761
:10115800E89425F8E0E0E09318070E948D1AAC2D7A
:101168000E94CB14E13028F0AC2D0E94CB14E1385A
:1011780008F00DC0A1E00E948717E1E0E093F806AF
:10118800E0910A07E093F7060E94B32403C0CC2439
:101198000E94B8240E94FB1404C00E94B8240E9434
:1011A800FB14E0E0E09336079FC0A0911507A83133
:1011B80009F052C0E0E0E093F7060E94BB101E2F32
:1011C8000E94BD24309709F03FC0113039F40E94C5
:1011D800D5230E94DC230E94B32433C0123041F48B
:1011E800A0910207A03021F4A0910407A03009F0D3
:1011F8000BC00E948D1A689426F8E89420F80E9483
:101208000C240E94C2241DC0133041F4A09102078F
:10121800A03021F4A0910407A03009F00EC00E946C
:101228008D1A689426F8E1E0E093070520F8E0E0DD
:10123800E0931A070E94C22404C00E94D7240E9487
:10124800B8240E94FB1407C0E0E0E09336070E9430
:10125800B8240E94FB1448C0A0911507A13010F0D3
:10126800AB3008F02EC00E94B3240E94FB14CC249B
:10127800DD24A0911507AA3019F4E0E0E0931507E2
:10128800E0913607F0E0E05DF84FA0911507A083E4
:10129800E0913D07F0E0E95CF84FA083A0913607A4
:1012A800A63028F4E0913607EF5FE0933607A09167
:1012B8003D07A63028F4E0913D07EF5FE0933D0736
:1012C80013C0A0911507A13179F4E0E0E093F70687
:1012D8000E94D724E1E0E09319070E94B3240E94FA
:1012E800FB14A2E00E94871704C3E0910705E030D1
:1012F80029F4E3E0E0931807E6DE17C1A09107059B
:10130800A13009F05CC0E8E7E0934207A091150717
:10131800A53181F4E0916605A0911B07EA1711F445
:10132800E1E003C0E0911B07EF5FE0931B070E9419
:10133800DD2444C0A0911507A73179F4A0911B07BB
:10134800A13019F4E091660503C0E0911B07E15054
:10135800E0931B070E94DD2431C0A0911507A63138
:1013680039F5E0916705F0E03197A0911A07B0E0F0
:10137800AE17BF07DCF4E0911A07F0E0E45EF84F1F
:10138800A0911B07A083E0911A07EF5FE0931A076B
:10139800E1E0E0931B07A0911307B0911407EDE07B
:1013A8000E9458280E94E4240E94DD24DFDD06C044
:1013B800A0911507A13111F48DDD90D5B0C0E09151
:1013C8002A07E03009F4B4DDE8E7E0934207A0918A
:1013D8001507A831F9F40E9413241D9791F4E091A0
:1013E8002907EF5FE0932907E0E0E0932C07E091FD
:1013F8005305A0912907EA1718F4E1E0E0932907BB
:1014080008C0A0910705A33021F4E1E0E093290783
:101418008DD085C0A0911507A531C1F4A09107050D
:10142800A53011F00E94E924E0916505A0916805B6
:10143800AE1720F4E0916805EF5F01C0E1E0E093AA
:1014480068050E949D240E94ED2469C0A09115079B
:10145800A731B9F4A0910705A53011F00E94E9243D
:10146800A0916805A23020F0E0916805E15002C023
:10147800E0916505E09368050E94ED240E949D2493
:101488004EC0A0911507A131A9F5A0912907A23056
:1014980048F0E0912907E150E0932907E0E0E09364
:1014A8002C0727C00E94E9240E9480240E94F62469
:1014B8000E94FC24E0932F070DDDE0912F07E03018
:1014C80019F008DD0BD515C00E9487240E9403255A
:1014D800A0E10E947F23E03061F00E941225E6EB34
:1014E800F0E0FA93EA93A0E10E947F23A1E00E9432
:1014F800CA1B15C0A0911507A63189F00E941324B4
:101508001D9711F44FD00BC0A0910705A53009F421
:101518000895A0912907A13009F408D017D0E3E075
:10152800E0931707A1E00E94FB1408951A93E09135
:101538002907E1501E2FE09153051E1730F40E9431
:101548001725A0E2A0831F5FF6CFD3C1A09115078E
:10155800A13010F0AB3008F024C0A0911507AA30D4
:1015680019F4E0E0E09315070E941D24DF01E091E3
:101578001507E05DEC93E0912907EF5FE0932907F9
:10158800E0915305A0912907EA1740F4E1E0E093C0
:101598002907A0910705A43009F4C8DFE0E0E0932B
:1015A8002C0708951A93E0E0E0932D07A091150702
:1015B800A13010F0AB3008F09CC1A0911507AA30FB
:1015C80019F4E0E0E0931507E0911507A0911607DC
:1015D800EA1711F0E1E003C0E0912C07EF5FE09318
:1015E8002C07E0911507E0931607A0912C07A4306B
:1015F800C9F4A0911507A730A9F0A93021F0A0914E
:101608000605A13069F0A0911507A43041F0A53076
:1016180031F0A93021F0A0910605A03009F002C0F0
:101628000E941C25A0912C07A63018F0E1E0E09359
:101638002C07A0912C07A53029F4E0911507E05D4F
:101648001E2F54C1E0912D07E03009F036C1A0915A
:101658001507A130B1F4A0912C07A13009F417E2C5
:10166800A0912C07A23009F41DE2A0912C07A33009
:1016780009F41EE2A0912C07A33011F40E941C2546
:101688001CC1A0911507A230B9F4A0910605A1309C
:1016980021F4E0912C07E05C07C0E0910605E030FA
:1016A80021F4E0912C07EE511E2FA0912C07A330B6
:1016B80011F40E941C2501C1A0911507A330B9F4AB
:1016C800A0910605A13021F4E0912C07ED5B07C03D
:1016D800E0910605E03021F4E0912C07E1521E2F3D
:1016E800A0912C07A33011F40E941C25E6C0A091FC
:1016F8001507A43031F5A0910605A13049F4E09111
:101708002C07EA5B0E94222511F40E941C2518C0B0
:10171800E0910605E030A1F4A0912C07A13009F46E
:1017280010EFA0912C07A23009F41FEEA0912C070E
:10173800A33009F41EEEA0912C07A43009F41DEE85
:10174800BCC0A0911507A53031F5A0910605A130C0
:1017580049F4E0912C07E75B0E94222511F40E94CE
:101768001C2518C0E0910605E030A1F4A0912C07D3
:10177800A13009F419EEA0912C07A23009F41BEE50
:10178800A0912C07A33009F41AEEA0912C07A430DD
:1017980009F41CEE92C0A0911507A630B9F4A091E7
:1017A8000605A13021F4E0912C07E45B07C0E09125
:1017B8000605E03021F4E0912C07EB511E2FA09193
:1017C8002C07A33011F40E941C2577C0A09115079F
:1017D800A730B1F4A0910605A13029F4E0912C07B7
:1017E800E15B1E2F0CC0E0910605E03041F4E0916A
:1017F8002C07E9500E94222511F40E941C255DC087
:10180800A0911507A83019F5A0910605A13029F473
:10181800E0912C07ED5A1E2F13C0E0910605E03029
:1018280079F4A0912C07A13009F416EFA0912C07A8
:10183800A23009F415EFA0912C07A33009F417EF93
:10184800A0912C07A33011F40E941C2536C0A0914A
:101858001507A93011F5A0910605A13029F4E091EA
:101868002C07EA5A1E2F18C0E0910605E030A1F4B3
:10187800A0912C07A13009F411EFA0912C07A230F8
:1018880009F412EFA0912C07A33009F414EFA091EA
:101898002C07A43009F413EF10C0E0912C07E35C87
:1018A8006E2FE0911507A3E0EA02F001E60F1E2F64
:1018B800A0912D07A23009F4105EE0911507E030E1
:1018C800A9F4A0912C07A13009F410E2A0912C07EB
:1018D800A23009F418E2A0912C07A33009F419E208
:1018E800A0912C07A33011F40E941C250E941D24EE
:1018F8001083199108950E942725A0910705A0300B
:1019080011F0A13009F40AC0A0EEB5E00AD2A09106
:101918000705A43011F40E942E25F0C1CC2021F037
:10192800E091F706E03009F4C7C00E944E240E94F7
:101938003225E0910A05F0E03097A1F4A091060560
:10194800A13029F40E943825A1ECB0E008C0E0914C
:101958000605E03031F40E943825A2EDB0E00E947F
:1019680066235FC0E130A0E0FA07A1F4A091060564
:10197800A13029F40E943825A3EEB0E008C0E09118
:101988000605E03031F40E943825A4EFB0E00E944B
:10199800662347C0E430A0E0FA07A1F4A091060549
:1019A800A13029F40E943825A5E0B1E008C0E091F3
:1019B8000605E03031F40E943825A6E1B1E00E9426
:1019C80066232FC0E230A0E0FA07A1F4A091060533
:1019D800A13029F40E943825A7E2B1E008C0E091BF
:1019E8000605E03031F40E943825A8E3B1E00E94F2
:1019F800662317C0E530A0E0FA0799F4A091060520
:101A0800A13029F40E943825A9E4B1E008C0E0918A
:101A18000605E03031F40E943825AAE5B1E00E94BD
:101A280066230E943D253097E1F0A0910605A1307C
:101A380051F40E943D25E05DE093DD050E944425B8
:101A4800E093DF050DC0E0910605E03049F40E94FF
:101A58003D25E05DE093DF050E944425E093DD0528
:101A680027C00E945A253097A1F0A0910605A13001
:101A780031F40E945A25E05D0E94612509C0E09179
:101A88000605E03029F40E945A25E05D0E946D2584
:101A98000FC0A0910605A13021F4E0E20E94612563
:101AA80007C0E0910605E03019F4E0E20E946D25D8
:101AB800A0EEB5E036D11EC1CC2021F0E09107059B
:101AC800E03009F080C00E944E240E943225A0ED2B
:101AD800B5E027D1A0910605A13039F4E0EEF5E094
:101AE800FA93EA93ABE6B1E00AC0E0910605E0306C
:101AF80041F4E0EEF5E0FA93EA93ADE7B1E00E9435
:101B08006623E3E0E093EF050E943D25309741F11D
:101B1800A0910605A13081F40E943D25E05DE09387
:101B2800E4050E945A250E947925E093E5050E9464
:101B38008025E093E60513C0E0910605E03079F4CE
:101B48000E943D25E05DE093E7050E945A250E942A
:101B58007925E093E6050E948025E093E50532C0EB
:101B68000E945A253097D1F0A0910605A13031F492
:101B78000E945A25E05DE093E4050CC0E09106055B
:101B8800E03059F4E0E2E093E7050E945A25E05D71
:101B9800E093E605AC2D0E94882514C0A0910605A7
:101BA800A13021F4E0E2E093E40509C0E0910605E4
:101BB800E03041F4E0E2E093E705E093E605AC2D80
:101BC8000E94882597C0E0910805E03009F490C08C
:101BD800F0E0E130A0E0FA0749F4E9E0F0E00E9423
:101BE800E424EAE0F0E00E94182475C0E230A0E0A6
:101BF800FA0749F4EDE0F0E00E94E424EEE0F0E0BA
:101C08000E94182468C0E630A0E0FA0749F4E9E029
:101C1800F0E00E94E424E4E1F0E00E9418245BC0B4
:101C2800E730A0E0FA0749F4E3E1F0E00E94E42499
:101C3800E5E1F0E00E9418244EC0E430A0E0FA0785
:101C480091F4EFE0F0E00E94E424E0910B05E0302D
:101C580019F0EEE0F0E002C0E0E1F0E0E0931307F5
:101C6800F093140738C0E530A0E0FA0791F4E1E1F9
:101C7800F0E00E94E424E0910C05E03019F0EEE079
:101C8800F0E002C0E2E1F0E0E0931307F0931407FC
:101C980022C0E830A0E0FA0791F4E6E1F0E00E9403
:101CA800E424E0910D05E03019F0EEE0F0E002C028
:101CB800E0E1F0E0E0931307F09314070CC0E9307B
:101CC800A0E0FA0741F4E7E1F0E00E94E424E8E14B
:101CD800F0E00E941824E0E0E09308050E94272520
:101CE8000E9491250E942E25E4E0E093180706C083
:101CF8000E949125A0EEB5E00E94C6220E949B2575
:101D08000E9438250E949F250895BA93AA930E949D
:101D1800A32583C2BA93AA93552011F00E94A32544
:101D28007CC2BA93AA931A930E94B1250E94B62541
:101D380010E0E09153051E1728F40E941725E08152
:101D4800E03009F408C00E94BA250E941725E081F6
:101D5800EC931F5FEECF188123960895AA930E94F3
:101D6800C02811E030E0303039F500E0E09153054B
:101D78000E1750F40E94C025A081A03310F0AA339A
:101D880008F002C00F5FF2CFE0915305E017A1F011
:101D9800E1500E2F013058F00E94C525E02FF0E0E9
:101DA8003197EC5AFA4FE081EC930150F3CFE0E31E
:101DB800E09354051F5FD7CFAC810E94CA1B0E94D5
:101DC800C72825960895BA93AA936297E0E0E88316
:101DD800E9830E94BE2810E000E020E040E050E0E7
:101DE80011E0E0916505E11708F474C0A895A12FEA
:101DF8000E94E21BA12FB2DF30E020E000E0E0917A
:101E080053050E1750F40E94C025E081E03029F0F8
:101E18000E94C025A081A03209F419C0A8950E948B
:101E2800C025A081A03311F4303009F001C00DC0E5
:101E380031E0E22FF0E0DE011896AE0FBF1F0E94DE
:101E4800C025E081EF70EC932F5F0F5FD8CFE1E002
:101E5800F0E0EE83FF8340E050E001E02017E0F07F
:101E6800A895A22FBB27E02FF0E00E94CA25DE012B
:101E78001896AE0FBF1FEC91F0E0AE81BF810E94B3
:101E880050284E0F5F1FAE81BF81EAE00E9458289C
:101E9800EE83FF830F5FE2CFEA8DFB8DE417F50732
:101EA80018F04A8D5B8D09C0E88DF98D4E175F07D4
:101EB80018F0488D598D01C00BC05A934A93A4E578
:101EC800B5E00E941323A12F49DFA12F0E94CA1B4E
:101ED8001F5F87CF0E94C5286C9608951A93A8950E
:101EE80094D2A8950E947924E3E00E94CF2579F442
:101EF800E0915505EF70E43050F4E0915505EF702E
:101F0800E33021F4E0915505EF7009F406C00E9412
:101F18001225AFE9B1E00E94D0230E94DB25E093AF
:101F2800FA060E94E72521F0E0E3E09354050FC08C
:101F3800E0915505E07021F0E0915605E07009F454
:101F480009C00E941225A3EAB1E00E946623A2E01C
:101F58000E94CA1B0E94DB25E093FB06A3E00E94B7
:101F6800E21B0E94FC2421F00E9412250E94F12508
:101F78000E94DB25E093FC06A091FC06A33609F439
:101F8800A89AE091FC06E03009F4A8980E94F82588
:101F980029F00E941225A7EAB1E008C0E091550592
:101FA800EF7049F40E941225ABEAB1E00E94662363
:101FB800A4E00E94CA1BE0915505F0E0EF70F070B4
:101FC800AAE0B0E00E945E28DF01E0915605F0E04B
:101FD800EF70F070EA0FFB1FE0930A07F0930B070E
:101FE8000E940226E23060F4E13049F4E0915505A0
:101FF800EF70E83021F4E0915605EF7009F405C060
:102008000E941225AFEAB1E00EC0E0915405EF70CE
:1020180029F4E0915505EF70E23008F009C00E94FC
:102028001225A3EBB1E00E946623A5E00E94CA1B1B
:102038000E940C26EF70EA0FE093FD060E948024B0
:10204800E1E00E94CF25E0932E07A0912E07A5304E
:1020580010F4E03009F406C0E0912E07E150E09357
:102068002E0706C00E941225A5EAB1E00E94D023DF
:102078000E94E725AE2EE2E0EA1530F4E1E0AE2E4C
:102088000E9412250E941D260E94F825E093FE0654
:10209800A091FE06A23058F0E1E3E0935405A4E0D5
:1020A8000E94CA1BE0915405EF70E093FE06A9E078
:1020B8000E94E21BA9E052DEE0915405E770E0932C
:1020C8000F07A0910F07A03011F0A53048F0E1E00C
:1020D800E0930F07E1E3E0935405A9E00E94CA1BCF
:1020E8000E940226E093FF06A091FF06A23058F056
:1020F800E1E3E0935405A5E00E94CA1BE091540572
:10210800EF70E093FF060E946B24E3E0E093530531
:10211800E0E8E0936505E0E0F0E0FA93EA93A0E8F0
:10212800B0E051DE11E0113848F4A12F0E94CB1421
:10213800F0E0EC50FA4F10831F5FF5CFE0E0E0933A
:102148000705A5E00E948717A4E00E9487176BD3B4
:102158000E94F2230E9427250E9491250E949B2518
:102168000E942E250E9438250E949F251CC30E948C
:10217800C028E0E03E2F1E2FE6E0E09353050E94C2
:10218800C123E0913D07E030B1F13F5FA32F0E94EA
:10219800E21B00E020E0E0913D072E1710F400302C
:1021A80009F013C0E22FF0E0EC5AFA4FA081E22FB9
:1021B800F0E0E95CF84FE081F0E0F096B0E0EA1773
:1021C800FB0709F001E02F5FE6CF003071F411E062
:1021D800E22FF0E0EC5AFA4FA081A13220F0A09152
:1021E8003D07A63008F001C010E0373110F4103078
:1021F80009F001C0CACF313011F4103009F401C020
:1022080012E0323011F4103009F401C013E0E0E0BC
:10221800E0933D07E12F0E94C728249608950A926B
:102228001A92FA926A937A938A939A93AA93BA9390
:10223800EA93FA93EFB7EA93689424F8E0910C07CD
:10224800F0910D070E942426EA0FFB1F0E94292601
:10225800BB2009F0BA94E0910807F091090730977C
:1022680079F0A8E0B7E0ED91FD913197FE93EE93F8
:10227800E0910807F0910907309711F40E940C15B6
:10228800A0910705A23060F0A0913E07B0913F07EA
:10229800E6E5F0E00E947B28309711F40E949C0745
:1022A800AEE3B7E00E942E26A0913E07B0913F070B
:1022B800AA3FE0E0BE0708F49AC0E0913E07F0911B
:1022C8003F07EA5FF040E0933E07F0933F076894CA
:1022D80025F8E091F706E03011F1E0E0E093180707
:1022E800E091F706E150E093F706E0910A07F091D4
:1022F8000B073197A091F706B0E0EA17FB0741F406
:10230800E4E0E0931707E2E0EA1511F4A5E06FD3E3
:10231800E091F706E03019F4E1E0E0931907E09165
:102328000107E03021F0A0910107A33608F008C0AA
:10233800E0910107E150E0930107E03009F4A89823
:10234800E0910207E03091F0E0E0E0931807E4E064
:10235800F0E00E94E424E5E0F0E00E941824E09117
:102368000207E150E0930207A1E041D3E09104079E
:10237800E03091F0E2E0F0E00E94E424E3E0F0E0F5
:102388000E941824E0910407E150E0930407E2E07A
:10239800EA1511F4A3E02BD3E0911807E03041F0DF
:1023A800E0914107E03021F4E0910705E03009F0C1
:1023B8000AC0E0911807E150E0931807E03019F4DB
:1023C800E1E0E0931907E0913607E03019F0A0E06A
:1023D800CA1609F004C0E0910705E03009F004C00E
:1023E800E0914107EF5F01C0E0E0E0934107E99128
:1023F800EFBFF991E991B991A99199918991799151
:102408006991F9901990099018951A930E94872458
:102418000E940325A09153050E947F23E03029F5EF
:102428000E9480240E94F624E0915405EF70E09306
:102438002F07E030D1F4A0915405AF3FB1F010E080
:10244800143698F4E0916300E87029F00E94122590
:102458000E943426A8C1B79B05C00E9412250E947D
:102468003426A1C100001F5FEBCFE7E0F0E00E9437
:10247800E424E8E0F0E00E9418240E9427250E9446
:1024880091250E949B250E942E250E9438250E9496
:102498009F25A8950E943B26A895A0912F07A130BB
:1024A800F1F0A23009F468C0A0912F07A33009F415
:1024B800BEC0A0912F07A43009F4E3C0A0912F0754
:1024C800A53021F4E0E0E0932F0709C0A0912F0781
:1024D800A63009F430C1A0912F07A73029F10E9436
:1024E8002424E6E0E0935305E4E1E09365050E94C7
:1024F800B71B0E941225A7EBB1E00E94D023E09100
:102508002F07E03009F017C10E94C1230E94C82399
:10251800ABEBB1E00E94D0230E9447240E94C8235D
:10252800A2ECB1E00E94D023A8950E948024E1E0AB
:102538000E943F26A5EAB1E00E94D0230E941225FE
:102548000E941D260E9412250E944226A4E00E9495
:1025580046260E944226A5E00E94CA1B0E944926E0
:1025680020F0A0915405A53338F00E9412250E944E
:102578004226A9E00E94CA1B0E948024E1E0E09361
:1025880053050E94492620F0A0915405A53348F030
:102598000E9412250E944226A9E00E94CA1BE1E07F
:1025A80003C0E0915405E770E0930F070E946B2485
:1025B800E3E0E093530511E01138A0F5A895A09148
:1025C8000F07A23028F4A13011F4113208F01DC011
:1025D800143658F40E945026E05DE09354050E949A
:1025E8005726E0935505E0E20DC0A12F0E945F2613
:1025F800E09354050E9450260E947925E0935505E2
:102608000E945726E093560508C0E0E3E09354057E
:10261800E0E2E0935505E0935605A12F0E94CA1BFE
:102628001F5FCACFE0912F07E03009F084C0A8955A
:102638000E947924E3E00E943F26A9ECB1E00E94C1
:10264800D0230E941225ADECB1E00E946623A2E0DF
:102658000E9446260E94F1250E941225A3EBB1E0B4
:102668000E946623A4E00E944626A1EDB1E00E94E4
:102678006623A5E00E94CA1BE0912F07E03009F00D
:102688005AC0A8950E944E24E0E1E0935305E0E883
:10269800E09365050E94B71BA0910605A13029F4B7
:1026A8000E941225A5EDB1E008C0E0910605E030D2
:1026B80031F40E941225A2EEB1E00E946623A1E047
:1026C8000E94CA1BA0910605A13029F40E94122578
:1026D800AAEEB1E008C0E0910605E03031F40E94AE
:1026E8001225A7EFB1E00E946623A2E00E94CA1B50
:1026F800A0910605A13029F40E941225AFEFB1E0A0
:1027080008C0E0910605E03031F40E941225ACE0E3
:10271800B2E00E946623A3E00E94CA1B14E01138AD
:1027280050F4A8950E9412250E94B625A12F0E9458
:10273800CA1B1F5FF4CFA8950E948024E1E00E9485
:102748003F26A1EAB1E00E946623A6E00E94CA1BC8
:10275800A7E00E94CA1BA3E00E94CA1B0E9487240C
:10276800E0E1E0935305A1E00E94E21B0E941225DC
:10277800A6EBB0E00E945223E03079F00E941225C7
:10278800A6EBB0E00E94D023E0E3E0935405E0E03C
:10279800E0935505A2E00E94CA1BE0910705E030CE
:1027A80011F4A3E0B0D319910895AA93A881A13098
:1027B80021F4A981BA81EC91B0C0A881A23051F46A
:1027C800A981BA81EC910E946626E981FA81E181AA
:1027D800EA0FA3C0A881A33081F4A981BA81EC9142
:1027E800A4E6EA02602DE981FA81E1810E946B2664
:1027F800E981FA81E281EA0F90C0E0E08EC0AA93F5
:102808001A9310E0103868F4E12FF0E0EB58F94F14
:10281800E081A981EA1719F4E12FEF5FE5C01F5F96
:10282800F1CFE0E0E1C060971A930A93E9E1F0E0A4
:102838000E94E424E4E0F0E00E9418240E94272586
:102848000E9491250E949B250E942E250E943825D2
:102858000E949F25E0E0E093F6060E944E24E0E106
:10286800E093530511E0113808F03DC0A895A12F59
:102878000E9471260E941225A0E171D0DE011296F5
:1028880036D0E030F1F40E947826A1E0A08301E080
:102898000138B0F4A895A02F0E947126A4E5B5E0F0
:1028A8003ED0E03059F0A4E5B5E021D0E03031F475
:1028B8000E947826DF01EC91EF5FEC930F5FE8CF81
:1028C80004C00E947826A0E0A0830E947826A081F8
:1028D800E091F606EA1728F40E947826E081E09352
:1028E800F6061F5FC0CF1981088162960895BA93D2
:1028F800AA931A9310E0103120F4E09153051E17A3
:1029080008F009C00E94BA25AC91A03211F0E0E0AD
:1029180003C01F5FF0CFE1E0188123960895BA93B2
:10292800AA931A9310E0103120F4E09153051E1772
:1029380008F012C00E947E26EC91E01518F4E1E040
:10294800188123C00E947E26EC910E1618F4E0E050
:1029580018811BC01F5FE7CFE0E0188116C0AA935B
:10296800E881E03091F0E150E883AB81BC81F0E090
:10297800EA0FFB1F0F01E881A981BA81F0E0AE0FD1
:10298800BF1FEC91D001EC93EBCF25960895AA9345
:102998001A93A981A03011F0A13810F0E0E024C00A
:1029A8000E946B24E3E0E0935305A9810E94E21B97
:1029B800A9810E94B20EA0915305A33019F40E9478
:1029C8000C2607C0E0915405EF700E946626E0913E
:1029D8005505EF70EA0F1E2F113010F0113808F06E
:1029E80002C0E12F01C0E0E0188122960895AA9361
:1029F800AA2059F0E881E0930E07E8EEF3E00E9480
:102A08008526EAE1E0938A0001C002D02196089564
:102A1800E0E0E0930E070E948A260895E0910E07F1
:102A2800E03009F4DFC0F0E0E130A0E0FA0761F43B
:102A38000E948F26A53DE3E0BE0718F00E94942669
:102A480002C00E949C26C6C0E230A0E0FA0771F4DA
:102A58000E948F26A939E3E0BE0728F0E0E8F2E0FB
:102A68000E94292602C00E949C26B4C0E330A0E040
:102A7800FA0771F40E948F26AD3BE2E0BE0728F00A
:102A8800E0E8F0E00E94292602C00E949C26A2C02D
:102A9800E430A0E0FA0711F50E948F26A73EE3E094
:102AA800BE0718F00E94942618C00E948F26AD3ADF
:102AB800E3E0BE0780F00E949F2619F40E94A62634
:102AC80002C00E94AD260E94B3260E94BE2610F4C2
:102AD8000E94942602C00E949C267CC0E530A0E09B
:102AE800FA0709F077C00E948F26A73EE3E0BE07E9
:102AF80018F00E9494266EC00E948F26AD3AE3E03B
:102B0800BE0780F00E949F2619F40E94A62602C0E4
:102B18000E94AD260E94B3260E94BE2610F40E9491
:102B2800942658C00E948F26A934E3E0BE0718F007
:102B38000E948A264FC00E948F26A734E3E0BE0772
:102B480018F00E94942646C00E948F26AD30E3E01C
:102B5800BE0798F0EAE1E0938A000E949F2619F4E4
:102B68000E94A62602C00E94AD260E94B3260E949B
:102B7800BE2610F40E9494262DC00E948F26A93AE2
:102B8800E2E0BE0718F00E948A2624C00E948F2621
:102B9800A73AE2E0BE0718F00E9494261BC00E94E4
:102BA8008F26AD36E2E0BE0798F0EAE1E0938A00AE
:102BB8000E949F2619F40E94A62602C00E94AD26F4
:102BC8000E94B3260E94BE2610F40E94942602C0DA
:102BD8000E949C26E0910707E0938700E091060792
:102BE800E0938600089544FE84C1EFEE4E2221FE54
:102BF80004C0E0910705E03009F077C1E2E0E5158F
:102C0800B1F4E0E0E093BB050E94C2260E94CA2608
:102C1800A0E10E949823EAE6F5E0FA93EA930E947D
:102C2800CF260E943B260E94C2260E94CF26E89407
:102C380021F8E0E0E0931807E7B7EE7FE7BFE0E0B0
:102C4800E0930805E0910F05F0E0E033A0E0FA0713
:102C580071F4A0910905A13031F0A23021F0A5301E
:102C680011F0A83019F44DD4A6E04DD13EC1E0359D
:102C7800A0E0FA0709F064C0A0911005A734E9F5AF
:102C8800A0910905A630C9F50E94D326A091110587
:102C9800A63429F40E94FE23A6E049D42EC0E09170
:102CA8000C05E030A1F053D42CD4E0910C05EF5F73
:102CB800E0930C05A5E03BD4A0910C05A13220F0CF
:102CC800E0E0E0930C0536C0A9E01DD116C0E09104
:102CD8000B05E03091F015D4E0910B05EF5FE09320
:102CE8000B05A4E024D4A0910B05A13220F0E0E06C
:102CF800E0930B051FC0A7E006D1A0911005AE34E4
:102D0800F1F4A0910905A730D1F40E94D326E091EF
:102D18000D05E030A1F0F5D3E0910D05EF5FE093EC
:102D28000D05A8E004D4A0910D05A13230F0E0E033
:102D3800E0930D05A6E0E7D00895AAE0E4D0D5C059
:102D4800E934A0E0FA0759F5A0911005A635D9F4A1
:102D5800A0910905A33019F4E0E0E0930905A3E088
:102D6800E6D30E948724E0E10E943F26E1E1F5E0F6
:102D7800FA93EA93A0910E05A2500E949823A2E02C
:102D88000E94CA1B0BC0A0911005AD3439F4552020
:102D980029F0E0E0E0930905A9E0C9D3A4C0E33431
:102DA800A0E0FA0709F050C0A0910905A43019F471
:102DB800E0E0E0930905A0910E05A53018F00E9407
:102DC800D92605C0E0911105E0530E946626E091DE
:102DD8001205E053EA0FCE2ECC2011F4E0E2CE2EFD
:102DE800EC2DF0E0EC50FA4FC080A0911005A13412
:102DF80041F4E1E0E0930A05E0910A07E093F70661
:102E080022C0A0911005A53439F4E2E0E0930A0548
:102E1800E5E0E093F70617C0A0911005A63439F451
:102E2800E4E0E0930A05E5E0E093F7060CC0A09122
:102E38001005A23411F4A2E005C0A0911005A73432
:102E480011F4A7E074D34FC0E435A0E0FA0739F5D0
:102E5800A0910905A43019F4E0E0E0930905A091D8
:102E68000E05A53018F00E94D92605C0E09111057D
:102E7800E0530E946626E0911205E053EA0FCE2E39
:102E8800CC2011F4E0E2CE2EEC2DF0E0EC50FA4F1D
:102E9800C080E091FD06E093F706E5E022C0E53545
:102EA800A0E0FA07E9F4E0910207E03021F4E091AC
:102EB8000407E03009F013C0CC240E94D724DD2495
:102EC8000E945B080E94EB23E091FA06EF5FE09313
:102ED8000207E1E0E09303070E94B32488DD03C002
:102EE800E7E0E0930A05A0E003D3E0E0E0937A0589
:102EF80009C00E94E32620F0A0914407A03009F001
:102F080001C007D30895AA931A930A9310E000E02A
:102F1800E0910705E03009F0E7C2E0914407E030AE
:102F280011F441FE13C0A0915107A93018F4AA81E9
:102F3800A03009F40AC0E0915107EF5FE093510710
:102F4800F0E0EA5BF84FAA81A083CEC2AA81A6303E
:102F5800F1F4E0910905E03039F00E94E926E081BA
:102F6800EA83E89427F812C00E94E32610F0D1D231
:102F7800BBC2E0E0E0934307E0915007EF5FE093C6
:102F88005007F0E0EA5BF84FE081EA8313C0E09174
:102F98000905E03049F40E94E32628F0BAD20E94DD
:102FA800E926AA81A08306C023FC04C00E94E92662
:102FB800E081EA83EA81E093450710E0F0E030978A
:102FC800B1F410E0143040F4E12FF0E0E458FA4F87
:102FD800A0E3A0831F5FF6CFE0914307E03019F428
:102FE800E1E0E0934307E3E0E093440706C2E13001
:102FF800A0E0FA0709F041C0CC2011F48AD274C2CB
:10300800E4E0E0930905E0E0E0930A050E94EF267A
:10301800A3E4A0830E94EF26A0E3A0830E94EF26EA
:10302800FF93EF930E94F526DF010E94FA26AF91E5
:10303800BF91EC930E94EF26FF93EF930E94F52631
:103048000E947925AF91BF91EC930E94EF26FF93E0
:10305800EF930E94F526DF01E4E6F0E00E9476286F
:10306800E05DAF91BF910E94FF2619F4E2E0E09382
:103078004307E6E0E0934407C0C1E230A0E0FA0766
:10308800D1F4E5E00E940427A3E4A0830E94EF2680
:10309800A5E4A0830E94EF26A0E3A0830E94EF2668
:1030A800A0E30E94072719F4E2E0E0934307E3E076
:1030B800E0934407A2C1E330A0E0FA0791F4E2E00C
:1030C8000E9404270E940C270E940F27A2E50E9455
:1030D800072719F4E2E0E0934307E6E0E0934407AA
:1030E8008CC1E430A0E0FA0709F05AC0E2E00E947F
:1030F80004270E940C270E940F27A0E5A0830E94A6
:103108001227E0912E07EF5CEC930E94EF260E94B5
:103118001827E4E6F0E00E941E270E941827EAE03C
:10312800F0E00E941E270E941827EAE0F0E00E94C3
:103138007B280E942427BF01A091FD060E945F26DC
:10314800DB01EC930E94EF26BF01A091FD06B0E0E1
:103158000E94FA26DB01EC930E94EF26BF01A091A2
:10316800FD060E9428270E941227E0910F07EF70A2
:10317800E05DEC930E941227E091FF06E170E05DAC
:10318800EC930E941227EA2DE370E05D0E94FF266F
:1031980019F4E2E0E0934307E3E0E09344072DC12C
:1031A800E530A0E0FA0791F4E3E00E940427A9E4DF
:1031B800A0830E94EF26A6E50E94072719F4E2E003
:1031C800E0934307E6E0E093440717C1EB30A0E043
:1031D800FA0791F4E8E00E940427A5E5A0830E947D
:1031E800EF26A1E30E94072719F4E2E0E0934307E2
:1031F800E3E0E093440701C1E730A0E0FA0709F0F3
:103208008BC0E0910B05E03019F4E0E2E0930B0588
:10321800E6E00E9404270E940C270E9431270E94A2
:103228000F27BF01A0910B050E943427BF01A09171
:103238000B050E9428270E9496240E943A270E9484
:10324800C525EC91E03041F0FD01A081A03221F0CC
:10325800E09153050E1708F008C00E9412270E943B
:10326800C025E081EC930F5FEACF0E94EF260E9411
:1032780043270E943A270E94C525EC91E03021F0AF
:10328800FD01A081A03209F404C0E09153050E1796
:1032980008F008C00E9412270E94C025E081EC9324
:1032A8000F5FE9CF0E94EF260E9443270E943A272A
:1032B8000E94C525EC91E03021F0FD01A081A032EB
:1032C80009F404C0E09153050E1708F008C00E94E5
:1032D80012270E94C025E081EC930F5FE9CF0E947E
:1032E800EF260E944327E1E0E0935305A0910B05E8
:1032F8000E94E21B0E94EF26A0915405A0830E9421
:10330800EF26ACE70E94072719F4E2E0E0934307B1
:10331800E6E0E093440771C0E930A0E0FA0731F530
:10332800E0910C05E03019F4E0E2E0930B05E6E0EB
:103338000E9404270E940C270E9431270E943127EF
:10334800BF01A0910C050E943427BF01A0910C0574
:103358000E944627E05DDB010E94FF2619F4E2E0A7
:10336800E0934307E6E0E093440747C0EA30A0E073
:10337800FA0709F042C0E0910D05E03019F4E0E2E7
:10338800E0930D05E7E00E9404270E940C27AEE4B5
:10339800A0830E94EF260E940F27BF01A0910D0570
:1033A8000E943427BF01A0910D050E9428270E9482
:1033B8004E24E0E1E0935305A0910D050E94E21B25
:1033C80000E00E94C025E081E03021F0E091530543
:1033D8000E1708F008C00E9412270E94C025E0813D
:1033E800EC930F5FEECFE0914307E03019F4E2E091
:1033F800E0934307E3E0E093440710937B05E12F54
:10340800F0E0E458FA4FA0E0A0837894E2E0E515F4
:1034180009F05FC0E0E0E0930E05E093BB05EBEB3D
:10342800F5E0FA93EA93EBE7F5E0FA93EA93A6E07E
:103438000E949823ABEBB5E00E9473237E2EE6E052
:10344800E71508F47E2E0E944C27AEE2A0830E9466
:103458004C27DF01E09109050E945227DF01E09126
:1034680050070E945227DF01E09151070E9452271E
:10347800BF01A09146070E9446270E945627BF0118
:10348800A0914707B0E0EAE0F0E00E947E280E94A1
:103498005627BF01A09145070E9446270E9456273C
:1034A800AEE2A0830E944C27A0E0A0830E944C2794
:1034B800A0E0A0830E94CA260E94CF26AAEFB0E00F
:1034C8000E944228E0E0E093BB050E94CA260E94C1
:1034D800CF26E0E0E093CB0599241A9AE2E04E2A41
:1034E800E0E0ECB95698559A198108812396089519
:1034F800AA930E945B27689423F8A88104DD0C94A2
:103508009B1CE0E0E09309050E945B27E89423F800
:103518000895E0E0E09345074424E89423F8E09315
:103528005107E0935007EDDF609009050895AA93CD
:10353800E0E0E0930A05E0931807E093F706E093CC
:103548003607CC24E881E09308050C949B1C1A9359
:103558000A9316E000E00E9496240E9461270E94C8
:10356800B6250E94C025A0E0A083E2E0E51591F40D
:10357800E0E0F5E0FA93EA93AEE0B5E00E948E0E43
:103588000E943B26E1E0F5E0FA93EA93A2E0B5E079
:103598000E948E0E0E946927A081AC3721F0E0912D
:1035A80053050E1708F009C00E94C5250E94692717
:1035B800E081EC931F5F0F5FEDCF0E94C025A0E074
:1035C800A083E2E0E51581F40E941225A3E0B5E0AE
:1035D8000E948E0E0E943B26E4E0F5E0FA93EA93FF
:1035E800A5E0B5E00E948E0E0E946927A081AC3745
:1035F80009F41F5F0E946E270E9461270E94B6256A
:103608000E94C025A0E0A0830E946927A081AC3752
:1036180021F0E09153050E1708F003C00E947327AC
:10362800F3CF0E94C025A0E0A0830E946927A08153
:10363800AC3709F41F5F0E946E270E9461270E9421
:10364800B6250E94C025A0E0A0830E946927A0811A
:10365800AC3721F0E09153050E1708F003C00E9423
:103668007327F3CF0E94C025A0E0A0830E9469279A
:10367800A081AC3709F41F5FA0910C050E94CA1BFA
:103688006FC01A93109169050DD0E0936905103049
:1036980011F4E11719F4E0E00C94BB1CE091690502
:1036A8000C94BB1C1A930A93C69810E10E948127B8
:1036B80000E00430E8F514FF0CC0B29B02C0E1E062
:1036C8004FC0B39B02C0E2E04BC0B49B02C0E3E032
:1036D80047C015FF0CC0B29B02C0E4E041C0B39BD9
:1036E80002C0E5E03DC0B49B02C0E6E039C016FF69
:1036F8000CC0B29B02C0E7E033C0B39B02C0E8E055
:103708002FC0B49B02C0E9E02BC017FF0CC0B29BCE
:1037180002C0E8E125C0B39B02C0EAE021C0B49B27
:1037280002C0E1E11DC0110F0E9481270F5FC1CFC8
:10373800E3B1EF70E3B9C69A00E00E3118F4000067
:103748000F5FFBCFB29B02C0E5E10AC0B39B02C08A
:10375800E7E106C0B49B02C0E6E102C0C698E0E01B
:103768000991199108951A930E941225A4E1B2E0D3
:103778000E94662311E0E0916505E11728F0A895FD
:10378800A12F04D01F5FF7CF0C94BB1C0E94882781
:1037980010E0E09153051E1710F4103108F00DC029
:1037A800AEE4B5E00E942E263197DF010E9417256E
:1037B800E0810E94AD281F5FECCF72C00E9488276D
:1037C8000E941225A4E1B2E00E94662310E0E09175
:1037D80053051E1710F4103108F00FC00E9417256A
:1037E8000F01AEE4B5E00E942E263197DF010E945A
:1037F800A128D001EC931F5FEACF0E941725A0E013
:10380800A0834EC0A0E387D0A0E385D0A0E383D0F7
:10381800A0E381D0A0E27FD0A8E276D0A0E174D066
:10382800ACE072D0A6E070D0A1E06ED001D00895CF
:10383800AA98AB98A8E468D0A4E00E94A5270E94A3
:10384800AA270E94B027A0E052D00E94B027A4E087
:103858004ED0AFE10E94A527A4E049D0A0E047D010
:10386800A4E045D0A4E00E94A527A1E140D00E9491
:10387800AA27A0E03CD0A0E03AD00895AA930E94DD
:10388800C02830E0EC813E1758F400E010E0043620
:10389800E0E01E0718F40F5F1F4FF9CF3F5FF2CF2C
:1038A8000E94C72825960895AA931A93A981A0581B
:1038B8002BD010E0103140F4AA81BB81EE27A10F74
:1038C800BE1FEC91E03009F409C0AA81BB81EE2744
:1038D800A10FBE1FAC910BD01F5FECCF103120F4AD
:1038E800A0E205D01F5FFACF1881249608950E94A0
:1038F800B927E4600E94C4270E94C827E07FE460DB
:103908000E94C427AA9813C00E94B9270E94C427FE
:103918000E94C82709C0AA93A5E0B0DFE5B3EF70FD
:10392800E5BBE5B3AE2FE881E07F0E94C42721966E
:1039380008951A9310E8AF9AEFE7E4BBAB9AAA98F8
:1039480017FF0FC0AF9A000000000000A99A0000FE
:103958000000000013B317FF13B3AF98A99809D05C
:10396800EFCFEFEFE4BBE5B3EF70E5BBAB98199190
:10397800089500000000A99A000000000000A9981E
:10398800000000000895BA93AA931A93A09106051F
:10399800A13009F0C9C2E0910705E03009F024C15F
:1039A800EB81FC81309739F40E94B125A6E2B2E0A0
:1039B8000E94D02718C1E130A0E0FA0739F40E942C
:1039C800B125A7E3B2E00E9466230DC1E230A0E072
:1039D800FA0739F40E94B125A8E4B2E00E946623F0
:1039E80002C1E330A0E0FA0739F40E94B125A2E54C
:1039F800B2E00E946623F7C0E430A0E0FA0739F489
:103A08000E94B125AEE5B2E00E946623ECC0E53025
:103A1800A0E0FA0739F40E94B125A8E6B2E00E94B6
:103A28006623E1C0E730A0E0FA0739F40E94B12527
:103A3800AEE5B2E00E946623D6C0E830A0E0FA07FF
:103A480039F40E94B125A5E7B2E00E946623CBC0F5
:103A5800E930A0E0FA0739F40E94B125A6E8B2E0FF
:103A68000E946623C0C0EA30A0E0FA0739F40E9439
:103A7800B125A0E9B2E00E946623B5C0EB30A0E012
:103A8800FA0739F40E94B125ADE9B2E00E94662335
:103A9800AAC0EC30A0E0FA0739F40E94B125A7EAE1
:103AA800B2E00E9466239FC0ED30A0E0FA0739F427
:103AB8000E94B125A3EBB2E00E94662394C0EE30C9
:103AC800A0E0FA0739F40E94B125A0ECB2E00E9408
:103AD800662389C0EF30A0E0FA0789F40E94B12577
:103AE800ACECB2E00E946623E0910B05E03011F0E7
:103AF800E15001C0E0E2EA930E94DD2774C0E031A2
:103B0800A0E0FA0739F40E94B125A9EDB2E00E94BD
:103B1800662369C0E131A0E0FA0789F40E94B12563
:103B2800A7EEB2E00E946623E0910C05E03011F0A8
:103B3800E15001C0E0E2EA930E94DD2754C0E2317F
:103B4800A0E0FA0739F40E94B125A5EFB2E00E947F
:103B5800662349C0E331A0E0FA0739F40E94B12591
:103B6800A3E0B3E00E9466233EC0E431A0E0FA0778
:103B780039F40E94B125A4E1B3E00E94662333C062
:103B8800E531A0E0FA0739F40E94B125A1E2B3E0DB
:103B98000E94662328C0E631A0E0FA0789F40E9453
:103BA800B125ADE2B3E00E946623E0910D05E03057
:103BB80011F0E15001C0E0E2EA930E94DD2713C052
:103BC800E731A0E0FA0749F40E94B125ABE3B3E07E
:103BD8000E94E1270E94E72706C0E831A0E0FA0723
:103BE80011F40E94ED279FC1EB81FC81309761F4AD
:103BF8000E94B125A9E4B3E00E94152810F0E2E084
:103C080001C0E8E0E0936605AB81BC81129731F40E
:103C18000E94B125A4E5B3E00E941C28AB81BC81B9
:103C2800139731F40E94B125A1E6B3E00E941C2845
:103C3800AB81BC81149731F40E94B125ADE6B3E0A5
:103C48000E941C28AB81BC81119731F40E94B125D8
:103C5800A7E7B3E00E941C28AB81BC81169731F41A
:103C68000E94B125AFE7B3E00E941C28AB81BC815C
:103C7800159731F40E94B125A0E9B3E00E941C28F1
:103C8800AB81BC81179731F40E94B125AEE9B3E04E
:103C98000E941C28AB81BC81189731F40E94B12581
:103CA800A7EAB3E00E941C28AB81BC811A9731F4C3
:103CB8000E94B125A3EBB3E00E941C28AB81BC8114
:103CC8001B9731F40E94B125AAEBB3E00E941C288F
:103CD800AB81BC811C9731F40E94B125A9ECB3E0FB
:103CE8000E941C28AB81BC81199731F40E94B12530
:103CF800A8EDB3E00E941C28AB81BC81A238E0E0AB
:103D0800BE0731F40E94B125A8EEB3E00E94222834
:103D1800AB81BC81AF38E0E0BE0731F40E94B12529
:103D2800A4EFB3E00E942228AB81BC81AC39E0E06B
:103D3800BE0731F40E94B125A2E0B4E00E94222817
:103D4800AB81BC81A537E0E0BE0731F40E94B12504
:103D5800A0E1B4E00E942228AB81BC815A9731F4DB
:103D68000E94B125AEE1B4E00E942228AB81BC815B
:103D7800979731F40E94B125ABE2B4E00E94662324
:103D8800AB81BC81D49731F40E94B125ABE3B4E098
:103D98000E946623AB81BC811D9731F40E94B12536
:103DA800A9E4B4E00E942228AB81BC81AE34E0E0F3
:103DB800BE0731F40E94B125A6E5B4E00E9422288E
:103DC800AB81BC81A134E0E0BE0791F5A091680504
:103DD800A13031F40E94B125A4E6B4E00E94662324
:103DE800A0916805A23031F40E94B125AFE6B4E095
:103DF8000E946623A0916805A33031F40E94B12582
:103E0800ACE7B4E00E946623A0916805A43031F4C1
:103E18000E94B125A9E8B4E00E946623A091680534
:103E2800A53031F40E94B125A3E9B4E00E946623CD
:103E3800AB81BC81AB35E0E0BE0709F05AC0A09168
:103E48006805A13031F40E94B125ADE9B4E00E94C3
:103E58006623A0916805A23031F40E94B125ABEA2F
:103E6800B4E00E946623A0916805A33031F40E9453
:103E7800B125ACEBB4E00E946623A0916805A4309C
:103E880031F40E94B125ADECB4E00E946623A09104
:103E98006805A53031F40E94B125AEEDB4E00E946A
:103EA8006623A0916805A63031F40E94B125AFEED3
:103EB800B4E00E946623A0916805A73031F40E94FF
:103EC800B125AEEFB4E00E946623A0916805A83042
:103ED80031F40E94B125ACE0B5E00E946623A091C0
:103EE8006805A93031F40E94B125ADE1B5E00E9422
:103EF8006623AB81BC81A836E0E0BE07A1F4A0919F
:103F08006805A13031F40E94B125ADE2B5E00E9408
:103F18006623A0916805A23031F40E94B125A8E378
:103F2800B5E00E946623D2C2E0910605E03009F0B0
:103F3800CDC2E0910705E03009F029C1EB81FC8191
:103F4800309739F40E94B125A6E4B5E00E94D02745
:103F58001DC1E130A0E0FA0739F40E94B125A7E5B8
:103F6800B5E00E94662312C1E230A0E0FA0739F4F6
:103F78000E94B125A7E6B5E00E94662307C1E33099
:103F8800A0E0FA0739F40E94B125A8E7B5E00E943D
:103F98006623FCC0E430A0E0FA0729F40E94B125AA
:103FA8000E942828F3C0E530A0E0FA0739F40E94FF
:103FB800B125AAE9B5E00E946623E8C0E730A0E091
:103FC800FA0729F40E94B1250E942828DFC0E830AA
:103FD800A0E0FA0739F40E94B125ABEAB5E00E94E7
:103FE8006623D4C0E930A0E0FA0739F40E94B1256D
:103FF800AAEBB5E00E946623C9C0EA30A0E0FA0740
:1040080039F40E94B125AAECB5E00E946623BEC02F
:10401800EB30A0E0FA0739F40E94B125A9EDB5E02C
:104028000E946623B3C0EC30A0E0FA0739F40E947E
:10403800B125A8EEB5E00E946623A8C0ED30A0E047
:10404800FA0739F40E94B125A6EFB5E00E9466236D
:104058009DC0EE30A0E0FA0729F40E94B1250E9425
:10406800282894C0EF30A0E0FA0789F40E94B1250F
:10407800A3E0B6E00E946623E0910B05E03011F062
:10408800E15001C0E0E2EA930E94DD277FC0E03101
:10409800A0E0FA0739F40E94B125AFE0B6E00E942B
:1040A800662374C0E131A0E0FA0789F40E94B125C3
:1040B800ACE1B6E00E946623E0910C05E03011F017
:1040C800E15001C0E0E2EA930E94DD275FC0E231DF
:1040D800A0E0FA0739F40E94B125A9E2B6E00E94EF
:1040E800662354C0E331A0E0FA0739F40E94B125F1
:1040F800A6E3B6E00E94662349C0E431A0E0FA07CF
:1041080039F40E94B125A7E4B6E00E9466233EC0B8
:10411800E531A0E0FA0739F40E94B125A6E5B6E03A
:104128000E94662333C0E631A0E0FA0789F40E94B2
:10413800B125A5E6B6E00E946623E0910D05E030C2
:1041480011F0E15001C0E0E2EA930E94DD271EC0B1
:10415800E731A0E0FA0749F40E94B125A4E7B6E0E8
:104168000E94E1270E94E72711C0E831A0E0FA0782
:1041780019F40E94ED270AC0E931A0E0FA0731F4EA
:104188000E94B125A0E8B6E00E9466239FC1EB819A
:10419800FC81309761F40E94B125AAE8B6E00E943C
:1041A800152810F0E2E001C0E8E0E0936605AB8175
:1041B800BC81129731F40E94B125A6E9B6E00E94AD
:1041C8001C28AB81BC81139731F40E94B125A4EA65
:1041D800B6E00E941C28AB81BC81149731F40E9480
:1041E800B125A0EBB6E00E941C28AB81BC811197D9
:1041F80031F40E94B125ACEBB6E00E941C28AB81DB
:10420800BC81169731F40E94B125ABECB6E00E9450
:104218001C28AB81BC81159731F40E94B125ABED08
:10422800B6E00E941C28AB81BC81179731F40E942C
:10423800B125ABEEB6E00E941C28AB81BC81189773
:1042480031F40E94B125AAEFB6E00E941C28AB8188
:10425800BC811A9731F40E94B125A6E0B7E00E940C
:104268001C28AB81BC811B9731F40E94B125A7E1C2
:10427800B7E00E941C28AB81BC811C9731F40E94D6
:10428800B125A5E2B7E00E941C28AB81BC81199733
:1042980031F40E94B125A3E3B7E00E941C28AB814A
:1042A800BC81A238E0E0BE0731F40E94B125A2E447
:1042B800B7E00E942228AB81BC81AF38E0E0BE079E
:1042C80031F40E94B125AFE4B7E00E942228AB8107
:1042D800BC81AC39E0E0BE0731F40E94B125AEE5FF
:1042E800B7E00E942228AB81BC81A537E0E0BE0779
:1042F80031F40E94B125ADE6B7E00E942228AB81D7
:10430800BC815A9731F40E94B125ACE7B7E00E940E
:104318002228AB81BC81979731F40E94B125A8E887
:10432800B7E00E946623AB81BC81D49731F40E9428
:10433800B125A8E9B7E00E946623AB81BC811D972F
:1043480031F40E94B125A8EAB7E00E942228AB8187
:10435800BC81AE34E0E0BE0731F40E94B125A3EB86
:10436800B7E00E942228AB81BC81A134E0E0BE07FF
:1043780091F5A0916805A13031F40E94B125A1EC16
:10438800B7E00E946623A0916805A23031F40E942C
:10439800B125AEECB7E00E946623A0916805A33072
:1043A80031F40E94B125AEEDB7E00E946623A091DA
:1043B8006805A43031F40E94B125ABEEB7E00E9445
:1043C8006623A0916805A53031F40E94B125A8EFB5
:1043D800B7E00E946623AB81BC81AB35E0E0BE0745
:1043E80009F05AC0A0916805A13031F40E94B125A6
:1043F800A4E0B8E00E946623A0916805A23031F4D9
:104408000E94B125A5E1B8E00E946623A091680545
:10441800A33031F40E94B125A6E2B8E00E946623D9
:10442800A0916805A43031F40E94B125A2E3B8E058
:104438000E946623A0916805A53031F40E94B12539
:10444800A3E4B8E00E946623A0916805A63031F481
:104458000E94B125A2E5B8E00E946623A0916805F4
:10446800A73031F40E94B125AFE5B8E00E94662379
:10447800A0916805A83031F40E94B125ACE6B8E0F7
:104488000E946623A0916805A93031F40E94B125E5
:10449800A4E7B8E00E946623AB81BC81A836E0E0BF
:1044A800BE07A1F4A0916805A13031F40E94B1259E
:1044B800A3E8B8E00E946623A0916805A23031F411
:1044C8000E94B125ADE8B8E00E946623A981BA81AF
:1044D8000E9473231E2F103130F40E94BA25E0E2A7
:1044E800EC931F5FF8CF188125960895BA93AA9385
:1044F8002497A0910605A130E9F4AE81A43658F4BA
:104508000E942C28E883AE810E944627E05DE9835B
:10451800E0E0EA830EC0AE810E945F26E883AE81A8
:10452800B0E00E94FA260E943428E05DEA83E0E0C9
:10453800EB831EC0E0910605E03011F5AE81A4368C
:1045480048F40E942C280E943428E05DE883E0E0CB
:10455800EA830EC0AE810E945F26EA83AE81B0E096
:104568000E94FA260E943428E05DE883E0E0EB83AD
:10457800EC81FD81FA93EA93DE0112960E944123B1
:1045880027960895BA93AA931A930A93A0910605B9
:10459800A130E9F100E00830D0F50E9437281C91DD
:1045A800E02FAA81BB81F0E0EA0FFB1FBF010E9448
:1045B8003D28AA81BB81AE0FBF1FEC91DB01EC93B4
:1045C8000E943D28AA81BB81EA0FFB1F10830E942D
:1045D8003728AC91A03E28F00E943728AC91AB3F19
:1045E80008F005C00E943728EC91E054EC93103E87
:1045F80010F01B3F08F009C00E943D28AA81BB812A
:10460800AE0FBF1FEC91E054EC930F5FC4CF19813C
:10461800088124960895959A089595980895BA93CF
:10462800AA93A991B991E991F99130962AF4E09564
:10463800F09531966DE26D93E89480E197E20DD0A4
:1046480088EE93E00AD084E6992707D08AE005D05F
:104658006E2F10D066276C9308956627E817F90720
:1046680020F06395E81BF90BC9F7662311F416F0DF
:1046780008956894605D6D930895BA93AA93E9913B
:10468800F991A991B991CD016D916623E9F7119737
:1046980061916D936623E1F7FC010895BA93AA939B
:1046A800E991F991A991B9911D900590011421F40E
:1046B8000020D1F7EE2708951018E1F3E1E008F49F
:1046C800E2500895BA93AA93E991F991A991B99101
:1046D800CD0105900D920020E1F7FC010895BA93F1
:1046E800AA93A991B991EE27FF276D91662311F03E
:1046F8003196FBCF0895AA93002411246991E9917A
:10470800F991A991B991662349F06A951D90059090
:10471800011421F40020B9F7EE2708951018E1F3E9
:10472800E1E008F4E2500895AA937991E991F991AA
:10473800A991B991CD01772351F07A9561916D9343
:104748006623C9F7772319F07A956D93FBCFFC019F
:104758000895AA93BA93EA93FA93EFB7EA93089560
:10476800E091CB05F0E0E558FA4FE0810895E0E0EC
:10477800E0930007E093F9060895E1E6F0E0E0939E
:104788005005F09351050895E6E0E0935305E4E5FC
:10479800F5E0FA93EA9308950E946623A1E00C9449
:1047A800CA1BE0E0E0933607E0933D07CC24089568
:1047B800E091FA06EF5FE0930207EAEFF0E0E0939A
:1047C8003E07F0933F07E1E0E09303070895EAEF1F
:1047D800F0E0E0933E07F0933F070895E0E0E093B0
:1047E8001107E0931207E1E0F0E0E0931307F0937C
:1047F80014070895E0E0E0930C05E0930B05089595
:10480800E0E3F7E0FA93EA93A09136070C94D91302
:10481800E1E0E0930705E0E0E0931A070895A0912E
:104828001107B09112070895E0931307F093140746
:104838000895E0912907F0E03197EC5AFA4F08956E
:10484800EDE6F0E0E0935005F09351050895E0930C
:104858006505E6E0E09353050895E3E0E093070576
:10486800E1E0E0936805E0932907E0932A070895BB
:10487800E2E0E0930705E1E0E0936805E0932907AB
:10488800E0932A070895E7E6F0E0E0935005F093F7
:1048980051050895E5EEF0E0E0935005F0935105D9
:1048A8000895E0936505E0E1E09353050895E093EA
:1048B8000705E1E0E0936805E0932907E0E0E0936D
:1048C8002D07E0932C07E1E0E0932A070895E5EE31
:1048D800F8E0E0935005F09351050895E0936505DD
:1048E800E3E0E0935305E2E0E2CFE5E6FAE0E093A7
:1048F8005005F09351050895E4E7FAE0E093500578
:10490800F09351050895E0E4F0E0E0935005F0934A
:1049180051050895EDE7FAE0E0935005F09351054D
:10492800E0E0BFCFEDE7FAE0E0935005F0935105E2
:104938000895A09168050C94E21BE0E0E0936805F7
:10494800E0931A07E09307050895AD2D0E9403141C
:10495800CE2EE3E0E0931707A1E00C94FB14E3E00C
:10496800E0931707A1E00895E5E0E0931707A2E0B8
:104978000895E0911107F09112070895E1E0E0939E
:104988001B07E0E0E0931107E0931207E0911B0793
:10499800F0E045DFEA0FFB1F47DFE0E0E093360772
:1049A800E0933D07DCCFE0E0E0933607E0933D0776
:1049B8000895E0911B07F0E032DFEA0FFB1F34CFC8
:1049C800E0931107F09312070895A09168050C94DD
:1049D800CA1BE1E0E0932907E0E0E0932D07E093AC
:1049E8002C070895E1E0E0935305A3E00C94E21B43
:1049F800A3E00E94B20EE0915405EF700895E0E143
:104A0800E0935305A1E00E94E21BE4E5F5E0FA9388
:104A1800EA93E6EBF0E0FA93EA930895E4E5F5E02B
:104A2800FA93EA930895E12FF0E0EC5AFA4F0895CB
:104A3800E0912C07EF5FE0932C0708951E2FA091BB
:104A48002C07A330089595DFFA93EA93A0EDB5E01B
:104A58000C94C71CA0EEB5E00C94C622E0E1E093EC
:104A68005305AC2D0C94E21BE0EDF5E0FA93EA93C4
:104A78000895AC2DB0E0E4E6F0E00E9476280895B1
:104A8800AC2DB0E0EAE0F0E00E947628DF01EAE031
:104A9800F0E00E947E28E05DE093DE05AC2DBB27A8
:104AA800EAE0F0E00E947E28E05D0895AC2DB0E0D9
:104AB800EAE0F0E00E9476280895E093DD05AC2D49
:104AC800BB27EAE0F0E00E947E28E05DE093DE0587
:104AD8000895E093DE05AC2DBB27EAE0F0E00E94E4
:104AE8007E28E05DE093DD050895DF01EAE0F0E06F
:104AF8000E947E28E05D0895AC2DBB27EAE0F0E037
:104B08000E947E28E05D0895BB27EAE0F0E00E945D
:104B18007E28E05DE093E5050895E0911307F091A4
:104B28001407FA93EA93A0EEB5E00C94C71CA0ED25
:104B3800B5E00C94C622A0EEB5E00C94890EEA818B
:104B4800FB81FA93EA93A0E00E94581CE881F9815E
:104B5800FA93EA93A0E40C94581CE981FA81FA9339
:104B6800EA930895AEE8B1E00C946623A981BA816E
:104B7800EE27A10FBE1F0895E02FF0E0EC5AFA4F80
:104B88000895A02FB0E0AC5ABA4F08950E949A2811
:104B9800EA1BFB0B0895E0935305A1E00E94E21B7A
:104BA800A1E00E94B20EE0915405EF700895E091E3
:104BB8005505EF70AAE0EA02F001AE2FE091560524
:104BC800EF70EA0F0895A2E00E94E21BA2E00E94A3
:104BD800B20EE0915405EF700895A7EAB1E00E9483
:104BE8006623A3E00C94CA1BA4E00E94E21BA4E085
:104BF8000E94B20EE0915405EF700895A5E00E945E
:104C0800E21BA5E00E94B20EE0915405EF700895F2
:104C1800E0915405EF70A4E6EA02602DE091550595
:104C2800EF70AAE0EA02F001A62FAE0FE091560558
:104C38000895A5EAB1E00E946623A2E00C94CA1B7D
:104C4800A0910607B09107070895E0930607F0932F
:104C580007070895ED91FD913196FE93EE9308951F
:104C6800A1EAB1E00E946623A3E00C94CA1BA4EF5A
:104C7800B1E00C944228E0935305D0CEA5EAB1E008
:104C88000C9466230E94CA1BC9CEA9E00E94E21BAD
:104C9800A0915405A1330895A12FB0E0EAE0F0E017
:104CA8000E9476280895A12FBB27EAE0F0E00E9431
:104CB8007E28E05D0895B0E0E4E6F0E00E94762802
:104CC800E05D0895AAE0EA02F001AE2F0895AAE097
:104CD800EA02F001A62FAE0F08950E94E21BFE0122
:104CE8003296FA93EA930895E12FF0E03197EB5862
:104CF800F94F0895AB81BC81EE27A10FBE1F0C9020
:104D080035CFE0930807F09309070895E0E0E093B2
:104D18008A001B980895A0910807B0910907089583
:104D2800E0911707ACE0EA9FF001E058FF4F8DCF04
:104D3800E1E0F0E0E6CFEFDFE6E0F0E00E947B287C
:104D480030970895E0EDFFEFE0930C07F0930D071F
:104D58000895E0E0E0930C07E0930D070895E091D3
:104D68001707F0E03396ACE0B0E00E945E28A0E8B8
:104D7800B0E00CCF65DFAE17BF070895E0E0E09321
:104D88006A05EAE6F5E0FA93EA930895EEE0F5E0BD
:104D9800FA93EA930895ABEBB5E00C948E0EE0E03D
:104DA800E0930905A0E00C947C1AE0911305E05308
:104DB800A4E6EA02602DE0911105E05388CFE09166
:104DC8005107A0915007AE170895E0915007F0E001
:104DD800EA5BF84F08951F5FE12FF0E0E558FA4FBE
:104DE8000895AC2D0E94CB14F0E00895EAE0F0E0BD
:104DF8000E9476287ACEEC93E0914307E03008953C
:104E0800E0930905E8CFA083E0914307E0300895D7
:104E1800A0E5A083E0CFA3E5A083DDCF1F5FA12F8E
:104E2800B0E0A558BA4F0895BF01A0910A07B09104
:104E38000B0708950E946328E05DDB01EC93CBCF5C
:104E4800E05DDB01EC93C7CFBB27EAE0F0E00E940E
:104E58007E28E05DDB01EC930895A7E4A083BBCF37
:104E6800B0E0EAE0F0E00E947628EACFE0E1E093E3
:104E78005305A0910B050E94E21B00E00895ACE7E2
:104E8800A08350CDBB27EAE0F0E00E947E28089579
:104E9800E72D7394F0E0E554FA4F0895EF70E05D64
:104EA800EC93F6CFEF70E05DDB01EC93F1CFE0E03F
:104EB800E0934407E09343070895E0E1E093530546
:104EC800E0E0E093650500E0A9CDE12FF0E0E25FC6
:104ED800FA4F0895A0910C050E94CA1B23CDE02F1C
:104EE8000F5FF0E0EC5AFA4FDF01E12F1F5FF0E0AF
:104EF800E25FFA4FE081EC930895E3B1EF70E3B914
:104F0800E3B1E12BE3B90895AA930E94C028EC818C
:104F1800E0935205F0E031979F01E0915005F09140
:104F28005105E050F040BF01E0915305F0E0D90190
:104F38000E945E28E60FF71FE0934E05F0934F0599
:104F480008950E947B1CAEE00C947B1CAFE10E948C
:104F58007B1CA4E00C947B1CA4E00E947B1CA4E0B6
:104F68000E947B1CA4E00C947B1CAA930E949D1CAD
:104F7800E5B3EF70E5BBE5B3AE2FE881E07F0895B8
:104F8800EA2BE5BB0C94BD1CE5B3EF70E5BBE5B3BC
:104F9800AE2FE881E29508950E946623A981BA811F
:104FA8001D96E1E0EC93A981BA811F96E2E0EC93AB
:104FB8000895AA81BB810C947A220E946623E0910D
:104FC8001105EF707FCEE0911205EF70EA0FEA93BA
:104FD800F0CFE0911705A981BA81EC93E09116050D
:104FE800A981BA811196EC93E0911505A981BA813E
:104FF8001296EC93E0911405A981BA811396EC936B
:10500800E0911305A981BA811496EC93A981BA811C
:105018001696E0E2EC93A981BA811796E0E0EC934A
:1050280008950E946623A0E020FCA1E0A130089525
:105038000E946623E2E0E093670508950E946623D4
:10504800E0916805EA93B5CFA9E8B5E00C9466232A
:10505800AE81B0E0EAE0F0E00E947628E05D0895D5
:10506800E983AE810FCFAA81BB81EE27A00FBE1FB7
:105078000895E02FF0E0AFE0B0E088CD109639F069
:1050880088EE93E00197F1F7A8951197C9F708956D
:10509800F195E195F0400895FA9FF02DEB9FF00D02
:1050A800EA9FE02DF10D08956E2F6A9FF0016B9F26
:1050B800F00D08952DD0F0DF0EF4EADF08950024F6
:1050C800112490E1AA0FBB1F001C111C0E1A1F0A05
:1050D80018F40E0E1F1E01C0A1609A9599F7FD01E4
:1050E800D001089515D0EBDF0EF4D2DF0895E7DF85
:1050F800FD010895E894B7FF04C0A095B0951196F6
:105108006894F7FDC5DFDBDFFD010EF4C1DF08950C
:10511800E894F7FF02C0BCDF6894B7FF06C0A0950B
:10512800B095119600F8039400FA08951B2EBF2F2E
:10513800F12D1A2EAE2FE12D0895E199FECFFF93A0
:10514800FFB7F894AEBBBFBBE09AEDB3FFBFFF91CA
:105158000895E19B02C0A895FCCF9FB7F894AEBB19
:10516800BFBBE09A8DB3E81719F0EDBBE29AE19A5C
:105178009FBF08955A934A933A932A931A930A938E
:1051880008955D814C813B812A81198108810895A8
:00000001FF
