:0A0000000C946E040C9400000C94A4
:10000A0000000C9400000C9400000C9400000C9466
:10001A0000000C9400000C9400000C94FC100C944A
:10002A0000000C9400000C9400000C9400000C9446
:10003A0000000C9400000C9463050C9400000C94CE
:10004A00A1040C941D050C9407050C9400000C9453
:10005A0000000C9400000C9400000C9400000C9416
:10006A0000000C9400000C9400000C9400000C9406
:10007A0000000C9400000C9400000C9400000C94F6
:10008A0000001027E80364000A00010000100001C4
:10009A001000010000000000000031323334353610
:1000AA00202020202020202020202000332E362E21
:1000BA0030322E3132380052696E677320746F20E5
:1000CA00617070203330200020EEF6ECF6EC20EC64
:1000DA00E3E9F8E420333020004469616C7320744A
:1000EA006F20617070203330200020EEFAF7F9F8A3
:1000FA0020ECE3E9F8E420333020004661696C2003
:10010A00636F6E6E656374203330200020ECE0204C
:10011A00EEE7E5E1F820E327203330200043616C65
:10012A006C2074696D656F7574203330200020F976
:10013A00E9E7E420E4F1FAE9EEE420333020002094
:10014A002053746172742074616C6B203330200008
:10015A00E4FAE7EC20F9E9E7E420E327203330204A
:10016A000041707020333020207072657373202034
:10017A00202400E3E9F8E420333020ECF6ECF6E53D
:10018A00EC202400202020202020202020202020B5
:10019A00202020200030333000303031003039390F
:1001AA0000303130003138300030323000313233F3
:1001BA00003132333435360032353235323500309B
:1001CA0030300030303500303630004170617274A2
:1001DA002023312020202000E3E9F8E42023310005
:1001EA0041706172742023322020202000E3E9F854
:1001FA00E4202332004170617274202333202020CE
:10020A002000E3E9F8E420233300202020202020E6
:10021A0020202020202020202020000048656C6C0F
:10022A006F2C2055736520202020202000546F2039
:10023A007365617263682061206E616D6500546840
:10024A0065206C6174636800697320756E6C6F63F6
:10025A006B656400576169742074696C6C00656E23
:10026A0064206F662064656C6179002020207265C5
:10027A0073657420646F6E652E2E2E004E6F20619A
:10028A006E737765720053797374656D2065727247
:10029A006F7200436F6E6E656374656400506C65BF
:1002AA006173652074616C6B004C696E65206973BB
:1002BA00206275737900506C656173652077616996
:1002CA00740053656E64656420206E6F20230053AA
:1002DA00656E64696E6720646F6E652E0052656391
:1002EA006569766564206E6F2023005265636569CF
:1002FA00766520646F6E652E004661696C206F76A4
:10030A00657220746F2047534D004E6F2047534D3E
:10031A0020756E69742E004E6F2047534D2063611D
:10032A006C6C0053656E646564206E616D65202394
:10033A0000566F6C746167652061707020230050ED
:10034A00524F472E204D454E5500416363657373E6
:10035A0020636F646573004D617374657220436F27
:10036A006465005573657220636F64650054656E39
:10037A00616E74730052656C61797320746F2041E9
:10038A00706172742E0054696D696E6773202873E8
:10039A006563290053657474696E67730046572054
:1003AA0056657273696F6E730050686F6E6573007D
:1003BA0050686F6E65732067726F757020320050D7
:1003CA00686F6E65732067726F75702033004361C2
:1003DA006C6C20666F7277617264696E6700506830
:1003EA006F6E6520666F7220230050686F6E6520FD
:1003FA003220666F7220230050686F6E65203320AA
:10040A00666F7220230043616C6C20666F7277619D
:10041A0072642300456E74657220636F64652023DD
:10042A0000536574206D617374657220636F64652F
:10043A0000536574207573657220636F64650045A7
:10044A006E746572206E616D6520230052656C6161
:10045A007920746F2041702E230044656C617920E5
:10046A0054696D6500446F6F72204F70656E696ED6
:10047A006700496C6C756D696E6174696F6E0044D2
:10048A0069616C2054696D650054616C6B20546914
:10049A006D6500446F6F722049442028317E3429EB
:1004AA0000536F756E6420747970652028317E332D
:1004BA002900526573657420747970652028317E2D
:1004CA003629004F464620616674657220756E6C47
:1004DA006F636B00466F7263652063616C6C2028E2
:1004EA00307E31290053656E64696E672070686FCB
:1004FA006E657300476574696E672070686F6E6514
:10050A0073004465627567206D6F64652028307ECC
:10051A00312900576F726B206D6F64652028317E18
:10052A003429004C43442046572E56455200322D5A
:10053A00576972652046572E56455200F9ECE5ED8B
:10054A002CE4F9FAEEF920E1202020200020ECE743
:10055A00E9F4E5F920E3E9E9F8E9ED2E00F0E02015
:10056A00ECF4FAE5E720202020202020200020209B
:10057A00202020E0FA20E4E3ECFA2121212000F0F7
:10058A00E020E4EEFAEF2020202020202020200086
:10059A00202020ECF4FAE9E7FA20E3ECFA2E2E2EDA
:1005AA0000EEFAE1F6F220E0E9F4E5F12E2E2E0053
:1005BA00202020E0E9EF20EEF2F0E42020202000C5
:1005CA00EEEEEEE9F820E4E3E52DE2E9E3E90020C6
:1005DA002020E9F920EEF2F0E4202020200020205B
:1005EA00F0E020ECE3E1F82E2E2E200020E4F7E5DF
:1005FA0020E1F9E9EEE5F92000F9E5E3F820EEF16A
:10060A00F4F8202300F9E9E3E5F820E4F1FAE9E94E
:10061A00ED00E4FAF7E1EC20EEF1F4F8202300F71C
:10062A00E1ECE420E4F1FAE9E9EEE400E4F2E1F8CD
:10063A00FA20F9E9E7E420F0EBF9ECE400E7E9E96C
:10064A00E2EF20ECE020EEE7E5E1F800E7E9E9E295
:10065A00EF20ECE020EEE7E9E9E200F9E5E3F82033
:10066A00F9ED20E3E9F8E4202300EEFAE720E1E3DC
:10067A00E9F8E4202300EEF1E3F820F9EEE5FA00C8
:10068A0020FAF4F8E9E820F8E0F9E90020F8F9E9B5
:10069A00EEFA20E4F7E5E3E9ED002020F7E5E320B0
:1006AA00E2E9F9E420002020F7E5E320ECF7E5E7AA
:1006BA00200020F9EEE5FA20E4E3E9E9F8E9ED2083
:1006CA0000F0E9FAE5E120ECF4E920E3E9F8E5FADB
:1006DA000020E6EEF0E9ED2029F9F0E9E5FA282014
:1006EA0000E4E2E3F8E5FA20F4F0EC20E3ECFA00A7
:1006FA00E2E9F8F1FA20FAE5EBF0E400E8ECF4E5D7
:10070A00F0E9ED20ECF4E920E3E9F8E400EEF1F495
:10071A00F8E920E8ECF4E5EF203200EEF1F4F8E92C
:10072A0020E8ECF4E5EF203300EEF6E120E4F2E114
:10073A00F8FA20F9E9E7E400E8ECF4E5EF20ECE365
:10074A00E9F8E42000E8ECF4E5EF203220ECE3E9F4
:10075A00F8E42000E8ECF4E5EF203320ECE3E9F8D4
:10076A00E42000E4F2E1F8FA20F9E9E7E420E327DB
:10077A00200020E4EBF0F120F7E5E320230020E459
:10078A00EBF0F120F7E5E320E2E9F9E4200020E4C8
:10079A00EBF0F120F7E5E320ECF7E5E7200020E4B1
:1007AA00EBF0F120F9ED202300F0E9FAE5E120EC85
:1007BA00E3E9F8E42023002020E6EEEF20E4EEFA55
:1007CA00F0E4200020E6EEEF20F4FAE9E7FA20E36D
:1007DA00ECFA20002020E6EEEF20FAE0E5F8E4202B
:1007EA00002020E6EEEF20ECEEF2F0E420002020DC
:1007FA00E6EEEF20F9E9E7E42000E6E9E4E5E9209E
:10080A00E3ECFA203120F2E3203400E4E2E3F8FAE0
:10081A0020F6ECE9EC20302C312C3200E0E9F4E54A
:10082A00F120EBECECE92000F0E9FAE5F720ECE046
:10083A00E7F820F4FAE9E7E400EEF6E120E7E8E970
:10084A00F4FA20F9E9E7E400ECF9E3F820E8ECF43B
:10085A00E5F0E9ED00ECF7E1EC20E8ECF4E5F0E98D
:10086A00ED00EEF6E120E8F1E800E0E5F4EF20F42F
:10087A00F2E5ECFA20F4F0EC00E2E9F8F1FA20F4FF
:10088A00F0EC00E2E9F8F1FA20EEEEE9F8000100F6
:10089A002D4E414E00494E460000010002009E00C6
:1008AA0004000400A00001000005B50001000105D4
:1008BA00B50001000205B50001000305B5000100FD
:1008CA000405B50001000505B50001004B079808AD
:1008DA000000F894EE27ECBBF1E0F5BFE5BFE0932A
:1008EA006C00F8E1F1BDE1BD8DE0A2E0BB27ED931C
:1008FA008A95E9F780E090E1A0E0B1E0ED930197F5
:10090A00E9F7E4EAF8E085919591009761F0A591FD
:10091A00B59105901590BF01F00105900D920197D0
:10092A00E1F7FB01F0CF8BBFEFEFEDBFE0E1EEBFE8
:10093A00C0E0D5E00C946D050E9491231A93AF9301
:10094A00BF93EF93FF93AFB7AF9388241CB1E1E055
:10095A00E2BFE7B7E160E7BF44FC40C01030B1F145
:10096A00E0917A05F0E0E25FFA4F1083E0910E051C
:10097A00F0E03196A0917A05B0E0AE17BF0794F087
:10098A00E7B7EE7FE7BF992011F4E1E09E2E191533
:10099A0011F4689401C0E89421F8E0E14E2AE7EFE7
:1009AA004E2207C0A0917A05A13018F0E8E04E2A3D
:1009BA00910EE0917A05EF5FE0937A05E0917A056E
:1009CA00F0E0E25FFA4FA0E0A08308C0E7EE4E2213
:1009DA00E0E0E0937A05E89421F89924E0917A0519
:1009EA00F0E03396E134A0E0FA071CF0E0E0E0938F
:1009FA007A05AF91AFBFFF91EF91BF91AF91199176
:100A0A000C945C05EA93EFB7EA93AF93BF93EF9325
:100A1A00FF93AFB7AF9356981A989924EDEF4E22E9
:100A2A008824AF91AFBFFF91EF91BF91AF914CC0B6
:100A3A000E949123AF93BF93EF93FF93AFB7AF9306
:100A4A00E091CB05E03029F1E0917B05F0E03196A9
:100A5A00A091CB05B0E0EA17FB071CF45598569A0B
:100A6A0017C0E0917B05A091CB05EA1730F49920D5
:100A7A0011F4E1E09E2E9CB806C00E9498239E0EB7
:100A8A000E949823ECB9E091CB05EF5FE093CB0588
:100A9A0008C00E949823ECB9E091CB05EF5FE09380
:100AAA00CB05AF91AFBFFF91EF91BF91AF91E991A4
:100ABA00EFBFF991E991B991A9911895EA93EFB726
:100ACA00EA93E7B7EE7FE7BFE991EFBFE99118959F
:100ADA00EFE1E1BDEFE0E1BDE0E0EBBBEFEFEABB48
:100AEA00E0E8E8BBE1E2E7BBE0E0E5BBEFEFE4BB4F
:100AFA00E0EDE2BB909AECE7E1BB8898E7E0E3B966
:100B0A00EEEFE2B9E0E0E0936200EFEFE09361001C
:100B1A00ECE9E0936500E4E0E0936400E7E0E3BF1A
:100B2A00E0E0E0BFE1E0E2BFE0E0E1BFEFBDEEBD43
:100B3A00EDBDECBDEBBDEABDE9BDE8BDE0937900D2
:100B4A00E0937800E4BDEAEFE3BDEBE0E5BDE3E462
:100B5A00E0938B00E0E0E0938A00E0938900E09361
:100B6A008800E1E0E0938700E0E0E0938600E0930C
:100B7A008500E0938400E0938300E0938200E09391
:100B8A006A00EABFE9BFE7B7E068E7BFE7B7E46929
:100B9A00E7BFE7B7EE7FE7BFE0E0E0937D00EBB9A0
:100BAA00E8EDEAB9E6E0E0939500E9E1E9B9E0E0C9
:100BBA00E0939000E0939B00E0939A00E0939D00FD
:100BCA00E0939900E0939800E0E8E8B9E0E0E0BD3E
:100BDA0078940E94721A0E94EA1B0E949F23A09195
:100BEA00F906A23378F4809906C0E0910007EF5F16
:100BFA00E093000701C006C0E091F906EF5FE093B9
:100C0A00F906EDCFA091F906A23310F0E1E001C098
:100C1A00E0E0E09306050E949F230E945E0FE0E059
:100C2A00E0930805689422F8E89421F8E3EBE0934E
:100C3A001007E7B7EE7FE7BF55982ED2E8E3E093B7
:100C4A003A07C09AA8950E94FB14E0916300E870E5
:100C5A0051F4A091F906A33328F4E091F906EF5F65
:100C6A00E093F90603C0E0E0E093F906A091F906E3
:100C7A00A23371F40E94A5230E94AC23A4EAB0E037
:100C8A000E94B423E3E0E0931707A4E00E94E4146F
:100C9A00E0916300E07111F0879904C0A091070503
:100CAA00A03009F00AC0A0910007A33328F4E0910C
:100CBA000007EF5FE093000703C0E0E0E09300075E
:100CCA00A0910007A23339F40E94B9230E94BE23DF
:100CDA00E4E0E0931707E0910207E03021F4E091A5
:100CEA000307E03009F41BC00E94B923E0E0E09357
:100CFA000307E091FB06E03049F00E94F322E091FD
:100D0A00FB06EF5FE09304070E94CD23E1E0E09346
:100D1A000507E4E0E0931707ABE00E946C17E09147
:100D2A000407E03021F4E0910507E03009F412C02D
:100D3A00E0910705E03011F40E94D423E0E0E0934B
:100D4A0005070E94F522E091FE06E03019F0A2E0C4
:100D5A000E946C17E091F806E03031F0E0E0E09391
:100D6A00F806E3E0E0931707E0911907E03029F06D
:100D7A00E0E0E09319070E94E023BB20E1F4E5E0FC
:100D8A00BE2E0E94291BE0931507E030A1F0E091E6
:100D9A00FC06E03021F0EF5FE0930107A89A90D2B9
:100DAA00E0910507E03021F4E0910705E03009F011
:100DBA0002C00E94CD2341FC02C00E94E01586D5E4
:100DCA0026FE05C0E89426F8E8E7E0933B0725FEEF
:100DDA003CC0E89425F8E0910705E03039F0E0914D
:100DEA003B07E03019F0E150E0933B07E0913D0703
:100DFA00E03059F1E150E0933D07E03031F5E09100
:100E0A003C07E030D9F0E150E0933C07E03091F440
:100E1A00A0913E07A03021F4A0910905A03009F065
:100E2A0004C0A6E00E946C1704C00E94721A0E94B5
:100E3A00E72303C0A6E00E946C1707C00E94721A3B
:100E4A00A1E00E94801A0E94E723A0913A07A230EB
:100E5A0020F0A0910705A03009F019C0E0913607EB
:100E6A00E03091F00E94ED23E13870F40E94ED2306
:100E7A00CE2EAC2D0E94B414E03029F0AC2D0E9485
:100E8A00B414E13808F0CC24E0E0E0933607E091AE
:100E9A003B07E03021F4A0910705A13008F403C014
:100EAA0015D014D000D1A0913907AE3720F0A09107
:100EBA000705A23008F404C0E0E0E093390734D013
:100ECA0024FEFECFE89424F8BDCEFFCFE0911A07A6
:100EDA00E03039F4E0E0E0930705E89420F8E3D045
:100EEA0022C00E94F523E0911A07F0E0E45EF84F71
:100EFA00E081E0931B070E94FC23EDE0F0E00E94F2
:100F0A0044280E940124E0911B07F0E0A0911307F6
:100F1A00B0911407AE1BBF0BA0931107B093120731
:100F2A00E0E0E09368050895A0910705A53009F46B
:100F3A000895E0912A07E03049F00E940624E081F2
:100F4A00E0932B070E940624AEE204C00E94062406
:100F5A00A0912B07A083A0912A07E1E0EA27E0935A
:100F6A002A070895E0E0E09339070E94FC235A9784
:100F7A0039F40E940D24E4E10E9414240E941A24E8
:100F8A000E94FC23979739F40E94A523E1E00E946E
:100F9A0014240E9425240E94FC23D49739F40E9429
:100FAA003024E1E00E9414240E9425240E94FC239C
:100FBA001D9741F40E943724E0E80E943E24E4E0B1
:100FCA000E9444240E94FC23AE34E0E0BE0729F4C8
:100FDA000E945424E0E80E945B240E94FC23A1346E
:100FEA00E0E0BE0729F40E946224E5E00E945B2447
:100FFA000E94FC23AB35E0E0BE0759F40E94692445
:10100A00E9E0E0936505E1E0E0935305E2E00E9440
:10101A0044240E94FC23A836E0E0BE0741F40E9463
:10102A007024E2E00E943E24E5E00E9444240E94EB
:10103A00FC23A238E0E0BE0721F40E9477240E9434
:10104A001A240E94FC23AF38E0E0BE0721F40E9474
:10105A0077240E941A240E94FC23AC39E0E0BE07E0
:10106A0021F40E9477240E941A240E94FC23A537A7
:10107A00E0E0BE0751F40E947F24E0E0E0936505BA
:10108A00E1E0E09353050E942524E0916805E030F1
:10109A0011F00E94862408950E94D4230E948A2473
:1010AA000E945E0F08950E94D4230E948A24E0E0E1
:1010BA00E0933A07E0930A05E093F70608951A9336
:1010CA00F2DFA0911507A53169F4E0E0E093F70695
:1010DA00D394E091F606ED1510F4E1E0DE2E0E94BD
:1010EA009224EDC0A0911507A73169F4E0E0E093DE
:1010FA00F706E1E0ED1518F0D090F60601C0DA9493
:10110A000E949224DCC0A0911507A63109F046C0BE
:10111A00E0913607E03041F00E94ED23E13820F4F7
:10112A000E94ED23E03011F4CC2081F1CC2019F497
:10113A000E94ED23CE2EE1E0F0E0E0933707F09332
:10114A003807E89425F8E0E0E09318070E94721A3D
:10115A00AC2D0E94B414E13028F0AC2D0E94B414D6
:10116A00E13808F00DC0A1E00E946C17E1E0E093BD
:10117A00F806E0910A07E093F7060E949C2403C050
:10118A00CC240E94A1240E94E41404C00E94A12439
:10119A000E94E414E0E0E093360791C0A09115079D
:1011AA00A83109F053C0E0E0E093F7060E94A710C7
:1011BA001E2F0E94A624309709F040C0113039F43E
:1011CA000E94B9230E94BE230E949C2434C012307C
:1011DA0041F4A0910207A03021F4A0910407A030A5
:1011EA0009F00BC00E94721A689426F8E89420F855
:1011FA000E94F5230E94AB241EC0133041F4A09133
:10120A000207A03021F4A0910407A03009F00EC013
:10121A000E94721A689426F8E1E0E093070520F824
:10122A00E0E0E0931A070E94AB2405C0E0E0E093F7
:10123A0036070E94A1240E94E41407C0E0E0E0936C
:10124A0036070E94A1240E94E41439C0A091150710
:10125A00A13010F0AB3008F01FC00E949C240E94FD
:10126A00E414CC24DD24A0911507AA3019F4E0E097
:10127A00E0931507E0913607F0E0E05DF84FA091A2
:10128A001507A083A0913607A63028F4E091360707
:10129A00EF5FE093360713C0A0911507A13179F4E7
:1012AA00E0E0E093F706E0933607E1E0E093190700
:1012BA000E949C240E94E414A2E00E946C1704C3BA
:1012CA00E0910705E03029F4E3E0E0931807F7DE40
:1012DA0017C1A0910705A13009F05CC0E8E7E093C7
:1012EA003B07A0911507A53181F4E0916605A0910D
:1012FA001B07EA1711F4E1E003C0E0911B07EF5F57
:10130A00E0931B070E94BE2444C0A0911507A73191
:10131A0079F4A0911B07A13019F4E091660503C086
:10132A00E0911B07E150E0931B070E94BE2431C0E5
:10133A00A0911507A63139F5E0916705F0E03197DC
:10134A00A0911A07B0E0AE17BF07DCF4E0911A07C4
:10135A00F0E0E45EF84FA0911B07A083E0911A0722
:10136A00EF5FE0931A07E1E0E0931B07A0911307F0
:10137A00B0911407EDE00E9439280E94C5240E940A
:10138A00BE24F0DD06C0A0911507A13111F49EDD3F
:10139A0090D5B0C0E0912A07E03009F4C5DDE8E74E
:1013AA00E0933B07A0911507A831F9F40E94FC23AA
:1013BA001D9791F4E0912907EF5FE0932907E0E098
:1013CA00E0932C07E0915305A0912907EA1718F436
:1013DA00E1E0E093290708C0A0910705A33021F4B2
:1013EA00E1E0E09329078DD085C0A0911507A531CA
:1013FA00C1F4A0910705A53011F00E94CA24E0911A
:10140A006505A0916805AE1720F4E0916805EF5FC5
:10141A0001C0E1E0E09368050E9486240E94CE2480
:10142A0069C0A0911507A731B9F4A0910705A530A5
:10143A0011F00E94CA24A0916805A23020F0E09120
:10144A006805E15002C0E0916505E09368050E94D5
:10145A00CE240E9486244EC0A0911507A131A9F579
:10146A00A0912907A23048F0E0912907E150E093C2
:10147A002907E0E0E0932C0727C00E94CA240E94B3
:10148A0069240E94D7240E94DD24E0932F071EDDE1
:10149A00E0912F07E03019F019DD0BD515C00E9435
:1014AA0070240E94E424A0E10E946323E03061F0EA
:1014BA000E94F324E6EBF0E0FA93EA93A0E10E949B
:1014CA006323A1E00E94AE1B15C0A0911507A631A7
:1014DA0089F00E94FC231D9711F44FD00BC0A091F4
:1014EA000705A53009F40895A0912907A13009F448
:1014FA0008D017D0E3E0E0931707A1E00E94E414B4
:10150A0008951A93E0912907E1501E2FE09153059F
:10151A001E1730F40E94F824A0E2A0831F5FF6CFC2
:10152A00D3C1A0911507A13010F0AB3008F024C048
:10153A00A0911507AA3019F4E0E0E09315070E947C
:10154A000624DF01E0911507E05DEC93E09129079D
:10155A00EF5FE0932907E0915305A0912907EA1765
:10156A0040F4E1E0E0932907A0910705A43009F4CB
:10157A00C8DFE0E0E0932C0708951A93E0E0E093D7
:10158A002D07A0911507A13010F0AB3008F09CC1CF
:10159A00A0911507AA3019F4E0E0E0931507E0914D
:1015AA001507A0911607EA1711F0E1E003C0E091D0
:1015BA002C07EF5FE0932C07E0911507E0931607DD
:1015CA00A0912C07A430C9F4A0911507A730A9F05F
:1015DA00A93021F0A0910605A13069F0A091150764
:1015EA00A43041F0A53031F0A93021F0A0910605D0
:1015FA00A03009F002C00E94FD24A0912C07A63059
:10160A0018F0E1E0E0932C07A0912C07A53029F40B
:10161A00E0911507E05D1E2F54C1E0912D07E030DF
:10162A0009F036C1A0911507A130B1F4A0912C0799
:10163A00A13009F417E2A0912C07A23009F41DE2A7
:10164A00A0912C07A33009F41EE2A0912C07A33025
:10165A0011F40E94FD241CC1A0911507A230B9F40F
:10166A00A0910605A13021F4E0912C07E05C07C0A7
:10167A00E0910605E03021F4E0912C07EE511E2F8F
:10168A00A0912C07A33011F40E94FD2401C1A0915E
:10169A001507A330B9F4A0910605A13021F4E09111
:1016AA002C07ED5B07C0E0910605E03021F4E091DC
:1016BA002C07E1521E2FA0912C07A33011F40E948F
:1016CA00FD24E6C0A0911507A43031F5A0910605C6
:1016DA00A13049F4E0912C07EA5B0E94032511F43A
:1016EA000E94FD2418C0E0910605E030A1F4A09103
:1016FA002C07A13009F410EFA0912C07A23009F4AD
:10170A001FEEA0912C07A33009F41EEEA0912C071E
:10171A00A43009F41DEEBCC0A0911507A53031F51F
:10172A00A0910605A13049F4E0912C07E75B0E94DD
:10173A00032511F40E94FD2418C0E0910605E0304B
:10174A00A1F4A0912C07A13009F419EEA0912C075D
:10175A00A23009F41BEEA0912C07A33009F41AEE6B
:10176A00A0912C07A43009F41CEE92C0A091150791
:10177A00A630B9F4A0910605A13021F4E0912C0716
:10178A00E45B07C0E0910605E03021F4E0912C0704
:10179A00EB511E2FA0912C07A33011F40E94FD24B7
:1017AA0077C0A0911507A730B1F4A0910605A13022
:1017BA0029F4E0912C07E15B1E2F0CC0E09106058D
:1017CA00E03041F4E0912C07E9500E94032511F41E
:1017DA000E94FD245DC0A0911507A83019F5A091BB
:1017EA000605A13029F4E0912C07ED5A1E2F13C0EB
:1017FA00E0910605E03079F4A0912C07A13009F4B4
:10180A0016EFA0912C07A23009F415EFA0912C072E
:10181A00A33009F417EFA0912C07A33011F40E940A
:10182A00FD2436C0A0911507A93011F5A09106052F
:10183A00A13029F4E0912C07EA5A1E2F18C0E09132
:10184A000605E030A1F4A0912C07A13009F411EFAC
:10185A00A0912C07A23009F412EFA0912C07A33013
:10186A0009F414EFA0912C07A43009F413EF10C067
:10187A00E0912C07E35C6E2FE0911507A3E0EA02E2
:10188A00F001E60F1E2FA0912D07A23009F4105E79
:10189A00E0911507E030A9F4A0912C07A13009F4D2
:1018AA0010E2A0912C07A23009F418E2A0912C07AB
:1018BA00A33009F419E2A0912C07A33011F40E9475
:1018CA00FD240E9406241083199108950E94082578
:1018DA00A0910705A03011F0A13009F40AC0A0EECA
:1018EA00B5E00AD2A0910705A43011F40E940F2591
:1018FA00F0C1CC2021F0E091F706E03009F4C7C02E
:10190A000E9437240E941325E0910A05F0E03097DF
:10191A00A1F4A0910605A13029F40E941925A1EC91
:10192A00B0E008C0E0910605E03031F40E941925C4
:10193A00A2EDB0E00E944A235FC0E130A0E0FA07BE
:10194A00A1F4A0910605A13029F40E941925A3EE5D
:10195A00B0E008C0E0910605E03031F40E94192594
:10196A00A4EFB0E00E944A2347C0E430A0E0FA079F
:10197A00A1F4A0910605A13029F40E941925A5E039
:10198A00B1E008C0E0910605E03031F40E94192563
:10199A00A6E1B1E00E944A232FC0E230A0E0FA0794
:1019AA00A1F4A0910605A13029F40E941925A7E205
:1019BA00B1E008C0E0910605E03031F40E94192533
:1019CA00A8E3B1E00E944A2317C0E530A0E0FA0775
:1019DA0099F4A0910605A13029F40E941925A9E4D9
:1019EA00B1E008C0E0910605E03031F40E94192503
:1019FA00AAE5B1E00E944A230E941E253097E1F031
:101A0A00A0910605A13051F40E941E25E05DE093E5
:101A1A00DD050E942525E093DF050DC0E09106054E
:101A2A00E03049F40E941E25E05DE093DF050E9444
:101A3A002525E093DD0527C00E943B253097A1F0BC
:101A4A00A0910605A13031F40E943B25E05D0E9479
:101A5A00422509C0E0910605E03029F40E943B25A1
:101A6A00E05D0E944E250FC0A0910605A13021F429
:101A7A00E0E20E94422507C0E0910605E03019F431
:101A8A00E0E20E944E25A0EEB5E036D11EC1CC2080
:101A9A0021F0E0910705E03009F080C00E94372468
:101AAA000E941325A0EDB5E027D1A0910605A1302B
:101ABA0039F4E0EEF5E0FA93EA93ABE6B1E00AC056
:101ACA00E0910605E03041F4E0EEF5E0FA93EA939E
:101ADA00ADE7B1E00E944A23E3E0E093EF050E94FC
:101AEA001E25309741F1A0910605A13081F40E948C
:101AFA001E25E05DE093E4050E943B250E945A25DD
:101B0A00E093E5050E946125E093E60513C0E091A4
:101B1A000605E03079F40E941E25E05DE093E705B2
:101B2A000E943B250E945A25E093E6050E94612502
:101B3A00E093E50532C00E943B253097D1F0A09191
:101B4A000605A13031F40E943B25E05DE093E405EF
:101B5A000CC0E0910605E03059F4E0E2E093E705B5
:101B6A000E943B25E05DE093E605AC2D0E946925C5
:101B7A0014C0A0910605A13021F4E0E2E093E40547
:101B8A0009C0E0910605E03041F4E0E2E093E705A0
:101B9A00E093E605AC2D0E94692597C0E0910805FF
:101BAA00E03009F490C0F0E0E130A0E0FA0749F42F
:101BBA00E9E0F0E00E94C524EAE0F0E00E94012496
:101BCA0075C0E230A0E0FA0749F4EDE0F0E00E94C7
:101BDA00C524EEE0F0E00E94012468C0E630A0E0EF
:101BEA00FA0749F4E9E0F0E00E94C524E4E1F0E0F4
:101BFA000E9401245BC0E730A0E0FA0749F4E3E160
:101C0A00F0E00E94C524E5E1F0E00E9401244EC004
:101C1A00E430A0E0FA0791F4EFE0F0E00E94C52476
:101C2A00E0910B05E03019F0EEE0F0E002C0E0E1EF
:101C3A00F0E0E0931307F093140738C0E530A0E012
:101C4A00FA0791F4E1E1F0E00E94C524E0910C0565
:101C5A00E03019F0EEE0F0E002C0E2E1F0E0E093FB
:101C6A001307F093140722C0E830A0E0FA0791F4B2
:101C7A00E6E1F0E00E94C524E0910D05E03019F09C
:101C8A00EEE0F0E002C0E0E1F0E0E0931307F09349
:101C9A0014070CC0E930A0E0FA0741F4E7E1F0E0EC
:101CAA000E94C524E8E1F0E00E940124E0E0E0930C
:101CBA0008050E9408250E9472250E940F25E4E06B
:101CCA00E093180706C00E947225A0EEB5E00E94B4
:101CDA00AA220E947C250E9419250E948025089527
:101CEA00BA93AA930E94842580C2BA93AA935520D4
:101CFA0011F00E94842579C2BA93AA931A930E947A
:101D0A0092250E94972510E0E09153051E1728F4AA
:101D1A000E94F824E081E03009F408C00E949B2563
:101D2A000E94F824E081EC931F5FEECF188123967E
:101D3A000895AA930E94A12811E030E0303039F5C5
:101D4A0000E0E09153050E1750F40E94A125A081EE
:101D5A00A03310F0AA3308F002C00F5FF2CFE0916F
:101D6A005305E017A1F0E1500E2F013058F00E9400
:101D7A00A625E02FF0E03197EC5AFA4FE081EC9378
:101D8A000150F3CFE0E3E09354051F5FD7CFAC8156
:101D9A000E94AE1B0E94A82825960895BA93AA937A
:101DAA006297E0E0E883E9830E949F2810E000E060
:101DBA0020E040E050E011E0E0916505E11708F409
:101DCA0074C0A895A12F0E94C61BA12FB2DF30E0D4
:101DDA0020E000E0E09153050E1750F40E94A1257F
:101DEA00E081E03029F00E94A125A081A03209F407
:101DFA0019C0A8950E94A125A081A03311F4303002
:101E0A0009F001C00DC031E0E22FF0E0DE011896C2
:101E1A00AE0FBF1F0E94A125E081EF70EC932F5FE8
:101E2A000F5FD8CFE1E0F0E0EE83FF8340E050E0BF
:101E3A0001E02017E0F0A895A22FBB27E02FF0E0E1
:101E4A000E94AB25DE011896AE0FBF1FEC91F0E0A1
:101E5A00AE81BF810E9431284E0F5F1FAE81BF81C4
:101E6A00EAE00E943928EE83FF830F5FE2CFEA8D12
:101E7A00FB8DE417F50718F04A8D5B8D09C0E88DD4
:101E8A00F98D4E175F0718F0488D598D01C00BC0A8
:101E9A005A934A93A4E5B5E00E94F722A12F49DF9D
:101EAA00A12F0E94AE1B1F5F87CF0E94A6286C96A7
:101EBA0008951A93A89591D2A8950E946224E3E006
:101ECA000E94B02579F4E0915505EF70E43050F4A2
:101EDA00E0915505EF70E33021F4E0915505EF707C
:101EEA0009F406C00E94F324AFE9B1E00E94B423CA
:101EFA000E94BC25E093FA060E94C82521F0E0E37F
:101F0A00E09354050FC0E0915505E07021F0E0918F
:101F1A005605E07009F409C00E94F324A3EAB1E06F
:101F2A000E944A23A2E00E94AE1B0E94BC25E093B5
:101F3A00FB06A3E00E94C61B0E94DD2421F00E943A
:101F4A00F3240E94D2250E94BC25E093FC06A091AE
:101F5A00FC06A33609F4A89AE091FC06E03009F4DD
:101F6A00A8980E94D92529F00E94F324A7EAB1E093
:101F7A0008C0E0915505EF7049F40E94F324ABEADA
:101F8A00B1E00E944A23A4E00E94AE1BE0915505ED
:101F9A00F0E0EF70F070AAE0B0E00E943F28DF01A5
:101FAA00E0915605F0E0EF70F070EA0FFB1FE09346
:101FBA000A07F0930B070E94E325E23060F4E13050
:101FCA0049F4E0915505EF70E83021F4E0915605A7
:101FDA00EF7009F405C00E94F324AFEAB1E00EC025
:101FEA00E0915405EF7029F4E0915505EF70E23065
:101FFA0008F009C00E94F324A3EBB1E00E944A232F
:10200A00A5E00E94AE1B0E94ED25EF70EA0FE09357
:10201A00FD060E946924E1E00E94B025E0932E07A4
:10202A00A0912E07A53010F4E03009F406C0E09123
:10203A002E07E150E0932E0706C00E94F324A5EA7A
:10204A00B1E00E94B4230E94C825AE2EE2E0EA1550
:10205A0030F4E1E0AE2E0E94F3240E94FE250E9495
:10206A00D925E093FE06A091FE06A23058F0E1E3DE
:10207A00E0935405A4E00E94AE1BE0915405EF7072
:10208A00E093FE06A9E00E94C61BA9E052DEE09199
:10209A005405E770E0930F07A0910F07A03011F0E5
:1020AA00A53048F0E1E0E0930F07E1E3E09354053F
:1020BA00A9E00E94AE1B0E94E325E093FF06A091CF
:1020CA00FF06A23058F0E1E3E0935405A5E00E9430
:1020DA00AE1BE0915405EF70E093FF060E94542472
:1020EA00E3E0E0935305E0E8E0936505E0E0F0E023
:1020FA00FA93EA93A0E8B0E051DE11E0113848F40F
:10210A00A12F0E94B414F0E0EC50FA4F10831F5F25
:10211A00F5CFE0E0E0930705A5E00E946C17A4E084
:10212A000E946C1768D30E94D4230E9408250E943B
:10213A0072250E947C250E940F250E9419250E9463
:10214A00802519C30E94A128E0E03E2F1E2FE6E059
:10215A00E09353050E94A523E0913607E030B1F1E0
:10216A003F5FA32F0E94C61B00E020E0E0913607E4
:10217A002E1710F4003009F013C0E22FF0E0EC5AE9
:10218A00FA4FA081E22FF0E0E05DF84FE081F0E045
:10219A00F096B0E0EA17FB0709F001E02F5FE6CFFF
:1021AA00003071F411E0E22FF0E0EC5AFA4FA0810E
:1021BA00A13220F0A0913607A63008F001C010E045
:1021CA00373110F4103009F001C0CACF313011F4A0
:1021DA00103009F401C012E0323011F4103009F461
:1021EA0001C013E0E12F0E94A828249608950A92BC
:1021FA001A92FA926A937A938A939A93AA93BA93BF
:10220A00EA93FA93EFB7EA93689424F8E0910C07FB
:10221A00F0910D070E940526EA0FFB1F0E940A266D
:10222A00BB2009F0BA94E0910807F09109073097AA
:10223A0079F0A8E0B7E0ED91FD913197FE93EE9326
:10224A00E0910807F0910907309711F40E94F514FC
:10225A00A0910705A23060F0A0913707B091380726
:10226A00E6E5F0E00E945C28309711F40E94990795
:10227A00A7E3B7E00E940F26A0913707B09138076D
:10228A00AA3FE0E0BE0708F49AC0E0913707F09150
:10229A003807EA5FF040E0933707F093380768940D
:1022AA0025F8E091F706E03011F1E0E0E093180735
:1022BA00E091F706E150E093F706E0910A07F09102
:1022CA000B073197A091F706B0E0EA17FB0741F434
:1022DA00E4E0E0931707E2E0EA1511F4A5E06FD312
:1022EA00E091F706E03019F4E1E0E0931907E09194
:1022FA000107E03021F0A0910107A33608F008C0D9
:10230A00E0910107E150E0930107E03009F4A89851
:10231A00E0910207E03091F0E0E0E0931807E4E092
:10232A00F0E00E94C524E5E0F0E00E940124E0917B
:10233A000207E150E0930207A1E041D3E0910407CC
:10234A00E03091F0E2E0F0E00E94C524E3E0F0E042
:10235A000E940124E0910407E150E0930407E2E0BF
:10236A00EA1511F4A3E02BD3E0911807E03041F00D
:10237A00E0913A07E03021F4E0910705E03009F0F6
:10238A000AC0E0911807E150E0931807E03019F409
:10239A00E1E0E0931907E0913607E03019F0A0E098
:1023AA00CA1609F004C0E0910705E03009F004C03C
:1023BA00E0913A07EF5F01C0E0E0E0933A07E99164
:1023CA00EFBFF991E991B991A9919991899179917F
:1023DA006991F9901990099018951A930E9470249E
:1023EA000E94E424A09153050E946323E03029F55A
:1023FA000E9469240E94D724E0915405EF70E0936B
:10240A002F07E030D1F4A0915405AF3FB1F010E0AE
:10241A00143698F4E0916300E87029F00E94F324DE
:10242A000E941526A8C1B79B05C00E94F3240E94EA
:10243A001526A1C100001F5FEBCFE7E0F0E00E9484
:10244A00C524E8E0F0E00E9401240E9408250E94C9
:10245A0072250E947C250E940F250E9419250E9440
:10246A008025A8950E941C26A895A0912F07A13027
:10247A00F1F0A23009F468C0A0912F07A33009F443
:10248A00BEC0A0912F07A43009F4E3C0A0912F0782
:10249A00A53021F4E0E0E0932F0709C0A0912F07AF
:1024AA00A63009F430C1A0912F07A73029F10E9464
:1024BA000D24E6E0E0935305E4E1E09365050E940C
:1024CA009B1B0E94F324A7EBB1E00E94B423E09186
:1024DA002F07E03009F017C10E94A5230E94AC2300
:1024EA00ABEBB1E00E94B4230E9430240E94AC23DB
:1024FA00A2ECB1E00E94B423A8950E946924E1E00D
:10250A000E942026A5EAB1E00E94B4230E94F32487
:10251A000E94FE250E94F3240E942326A4E00E9422
:10252A0027260E942326A5E00E94AE1B0E942A2687
:10253A0020F0A0915405A53338F00E94F3240E949C
:10254A002326A9E00E94AE1B0E946924E1E0E093E1
:10255A0053050E942A2620F0A0915405A53348F07D
:10256A000E94F3240E942326A9E00E94AE1BE1E008
:10257A0003C0E0915405E770E0930F070E945424CA
:10258A00E3E0E093530511E01138A0F5A895A09176
:10259A000F07A23028F4A13011F4113208F01DC03F
:1025AA00143658F40E943126E05DE09354050E94E7
:1025BA003826E0935505E0E20DC0A12F0E9440267F
:1025CA00E09354050E9431260E945A25E09355054E
:1025DA000E943826E093560508C0E0E3E0935405CC
:1025EA00E0E2E0935505E0935605A12F0E94AE1B49
:1025FA001F5FCACFE0912F07E03009F084C0A89589
:10260A000E946224E3E00E942026A9ECB1E00E9425
:10261A00B4230E94F324ADECB1E00E944A23A2E065
:10262A000E9427260E94D2250E94F324A3EBB1E040
:10263A000E944A23A4E00E942726A1EDB1E00E944D
:10264A004A23A5E00E94AE1BE0912F07E03009F073
:10265A005AC0A8950E943724E0E1E0935305E0E8C8
:10266A00E09365050E949B1BA0910605A13029F401
:10267A000E94F324A5EDB1E008C0E0910605E03020
:10268A0031F40E94F324A2EEB1E00E944A23A1E0B1
:10269A000E94AE1BA0910605A13029F40E94F324E2
:1026AA00AAEEB1E008C0E0910605E03031F40E94DC
:1026BA00F324A7EFB1E00E944A23A2E00E94AE1BD6
:1026CA00A0910605A13029F40E94F324AFEFB1E0EE
:1026DA0008C0E0910605E03031F40E94F324ACE032
:1026EA00B2E00E944A23A3E00E94AE1B14E0113814
:1026FA0050F4A8950E94F3240E949725A12F0E94C6
:10270A00AE1B1F5FF4CFA8950E946924E1E00E94E6
:10271A002026A1EAB1E00E944A23A6E00E94AE1B4D
:10272A00A7E00E94AE1BA3E00E94AE1B0E94702489
:10273A00E0E1E0935305A1E00E94C61B0E94F32446
:10274A00A6EBB0E00E943623E03079F00E94F32431
:10275A00A6EBB0E00E94B423E0E3E0935405E0E086
:10276A00E0935505A2E00E94AE1BE0910705E03018
:10277A0011F4A3E0ACD319910895AA93A881A130CA
:10278A0021F4A981BA81EC91B0C0A881A23051F498
:10279A00A981BA81EC910E944726E981FA81E181F7
:1027AA00EA0FA3C0A881A33081F4A981BA81EC9170
:1027BA00A4E6EA02602DE981FA81E1810E944C26B1
:1027CA00E981FA81E281EA0F90C0E0E08EC0AA9323
:1027DA001A9310E0103868F4E12FF0E0EB58F94F43
:1027EA00E081A981EA1719F4E12FEF5FE5C01F5FC5
:1027FA00F1CFE0E0E1C060971A930A93E9E1F0E0D3
:10280A000E94C524E4E0F0E00E9401240E94082509
:10281A000E9472250E947C250E940F250E9419257C
:10282A000E948025E0E0E093F6060E943724E0E16A
:10283A00E093530511E0113808F03DC0A895A12F87
:10284A000E9452260E94F324A0E171D0DE01129662
:10285A0036D0E030F1F40E945926A1E0A08301E0CD
:10286A000138B0F4A895A02F0E945226A4E5B5E03D
:10287A003ED0E03059F0A4E5B5E021D0E03031F4A3
:10288A000E945926DF01EC91EF5FEC930F5FE8CFCE
:10289A0004C00E945926A0E0A0830E945926A08164
:1028AA00E091F606EA1728F40E945926E081E0939F
:1028BA00F6061F5FC0CF1981088162960895BA9300
:1028CA00AA931A9310E0103120F4E09153051E17D1
:1028DA0008F009C00E949B25AC91A03211F0E0E0FB
:1028EA0003C01F5FF0CFE1E0188123960895BA93E1
:1028FA00AA931A9310E0103120F4E09153051E17A1
:10290A0008F012C00E945F26EC91E01518F4E1E08D
:10291A00188123C00E945F26EC910E1618F4E0E09D
:10292A0018811BC01F5FE7CFE0E0188116C0AA9389
:10293A00E881E03091F0E150E883AB81BC81F0E0BE
:10294A00EA0FFB1F0F01E881A981BA81F0E0AE0FFF
:10295A00BF1FEC91D001EC93EBCF25960895AA9373
:10296A001A93A981A03011F0A13810F0E0E024C038
:10297A000E945424E3E0E0935305A9810E94C61BF8
:10298A00A9810E949E0EA0915305A33019F40E94BA
:10299A00ED2507C0E0915405EF700E944726E091AB
:1029AA005505EF70EA0F1E2F113010F0113808F09C
:1029BA0002C0E12F01C0E0E0188122960895AA938F
:1029CA00AA2059F0E881E0930E07E8EEF3E00E94AE
:1029DA006626EAE1E0938A0001C002D021960895B2
:1029EA00E0E0E0930E070E946B260895E0910E073F
:1029FA00E03009F4DFC0F0E0E130A0E0FA0761F46A
:102A0A000E947026A53DE3E0BE0718F00E947526D5
:102A1A0002C00E947D26C6C0E230A0E0FA0771F427
:102A2A000E947026A939E3E0BE0728F0E0E8F2E048
:102A3A000E940A2602C00E947D26B4C0E330A0E0AC
:102A4A00FA0771F40E947026AD3BE2E0BE0728F057
:102A5A00E0E8F0E00E940A2602C00E947D26A2C099
:102A6A00E430A0E0FA0711F50E947026A73EE3E0E1
:102A7A00BE0718F00E94752618C00E947026AD3A4B
:102A8A00E3E0BE0780F00E94802619F40E948726A0
:102A9A0002C00E948E260E9494260E949F2610F44D
:102AAA000E94752602C00E947D267CC0E530A0E007
:102ABA00FA0709F077C00E947026A73EE3E0BE0736
:102ACA0018F00E9475266EC00E947026AD3AE3E0A7
:102ADA00BE0780F00E94802619F40E94872602C051
:102AEA000E948E260E9494260E949F2610F40E941D
:102AFA00752658C00E947026A934E3E0BE0718F074
:102B0A000E946B264FC00E947026A734E3E0BE07DE
:102B1A0018F00E94752646C00E947026AD30E3E088
:102B2A00BE0798F0EAE1E0938A000E94802619F431
:102B3A000E94872602C00E948E260E9494260E9426
:102B4A009F2610F40E9475262DC00E947026A93A6D
:102B5A00E2E0BE0718F00E946B2624C00E9470268D
:102B6A00A73AE2E0BE0718F00E9475261BC00E9431
:102B7A007026AD36E2E0BE0798F0EAE1E0938A00FB
:102B8A000E94802619F40E94872602C00E948E267F
:102B9A000E9494260E949F2610F40E94752602C065
:102BAA000E947D26E0910707E0938700E0910607DF
:102BBA00E0938600089544FE80C1EFEE4E2221FE86
:102BCA0004C0E0910705E03009F073C1E2E0E515C1
:102BDA00B1F4E0E0E093BB050E94A3260E94AB2675
:102BEA00A0E10E947C23EAE6F5E0FA93EA930E94C8
:102BFA00B0260E941C260E94A3260E94B026E894B2
:102C0A0021F8E0E0E0931807E7B7EE7FE7BFE0E0DE
:102C1A00E0930805E0910F05F0E0E033A0E0FA0741
:102C2A0071F4A0910905A13031F0A23021F0A5304C
:102C3A0011F0A83019F449D4A6E049D13AC1E035D7
:102C4A00A0E0FA0709F064C0A0911005A734E9F5DD
:102C5A00A0910905A630C9F50E94B426A0911105D4
:102C6A00A63429F40E94E723A6E045D42EC0E091B9
:102C7A000C05E030A1F04ED428D4E0910C05EF5FAA
:102C8A00E0930C05A5E037D4A0910C05A13220F001
:102C9A00E0E0E0930C0536C0A9E019D116C0E09136
:102CAA000B05E03091F011D4E0910B05EF5FE09352
:102CBA000B05A4E020D4A0910B05A13220F0E0E09E
:102CCA00E0930B051FC0A7E002D1A0911005AE3416
:102CDA00F1F4A0910905A730D1F40E94B426E0913D
:102CEA000D05E030A1F0F1D3E0910D05EF5FE0931F
:102CFA000D05A8E000D4A0910D05A13230F0E0E066
:102D0A00E0930D05A6E0E3D00895AAE0E0D0D1C093
:102D1A00E934A0E0FA0759F5A0911005A635D9F4CF
:102D2A00A0910905A33019F4E0E0E0930905A3E0B6
:102D3A00E2D30E947024E0E10E942026E1E1F5E05E
:102D4A00FA93EA93A0910E05A2500E947C23A2E076
:102D5A000E94AE1B0BC0A0911005AD3439F455206A
:102D6A0029F0E0E0E0930905A9E0C5D3A0C0E33467
:102D7A00A0E0FA0709F050C0A0910905A43019F49F
:102D8A00E0E0E0930905A0910E05A53018F00E9435
:102D9A00BA2605C0E0911105E0530E944726E0914A
:102DAA001205E053EA0FCE2ECC2011F4E0E2CE2E2B
:102DBA00EC2DF0E0EC50FA4FC080A0911005A13440
:102DCA0041F4E1E0E0930A05E0910A07E093F7068F
:102DDA0022C0A0911005A53439F4E2E0E0930A0577
:102DEA00E5E0E093F70617C0A0911005A63439F480
:102DFA00E4E0E0930A05E5E0E093F7060CC0A09151
:102E0A001005A23411F4A2E005C0A0911005A73460
:102E1A0011F4A7E070D34BC0E435A0E0FA0739F506
:102E2A00A0910905A43019F4E0E0E0930905A09106
:102E3A000E05A53018F00E94BA2605C0E0911105CA
:102E4A00E0530E944726E0911205E053EA0FCE2E86
:102E5A00CC2011F4E0E2CE2EEC2DF0E0EC50FA4F4B
:102E6A00C080E091FD06E093F706E5E01EC0E53577
:102E7A00A0E0FA07C9F4E0910207E03021F4E091FA
:102E8A000407E03009F00FC00E94E0230E94CD231E
:102E9A00E091FA06EF5FE0930207E1E0E0930307AF
:102EAA000E949C248CDD03C0E7E0E0930A05A0E0C1
:102EBA0003D3E0E0E0937A0509C00E94C42620F01B
:102ECA00A0913D07A03009F001C007D30895AA9345
:102EDA001A930A9310E000E0E0910705E03009F048
:102EEA00E7C2E0913D07E03011F441FE13C0A09122
:102EFA004A07A93018F4AA81A03009F40AC0E0915F
:102F0A004A07EF5FE0934A07F0E0E15CF84FAA81D5
:102F1A00A083CEC2AA81A630F1F4E0910905E0307F
:102F2A0039F00E94CA26E081EA83E89427F812C0A1
:102F3A000E94C42610F0D1D2BBC2E0E0E0933C0765
:102F4A00E0914907EF5FE0934907F0E0E15CF84F51
:102F5A00E081EA8313C0E0910905E03049F40E9458
:102F6A00C42628F0BAD20E94CA26AA81A08306C023
:102F7A0023FC04C00E94CA26E081EA83EA81E09326
:102F8A003E0710E0F0E03097B1F410E0143040F45E
:102F9A00E12FF0E0E458FA4FA0E3A0831F5FF6CFD9
:102FAA00E0913C07E03019F4E1E0E0933C07E3E00C
:102FBA00E0933D0706C2E130A0E0FA0709F041C0FC
:102FCA00CC2011F48AD274C2E4E0E0930905E0E06F
:102FDA00E0930A050E94D026A3E4A0830E94D0268B
:102FEA00A0E3A0830E94D026FF93EF930E94D626E7
:102FFA00DF010E94DB26AF91BF91EC930E94D0269D
:10300A00FF93EF930E94D6260E945A25AF91BF9153
:10301A00EC930E94D026FF93EF930E94D626DF01FD
:10302A00E4E6F0E00E945728E05DAF91BF910E946C
:10303A00E02619F4E2E0E0933C07E6E0E0933D077E
:10304A00C0C1E230A0E0FA07D1F4E5E00E94E5262B
:10305A00A3E4A0830E94D026A5E4A0830E94D026E0
:10306A00A0E3A0830E94D026A0E30E94E82619F4D8
:10307A00E2E0E0933C07E3E0E0933D07A2C1E330DE
:10308A00A0E0FA0791F4E2E00E94E5260E94ED260C
:10309A000E94F026A2E50E94E82619F4E2E0E093F5
:1030AA003C07E6E0E0933D078CC1E430A0E0FA0774
:1030BA0009F05AC0E2E00E94E5260E94ED260E942D
:1030CA00F026A0E5A0830E94F326E0912E07EF5C8C
:1030DA00EC930E94D0260E94F926E4E6F0E00E94D2
:1030EA00FF260E94F926EAE0F0E00E94FF260E94ED
:1030FA00F926EAE0F0E00E945C280E940527BF0159
:10310A00A091FD060E944026DB01EC930E94D02686
:10311A00BF01A091FD06B0E00E94DB26DB01EC9323
:10312A000E94D026BF01A091FD060E9409270E9495
:10313A00F326E0910F07EF70E05DEC930E94F3260F
:10314A00E091FF06E170E05DEC930E94F326EA2D20
:10315A00E370E05D0E94E02619F4E2E0E0933C07A8
:10316A00E3E0E0933D072DC1E530A0E0FA0791F4D2
:10317A00E3E00E94E526A9E4A0830E94D026A6E502
:10318A000E94E82619F4E2E0E0933C07E6E0E093C7
:10319A003D0717C1EB30A0E0FA0791F4E8E00E947E
:1031AA00E526A5E5A0830E94D026A1E30E94E82691
:1031BA0019F4E2E0E0933C07E3E0E0933D0701C144
:1031CA00E730A0E0FA0709F08BC0E0910B05E03088
:1031DA0019F4E0E2E0930B05E6E00E94E5260E947E
:1031EA00ED260E9412270E94F026BF01A0910B052E
:1031FA000E941527BF01A0910B050E9409270E9472
:10320A007F240E941B270E94A625EC91E03041F002
:10321A00FD01A081A03221F0E09153050E1708F0BC
:10322A0008C00E94F3260E94A125E081EC930F5F5B
:10323A00EACF0E94D0260E9424270E941B270E94C0
:10324A00A625EC91E03021F0FD01A081A03209F41D
:10325A0004C0E09153050E1708F008C00E94F32637
:10326A000E94A125E081EC930F5FE9CF0E94D0264E
:10327A000E9424270E941B270E94A625EC91E03079
:10328A0021F0FD01A081A03209F404C0E0915305A8
:10329A000E1708F008C00E94F3260E94A125E081BB
:1032AA00EC930F5FE9CF0E94D0260E942427E1E029
:1032BA00E0935305A0910B050E94C61B0E94D026DD
:1032CA00A0915405A0830E94D026ACE70E94E8266C
:1032DA0019F4E2E0E0933C07E6E0E0933D0771C0B1
:1032EA00E930A0E0FA0731F5E0910C05E03019F475
:1032FA00E0E2E0930B05E6E00E94E5260E94ED2657
:10330A000E9412270E941227BF01A0910C050E9459
:10331A001527BF01A0910C050E942727E05DDB015C
:10332A000E94E02619F4E2E0E0933C07E6E0E0932D
:10333A003D0747C0EA30A0E0FA0709F042C0E09131
:10334A000D05E03019F4E0E2E0930D05E7E00E9494
:10335A00E5260E94ED26AEE4A0830E94D0260E94B4
:10336A00F026BF01A0910D050E941527BF01A0916B
:10337A000D050E9409270E943724E0E1E0935305D6
:10338A00A0910D050E94C61B00E00E94A125E081C4
:10339A00E03021F0E09153050E1708F008C00E94B2
:1033AA00F3260E94A125E081EC930F5FEECFE09116
:1033BA003C07E03019F4E2E0E0933C07E3E0E093F5
:1033CA003D0710937B05E12FF0E0E458FA4FA0E0A7
:1033DA00A0837894E2E0E51509F05FC0E0E0E093AD
:1033EA000E05E093BB05EBEBF5E0FA93EA93EBE706
:1033FA00F5E0FA93EA93A6E00E947C23ABEBB5E0F2
:10340A000E9457237E2EE6E0E71508F47E2E0E94DE
:10341A002D27AEE2A0830E942D27DF01E091090546
:10342A000E943327DF01E09149070E943327DF0119
:10343A00E0914A070E943327BF01A0913F070E94EB
:10344A0027270E943727BF01A0914007B0E0EAE092
:10345A00F0E00E945F280E943727BF01A0913E0733
:10346A000E9427270E943727AEE2A0830E942D27B9
:10347A00A0E0A0830E942D27A0E0A0830E94AB2693
:10348A000E94B026AAEFB0E00E942328E0E0E09371
:10349A00BB050E94AB260E94B026E0E0E093CB0574
:1034AA0099241A9AE2E04E2AE0E0ECB95698559A25
:1034BA001981088123960895AA930E943C2768944B
:1034CA0023F8A88104DD0C947F1CE0E0E093090551
:1034DA000E943C27E89423F80895E0E0E0933E0731
:1034EA004424E89423F8E0934A07E0934907EDDF80
:1034FA00609009050895AA93E0E0E0930A05E09335
:10350A001807E093F7060E94B923E881E0930805BB
:10351A000C947F1C1A930A9316E000E00E947F2401
:10352A000E9442270E9497250E94A125A0E0A0831D
:10353A00E2E0E51591F4E0E0F5E0FA93EA93AEE013
:10354A00B5E00E947A0E0E941C26E1E0F5E0FA93AB
:10355A00EA93A2E0B5E00E947A0E0E944A27A0816F
:10356A00AC3721F0E09153050E1708F009C00E940C
:10357A00A6250E944A27E081EC931F5F0F5FEDCFDB
:10358A000E94A125A0E0A083E2E0E51581F40E9453
:10359A00F324A3E0B5E00E947A0E0E941C26E4E020
:1035AA00F5E0FA93EA93A5E0B5E00E947A0E0E944C
:1035BA004A27A081AC3709F41F5F0E944F270E9457
:1035CA0042270E9497250E94A125A0E0A0830E947D
:1035DA004A27A081AC3721F0E09153050E1708F075
:1035EA0003C00E945427F3CF0E94A125A0E0A08324
:1035FA000E944A27A081AC3709F41F5F0E944F2717
:10360A000E9442270E9497250E94A125A0E0A0833C
:10361A000E944A27A081AC3721F0E09153050E178A
:10362A0008F003C00E945427F3CF0E94A125A0E00E
:10363A00A0830E944A27A081AC3709F41F5FA0919A
:10364A000C050E94AE1B6FC01A93109169050DD02C
:10365A00E0936905103011F4E11719F4E0E00C94D5
:10366A009F1CE09169050C949F1C1A930A93C698B3
:10367A0010E10E94622700E00430E8F514FF0CC054
:10368A00B29B02C0E1E04FC0B39B02C0E2E04BC074
:10369A00B49B02C0E3E047C015FF0CC0B29B02C056
:1036AA00E4E041C0B39B02C0E5E03DC0B49B02C068
:1036BA00E6E039C016FF0CC0B29B02C0E7E033C097
:1036CA00B39B02C0E8E02FC0B49B02C0E9E02BC064
:1036DA0017FF0CC0B29B02C0E8E125C0B39B02C031
:1036EA00EAE021C0B49B02C0E1E11DC0110F0E94B3
:1036FA0062270F5FC1CFE3B1EF70E3B9C69A00E06A
:10370A000E3118F400000F5FFBCFB29B02C0E5E157
:10371A000AC0B39B02C0E7E106C0B49B02C0E6E15F
:10372A0002C0C698E0E00991199108951A930E947F
:10373A00F324A4E1B2E00E944A2311E0E091650576
:10374A00E11728F0A895A12F04D01F5FF7CF0C949A
:10375A009F1C0E94692710E0E09153051E1710F480
:10376A00103108F00DC0AEE4B5E00E940F26319783
:10377A00DF010E94F824E0810E948E281F5FECCFAF
:10378A0072C00E9469270E94F324A4E1B2E00E9459
:10379A004A2310E0E09153051E1710F4103108F087
:1037AA000FC00E94F8240F01AEE4B5E00E940F2674
:1037BA003197DF010E948228D001EC931F5FEACF84
:1037CA000E94F824A0E0A0834EC0A0E387D0A0E323
:1037DA0085D0A0E383D0A0E381D0A0E27FD0A8E285
:1037EA0076D0A0E174D0ACE072D0A6E070D0A1E0AF
:1037FA006ED001D00895AA98AB98A8E468D0A4E046
:10380A000E9486270E948B270E949127A0E052D00F
:10381A000E949127A4E04ED0AFE10E948627A4E03F
:10382A0049D0A0E047D0A4E045D0A4E00E94862772
:10383A00A1E140D00E948B27A0E03CD0A0E03AD082
:10384A000895AA930E94A12830E0EC813E1758F40B
:10385A0000E010E00436E0E01E0718F40F5F1F4F87
:10386A00F9CF3F5FF2CF0E94A82825960895AA9320
:10387A001A93A981A0582BD010E0103140F4AA81E4
:10388A00BB81EE27A10FBE1FEC91E03009F409C0FD
:10389A00AA81BB81EE27A10FBE1FAC910BD01F5F7F
:1038AA00ECCF103120F4A0E205D01F5FFACF1881C7
:1038BA00249608950E949A27E4600E94A5270E94F0
:1038CA00A927E07FE4600E94A527AA9813C00E9456
:1038DA009A270E94A5270E94A92709C0AA93A5E0B2
:1038EA00B0DFE5B3EF70E5BBE5B3AE2FE881E07F6B
:1038FA000E94A527219608951A9310E8AF9AEFE738
:10390A00E4BBAB9AAA9817FF0FC0AF9A0000000059
:10391A000000A99A00000000000013B317FF13B3B8
:10392A00AF98A99809D0EFCFEFEFE4BBE5B3EF70FA
:10393A00E5BBAB981991089500000000A99A000010
:10394A0000000000A998000000000895BA93AA9305
:10395A001A93A0910605A13009F0C9C2E0910705A2
:10396A00E03009F024C1EB81FC81309739F40E94E0
:10397A009225A6E2B2E00E94B12718C1E130A0E088
:10398A00FA0739F40E949225A7E3B2E00E944A237B
:10399A000DC1E230A0E0FA0739F40E949225A8E4AA
:1039AA00B2E00E944A2302C1E330A0E0FA0739F4E8
:1039BA000E949225A2E5B2E00E944A23F7C0E430B1
:1039CA00A0E0FA0739F40E949225AEE5B2E00E941F
:1039DA004A23ECC0E530A0E0FA0739F40E949225A8
:1039EA00A8E6B2E00E944A23E1C0E730A0E0FA0765
:1039FA0039F40E949225AEE5B2E00E944A23D6C06D
:103A0A00E830A0E0FA0739F40E949225A5E7B2E06F
:103A1A000E944A23CBC0E930A0E0FA0739F40E9499
:103A2A009225A6E8B2E00E944A23C0C0EA30A0E08C
:103A3A00FA0739F40E949225A0E9B2E00E944A23CB
:103A4A00B5C0EB30A0E0FA0739F40E949225ADE93F
:103A5A00B2E00E944A23AAC0EC30A0E0FA0739F487
:103A6A000E949225A7EAB2E00E944A239FC0ED3045
:103A7A00A0E0FA0739F40E949225A3EBB2E00E9473
:103A8A004A2394C0EE30A0E0FA0739F40E94922546
:103A9A00A0ECB2E00E944A2389C0EF30A0E0FA0706
:103AAA0089F40E949225ACECB2E00E944A23E0918C
:103ABA000B05E03011F0E15001C0E0E2EA930E9408
:103ACA00BE2774C0E031A0E0FA0739F40E949225BB
:103ADA00A9EDB2E00E944A2369C0E131A0E0FA07E9
:103AEA0089F40E949225A7EEB2E00E944A23E0914F
:103AFA000C05E03011F0E15001C0E0E2EA930E94C7
:103B0A00BE2754C0E231A0E0FA0739F40E94922598
:103B1A00A5EFB2E00E944A2349C0E331A0E0FA07C8
:103B2A0039F40E949225A3E0B3E00E944A233EC0E2
:103B3A00E431A0E0FA0739F40E949225A4E1B3E047
:103B4A000E944A2333C0E531A0E0FA0739F40E9403
:103B5A009225A1E2B3E00E944A2328C0E631A0E000
:103B6A00FA0789F40E949225ADE2B3E00E944A2343
:103B7A00E0910D05E03011F0E15001C0E0E2EA9376
:103B8A000E94BE2713C0E731A0E0FA0749F40E9459
:103B9A009225ABE3B3E00E94C2270E94C82706C061
:103BAA00E831A0E0FA0711F40E94CE279FC1EB8109
:103BBA00FC81309761F40E949225A9E4B3E00E9447
:103BCA00F62710F0E2E001C0E8E0E0936605AB8179
:103BDA00BC81129731F40E949225A4E5B3E00E94B9
:103BEA00FD27AB81BC81139731F40E949225A1E68F
:103BFA00B3E00E94FD27AB81BC81149731F40E9487
:103C0A009225ADE6B3E00E94FD27AB81BC811197F6
:103C1A0031F40E949225A7E7B3E00E94FD27AB8109
:103C2A00BC81169731F40E949225AFE7B3E00E9457
:103C3A00FD27AB81BC81159731F40E949225A0E93A
:103C4A00B3E00E94FD27AB81BC81179731F40E9433
:103C5A009225AEE9B3E00E94FD27AB81BC8118979B
:103C6A0031F40E949225A7EAB3E00E94FD27AB81B6
:103C7A00BC811A9731F40E949225A3EBB3E00E940B
:103C8A00FD27AB81BC811B9731F40E949225AAEBD8
:103C9A00B3E00E94FD27AB81BC811C9731F40E94DE
:103CAA009225A9ECB3E00E94FD27AB81BC8119974C
:103CBA0031F40E949225A8EDB3E00E94FD27AB8162
:103CCA00BC81A238E0E0BE0731F40E949225A8EE3A
:103CDA00B3E00E940328AB81BC81AF38E0E0BE07A5
:103CEA0031F40E949225A4EFB3E00E940328AB812D
:103CFA00BC81AC39E0E0BE0731F40E949225A2E013
:103D0A00B4E00E940328AB81BC81A537E0E0BE077E
:103D1A0031F40E949225A0E1B4E00E940328AB810D
:103D2A00BC815A9731F40E949225AEE1B4E00E9418
:103D3A000328AB81BC81979731F40E949225ABE2AC
:103D4A00B4E00E944A23AB81BC81D49731F40E942B
:103D5A009225ABE3B4E00E944A23AB81BC811D9754
:103D6A0031F40E949225A9E4B4E00E940328AB81B1
:103D7A00BC81AE34E0E0BE0731F40E949225A6E58C
:103D8A00B4E00E940328AB81BC81A134E0E0BE0705
:103D9A0091F5A0916805A13031F40E949225A4E61C
:103DAA00B4E00E944A23A0916805A23031F40E942F
:103DBA009225AFE6B4E00E944A23A0916805A33099
:103DCA0031F40E949225ACE7B4E00E944A23A09104
:103DDA006805A43031F40E949225A9E8B4E00E9453
:103DEA004A23A0916805A53031F40E949225A3E9DF
:103DFA00B4E00E944A23AB81BC81AB35E0E0BE0748
:103E0A0009F05AC0A0916805A13031F40E949225A8
:103E1A00ADE9B4E00E944A23A0916805A23031F4CA
:103E2A000E949225ABEAB4E00E944A23A091680559
:103E3A00A33031F40E949225ACEBB4E00E944A23ED
:103E4A00A0916805A43031F40E949225ADECB4E04B
:103E5A000E944A23A0916805A53031F40E94922558
:103E6A00AEEDB4E00E944A23A0916805A63031F471
:103E7A000E949225AFEEB4E00E944A23A091680501
:103E8A00A73031F40E949225AEEFB4E00E944A2393
:103E9A00A0916805A83031F40E949225ACE0B5E003
:103EAA000E944A23A0916805A93031F40E94922504
:103EBA00ADE1B5E00E944A23AB81BC81A836E0E0BF
:103ECA00BE07A1F4A0916805A13031F40E949225A1
:103EDA00ADE2B5E00E944A23A0916805A23031F410
:103EEA000E949225A8E3B5E00E944A23D2C2E0913B
:103EFA000605E03009F0CDC2E0910705E03009F08F
:103F0A0029C1EB81FC81309739F40E949225A6E4FD
:103F1A00B5E00E94B1271DC1E130A0E0FA0739F4EB
:103F2A000E949225A7E5B5E00E944A2312C1E23019
:103F3A00A0E0FA0739F40E949225A7E6B5E00E94AC
:103F4A004A2307C1E330A0E0FA0739F40E94922518
:103F5A00A8E7B5E00E944A23FCC0E430A0E0FA07D3
:103F6A0029F40E9492250E940928F3C0E530A0E0B6
:103F7A00FA0739F40E949225AAE9B5E00E944A2379
:103F8A00E8C0E730A0E0FA0729F40E9492250E94CF
:103F9A000928DFC0E830A0E0FA0739F40E94922528
:103FAA00ABEAB5E00E944A23D4C0E930A0E0FA07A0
:103FBA0039F40E949225AAEBB5E00E944A23C9C0AF
:103FCA00EA30A0E0FA0739F40E949225AAECB5E09B
:103FDA000E944A23BEC0EB30A0E0FA0739F40E94DF
:103FEA009225A9EDB5E00E944A23B3C0EC30A0E0C7
:103FFA00FA0739F40E949225A8EEB5E00E944A23F6
:10400A00A8C0ED30A0E0FA0739F40E949225A6EF85
:10401A00B5E00E944A239DC0EE30A0E0FA0729F4D9
:10402A000E9492250E94092894C0EF30A0E0FA0766
:10403A0089F40E949225A3E0B6E00E944A23E09107
:10404A000B05E03011F0E15001C0E0E2EA930E9472
:10405A00BE277FC0E031A0E0FA0739F40E9492251A
:10406A00AFE0B6E00E944A2374C0E131A0E0FA074B
:10407A0089F40E949225ACE1B6E00E944A23E091BD
:10408A000C05E03011F0E15001C0E0E2EA930E9431
:10409A00BE275FC0E231A0E0FA0739F40E949225F8
:1040AA00A9E2B6E00E944A2354C0E331A0E0FA072D
:1040BA0039F40E949225A6E3B6E00E944A2349C039
:1040CA00E431A0E0FA0739F40E949225A7E4B6E0A9
:1040DA000E944A233EC0E531A0E0FA0739F40E9463
:1040EA009225A6E5B6E00E944A2333C0E631A0E055
:1040FA00FA0789F40E949225A5E6B6E00E944A23AF
:10410A00E0910D05E03011F0E15001C0E0E2EA93E0
:10411A000E94BE271EC0E731A0E0FA0749F40E94B8
:10412A009225A4E7B6E00E94C2270E94C82711C0C0
:10413A00E831A0E0FA0719F40E94CE270AC0E93153
:10414A00A0E0FA0731F40E949225A0E8B6E00E94A6
:10415A004A239FC1EB81FC81309761F40E9492252A
:10416A00AAE8B6E00E94F62710F0E2E001C0E8E013
:10417A00E0936605AB81BC81129731F40E949225C7
:10418A00A6E9B6E00E94FD27AB81BC81139731F402
:10419A000E949225A4EAB6E00E94FD27AB81BC8169
:1041AA00149731F40E949225A0EBB6E00E94FD27F5
:1041BA00AB81BC81119731F40E949225ACEBB6E039
:1041CA000E94FD27AB81BC81169731F40E9492258B
:1041DA00ABECB6E00E94FD27AB81BC81159731F4A8
:1041EA000E949225ABEDB6E00E94FD27AB81BC810F
:1041FA00179731F40E949225ABEEB6E00E94FD2794
:10420A00AB81BC81189731F40E949225AAEFB6E0DF
:10421A000E94FD27AB81BC811A9731F40E94922536
:10422A00A6E0B7E00E94FD27AB81BC811B9731F461
:10423A000E949225A7E1B7E00E94FD27AB81BC81CD
:10424A001C9731F40E949225A5E2B7E00E94FD274F
:10425A00AB81BC81199731F40E949225A3E3B7E0A0
:10426A000E94FD27AB81BC81A238E0E0BE0731F491
:10427A000E949225A2E4B7E00E940328AB81BC8188
:10428A00AF38E0E0BE0731F40E949225AFE4B7E010
:10429A000E940328AB81BC81AC39E0E0BE0731F44F
:1042AA000E949225AEE5B7E00E940328AB81BC814B
:1042BA00A537E0E0BE0731F40E949225ADE6B7E0EB
:1042CA000E940328AB81BC815A9731F40E9492253F
:1042DA00ACE7B7E00E940328AB81BC81979731F421
:1042EA000E949225A8E8B7E00E944A23AB81BC81CC
:1042FA00D49731F40E949225A8E9B7E00E944A2394
:10430A00AB81BC811D9731F40E949225A8EAB7E0DF
:10431A000E940328AB81BC81AE34E0E0BE0731F4D1
:10432A000E949225A3EBB7E00E940328AB81BC81CF
:10433A00A134E0E0BE0791F5A0916805A13031F4FF
:10434A000E949225A1ECB7E00E944A23A091680539
:10435A00A23031F40E949225AEECB7E00E944A23C3
:10436A00A0916805A33031F40E949225AEEDB7E022
:10437A000E944A23A0916805A43031F40E94922534
:10438A00ABEEB7E00E944A23A0916805A53031F44C
:10439A000E949225A8EFB7E00E944A23AB81BC8114
:1043AA00AB35E0E0BE0709F05AC0A0916805A1301C
:1043BA0031F40E949225A4E0B8E00E944A23A09119
:1043CA006805A23031F40E949225A5E1B8E00E9466
:1043DA004A23A0916805A33031F40E949225A6E2EF
:1043EA00B8E00E944A23A0916805A43031F40E94E3
:1043FA009225A2E3B8E00E944A23A0916805A5305D
:10440A0031F40E949225A3E4B8E00E944A23A091C5
:10441A006805A63031F40E949225A2E5B8E00E9410
:10442A004A23A0916805A73031F40E949225AFE58E
:10443A00B8E00E944A23A0916805A83031F40E948E
:10444A009225ACE6B8E00E944A23A0916805A930FB
:10445A0031F40E949225A4E7B8E00E944A23AB8176
:10446A00BC81A836E0E0BE07A1F4A0916805A1309E
:10447A0031F40E949225A3E8B8E00E944A23A09151
:10448A006805A23031F40E949225ADE8B8E00E9496
:10449A004A23A981BA810E9457231E2F103130F472
:1044AA000E949B25E0E2EC931F5FF8CF18812596C6
:1044BA000895BA93AA932497A0910605A130E9F426
:1044CA00AE81A43658F40E940D28E883AE810E947A
:1044DA002727E05DE983E0E0EA830EC0AE810E940F
:1044EA004026E883AE81B0E00E94DB260E941528B0
:1044FA00E05DEA83E0E0EB831EC0E0910605E03070
:10450A0011F5AE81A43648F40E940D280E941528A0
:10451A00E05DE883E0E0EA830EC0AE810E944026B7
:10452A00EA83AE81B0E00E94DB260E941528E05D96
:10453A00E883E0E0EB83EC81FD81FA93EA93DE0104
:10454A0012960E94252327960895BA93AA931A933E
:10455A000A93A0910605A130E9F100E00830D0F5F0
:10456A000E9418281C91E02FAA81BB81F0E0EA0F73
:10457A00FB1FBF010E941E28AA81BB81AE0FBF1F6D
:10458A00EC91DB01EC930E941E28AA81BB81EA0F01
:10459A00FB1F10830E941828AC91A03E28F00E94AD
:1045AA001828AC91AB3F08F005C00E941828EC917E
:1045BA00E054EC93103E10F01B3F08F009C00E9433
:1045CA001E28AA81BB81AE0FBF1FEC91E054EC9369
:1045DA000F5FC4CF1981088124960895959A08958A
:1045EA0095980895BA93AA93A991B991E991F991E5
:1045FA0030962AF4E095F09531966DE26D93E89441
:10460A0080E197E20DD088EE93E00AD084E69927FC
:10461A0007D08AE005D06E2F10D066276C930895D4
:10462A006627E817F90720F06395E81BF90BC9F725
:10463A00662311F416F008956894605D6D930895E9
:10464A00BA93AA93E991F991A991B991CD016D9182
:10465A006623E9F7119761916D936623E1F7FC01EF
:10466A000895BA93AA93E991F991A991B9911D90E4
:10467A000590011421F40020D1F7EE2708951018AF
:10468A00E1F3E1E008F4E2500895BA93AA93E991BC
:10469A00F991A991B991CD0105900D920020E1F708
:1046AA00FC010895BA93AA93A991B991EE27FF271D
:1046BA006D91662311F03196FBCF0895AA930024D9
:1046CA0011246991E991F991A991B991662349F067
:1046DA006A951D900590011421F40020B9F7EE2780
:1046EA0008951018E1F3E1E008F4E2500895AA935E
:1046FA007991E991F991A991B991CD01772351F075
:10470A007A9561916D936623C9F7772319F07A95A3
:10471A006D93FBCFFC010895AA93BA93EA93FA9397
:10472A00EFB7EA930895E091CB05F0E0E558FA4F28
:10473A00E0810895E0E0E0930007E093F906089528
:10474A00E1E6F0E0E0935005F09351050895E6E0C4
:10475A00E0935305E4E5F5E0FA93EA9308950E949D
:10476A004A23A1E00C94AE1BE0E0E0933607CC2488
:10477A000895E091FA06EF5FE0930207EAEFF0E0AE
:10478A00E0933707F0933807E1E0E09303070895D1
:10479A00EAEFF0E0E0933707F09338070895E0E096
:1047AA00E0931107E0931207E1E0F0E0E0931307CA
:1047BA00F09314070895CC24E0E0E0933607DD2453
:1047CA000C945808E0E0E0930C05E0930B0508957B
:1047DA00E0E3F7E0FA93EA93A09136070C94C21348
:1047EA00E1E0E0930705E0E0E0931A070895A0915D
:1047FA001107B09112070895E0931307F093140775
:10480A000895E0912907F0E03197EC5AFA4F08959C
:10481A00EDE6F0E0E0935005F09351050895E0933A
:10482A006505E6E0E09353050895E3E0E0930705A4
:10483A00E1E0E0936805E0932907E0932A070895E9
:10484A00E2E0E0930705E1E0E0936805E0932907D9
:10485A00E0932A070895E7E6F0E0E0935005F09325
:10486A0051050895E5EEF0E0E0935005F093510507
:10487A000895E0936505E0E1E09353050895E09318
:10488A000705E1E0E0936805E0932907E0E0E0939B
:10489A002D07E0932C07E1E0E0932A070895E5EE5F
:1048AA00F8E0E0935005F09351050895E09365050B
:1048BA00E3E0E0935305E2E0E2CFE5E6FAE0E093D5
:1048CA005005F09351050895E4E7FAE0E0935005A6
:1048DA00F09351050895E0E4F0E0E0935005F09379
:1048EA0051050895EDE7FAE0E0935005F09351057C
:1048FA00E0E0BFCFEDE7FAE0E0935005F093510511
:10490A000895A09168050C94C61BE0E0E093680541
:10491A00E0931A07E09307050895AD2D0E94EC1362
:10492A00CE2EE3E0E0931707A1E00C94E414E3E051
:10493A00E0931707A1E00895E5E0E0931707A2E0E6
:10494A000895E0911107F09112070895E1E0E093CC
:10495A001B07E0E0E0931107E0931207E0911B07C1
:10496A00F0E045DFEA0FFB1F47DFE0E0E0933607A0
:10497A00DECFE0911B07F0E03ADFEA0FFB1F3CCFE6
:10498A00E0931107F09312070895A09168050C941B
:10499A00AE1BE1E0E0932907E0E0E0932D07E09306
:1049AA002C070895E1E0E0935305A3E00C94C61B9D
:1049BA00A3E00E949E0EE0915405EF700895E0E195
:1049CA00E0935305A1E00E94C61BE4E5F5E0FA93E3
:1049DA00EA93E6EBF0E0FA93EA930895E4E5F5E06A
:1049EA00FA93EA930895E12FF0E0EC5AFA4F08950A
:1049FA00E0912C07EF5FE0932C0708951E2FA091FA
:104A0A002C07A33008959DDFFA93EA93A0EDB5E051
:104A1A000C94AB1CA0EEB5E00C94AA22E0E1E09362
:104A2A005305AC2D0C94C61BE0EDF5E0FA93EA931E
:104A3A000895AC2DB0E0E4E6F0E00E94572808950E
:104A4A00AC2DB0E0EAE0F0E00E945728DF01EAE08E
:104A5A00F0E00E945F28E05DE093DE05AC2DBB2705
:104A6A00EAE0F0E00E945F28E05D0895AC2DB0E036
:104A7A00EAE0F0E00E9457280895E093DD05AC2DA6
:104A8A00BB27EAE0F0E00E945F28E05DE093DE05E4
:104A9A000895E093DE05AC2DBB27EAE0F0E00E9422
:104AAA005F28E05DE093DD050895DF01EAE0F0E0CC
:104ABA000E945F28E05D0895AC2DBB27EAE0F0E094
:104ACA000E945F28E05D0895BB27EAE0F0E00E94BB
:104ADA005F28E05DE093E5050895E0911307F09102
:104AEA001407FA93EA93A0EEB5E00C94AB1CA0ED80
:104AFA00B5E00C94AA22A0EEB5E00C94750EEA81FA
:104B0A00FB81FA93EA93A0E00E943C1CE881F981B8
:104B1A00FA93EA93A0E40C943C1CE981FA81FA9393
:104B2A00EA930895AEE8B1E00C944A23A981BA81C8
:104B3A00EE27A10FBE1F0895E02FF0E0EC5AFA4FBE
:104B4A000895A02FB0E0AC5ABA4F08950E947B286E
:104B5A00EA1BFB0B0895E0935305A1E00E94C61BD4
:104B6A00A1E00E949E0EE0915405EF700895E09135
:104B7A005505EF70AAE0EA02F001AE2FE091560562
:104B8A00EF70EA0F0895A2E00E94C61BA2E00E94FD
:104B9A009E0EE0915405EF700895A7EAB1E00E94D5
:104BAA004A23A3E00C94AE1BA4E00E94C61BA4E017
:104BBA000E949E0EE0915405EF700895A5E00E94B0
:104BCA00C61BA5E00E949E0EE0915405EF70089561
:104BDA00E0915405EF70A4E6EA02602DE0915505D4
:104BEA00EF70AAE0EA02F001A62FAE0FE091560597
:104BFA000895A5EAB1E00E944A23A2E00C94AE1BF4
:104C0A00A0910607B09107070895E0930607F0936D
:104C1A0007070895ED91FD913196FE93EE9308955D
:104C2A00A1EAB1E00E944A23A3E00C94AE1BA4EFD0
:104C3A00B1E00C942328E0935305D0CEA5EAB1E065
:104C4A000C944A230E94AE1BC9CEA9E00E94C61B3F
:104C5A00A0915405A1330895A12FB0E0EAE0F0E055
:104C6A000E9457280895A12FBB27EAE0F0E00E948E
:104C7A005F28E05D0895B0E0E4E6F0E00E9457287E
:104C8A00E05D0895AAE0EA02F001AE2F0895AAE0D5
:104C9A00EA02F001A62FAE0F08950E94C61BFE017C
:104CAA003296FA93EA930895E12FF0E03197EB58A0
:104CBA00F94F0895AB81BC81EE27A10FBE1F0C905E
:104CCA0035CFE0930807F09309070895E0E0E093F1
:104CDA008A001B980895A0910807B09109070895C2
:104CEA00E0911707ACE0EA9FF001E058FF4F8DCF43
:104CFA00E1E0F0E0E6CFEFDFE6E0F0E00E945C28DA
:104D0A0030970895E0EDFFEFE0930C07F0930D075D
:104D1A000895E0E0E0930C07E0930D070895E09111
:104D2A001707F0E03396ACE0B0E00E943F28A0E815
:104D3A00B0E00CCF65DFAE17BF070895E0E0E0935F
:104D4A006A05EAE6F5E0FA93EA930895EEE0F5E0FB
:104D5A00FA93EA930895ABEBB5E00C947A0EE0E08F
:104D6A00E0930905A0E00C94611AE0911305E05361
:104D7A00A4E6EA02602DE0911105E05388CFE091A4
:104D8A004A07A0914907AE170895E0914907F0E054
:104D9A00E15CF84F08951F5FE12FF0E0E558FA4F04
:104DAA000895AC2D0E94B414F0E00895EAE0F0E012
:104DBA000E9457287ACEEC93E0913C07E0300895A0
:104DCA00E0930905E8CFA083E0913C07E03008951D
:104DDA00A0E5A083E0CFA3E5A083DDCF1F5FA12FCD
:104DEA00B0E0A558BA4F0895BF01A0910A07B09143
:104DFA000B0708950E944428E05DDB01EC93CBCFBA
:104E0A00E05DDB01EC93C7CFBB27EAE0F0E00E944C
:104E1A005F28E05DDB01EC930895A7E4A083BBCF94
:104E2A00B0E0EAE0F0E00E945728EACFE0E1E09340
:104E3A005305A0910B050E94C61B00E00895ACE73C
:104E4A00A08358CDBB27EAE0F0E00E945F280895CE
:104E5A00E72D7394F0E0E554FA4F0895EF70E05DA2
:104E6A00EC93F6CFEF70E05DDB01EC93F1CFE0E07D
:104E7A00E0933D07E0933C070895E0E1E093530592
:104E8A00E0E0E093650500E0A9CDE12FF0E0E25F04
:104E9A00FA4F0895A0910C050E94AE1B2BCDE02F6E
:104EAA000F5FF0E0EC5AFA4FDF01E12F1F5FF0E0ED
:104EBA00E25FFA4FE081EC930895E3B1EF70E3B952
:104ECA00E3B1E12BE3B90895AA930E94A128EC81EA
:104EDA00E0935205F0E031979F01E0915005F0917F
:104EEA005105E050F040BF01E0915305F0E0D901CF
:104EFA000E943F28E60FF71FE0934E05F0934F05F7
:104F0A0008950E945F1CAEE00C945F1CAFE10E9402
:104F1A005F1CA4E00C945F1CA4E00E945F1CA4E048
:104F2A000E945F1CA4E00C945F1CAA930E94811C3F
:104F3A00E5B3EF70E5BBE5B3AE2FE881E07F0895F6
:104F4A00EA2BE5BB0C94A11CE5B3EF70E5BBE5B316
:104F5A00AE2FE881E29508950E944A23A981BA8179
:104F6A001D96E1E0EC93A981BA811F96E2E0EC93E9
:104F7A000895AA81BB810C945E220E944A23E09183
:104F8A001105EF707FCEE0911205EF70EA0FEA93F8
:104F9A00F0CFE0911705A981BA81EC93E09116054B
:104FAA00A981BA811196EC93E0911505A981BA817C
:104FBA001296EC93E0911405A981BA811396EC93A9
:104FCA00E0911305A981BA811496EC93A981BA815B
:104FDA001696E0E2EC93A981BA811796E0E0EC9389
:104FEA0008950E944A23A0E020FCA1E0A130089580
:104FFA000E944A23E2E0E093670508950E944A234B
:10500A00E0916805EA93B5CFA9E8B5E00C944A2384
:10501A00AE81B0E0EAE0F0E00E945728E05D089532
:10502A00E983AE810FCFAA81BB81EE27A00FBE1FF5
:10503A000895E02FF0E0AFE0B0E088CD109639F0A7
:10504A0088EE93E00197F1F7A8951197C9F70895AB
:10505A00F195E195F0400895FA9FF02DEB9FF00D40
:10506A00EA9FE02DF10D08956E2F6A9FF0016B9F64
:10507A00F00D08952DD0F0DF0EF4EADF0895002434
:10508A00112490E1AA0FBB1F001C111C0E1A1F0A43
:10509A0018F40E0E1F1E01C0A1609A9599F7FD0122
:1050AA00D001089515D0EBDF0EF4D2DF0895E7DFC3
:1050BA00FD010895E894B7FF04C0A095B095119634
:1050CA006894F7FDC5DFDBDFFD010EF4C1DF08954B
:1050DA00E894F7FF02C0BCDF6894B7FF06C0A0954A
:1050EA00B095119600F8039400FA08951B2EBF2F6D
:1050FA00F12D1A2EAE2FE12D0895E199FECFFF93DF
:10510A00FFB7F894AEBBBFBBE09AEDB3FFBFFF9108
:10511A000895E19B02C0A895FCCF9FB7F894AEBB57
:10512A00BFBBE09A8DB3E81719F0EDBBE29AE19A9A
:10513A009FBF08955A934A933A932A931A930A93CC
:10514A0008955D814C813B812A81198108810895E6
:00000001FF
