:0C0000000C9481040C9400000C9400008F
:10000C000C9400000C9400000C9400000C94000064
:10001C000C9400000C9400000C9429110C9400001A
:10002C000C9400000C9400000C9400000C94000044
:10003C000C9400000C9476050C9400000C94B40401
:10004C000C9430050C941A050C9400000C940000D0
:10005C000C9400000C9400000C9400000C94000014
:10006C000C9400000C9400000C9400000C94000004
:10007C000C9400000C9400000C9400000C940000F4
:10008C001027E80364000A000100001000011000B2
:10009C0001000000000000003132333435362020DE
:1000AC0020202020202020202000332E352E3530FB
:1000BC002E39390052696E677320746F206170702D
:1000CC00203330200020EEF6ECF6EC20ECE3E9F8DF
:1000DC00E420333020004469616C7320746F20611C
:1000EC007070203330200020EEFAF7F9F820ECE3A2
:1000FC00E9F8E420333020004661696C20636F6EB0
:10010C006E656374203330200020ECE020EEE7E5D0
:10011C00E1F820E327203330200043616C6C20741D
:10012C00696D656F7574203330200020F9E9E7E4C0
:10013C0020E4F1FAE9EEE42033302000202053745F
:10014C006172742074616C6B2033302000E4FAE728
:10015C00EC20F9E9E7E420E327203330200041705C
:10016C00702033302020707265737320202024009F
:10017C00E3E9F8E420333020ECF6ECF6E5EC20244F
:10018C000020202020202020202020202020202083
:10019C00200030333000303031003039390030310C
:1001AC0030003138300030323000313233003132EF
:1001BC00333435360032353235323500303030009C
:1001CC00303035003036300041706172746D656EC0
:1001DC0074202331202020200020E3E9F8E420EED5
:1001EC00F1F4F82031202020200041706172746DF0
:1001FC00656E74202332202020200020E3E9F8E4EF
:10020C0020EEF1F4F82032202020200041706172A1
:10021C00746D656E74202333202020200020E3E9C8
:10022C00F8E420EEF1F4F8203320202020002020E8
:10023C0020202020202020202020202020200000F2
:10024C0048656C6C6F2C2055736520202020202075
:10025C0000546F207365617263682061206E616D5C
:10026C006500546865206C6174636800697320755F
:10027C006E6C6F636B656400576169742074696C94
:10028C006C00656E64206F662064656C617900207B
:10029C002020726573657420646F6E652E2E2E009F
:1002AC004E6F20616E737765720053797374656D50
:1002BC00206572726F7200436F6E6E656374656455
:1002CC0000506C656173652074616C6B004C696ED9
:1002DC0065206973206275737900506C6561736574
:1002EC0020776169740053656E64656420206E6FBD
:1002FC0020230053656E64696E6720646F6E652EF3
:10030C00005265636569766564206E6F2023005228
:10031C0065636569766520646F6E652E004661695C
:10032C006C206F76657220746F2047534D004E6FB2
:10033C002047534D20756E69742E004E6F20475325
:10034C004D2063616C6C0053656E646564206E6156
:10035C006D65202300566F6C746167652061707049
:10036C0020230050524F472E204D454E55004163DF
:10037C006365737320636F646573004D617374659B
:10038C007220436F6465005573657220636F6465FA
:10039C000054656E616E74730052656C61797320E4
:1003AC00746F2041706172742E0054696D696E67B0
:1003BC00732028736563290053657474696E6773C1
:1003CC000046572056657273696F6E730050686FE4
:1003DC006E65730050686F6E65732067726F757011
:1003EC0020320050686F6E65732067726F757020D5
:1003FC00330043616C6C20666F7277617264696E56
:10040C00670050686F6E6520666F7220230050681D
:10041C006F6E65203220666F7220230050686F6EFD
:10042C0065203320666F7220230043616C6C20665C
:10043C006F72776172642300456E74657220636F0E
:10044C006465202300536574206D6173746572209C
:10045C00636F646500536574207573657220636FF8
:10046C00646500456E746572206E616D65202300B5
:10047C0052656C617920746F2041702E23004465A5
:10048C006C61792054696D6500446F6F72204F70F8
:10049C00656E696E6700496C6C756D696E61746927
:1004AC006F6E004469616C2054696D650054616C19
:1004BC006B2054696D6500446F6F7220494420288D
:1004CC00317E342900536F756E6420747970652009
:1004DC0028317E33290052657365742074797065F8
:1004EC002028317E3629004F46462061667465729D
:1004FC0020756E6C6F636B00466F72636520636171
:10050C006C6C2028307E31290053656E64696E67EF
:10051C002070686F6E657300476574696E67207034
:10052C00686F6E6573004465627567206D6F6465F6
:10053C002028307E312900576F726B206D6F6465F7
:10054C002028317E3429004C43442046572E5645F2
:10055C005200322D576972652046572E564552006F
:10056C00F9ECE5ED2CE4F9FAEEF920E1202020205D
:10057C000020ECE7E9F4E5F920E3E9E9F8E9ED2EF0
:10058C0000F0E020ECF4FAE5E720202020202020E9
:10059C0020002020202020E0FA20E4E3ECFA2121A6
:1005AC00212000F0E020E4EEFAEF20202020202093
:1005BC0020202000202020ECF4FAE9E7FA20E3ECDC
:1005CC00FA2E2E2E00EEFAE1F6F220E0E9F4E5F137
:1005DC002E2E2E00202020E0E9EF20EEF2F0E42079
:1005EC0020202000EEEEEEE9F820E4E3E52DE2E930
:1005FC00E3E900202020E9F920EEF2F0E4202020AD
:10060C0020002020F0E020ECE3E1F82E2E2E20003C
:10061C0020E4F7E520E1F9E9EEE5F92000F9E5E35E
:10062C00F820EEF1F4F8202300F9E9E3E5F820E4F2
:10063C00F1FAE9E9ED00E4FAF7E1EC20EEF1F4F877
:10064C00202300F7E1ECE420E4F1FAE9E9EEE40020
:10065C00E4F2E1F8FA20F9E9E7E420F0EBF9ECE454
:10066C0000E7E9E9E2EF20ECE020EEE7E5E1F80055
:10067C00E7E9E9E2EF20ECE020EEE7E9E9E200F956
:10068C00E5E3F820F9ED20E3E9F8E4202300EEFAA5
:10069C00E720E1E3E9F8E4202300EEF1E3F820F9A8
:1006AC00EEE5FA0020FAF4F8E9E820F8E0F9E900C0
:1006BC0020F8F9E9EEFA20E4F7E5E3E9ED00202073
:1006CC00F7E5E320E2E9F9E420002020F7E5E32058
:1006DC00ECF7E5E7200020F9EEE5FA20E4E3E9E9A0
:1006EC00F8E9ED2000F0E9FAE5E120ECF4E920E38B
:1006FC00E9F8E5FA0020E6EEF0E9ED2029F9F0E959
:10070C00E5FA282000E4E2E3F8E5FA20F4F0EC2026
:10071C00E3ECFA00E2E9F8F1FA20FAE5EBF0E40098
:10072C00E8ECF4E5F0E9ED20ECF4E920E3E9F8E499
:10073C0000EEF1F4F8E920E8ECF4E5EF203200EEFD
:10074C00F1F4F8E920E8ECF4E5EF203300EEF6E103
:10075C0020E4F2E1F8FA20F9E9E7E400E8ECF4E54A
:10076C00EF20ECE3E9F8E42000E8ECF4E5EF2032CC
:10077C0020ECE3E9F8E42000E8ECF4E5EF2033208A
:10078C00ECE3E9F8E42000E4F2E1F8FA20F9E9E717
:10079C00E420E327200020E4EBF0F120F7E5E32050
:1007AC00230020E4EBF0F120F7E5E320E2E9F9E4A3
:1007BC00200020E4EBF0F120F7E5E320ECF7E5E78F
:1007CC00200020E4EBF0F120F9ED202300F0E9FA11
:1007DC00E5E120ECE3E9F8E42023002020E6EEEF4D
:1007EC0020E4EEFAF0E4200020E6EEEF20F4FAE943
:1007FC00E7FA20E3ECFA20002020E6EEEF20FAE006
:10080C00E5F8E420002020E6EEEF20ECEEF2F0E438
:10081C0020002020E6EEEF20F9E9E7E42000E6E9ED
:10082C00E4E5E920E3ECFA203120F2E3203400E4A3
:10083C00E2E3F8FA20F6ECE9EC20302C312C320013
:10084C00E0E9F4E5F120EBECECE92000F0E9FAE565
:10085C00F720ECE0E7F820F4FAE9E7E400EEF6E143
:10086C0020E7E8E9F4FA20F9E9E7E400ECF9E3F829
:10087C0020E8ECF4E5F0E9ED00ECF7E1EC20E8EC35
:10088C00F4E5F0E9ED00EEF6E120E8F1E800E0E552
:10089C00F4EF20F4F2E5ECFA20F4F0EC00E2E9F8E5
:1008AC00F1FA20F4F0EC00E2E9F8F1FA20EEEEE9CE
:1008BC00F80001002D4E414E00494E46000001004B
:1008CC0002009E0004000400A00001000005B50019
:1008DC0001000105B50001000205B500010003058A
:1008EC00B50001000405B50001000505B5000100C7
:1008FC001507BE080000F894EE27ECBBF1E0F5BF3D
:10090C00E5BFE0936C00F8E1F1BDE1BD8DE0A2E044
:10091C00BB27ED938A95E9F780E090E1A0E0B1E088
:10092C00ED930197E9F7EAECF8E085919591009742
:10093C0061F0A591B59105901590BF01F00105905E
:10094C000D920197E1F7FB01F0CF8BBFEFEFEDBFFD
:10095C00E0E1EEBFC0E0D5E00C9480050E946C2372
:10096C001A93AF93BF93EF93FF93AFB7AF938824D2
:10097C001CB1E1E0E2BFE7B7E160E7BF44FC40C077
:10098C001030B1F1E0917A05F0E0E25FFA4F10839C
:10099C00E0910E05F0E03196A0917A05B0E0AE172B
:1009AC00BF0794F0E7B7EE7FE7BF992011F4E1E0C1
:1009BC009E2E191511F4689401C0E89421F8E0E119
:1009CC004E2AE7EF4E2207C0A0917A05A13018F00D
:1009DC00E8E04E2A910EE0917A05EF5FE0937A05FC
:1009EC00E0917A05F0E0E25FFA4FA0E0A08308C046
:1009FC00E7EE4E22E0E0E0937A05E89421F89924A2
:100A0C00E0917A05F0E03396E134A0E0FA071CF0AF
:100A1C00E0E0E0937A05AF91AFBFFF91EF91BF910A
:100A2C00AF9119910C946F05EA93EFB7EA93AF93DA
:100A3C00BF93EF93FF93AFB7AF9356981A9899243F
:100A4C00EDEF4E228824AF91AFBFFF91EF91BF9194
:100A5C00AF914CC00E946C23AF93BF93EF93FF9365
:100A6C00AFB7AF93E091CB05E03029F1E0917B0576
:100A7C00F0E03196A091CB05B0E0EA17FB071CF42F
:100A8C005598569A17C0E0917B05A091CB05EA17B3
:100A9C0030F4992011F4E1E09E2E9CB806C00E941F
:100AAC0073239E0E0E947323ECB9E091CB05EF5F8C
:100ABC00E093CB0508C00E947323ECB9E091CB0501
:100ACC00EF5FE093CB05AF91AFBFFF91EF91BF917B
:100ADC00AF91E991EFBFF991E991B991A99118956D
:100AEC00EA93EFB7EA93E7B7EE7FE7BFE991EFBF81
:100AFC00E9911895EFE1E1BDEFE0E1BDE0E0EBBB82
:100B0C00EFEFEABBE0E8E8BBE1E2E7BBE0E0E5BB26
:100B1C00EFEFE4BBE0EDE2BB909AECE7E1BB889829
:100B2C00E7E0E3B9EEEFE2B9E0E0E0936200EFEF6B
:100B3C00E0936100ECE9E0936500E4E0E09364008D
:100B4C00E7E0E3BFE0E0E0BFE1E0E2BFE0E0E1BF0F
:100B5C00EFBDEEBDEDBDECBDEBBDEABDE9BDE8BD45
:100B6C00E0937900E0937800E4BDEAEFE3BDEBE0BD
:100B7C00E5BDE3E4E0938B00E0E0E0938A00E093D2
:100B8C008900E0938800E1E0E0938700E0E0E093E7
:100B9C008600E0938500E0938400E0938300E0936B
:100BAC008200E0936A00EABFE9BFE7B7E068E7BFFD
:100BBC00E7B7E469E7BFE7B7EE7FE7BFE0E0E093B4
:100BCC007D00EBB9E8EDEAB9E6E0E0939500E9E1E8
:100BDC00E9B9E0E0E0939000E0939B00E0939A0089
:100BEC00E0939D00E0939900E0939800E0E8E8B969
:100BFC00E0E0E0BD78940E944B1A0E94C31B0E9457
:100C0C007A23A091BF06A23378F4809906C0E091B4
:100C1C00C606EF5FE093C60601C006C0E091BF06B2
:100C2C00EF5FE093BF06EDCFA091BF06A23310F0AB
:100C3C00E1E001C0E0E0E09306050E947A230E9407
:100C4C007F0FE0E0E0930805689422F8E89421F81F
:100C5C00E3EBE093D606E7B7EE7FE7BF559831D2CA
:100C6C00E8E3E0930407C09AA8950E94EE14E09183
:100C7C006300E87051F4A091BF06A33328F4E0910F
:100C8C00BF06EF5FE093BF0603C0E0E0E093BF0652
:100C9C00A091BF06A23371F40E9480230E94872387
:100CAC00A4EAB0E00E948F23E3E0E093DD06A4E029
:100CBC000E94D714E0916300E07111F0879904C091
:100CCC00A0910705A03009F00AC0A091C606A33375
:100CDC0028F4E091C606EF5FE093C60603C0E0E09F
:100CEC00E093C606A091C606A23339F40E94942361
:100CFC000E949923E4E0E093DD06E091C806E03021
:100D0C0021F4E091C906E03009F41BC00E94942341
:100D1C00E0E0E093C906E091C106E03049F00E94A2
:100D2C00CE22E091C106EF5FE093CA060E94A82391
:100D3C00E1E0E093CB06E4E0E093DD06ABE00E945B
:100D4C004917E091CA06E03021F4E091CB06E0307F
:100D5C0009F412C0E0910705E03011F40E94AF23B2
:100D6C00E0E0E093CB060E94D022E091C406E03094
:100D7C0019F0A2E00E944917E091BE06E03031F074
:100D8C00E0E0E093BE06E3E0E093DD06E091DF06F1
:100D9C00E03029F0E0E0E093DF060E94BB23BB20AB
:100DAC00E1F4E5E0BE2E0E94021BE093DB06E0308E
:100DBC00A1F0E091C206E03021F0EF5FE093C706AE
:100DCC00A89A93D2E091CB06E03021F4E09107058C
:100DDC00E03009F002C00E94A82341FC02C00E942E
:100DEC00D31589D526FE05C0E89426F8E8E7E093EC
:100DFC00050725FE3CC0E89425F8E0910705E03096
:100E0C0039F0E0910507E03019F0E150E093050767
:100E1C00E0910707E03059F1E150E0930707E0302B
:100E2C0031F5E0910607E030D9F0E150E093060788
:100E3C00E03091F4A0910807A03021F4A0910905AD
:100E4C00A03009F004C0A6E00E94491704C00E941B
:100E5C004B1A0E94C22303C0A6E00E94491707C088
:100E6C000E944B1AA1E00E94591A0E94C223A09121
:100E7C000407A23020F0A0910705A03009F019C09A
:100E8C00E0910007E03091F00E94C823E63070F446
:100E9C000E94C823CE2EAC2D0E94B514E03029F050
:100EAC00AC2D0E94B514E43608F0CC24E0E0E093BD
:100EBC000007E0910507E03021F4A0910705A1306F
:100ECC0008F403C015D014D003D1A0910307AE379A
:100EDC0020F0A0910705A23008F404C0E0E0E093F4
:100EEC00030734D024FEFECFE89424F8BDCEFFCF08
:100EFC00E091E006E03039F4E0E0E0930705E89497
:100F0C0020F8E6D022C00E94D023E091E006F0E069
:100F1C00EE51F94FE081E093E1060E94D723EDE01A
:100F2C00F0E00E94F1270E94DC23E091E106F0E062
:100F3C00A091D906B091DA06AE1BBF0BA093D706D1
:100F4C00B093D806E0E0E09368050895A0910705FA
:100F5C00A53009F40895E091F006E03049F00E94C4
:100F6C00E123E081E093F1060E94E123AEE204C0AC
:100F7C000E94E123A091F106A083A091F006E1E08C
:100F8C00EA27E093F0060895E0E0E09303070E945F
:100F9C00D7235A9739F40E94E823E5E00E94EF2307
:100FAC000E94F5230E94D723979739F40E9480233F
:100FBC00E1E00E94EF230E9400240E94D723D497E3
:100FCC0039F40E940B24E1E00E94EF230E940024DC
:100FDC000E94D7231D9741F40E941224E3E60E943D
:100FEC001924E4E00E941F240E94D723AE34E0E0D1
:100FFC00BE0741F40E942F24E3E6E0936505E2E08E
:10100C000E9436240E94D723A134E0E0BE0741F4AD
:10101C000E943A24E5E0E0936505E3E00E94362463
:10102C000E94D723AB35E0E0BE0741F40E94412477
:10103C00E9E0E0936505E1E00E9436240E94D723A5
:10104C00A836E0E0BE0741F40E944824E2E00E948A
:10105C001924E5E00E941F240E94D723A238E0E067
:10106C00BE0721F40E944F240E94F5230E94D7232F
:10107C00AF38E0E0BE0721F40E944F240E94F52314
:10108C000E94D723AC39E0E0BE0721F40E944F2424
:10109C000E94F5230E94D723A537E0E0BE0751F448
:1010AC000E945724E0E0E0936505E1E0E0935305EE
:1010BC000E940024E0916805E03011F00E945E244B
:1010CC0008950E94AF230E9462240E947F0F08950E
:1010DC000E94AF230E946224E0E0E0930407E093B7
:1010EC000A05E093BD0608951A93F2DFA091DB0682
:1010FC00A53169F4E0E0E093BD06D394E091BC0621
:10110C00ED1510F4E1E0DE2E0E946A24EDC0A091F2
:10111C00DB06A73169F4E0E0E093BD06E1E0ED15F4
:10112C0018F0D090BC0601C0DA940E946A24DCC08E
:10113C00A091DB06A63109F046C0E0910007E03033
:10114C0041F00E94C823E43620F40E94C823E0300A
:10115C0011F4CC2081F1CC2019F40E94C823CE2E9E
:10116C00E1E0F0E0E0930107F0930207E89425F842
:10117C00E0E0E093DE060E944B1AAC2D0E94B51401
:10118C00E13028F0AC2D0E94B514E43608F00DC007
:10119C00A1E00E944917E1E0E093BE06E091D00681
:1011AC00E093BD060E94742403C0CC240E947924D1
:1011BC000E94D71404C00E9479240E94D714E0E046
:1011CC00E093000791C0A091DB06A83109F053C051
:1011DC00E0E0E093BD060E94D4101E2F0E947E24F6
:1011EC00309709F040C0113039F40E9494230E94CA
:1011FC0099230E94742434C0123041F4A091C80683
:10120C00A03021F4A091CA06A03009F00BC00E94B6
:10121C004B1A689426F8E89420F80E94D0230E9478
:10122C0083241EC0133041F4A091C806A03021F4D1
:10123C00A091CA06A03009F00EC00E944B1A689407
:10124C0026F8E1E0E093070520F8E0E0E093E00603
:10125C000E94832405C0E0E0E09300070E947924FB
:10126C000E94D71407C0E0E0E09300070E947924A5
:10127C000E94D71439C0A091DB06A13010F0AB301E
:10128C0008F01FC00E9474240E94D714CC24DD24C3
:10129C00A091DB06AA3019F4E0E0E093DB06E091C4
:1012AC000007F0E0EA50F94FA091DB06A083A09173
:1012BC000007AA3028F4E0910007EF5FE0930007E5
:1012CC0013C0A091DB06A13179F4E0E0E093BD06F8
:1012DC00E0930007E1E0E093DF060E9474240E9493
:1012EC00D714A2E00E94491704C3E0910705E0302F
:1012FC0029F4E3E0E093DE06F7DE17C1A0910705C1
:10130C00A13009F05CC0E8E7E0930507A091DB068B
:10131C00A53181F4E0916605A091E106EA1711F47C
:10132C00E1E003C0E091E106EF5FE093E1060E948B
:10133C00962444C0A091DB06A73179F4A091E10674
:10134C00A13019F4E091660503C0E091E106E1508B
:10135C00E093E1060E94962431C0A091DB06A631F1
:10136C0039F5E0916705F0E03197A091E006B0E027
:10137C00AE17BF07DCF4E091E006F0E0EE51F94F58
:10138C00A091E106A083E091E006EF5FE093E00618
:10139C00E1E0E093E106A091D906B091DA06EDE028
:1013AC000E94E6270E949D240E949624EDDD06C033
:1013BC00A091DB06A13111F49BDD9BD5B0C0E0916F
:1013CC00F006E03009F4C2DDE8E7E0930507A091F0
:1013DC00DB06A831F9F40E94D7231D9791F4E09114
:1013EC00EF06EF5FE093EF06E0E0E093F206E091AA
:1013FC005305A091EF06EA1718F4E1E0E093EF062D
:10140C0008C0A0910705A33021F4E1E0E093EF06BA
:10141C008DD085C0A091DB06A531C1F4A091070544
:10142C00A53011F00E94A224E0916505A0916805F9
:10143C00AE1720F4E0916805EF5F01C0E1E0E093A6
:10144C0068050E945E240E94A62469C0A091DB0658
:10145C00A731B9F4A0910705A53011F00E94A22480
:10146C00A0916805A23020F0E0916805E15002C01F
:10147C00E0916505E09368050E94A6240E945E2415
:10148C004EC0A091DB06A131A9F5A091EF06A230C8
:10149C0048F0E091EF06E150E093EF06E0E0E093D6
:1014AC00F20627C00E94A2240E9441240E94AF246D
:1014BC000E94B524E093F5061BDDE091F506E030C3
:1014CC0019F016DD16D515C00E9448240E94BC24C4
:1014DC00A0E10E943E23E03061F00E94CB24E6EBB9
:1014EC00F0E0FA93EA93A0E10E943E23A1E00E946F
:1014FC00871B15C0A091DB06A63189F00E94D7236B
:10150C001D9711F44FD00BC0A0910705A53009F41D
:10151C000895A091EF06A13009F408D017D0E3E0AC
:10152C00E093DD06A1E00E94D71408951A93E09190
:10153C00EF06E1501E2FE09153051E1730F40E9468
:10154C00D024A0E2A0831F5FF6CFD3C1A091DB060D
:10155C00A13010F0AB3008F024C0A091DB06AA300B
:10156C0019F4E0E0E093DB060E94E123DF01E09157
:10157C00DB06E05DEC93E091EF06EF5FE093EF06A6
:10158C00E0915305A091EF06EA1740F4E1E0E093F7
:10159C00EF06A0910705A43009F4C8DFE0E0E09362
:1015AC00F20608951A93E0E0E093F306A091DB06AF
:1015BC00A13010F0AB3008F09CC1A091DB06AA3032
:1015CC0019F4E0E0E093DB06E091DB06A091DC0689
:1015DC00EA1711F0E1E003C0E091F206EF5FE0934F
:1015EC00F206E091DB06E093DC06A091F206A43053
:1015FC00C9F4A091DB06A730A9F0A93021F0A09185
:10160C000605A13069F0A091DB06A43041F0A530AD
:10161C0031F0A93021F0A0910605A03009F002C0EC
:10162C000E94D524A091F206A63018F0E1E0E093D8
:10163C00F206A091F206A53029F4E091DB06E05DFC
:10164C001E2F54C1E091F306E03009F036C1A09191
:10165C00DB06A130B1F4A091F206A13009F417E237
:10166C00A091F206A23009F41DE2A091F206A3307B
:10167C0009F41EE2A091F206A33011F40E94D524C5
:10168C001CC1A091DB06A230B9F4A0910605A130D3
:10169C0021F4E091F206E05C07C0E0910605E03031
:1016AC0021F4E091F206EE511E2FA091F206A33028
:1016BC0011F40E94D52401C1A091DB06A330B9F42A
:1016CC00A0910605A13021F4E091F206ED5B07C074
:1016DC00E0910605E03021F4E091F206E1521E2F74
:1016EC00A091F206A33011F40E94D524E6C0A0917B
:1016FC00DB06A43031F5A0910605A13049F4E09148
:10170C00F206EA5B0E94DB2411F40E94D52418C077
:10171C00E0910605E030A1F4A091F206A13009F4A5
:10172C0010EFA091F206A23009F41FEEA091F20680
:10173C00A33009F41EEEA091F206A43009F41DEEBC
:10174C00BCC0A091DB06A53031F5A0910605A130F7
:10175C0049F4E091F206E75B0E94DB2411F40E944D
:10176C00D52418C0E0910605E030A1F4A091F20652
:10177C00A13009F419EEA091F206A23009F41BEE87
:10178C00A091F206A33009F41AEEA091F206A4304F
:10179C0009F41CEE92C0A091DB06A630B9F4A0911E
:1017AC000605A13021F4E091F206E45B07C0E0915C
:1017BC000605E03021F4E091F206EB511E2FA091CA
:1017CC00F206A33011F40E94D52477C0A091DB0659
:1017DC00A730B1F4A0910605A13029F4E091F206EE
:1017EC00E15B1E2F0CC0E0910605E03041F4E09166
:1017FC00F206E9500E94DB2411F40E94D5245DC04E
:10180C00A091DB06A83019F5A0910605A13029F4AA
:10181C00E091F206ED5A1E2F13C0E0910605E03060
:10182C0079F4A091F206A13009F416EFA091F2061A
:10183C00A23009F415EFA091F206A33009F417EFCA
:10184C00A091F206A33011F40E94D52436C0A091C9
:10185C00DB06A93011F5A0910605A13029F4E09121
:10186C00F206EA5A1E2F18C0E0910605E030A1F4EA
:10187C00A091F206A13009F411EFA091F206A2306A
:10188C0009F412EFA091F206A33009F414EFA09121
:10189C00F206A43009F413EF10C0E091F206E35CF9
:1018AC006E2FE091DB06A3E0EA02F001E60F1E2F9B
:1018BC00A091F306A23009F4105EE091DB06E03053
:1018CC00A9F4A091F206A13009F410E2A091F2065D
:1018DC00A23009F418E2A091F206A33009F419E23F
:1018EC00A091F206A33011F40E94D5240E94E123AA
:1018FC001083199108950E94E024A0910705A0304F
:10190C0011F0A13009F40AC0A0EEB5E010D2A091FC
:10191C000705A43011F40E94E724F6C1CC2021F075
:10192C00E091BD06E03009F4D1C00E9412240E945F
:10193C00EB24E0910A05F0E03097A1F4A0910605A4
:10194C00A13029F40E94F124A0ECB0E008C0E09191
:10195C000605E03031F40E94F124A1EDB0E00E94C4
:10196C0025235FC0E130A0E0FA07A1F4A0910605A1
:10197C00A13029F40E94F124A2EEB0E008C0E0915D
:10198C000605E03031F40E94F124A3EFB0E00E9490
:10199C00252347C0E430A0E0FA07A1F4A091060586
:1019AC00A13029F40E94F124A4E0B1E008C0E09138
:1019BC000605E03031F40E94F124A5E1B1E00E946B
:1019CC0025232FC0E230A0E0FA07A1F4A091060570
:1019DC00A13029F40E94F124A6E2B1E008C0E09104
:1019EC000605E03031F40E94F124A7E3B1E00E9437
:1019FC00252317C0E530A0E0FA0799F4A09106055D
:101A0C00A13029F40E94F124A8E4B1E008C0E091CF
:101A1C000605E03031F40E94F124A9E5B1E00E9402
:101A2C0025230E94F624309719F1A0910605A130C8
:101A3C0079F40E94F624E05DE093DD050E94FD241C
:101A4C000E9405250E940C28E05DE093DF050FC085
:101A5C00E0910605E03059F40E94F624E05DE09335
:101A6C00DF050E94FD240E9405250E940B252AC03B
:101A7C000E941125309799F0A0910605A13029F408
:101A8C000E9411250E94182509C0E0910605E0303E
:101A9C0029F40E941125E05D0E94252513C0A09118
:101AAC000605A13041F4E0E2E093DD050E942C250F
:101ABC00E093DE0507C0E0910605E03019F4E0E2A2
:101ACC000E942525A0EEB5E032D11AC1CC2021F020
:101ADC00E0910705E03009F07CC00E9412240E94BE
:101AEC00EB24A0EDB5E023D1A0910605A13039F48B
:101AFC00E0EEF5E0FA93EA93AAE6B1E00AC0E091D1
:101B0C000605E03041F4E0EEF5E0FA93EA93ACE739
:101B1C00B1E00E942523E3E0E093EF050E94F62458
:101B2C00309741F1A0910605A130A1F40E94F62452
:101B3C00E05DE093E4050E94FD240E940428E05D32
:101B4C00E093E5050E94FD240E940C28E05DE093E3
:101B5C00E6050FC0E0910605E03059F40E94F6242A
:101B6C00E05DE093DF050E94FD240E9405250E94A4
:101B7C000B252EC00E9411253097B9F0A0910605B7
:101B8C00A13051F40E941125E05DE093E4050E9420
:101B9C002C25E093E50508C0E0910605E03021F422
:101BAC000E9411250E94182513C0A0910605A13092
:101BBC0041F4E0E2E093E4050E942C25E093E50576
:101BCC0007C0E0910605E03019F4E0E20E942525FB
:101BDC0097C0E0910805E03009F490C0F0E0E130E6
:101BEC00A0E0FA0749F4E9E0F0E00E949D24EAE065
:101BFC00F0E00E94DC2375C0E230A0E0FA0749F463
:101C0C00EDE0F0E00E949D24EEE0F0E00E94DC2389
:101C1C0068C0E630A0E0FA0749F4E9E0F0E00E9481
:101C2C009D24E4E1F0E00E94DC235BC0E730A0E0FF
:101C3C00FA0749F4E3E1F0E00E949D24E5E1F0E0CD
:101C4C000E94DC234EC0E430A0E0FA0791F4EFE0F0
:101C5C00F0E00E949D24E0910B05E03019F0EEE0DD
:101C6C00F0E002C0E0E1F0E0E093D906F093DA0690
:101C7C0038C0E530A0E0FA0791F4E1E1F0E00E9411
:101C8C009D24E0910C05E03019F0EEE0F0E002C08C
:101C9C00E2E1F0E0E093D906F093DA0622C0E830F6
:101CAC00A0E0FA0791F4E6E1F0E00E949D24E091B7
:101CBC000D05E03019F0EEE0F0E002C0E0E1F0E0FC
:101CCC00E093D906F093DA060CC0E930A0E0FA07ED
:101CDC0041F4E7E1F0E00E949D24E8E1F0E00E948D
:101CEC00DC23E0E0E09308050E94E0240E94342508
:101CFC000E94E724E4E0E093DE0606C00E9434254F
:101D0C00A0EEB5E00E9485220E943E250E94F1249F
:101D1C000E9442250895BA93AA930E94462591C227
:101D2C00BA93AA93552011F00E9446258AC2BA9301
:101D3C00AA931A930E9454250E94592510E0E09111
:101D4C0053051E1728F40E94D024E081E03009F4DA
:101D5C0008C00E945D250E94D024E081EC931F5F97
:101D6C00EECF188128C0AA931A930A9311E0E09140
:101D7C005305F0E03197EC5AFA4FA081A03211F0E4
:101D8C00A030A1F4E0915305E1500E2F013048F042
:101D9C000E946325E02FF0E031970E9468250150E6
:101DAC00F5CFE0E3E09354051F5FE1CFAA810E94D9
:101DBC00871B1981088123960895BA93AA93A29739
:101DCC00E0E0E883E9830E94502810E000E020E086
:101DDC0011E0E0916505A12FB0E0A7FDBFEFF0E0A9
:101DEC00EA17FB070CF481C0A895A12F0E949F1B3A
:101DFC00A12FB9DF30E020E000E0E0915305A02FE7
:101E0C00B0E0A7FDBFEFF0E0AE17BF0754F40E949F
:101E1C006D25E081E03029F00E946D25A081A03273
:101E2C0009F41AC0A8950E946D25A081A03311F465
:101E3C00303009F001C00EC031E0E22FF0E00E941A
:101E4C0072250E946D25E081F0E0EF70F070ED934B
:101E5C00FC932F5F0F5FD1CF4FEF5FEF203011F06E
:101E6C0040E050E0E1E0F0E0EE83FF8301E020177A
:101E7C00F4F0A895A22FB0E0A7FDBFEFE02FF0E0A3
:101E8C00E7FDFFEF0E9479250E9472250E94282809
:101E9C00AE81BF810E94DE274E0F5F1FAE81BF81D6
:101EAC00EAE00E94E627EE83FF830F5FE0CFEAA50E
:101EBC00FBA54E175F071CF44AA55BA509C0E8A556
:101ECC00F9A5E417F5071CF448A559A501C00BC0EA
:101EDC005A934A93A4E5B5E00E94D222A12F43DF86
:101EEC00A12F0E94871B1F5F74CF0E945728AC96AE
:101EFC0008951A93A8959CD2A8950E943A24E3E0E1
:101F0C000E947E2579F4E0915505EF70E43050F491
:101F1C00E0915505EF70E33021F4E0915505EF7039
:101F2C0009F406C00E94CB24AEE9B1E00E948F23D5
:101F3C000E948A25E093C0060E94962521F0E0E3DA
:101F4C00E09354050FC0E0915505E07021F0E0914D
:101F5C005605E07009F409C00E94CB24A2EAB1E056
:101F6C000E942523A2E00E94871B0E948A25E093F1
:101F7C00C106A3E00E949F1B0E94B52421F00E9481
:101F8C00CB240E94A0250E948A25E093C206A09132
:101F9C00C206A33609F4A89AE091C206E03009F40F
:101FAC00A8980E94A72529F00E94CB24A6EAB1E0AC
:101FBC0008C0E0915505EF7049F40E94CB24AAEAC1
:101FCC00B1E00E942523A4E00E94871BE0915505F7
:101FDC00F0E0EF70F070AAE0B0E00E94EC27DF01B7
:101FEC00E0915605F0E0EF70F070EA0FFB1FE09304
:101FFC00D006F093D1060E94B125E23060F4E130B6
:10200C0049F4E0915505EF70E83021F4E091560564
:10201C00EF7009F405C00E94CB24AEEAB1E00EC00B
:10202C00E0915405EF7029F4E0915505EF70E23022
:10203C0008F009C00E94CB24A2EBB1E00E9425233A
:10204C00A5E00E94871BE0915405EF70A4E6EA021C
:10205C00602DE09155050E94BB25A62FAE0FE09197
:10206C005605EF70EA0FE093C3060E944124E1E0AD
:10207C000E947E25E093F406A091F406A53010F49E
:10208C00E03009F406C0E091F406E150E093F40668
:10209C0006C00E94CB24A4EAB1E00E948F230E94C8
:1020AC009625AE2EE2E0EA1530F4E1E0AE2E0E9469
:1020BC00CB240E94C0250E94A725E093C406A091C2
:1020CC00C406A23058F0E1E3E0935405A4E00E946A
:1020DC00871BE0915405EF70E093C406A9E00E94C1
:1020EC009F1BA9E040DEE0915405E770E093D50614
:1020FC00A091D506A03011F0A53048F0E1E0E093B6
:10210C00D506E1E3E0935405A9E00E94871B0E94E9
:10211C00B125E093C506A091C506A23058F0E1E3C5
:10212C00E0935405A5E00E94871BE0915405EF70E5
:10213C00E093C5060E942F24E2E0E0935305E3E60A
:10214C00E0936505E1E0F0E0FA93EA93A3E6B0E0F2
:10215C0034DE11E0143648F4A12F0E94B514F0E0DF
:10216C00EC50FA4F10831F5FF5CFE0E0E0930705CA
:10217C00A5E00E944917A4E00E94491746D30E948B
:10218C00AF230E94E0240E9434250E943E250E9429
:10219C00E7240E94F1240E944225F4C20E94522896
:1021AC00E0E03E2F1E2FEAE0E09353050E948023CF
:1021BC00E0910007E030B1F13F5FA32F0E949F1B1D
:1021CC0000E020E0E09100072E1710F4003009F039
:1021DC0013C0E22FF0E0EC5AFA4FA081E22FF0E0AE
:1021EC00EA50F94FE081F0E0F096B0E0EA17FB0717
:1021FC0009F001E02F5FE6CF003071F411E0E22F1F
:10220C00F0E0EC5AFA4FA081A13220F0A091000727
:10221C00AA3008F001C010E0383010F4103009F08A
:10222C0001C0CACF313011F4103009F401C012E0F2
:10223C00323011F4103009F401C013E0E12F0E9488
:10224C005928249608950A921A92FA926A937A93CC
:10225C008A939A93AA93BA93EA93FA93EFB7EA9371
:10226C00689424F8E091D206F091D3060E94C72519
:10227C00EA0FFB1F0E94CC25BB2009F0BA94E09119
:10228C00CE06F091CF06309771F0AEECB6E0ED9142
:10229C00FD913197FE93EE93E091CE06F091CF062F
:1022AC00309709F48FD3A0910705A23060F0A0916C
:1022BC000107B0910207E6E5F0E00E94092830978B
:1022CC0011F40E94AC07A1E0B7E00E94D125A091C7
:1022DC000107B0910207AA3FE0E0BE0708F49AC0DC
:1022EC00E0910107F0910207EA5FF040E0930107EB
:1022FC00F0930207689425F8E091BD06E03011F1E7
:10230C00E0E0E093DE06E091BD06E150E093BD060F
:10231C00E091D006F091D1063197A091BD06B0E0C6
:10232C00EA17FB0741F4E4E0E093DD06E2E0EA158E
:10233C0011F4A5E036D3E091BD06E03019F4E1E0EC
:10234C00E093DF06E091C706E03021F0A091C706CC
:10235C00A33608F008C0E091C706E150E093C70629
:10236C00E03009F4A898E091C806E03091F0E0E084
:10237C00E093DE06E4E0F0E00E949D24E5E0F0E06E
:10238C000E94DC23E091C806E150E093C806A1E06E
:10239C0008D3E091CA06E03091F0E2E0F0E00E9450
:1023AC009D24E3E0F0E00E94DC23E091CA06E150BA
:1023BC00E093CA06E2E0EA1511F4A3E0F2D2E09150
:1023CC00DE06E03041F0E0910407E03021F4E091CA
:1023DC000705E03009F00AC0E091DE06E150E09319
:1023EC00DE06E03019F4E1E0E093DF06E09100074F
:1023FC00E03019F0A0E0CA1609F004C0E09107051E
:10240C00E03009F004C0E0910407EF5F01C0E0E0A8
:10241C00E0930407E991EFBFF991E991B991A99182
:10242C009991899179916991F990199009901895E0
:10243C001A930E9448240E94BC24A09153050E9428
:10244C003E23E03029F50E9441240E94AF24E09104
:10245C005405EF70E093F506E030D1F4A0915405EB
:10246C00AF3FB1F010E0143698F4E0916300E870DF
:10247C0029F00E94CB240E94D72584C1B79B05C0AC
:10248C000E94CB240E94D7257DC100001F5FEBCF9B
:10249C00E7E0F0E00E949D24E8E0F0E00E94DC23FD
:1024AC000E94E0240E9434250E943E250E94E724CD
:1024BC000E94F1240E944225A8950E94DE25A89531
:1024CC00A091F506A130F9F0A23009F441C0A09119
:1024DC00F506A33009F471C0A091F506A43009F4F7
:1024EC0096C0A091F506A53021F4E0E0E093F50646
:1024FC000AC0A091F506A63009F4E7C0A091F50634
:10250C00A73009F4E6C00E94E823EAE0E093530503
:10251C00E5E0E09365050E94741B0E94CB24A6EBBA
:10252C00B1E00E948F23E091F506E03009F0F2C093
:10253C000E9480230E948723AAEBB1E00E948F2384
:10254C000E940B240E948723A1ECB1E00E948F23F0
:10255C000E942F24E2E0E093530511E0143640F57D
:10256C00A895143668F4A12F0E94E225E05DE09353
:10257C005405A12F0E94E825E0935505E0E211C017
:10258C00A12F0E94EF25E09354050E94F6250E948E
:10259C000428E05DE09355050E94F6250E940C2866
:1025AC00E05DE0935605A12F0E94871B1F5FD6CFDD
:1025BC00E091F506E03009F0ADC0A8950E943A24F0
:1025CC00E3E00E94FE25A8ECB1E00E948F230E945C
:1025DC00CB24ACECB1E00E942523A2E00E940126A2
:1025EC000E94A0250E94CB24A2EBB1E00E942523DF
:1025FC00A4E00E940126A0EDB1E00E942523A5E0F5
:10260C000E94871BE091F506E03009F083C0A89585
:10261C000E941224E0E1E0935305E3E6E0936505A4
:10262C000E94741BA0910605A13029F40E94CB24B2
:10263C00A4EDB1E008C0E0910605E03031F40E9451
:10264C00CB24A5EEB1E00E942523A1E00E94871BBC
:10265C00A0910605A13029F40E94CB24A6EFB1E08D
:10266C0008C0E0910605E03031F40E94CB24A7E0CD
:10267C00B2E00E942523A2E00E94871BA0910605D0
:10268C00A13029F40E94CB24A8E1B2E008C0E0916B
:10269C000605E03031F40E94CB24A9E2B2E00E949E
:1026AC002523A3E00E94871B14E0143650F4A89550
:1026BC000E94CB240E945925A12F0E94871B1F5FCB
:1026CC00F4CFE091F506E03029F5E091F506E03025
:1026DC0009F5A8950E944124E1E00E94FE25A4EA98
:1026EC00B1E00E948F230E94CB240E94C0250E943F
:1026FC00CB24A4EAB1E00E942523A4E00E94012689
:10270C00A4EAB1E00E942523A5E00E94871BA9E062
:10271C000E94871BA8950E944124E1E00E94FE259F
:10272C00A0EAB1E00E942523A6E00E94871BA7E047
:10273C000E94871BA3E00E94871B0E944824E0E1B3
:10274C00E0935305A1E00E949F1B0E94CB24A6EBB3
:10275C00B0E00E941123E03079F00E94CB24A6EB6C
:10276C00B0E00E948F23E0E3E0935405E0E0E093B7
:10277C005505A2E00E94871BE0910705E03011F49B
:10278C00A3E081D319910895AA93A881A13021F4D3
:10279C00A981BA81EC91AEC0A881A23051F4A98173
:1027AC00BA81EC910E940426E981FA81E181EA0F59
:1027BC00A1C0A881A33099F4A981BA81EC91A4E6B7
:1027CC00EA02602DE981FA81E181AAE0EA02F001D6
:1027DC00A62FAE0FE981FA81E281EA0F8BC0E0E00F
:1027EC0089C0AA931A9310E0133668F4E12FF0E035
:1027FC00E85AF94FE081A981EA1719F4E12FEF5F4C
:10280C00CDC01F5FF1CFE0E0C9C060971A930A9367
:10281C00E9E1F0E00E949D24E4E0F0E00E94DC237A
:10282C000E94E0240E9434250E943E250E94E72449
:10283C000E94F1240E944225E0E0E093BC060E9435
:10284C001224E0E1E093530511E0143608F03DC08A
:10285C00A895A12F0E9409260E94CB24A0E167D045
:10286C00DE01129636D0E030F1F40E941026A1E081
:10287C00A08301E00436B0F4A895A02F0E9409268D
:10288C00A4E5B5E039D0E03059F0A4E5B5E021D0AD
:10289C00E03031F40E941026DF01EC91EF5FEC93F5
:1028AC000F5FE8CF04C00E941026A0E0A0830E9416
:1028BC001026A081E091BC06EA1728F40E9410268D
:1028CC00E081E093BC061F5FC0CF1981088162963E
:1028DC000895BA93AA931A9310E0103148F40E9409
:1028EC005D25AC91A03211F0E0E003C01F5FF5CF85
:1028FC00E1E0188123960895BA93AA931A9310E0F5
:10290C00103190F40E941626EC91E01518F4E1E0D9
:10291C00188123C00E941626EC910E1618F4E0E0E4
:10292C0018811BC01F5FECCFE0E0188116C0AA9382
:10293C00E881E03091F0E150E883AB81BC81F0E0BC
:10294C00EA0FFB1F0F01E881A981BA81F0E0AE0FFD
:10295C00BF1FEC91D001EC93EBCF25960895AA9371
:10296C001A930E942F24E2E0E0935305A9810E9460
:10297C009F1BA9810E94B90EE09154050E94BB25B2
:10298C00AE2FE0915505EF70EA0F1E2F113010F0AD
:10299C00143608F002C0E12F01C0E0E01881229645
:1029AC000895AA93AA2059F0E881E093D406E8EEA2
:1029BC00F3E00E941D26EAE1E0938A0001C002D0F8
:1029CC0021960895E0E0E093D4060E942226089513
:1029DC00E091D406E03009F4DFC0F0E0E130A0E093
:1029EC00FA0761F40E942726A53DE3E0BE0718F024
:1029FC000E942C2602C00E943426C6C0E230A0E001
:102A0C00FA0771F40E942726A939E3E0BE0728F0E3
:102A1C00E0E8F2E00E94CC2502C00E943426B4C04B
:102A2C00E330A0E0FA0771F40E942726AD3BE2E008
:102A3C00BE0728F0E0E8F0E00E94CC2502C00E941E
:102A4C003426A2C0E430A0E0FA0711F50E94272634
:102A5C00A73EE3E0BE0718F00E942C2618C00E9487
:102A6C002726AD3AE3E0BE0780F00E94372619F422
:102A7C000E943E2602C00E9445260E944B260E94C0
:102A8C00562610F40E942C2602C00E9434267CC0CC
:102A9C00E530A0E0FA0709F077C00E942726A73E90
:102AAC00E3E0BE0718F00E942C266EC00E94272679
:102ABC00AD3AE3E0BE0780F00E94372619F40E947D
:102ACC003E2602C00E9445260E944B260E94562696
:102ADC0010F40E942C2658C00E942726A934E3E04B
:102AEC00BE0718F00E9422264FC00E942726A7344A
:102AFC00E3E0BE0718F00E942C2646C00E94272651
:102B0C00AD30E3E0BE0798F0EAE1E0938A000E9462
:102B1C00372619F40E943E2602C00E9445260E94C8
:102B2C004B260E94562610F40E942C262DC00E9483
:102B3C002726A93AE2E0BE0718F00E94222624C0FC
:102B4C000E942726A73AE2E0BE0718F00E942C2626
:102B5C001BC00E942726AD36E2E0BE0798F0EAE1E2
:102B6C00E0938A000E94372619F40E943E2602C088
:102B7C000E9445260E944B260E94562610F40E9465
:102B8C002C2602C00E943426E091CD06E0938700EB
:102B9C00E091CC06E0938600089544FE6AC1EFEE06
:102BAC004E2221FE04C0E0910705E03009F05DC122
:102BBC00E2E0E515B1F4E0E0E093BB050E945A2693
:102BCC000E946226A0E10E945723EAE6F5E0FA9300
:102BDC00EA930E9467260E94DE250E945A260E94D4
:102BEC006726E89421F8E0E0E093DE06E7B7EE7F95
:102BFC00E7BFE0E0E0930805E0910F05F0E0E0337B
:102C0C00A0E0FA0771F4A0910905A13031F0A230CF
:102C1C0021F0A53011F0A83019F42FD4A6E033D14F
:102C2C0024C1E035A0E0FA0709F064C0A0911005BA
:102C3C00A734E9F5A0910905A630C9F50E946B26C9
:102C4C00A0911105A63429F40E94C223A6E02BD42E
:102C5C002EC0E0910C05E030A1F034D40ED4E091FC
:102C6C000C05EF5FE0930C05A5E01DD4A0910C05BD
:102C7C00A13220F0E0E0E0930C0536C0A9E003D1CE
:102C8C0016C0E0910B05E03091F0F7D3E0910B0505
:102C9C00EF5FE0930B05A4E006D4A0910B05A132E5
:102CAC0020F0E0E0E0930B051FC0A7E0ECD0A09172
:102CBC001005AE34F1F4A0910905A730D1F40E94AF
:102CCC006B26E0910D05E030A1F0D7D3E0910D0516
:102CDC00EF5FE0930D05A8E0E6D3A0910D05A132BE
:102CEC0030F0E0E0E0930D05A6E0CDD00895AAE029
:102CFC00CAD0BBC0E934A0E0FA0759F5A091100581
:102D0C00A635D9F4A0910905A33019F4E0E0E093BD
:102D1C000905A3E0C8D30E944824E0E10E94FE25E7
:102D2C00E1E1F5E0FA93EA93A0910E05A2500E941E
:102D3C005723A2E00E94871B0BC0A0911005AD3455
:102D4C0039F4552029F0E0E0E0930905A9E0ABD374
:102D5C008AC0E334A0E0FA0709F045C0A091090548
:102D6C00A43019F4E0E0E0930905E0911105E0537B
:102D7C000E9404260E94712611F4E0E2CE2EEC2D66
:102D8C00F0E0EC50FA4FC080A0911005A13441F452
:102D9C00E1E0E0930A05E091D006E093BD0622C085
:102DAC00A0911005A53439F4E2E0E0930A05E5E0C2
:102DBC00E093BD0617C0A0911005A63439F4E4E0E9
:102DCC00E0930A05E5E0E093BD060CC0A091100568
:102DDC00A23411F4A2E005C0A0911005A73411F49F
:102DEC00A7E061D340C0E435A0E0FA07E1F4A0917C
:102DFC000905A43019F4E0E0E0930905E091110510
:102E0C00E0530E9404260E94712611F4E0E2CE2EBB
:102E1C00EC2DF0E0EC50FA4FC080E091C306E0934B
:102E2C00BD06E5E01EC0E535A0E0FA07C9F4E09167
:102E3C00C806E03021F4E091CA06E03009F00FC07A
:102E4C000E94BB230E94A823E091C006EF5FE09391
:102E5C00C806E1E0E093C9060E947424A2DD03C019
:102E6C00E7E0E0930A05A0E0FFD2E0E0E0937A050A
:102E7C0009C00E94782620F0A0910707A03009F025
:102E8C0001C003D30895AA931A930A9310E000E0AB
:102E9C00E0910705E03009F0E3C2E0910707E0306C
:102EAC0011F441FE13C0A0911407A93018F4AA81A3
:102EBC00A03009F40AC0E0911407EF5FE093140707
:102ECC00F0E0E75FF84FAA81A083CAC2AA81A630BE
:102EDC00F1F4E0910905E03039F00E947E26E081A2
:102EEC00EA83E89427F812C00E94782610F0CDD21D
:102EFC00B7C2E0E0E0930607E0911307EF5FE093C1
:102F0C001307F0E0E75FF84FE081EA8313C0E0912C
:102F1C000905E03049F40E94782628F0B6D20E94C8
:102F2C007E26AA81A08306C023FC04C00E947E26B4
:102F3C00E081EA83EA81E093080710E0F0E0309743
:102F4C00B1F410E0143040F4E12FF0E0E458FA4F03
:102F5C00A0E3A0831F5FF6CFE0910607E03019F4E1
:102F6C00E1E0E0930607E3E0E093070702C2E130FB
:102F7C00A0E0FA07E1F5CC2011F487D271C2E4E0AD
:102F8C00E0930905E0E0E0930A050E948426A3E49F
:102F9C00A0830E945724E1E0E0935305AC2D0E94DE
:102FAC009F1B0E948426A0915405A0830E94842616
:102FBC00FF93EF930E948A260E940428E05DAF9154
:102FCC00BF91EC930E948426FF93EF930E948A2674
:102FDC000E940C28E05DAF91BF910E94922619F4DB
:102FEC00E2E0E0930607E3E0E0930707C2C1E230BA
:102FFC00A0E0FA07D1F4E5E00E949726A3E4A083B1
:10300C000E948426A5E4A0830E948426A0E3A083CA
:10301C000E948426A0E30E949A2619F4E2E0E09331
:10302C000607E3E0E0930707A4C1E330A0E0FA074A
:10303C0091F4E2E00E9497260E949F260E94A2260D
:10304C00A2E50E949A2619F4E2E0E0930607E3E079
:10305C00E09307078EC1E430A0E0FA0709F05BC0EB
:10306C00E2E00E9497260E949F260E94A226A0E5DD
:10307C00A0830E94A526E091F406EF5CEC930E94DD
:10308C0084260E94AB26E4E6F0E00E94B1260E9462
:10309C00AB26EAE0F0E00E94B1260E94AB26EAE003
:1030AC00F0E00E9409280E94B726BF01A091C30638
:1030BC000E94EF25DB01EC930E948426BF01A091B6
:1030CC00C3060E94E2250E94BB260E94B726BF01C0
:1030DC00A091C3060E94E825DB01EC930E94A52673
:1030EC00E091D506EF70E05DEC930E94A526E0918F
:1030FC00C506E170E05DEC930E94A526EA2DE37015
:10310C00E05D0E94922619F4E2E0E0930607E3E00A
:10311C00E09307072EC1E530A0E0FA0791F4E3E055
:10312C000E949726A9E4A0830E948426A6E50E940B
:10313C009A2619F4E2E0E0930607E3E0E093070730
:10314C0018C1EB30A0E0FA0791F4E8E00E94972652
:10315C00A5E5A0830E948426A1E30E949A2619F477
:10316C00E2E0E0930607E3E0E093070702C1E730F3
:10317C00A0E0FA0709F089C0E0910B05E03019F4E2
:10318C00E0E2E0930B05E6E00E9497260E949F2662
:10319C000E94C1260E94A226BF01A0910B050E948D
:1031AC00E2250E94B726BF01A0910B050E94E825DD
:1031BC00DB01EC930E9457240E94C4260E946325D5
:1031CC00EC91E03041F0FD01A081A03221F0E091C2
:1031DC0053050E1708F006C00E94A5260E94CD26A6
:1031EC000F5FECCF0E9484260E94D0260E94C4263A
:1031FC000E946325EC91E03021F0FD01A081A0320A
:10320C0009F404C0E09153050E1708F006C00E94A3
:10321C00A5260E94CD260F5FEBCF0E9484260E942C
:10322C00D0260E94C4260E946325EC91E03021F048
:10323C00FD01A081A03209F404C0E09153050E17E2
:10324C0008F006C00E94A5260E94CD260F5FEBCF8A
:10325C000E9484260E94D026E1E0E0935305A091C1
:10326C000B050E949F1B0E948426A0915405A083ED
:10327C000E948426ACE70E949A2619F4E2E0E093BF
:10328C000607E3E0E093070774C0E930A0E0FA0713
:10329C0039F5E0910C05E03019F4E0E2E0930B0510
:1032AC00E6E00E9497260E949F260E94C1260E945B
:1032BC00C126BF01A0910C050E94E2250E94B726F1
:1032CC00BF01A0910C050E94E825DB010E9492260B
:1032DC0019F4E2E0E0930607E3E0E093070749C046
:1032EC00EA30A0E0FA0709F044C0E0910D05E030A7
:1032FC0019F4E0E2E0930D05E7E00E9497260E94A6
:10330C009F26AEE4A0830E9484260E94A226BF01C1
:10331C00A0910D050E94E2250E94B726BF01A09145
:10332C000D050E94E825DB01EC930E941224E0E1DC
:10333C00E0935305A0910D050E949F1B00E00E9495
:10334C006D25E081E03021F0E09153050E1708F077
:10335C0006C00E94A5260E94CD260F5FF0CFE091FB
:10336C000607E03019F4E2E0E0930607E3E0E093AF
:10337C00070710937B05E12FF0E0E458FA4FA0E02B
:10338C00A0837894E2E0E51509F05FC0E0E0E093FB
:10339C000E05E093BB05EBEBF5E0FA93EA93EBE754
:1033AC00F5E0FA93EA93A6E00E945723ABEBB5E065
:1033BC000E9432237E2EE6E0E71508F47E2E0E9452
:1033CC00D326AEE2A0830E94D326DF01E09109054B
:1033DC000E94D926DF01E09113070E94D926DF0154
:1033EC00E09114070E94D926BF01A09109070E9401
:1033FC00DD26BF01A0910A07B0E0EAE0F0E00E94F0
:10340C000C28EF70E05DDB01EC930E94D326BF012A
:10341C00A09108070E94DD26AEE2A0830E94D3266D
:10342C00A0E0A0830E94D326A0E0A0830E94622685
:10343C000E946726AAEFB0E00E94D027E0E0E0935C
:10344C00BB050E9462260E946726E0E0E093CB0554
:10345C0099241A9AE2E04E2AE0E0ECB95698559A73
:10346C001981088123960895AA930E94E7266894EF
:10347C0023F8A88108DD0C94581CE0E0E0930905C2
:10348C000E94E726E89423F80895E0E0E09308070B
:10349C004424E89423F8E0931407E0931307EDDF3A
:1034AC00609009050895AA93E0E0E0930A05E09383
:1034BC00DE06E093BD060E949423E881E0930805A4
:1034CC000C94581C1A930A9316E000E00E9457249F
:1034DC000E94ED260E9459250E946D25A0E0A08334
:1034EC00E2E0E51591F4E0E0F5E0FA93EA93AEE062
:1034FC00B5E00E94960E0E94DE25E1E0F5E0FA931D
:10350C00EA93A2E0B5E00E94960E0E94F526A081F7
:10351C00AC3721F0E09153050E1708F009C00E945A
:10352C0063250E94F526E081EC931F5F0F5FEDCFC2
:10353C000E946D25A0E0A083E2E0E51581F40E94D5
:10354C00CB24A3E0B5E00E94960E0E94DE25E4E0B9
:10355C00F5E0FA93EA93A5E0B5E00E94960E0E947E
:10356C00F526A081AC3709F41F5F0E94FA260E9451
:10357C00ED260E9459250E946D25A0E0A0830E9493
:10358C00F526A081AC3721F0E09153050E1708F019
:10359C0003C00E94FF26F3CF0E946D25A0E0A083FC
:1035AC000E94F526A081AC3709F41F5F0E94FA2611
:1035BC000E94ED260E9459250E946D25A0E0A08353
:1035CC000E94F526A081AC3721F0E09153050E172F
:1035DC0008F003C00E94FF26F3CF0E946D25A0E0E7
:1035EC00A0830E94F526A081AC3709F41F5FA0913F
:1035FC000C050E94871B6FC01A93109169050DD0A2
:10360C00E0936905103011F4E11719F4E0E00C9423
:10361C00781CE09169050C94781C1A930A93C6984F
:10362C0010E10E940D2700E00430E8F514FF0CC0F7
:10363C00B29B02C0E1E04FC0B39B02C0E2E04BC0C2
:10364C00B49B02C0E3E047C015FF0CC0B29B02C0A4
:10365C00E4E041C0B39B02C0E5E03DC0B49B02C0B6
:10366C00E6E039C016FF0CC0B29B02C0E7E033C0E5
:10367C00B39B02C0E8E02FC0B49B02C0E9E02BC0B2
:10368C0017FF0CC0B29B02C0E8E125C0B39B02C07F
:10369C00EAE021C0B49B02C0E1E11DC0110F0E9401
:1036AC000D270F5FC1CFE3B1EF70E3B9C69A00E00D
:1036BC000E3118F400000F5FFBCFB29B02C0E5E1A6
:1036CC000AC0B39B02C0E7E106C0B49B02C0E6E1AE
:1036DC0002C0C698E0E00991199108951A930E94CE
:1036EC00CB24AAE3B2E00E94252311E0E09165050A
:1036FC00E11728F0A895A12F04D01F5FF7CF0C94E9
:10370C00781C0E94142710E0E09153051E1710F44A
:10371C00103108F00DC0AEE4B5E00E94D125319710
:10372C00DF010E94D024E0810E943F281F5FECCF74
:10373C0072C00E9414270E94CB24AAE3B2E00E941C
:10374C00252310E0E09153051E1710F4103108F0FA
:10375C000FC00E94D0240F01AEE4B5E00E94D12529
:10376C003197DF010E943328D001EC931F5FEACF21
:10377C000E94D024A0E0A0834EC0A0E387D0A0E399
:10378C0085D0A0E383D0A0E381D0A0E27FD0A8E2D3
:10379C0076D0A0E174D0ACE072D0A6E070D0A1E0FD
:1037AC006ED001D00895AA98AB98A8E468D0A4E094
:1037BC000E9431270E9436270E943C27A0E052D05D
:1037CC000E943C27A4E04ED0AFE10E943127A4E038
:1037DC0049D0A0E047D0A4E045D0A4E00E94312716
:1037EC00A1E140D00E943627A0E03CD0A0E03AD026
:1037FC000895AA930E94522830E0EC813E1758F4A9
:10380C0000E010E00436E0E01E0718F40F5F1F4FD5
:10381C00F9CF3F5FF2CF0E94592825960895AA93BD
:10382C001A93A981A0582BD010E0103140F4AA8132
:10383C00BB81EE27A10FBE1FEC91E03009F409C04B
:10384C00AA81BB81EE27A10FBE1FAC910BD01F5FCD
:10385C00ECCF103120F4A0E205D01F5FFACF188115
:10386C00249608950E944527E4600E9450270E94E8
:10387C005427E07FE4600E945027AA9813C00E944E
:10388C0045270E9450270E94542709C0AA93A5E0FF
:10389C00B0DFE5B3EF70E5BBE5B3AE2FE881E07FB9
:1038AC000E945027219608951A9310E8AF9AEFE7DB
:1038BC00E4BBAB9AAA9817FF0FC0AF9A00000000A8
:1038CC000000A99A00000000000013B317FF13B307
:1038DC00AF98A99809D0EFCFEFEFE4BBE5B3EF7049
:1038EC00E5BBAB981991089500000000A99A00005F
:1038FC0000000000A998000000000895BA93AA9354
:10390C001A93A0910605A13009F0C9C2E0910705F0
:10391C00E03009F024C1EB81FC81309739F40E942E
:10392C005425ACE4B2E00E945C2718C1E130A0E061
:10393C00FA0739F40E945425ADE5B2E00E94252324
:10394C000DC1E230A0E0FA0739F40E945425AEE62E
:10395C00B2E00E94252302C1E330A0E0FA0739F45B
:10396C000E945425A8E7B2E00E942523F7C0E4305A
:10397C00A0E0FA0739F40E945425A4E8B2E00E94B2
:10398C002523ECC0E530A0E0FA0739F40E94542559
:10399C00AEE8B2E00E942523E1C0E730A0E0FA07D0
:1039AC0039F40E945425A4E8B2E00E942523D6C025
:1039BC00E830A0E0FA0739F40E945425ABE9B2E0F4
:1039CC000E942523CBC0E930A0E0FA0739F40E940D
:1039DC005425ACEAB2E00E942523C0C0EA30A0E036
:1039EC00FA0739F40E945425A6EBB2E00E94252375
:1039FC00B5C0EB30A0E0FA0739F40E945425A3ECD3
:103A0C00B2E00E942523AAC0EC30A0E0FA0739F4FA
:103A1C000E945425ADECB2E00E9425239FC0ED30EE
:103A2C00A0E0FA0739F40E945425A9EDB2E00E94F7
:103A3C00252394C0EE30A0E0FA0739F40E945425F7
:103A4C00A6EEB2E00E94252389C0EF30A0E0FA0771
:103A5C0089F40E945425A2EFB2E00E942523E09144
:103A6C000B05E03011F0E15001C0E0E2EA930E9456
:103A7C00692774C0E031A0E0FA0739F40E9454259C
:103A8C00AFEFB2E00E94252369C0E131A0E0FA0754
:103A9C0089F40E945425ADE0B3E00E942523E09107
:103AAC000C05E03011F0E15001C0E0E2EA930E9415
:103ABC00692754C0E231A0E0FA0739F40E9454257A
:103ACC00ABE1B3E00E94252349C0E331A0E0FA0743
:103ADC0039F40E945425A9E2B3E00E9425233EC08C
:103AEC00E431A0E0FA0739F40E945425AAE3B3E0CC
:103AFC000E94252333C0E531A0E0FA0739F40E9477
:103B0C005425A7E4B3E00E94252328C0E631A0E0A9
:103B1C00FA0789F40E945425A3E5B3E00E942523FB
:103B2C00E0910D05E03011F0E15001C0E0E2EA93C4
:103B3C000E94692713C0E731A0E0FA0749F40E94FC
:103B4C005425A1E6B3E00E946D270E94722706C09F
:103B5C00E831A0E0FA0711F40E9479279FC1EB81AC
:103B6C00FC81309761F40E945425AFE6B3E00E94CB
:103B7C00A12710F0E2E001C0E8E0E0936605AB811C
:103B8C00BC81129731F40E945425AAE7B3E00E943D
:103B9C00A827AB81BC81139731F40E945425A7E868
:103BAC00B3E00E94A827AB81BC81149731F40E942A
:103BBC005425A3E9B3E00E94A827AB81BC811197DF
:103BCC0031F40E945425ADE9B3E00E94A827AB81E3
:103BDC00BC81169731F40E945425A5EAB3E00E94EB
:103BEC00A827AB81BC81159731F40E945425A6EB14
:103BFC00B3E00E94A827AB81BC81179731F40E94D7
:103C0C005425A4ECB3E00E94A827AB81BC81189783
:103C1C0031F40E945425ADECB3E00E94A827AB818F
:103C2C00BC811A9731F40E945425A9EDB3E00E948F
:103C3C00A827AB81BC811B9731F40E945425A0EEC0
:103C4C00B3E00E94A827AB81BC811C9731F40E9481
:103C5C005425AFEEB3E00E94A827AB81BC81199725
:103C6C0031F40E945425AEEFB3E00E94A827AB813B
:103C7C00BC81A238E0E0BE0731F40E945425AEE0CE
:103C8C00B4E00E94AE27AB81BC81AF38E0E0BE0748
:103C9C0031F40E945425AAE1B4E00E94AE27AB8116
:103CAC00BC81AC39E0E0BE0731F40E945425A8E297
:103CBC00B4E00E94AE27AB81BC81A537E0E0BE0723
:103CCC0031F40E945425A6E3B4E00E94AE27AB81E8
:103CDC00BC815A9731F40E945425A4E4B4E00E94AC
:103CEC00AE27AB81BC81979731F40E945425A1E596
:103CFC00B4E00E942523AB81BC81D49731F40E949F
:103D0C005425A1E6B4E00E942523AB81BC811D970C
:103D1C0031F40E945425AFE6B4E00E94AE27AB818B
:103D2C00BC81AE34E0E0BE0731F40E945425ACE710
:103D3C00B4E00E94AE27AB81BC81A134E0E0BE07A9
:103D4C0091F5A0916805A13031F40E945425AAE8A0
:103D5C00B4E00E942523A0916805A23031F40E94A2
:103D6C005425A5E9B4E00E942523A0916805A33051
:103D7C0031F40E945425A2EAB4E00E942523A091BC
:103D8C006805A43031F40E945425AFEAB4E00E94D7
:103D9C002523A0916805A53031F40E945425A9EB88
:103DAC00B4E00E942523AB81BC81AB35E0E0BE07BB
:103DBC0009F05AC0A0916805A13031F40E94542535
:103DCC00A3ECB4E00E942523A0916805A23031F445
:103DDC000E945425A1EDB4E00E942523A091680512
:103DEC00A33031F40E945425A2EEB4E00E942523A6
:103DFC00A0916805A43031F40E945425A3EFB4E0DF
:103E0C000E942523A0916805A53031F40E94542509
:103E1C00A4E0B5E00E942523A0916805A63031F4FA
:103E2C000E945425A5E1B5E00E942523A0916805C8
:103E3C00A73031F40E945425A4E2B5E00E9425235A
:103E4C00A0916805A83031F40E945425A2E3B5E096
:103E5C000E942523A0916805A93031F40E945425B5
:103E6C00A3E4B5E00E942523AB81BC81A836E0E039
:103E7C00BE07A1F4A0916805A13031F40E9454252D
:103E8C00A3E5B5E00E942523A0916805A23031F48A
:103E9C000E945425AEE5B5E00E942523D2C2E091E4
:103EAC000605E03009F0CDC2E0910705E03009F0DD
:103EBC0029C1EB81FC81309739F40E945425ACE682
:103ECC00B5E00E945C271DC1E130A0E0FA0739F48F
:103EDC000E945425ADE7B5E00E94252312C1E230C3
:103EEC00A0E0FA0739F40E945425ADE8B5E00E9431
:103EFC00252307C1E330A0E0FA0739F40E945425CA
:103F0C00AEE9B5E00E942523FCC0E430A0E0FA073E
:103F1C0029F40E9454250E94B427F3C0E530A0E098
:103F2C00FA0739F40E945425A0ECB5E00E94252331
:103F3C00E8C0E730A0E0FA0729F40E9454250E945B
:103F4C00B427DFC0E830A0E0FA0739F40E9454250A
:103F5C00A1EDB5E00E942523D4C0E930A0E0FA071A
:103F6C0039F40E945425A0EEB5E00E942523C9C067
:103F7C00EA30A0E0FA0739F40E945425A0EFB5E02E
:103F8C000E942523BEC0EB30A0E0FA0739F40E9452
:103F9C005425AFEFB5E00E942523B3C0EC30A0E070
:103FAC00FA0739F40E945425AEE0B6E00E942523AE
:103FBC00A8C0ED30A0E0FA0739F40E945425ACE11A
:103FCC00B6E00E9425239DC0EE30A0E0FA0729F44C
:103FDC000E9454250E94B42794C0EF30A0E0FA0749
:103FEC0089F40E945425A9E2B6E00E942523E091B1
:103FFC000B05E03011F0E15001C0E0E2EA930E94C1
:10400C0069277FC0E031A0E0FA0739F40E945425FB
:10401C00A5E3B6E00E94252374C0E131A0E0FA07C5
:10402C0089F40E945425A2E4B6E00E942523E09175
:10403C000C05E03011F0E15001C0E0E2EA930E947F
:10404C0069275FC0E231A0E0FA0739F40E945425D9
:10405C00AFE4B6E00E94252354C0E331A0E0FA0798
:10406C0039F40E945425ACE5B6E00E94252349C0E2
:10407C00E431A0E0FA0739F40E945425ADE6B6E02D
:10408C000E9425233EC0E531A0E0FA0739F40E94D6
:10409C005425ACE7B6E00E94252333C0E631A0E0FE
:1040AC00FA0789F40E945425ABE8B6E00E94252358
:1040BC00E0910D05E03011F0E15001C0E0E2EA932F
:1040CC000E9469271EC0E731A0E0FA0749F40E945C
:1040DC005425AAE9B6E00E946D270E94722711C0F0
:1040EC00E831A0E0FA0719F40E9479270AC0E931F7
:1040FC00A0E0FA0731F40E945425A6EAB6E00E942B
:10410C0025239FC1EB81FC81309761F40E945425DB
:10411C00A0EBB6E00E94A12710F0E2E001C0E8E0BD
:10412C00E0936605AB81BC81129731F40E94542553
:10413C00ACEBB6E00E94A827AB81BC81139731F49D
:10414C000E945425AAECB6E00E94A827AB81BC8142
:10415C00149731F40E945425A6EDB6E00E94A827CE
:10416C00AB81BC81119731F40E945425A2EEB6E0CC
:10417C000E94A827AB81BC81169731F40E9454256C
:10418C00A1EFB6E00E94A827AB81BC81159731F452
:10419C000E945425A1E0B7E00E94A827AB81BC8106
:1041AC00179731F40E945425A1E1B7E00E94A8278B
:1041BC00AB81BC81189731F40E945425A0E2B7E082
:1041CC000E94A827AB81BC811A9731F40E94542518
:1041DC00ACE2B7E00E94A827AB81BC811B9731F4FD
:1041EC000E945425ADE3B7E00E94A827AB81BC81A7
:1041FC001C9731F40E945425ABE4B7E00E94A82729
:10420C00AB81BC81199731F40E945425A9E5B7E024
:10421C000E94A827AB81BC81A238E0E0BE0731F434
:10422C000E945425A8E6B7E00E94AE27AB81BC8162
:10423C00AF38E0E0BE0731F40E945425A5E7B7E0A3
:10424C000E94AE27AB81BC81AC39E0E0BE0731F4F3
:10425C000E945425A4E8B7E00E94AE27AB81BC8134
:10426C00A537E0E0BE0731F40E945425A3E9B7E07E
:10427C000E94AE27AB81BC815A9731F40E94542521
:10428C00A2EAB7E00E94AE27AB81BC81979731F4CC
:10429C000E945425AEEAB7E00E942523AB81BC8175
:1042AC00D49731F40E945425AEEBB7E00E9425233D
:1042BC00AB81BC811D9731F40E945425AEECB7E064
:1042CC000E94AE27AB81BC81AE34E0E0BE0731F476
:1042DC000E945425A9EDB7E00E94AE27AB81BC81AA
:1042EC00A134E0E0BE0791F5A0916805A13031F44E
:1042FC000E945425A7EEB7E00E942523A0916805E3
:10430C00A23031F40E945425A4EFB7E00E9425237B
:10431C00A0916805A33031F40E945425A4E0B8E0C4
:10432C000E942523A0916805A43031F40E945425E5
:10433C00A1E1B8E00E942523A0916805A53031F4D5
:10434C000E945425AEE1B8E00E942523AB81BC81CC
:10435C00AB35E0E0BE0709F05AC0A0916805A1306A
:10436C0031F40E945425AAE2B8E00E942523A091C2
:10437C006805A23031F40E945425ABE3B8E00E94EA
:10438C002523A0916805A33031F40E945425ACE498
:10439C00B8E00E942523A0916805A43031F40E9456
:1043AC005425A8E5B8E00E942523A0916805A53006
:1043BC0031F40E945425A9E6B8E00E942523A0916F
:1043CC006805A63031F40E945425A8E7B8E00E9495
:1043DC002523A0916805A73031F40E945425A5E847
:1043EC00B8E00E942523A0916805A83031F40E9402
:1043FC005425A2E9B8E00E942523A0916805A930B4
:10440C0031F40E945425AAE9B8E00E942523AB811F
:10441C00BC81A836E0E0BE07A1F4A0916805A130EC
:10442C0031F40E945425A9EAB8E00E942523A091FA
:10443C006805A23031F40E945425A3EBB8E00E9429
:10444C002523A981BA810E9432231E2F103130F40A
:10445C000E945D25E0E2EC931F5FF8CF1881259652
:10446C000895BA93AA932497A0910605A130E9F474
:10447C00AE81A43658F40E94E225E05DE883AE815B
:10448C000E94E825E983E0E0EA830EC0AE810E9439
:10449C00EF25E8830E94B8270E94BD270E94BB2607
:1044AC00E05DEA83E0E0EB8320C0E0910605E030BC
:1044BC0021F5AE81A43658F40E94E225E05DE98333
:1044CC00AE810E94E825E883E0E0EA830EC0AE816D
:1044DC000E94EF25EA830E94B8270E94BD270E9404
:1044EC00BB26E05DE883E0E0EB83EC81FD81FA9391
:1044FC00EA93DE0112960E94002327960895BA9340
:10450C00AA931A930A93A0910605A130E9F100E051
:10451C000830D0F50E94C5271C91E02FAA81BB81E1
:10452C00F0E0EA0FFB1FBF010E94CB27AA81BB81E1
:10453C00AE0FBF1FEC91DB01EC930E94CB27AA813D
:10454C00BB81EA0FFB1F10830E94C527AC91A03ED4
:10455C0028F00E94C527AC91AB3F08F005C00E9423
:10456C00C527EC91E054EC93103E10F01B3F08F083
:10457C0009C00E94CB27AA81BB81AE0FBF1FEC9153
:10458C00E054EC930F5FC4CF1981088124960895F1
:10459C00959A089595980895BA93AA93A991B9916B
:1045AC00E991F99130962AF4E095F09531966DE207
:1045BC006D93E89480E197E20DD088EE93E00AD0F9
:1045CC0084E6992707D08AE005D06E2F10D0662795
:1045DC006C9308956627E817F90720F06395E81B9C
:1045EC00F90BC9F7662311F416F008956894605D11
:1045FC006D930895BA93AA93E991F991A991B99100
:10460C00CD016D916623E9F7119761916D93662346
:10461C00E1F7FC010895BA93AA93E991F991A99154
:10462C00B9911D900590011421F40020D1F7EE27CB
:10463C0008951018E1F3E1E008F4E2500895BA93FC
:10464C00AA93E991F991A991B991CD0105900D9297
:10465C000020E1F7FC010895BA93AA93A991B991AE
:10466C00EE27FF276D91662311F03196FBCF08954D
:10467C00AA93002411246991E991F991A991B99116
:10468C00662349F06A951D900590011421F40020D1
:10469C00B9F7EE2708951018E1F3E1E008F4E250C1
:1046AC000895AA937991E991F991A991B991CD01C4
:1046BC00772351F07A9561916D936623C9F777232F
:1046CC0019F07A956D93FBCFFC010895AA93BA93D8
:1046DC00EA93FA93EFB7EA930895E091CB05F0E0F3
:1046EC00E558FA4FE0810895E0E0E093C606E093C8
:1046FC00BF060895E1E6F0E0E0935005F093510514
:10470C000895EAE0E0935305E4E5F5E0FA93EA93C3
:10471C0008950E942523A1E00C94871BE0E0E09310
:10472C000007CC240895E091C006EF5FE093C80623
:10473C00EAEFF0E0E0930107F0930207E1E0E09389
:10474C00C9060895EAEFF0E0E0930107F093020741
:10475C000895E0E0E093D706E093D806E1E0F0E0BE
:10476C00E093D906F093DA060895CC24E0E0E093C8
:10477C000007DD240C946E08E0E0E0930C05E09358
:10478C000B050895E6EFF6E0FA93EA93A091000783
:10479C000C94CA13E1E0E0930705E0E0E093E00637
:1047AC000895A091D706B091D8060895E093D90644
:1047BC00F093DA060895E091EF06F0E03197EC5AA9
:1047CC00FA4F0895E5E7F0E0E0935005F0935105BA
:1047DC000895E0936505EAE0E09353050895E3E05E
:1047EC00E0930705E1E0E0936805E093EF06E093C2
:1047FC00F0060895E2E0E0930705E1E0E093680538
:10480C00E093EF06E093F0060895EBE6F0E0E0931A
:10481C005005F09351050895E7EAF0E0E093500558
:10482C00F09351050895E0936505E0E1E09353059D
:10483C000895E0930705E1E0E0936805E093EF0647
:10484C00E0E0E093F306E093F206E1E0E093F0069B
:10485C000895E7EDF6E0E0935005F09351050895C7
:10486C00E0935305E2E0E5CFEDE9F7E0E093500586
:10487C00F09351050895ECEAF7E0E0935005F093BE
:10488C0051050895E0E4F0E0E0935005F0935105F4
:10489C000895E5EBF7E0E0935005F0935105E0E067
:1048AC00C2CFE5EBF7E0E0935005F0935105089586
:1048BC00A09168050C949F1BE0E0E0936805E093E1
:1048CC00E006E09307050895AD2D0E94F713CE2E58
:1048DC00E3E0E093DD06A1E00C94D714E3E0E09371
:1048EC00DD06A1E00895E5E0E093DD06A2E0089581
:1048FC00E091D706F091D8060895E1E0E093E10647
:10490C00E0E0E093D706E093D806E091E106F0E012
:10491C0048DFEA0FFB1F4ADFE0E0E0930007DECF41
:10492C00E091E106F0E03DDFEA0FFB1F3FCFE093A3
:10493C00D706F093D8060895A09168050C94871BB0
:10494C00E1E0E093EF06E0E0E093F306E093F2069B
:10495C000895E1E0E0935305A3E00C949F1BA3E0C2
:10496C000E94B90EE0915405EF700895E0E1E093D8
:10497C005305A1E00E949F1BE4E5F5E0FA93EA934E
:10498C00E6EBF0E0FA93EA930895E4E5F5E0FA93A8
:10499C00EA930895E12FF0E0EC5AFA4F0895E09174
:1049AC00F206EF5FE093F20608951E2FA091F20637
:1049BC00A33008959DDFFA93EA93A0EDB5E00C9433
:1049CC00841CA0EEB5E00C948522E0E1E093530545
:1049DC00AC2D0C949F1BE0EDF5E0FA93EA9308954F
:1049EC00AC2DB0E0E4E6F0E00E9404280895EC2D34
:1049FC00F0E0E456F040DF01EAE0F0E008950E94B8
:104A0C000428E05DE093DE05F2CF0E940C28E05D07
:104A1C00E093DD050895AC2DB0E0EAE0F0E00E94F3
:104A2C0004280895E05DE093DD05AC2DBB27EAE09A
:104A3C00F0E00E940C28E05DE093DE050895E09321
:104A4C00DE05AC2DBB27EAE0F0E0DFCFAC2DBB27B9
:104A5C00EAE0F0E00E940C28E05D0895E091D906B0
:104A6C00F091DA06FA93EA93A0EEB5E00C94841C6C
:104A7C00A0EDB5E00C948522A0EEB5E00C94910E5F
:104A8C00EA81FB81FA93EA93A0E00E94151CE8816D
:104A9C00F981FA93EA93A0E40C94151CE981FA814C
:104AAC00FA93EA930895ADE8B1E00C942523A9811B
:104ABC00BA81EE27A10FBE1F0895A02FB0E0AC5A0B
:104ACC00BA4F0895EC5AFA4FE081EC930895E02F19
:104ADC00F0E0EC5AFA4F0895DE011896EE0FFF1F26
:104AEC00AE0FBF1F08950E942C28EA1BFB0B0895E4
:104AFC00E0935305A1E00E949F1BA1E00E94B90E18
:104B0C00E0915405EF700895E0915505EF70AAE01F
:104B1C00EA02F001AE2FE0915605EF70EA0F08950E
:104B2C00A2E00E949F1BA2E00E94B90EE0915405E6
:104B3C00EF700895A6EAB1E00E942523A3E00C943F
:104B4C00871BA4E00E949F1BA4E00E94B90EE09179
:104B5C005405EF700895A5E00E949F1BA5E00E94EC
:104B6C00B90EE0915405EF700895EF70AAE0EA02D7
:104B7C00F0010895A4EAB1E00E942523A2E00C9470
:104B8C00871BA091CC06B091CD060895E093CC067E
:104B9C00F093CD060895ED91FD913196FE93EE9331
:104BAC000895A0EAB1E00E942523A3E00C94871B92
:104BBC00A4EFB1E00C94D027B0E0EAE0F0E00E9462
:104BCC0004280895BB27EAE0F0E00E940C28E05D81
:104BDC000895B0E0E4E6F0E00E940428E05D08955A
:104BEC00E12FF0E0E456F040DF01EAE0F0E0089558
:104BFC00E0935305CACE0E94871BC7CEAAE0EA02F7
:104C0C00F001AE2F08950E949F1BFE013296FA937D
:104C1C00EA930895E12FF0E03197E85AF94F08959F
:104C2C00AB81BC81EE27A10FBE1F0C9040CFE0934F
:104C3C00CE06F093CF060895E0E0E0938A001B982F
:104C4C000895A091CE06B091CF060895E091DD06AF
:104C5C00ACE0EA9FF001E058FF4F98CFE1E0F0E0C4
:104C6C00E6CFEFDFE6E0F0E00E94092830970895E8
:104C7C00E0EDFFEFE093D206F093D3060895E0E069
:104C8C00E093D206E093D3060895E091DD06F0E0C0
:104C9C003396ACE0B0E00E94EC27A0E8B0E023CF64
:104CAC0070DFAE17BF070895E0E0E0936A05EAE60F
:104CBC00F5E0FA93EA930895EEE0F5E0FA93EA93BF
:104CCC000895ABEBB5E00C94960EE0E0E09309058B
:104CDC00A0E00C943A1AE0911205E053EA0FCE2EA4
:104CEC00CC200895E0911407A0911307AE170895F6
:104CFC00E0911307F0E0E75FF84F08951F5FE12F95
:104D0C00F0E0E558FA4F0895AC2D0E94B514F0E090
:104D1C00DF01EAE0F0E00895EC93E0910607E03063
:104D2C000895E0930905EACFA083E0910607E030EF
:104D3C000895A0E5A083E2CFA3E5A083DFCF1F5F9A
:104D4C00A12FB0E0A558BA4F0895BF01A091D0068D
:104D5C00B091D10608950E94F127E05DDB01EC9340
:104D6C00CDCFE05DDB01EC93C9CFDF01EAE0F0E0F1
:104D7C000E940C280895A7E4A083C0CFE0E1E09343
:104D8C005305A0910B050E949F1B00E00895E02F96
:104D9C00F0E098CEACE7A08384CDE72D7394F0E0DF
:104DAC00E554FA4F0895EF70E05DEC93F6CFBB2716
:104DBC00EAE0F0E00E940C28EF70E05DDB01EC9380
:104DCC00ECCFE0E0E0930707E09306070895E0E1FD
:104DDC00E0935305E0E0E093650500E0D6CDE12FCC
:104DEC00F0E0E25FFA4F0895A0910C050E94871B3A
:104DFC0058CDE02F0F5FF0E0EC5AFA4FDF01E12FB6
:104E0C001F5FF0E0E25FFA4FE081EC930895E3B1AD
:104E1C00EF70E3B9E3B1E12BE3B90895AA930E94D3
:104E2C005228EC81E0935205F0E031979F01E0911C
:104E3C005005F0915105E050F040BF01E091530551
:104E4C00F0E0D9010E94EC27E60FF71FE0934E0526
:104E5C00F0934F0508950E94381CAEE00C94381C5A
:104E6C00AFE10E94381CA4E00C94381CA4E00E9412
:104E7C00381CA4E00E94381CA4E00C94381CAA93A3
:104E8C000E945A1CE5B3EF70E5BBE5B3AE2FE88189
:104E9C00E07F0895EA2BE5BB0C947A1CE5B3EF7028
:104EAC00E5BBE5B3AE2FE881E29508950E9425237A
:104EBC00A981BA811D96E1E0EC93A981BA811F9674
:104ECC00E2E0EC930895AA81BB810C9437220E94F6
:104EDC002523E091110549CEAE2FE0911205EF701C
:104EEC00EA0FEA93F0CFE0911705A981BA81EC9310
:104EFC00E0911605A981BA811196EC93E091150504
:104F0C00A981BA811296EC93E0911405A981BA811A
:104F1C001396EC93E0911305A981BA811496EC9346
:104F2C00A981BA811696E0E2EC93A981BA81179611
:104F3C00E0E0EC9308950E942523A0E020FCA1E082
:104F4C00A13008950E942523E2E0E09367050895BF
:104F5C000E942523E0916805EA93B5CFAFEAB5E04E
:104F6C000C942523EE81F0E0E456F0400895DF0127
:104F7C00EAE0F0E00E940428E05DE983F3CFAA8127
:104F8C00BB81EE27A00FBE1F0895E02FF0E0AFE02D
:104F9C00B0E0A9CD109639F088EE93E00197F1F7C7
:104FAC00A8951197C9F70895F195E195F0400895EA
:104FBC00FA9FF02DEB9FF00DEA9FE02DF10D089577
:104FCC006E2F6A9FF0016B9FF00D08952DD0F0DFCE
:104FDC000EF4EADF08950024112490E1AA0FBB1F00
:104FEC00001C111C0E1A1F0A18F40E0E1F1E01C0F5
:104FFC00A1609A9599F7FD01D001089515D0EBDFCA
:10500C000EF4D2DF0895E7DFFD010895E894B7FFB1
:10501C0004C0A095B09511966894F7FDC5DFDBDF51
:10502C00FD010EF4C1DF0895E894F7FF02C0BCDF68
:10503C006894B7FF06C0A095B095119600F803943C
:10504C0000FA0895ED91FC91119708951B2EBF2F36
:10505C00F12D1A2EAE2FE12D0895E199FECFFF937D
:10506C00FFB7F894AEBBBFBBE09AEDB3FFBFFF91A7
:10507C000895E19B02C0A895FCCF9FB7F894AEBBF6
:10508C00BFBBE09A8DB3E81719F0EDBBE29AE19A39
:10509C009FBF08955A934A933A932A931A930A936B
:1050AC0008955D814C813B812A8119810881089585
:00000001FF
