:040000000C94A802B2
:100004000C9400000C9400000C9400000C9400006C
:100014000C9400000C9400000C9400000C9400005C
:100024000C940A0E0C9400000C9400000C94000034
:100034000C9400000C9400000C9400000C949D039C
:100044000C9400000C94DB020C9457030C944103B1
:100054000C9400000C9400000C9400000C9400001C
:100064000C9400000C9400000C9400000C9400000C
:100074000C9400000C9400000C9400000C940000FC
:100084000C9400000C9400001027E80364000A009C
:100094000100001000011000010000000000000039
:1000A40031323334353620202020202020202020D7
:1000B4002000332E352E34370020EEF6ECF6EC20FB
:1000C400ECE3E9F8E4203330200020EEFAF7F9F805
:1000D40020ECE3E9F8E4203330200020ECE020EECB
:1000E400E7E5E1F820E327203330200020F9E9E7B1
:1000F400E420E4F1FAE9EEE42033302000E4FAE706
:10010400EC20F9E9E7E420E3272033302000E3E999
:10011400F8E420333020ECF6ECF6E5EC2024002063
:1001240020202020202020202020202020202000EB
:100134003033300030303100303939003031300064
:100144003138300030323000313233003132333420
:10015400353600323532353235003030300030300B
:1001640035003036300020E3E9F8E420EEF1F4F80D
:100174002031202020200020E3E9F8E420EEF1F4EF
:10018400F82032202020200020E3E9F8E420EEF1DA
:10019400F4F820332020202000F0E020E4EEFAEFF1
:1001A40020202020202020202000EEE0F8E2EF2074
:1001B400F9EEE5FA20202020202000002020202035
:1001C4002020202020202020202020200000F9ECC6
:1001D400E5ED2CE4F9FAEEF920E1202020200020BE
:1001E400ECE7E9F4E5F920E3E9E9F8E9ED2E00F0BC
:1001F400E020ECF4FAE5E720202020202020200055
:100204002020202020E0FA20E4E3ECFA2121212020
:1002140000F0E020E4EEFAEF20202020202020202F
:100224002000202020ECF4FAE9E7FA20E3ECFA2E8F
:100234002E2E00EEFAE1F6F220E0E9F4E5F12E2E9E
:100244002E00202020E0E9EF20EEF2F0E420202030
:100254002000EEEEEEE9F820E4E3E52DE2E9E3E93F
:1002640000202020E9F920EEF2F0E42020202000F4
:100274002020F0E020ECE3E1F82E2E2E200020E4F4
:10028400F7E520E1F9E9EEE5F92000F9E5E3F820E6
:10029400EEF1F4F8202300F9E9E3E5F820E4F1FABB
:1002A400E9E9ED00E4FAF7E1EC20EEF1F4F82023BB
:1002B40000F7E1ECE420E4F1FAE9E9EEE400E4F229
:1002C400E1F8FA20F9E9E7E420F0EBF9ECE400E7DF
:1002D400E9E9E2EF20ECE020EEE7E5E1F800E7E908
:1002E400E9E2EF20ECE020EEE7E9E9E200F9E5E3FA
:1002F400F820F9ED20E3E9F8E4202300EEFAE72002
:10030400E1E3E9F8E420230020FAF4F8E9E820F82E
:10031400E0F9E90020F8F9E9EEFA20E4F7E5E3E989
:10032400ED002020F7E5E320E2E9F9E420002020B5
:10033400F7E5E320ECF7E5E7200020F9EEE5FA2005
:10034400E4E3E9E9F8E9ED2000F0E9FAE5E120EC7D
:10035400F4E920E3E9F8E5FA0020E6EEF0E9ED201F
:1003640029F9F0E9E5FA282000E4E2E3F8E5FA20C7
:10037400F4F0EC20E3ECFA00E2E9F8F1FA20FAE513
:10038400EBF0E400E8ECF4E5F0E9ED20ECF4E9202E
:10039400E3E9F8E400EEF1F4F8E920E8ECF4E5EF41
:1003A400203200EEF1F4F8E920E8ECF4E5EF203334
:1003B40000EEF6E120E4F2E1F8FA20F9E9E7E400DE
:1003C400E8ECF4E5EF20ECE3E9F8E42000E8ECF4F1
:1003D400E5EF203220ECE3E9F8E42000E8ECF4E572
:1003E400EF203320ECE3E9F8E42000E4F2E1F8FA4A
:1003F40020F9E9E7E420E327200020E4EBF0F120F2
:10040400F7E5E320230020E4EBF0F120F7E5E32017
:10041400E2E9F9E4200020E4EBF0F120F7E5E32041
:10042400ECF7E5E7200020E4EBF0F120F9ED2023E0
:1004340000F0E9FAE5E120ECE3E9F8E42023002008
:1004440020E6EEEF20E4EEFAF0E4200020E6EEEF02
:1004540020F4FAE9E7FA20E3ECFA20002020E6EEA3
:10046400EF20FAE0E5F8E420002020E6EEEF20ECAF
:10047400EEF2F0E420002020E6EEEF20F9E9E7E4D4
:100484002000E6E9E4E5E920E3ECFA203120F2E398
:10049400203400E4E2E3F8FA20F6ECE9EC20302C16
:1004A400312C3200E0E9F4E5F120EBECECE920003A
:1004B400F0E9FAE5F720ECE0E7F820F4FAE9E7E4FC
:1004C40000EEF6E120E7E8E9F4FA20F9E9E7E400D0
:1004D400ECF9E3F820E8ECF4E5F0E9ED00ECF7E101
:1004E400EC20E8ECF4E5F0E9ED00EEF6E120E8F1CB
:1004F400E800E2E9F8F1FA20F4F0EC00E2E9F8F1BE
:10050400FA20EEEEE9F8000001002D4E414E0049BC
:100514004E460000010002009E0004000400A000FA
:1005240001000005B50001000105B5000100020548
:10053400B50001000305B50001000405B500010084
:100544000505B50001006C060C050000F894EE27C3
:10055400ECBBF1E0F5BFE5BFE0936C00F8E1F1BD61
:10056400E1BD8DE0A2E0BB27ED938A95E9F780E039
:1005740090E1A0E0B1E0ED930197E9F7E8E1F5E05F
:1005840085919591009761F0A591B591059015908D
:10059400BF01F00105900D920197E1F7FB01F0CF47
:1005A4008BBFEFEFEDBFE0E1EEBFC0E0D5E00C9410
:1005B400A7030E943B1D1A93AF93BF93EF93FF933E
:1005C400AFB7AF9388241CB1E1E0E2BFE7B7E160C5
:1005D400E7BF44FC40C01030B1F1E0917905F0E090
:1005E400E35FFA4F1083E0910D05F0E03196A0919E
:1005F4007905B0E0AE17BF0794F0E7B7EE7FE7BF29
:10060400992011F4E1E09E2E191511F4689401C0AB
:10061400E89421F8E0E14E2AE7EF4E2207C0A091CA
:100624007905A13018F0E8E04E2A910EE0917905A1
:10063400EF5FE0937905E0917905F0E0E35FFA4F2D
:10064400A0E0A08308C0E7EE4E22E0E0E093790545
:10065400E89421F89924E0917905F0E03396E134A7
:10066400A0E0FA071CF0E0E0E0937905AF91AFBF9A
:10067400FF91EF91BF91AF9119910C949603EA9376
:10068400EFB7EA93AF93BF93EF93FF93AFB7AF93F3
:1006940056981A989924EDEF4E228824AF91AFBF53
:1006A400FF91EF91BF91AF914CC00E943B1DAF935E
:1006B400BF93EF93FF93AFB7AF93E091CA05E030D8
:1006C40029F1E0917A05F0E03196A091CA05B0E0F5
:1006D400EA17FB071CF45598569A17C0E0917A055F
:1006E400A091CA05EA1730F4992011F4E1E09E2E96
:1006F4009CB806C00E94421D9E0E0E94421DECB989
:10070400E091CA05EF5FE093CA0508C00E94421D4C
:10071400ECB9E091CA05EF5FE093CA05AF91AFBFB2
:10072400FF91EF91BF91AF91E991EFBFF991E991F9
:10073400B991A9911895EA93EFB7EA93E7B7EE7FD9
:10074400E7BFE991EFBFE9911895EFE1E1BDEFE073
:10075400E1BDE0E0EBBBEFEFEABBE0E8E8BBE1E2E0
:10076400E7BBE0E0E5BBEFEFE4BBE0EDE2BBE2B307
:10077400EE7BE2BBE0E0E1BBE1B3ED67E1BBE7E0C8
:10078400E3B9EEEFE2B9E0E0E0936200EFEFE0936B
:100794006100ECE9E0936500E4E0E0936400E7E0E5
:1007A400E3BFE0E0E0BFE1E0E2BFE0E0E1BFEFBDD6
:1007B400EEBDEDBDECBDEBBDEABDE9BDE8BDE0932A
:1007C4007900E0937800E4BDEAEFE3BDEBE0E5BD3A
:1007D400E3E4E0938B00E0E0E0938A00E093890097
:1007E400E0938800E1E0E0938700E0E0E093860096
:1007F400E0938500E0938400E0938300E09382001B
:10080400E0936A00EABFE9BFE7B7E068E7BFE7B78C
:10081400E469E7BFE7B7EE7FE7BFE0E0E0937D0080
:10082400EBB9E8EDEAB9E6E0E0939500E9E1E9B96E
:10083400E0E0E0939000E0939B00E0939A00E09363
:100844009D00E0939900E0939800E0E8E8B9E0E0C7
:10085400E0BD78940E94E0160E9475180E94FF0E75
:100864000E94BA10E0E0E0930705689422F8E89447
:1008740021F8E3EBE0932D06E7B7EE7FE7BF559849
:1008840034D2E8E3E0935B06C09AA8950E94A111D4
:10089400E0916300E87051F4A0911706A33328F4A3
:1008A400E0911706EF5FE093170603C0E0E0E093E2
:1008B4001706A0911706A23371F40E94491D0E94E5
:1008C400501DA4EAB0E00E94581DE3E0E093340612
:1008D400A4E00E948A11E0916300E07111F087990D
:1008E40004C0A0910605A03009F00AC0A0911E061C
:1008F400A33328F4E0911E06EF5FE0931E0603C0C5
:10090400E0E0E0931E06A0911E06A23339F40E9493
:100914005D1D0E94621DE4E0E0933406E091200630
:10092400E03021F4E0912106E03009F418C00E947F
:100934005D1DE0E0E0932106E0911906E03049F006
:100944000E949D1CE0911906EF5FE09322060E942D
:10095400711DE1E0E0932306E4E0E0933406E091C6
:100964002206E03021F4E0912306E03009F412C0BD
:10097400E0910605E03011F40E94781DE0E0E09378
:1009840023060E949F1CE0911C06E03019F0A2E0AF
:100994000E94F013E0911606E03031F0E0E0E093BD
:1009A4001606E3E0E0933406E0913606E03029F0E1
:1009B400E0E0E09336060E94841DBB20E1F4E5E00C
:1009C400BE2E0E94A317E0933206E030A1F0E0911E
:1009D4001A06E03021F0EF5FE0931F06A89A85D253
:1009E400E0912306E03021F4E0910605E03009F0BF
:1009F40002C00E94711D41FC02C00E948612F9D4FB
:100A040025FE05C0E89425F8E8E7E0935C0624FE9B
:100A140044C0E89424F8E0910605E03039F0E09110
:100A24005C06E03019F0E150E0935C06E0915E066C
:100A3400E03081F1E150E0935E06E03051F5E09161
:100A44005D06E030F9F0E150E0935D06E030B1F48A
:100A5400A0915F06A03021F4A0910805A03009F010
:100A640004C0A6E00E94F01308C0A0910805A530B8
:100A740011F00E94E0160E948B1D03C0A6E00E94A4
:100A8400F01307C00E94E016A1E00E94EC160E9439
:100A94008B1D03C0A6E00E94F013A0915B06A23058
:100AA40020F0A0910605A03009F00FC00E94911D0E
:100AB400E13220F4E0915706E03009F403C00E94CB
:100AC400911DCE2EE0E0E0935706E0915C06E03005
:100AD40021F4A0910605A13008F403C015D014D068
:100AE4000AD1A0915A06AE3720F0A0910605A23093
:100AF40008F404C0E0E0E0935A0634D023FEFECFAD
:100B0400E89423F8C2CEFFCFE0913706E03039F401
:100B1400E0E0E0930605E89420F8EDD022C00E94BE
:100B2400991DE0913706F0E0E75CF94FE081E0932E
:100B340038060E94A01DEDE0F0E00E946D210E94A5
:100B4400A51DE0913806F0E0A0913006B091310681
:100B5400AE1BBF0BA0932E06B0932F06E0E0E093EC
:100B640067050895A0910605A53009F40895E0915C
:100B74004706E03049F00E94AA1DE081E093480650
:100B84000E94AA1DAEE204C00E94AA1DA0914806BC
:100B9400A083A0914706E1E0EA27E0934706089581
:100BA400E0E0E0935A060E94A01D5A9739F40E948F
:100BB400B11DE0E20E94B81D0E94BE1D0E94A01D4E
:100BC400979739F40E94491DE1E00E94B81D0E94E4
:100BD400C91D0E94A01DD49739F40E94D41DE1E0E0
:100BE4000E94B81D0E94C91D0E94A01D1D9739F4C2
:100BF4000E94DB1D0E94E21DE4E00E94E91D0E94A8
:100C0400A01DAE34E0E0BE0741F40E94F91DE0E20D
:100C1400E0936405E2E00E94001E0E94A01DA1343E
:100C2400E0E0BE0741F40E94041EE5E0E0936405A1
:100C3400E3E00E94001E0E94A01DAB35E0E0BE0769
:100C440041F40E940B1EE8E0E0936405E1E00E9499
:100C5400001E0E94A01DA836E0E0BE0759F40E94C1
:100C6400121EE2E0E0936405E6E0E0935205E5E05D
:100C74000E94E91D0E94A01DA238E0E0BE0731F4E5
:100C84000E94191E0E94E21D0E94BE1D0E94A01D0A
:100C9400AF38E0E0BE0731F40E94201E0E94E21D3E
:100CA4000E94BE1D0E94A01DAC39E0E0BE0731F4D5
:100CB4000E94271E0E94E21D0E94BE1D0E94A01DCC
:100CC400A537E0E0BE0751F40E942E1EE0E2E09357
:100CD4006405E1E0E09352050E94C91DE0916705B7
:100CE400E03011F00E94351E08950E94781D0E9484
:100CF400391ECAD508950E94781D0E94391EE0E06D
:100D0400E0935B06E0930905E093150608951A93B2
:100D1400F2DFA0913206A53169F4E0E0E093150614
:100D2400D394E0911406ED1510F4E1E0DE2E0E9458
:100D3400411EDAC0A0913206A73169F4E0E0E093E5
:100D44001506E1E0ED1518F0D090140601C0DA9410
:100D54000E94411EC9C0A0913206A631A9F5E091B6
:100D64005706E03041F00E94911DE13220F40E94C8
:100D7400911DE03011F4CC20F9F0CC2019F40E943C
:100D8400911DCE2EE1E0F0E0E0935806F093590671
:100D9400E89424F8E0E0E09335060E94E016A1E030
:100DA4000E94F013E1E0E0931606E0912806E09338
:100DB40015060E944B1E02C00E94501E0E948A11FA
:100DC400E0E0E093570690C0A0913206A83109F004
:100DD40052C0E0E0E0931506C6D61E2F0E94551EB1
:100DE400309709F040C0113039F40E945D1D0E9413
:100DF400621D0E944B1E34C0123041F4A0912006A3
:100E0400A03021F4A0912206A03009F00BC00E946A
:100E1400E016689425F8E89420F80E94991D0E9431
:100E24005A1E1EC0133041F4A0912006A03021F4B4
:100E3400A0912206A03009F00EC00E94E01668942A
:100E440025F8E1E0E093060520F8E0E0E0933706BA
:100E54000E945A1E05C0E0E0E09357060E94501E0F
:100E64000E948A1107C0E0E0E09357060E94501EDA
:100E74000E948A1139C0A0913206A13010F0AB3023
:100E840008F01FC00E944B1E0E948A11CC24DD244E
:100E9400A0913206AA3019F4E0E0E0933206E09122
:100EA4005706F0E0E35BF94FA0913206A083A091CE
:100EB4005706AA3028F4E0915706EF5FE0935706EF
:100EC40013C0A0913206A13179F4E0E0E093150655
:100ED400E0935706E1E0E09336060E944B1E0E9421
:100EE4008A11A2E00E94F01382C2E0910605E0306C
:100EF40029F4E3E0E09335060ADF17C1A091060563
:100F0400A13009F05CC0E8E7E0935C06A0913206EA
:100F1400A53181F4E0916505A0913806EA1711F432
:100F2400E1E003C0E0913806EF5FE09338060E94E9
:100F34006D1E44C0A0913206A73179F4A091380601
:100F4400A13019F4E091650503C0E0913806E15041
:100F5400E09338060E946D1E31C0A0913206A6317E
:100F640039F5E0916605F0E03197A0913706B0E0DD
:100F7400AE17BF07DCF4E0913706F0E0E75CF94F09
:100F8400A0913806A083E0913706EF5FE09337061F
:100F9400E1E0E0933806A0913006B0913106EDE02F
:100FA4000E9462210E94741E0E946D1EF9DD06C01B
:100FB400A0913206A13111F40E94791EB0C0E091D3
:100FC4004706E03009F4CEDDE8E7E0935C06A09143
:100FD4003206A831F9F40E94A01D1D9791F4E09106
:100FE4004606EF5FE0934606E0E0E0934906E091B1
:100FF4005205A0914606EA1718F4E1E0E09346068C
:1010040008C0A0910605A33021F4E1E0E093460670
:101014008DD085C0A0913206A531C1F4A0910605FA
:10102400A53011F00E947F1EE0916405A091670530
:10103400AE1720F4E0916705EF5F01C0E1E0E093B3
:1010440067050E94351E0E94831E69C0A091320666
:10105400A731B9F4A0910605A53011F00E947F1EB6
:10106400A0916705A23020F0E0916705E15002C02D
:10107400E0916405E09367050E94831E0E94351E7B
:101084004EC0A0913206A131A9F5A0914606A23026
:1010940048F0E0914606E150E0934606E0E0E09334
:1010A400490627C00E947F1E0E940B1E0E948C1EB0
:1010B4000E94921EE0934C0627DDE0914C06E0303E
:1010C40019F00E94791E15C00E94121E0E94991EDA
:1010D400A6E00E940D1DE03061F00E94A81EE6EB20
:1010E400F0E0FA93EA93A6E00E940D1DA1E00E94AD
:1010F400331815C0A0913206A63189F00E94A01DB4
:101104001D9711F44FD00BC0A0910605A53009F42A
:101114000895A0914606A13009F408D017D0E3E061
:10112400E0933406A1E00E948A1108951A93E09195
:101134004606E1501E2FE09152051E1730F40E941E
:10114400AD1EA0E2A0831F5FF6CF51C1A09132066D
:10115400A13010F0AB3008F024C0A0913206AA30C0
:1011640019F4E0E0E09332060E94AA1DDF01E09149
:101174003206E05DEC93E0914606EF5FE0934606AD
:10118400E0915205A0914606EA1740F4E1E0E093AD
:101194004606A0910605A43009F4C8DFE0E0E09318
:1011A400490608951A93E0E0E0934A06A0913206B6
:1011B400A13010F0AB3008F01AC1A0913206AA3069
:1011C40019F4E0E0E0933206E0913206A091330690
:1011D400EA1711F0E1E003C0E0914906EF5FE09304
:1011E4004906E0913206E0933306A0914906A43003
:1011F40051F4A0913206A43031F0A53021F0A93089
:1012040011F00E94B21EA0914906A63018F0E1E048
:10121400E0934906A0914906A53029F4E0913206ED
:10122400E05D1E2FE1C0E0914A06E03009F0C3C042
:10123400A0913206A130B1F4A0914906A13009F47D
:1012440017E2A0914906A23009F41DE2A0914906D3
:10125400A33009F41EE2A0914906A33011F40E94C0
:10126400B21EA9C0A0913206A23049F4E091490609
:10127400EE510E94B81E11F40E94B21E9CC0A091AF
:101284003206A33049F4E0914906E1520E94B81EA7
:1012940011F40E94B21E8FC0A0913206A430A9F4AA
:1012A400A0914906A13009F410EFA0914906A2309B
:1012B40009F41FEEA0914906A33009F41EEEA09193
:1012C4004906A43009F41DEE76C0A0913206A5307B
:1012D400A9F4A0914906A13009F419EEA091490698
:1012E400A23009F41BEEA0914906A33009F41AEECA
:1012F400A0914906A43009F41CEE5DC0A091320609
:10130400A63049F4E0914906EB510E94B81E11F44D
:101314000E94B21E50C0A0913206A73049F4E09159
:101324004906E9500E94B81E11F40E94B21E43C03F
:10133400A0913206A830B1F4A0914906A13009F475
:1013440016EFA0914906A23009F415EFA0914906C1
:10135400A33009F417EFA0914906A33011F40E94B9
:10136400B21E29C0A0913206A930A9F4A091490661
:10137400A13009F411EFA0914906A23009F412EF4B
:10138400A0914906A33009F414EFA0914906A430B2
:1013940009F413EF10C0E0914906E35C6E2FE0916D
:1013A4003206A3E0EA02F001E60F1E2FA0914A06DE
:1013B400A23009F4105EE0913206E030A9F4A09165
:1013C4004906A13009F410E2A0914906A23009F4BB
:1013D40018E2A0914906A33009F419E2A091490644
:1013E400A33011F40E94B21E0E94AA1D1083199109
:1013F40008950E94BD1EA0910605A03011F0A130F1
:1014040009F40AC0AFEDB5E060D1A0910605A4309F
:1014140011F40E94C41E46C1CC2021F0E0911506AF
:10142400E03009F464C00E94DB1D0E94C81EE091F4
:101434000905F0E0309739F40E94CE1EADEBB0E020
:101444000E94F41C2BC0E130A0E0FA0739F40E949A
:10145400CE1EAEECB0E00E94F41C20C0E430A0E04C
:10146400FA0739F40E94CE1EAFEDB0E00E94F41CDE
:1014740015C0E230A0E0FA0739F40E94CE1EA0EFB6
:10148400B0E00E94F41C0AC0E530A0E0FA0731F491
:101494000E94CE1EA1E0B1E00E94F41C0E94D31E63
:1014A400309779F00E94D31EE05DE093DE050E9440
:1014B400DA1E0E94E01EE05DE093DD050E94DA1E64
:1014C4000BC00E94E51E309729F00E94E51EE05DE6
:1014D400E093DD05AC2DBB27EAE0F0E00E94882113
:1014E400E05DE093DC05AFEDB5E0EFD0D7C0CC20F4
:1014F40021F0E0910605E03009F039C00E94DB1DBF
:101504000E94C81EAFECB5E0E0D0EFEDF5E0FA9331
:10151400EA93A2E1B1E00E94F41CE3E0E093EE055B
:101524000E94D31E309799F00E94D31EE05DE09391
:10153400E5050E94DA1E0E94E01EE05DE093E405EA
:101544000E94DA1E0E94E81EE093E3050FC00E9489
:10155400E51E309729F00E94E51EE05DE093E50565
:10156400AC2DBB270E94E81EE093E40597C0E091F0
:101574000705E03009F490C0F0E0E130A0E0FA079C
:1015840049F4E9E0F0E00E94741EEAE0F0E00E9411
:10159400A51D75C0E230A0E0FA0749F4EDE0F0E0E3
:1015A4000E94741EEEE0F0E00E94A51D68C0E630C3
:1015B400A0E0FA0749F4E9E0F0E00E94741EE4E1D7
:1015C400F0E00E94A51D5BC0E730A0E0FA0749F4F3
:1015D400E3E1F0E00E94741EE5E1F0E00E94A51D45
:1015E4004EC0E430A0E0FA0791F4EFE0F0E00E948E
:1015F400741EE0910A05E03019F0EEE0F0E002C05C
:10160400E0E1F0E0E0933006F093310638C0E530D5
:10161400A0E0FA0791F4E1E1F0E00E94741EE09189
:101624000B05E03019F0EEE0F0E002C0E2E1F0E09A
:10163400E0933006F093310622C0E830A0E0FA07C8
:1016440091F4E6E1F0E00E94741EE0910C05E030B4
:1016540019F0EEE0F0E002C0E0E1F0E0E0933006E3
:10166400F09331060CC0E930A0E0FA0741F4E7E159
:10167400F0E00E94741EE8E1F0E00E94A51DE0E0A5
:10168400E09307050E94BD1E0E94EE1E0E94C41E28
:10169400E4E0E093350606C00E94EE1EAFEDB5E02F
:1016A4000E946E1C0E94F81E0E94CE1E0E94FC1E08
:1016B4000895BA93AA930E94001FA8C2BA93AA934A
:1016C400552011F00E94001FA1C2BA93AA931A9345
:1016D4000E940E1F0E94131F10E0E09152051E1776
:1016E40028F40E94AD1EE081E03009F408C00E9495
:1016F400171F0E94AD1EE081EC931F5FEECF18818F
:1017040028C0AA931A930A9311E0E0915205F0E0DD
:101714003197ED5AFA4FA081A03211F0A030A1F414
:10172400E0915205E1500E2F013048F00E941D1F38
:10173400E02FF0E031970E94221F0150F5CFE0E343
:10174400E09353051F5FE1CFAA810E9433181981EA
:10175400088123960895BA93AA93A297E0E0E883B8
:10176400E9830E94CC2110E000E020E011E0E09148
:101774006405A12FB0E0A7FDBFEFF0E0EA17FB0777
:101784000CF47EC0A12F0E944E18A12FBADF30E0C6
:1017940020E000E0E0915205A02FB0E0A7FDBFEFEC
:1017A400F0E0AE17BF0754F40E94271FE081E03039
:1017B40029F00E94271FA081A03209F419C00E94B9
:1017C400271FA081A03311F4303009F001C00EC0EE
:1017D40031E0E22FF0E00E942C1F0E94271FE081DD
:1017E400F0E0EF70F070ED93FC932F5F0F5FD2CFBA
:1017F4004FEF5FEF203011F040E050E0E1E0F0E027
:10180400EE83FF8301E02017ECF0A22FB0E0A7FDE8
:10181400BFEFE02FF0E0E7FDFFEF0E94331F0E94CF
:101824002C1F0E94A421AE81BF810E945A214E0F19
:101834005F1FAE81BF81EAE00E946221EE83FF83D5
:101844000F5FE1CFEAA5FBA54E175F071CF44AA57D
:101854005BA509C0E8A5F9A5E417F5071CF448A59C
:1018640059A501C00BC05A934A93A3E5B5E00E9461
:10187400A11CA12F46DFA12F0E9433181F5F77CF31
:101884000E94D321AC960895B8D20E94041EE3E0CE
:101894000E94381F79F4E0915405EF70E43050F45D
:1018A400E0915405EF70E33021F4E0915405EF70BA
:1018B40009F406C00E94A81EA4E3B1E00E94581DCA
:1018C4000E94441FE09318060E94501F21F0E0E399
:1018D400E09353050FC0E0915405E07021F0E091CE
:1018E4005505E07009F409C00E94A81EA8E3B1E000
:1018F4000E94F41CA2E00E9433180E94441FE0934B
:101904001906A3E00E944E180E94921E21F00E9424
:10191400A81E0E945A1F0E94441FE0931A06A09119
:101924001A06A33609F4A89AE0911A06E03009F4DD
:10193400A8980E94611F29F00E94A81EACE3B1E0A0
:1019440008C0E0915405EF7049F40E94A81EA0E479
:10195400B1E00E94F41CA4E00E943318E091540505
:10196400F0E0EF70F070AAE0B0E00E946821DF01BF
:10197400E0915505F0E0EF70F070EA0FFB1FE09383
:101984002806F09329060E946B1FE23060F4E130D0
:1019940049F4E0915405EF70E83021F4E0915505E5
:1019A400EF7009F405C00E94A81EA4E4B1E00EC0C3
:1019B400E0915305EF7029F4E0915405EF70E230A3
:1019C40008F009C00E94A81EA8E4B1E00E94F41C1B
:1019D400A5E00E943318E0915305EF70A4E6EA02F3
:1019E400602DE09154050E94751FA62FAE0FE09163
:1019F4005505EF70EA0FE0931B060E940B1EE1E011
:101A04000E94381FE0934B06A0914B06A53010F4BA
:101A1400E03009F406C0E0914B06E150E0934B0638
:101A240006C00E94A81EAAE3B1E00E94581D0E94AD
:101A3400501FAE2EE2E0EA1530F4E1E0AE2E0E9433
:101A4400A81E0E947A1F0E94611FE0931C06A091A9
:101A54001C06A23058F0E1E3E0935305A4E00E9491
:101A64003318E0915305EF70E0931C060E946B1F3E
:101A7400E0931D06A0911D06A23058F0E1E3E09327
:101A84005305A5E00E943318E0915305EF70E093ED
:101A94001D06A6E00E944E18A6E033DEE091530531
:101AA400E170E0930A05A7E00E944E18A7E00E94A7
:101AB400811FE170E0930B05A8E00E944E18A8E096
:101AC4000E94811FE3705E2EE2E0E51508F45524C0
:101AD400E0E3E09353050E94861FA8E00E943318B8
:101AE4000E942E1E0E948C1FE0E0F0E0FA93EA931D
:101AF400A1E0B0E030DE0E94F91DE2E00E94931FF5
:101B0400E1E0F0E0FA93EA93A0E2B0E024DEE0E062
:101B1400E0930605A5E062D6A4E060D6E0910A054C
:101B2400E03051F0E0E0E0930B05E0930C05E1E0D8
:101B3400E0930A05A7E014C0E0910B05E03041F002
:101B4400E1E0E0930B05E0E0E0930C05A9E008C0B8
:101B5400E0910C05E03029F0E1E0E0930C05AAE007
:101B64003DD606D308950E94CE21E0E03E2F1E2FDD
:101B7400EAE0E09352050E94491DE0915706E030E7
:101B8400B1F13F5FA32F0E944E1800E020E0E091E6
:101B940057062E1710F4003009F013C0E22FF0E0BE
:101BA400ED5AFA4FA081E22FF0E0E35BF94FE081B8
:101BB400F0E0F096B0E0EA17FB0709F001E02F5FD0
:101BC400E6CF003071F411E0E22FF0E0ED5AFA4F65
:101BD400A081A13220F0A0915706AA3008F001C0DC
:101BE40010E0333210F4103009F001C0CACF3130A4
:101BF40011F4103009F401C012E0323011F4103045
:101C040009F401C013E0E12F0E94D5212496089520
:101C14000A921A92FA926A937A938A939A93AA935B
:101C2400BA93EA93FA93EFB7EA93689423F8E091AE
:101C34002A06F0912B060E94991FEA0FFB1F0E94AF
:101C44009E1FBB2009F0BA94E0912606F091270666
:101C5400309771F0A6E2B6E0ED91FD913197FE93D5
:101C6400EE93E0912606F0912706309709F461D3AC
:101C7400A0910605A23060F0A0915806B0915906D3
:101C8400E6E5F0E00E948521309711F40E94B40546
:101C9400A8E5B6E00E94A31FA0915806B09159068A
:101CA400AA3FE0E0BE0708F49AC0E0915806F0911C
:101CB4005906EA5FF040E0935806F0935906689499
:101CC40024F8E0911506E03011F1E0E0E0933506E8
:101CD400E0911506E150E0931506E0912806F09195
:101CE40029063197A0911506B0E0EA17FB0741F4E5
:101CF400E4E0E0933406E2E0EA1511F4A5E008D349
:101D0400E0911506E03019F4E1E0E0933606E09145
:101D14001F06E03021F0A0911F06A33608F008C08A
:101D2400E0911F06E150E0931F06E03009F4A89803
:101D3400E0912006E03091F0E0E0E0933506E4E045
:101D4400F0E00E94741EE5E0F0E00E94A51DE09121
:101D54002006E150E0932006A1E0DAD2E0912206C9
:101D6400E03091F0E2E0F0E00E94741EE3E0F0E085
:101D74000E94A51DE0912206E150E0932206E2E0D4
:101D8400EA1511F4A3E0C4D2E0913506E03041F045
:101D9400E0915B06E03021F4E0910605E03009F0C3
:101DA4000AC0E0913506E150E0933506E03019F4BD
:101DB400E1E0E0933606E0915706E03019F0A0E048
:101DC400CA1609F004C0E0910605E03009F004C029
:101DD400E0915B06EF5F01C0E0E0E0935B06E99110
:101DE400EFBFF991E991B991A9919991899179916B
:101DF4006991F9901990099018951A930E94121EEE
:101E04000E94991EA09152050E940D1DE03029F5F3
:101E14000E940B1E0E948C1EE0915305EF70E0930C
:101E24004C06E030D1F4A0915305AF3FB1F010E07F
:101E3400143698F4E0916300E87029F00E94A81E1B
:101E44000E94A91F52C1B79B05C00E94A81E0E94F0
:101E5400A91F4BC100001F5FEBCFE7E0F0E00E9439
:101E6400741EE8E0F0E00E94A51D0E94BD1E0E94C1
:101E7400EE1E0E94F81E0E94C41E0E94CE1E0E94E6
:101E8400FC1E0E94B01FA0914C06A130E1F0A230CC
:101E9400E1F1A33009F470C0A0914C06A43009F418
:101EA4008EC0A0914C06A53021F4E0E0E0934C06EE
:101EB4000AC0A0914C06A63009F49FC0A0914C061C
:101EC400A73009F4BBC00E94B11DEAE00E94931F31
:101ED4000E9421180E94A81EACE4B1E00E94581D83
:101EE400E0914C06E03009F0C3C00E94491D0E94F5
:101EF400501DA0E5B1E00E94581D0E94D41D0E940F
:101F0400501DA7E5B1E00E94581D0E94F91DE2E0B2
:101F1400E093520511E0113250F5143678F4A12FF4
:101F2400B0E00E94E01EE05DE0935305A12FBB27C3
:101F34000E94E81EE0935405E0E212C0A12F0E9423
:101F4400B41FE0935305E12F0E94BB1F0E94E01EC3
:101F5400E05DE0935405E12F0E94BB1F0E94E81E40
:101F6400E0935505A12F0E9433181F5FD4CFE09151
:101F74004C06E03009F07CC00E94041EE3E00E949D
:101F8400C01FAEE5B1E00E94581D0E94A81EA2E643
:101F9400B1E00E94C31F0E945A1F0E94A81EA8E419
:101FA400B1E00E94C91FA6E6B1E00E94F41CA5E0BE
:101FB4000E943318E0914C06E03009F059C00E94A9
:101FC400DB1DE0E10E94931F0E9421180E94A81EBD
:101FD400AAE6B1E00E94581D0E94A81EABE7B1E03A
:101FE4000E94C31FACE8B1E00E94F41CA3E00E946D
:101FF4003318E0914C06E030D9F50E94191EE0E157
:102004000E94931F0E9421180E94201EE0E10E945A
:10201400931F0E9421180E94271EE0E10E94931F33
:102024000E9421180E942E1E0E948C1F0E94CF1F06
:102034000E941518E0914C06E030D1F40E940B1E6A
:10204400E1E00E94C01FAAE3B1E00E94581D0E9473
:10205400A81E0E947A1F0E94A81EAAE3B1E00E9453
:10206400C91FAAE3B1E00E94F41CA5E00E94331842
:102074000E940B1EE1E00E94C01FA6E3B1E00E9493
:10208400F41C0E94861FA3E00E9433180E94121EB3
:10209400E6E0E0935205A1E00E944E180E94A81EBB
:1020A400A6EBB0E00E94E01CE03059F00E94A81EAC
:1020B400A6EBB0E00E94581D0E94CF1FA2E00E9430
:1020C4003318E0910605E03081F40E94781D0E94E7
:1020D400BD1E0E94EE1E0E94F81E0E94C41E0E9495
:1020E400CE1E0E94FC1EA3E079D319910895AA93F1
:1020F400A881A13021F4A981BA81EC91B4C0A8814E
:10210400A23051F4A981BA81EC910E94D61FE981D1
:10211400FA81E181EA0FA7C0A881A33099F4A981CB
:10212400BA81EC91A4E6EA02602DE981FA81E181A9
:10213400AAE0EA02F001A62FAE0FE981FA81E2815A
:10214400EA0F91C0E0E08FC0AA931A9310E0103216
:1021540068F4E12FF0E0ED50FA4FE081A981EA172D
:1021640019F4E12FEF5FD1C01F5FF1CFE0E0CDC0E4
:1021740060971A930A93A8950E94CE1EADE9B1E028
:102184000E94F41C0E94F81EEFEDF5E0FA93EA9326
:10219400AEEAB1E00E94F41C0E94C41E0E94CE1E4E
:1021A4000E94FC1EE0E0E09314060E94DB1DE0E1C7
:1021B400E093520511E01132E0F5A895A12F0E9499
:1021C400DB1F0E94A81EA0E16BD0DE01129635D061
:1021D400E030E9F40E94E21FA1E0A08301E00132B3
:1021E400A8F4A02F0E94DB1FA3E5B5E03ED0E030A9
:1021F40059F0A3E5B5E021D0E03031F40E94E21FAC
:10220400DF01EC91EF5FEC930F5FE9CF04C00E9414
:10221400E21FA0E0A0830E94E21FA081E0911406C7
:10222400EA1728F40E94E21FE081E09314061F5F7E
:10223400C2CF1981088162960895BA93AA931A931A
:1022440010E0103170F40E94171FEC91E03049F057
:102254000E94171FAC91A03211F0E0E003C01F5F91
:10226400F0CFE1E0188123960895BA93AA931A93C4
:1022740010E0103190F40E94E81FEC91E01518F47E
:10228400E1E0188123C00E94E81FEC910E1618F4B7
:10229400E0E018811BC01F5FECCFE0E0188116C09E
:1022A400AA93E881E03091F0E150E883AB81BC81EE
:1022B400F0E0EA0FFB1F0F01E881A981BA81F0E089
:1022C400AE0FBF1FEC91D001EC93EBCF2596089590
:1022D400AA931A930E94F91DE2E0E0935205A981A2
:1022E4000E944E18A9810E94811F0E94751FAE2F63
:1022F400E0915405EF70EA0F1E2F113010F01132E7
:1023040008F002C0E12F01C0E0E018812296089590
:10231400AA93AA2059F0E881E0932C06E8EEF3E0B2
:102324000E94EF1FEAE1E0938A0001C002D02196E7
:102334000895E0E0E0932C060E94F41F0895E091D4
:102344002C06E03009F4DFC0F0E0E130A0E0FA0749
:1023540061F40E94F91FA53DE3E0BE0718F00E9456
:10236400FE1F02C00E940620C6C0E230A0E0FA07A9
:1023740071F40E94F91FA939E3E0BE0728F0E0E8F0
:10238400F2E00E949E1F02C00E940620B4C0E33007
:10239400A0E0FA0771F40E94F91FAD3BE2E0BE072A
:1023A40028F0E0E8F0E00E949E1F02C00E94062090
:1023B400A2C0E430A0E0FA0711F50E94F91FA73E7D
:1023C400E3E0BE0718F00E94FE1F18C00E94F91F28
:1023D400AD3AE3E0BE0780F00E94092019F40E94A0
:1023E400102002C00E9417200E941D200E94282055
:1023F40010F40E94FE1F02C00E9406207CC0E5303B
:10240400A0E0FA0709F077C00E94F91FA73EE3E0B5
:10241400BE0718F00E94FE1F6EC00E94F91FAD3A5D
:10242400E3E0BE0780F00E94092019F40E94102006
:1024340002C00E9417200E941D200E94282010F430
:102444000E94FE1F58C00E94F91FA934E3E0BE0792
:1024540018F00E94F41F4FC00E94F91FA734E3E054
:10246400BE0718F00E94FE1F46C00E94F91FAD303F
:10247400E3E0BE0798F0EAE1E0938A000E940920B5
:1024840019F40E94102002C00E9417200E941D20EF
:102494000E94282010F40E94FE1F2DC00E94F91FE4
:1024A400A93AE2E0BE0718F00E94F41F24C00E947B
:1024B400F91FA73AE2E0BE0718F00E94FE1F1BC0F6
:1024C4000E94F91FAD36E2E0BE0798F0EAE1E0931E
:1024D4008A000E94092019F40E94102002C00E9460
:1024E40017200E941D200E94282010F40E94FE1F25
:1024F40002C00E940620E0912506E0938700E09147
:102504002406E0938600089544FE5EC1EFEE4E2259
:1025140021FE04C0E0910605E03009F051C1E2E07B
:10252400E515B1F4E0E0E093BA050E942C200E9486
:102534003420A0E10E94261DE9E6F5E0FA93EA932F
:102544000E9439200E94B01F0E942C200E94392032
:10255400E89421F8E0E0E0933506E7B7EE7FE7BFC3
:10256400E0E0E0930705E0910E05F0E0E033A0E041
:10257400FA0761F4A0910805A13021F0A23011F00E
:10258400A53019F415D4A6E029D11AC1E035A0E08C
:10259400FA0709F064C0A0910F05A734E9F5A091EA
:1025A4000805A630C9F50E943D20A0911005A63467
:1025B40029F40E948B1DA6E00DD42EC0E0910B05DA
:1025C400E030A1F016D4F4D3E0910B05EF5FE09373
:1025D4000B05A5E0FFD3A0910B05A13220F0E0E0AC
:1025E400E0930B0536C0A9E0F9D016C0E0910A05C6
:1025F400E03091F0DDD3E0910A05EF5FE0930A0546
:10260400A4E0E8D3A0910A05A13220F0E0E0E09331
:102614000A051FC0A7E0E2D0A0910F05AE34F1F483
:10262400A0910805A730D1F40E943D20E0910C054B
:10263400E030A1F0BDD3E0910C05EF5FE0930C0511
:10264400A8E0C8D3A0910C05A13230F0E0E0E093FB
:102654000C05A6E0C3D00895AAE0C0D0B1C0E93407
:10266400A0E0FA0759F5A0E09CD3A0910F05A63588
:10267400C9F4A0910805A33019F4E0E0E09308053B
:10268400A3E0A8D30E94121EE6E00E94C01FE0E16E
:10269400F5E0FA93EA93A6E00E94261DA2E00E94C8
:1026A40033180BC0A0910F05AD3439F4552029F02F
:1026B400E0E0E0930805A9E08DD382C0E334A0E014
:1026C400FA0709F040C0A0910805A43019F4E0E02D
:1026D400E0930805E0911005E0530E94D61F0E9484
:1026E400432011F4E0E2CE2EA0910F05A13441F471
:1026F400E1E0E0930905E0912806E093150622C085
:10270400A0910F05A53439F4E2E0E0930905E5E072
:10271400E093150617C0A0910F05A63439F4E4E040
:10272400E0930905E5E0E09315060CC0A0910F05C0
:10273400A23411F4A2E005C0A0910F05A73411F44E
:10274400A7E048D33BC0E435A0E0FA07B9F4A09170
:102754000805A43019F4E0E0E0930805E0911005C1
:10276400E0530E94D61F0E94432011F4E0E2CE2ED3
:10277400E0911B06E0931506E5E01EC0E535A0E0F8
:10278400FA07C9F4E0912006E03021F4E091220632
:10279400E03009F00FC00E94841D0E94711DE09179
:1027A4001806EF5FE0932006E1E0E09321060E9423
:1027B4004B1EAEDD03C0E7E0E0930905A0E0F1D2D3
:1027C400E0E0E093790509C00E944A2020F0A0913E
:1027D4005E06A03009F001C0F1D20895AA931A93BD
:1027E4000A9310E000E0E0910605E03009F0D5C25C
:1027F400E0915E06E03011F441FE13C0A0916B0637
:10280400A93018F4AA81A03009F40AC0E0916B063B
:10281400EF5FE0936B06F0E0E05AF94FAA81A083E2
:10282400BCC2AA81A630F1F4E0910805E03039F089
:102834000E945020E081EA83E89426F812C00E94A6
:102844004A2010F0BBD2A9C2E0E0E0935D06E0911B
:102854006A06EF5FE0936A06F0E0E05AF94FE08120
:10286400EA8311C0E0910805E03049F40E944A204F
:1028740028F0A4D20E945020AA81A08304C00E9400
:102884005020E081EA83EA81E0935F0610E0F0E003
:102894003097B1F410E0143040F4E12FF0E0E55843
:1028A400FA4FA0E3A0831F5FF6CFE0915D06E0300E
:1028B40019F4E1E0E0935D06E3E0E0935E06F6C11F
:1028C400E130A0E0FA0709F03FC0CC2011F476D241
:1028D40064C2E4E0E0930805E0E0E09309050E94A7
:1028E4005620A3E4A0830E942E1EE1E0E09352054B
:1028F400AC2D0E944E180E945620A0915305A0832F
:102904000E945620FF93EF93AC2DE2DCF0E0DF0150
:102914000E94E01EE05DAF91BF91EC930E945620AF
:10292400FF93EF93AC2DD4DCF0E0DF010E94E81EAE
:10293400AF91BF910E945C2019F4E1E0E0935D0641
:10294400E9E0E0935E06B2C1E230A0E0FA07D1F418
:10295400E5E00E946120A3E4A0830E945620A5E440
:10296400A0830E945620A0E3A0830E945620A0E3E7
:102974000E94642019F4E1E0E0935D06E3E0E09353
:102984005E0694C1E330A0E0FA0791F4E2E00E940D
:1029940061200E9469200E946C20A2E50E946420AC
:1029A40019F4E1E0E0935D06E9E0E0935E067EC1A0
:1029B400E430A0E0FA0709F055C0E2E00E9461208B
:1029C4000E9469200E946C20A0E50E946F20E09183
:1029D4004B06EF5CEC930E9456200E947620E4E6BE
:1029E400F0E00E947C200E947620EAE0F0E00E9461
:1029F4007C200E947620EAE0F0E00E9485210E947B
:102A04008220BF01A0911B060E94B41F0E94862051
:102A1400BF01A0911B06B0E00E94E01EDF010E94EE
:102A2400E81E0E948620BF01A0911B06BB270E94BE
:102A3400E81E0E948620A0E30E946F20E0911D06FC
:102A4400E170E05DEC930E948920EA2DE370E05D83
:102A54000E945C2019F4E1E0E0935D06E3E0E0937A
:102A64005E0624C1E530A0E0FA0791F4E3E00E9499
:102A74006120A9E4A0830E945620A6E50E94642058
:102A840019F4E1E0E0935D06E9E0E0935E060EC12F
:102A9400E730A0E0FA0709F091C0E0910A05E030C0
:102AA40019F4E0E2E0930A05E6E00E9461200E9446
:102AB40069200E948F200E946C20BF01A0910A050A
:102AC400B0E00E94E01E0E948220BF01A0910A058E
:102AD400BB270E94E81EDB01EC930E94191E0E9492
:102AE40092200E941D1FEC91E03041F0FD01A08175
:102AF400A03221F0E09152050E1708F006C00E94A2
:102B040089200E949B200F5FECCF0E945620ACE7E7
:102B1400A0830E94201E0E9492200E941D1FEC91FF
:102B2400E03021F0FD01A081A03209F404C0E0915D
:102B340052050E1708F006C00E9489200E949B20AF
:102B44000F5FEBCF0E945620ACE7A0830E94271EA4
:102B54000E9492200E941D1FEC91E03021F0FD01A3
:102B6400A081A03209F404C0E09152050E1708F0C8
:102B740006C00E9489200E949B200F5FEBCF0E9419
:102B84005620ACE7A0830E942E1EE1E0E09352059C
:102B9400A0910A050E944E180E945620A091530548
:102BA400A0830E945620ACE70E94642019F4E1E05F
:102BB400E0935D06E9E0E0935E0678C0E930A0E0CA
:102BC400FA0749F5E0910B05E03019F4E0E2E093EF
:102BD4000A05E6E00E9461200E9469200E948F207D
:102BE4000E948F20BF01A0910B05B0E00E94E01E5F
:102BF4000E948220BF01A0910B05BB270E94E81E02
:102C0400DB010E945C2019F4E1E0E0935D06E9E059
:102C1400E0935E064BC0EA30A0E0FA0709F046C034
:102C2400E0910C05E03019F4E0E2E0930C05E7E0F4
:102C34000E9461200E946920AEE4A0830E94562075
:102C44000E946C20BF01A0910C05B0E00E94E01E20
:102C54000E948220BF01A0910C05BB270E94E81EA0
:102C6400DB01EC930E94DB1DE0E1E0935205A091AF
:102C74000C050E944E1800E00E94271FE081E030FE
:102C840021F0E09152050E1708F006C00E94892039
:102C94000E949B200F5FF0CFE0915D06E03019F4B5
:102CA400E1E0E0935D06E3E0E0935E0610937A05CD
:102CB400E12FF0E0E558FA4FA0E0A0837894E2E039
:102CC400E51509F05FC0E0E0E0930D05E093BA0577
:102CD400EAEBF5E0FA93EA93EAE7F5E0FA93EA938C
:102CE400A6E00E94261DAAEBB5E00E94011D7E2EDF
:102CF400E6E0E71508F47E2E0E949E20AEE2A08353
:102D04000E949E20DF01E09108050E94A420DF01BB
:102D1400E0916A060E94A420DF01E0916B060E9404
:102D2400A420BF01A09160060E94A820BF01A09129
:102D34006106B0E0EAE0F0E00E948821EF70E05D17
:102D4400DB01EC930E949E20BF01A0915F060E94CC
:102D5400A820AEE2A0830E949E20A0E0A0830E944F
:102D64009E20A0E0A0830E9434200E943920AAEF74
:102D7400B0E00E944C21E0E0E093BA050E943420C8
:102D84000E943920E0E0E093CA0599241A9AE2E00F
:102D94004E2AE0E0ECB95698559A19810881239699
:102DA4000895AA930E94B220A88118DD0C940A19F0
:102DB400E0E0E09308050E94B2200895E0E0E0938B
:102DC4005F064424E0936B06E0936A06F1DF6090AB
:102DD40008050895AA93E0E0E0930905E093350619
:102DE400E09315060E945D1DE881E09307050C94AD
:102DF4000A191A930A9316E000E00E94191EE0E1F2
:102E04000E94931F00E00E94A81E0E94131F0E94AC
:102E1400271FA0E0A083E2E0E51591F4E0E0F5E0EF
:102E2400FA93EA93ADE0B5E00E94600B0E94B01FF4
:102E3400E1E0F5E0FA93EA93A2E0B5E00E94600BCA
:102E44000E94B820A081AC3721F0E09152050E1702
:102E540008F009C00E941D1F0E94B820E081EC9375
:102E64001F5F0F5FEDCF0E94271FA0E0A083E2E069
:102E7400E51581F40E94A81EA3E0B5E00E94600B52
:102E84000E94B01FE4E0F5E0FA93EA93A5E0B5E010
:102E94000E94600B0E94B820A081AC3709F41F5F28
:102EA4000E94BD200E94201EE0E10E94931F00E0CA
:102EB4000E94A81E0E94131F0E94271FA0E0A08347
:102EC4000E94B820A081AC3721F0E09152050E1782
:102ED40008F003C00E94C120F3CF0E94271FA0E086
:102EE400A0830E94B820A081AC3709F41F5F0E9420
:102EF400BD200E94271EE0E10E94931F00E00E9473
:102F0400A81E0E94131F0E94271FA0E0A0830E94F6
:102F1400B820A081AC3721F0E09152050E1708F0DB
:102F240003C00E94C120F3CF0E94271FA0E0A0830A
:102F34000E94B820A081AC3709F41F5F0E94BD2015
:102F44006FC01A93109168050DD0E0936805103096
:102F540011F4E11719F4E0E00C942A19E0916805E2
:102F64000C942A191A930A93C69810E10E94CF2050
:102F740000E00430E8F514FF0CC0B29B02C0E1E0AD
:102F84004FC0B39B02C0E2E04BC0B49B02C0E3E07D
:102F940047C015FF0CC0B29B02C0E4E041C0B39B24
:102FA40002C0E5E03DC0B49B02C0E6E039C016FFB4
:102FB4000CC0B29B02C0E7E033C0B39B02C0E8E0A0
:102FC4002FC0B49B02C0E9E02BC017FF0CC0B29B1A
:102FD40002C0E8E125C0B39B02C0EAE021C0B49B73
:102FE40002C0E1E11DC0110F0E94CF200F5FC1CFCD
:102FF400E3B1EF70E3B9C69A00E00E3118F40000B3
:103004000F5FFBCFB29B02C0E5E10AC0B39B02C0D5
:10301400E7E106C0B49B02C0E6E102C0C698E0E066
:103024000991199108951A9311E0E0916405E1174B
:1030340020F0A12F16D01F5FF8CF0C942A191A93F1
:103044000E94A81EA0ECB1E00E94F41C11E0E091E3
:103054006405E11720F0A12F04D01F5FF8CF0C9472
:103064002A190E94D62010E0E09152051E1710F490
:10307400103108F00DC0ADE4B5E00E94A31F3197F4
:10308400DF010E94AD1EE0810E94BB211F5FECCFD7
:103094000E94D5210C943C1C0E94D6200E94A81E9C
:1030A400A0ECB1E00E94F41C10E0E09152051E1760
:1030B40010F4103108F00FC00E94AD1E0F01ADE4F2
:1030C400B5E00E94A31F3197DF010E94AF21D00118
:1030D400EC931F5FEACF0E94AD1EA0E0A0830E9484
:1030E400D5210C943C1CA0E387D0A0E385D0A0E3B9
:1030F40083D0A0E381D0A0E27FD0A8E276D0A0E183
:1031040074D0ACE072D0A6E070D0A1E06ED001D053
:103114000895AA98AB98A8E468D0A4E00E94F3208C
:103124000E94F8200E94FE20A0E052D00E94FE20BF
:10313400A4E04ED0AFE10E94F320A4E049D0A0E087
:1031440047D0A4E045D0A4E00E94F320A1E140D000
:103154000E94F820A0E03CD0A0E03AD00895AA93C1
:103164000E94CE2130E0EC813E1758F400E010E0DC
:103174000436E0E01E0718F40F5F1F4FF9CF3F5FDE
:10318400F2CF0E94D5210C943C1CAA931A93A981D6
:10319400A0582BD010E0103140F4AA81BB81EE2757
:1031A400A10FBE1FEC91E03009F409C0AA81BB81D4
:1031B400EE27A10FBE1FAC910BD01F5FECCF1031D7
:1031C40020F4A0E205D01F5FFACF18812496089559
:1031D4000E940721E4600E9412210E941621E07FD0
:1031E400E4600E941221AA9813C00E9407210E9441
:1031F40012210E94162109C0AA93A5E0B0DFE5B30D
:10320400EF70E5BBE5B3AE2FE881E07F0E941221A9
:10321400219608951A9310E8AF9AEFE7E4BBAB9AAE
:10322400AA9817FF0FC0AF9A000000000000A99AE7
:1032340000000000000013B317FF13B3AF98A99860
:1032440009D0EFCFEFEFE4BBE5B3EF70E5BBAB988C
:103254001991089500000000A99A000000000000E0
:10326400A998000000000895BA93AA931A93E091D4
:103274000605E03009F057C1EB81FC81309789F4F1
:103284000E940E1FA2EDB1E00E94F41CA981BA8134
:103294001D96E1E0EC93A981BA811F96E2E0EC93DC
:1032A40041C1E130A0E0FA0739F40E940E1FA3EEF9
:1032B400B1E00E94F41C36C1E230A0E0FA0739F410
:1032C4000E940E1FA3EFB1E00E94F41C2BC1E33057
:1032D400A0E0FA0739F40E940E1FA4E0B2E00E94B5
:1032E400F41C20C1E430A0E0FA0729F40E940E1F68
:1032F4000E941E2117C1E530A0E0FA0739F40E94AC
:103304000E1FA6E2B2E00E94F41C0CC1E730A0E05C
:10331400FA0729F40E940E1F0E941E2103C1E830FF
:10332400A0E0FA0739F40E940E1FA7E3B2E00E945E
:10333400F41CF8C0E930A0E0FA0739F40E940E1F2B
:10334400A6E4B2E00E94F41CEDC0EA30A0E0FA0763
:1033540039F40E940E1FA6E5B2E00E94F41CE2C0FC
:10336400EB30A0E0FA0739F40E940E1FA5E6B2E0A4
:103374000E94F41CD7C0EC30A0E0FA0739F40E9494
:103384000E1FA4E7B2E00E94F41CCCC0ED30A0E014
:10339400FA0739F40E940E1FA2E8B2E00E94F41C5E
:1033A400C1C0EE30A0E0FA0729F40E940E1F0E946B
:1033B4001E21B8C0EF30A0E0FA0789F40E940E1F66
:1033C400AFE8B2E00E94F41CE0910A05E03011F08D
:1033D400E15001C0E0E2EA930E942221A3C0E0315F
:1033E400A0E0FA0739F40E940E1FABE9B2E00E9494
:1033F400F41C98C0E131A0E0FA0789F40E940E1F82
:10340400A8EAB2E00E94F41CE0910B05E03011F050
:10341400E15001C0E0E2EA930E94222183C0E2313C
:10342400A0E0FA0739F40E940E1FA5EBB2E00E9457
:10343400F41C78C0E331A0E0FA0739F40E940E1FAF
:10344400A2ECB2E00E94F41C6DC0E431A0E0FA07E3
:1034540039F40E940E1FA3EDB2E00E94F41C62C076
:10346400E531A0E0FA0739F40E940E1FA2EEB2E0A3
:103474000E94F41C57C0E631A0E0FA0789F40E94C8
:103484000E1FA1EFB2E00E94F41CE0910C05E030A5
:1034940011F0E15001C0E0E2EA930E94222142C00F
:1034A400E731A0E0FA0799F40E940E1FA0E0B3E010
:1034B4000E94F41CE09110050E94751FAE2FE0914C
:1034C4001105EF70EA0FEA930E9422212BC0E83124
:1034D400A0E0FA0739F5E0911605A981BA81EC93C9
:1034E400E0911505A981BA811196EC93E091140538
:1034F400A981BA811296EC93E0911305A981BA814E
:103504001396EC93E0911205A981BA811496EC9379
:10351400A981BA811696E0E2EC93A981BA81179643
:10352400E0E0EC9399C1EB81FC81309781F40E9437
:103534000E1FACE0B3E00E94F41CA0E020FCA1E06C
:10354400A13010F0E2E001C0EAE0E0936505AB8150
:10355400BC81129731F40E940E1FA8E1B3E00E94CF
:103564002621AB81BC81139731F40E940E1FA6E281
:10357400B3E00E942621AB81BC81149731F40E94F0
:103584000E1FA2E3B3E00E942621AB81BC811197F8
:1035940031F40E940E1FAEE3B3E00E942621AB81FA
:1035A400BC81169731F40E940E1FADE4B3E00E9473
:1035B4002621AB81BC81159731F40E940E1FADE525
:1035C400B3E00E942621AB81BC81179731F40E949D
:1035D4000E1FADE6B3E00E942621AB81BC81189793
:1035E40031F40E940E1FACE7B3E00E942621AB81A8
:1035F400BC811A9731F40E940E1FA8E8B3E00E9420
:103604002621AB81BC811B9731F40E940E1FA9E9CE
:10361400B3E00E942621AB81BC811C9731F40E9447
:103624000E1FA7EAB3E00E942621AB81BC81199743
:1036340031F40E940E1FA5EBB3E00E942621AB815A
:10364400BC81A238E0E0BE0731F40E940E1FA4EC56
:10365400B3E00E942C21AB81BC81AF38E0E0BE070F
:1036640031F40E940E1FA1EDB3E00E942C21AB8126
:10367400BC81AC39E0E0BE0731F40E940E1FA0EE1D
:10368400B3E00E942C21AB81BC81A537E0E0BE07EA
:1036940031F40E940E1FAFEEB3E00E942C21AB81E7
:1036A400BC815A9731F40E940E1FAEEFB3E00E9422
:1036B4002C21AB81BC81979731F40E940E1FAAE0A4
:1036C400B4E00E94F41CAB81BC81D49731F40E9415
:1036D4000E1FAAE1B4E00E94F41CAB81BC811D97CB
:1036E40031F40E940E1FAAE2B4E00E942C21AB81A7
:1036F400BC81AE34E0E0BE0731F40E940E1FA5E3A6
:10370400B4E00E942C21AB81BC81A134E0E0BE076F
:1037140091F5A0916705A13031F40E940E1FA3E436
:10372400B4E00E94F41CA0916705A23031F40E9419
:103734000E1FA0E5B4E00E94F41CA0916705A3301D
:1037440031F40E940E1FA0E6B4E00E94F41CA09184
:103754006705A43031F40E940E1FADE6B4E00E9468
:10376400F41CA0916705A53031F40E940E1FAAE74E
:10377400B4E00E94F41CAB81BC81AB35E0E0BE0731
:1037840009F050C0A0916705A13031F40E940E1FCA
:10379400A6E8B4E00E94F41CA0916705A23031F4BD
:1037A4000E940E1FA7E9B4E00E94F41CA0916705D3
:1037B400A33031F40E940E1FA8EAB4E00E94F41C66
:1037C400A0916705A43031F40E940E1FA4EBB4E06D
:1037D4000E94F41CA0916705A53031F40E940E1FCD
:1037E400A5ECB4E00E94F41CA0916705A63031F466
:1037F4000E940E1FA4EDB4E00E94F41CA091670582
:10380400A73031F40E940E1FA1EEB4E00E94F41C14
:10381400A0916705A83031F40E940E1FAEEEB4E00B
:103824000E94F41CAB81BC81A836E0E0BE07A1F481
:10383400A0916705A13031F40E940E1FA6EFB4E0F9
:103844000E94F41CA0916705A23031F40E940E1F5F
:10385400A0E0B5E00E94F41CA981BA810E94011D78
:103864001E2F103130F40E94171FE0E2EC931F5F0B
:10387400F8CF188125960895BA93AA932497AE8118
:10388400A43668F4B0E00E94E01EE05DE983AE81F6
:10389400BB270E94E81EE883E0E0EA8313C0AE8100
:1038A4000E94B41FEA83EE810E94BB1F0E94E01EA7
:1038B400E05DE983EE810E94BB1F0E94E81EE8835D
:1038C400E0E0EB83EC81FD81FA93EA93DE0112964A
:1038D4000E94CF1C27960895BA93AA9360971A93CF
:1038E4000A93FE013296FA93EA93EC89FD89FA93DE
:1038F400EA93A0E10E94261D00E00031C0F40E947A
:1039040032210E943721D001EC930E944421A03E31
:1039140020F00E944421AB3F08F007C00E943221EE
:103924000E943721E054D001EC930F5FE6CF198158
:10393400088164960895959A089595980895BA9380
:10394400AA93A991B991E991F99130962AF4E09555
:10395400F09531966DE26D93E89480E197E20DD095
:1039640088EE93E00AD084E6992707D08AE005D050
:103974006E2F10D066276C9308956627E817F90711
:1039840020F06395E81BF90BC9F7662311F416F0D0
:1039940008956894605D6D930895BA93AA93E9912C
:1039A400F991A991B991CD016D916623E9F7119728
:1039B40061916D936623E1F7FC010895BA93AA938C
:1039C400E991F991A991B9911D900590011421F4FF
:1039D4000020D1F7EE2708951018E1F3E1E008F490
:1039E400E2500895BA93AA93E991F991A991B991F2
:1039F400CD0105900D920020E1F7FC010895BA93E2
:103A0400AA93A991B991EE27FF276D91662311F02E
:103A14003196FBCF0895AA93002411246991E9916A
:103A2400F991A991B991662349F06A951D90059081
:103A3400011421F40020B9F7EE2708951018E1F3DA
:103A4400E1E008F4E2500895AA937991E991F9919B
:103A5400A991B991CD01772351F07A9561916D9334
:103A64006623C9F7772319F07A956D93FBCFFC0190
:103A74000895AA93BA93EA93FA93EFB7EA93089551
:103A8400E091CA05F0E0E658FA4FE0810895EDE4CC
:103A9400F0E0E0934F05F09350050895EAE0E093D9
:103AA4005205E3E5F5E0FA93EA9308950E94F41CC5
:103AB400A1E00C943318E0E0E0935706CC24089579
:103AC400E0911806EF5FE0932006EAEFF0E0E09360
:103AD4005806F0935906E1E0E09321060895EAEFD1
:103AE400F0E0E0935806F09359060895E0E0E0937F
:103AF4002E06E0932F06E1E0F0E0E0933006F09329
:103B040031060895CC24E0E0E0935706DD240C94BC
:103B14007D06E0E0E0930B05E0930A050895EDE4EB
:103B2400F6E0FA93EA93A09157060C947910E1E039
:103B3400E0930605E0E0E09337060895A0912E0691
:103B4400B0912F060895E0933006F093310608955E
:103B5400E0914606F0E03197ED5AFA4F0895E1E618
:103B6400F0E0E0934F05F09350050895E093640569
:103B7400EAE0E09352050895E3E0E0930605E1E00E
:103B8400E0936705E0934606E09347060895E2E074
:103B9400E0930605E1E0E0936705E0934606E093D1
:103BA40047060895E7E5F0E0E0934F05F0935005EC
:103BB4000895E1EAF1E0E0934F05F093500508958C
:103BC400E0E2E0936405E0E1E09352050895E093B8
:103BD4000605E1E0E0936705E0934606E0E0E09344
:103BE4004A06E0934906E1E0E09347060895E1EAD6
:103BF400F3E0E0934F05F09350050895E0935205E8
:103C0400E2E0E5CFE1EEF3E0E0934F05F0935005F9
:103C14000895E0EFF3E0E0934F05F0935005089525
:103C2400E0E4F0E0E0934F05F09350050895E8EFE9
:103C3400F3E0E0934F05F09350050895E8EFF5E0C5
:103C4400E0934F05F09350050895E8EFF7E0E09313
:103C54004F05F09350050895E8EFF9E0E0934F0520
:103C6400F09350050895A09167050C944E18E0E078
:103C7400E0936705E0933706E09306050895AD2DBC
:103C84000E94A610CE2EE3E0E0933406A1E00C944B
:103C94008A11E3E0E0933406A1E00895E5E0E093BF
:103CA4003406A2E00895E0912E06F0912F060895BF
:103CB400E1E0E0933806E0E0E0932E06E0932F067F
:103CC400E0913806F0E03ADFEA0FFB1F3CDFE0E06A
:103CD400E0935706DECFE0913806F0E02FDFEA0FDD
:103CE400FB1F31CFE0932E06F0932F0608950E9418
:103CF40086050E94460C0C94BA10A09167050C949A
:103D04003318E1E0E0934606E0E0E0934A06E093EE
:103D140049060895E1E0E0935205A3E00C944E189F
:103D2400A3E00E94830BE0915305EF700895E6E051
:103D3400E0935205A1E00E944E18E3E5F5E0FA9302
:103D4400EA93E6EBF0E0FA93EA930895E3E5F5E00D
:103D5400FA93EA930895E12FF0E0ED5AFA4F0895AB
:103D6400E0914906EF5FE093490608951E2FA09164
:103D74004906A330089597DFFA93EA93AFECB5E0D0
:103D84000C943619AFEDB5E00C946E1CE0E1E093B1
:103D94005205AC2D0C944E18EFECF5E0FA93EA932F
:103DA4000895AC2DB0E0E4E6F0E00E94802108958F
:103DB400EC2DF0E0E456F040DF010895EAE0F0E095
:103DC4000E9480210895AC2DB0E0F8CFEAE0F0E045
:103DD4000E948821E05D0895E0913006F09131065B
:103DE400FA93EA93AFEDB5E00C943619AFECB5E075
:103DF4000C946E1CAFEDB5E00C945B0BEA81FB8177
:103E0400FA93EA93A0E00E94C718E881F981FA9333
:103E1400EA93A0E40C94C718E981FA81FA93EA932F
:103E24000895A3E2B1E00C94F41CA981BA81EE27B1
:103E3400A10FBE1F0895A02FB0E0AD5ABA4F089548
:103E4400ED5AFA4FE081EC930895E02FF0E0ED5A3B
:103E5400FA4F0895DE011896EE0FFF1FAE0FBF1F35
:103E640008950E94A821EA1BFB0B0895E0935205D4
:103E7400A1E00E944E18A1E00E94830BE09153053B
:103E8400EF700895E0915405EF70AAE0EA02F001A2
:103E9400AE2FE0915505EF70EA0F0895A2E00E945D
:103EA4004E18A2E00E94830BE0915305EF70089531
:103EB400ACE3B1E00E94F41CA3E00C943318A4E03A
:103EC4000E944E18A4E00E94830BE0915305EF700A
:103ED4000895A5E00E944E18A5E00E94830BE0918E
:103EE4005305EF700895EF70AAE0EA02F001089517
:103EF400AAE3B1E00E94F41CA2E00C9433180E94DF
:103F0400830BE09153050895A6E00E943318A7E0BF
:103F14000C943318E1E0E0935205E0E2E093640589
:103F24000895E0935205E0E2E09364050895A091BA
:103F34002406B09125060895E0932406F0932506FF
:103F44000895ED91FD913196FE93EE930895A6E3C5
:103F5400B1E00E94F41CA3E00C943318A4EFB1E088
:103F64000C944C21B0E0E4E6F0E00E948021E05D96
:103F74000895F0E0E456F040DF010895E09352051F
:103F8400E5CE0E94F41CA2E00E943318DFCE0E940A
:103F9400F41CA4E00E943318D9CEE0E3E093530567
:103FA400E0E0E09354050895AAE0EA02F001AE2FA0
:103FB40008950E944E18FE013296FA93EA930895EA
:103FC400E12FF0E03197ED50FA4F0895AB81BC81B9
:103FD400EE27A10FBE1F0C9028CFE0932606F09386
:103FE40027060895E0E0E0938A001B980895A091C5
:103FF4002606B09127060895E0913406ACE0EA9FC6
:10400400F001E058FF4F98CFE1E0F0E0E6CFEFDFBA
:10401400E6E0F0E00E94852130970895E0EDFFEF9F
:10402400E0932A06F0932B060895E0E0E0932A0635
:10403400E0932B060895E0913406F0E03396ACE06B
:10404400B0E00E946821A0E8B0E00BCF70DFAE17AB
:10405400BF070895E0E0E0936905E9E6F5E0FA9327
:10406400EA930895EDE0F5E0FA93EA930895AAEB54
:10407400B5E00C94600BE0E0E0930805A0E00C943C
:10408400D316E0911105E053EA0FCE2ECC2008950B
:10409400E0916B06A0916A06AE170895E0916A0656
:1040A400F0E0E05AF94F08951F5FE12FF0E0E65881
:1040B400FA4F0895EC93E0915D06E0300895E093A3
:1040C4000805F2CFA083E0915D06E0300895A0E5F5
:1040D400A083EACFA3E5A083E7CFA0831F5FA12F2E
:1040E400B0E0A658BA4F0895BF01A0912806B09138
:1040F400290608950E946D21E05DDB01EC93D4CF85
:10410400E05DDB01EC93D0CFDB01EC93CDCF1F5FFF
:10411400A12FB0E0A658BA4F0895A7E4A083C4CF56
:10412400E0E1E0935205A0910A050E944E1800E0D8
:104134000895E02FF0E084CEE72D7394F0E0E65488
:10414400FA4F0895EF70E05DEC93F6CFBB27EAE0F9
:10415400F0E00E948821EF70E05DDB01EC93ECCF8E
:10416400E0E0E0935E06E0935D060895E12FF0E061
:10417400E35FFA4F0895A0910B050C943318E02FD8
:104184000F5FF0E0ED5AFA4FDF01E12F1F5FF0E01F
:10419400E35FFA4FE081EC930895E3B1EF70E3B984
:1041A400E3B1E12BE3B90895AA930E94CE21EC81F7
:1041B400E0935105F0E031979F01E0914F05F091B4
:1041C4005005E050F040BF01E0915205F0E0D90104
:1041D4000E946821E60FF71FE0934D05F0934E050A
:1041E40008950E94EA18AEE00C94EA18AFE10E9428
:1041F400EA18A4E00C94EA18A4E00E94EA18A4E0E7
:104204000E94EA18A4E00C94EA18AA930E940C19DC
:10421400E5B3EF70E5BBE5B3AE2FE881E07F089529
:10422400EA2BE5BB0C942C19E5B3EF70E5BBE5B3C1
:10423400AE2FE881E2950895A5E1B2E00C94F41C58
:10424400AA81BB810C943E1C0E94F41CE2E0E09322
:10425400660508950E94F41CE0916705EA93F0CF87
:10426400E02FF0E0AFE0B0E0FCCDAA89BB89EA0F13
:10427400FB1F0F01E02FF0E0DE011296AE0FBF1F0F
:10428400EC910895E02FF0E0DE011296AE0FBF1F0F
:10429400AC910895109639F088EE93E00197F1F708
:1042A400A8951197C9F70895F195E195F0400895FF
:1042B400FA9FF02DEB9FF00DEA9FE02DF10D08958C
:1042C4006E2F6A9FF0016B9FF00D08952DD0F0DFE3
:1042D4000EF4EADF08950024112490E1AA0FBB1F15
:1042E400001C111C0E1A1F0A18F40E0E1F1E01C00A
:1042F400A1609A9599F7FD01D001089515D0EBDFDF
:104304000EF4D2DF0895E7DFFD010895E894B7FFC6
:1043140004C0A095B09511966894F7FDC5DFDBDF66
:10432400FD010EF4C1DF0895E894F7FF02C0BCDF7D
:104334006894B7FF06C0A095B095119600F8039451
:1043440000FA0895ED91FC91119708951B2EBF2F4B
:10435400F12D1A2EAE2FE12D0895E199FECFFF9392
:10436400FFB7F894AEBBBFBBE09AEDB3FFBFFF91BC
:104374000895E19B02C0A895FCCF9FB7F894AEBB0B
:10438400BFBBE09A8DB3E81719F0EDBBE29AE19A4E
:104394009FBF08955A934A933A932A931A930A9380
:1043A40008955D814C813B812A811981088108959A
:00000001FF
