:0A0000000C9481040C9400000C9491
:10000A0000000C9400000C9400000C9400000C9466
:10001A0000000C9400000C9400000C942D110C9418
:10002A0000000C9400000C9400000C9400000C9446
:10003A0000000C9400000C9476050C9400000C94BB
:10004A00B4040C9430050C941A050C9400000C941A
:10005A0000000C9400000C9400000C9400000C9416
:10006A0000000C9400000C9400000C9400000C9406
:10007A0000000C9400000C9400000C9400000C94F6
:10008A0000001027E80364000A00010000100001C4
:10009A001000010000000000000031323334353610
:1000AA00202020202020202020202000332E352E22
:1000BA0034392E39390052696E677320746F2061A2
:1000CA007070203330200020EEF6ECF6EC20ECE3E2
:1000DA00E9F8E420333020004469616C7320746FBE
:1000EA0020617070203330200020EEFAF7F9F820F2
:1000FA00ECE3E9F8E420333020004661696C2063C0
:10010A006F6E6E656374203330200020ECE020EEC1
:10011A00E7E5E1F820E327203330200043616C6CE7
:10012A002074696D656F7574203330200020F9E9F9
:10013A00E7E420E4F1FAE9EEE4203330200020205D
:10014A0053746172742074616C6B2033302000E444
:10015A00FAE7EC20F9E9E7E420E32720333020002E
:10016A004170702033302020707265737320202014
:10017A002400E3E9F8E420333020ECF6ECF6E5EC71
:10018A002024002020202020202020202020202081
:10019A00202020003033300030303100303939002F
:1001AA0030313000313830003032300031323300F3
:1001BA00313233343536003235323532350030306B
:1001CA003000303035003036300041706172746D65
:1001DA00656E74202331202020200020E3E9F8E412
:1001EA0020EEF1F4F82031202020200041706172C5
:1001FA00746D656E74202332202020200020E3E9EC
:10020A00F8E420EEF1F4F82032202020200041709A
:10021A006172746D656E74202333202020200020C3
:10022A00E3E9F8E420EEF1F4F8203320202020005E
:10023A0020202020202020202020202020202020B4
:10024A00000048656C6C6F2C2055736520202020B7
:10025A00202000546F207365617263682061206EEC
:10026A00616D6500546865206C6174636800697328
:10027A0020756E6C6F636B656400576169742074D6
:10028A00696C6C00656E64206F662064656C6179C8
:10029A0000202020726573657420646F6E652E2EAF
:1002AA002E004E6F20616E737765720053797374F6
:1002BA00656D206572726F7200436F6E6E6563744E
:1002CA00656400506C656173652074616C6B004CE9
:1002DA00696E65206973206275737900506C656177
:1002EA00736520776169740053656E6465642020C4
:1002FA006E6F20230053656E64696E6720646F6EAB
:10030A00652E005265636569766564206E6F2023E9
:10031A00005265636569766520646F6E652E0046D6
:10032A0061696C206F76657220746F2047534D00A7
:10033A004E6F2047534D20756E69742E004E6F2004
:10034A0047534D2063616C6C0053656E646564208D
:10035A006E616D65202300566F6C7461676520615C
:10036A00707020230050524F472E204D454E5500A5
:10037A0041636365737320636F646573004D6173D2
:10038A0074657220436F6465005573657220636FEC
:10039A0064650054656E616E74730052656C6179B0
:1003AA007320746F2041706172742E0054696D69F4
:1003BA006E67732028736563290053657474696EC8
:1003CA0067730046572056657273696F6E730050E3
:1003DA00686F6E65730050686F6E65732067726F21
:1003EA00757020320050686F6E65732067726F7582
:1003FA007020330043616C6C20666F72776172649F
:10040A00696E670050686F6E6520666F7220230000
:10041A0050686F6E65203220666F72202300506824
:10042A006F6E65203320666F7220230043616C6C07
:10043A0020666F72776172642300456E746572205C
:10044A00636F6465202300536574206D617374655E
:10045A007220636F6465005365742075736572203A
:10046A00636F646500456E746572206E616D652008
:10047A00230052656C617920746F2041702E23002D
:10048A0044656C61792054696D6500446F6F722010
:10049A004F70656E696E6700496C6C756D696E6147
:1004AA0074696F6E004469616C2054696D6500540B
:1004BA00616C6B2054696D6500446F6F722049440A
:1004CA002028317E342900536F756E642074797048
:1004DA00652028317E33290052657365742074794A
:1004EA0070652028317E3629004F464620616674A1
:1004FA00657220756E6C6F636B00466F7263652060
:10050A0063616C6C2028307E31290053656E646902
:10051A006E672070686F6E657300476574696E67F1
:10052A002070686F6E6573004465627567206D6F31
:10053A0064652028307E312900576F726B206D6FF9
:10054A0064652028317E3429004C43442046572EC6
:10055A0056455200322D576972652046572E564528
:10056A005200F9ECE5ED2CE4F9FAEEF920E120204D
:10057A0020200020ECE7E9F4E5F920E3E9E9F8E9CD
:10058A00ED2E00F0E020ECF4FAE5E7202020202010
:10059A00202020002020202020E0FA20E4E3ECFAAA
:1005AA002121212000F0E020E4EEFAEF2020202093
:1005BA00202020202000202020ECF4FAE9E7FA206D
:1005CA00E3ECFA2E2E2E00EEFAE1F6F220E0E9F440
:1005DA00E5F12E2E2E00202020E0E9EF20EEF2F0A9
:1005EA00E42020202000EEEEEEE9F820E4E3E52DF9
:1005FA00E2E9E3E900202020E9F920EEF2F0E42024
:10060A00202020002020F0E020ECE3E1F82E2E2E1E
:10061A00200020E4F7E520E1F9E9EEE5F92000F908
:10062A00E5E3F820EEF1F4F8202300F9E9E3E5F830
:10063A0020E4F1FAE9E9ED00E4FAF7E1EC20EEF161
:10064A00F4F8202300F7E1ECE420E4F1FAE9E9EE1A
:10065A00E400E4F2E1F8FA20F9E9E7E420F0EBF942
:10066A00ECE400E7E9E9E2EF20ECE020EEE7E5E17F
:10067A00F800E7E9E9E2EF20ECE020EEE7E9E9E259
:10068A0000F9E5E3F820F9ED20E3E9F8E420230096
:10069A00EEFAE720E1E3E9F8E4202300EEF1E3F8DB
:1006AA0020F9EEE5FA0020FAF4F8E9E820F8E0F992
:1006BA00E90020F8F9E9EEFA20E4F7E5E3E9ED00CC
:1006CA002020F7E5E320E2E9F9E420002020F7E51D
:1006DA00E320ECF7E5E7200020F9EEE5FA20E4E371
:1006EA00E9E9F8E9ED2000F0E9FAE5E120ECF4E9BE
:1006FA0020E3E9F8E5FA0020E6EEF0E9ED2029F931
:10070A00F0E9E5FA282000E4E2E3F8E5FA20F4F05B
:10071A00EC20E3ECFA00E2E9F8F1FA20FAE5EBF072
:10072A00E400E8ECF4E5F0E9ED20ECF4E920E3E993
:10073A00F8E400EEF1F4F8E920E8ECF4E5EF203211
:10074A0000EEF1F4F8E920E8ECF4E5EF203300EEEE
:10075A00F6E120E4F2E1F8FA20F9E9E7E400E8EC4E
:10076A00F4E5EF20ECE3E9F8E42000E8ECF4E5EF47
:10077A00203220ECE3E9F8E42000E8ECF4E5EF208D
:10078A003320ECE3E9F8E42000E4F2E1F8FA20F996
:10079A00E9E7E420E327200020E4EBF0F120F7E585
:1007AA00E320230020E4EBF0F120F7E5E320E2E97F
:1007BA00F9E4200020E4EBF0F120F7E5E320ECF780
:1007CA00E5E7200020E4EBF0F120F9ED202300F02A
:1007DA00E9FAE5E120ECE3E9F8E42023002020E649
:1007EA00EEEF20E4EEFAF0E4200020E6EEEF20F44B
:1007FA00FAE9E7FA20E3ECFA20002020E6EEEF20FF
:10080A00FAE0E5F8E420002020E6EEEF20ECEEF234
:10081A00F0E420002020E6EEEF20F9E9E7E42000EA
:10082A00E6E9E4E5E920E3ECFA203120F2E32034BA
:10083A0000E4E2E3F8FA20F6ECE9EC20302C312C63
:10084A003200E0E9F4E5F120EBECECE92000F0E914
:10085A00FAE5F720ECE0E7F820F4FAE9E7E400EE3D
:10086A00F6E120E7E8E9F4FA20F9E9E7E400ECF92F
:10087A00E3F820E8ECF4E5F0E9ED00ECF7E1EC2030
:10088A00E8ECF4E5F0E9ED00EEF6E120E8F1E80045
:10089A00E0E5F4EF20F4F2E5ECFA20F4F0EC00E203
:1008AA00E9F8F1FA20F4F0EC00E2E9F8F1FA20EEC6
:1008BA00EEE9F80001002D4E414E00494E46000077
:1008CA00010002009E0004000400A00001000005CF
:1008DA00B50001000105B50001000205B5000100DF
:1008EA000305B50001000405B50001000505B500C2
:1008FA0001001507BE080000F894EE27ECBBF1E0F2
:10090A00F5BFE5BFE0936C00F8E1F1BDE1BD8DE014
:10091A00A2E0BB27ED938A95E9F780E090E1A0E099
:10092A00B1E0ED930197E9F7EAECF8E0859195914A
:10093A00009761F0A591B59105901590BF01F0015E
:10094A0005900D920197E1F7FB01F0CF8BBFEFEF16
:10095A00EDBFE0E1EEBFC0E0D5E00C9480050E9457
:10096A005D231A93AF93BF93EF93FF93AFB7AF9300
:10097A0088241CB1E1E0E2BFE7B7E160E7BF44FCCD
:10098A0040C01030B1F1E0917A05F0E0E25FFA4F31
:10099A001083E0910E05F0E03196A0917A05B0E05F
:1009AA00AE17BF0794F0E7B7EE7FE7BF992011F4BF
:1009BA00E1E09E2E191511F4689401C0E89421F81B
:1009CA00E0E14E2AE7EF4E2207C0A0917A05A13056
:1009DA0018F0E8E04E2A910EE0917A05EF5FE09375
:1009EA007A05E0917A05F0E0E25FFA4FA0E0A08391
:1009FA0008C0E7EE4E22E0E0E0937A05E89421F899
:100A0A009924E0917A05F0E03396E134A0E0FA0700
:100A1A001CF0E0E0E0937A05AF91AFBFFF91EF9150
:100A2A00BF91AF9119910C946F05EA93EFB7EA93CE
:100A3A00AF93BF93EF93FF93AFB7AF9356981A98BC
:100A4A009924EDEF4E228824AF91AFBFFF91EF9129
:100A5A00BF91AF914CC00E945D23AF93BF93EF93B8
:100A6A00FF93AFB7AF93E091CB05E03029F1E09166
:100A7A007B05F0E03196A091CB05B0E0EA17FB07C1
:100A8A001CF45598569A17C0E0917B05A091CB05A6
:100A9A00EA1730F4992011F4E1E09E2E9CB806C0C2
:100AAA000E9464239E0E0E946423ECB9E091CB0558
:100ABA00EF5FE093CB0508C00E946423ECB9E09194
:100ACA00CB05EF5FE093CB05AF91AFBFFF91EF91FD
:100ADA00BF91AF91E991EFBFF991E991B991A991CC
:100AEA001895EA93EFB7EA93E7B7EE7FE7BFE99184
:100AFA00EFBFE9911895EFE1E1BDEFE0E1BDE0E07C
:100B0A00EBBBEFEFEABBE0E8E8BBE1E2E7BBE0E022
:100B1A00E5BBEFEFE4BBE0EDE2BB909AECE7E1BBAB
:100B2A008898E7E0E3B9EEEFE2B9E0E0E09362002B
:100B3A00EFEFE0936100ECE9E0936500E4E0E09315
:100B4A006400E7E0E3BFE0E0E0BFE1E0E2BFE0E04D
:100B5A00E1BFEFBDEEBDEDBDECBDEBBDEABDE9BD4C
:100B6A00E8BDE0937900E0937800E4BDEAEFE3BDE5
:100B7A00EBE0E5BDE3E4E0938B00E0E0E0938A007C
:100B8A00E0938900E0938800E1E0E0938700E0E0E9
:100B9A00E0938600E0938500E0938400E09383006D
:100BAA00E0938200E0936A00EABFE9BFE7B7E06832
:100BBA00E7BFE7B7E469E7BFE7B7EE7FE7BFE0E083
:100BCA00E0937D00EBB9E8EDEAB9E6E0E093950041
:100BDA00E9E1E9B9E0E0E0939000E0939B00E0935B
:100BEA009A00E0939D00E0939900E0939800E0E872
:100BFA00E8B9E0E0E0BD78940E943E1A0E94B41B76
:100C0A000E946B23A091BF06A23378F4809906C094
:100C1A00E091C606EF5FE093C60601C006C0E09108
:100C2A00BF06EF5FE093BF06EDCFA091BF06A233E8
:100C3A0010F0E1E001C0E0E0E09306050E946B23BA
:100C4A000E94860FE0E0E0930805689422F8E89491
:100C5A0021F8E3EBE093D606E7B7EE7FE7BF5598B6
:100C6A0038D2E8E3E0930407C09AA8950E94E914F1
:100C7A00E0916300E87051F4A091BF06A33328F411
:100C8A00E091BF06EF5FE093BF0603C0E0E0E093A8
:100C9A00BF06A091BF06A23371F40E9471230E947D
:100CAA007823A4EAB0E00E948023E3E0E093DD0623
:100CBA00A4E00E94D214E0916300E07111F08799D8
:100CCA0004C0A0910705A03009F00AC0A091C60689
:100CDA00A33328F4E091C606EF5FE093C60603C08B
:100CEA00E0E0E093C606A091C606A23339F40E945A
:100CFA0085230E948A23E4E0E093DD06E091C8069A
:100D0A00E03021F4E091C906E03009F41BC00E94EA
:100D1A008523E0E0E093C906E091C106E03049F09E
:100D2A000E94BF22E091C106EF5FE093CA060E94CB
:100D3A009923E1E0E093CB06E4E0E093DD06ABE043
:100D4A000E944217E091CA06E03021F4E091CB06F6
:100D5A00E03009F412C0E0910705E03011F40E9476
:100D6A00A023E0E0E093CB060E94C122E091C406F2
:100D7A00E03019F0A2E00E944217E091BE06E0308E
:100D8A0031F0E0E0E093BE06E3E0E093DD06E091B7
:100D9A00DF06E03029F0E0E0E093DF060E94AC23B2
:100DAA00BB20E1F4E5E0BE2E0E94F31AE093DB06D5
:100DBA00E030A1F0E091C206E03021F0EF5FE0936D
:100DCA00C706A89A9AD2E091CB06E03021F4E091C6
:100DDA000705E03009F002C00E94992341FC02C0D5
:100DEA000E94CE1590D525FE05C0E89425F8E8E7BF
:100DFA00E093050724FE40C0E89424F8E091070533
:100E0A00E03039F0E0910507E03019F0E150E09365
:100E1A000507E0910707E03061F1E150E093070729
:100E2A00E03031F5E0910607E030D9F0E150E09387
:100E3A000607E03091F4A0910807A03021F4A091B0
:100E4A000905A03009F004C0A6E00E94421704C0B8
:100E5A000E943E1A0E94B32303C0A6E00E944217D2
:100E6A0007C00E943E1AA1E00E944A1A0E94B323B8
:100E7A0003C0A6E00E944217A0910407A23020F006
:100E8A00A0910705A03009F019C0E0910007E030F1
:100E9A0091F00E94B923E43670F40E94B923CE2E51
:100EAA00AC2D0E94B014E03029F0AC2D0E94B01491
:100EBA00E43608F0CC24E0E0E0930007E09105076F
:100ECA00E03021F4A0910705A13008F403C015D041
:100EDA0014D006D1A0910307AE3720F0A0910705E0
:100EEA00A23008F404C0E0E0E093030734D023FE04
:100EFA00FECFE89423F8B9CEFFCFE091E006E030C8
:100F0A0039F4E0E0E0930705E89420F8E9D022C03C
:100F1A000E94C123E091E006F0E0EE51F94FE08132
:100F2A00E093E1060E94C823EDE0F0E00E94E82782
:100F3A000E94CD23E091E106F0E0A091D906B0919C
:100F4A00DA06AE1BBF0BA093D706B093D806E0E033
:100F5A00E09368050895A0910705A53009F408955E
:100F6A00E091F006E03049F00E94D223E081E0935C
:100F7A00F1060E94D223AEE204C00E94D223A091BD
:100F8A00F106A083A091F006E1E0EA27E093F006DB
:100F9A000895E0E0E09303070E94C8235A9739F4C2
:100FAA000E94D923E3E60E94E0230E94E6230E94DE
:100FBA00C823979739F40E947123E1E00E94E02345
:100FCA000E94F1230E94C823D49739F40E94FC237B
:100FDA00E1E00E94E0230E94F1230E94C8231D97AA
:100FEA0041F40E940324E3E60E940A24E4E00E94FA
:100FFA0010240E94C823AE34E0E0BE0741F40E94E8
:10100A002024E3E6E0936505E2E00E9427240E949B
:10101A00C823A134E0E0BE0741F40E942B24E5E096
:10102A00E0936505E3E00E9427240E94C823AB35BC
:10103A00E0E0BE0741F40E943224E9E0E09365054E
:10104A00E1E00E9427240E94C823A836E0E0BE07F8
:10105A0059F40E943924E2E0E0936505E6E0E09362
:10106A005305E5E00E9410240E94C823A238E0E05C
:10107A00BE0721F40E9440240E94E6230E94C8234E
:10108A00AF38E0E0BE0721F40E9440240E94E62324
:10109A000E94C823AC39E0E0BE0721F40E94402434
:1010AA000E94E6230E94C823A537E0E0BE0751F458
:1010BA000E944824E0E0E0936505E1E0E0935305EF
:1010CA000E94F123E0916805E03011F00E944F245C
:1010DA0008950E94A0230E9453240E94860F089517
:1010EA000E94A0230E945324E0E0E0930407E093C7
:1010FA000A05E093BD0608951A93F2DFA091DB0674
:10110A00A53169F4E0E0E093BD06D394E091BC0612
:10111A00ED1510F4E1E0DE2E0E945B24EDC0A091F3
:10112A00DB06A73169F4E0E0E093BD06E1E0ED15E6
:10113A0018F0D090BC0601C0DA940E945B24DCC08F
:10114A00A091DB06A63109F046C0E0910007E03025
:10115A0041F00E94B923E43620F40E94B923E0301A
:10116A0011F4CC2081F1CC2019F40E94B923CE2E9F
:10117A00E1E0F0E0E0930107F0930207E89424F835
:10118A00E0E0E093DE060E943E1AAC2D0E94B01405
:10119A00E13028F0AC2D0E94B014E43608F00DC0FE
:1011AA00A1E00E944217E1E0E093BE06E091D0067A
:1011BA00E093BD060E94652403C0CC240E946A24E1
:1011CA000E94D21404C00E946A240E94D214E0E051
:1011DA00E093000791C0A091DB06A83109F053C043
:1011EA00E0E0E093BD060E94D8101E2F0E946F24F3
:1011FA00309709F040C0113039F40E9485230E94CB
:10120A008A230E94652434C0123041F4A091C80692
:10121A00A03021F4A091CA06A03009F00BC00E94A8
:10122A003E1A689425F8E89420F80E94C1230E9487
:10123A0074241EC0133041F4A091C806A03021F4D2
:10124A00A091CA06A03009F00EC00E943E1A689406
:10125A0025F8E1E0E093070520F8E0E0E093E006F6
:10126A000E94742405C0E0E0E09300070E946A240B
:10127A000E94D21407C0E0E0E09300070E946A24AB
:10128A000E94D21439C0A091DB06A13010F0AB3015
:10129A0008F01FC00E9465240E94D214CC24DD24C9
:1012AA00A091DB06AA3019F4E0E0E093DB06E091B6
:1012BA000007F0E0EA50F94FA091DB06A083A09165
:1012CA000007AA3028F4E0910007EF5FE0930007D7
:1012DA0013C0A091DB06A13179F4E0E0E093BD06EA
:1012EA00E0930007E1E0E093DF060E9465240E9494
:1012FA00D214A2E00E94421704C3E0910705E0302D
:10130A0029F4E3E0E093DE06F7DE17C1A0910705B2
:10131A00A13009F05CC0E8E7E0930507A091DB067D
:10132A00A53181F4E0916605A091E106EA1711F46E
:10133A00E1E003C0E091E106EF5FE093E1060E947D
:10134A00872444C0A091DB06A73179F4A091E10675
:10135A00A13019F4E091660503C0E091E106E1507D
:10136A00E093E1060E94872431C0A091DB06A631F2
:10137A0039F5E0916705F0E03197A091E006B0E019
:10138A00AE17BF07DCF4E091E006F0E0EE51F94F4A
:10139A00A091E106A083E091E006EF5FE093E0060A
:1013AA00E1E0E093E106A091D906B091DA06EDE01A
:1013BA000E94DD270E948E240E948724EADD06C04F
:1013CA00A091DB06A13111F498DD9BD5B0C0E09164
:1013DA00F006E03009F4BFDDE8E7E0930507A091E5
:1013EA00DB06A831F9F40E94C8231D9791F4E09115
:1013FA00EF06EF5FE093EF06E0E0E093F206E0919C
:10140A005305A091EF06EA1718F4E1E0E093EF061E
:10141A0008C0A0910705A33021F4E1E0E093EF06AC
:10142A008DD085C0A091DB06A531C1F4A091070536
:10143A00A53011F00E949324E0916505A0916805FA
:10144A00AE1720F4E0916805EF5F01C0E1E0E09398
:10145A0068050E944F240E94972469C0A091DB0668
:10146A00A731B9F4A0910705A53011F00E94932481
:10147A00A0916805A23020F0E0916805E15002C011
:10148A00E0916505E09368050E9497240E944F2425
:10149A004EC0A091DB06A131A9F5A091EF06A230BA
:1014AA0048F0E091EF06E150E093EF06E0E0E093C8
:1014BA00F20627C00E9493240E9432240E94A0248C
:1014CA000E94A624E093F50618DDE091F506E030C7
:1014DA0019F013DD16D515C00E9439240E94AD24D7
:1014EA00A6E00E942F23E03061F00E94BC24E6EBC4
:1014FA00F0E0FA93EA93A6E00E942F23A1E00E946B
:10150A00781B15C0A091DB06A63189F00E94C8237A
:10151A001D9711F44FD00BC0A0910705A53009F40F
:10152A000895A091EF06A13009F408D017D0E3E09E
:10153A00E093DD06A1E00E94D21408951A93E09187
:10154A00EF06E1501E2FE09153051E1730F40E945A
:10155A00C124A0E2A0831F5FF6CFD3C1A091DB060E
:10156A00A13010F0AB3008F024C0A091DB06AA30FD
:10157A0019F4E0E0E093DB060E94D223DF01E09158
:10158A00DB06E05DEC93E091EF06EF5FE093EF0698
:10159A00E0915305A091EF06EA1740F4E1E0E093E9
:1015AA00EF06A0910705A43009F4C8DFE0E0E09354
:1015BA00F20608951A93E0E0E093F306A091DB06A1
:1015CA00A13010F0AB3008F09CC1A091DB06AA3024
:1015DA0019F4E0E0E093DB06E091DB06A091DC067B
:1015EA00EA1711F0E1E003C0E091F206EF5FE09341
:1015FA00F206E091DB06E093DC06A091F206A43045
:10160A00C9F4A091DB06A730A9F0A93021F0A09176
:10161A000605A13069F0A091DB06A43041F0A5309F
:10162A0031F0A93021F0A0910605A03009F002C0DE
:10163A000E94C624A091F206A63018F0E1E0E093D9
:10164A00F206A091F206A53029F4E091DB06E05DEE
:10165A001E2F54C1E091F306E03009F036C1A09183
:10166A00DB06A130B1F4A091F206A13009F417E229
:10167A00A091F206A23009F41DE2A091F206A3306D
:10168A0009F41EE2A091F206A33011F40E94C624C6
:10169A001CC1A091DB06A230B9F4A0910605A130C5
:1016AA0021F4E091F206E05C07C0E0910605E03023
:1016BA0021F4E091F206EE511E2FA091F206A3301A
:1016CA0011F40E94C62401C1A091DB06A330B9F42B
:1016DA00A0910605A13021F4E091F206ED5B07C066
:1016EA00E0910605E03021F4E091F206E1521E2F66
:1016FA00A091F206A33011F40E94C624E6C0A0917C
:10170A00DB06A43031F5A0910605A13049F4E09139
:10171A00F206EA5B0E94CC2411F40E94C62418C087
:10172A00E0910605E030A1F4A091F206A13009F497
:10173A0010EFA091F206A23009F41FEEA091F20672
:10174A00A33009F41EEEA091F206A43009F41DEEAE
:10175A00BCC0A091DB06A53031F5A0910605A130E9
:10176A0049F4E091F206E75B0E94CC2411F40E944E
:10177A00C62418C0E0910605E030A1F4A091F20653
:10178A00A13009F419EEA091F206A23009F41BEE79
:10179A00A091F206A33009F41AEEA091F206A43041
:1017AA0009F41CEE92C0A091DB06A630B9F4A09110
:1017BA000605A13021F4E091F206E45B07C0E0914E
:1017CA000605E03021F4E091F206EB511E2FA091BC
:1017DA00F206A33011F40E94C62477C0A091DB065A
:1017EA00A730B1F4A0910605A13029F4E091F206E0
:1017FA00E15B1E2F0CC0E0910605E03041F4E09158
:10180A00F206E9500E94CC2411F40E94C6245DC05D
:10181A00A091DB06A83019F5A0910605A13029F49C
:10182A00E091F206ED5A1E2F13C0E0910605E03052
:10183A0079F4A091F206A13009F416EFA091F2060C
:10184A00A23009F415EFA091F206A33009F417EFBC
:10185A00A091F206A33011F40E94C62436C0A091CA
:10186A00DB06A93011F5A0910605A13029F4E09113
:10187A00F206EA5A1E2F18C0E0910605E030A1F4DC
:10188A00A091F206A13009F411EFA091F206A2305C
:10189A0009F412EFA091F206A33009F414EFA09113
:1018AA00F206A43009F413EF10C0E091F206E35CEB
:1018BA006E2FE091DB06A3E0EA02F001E60F1E2F8D
:1018CA00A091F306A23009F4105EE091DB06E03045
:1018DA00A9F4A091F206A13009F410E2A091F2064F
:1018EA00A23009F418E2A091F206A33009F419E231
:1018FA00A091F206A33011F40E94C6240E94D223BA
:10190A001083199108950E94D124A0910705A0304F
:10191A0011F0A13009F40AC0A0EEB5E010D2A091EE
:10192A000705A43011F40E94D824F6C1CC2021F076
:10193A00E091BD06E03009F4D1C00E9403240E9460
:10194A00DC24E0910A05F0E03097A1F4A0910605A5
:10195A00A13029F40E94E224A0ECB0E008C0E09192
:10196A000605E03031F40E94E224A1EDB0E00E94C5
:10197A0016235FC0E130A0E0FA07A1F4A0910605A2
:10198A00A13029F40E94E224A2EEB0E008C0E0915E
:10199A000605E03031F40E94E224A3EFB0E00E9491
:1019AA00162347C0E430A0E0FA07A1F4A091060587
:1019BA00A13029F40E94E224A4E0B1E008C0E09139
:1019CA000605E03031F40E94E224A5E1B1E00E946C
:1019DA0016232FC0E230A0E0FA07A1F4A091060571
:1019EA00A13029F40E94E224A6E2B1E008C0E09105
:1019FA000605E03031F40E94E224A7E3B1E00E9438
:101A0A00162317C0E530A0E0FA0799F4A09106055D
:101A1A00A13029F40E94E224A8E4B1E008C0E091D0
:101A2A000605E03031F40E94E224A9E5B1E00E9403
:101A3A0016230E94E724309719F1A0910605A130D8
:101A4A0079F40E94E724E05DE093DD050E94EE242C
:101A5A000E94F6240E940328E05DE093DF050FC090
:101A6A00E0910605E03059F40E94E724E05DE09336
:101A7A00DF050E94EE240E94F6240E94FC242AC05C
:101A8A000E940225309799F0A0910605A13029F409
:101A9A000E9402250E94092509C0E0910605E0304E
:101AAA0029F40E940225E05D0E94162513C0A09128
:101ABA000605A13041F4E0E2E093DD050E941D2510
:101ACA00E093DE0507C0E0910605E03019F4E0E294
:101ADA000E941625A0EEB5E032D11AC1CC2021F021
:101AEA00E0910705E03009F07CC00E9403240E94BF
:101AFA00DC24A0EDB5E023D1A0910605A13039F48C
:101B0A00E0EEF5E0FA93EA93AAE6B1E00AC0E091C2
:101B1A000605E03041F4E0EEF5E0FA93EA93ACE72B
:101B2A00B1E00E941623E3E0E093EF050E94E72468
:101B3A00309741F1A0910605A130A1F40E94E72453
:101B4A00E05DE093E4050E94EE240E94FB27E05D3D
:101B5A00E093E5050E94EE240E940328E05DE093ED
:101B6A00E6050FC0E0910605E03059F40E94E7242B
:101B7A00E05DE093DF050E94EE240E94F6240E94B5
:101B8A00FC242EC00E9402253097B9F0A0910605C8
:101B9A00A13051F40E940225E05DE093E4050E9421
:101BAA001D25E093E50508C0E0910605E03021F423
:101BBA000E9402250E94092513C0A0910605A130A2
:101BCA0041F4E0E2E093E4050E941D25E093E50577
:101BDA0007C0E0910605E03019F4E0E20E941625FC
:101BEA0097C0E0910805E03009F490C0F0E0E130D8
:101BFA00A0E0FA0749F4E9E0F0E00E948E24EAE066
:101C0A00F0E00E94CD2375C0E230A0E0FA0749F463
:101C1A00EDE0F0E00E948E24EEE0F0E00E94CD2399
:101C2A0068C0E630A0E0FA0749F4E9E0F0E00E9473
:101C3A008E24E4E1F0E00E94CD235BC0E730A0E00F
:101C4A00FA0749F4E3E1F0E00E948E24E5E1F0E0CE
:101C5A000E94CD234EC0E430A0E0FA0791F4EFE0F1
:101C6A00F0E00E948E24E0910B05E03019F0EEE0DE
:101C7A00F0E002C0E0E1F0E0E093D906F093DA0682
:101C8A0038C0E530A0E0FA0791F4E1E1F0E00E9403
:101C9A008E24E0910C05E03019F0EEE0F0E002C08D
:101CAA00E2E1F0E0E093D906F093DA0622C0E830E8
:101CBA00A0E0FA0791F4E6E1F0E00E948E24E091B8
:101CCA000D05E03019F0EEE0F0E002C0E0E1F0E0EE
:101CDA00E093D906F093DA060CC0E930A0E0FA07DF
:101CEA0041F4E7E1F0E00E948E24E8E1F0E00E948E
:101CFA00CD23E0E0E09308050E94D1240E94252527
:101D0A000E94D824E4E0E093DE0606C00E9425255E
:101D1A00A0EEB5E00E9476220E942F250E94E224BE
:101D2A000E9433250895BA93AA930E9437258EC23A
:101D3A00BA93AA93552011F00E94372587C2BA9305
:101D4A00AA931A930E9445250E944A2510E0E09121
:101D5A0053051E1728F40E94C124E081E03009F4DB
:101D6A0008C00E944E250E94C124E081EC931F5FA7
:101D7A00EECF188128C0AA931A930A9311E0E09132
:101D8A005305F0E03197EC5AFA4FA081A03211F0D6
:101D9A00A030A1F4E0915305E1500E2F013048F034
:101DAA000E945425E02FF0E031970E9459250150F6
:101DBA00F5CFE0E3E09354051F5FE1CFAA810E94CB
:101DCA00781B1981088123960895BA93AA93A2973A
:101DDA00E0E0E883E9830E94472810E000E020E081
:101DEA0011E0E0916505A12FB0E0A7FDBFEFF0E09B
:101DFA00EA17FB070CF481C0A895A12F0E94901B3B
:101E0A00A12FB9DF30E020E000E0E0915305A02FD8
:101E1A00B0E0A7FDBFEFF0E0AE17BF0754F40E9491
:101E2A005E25E081E03029F00E945E25A081A03283
:101E3A0009F41AC0A8950E945E25A081A03311F466
:101E4A00303009F001C00EC031E0E22FF0E00E940C
:101E5A0063250E945E25E081F0E0EF70F070ED935B
:101E6A00FC932F5F0F5FD1CF4FEF5FEF203011F060
:101E7A0040E050E0E1E0F0E0EE83FF8301E020176C
:101E8A00F4F0A895A22FB0E0A7FDBFEFE02FF0E095
:101E9A00E7FDFFEF0E946A250E9463250E941F2822
:101EAA00AE81BF810E94D5274E0F5F1FAE81BF81D1
:101EBA00EAE00E94DD27EE83FF830F5FE0CFEAA509
:101ECA00FBA54E175F071CF44AA55BA509C0E8A548
:101EDA00F9A5E417F5071CF448A559A501C00BC0DC
:101EEA005A934A93A4E5B5E00E94C322A12F43DF87
:101EFA00A12F0E94781B1F5F74CF0E944E28AC96B8
:101F0A0008951A93A89599D2A8950E942B24E3E0E4
:101F1A000E946F2579F4E0915505EF70E43050F492
:101F2A00E0915505EF70E33021F4E0915505EF702B
:101F3A0009F406C00E94BC24AEE9B1E00E948023E5
:101F4A000E947B25E093C0060E94872521F0E0E3EA
:101F5A00E09354050FC0E0915505E07021F0E0913F
:101F6A005605E07009F409C00E94BC24A2EAB1E057
:101F7A000E941623A2E00E94781B0E947B25E09310
:101F8A00C106A3E00E94901B0E94A62421F00E9491
:101F9A00BC240E9491250E947B25E093C206A09151
:101FAA00C206A33609F4A89AE091C206E03009F401
:101FBA00A8980E94982529F00E94BC24A6EAB1E0BC
:101FCA0008C0E0915505EF7049F40E94BC24AAEAC2
:101FDA00B1E00E941623A4E00E94781BE091550507
:101FEA00F0E0EF70F070AAE0B0E00E94E327DF01B2
:101FFA00E0915605F0E0EF70F070EA0FFB1FE093F6
:10200A00D006F093D1060E94A225E23060F4E130B6
:10201A0049F4E0915505EF70E83021F4E091560556
:10202A00EF7009F405C00E94BC24AEEAB1E00EC00C
:10203A00E0915405EF7029F4E0915505EF70E23014
:10204A0008F009C00E94BC24A2EBB1E00E9416234A
:10205A00A5E00E94781BE0915405EF70A4E6EA021D
:10206A00602DE09155050E94AC25A62FAE0FE09198
:10207A005605EF70EA0FE093C3060E943224E1E0AE
:10208A000E946F25E093F406A091F406A53010F49F
:10209A00E03009F406C0E091F406E150E093F4065A
:1020AA0006C00E94BC24A4EAB1E00E9480230E94D8
:1020BA008725AE2EE2E0EA1530F4E1E0AE2E0E946A
:1020CA00BC240E94B1250E949825E093C406A091E1
:1020DA00C406A23058F0E1E3E0935405A4E00E945C
:1020EA00781BE0915405EF70E093C406A9E00E94C2
:1020FA00901BA9E040DEE0915405E770E093D50615
:10210A00A091D506A03011F0A53048F0E1E0E093A7
:10211A00D506E1E3E0935405A9E00E94781B0E94EA
:10212A00A225E093C506A091C506A23058F0E1E3C6
:10213A00E0935405A5E00E94781BE0915405EF70E6
:10214A00E093C5060E942024E2E00E94B825E1E05F
:10215A00F0E0FA93EA93A3E6B0E037DE11E0143632
:10216A0048F4A12F0E94B014F0E0EC50FA4F10830B
:10217A001F5FF5CFE0E0E0930705A5E00E94421754
:10218A00A4E00E9442173DD30E94A0230E94D124BA
:10219A000E9425250E942F250E94D8240E94E2240D
:1021AA000E943325EBC20E944928E0E03E2F1E2FF1
:1021BA00EAE0E09353050E947123E0910007E030C2
:1021CA00B1F13F5FA32F0E94901B00E020E0E09155
:1021DA0000072E1710F4003009F013C0E22FF0E0C8
:1021EA00EC5AFA4FA081E22FF0E0EA50F94FE08171
:1021FA00F0E0F096B0E0EA17FB0709F001E02F5F84
:10220A00E6CF003071F411E0E22FF0E0EC5AFA4F19
:10221A00A081A13220F0A0910007AA3008F001C0E5
:10222A0010E0363610F4103009F001C0CACF313050
:10223A0011F4103009F401C012E0323011F41030F8
:10224A0009F401C013E0E12F0E9450282496089552
:10225A000A921A92FA926A937A938A939A93AA930F
:10226A00BA93EA93FA93EFB7EA93689423F8E09162
:10227A00D206F091D3060E94BE25EA0FFB1F0E94E8
:10228A00C325BB2009F0BA94E091CE06F091CF069F
:10229A00309771F0AEECB6E0ED91FD913197FE9377
:1022AA00EE93E091CE06F091CF06309709F486D3EB
:1022BA00A0910705A23060F0A0910107B091020732
:1022CA00E6E5F0E00E940028309711F40E94B0077A
:1022DA00A1E0B7E00E94C825A0910107B0910207CA
:1022EA00AA3FE0E0BE0708F49AC0E0910107F09126
:1022FA000207EA5FF040E0930107F093020768944F
:10230A0024F8E091BD06E03011F1E0E0E093DE064A
:10231A00E091BD06E150E093BD06E091D006F09150
:10232A00D1063197A091BD06B0E0EA17FB0741F448
:10233A00E4E0E093DD06E2E0EA1511F4A5E02DD32E
:10234A00E091BD06E03019F4E1E0E093DF06E091A8
:10235A00C706E03021F0A091C706A33608F008C0EE
:10236A00E091C706E150E093C706E03009F4A89867
:10237A00E091C806E03091F0E0E0E093DE06E4E0A8
:10238A00F0E00E948E24E5E0F0E00E94CD23E09187
:10239A00C806E150E093C806A1E0FFD2E091CA0660
:1023AA00E03091F0E2E0F0E00E948E24E3E0F0E019
:1023BA000E94CD23E091CA06E150E093CA06E2E00A
:1023CA00EA1511F4A3E0E9D2E091DE06E03041F02B
:1023DA00E0910407E03021F4E0910705E03009F0CC
:1023EA000AC0E091DE06E150E093DE06E03019F41F
:1023FA00E1E0E093DF06E0910007E03019F0A0E0A9
:10240A00CA1609F004C0E0910705E03009F004C0DB
:10241A00E0910407EF5F01C0E0E0E0930407E9916F
:10242A00EFBFF991E991B991A9919991899179911E
:10243A006991F9901990099018951A930E94392474
:10244A000E94AD24A09153050E942F23E03029F564
:10245A000E9432240E94A024E0915405EF70E09378
:10246A00F506E030D1F4A0915405AF3FB1F010E089
:10247A00143698F4E0916300E87029F00E94BC24B5
:10248A000E94CE257BC1B79B05C00E94BC240E9436
:10249A00CE2574C100001F5FEBCFE7E0F0E00E9499
:1024AA008E24E8E0F0E00E94CD230E94D1240E940D
:1024BA0025250E942F250E94D8240E94E2240E94EA
:1024CA003325A8950E94D525A895A091F506A13097
:1024DA00E1F0A230E1F1A33009F46EC0A091F50653
:1024EA00A43009F493C0A091F506A53021F4E0E0E8
:1024FA00E093F5060AC0A091F506A63009F4E1C0FA
:10250A00A091F506A73009F4E0C00E94D923EAE0B9
:10251A000E94B8250E94651B0E94BC24A6EBB1E06C
:10252A000E948023E091F506E03009F0EFC00E9496
:10253A0071230E947823AAEBB1E00E9480230E94B3
:10254A00FC230E947823A1ECB1E00E9480230E9420
:10255A002024E2E0E093530511E0143640F5A895F3
:10256A00143668F4A12F0E94D925E05DE093540542
:10257A00A12F0E94DF25E0935505E0E211C0A12FAB
:10258A000E94E625E09354050E94ED250E94FB2750
:10259A00E05DE09355050E94ED250E940328E05D69
:1025AA00E0935605A12F0E94781B1F5FD6CFE091BA
:1025BA00F506E03009F0AAC0A8950E942B24E3E0B2
:1025CA000E94F525A8ECB1E00E9480230E94BC2459
:1025DA00ACECB1E00E941623A2E00E94F8250E940A
:1025EA0091250E94BC24A2EBB1E00E941623A4E02C
:1025FA000E94F825A0EDB1E00E941623A5E00E94F2
:10260A00781BE091F506E03009F080C0A8950E9499
:10261A000324E0E10E94B8250E94651BA0910605EB
:10262A00A13029F40E94BC24A4EDB1E008C0E091D5
:10263A000605E03031F40E94BC24A5EEB1E00E9408
:10264A001623A1E00E94781BA0910605A13029F467
:10265A000E94BC24A6EFB1E008C0E0910605E03074
:10266A0031F40E94BC24A7E0B2E00E941623A2E043
:10267A000E94781BA0910605A13029F40E94BC246F
:10268A00A8E1B2E008C0E0910605E03031F40E940A
:10269A00BC24A9E2B2E00E941623A3E00E94781BA0
:1026AA0014E0143650F4A8950E94BC240E944A25CE
:1026BA00A12F0E94781B1F5FF4CFE091F506E0304E
:1026CA0029F5E091F506E03009F5A8950E94322433
:1026DA00E1E00E94F525A4EAB1E00E9480230E946D
:1026EA00BC240E94B1250E94BC24A4EAB1E00E9445
:1026FA001623A4E00E94F825A4EAB1E00E9416235A
:10270A00A5E00E94781BA9E00E94781BA8950E9468
:10271A003224E1E00E94F525A0EAB1E00E941623E6
:10272A00A6E00E94781BA7E00E94781BA3E00E9403
:10273A00781B0E943924E6E0E0935305A1E00E9449
:10274A00901B0E94BC24A6EBB0E00E940223E0305A
:10275A0079F00E94BC24A6EBB0E00E948023E0E35B
:10276A00E0935405E0E0E0935505A2E00E94781B4F
:10277A00E0910705E03011F4A3E07FD319910895A1
:10278A00AA93A881A13021F4A981BA81EC91AEC0A3
:10279A00A881A23051F4A981BA81EC910E94FB254B
:1027AA00E981FA81E181EA0FA1C0A881A33099F4F5
:1027BA00A981BA81EC91A4E6EA02602DE981FA8145
:1027CA00E181AAE0EA02F001A62FAE0FE981FA81BF
:1027DA00E281EA0F8BC0E0E089C0AA931A9310E065
:1027EA00133668F4E12FF0E0E85AF94FE081A98145
:1027FA00EA1719F4E12FEF5FCDC01F5FF1CFE0E0D8
:10280A00C9C060971A930A93E9E1F0E00E948E2406
:10281A00E4E0F0E00E94CD230E94D1240E94252505
:10282A000E942F250E94D8240E94E2240E94332568
:10283A00E0E0E093BC060E940324E0E1E093530544
:10284A0011E0143608F03DC0A895A12F0E94002679
:10285A000E94BC24A0E167D0DE01129636D0E03097
:10286A00F1F40E940726A1E0A08301E00436B0F447
:10287A00A895A02F0E940026A4E5B5E039D0E03043
:10288A0059F0A4E5B5E021D0E03031F40E940726E2
:10289A00DF01EC91EF5FEC930F5FE8CF04C00E9479
:1028AA000726A0E0A0830E940726A081E091BC062B
:1028BA00EA1728F40E940726E081E093BC061F5F0E
:1028CA00C0CF1981088162960895BA93AA931A9380
:1028DA0010E0103148F40E944E25AC91A03211F05C
:1028EA00E0E003C01F5FF5CFE1E018812396089569
:1028FA00BA93AA931A9310E0103190F40E940D260D
:10290A00EC91E01518F4E1E0188123C00E940D262D
:10291A00EC910E1618F4E0E018811BC01F5FECCF93
:10292A00E0E0188116C0AA93E881E03091F0E15006
:10293A00E883AB81BC81F0E0EA0FFB1F0F01E8815D
:10294A00A981BA81F0E0AE0FBF1FEC91D001EC93E0
:10295A00EBCF25960895AA931A930E942024E2E0C9
:10296A00E0935305A9810E94901BA9810E94C00E81
:10297A00E09154050E94AC25AE2FE0915505EF7009
:10298A00EA0F1E2F113010F0143608F002C0E12FA2
:10299A0001C0E0E0188122960895AA93AA2059F06E
:1029AA00E881E093D406E8EEF3E00E941426EAE117
:1029BA00E0938A0001C002D021960895E0E0E093F6
:1029CA00D4060E9419260895E091D406E03009F44D
:1029DA00DFC0F0E0E130A0E0FA0761F40E941E26B1
:1029EA00A53DE3E0BE0718F00E94232602C00E941C
:1029FA002B26C6C0E230A0E0FA0771F40E941E2618
:102A0A00A939E3E0BE0728F0E0E8F2E00E94C32516
:102A1A0002C00E942B26B4C0E330A0E0FA0771F48A
:102A2A000E941E26AD3BE2E0BE0728F0E0E8F0E097
:102A3A000E94C32502C00E942B26A2C0E430A0E057
:102A4A00FA0711F50E941E26A73EE3E0BE0718F01A
:102A5A000E94232618C00E941E26AD3AE3E0BE0754
:102A6A0080F00E942E2619F40E94352602C00E9488
:102A7A003C260E9442260E944D2610F40E942326DC
:102A8A0002C00E942B267CC0E530A0E0FA0709F0BC
:102A9A0077C00E941E26A73EE3E0BE0718F00E94F8
:102AAA0023266EC00E941E26AD3AE3E0BE0780F0E0
:102ABA000E942E2619F40E94352602C00E943C2646
:102ACA000E9442260E944D2610F40E94232658C0D6
:102ADA000E941E26A934E3E0BE0718F00E941926B8
:102AEA004FC00E941E26A734E3E0BE0718F00E94DA
:102AFA00232646C00E941E26AD30E3E0BE0798F0AA
:102B0A00EAE1E0938A000E942E2619F40E943526F3
:102B1A0002C00E943C260E9442260E944D2610F4C2
:102B2A000E9423262DC00E941E26A93AE2E0BE0773
:102B3A0018F00E94192624C00E941E26A73AE2E035
:102B4A00BE0718F00E9423261BC00E941E26AD361F
:102B5A00E2E0BE0798F0EAE1E0938A000E942E269E
:102B6A0019F40E94352602C00E943C260E94422681
:102B7A000E944D2610F40E94232602C00E942B2692
:102B8A00E091CD06E0938700E091CC06E0938600C1
:102B9A00089544FE68C1EFEE4E2221FE04C0E09182
:102BAA000705E03009F05BC1E2E0E515B1F4E0E0C9
:102BBA00E093BB050E9451260E945926A0E10E947B
:102BCA004823EAE6F5E0FA93EA930E945E260E9419
:102BDA00D5250E9451260E945E26E89421F8E0E05D
:102BEA00E093DE06E7B7EE7FE7BFE0E0E093080593
:102BFA00E0910F05F0E0E033A0E0FA0761F4A0915C
:102C0A000905A13021F0A23011F0A53019F42BD416
:102C1A00A6E033D124C1E035A0E0FA0709F064C088
:102C2A00A0911005A734E9F5A0910905A630C9F5C8
:102C3A000E946226A0911105A63429F40E94B323AA
:102C4A00A6E023D42EC0E0910C05E030A1F02CD4EC
:102C5A000AD4E0910C05EF5FE0930C05A5E015D4CA
:102C6A00A0910C05A13220F0E0E0E0930C0536C0FB
:102C7A00A9E003D116C0E0910B05E03091F0F3D33F
:102C8A00E0910B05EF5FE0930B05A4E0FED3A09162
:102C9A000B05A13220F0E0E0E0930B051FC0A7E08E
:102CAA00ECD0A0911005AE34F1F4A0910905A7303B
:102CBA00D1F40E946226E0910D05E030A1F0D3D351
:102CCA00E0910D05EF5FE0930D05A8E0DED3A0913A
:102CDA000D05A13230F0E0E0E0930D05A6E0CDD07D
:102CEA000895AAE0CAD0BBC0E934A0E0FA0759F5B2
:102CFA00A0E0B2D3A0911005A635C9F4A0910905A8
:102D0A00A33019F4E0E0E0930905A3E0BED30E94E2
:102D1A003924E6E00E94F525E1E1F5E0FA93EA9329
:102D2A00A6E00E944823A2E00E94781B0BC0A09153
:102D3A001005AD3439F4552029F0E0E0E093090597
:102D4A00A9E0A3D38CC0E334A0E0FA0709F045C098
:102D5A00A0910905A43019F4E0E0E0930905E09197
:102D6A001105E0530E94FB250E94682611F4E0E257
:102D7A00CE2EEC2DF0E0EC50FA4FC080A091100559
:102D8A00A13441F4E1E0E0930A05E091D006E09332
:102D9A00BD0622C0A0911005A53439F4E2E0E09303
:102DAA000A05E5E0E093BD0617C0A0911005A63418
:102DBA0039F4E4E0E0930A05E5E0E093BD060CC0CF
:102DCA00A0911005A23411F4A2E005C0A09110054B
:102DDA00A73411F4A7E059D340C0E435A0E0FA07BC
:102DEA00E1F4A0910905A43019F4E0E0E0930905A3
:102DFA00E0911105E0530E94FB250E94682611F418
:102E0A00E0E2CE2EEC2DF0E0EC50FA4FC080E091DB
:102E1A00C306E093BD06E5E01EC0E535A0E0FA076B
:102E2A00C9F4E091C806E03021F4E091CA06E03026
:102E3A0009F00FC00E94AC230E949923E091C006BA
:102E4A00EF5FE093C806E1E0E093C9060E946524BB
:102E5A00A4DD03C0E7E0E0930A05A0E0FDD2E0E0CC
:102E6A00E0937A0509C00E946F2620F0A091070717
:102E7A00A03009F001C0FDD20895AA931A930A93CB
:102E8A0010E000E0E0910705E03009F0E1C2E091CE
:102E9A000707E03011F441FE13C0A0911407A930CE
:102EAA0018F4AA81A03009F40AC0E0911407EF5F70
:102EBA00E0931407F0E0E75FF84FAA81A083C8C245
:102ECA00AA81A630F1F4E0910905E03039F00E94B8
:102EDA007526E081EA83E89426F812C00E946F26DC
:102EEA0010F0C7D2B5C2E0E0E0930607E0911307FD
:102EFA00EF5FE0931307F0E0E75FF84FE081EA83C2
:102F0A0011C0E0910905E03049F40E946F2628F0CB
:102F1A00B0D20E947526AA81A08304C00E94752699
:102F2A00E081EA83EA81E093080710E0F0E0309755
:102F3A00B1F410E0143040F4E12FF0E0E458FA4F15
:102F4A00A0E3A0831F5FF6CFE0910607E03019F4F3
:102F5A00E1E0E0930607E4E0E093070702C2E1300C
:102F6A00A0E0FA07E1F5CC2011F483D271C2E4E0C3
:102F7A00E0930905E0E0E0930A050E947B26A3E4BA
:102F8A00A0830E944824E1E0E0935305AC2D0E94FF
:102F9A00901B0E947B26A0915405A0830E947B2649
:102FAA00FF93EF930E9481260E94FB27E05DAF9179
:102FBA00BF91EC930E947B26FF93EF930E94812698
:102FCA000E940328E05DAF91BF910E94892619F4FF
:102FDA00E1E0E0930607E9E0E0930707C2C1E230C7
:102FEA00A0E0FA07D1F4E5E00E948E26A3E4A083CC
:102FFA000E947B26A5E4A0830E947B26A0E3A083EF
:10300A000E947B26A0E30E94912619F4E1E0E09356
:10301A000607E4E0E0930707A4C1E330A0E0FA075B
:10302A0091F4E2E00E948E260E9496260E9499263A
:10303A00A2E50E94912619F4E1E0E0930607E9E08F
:10304A00E09307078EC1E430A0E0FA0709F05BC0FD
:10305A00E2E00E948E260E9496260E949926A0E50A
:10306A00A0830E949C26E091F406EF5CEC930E94F8
:10307A007B260E94A226E4E6F0E00E94A8260E948F
:10308A00A226EAE0F0E00E94A8260E94A226EAE030
:10309A00F0E00E9400280E94AE26BF01A091C3065C
:1030AA000E94E625DB01EC930E947B26BF01A091DA
:1030BA00C3060E94D9250E94B2260E94AE26BF01ED
:1030CA00A091C3060E94DF25DB01EC930E949C2697
:1030DA00E091D506EF70E05DEC930E949C26E091AA
:1030EA00C506E170E05DEC930E949C26EA2DE37030
:1030FA00E05D0E94892619F4E1E0E0930607E4E026
:10310A00E09307072EC1E530A0E0FA0791F4E3E067
:10311A000E948E26A9E4A0830E947B26A6E50E942F
:10312A00912619F4E1E0E0930607E9E0E093070746
:10313A0018C1EB30A0E0FA0791F4E3E00E948E2672
:10314A00A5E5A0830E947B26A1E30E94912619F49B
:10315A00E1E0E0930607E4E0E093070702C1E73005
:10316A00A0E0FA0709F089C0E0910B05E03019F4F4
:10317A00E0E2E0930B05E6E00E948E260E94962686
:10318A000E94B8260E949926BF01A0910B050E94B1
:10319A00D9250E94AE26BF01A0910B050E94DF250A
:1031AA00DB01EC930E9448240E94BB260E9454250E
:1031BA00EC91E03041F0FD01A081A03221F0E091D4
:1031CA0053050E1708F006C00E949C260E94C426CA
:1031DA000F5FECCF0E947B260E94C7260E94BB2667
:1031EA000E945425EC91E03021F0FD01A081A0322B
:1031FA0009F404C0E09153050E1708F006C00E94B6
:10320A009C260E94C4260F5FEBCF0E947B260E9459
:10321A00C7260E94BB260E945425EC91E03021F07B
:10322A00FD01A081A03209F404C0E09153050E17F4
:10323A0008F006C00E949C260E94C4260F5FEBCFAE
:10324A000E947B260E94C726E1E0E0935305A091E5
:10325A000B050E94901B0E947B26A0915405A08317
:10326A000E947B26ACE70E94912619F4E1E0E093E4
:10327A000607E9E0E093070774C0E930A0E0FA071F
:10328A0039F5E0910C05E03019F4E0E2E0930B0522
:10329A00E6E00E948E260E9496260E94B8260E9488
:1032AA00B826BF01A0910C050E94D9250E94AE261E
:1032BA00BF01A0910C050E94DF25DB010E9489262F
:1032CA0019F4E1E0E0930607E9E0E093070749C053
:1032DA00EA30A0E0FA0709F044C0E0910D05E030B9
:1032EA0019F4E0E2E0930D05E7E00E948E260E94C1
:1032FA009626AEE4A0830E947B260E949926BF01EF
:10330A00A0910D050E94D9250E94AE26BF01A09169
:10331A000D050E94DF25DB01EC930E940324E0E106
:10332A00E0935305A0910D050E94901B00E00E94B6
:10333A005E25E081E03021F0E09153050E1708F098
:10334A0006C00E949C260E94C4260F5FF0CFE0911F
:10335A000607E03019F4E1E0E0930607E4E0E093C1
:10336A00070710937B05E12FF0E0E458FA4FA0E03D
:10337A00A0837894E2E0E51509F05FC0E0E0E0930D
:10338A000E05E093BB05EBEBF5E0FA93EA93EBE766
:10339A00F5E0FA93EA93A6E00E944823ABEBB5E086
:1033AA000E9423237E2EE6E0E71508F47E2E0E9473
:1033BA00CA26AEE2A0830E94CA26DF01E09109056F
:1033CA000E94D026DF01E09113070E94D026DF0178
:1033DA00E09114070E94D026BF01A09109070E941C
:1033EA00D426BF01A0910A07B0E0EAE0F0E00E940B
:1033FA000328EF70E05DDB01EC930E94CA26BF014F
:10340A00A09108070E94D426AEE2A0830E94CA2691
:10341A00A0E0A0830E94CA26A0E0A0830E945926A9
:10342A000E945E26AAEFB0E00E94C727E0E0E09380
:10343A00BB050E9459260E945E26E0E0E093CB0578
:10344A0099241A9AE2E04E2AE0E0ECB95698559A85
:10345A001981088123960895AA930E94DE26A881DD
:10346A000CDD0C94491CE0E0E09309050E94DE267D
:10347A000895E0E0E09308074424E0931407E093FA
:10348A001307F1DF609009050895AA93E0E0E0933D
:10349A000A05E093DE06E093BD060E948523E881D3
:1034AA00E09308050C94491C1A930A9316E000E06D
:1034BA000E9448240E94E4260E944A250E945E2512
:1034CA00A0E0A083E2E0E51591F4E0E0F5E0FA93EC
:1034DA00EA93AEE0B5E00E949D0E0E94D525E1E098
:1034EA00F5E0FA93EA93A2E0B5E00E949D0E0E94ED
:1034FA00EC26A081AC3721F0E09153050E1708F0B5
:10350A0009C00E9454250E94EC26E081EC931F5FBB
:10351A000F5FEDCF0E945E25A0E0A083E2E0E515F3
:10352A0081F40E94BC24A3E0B5E00E949D0E0E9493
:10353A00D525E4E0F5E0FA93EA93A5E0B5E00E9428
:10354A009D0E0E94EC26A081AC3709F41F5F0E94F1
:10355A00F1260E94E4260E944A250E945E25A0E0E8
:10356A00A0830E94EC26A081AC3721F0E09153059C
:10357A000E1708F003C00E94F626F3CF0E945E25BC
:10358A00A0E0A0830E94EC26A081AC3709F41F5F5B
:10359A000E94F1260E94E4260E944A250E945E2586
:1035AA00A0E0A0830E94EC26A081AC3721F0E09134
:1035BA0053050E1708F003C00E94F626F3CF0E94A7
:1035CA005E25A0E0A0830E94EC26A081AC3709F416
:1035DA001F5FA0910C050E94781B6FC01A9310916F
:1035EA0069050DD0E0936905103011F4E11719F45B
:1035FA00E0E00C94691CE09169050C94691C1A932B
:10360A000A93C69810E10E94042700E00430E8F506
:10361A0014FF0CC0B29B02C0E1E04FC0B39B02C0D2
:10362A00E2E04BC0B49B02C0E3E047C015FF0CC008
:10363A00B29B02C0E4E041C0B39B02C0E5E03DC0DA
:10364A00B49B02C0E6E039C016FF0CC0B29B02C0B0
:10365A00E7E033C0B39B02C0E8E02FC0B49B02C0CE
:10366A00E9E02BC017FF0CC0B29B02C0E8E125C0FD
:10367A00B39B02C0EAE021C0B49B02C0E1E11DC0D5
:10368A00110F0E9404270F5FC1CFE3B1EF70E3B9B6
:10369A00C69A00E00E3118F400000F5FFBCFB29B10
:1036AA0002C0E5E10AC0B39B02C0E7E106C0B49BD1
:1036BA0002C0E6E102C0C698E0E0099119910895B6
:1036CA001A930E94BC24AAE3B2E00E94162311E0D6
:1036DA00E0916505E11728F0A895A12F04D01F5F96
:1036EA00F7CF0C94691C0E940B2710E0E091530558
:1036FA001E1710F4103108F00DC0AEE4B5E00E94B8
:10370A00C8253197DF010E94C124E0810E94362832
:10371A001F5FECCF72C00E940B270E94BC24AAE351
:10372A00B2E00E94162310E0E09153051E1710F430
:10373A00103108F00FC00E94C1240F01AEE4B5E0B9
:10374A000E94C8253197DF010E942A28D001EC93F4
:10375A001F5FEACF0E94C124A0E0A0834EC0A0E36D
:10376A0087D0A0E385D0A0E383D0A0E381D0A0E2F4
:10377A007FD0A8E276D0A0E174D0ACE072D0A6E007
:10378A0070D0A1E06ED001D00895AA98AB98A8E4B1
:10379A0068D0A4E00E9428270E942D270E94332780
:1037AA00A0E052D00E943327A4E04ED0AFE10E949D
:1037BA002827A4E049D0A0E047D0A4E045D0A4E05F
:1037CA000E942827A1E140D00E942D27A0E03CD0EA
:1037DA00A0E03AD00895AA930E94492830E0EC81EB
:1037EA003E1758F400E010E00436E0E01E0718F433
:1037FA000F5F1F4FF9CF3F5FF2CF0E9450282596E7
:10380A000895AA931A93A981A0582BD010E01031D9
:10381A0040F4AA81BB81EE27A10FBE1FEC91E030D4
:10382A0009F409C0AA81BB81EE27A10FBE1FAC9182
:10383A000BD01F5FECCF103120F4A0E205D01F5F40
:10384A00FACF1881249608950E943C27E4600E94CA
:10385A0047270E944B27E07FE4600E944727AA98E7
:10386A0013C00E943C270E9447270E944B2709C089
:10387A00AA93A5E0B0DFE5B3EF70E5BBE5B3AE2FE1
:10388A00E881E07F0E944727219608951A9310E85D
:10389A00AF9AEFE7E4BBAB9AAA9817FF0FC0AF9AAB
:1038AA00000000000000A99A00000000000013B305
:1038BA0017FF13B3AF98A99809D0EFCFEFEFE4BB86
:1038CA00E5B3EF70E5BBAB981991089500000000CD
:1038DA00A99A000000000000A998000000000895BD
:1038EA00BA93AA931A93A0910605A13009F0C9C206
:1038FA00E0910705E03009F024C1EB81FC813097A3
:10390A0039F40E944525ACE4B2E00E94532718C15D
:10391A00E130A0E0FA0739F40E944525ADE5B2E0AE
:10392A000E9416230DC1E230A0E0FA0739F40E9482
:10393A004525AEE6B2E00E94162302C1E330A0E0BC
:10394A00FA0739F40E944525A8E7B2E00E94162337
:10395A00F7C0E430A0E0FA0739F40E944525A4E84C
:10396A00B2E00E941623ECC0E530A0E0FA0739F471
:10397A000E944525AEE8B2E00E941623E1C0E73076
:10398A00A0E0FA0739F40E944525A4E8B2E00E94B3
:10399A001623D6C0E830A0E0FA0739F40E9445257C
:1039AA00ABE9B2E00E941623CBC0E930A0E0FA07E7
:1039BA0039F40E944525ACEAB2E00E941623C0C041
:1039CA00EA30A0E0FA0739F40E944525A6EBB2E0F6
:1039DA000E941623B5C0EB30A0E0FA0739F40E9422
:1039EA004525A3ECB2E00E941623AAC0EC30A0E061
:1039FA00FA0739F40E944525ADECB2E00E9416237D
:103A0A009FC0ED30A0E0FA0739F40E944525A9EDE0
:103A1A00B2E00E94162394C0EE30A0E0FA0739F40F
:103A2A000E944525A6EEB2E00E94162389C0EF3017
:103A3A00A0E0FA0789F40E944525A2EFB2E00E94AD
:103A4A001623E0910B05E03011F0E15001C0E0E2ED
:103A5A00EA930E94602774C0E031A0E0FA0739F4C3
:103A6A000E944525AFEFB2E00E94162369C0E131FA
:103A7A00A0E0FA0789F40E944525ADE0B3E00E9470
:103A8A001623E0910C05E03011F0E15001C0E0E2AC
:103A9A00EA930E94602754C0E231A0E0FA0739F4A1
:103AAA000E944525ABE1B3E00E94162349C0E331E9
:103ABA00A0E0FA0739F40E944525A9E2B3E00E9482
:103ACA0016233EC0E431A0E0FA0739F40E944525E6
:103ADA00AAE3B3E00E94162333C0E531A0E0FA0757
:103AEA0039F40E944525A7E4B3E00E94162328C0B2
:103AFA00E631A0E0FA0789F40E944525A3E5B3E080
:103B0A000E941623E0910D05E03011F0E15001C04A
:103B1A00E0E2EA930E94602713C0E731A0E0FA07C7
:103B2A0049F40E944525A1E6B3E00E9464270E9459
:103B3A00692706C0E831A0E0FA0711F40E9470274D
:103B4A009FC1EB81FC81309761F40E944525AFE665
:103B5A00B3E00E94982710F0E2E001C0E8E0E093A9
:103B6A006605AB81BC81129731F40E944525AAE70C
:103B7A00B3E00E949F27AB81BC81139731F40E9466
:103B8A004525A7E8B3E00E949F27AB81BC81149723
:103B9A0031F40E944525A3E9B3E00E949F27AB8137
:103BAA00BC81119731F40E944525ADE9B3E00E942A
:103BBA009F27AB81BC81169731F40E944525A5EA5F
:103BCA00B3E00E949F27AB81BC81159731F40E9414
:103BDA004525A6EBB3E00E949F27AB81BC811797CE
:103BEA0031F40E944525A4ECB3E00E949F27AB81E3
:103BFA00BC81189731F40E944525ADECB3E00E94D0
:103C0A009F27AB81BC811A9731F40E944525A9ED03
:103C1A00B3E00E949F27AB81BC811B9731F40E94BD
:103C2A004525A0EEB3E00E949F27AB81BC811C977B
:103C3A0031F40E944525AFEEB3E00E949F27AB8185
:103C4A00BC81199731F40E944525AEEFB3E00E947A
:103C5A009F27AB81BC81A238E0E0BE0731F40E9405
:103C6A004525AEE0B4E00E94A527AB81BC81AF3800
:103C7A00E0E0BE0731F40E944525AAE1B4E00E94C3
:103C8A00A527AB81BC81AC39E0E0BE0731F40E94C4
:103C9A004525A8E2B4E00E94A527AB81BC81A537DF
:103CAA00E0E0BE0731F40E944525A6E3B4E00E9495
:103CBA00A527AB81BC815A9731F40E944525A4E41B
:103CCA00B4E00E94A527AB81BC81979731F40E948A
:103CDA004525A1E5B4E00E941623AB81BC81D497A7
:103CEA0031F40E944525A1E6B4E00E941623AB8177
:103CFA00BC811D9731F40E944525AFE6B4E00E94CD
:103D0A00A527AB81BC81AE34E0E0BE0731F40E9446
:103D1A004525ACE7B4E00E94A527AB81BC81A1345C
:103D2A00E0E0BE0791F5A0916805A13031F40E9448
:103D3A004525AAE8B4E00E941623A0916805A2309E
:103D4A0031F40E944525A5E9B4E00E941623A0910A
:103D5A006805A33031F40E944525A2EAB4E00E9426
:103D6A001623A0916805A43031F40E944525AFEAD4
:103D7A00B4E00E941623A0916805A53031F40E9490
:103D8A004525A9EBB4E00E941623AB81BC81AB3573
:103D9A00E0E0BE0709F05AC0A0916805A13031F4ED
:103DAA000E944525A3ECB4E00E941623A091680561
:103DBA00A23031F40E944525A1EDB4E00E941623F9
:103DCA00A0916805A33031F40E944525A2EEB4E023
:103DDA000E941623A0916805A43031F40E9445255B
:103DEA00A3EFB4E00E941623A0916805A53031F430
:103DFA000E944525A4E0B5E00E941623A09168051B
:103E0A00A63031F40E944525A5E1B5E00E941623AB
:103E1A00A0916805A73031F40E944525A4E2B5E0D7
:103E2A000E941623A0916805A83031F40E94452506
:103E3A00A2E3B5E00E941623A0916805A83031F4E8
:103E4A000E944525A3E4B5E00E941623AB81BC81FC
:103E5A00A836E0E0BE07A1F4A0916805A13031F4CC
:103E6A000E944525A3E5B5E00E941623A0916805A6
:103E7A00A23031F40E944525AEE5B5E00E94162332
:103E8A00D2C2E0910605E03009F0CDC2E091070503
:103E9A00E03009F029C1EB81FC81309739F40E94A6
:103EAA004525ACE6B5E00E9453271DC1E130A0E0EC
:103EBA00FA0739F40E944525ADE7B5E00E941623BA
:103ECA0012C1E230A0E0FA0739F40E944525ADE8B4
:103EDA00B5E00E94162307C1E330A0E0FA0739F4DF
:103EEA000E944525AEE9B5E00E941623FCC0E430E5
:103EFA00A0E0FA0729F40E9445250E94AB27F3C0E7
:103F0A00E530A0E0FA0739F40E944525A0ECB5E0B7
:103F1A000E941623E8C0E730A0E0FA0729F40E94BD
:103F2A0045250E94AB27DFC0E830A0E0FA0739F444
:103F3A000E944525A1EDB5E00E941623D4C0E930C0
:103F4A00A0E0FA0739F40E944525A0EEB5E00E94E8
:103F5A001623C9C0EA30A0E0FA0739F40E944525C1
:103F6A00A0EFB5E00E941623BEC0EB30A0E0FA072E
:103F7A0039F40E944525AFEFB5E00E941623B3C07D
:103F8A00EC30A0E0FA0739F40E944525AEE0B6E02D
:103F9A000E941623A8C0ED30A0E0FA0739F40E9467
:103FAA004525ACE1B6E00E9416239DC0EE30A0E0A4
:103FBA00FA0729F40E9445250E94AB2794C0EF30E6
:103FCA00A0E0FA0789F40E944525A9E2B6E00E941A
:103FDA001623E0910B05E03011F0E15001C0E0E258
:103FEA00EA930E9460277FC0E031A0E0FA0739F423
:103FFA000E944525A5E3B6E00E94162374C0E1316C
:10400A00A0E0FA0789F40E944525A2E4B6E00E94DE
:10401A001623E0910C05E03011F0E15001C0E0E216
:10402A00EA930E9460275FC0E231A0E0FA0739F400
:10403A000E944525AFE4B6E00E94162354C0E3313E
:10404A00A0E0FA0739F40E944525ACE5B6E00E94E3
:10405A00162349C0E431A0E0FA0739F40E94452545
:10406A00ADE6B6E00E9416233EC0E531A0E0FA07AD
:10407A0039F40E944525ACE7B6E00E94162333C006
:10408A00E631A0E0FA0789F40E944525ABE8B6E0DC
:10409A000E941623E0910D05E03011F0E15001C0B5
:1040AA00E0E2EA930E9460271EC0E731A0E0FA0727
:1040BA0049F40E944525AAE9B6E00E9464270E94B5
:1040CA00692711C0E831A0E0FA0719F40E947027A5
:1040DA000AC0E931A0E0FA0731F40E944525A6EAB0
:1040EA00B6E00E9416239FC1EB81FC81309761F4F0
:1040FA000E944525A0EBB6E00E94982710F0E2E066
:10410A0001C0E8E0E0936605AB81BC81129731F407
:10411A000E944525ACEBB6E00E949F27AB81BC818B
:10412A00139731F40E944525AAECB6E00E949F2716
:10413A00AB81BC81149731F40E944525A6EDB6E007
:10414A000E949F27AB81BC81119731F40E944525BB
:10415A00A2EEB6E00E949F27AB81BC81169731F48C
:10416A000E944525A1EFB6E00E949F27AB81BC8142
:10417A00159731F40E944525A1E0B7E00E949F27D8
:10418A00AB81BC81179731F40E944525A1E1B7E0C4
:10419A000E949F27AB81BC81189731F40E94452564
:1041AA00A0E2B7E00E949F27AB81BC811A9731F445
:1041BA000E944525ACE2B7E00E949F27AB81BC81F3
:1041CA001B9731F40E944525ADE3B7E00E949F2773
:1041DA00AB81BC811C9731F40E944525ABE4B7E062
:1041EA000E949F27AB81BC81199731F40E94452513
:1041FA00A9E5B7E00E949F27AB81BC81A238E0E025
:10420A00BE0731F40E944525A8E6B7E00E94A5271B
:10421A00AB81BC81AF38E0E0BE0731F40E9445258E
:10422A00A5E7B7E00E94A527AB81BC81AC39E0E0E5
:10423A00BE0731F40E944525A4E8B7E00E94A527ED
:10424A00AB81BC81A537E0E0BE0731F40E94452569
:10425A00A3E9B7E00E94A527AB81BC815A9731F444
:10426A000E944525A2EAB7E00E94A527AB81BC813E
:10427A00979731F40E944525AEEAB7E00E941623CB
:10428A00AB81BC81D49731F40E944525AEEBB7E0EF
:10429A000E941623AB81BC811D9731F40E944525EB
:1042AA00AEECB7E00E94A527AB81BC81AE34E0E05A
:1042BA00BE0731F40E944525A9EDB7E00E94A52763
:1042CA00AB81BC81A134E0E0BE0791F5A0916805FD
:1042DA00A13031F40E944525A7EEB7E00E941623CB
:1042EA00A0916805A23031F40E944525A4EFB7E0F9
:1042FA000E941623A0916805A33031F40E94452537
:10430A00A4E0B8E00E941623A0916805A43031F415
:10431A000E944525A1E1B8E00E941623A0916805F4
:10432A00A53031F40E944525AEE1B8E00E9416237B
:10433A00AB81BC81AB35E0E0BE0709F05AC0A09161
:10434A006805A13031F40E944525AAE2B8E00E942E
:10435A001623A0916805A23031F40E944525ABE3EB
:10436A00B8E00E941623A0916805A33031F40E9498
:10437A004525ACE4B8E00E941623A0916805A43054
:10438A0031F40E944525A8E5B8E00E941623A091C1
:10439A006805A53031F40E944525A9E6B8E00E94D7
:1043AA001623A0916805A63031F40E944525A8E796
:1043BA00B8E00E941623A0916805A73031F40E9444
:1043CA004525A5E8B8E00E941623A0916805A83003
:1043DA0031F40E944525A2E9B8E00E941623A09173
:1043EA006805A93031F40E944525AAE9B8E00E947F
:1043FA001623AB81BC81A836E0E0BE07A1F4A091E8
:10440A006805A13031F40E944525A9EAB8E00E9466
:10441A001623A0916805A23031F40E944525A3EB2A
:10442A00B8E00E941623A981BA810E9423231E2F75
:10443A00103130F40E944E25E0E2EC931F5FF8CF72
:10444A00188125960895BA93AA932497A0910605F0
:10445A00A130E9F4AE81A43658F40E94D925E05D72
:10446A00E883AE810E94DF25E983E0E0EA830EC09B
:10447A00AE810E94E625E8830E94AF270E94B427F6
:10448A000E94B226E05DEA83E0E0EB8320C0E0917F
:10449A000605E03021F5AE81A43658F40E94D925EC
:1044AA00E05DE983AE810E94DF25E883E0E0EA83EC
:1044BA000EC0AE810E94E625EA830E94AF270E94C1
:1044CA00B4270E94B226E05DE883E0E0EB83EC814A
:1044DA00FD81FA93EA93DE0112960E94F122279651
:1044EA000895BA93AA931A930A93A0910605A13044
:1044FA00E9F100E00830D0F50E94BC271C91E02FBA
:10450A00AA81BB81F0E0EA0FFB1FBF010E94C2270C
:10451A00AA81BB81AE0FBF1FEC91DB01EC930E9415
:10452A00C227AA81BB81EA0FFB1F10830E94BC2706
:10453A00AC91A03E28F00E94BC27AC91AB3F08F09A
:10454A0005C00E94BC27EC91E054EC93103E10F099
:10455A001B3F08F009C00E94C227AA81BB81AE0F87
:10456A00BF1FEC91E054EC930F5FC4CF198108810F
:10457A0024960895959A089595980895BA93AA93BA
:10458A00A991B991E991F99130962AF4E095F095BB
:10459A0031966DE26D93E89480E197E20DD088EE52
:1045AA0093E00AD084E6992707D08AE005D06E2FD7
:1045BA0010D066276C9308956627E817F90720F04C
:1045CA006395E81BF90BC9F7662311F416F00895F1
:1045DA006894605D6D930895BA93AA93E991F991ED
:1045EA00A991B991CD016D916623E9F7119761916E
:1045FA006D936623E1F7FC010895BA93AA93E991B2
:10460A00F991A991B9911D900590011421F4002006
:10461A00D1F7EE2708951018E1F3E1E008F4E2502B
:10462A000895BA93AA93E991F991A991B991CD0103
:10463A0005900D920020E1F7FC010895BA93AA9320
:10464A00A991B991EE27FF276D91662311F0319652
:10465A00FBCF0895AA93002411246991E991F99155
:10466A00A991B991662349F06A951D9005900114A4
:10467A0021F40020B9F7EE2708951018E1F3E1E0DC
:10468A0008F4E2500895AA937991E991F991A991D0
:10469A00B991CD01772351F07A9561916D93662393
:1046AA00C9F7772319F07A956D93FBCFFC0108952A
:1046BA00AA93BA93EA93FA93EFB7EA930895E0912B
:1046CA00CB05F0E0E558FA4FE0810895E0E0E09389
:1046DA00C606E093BF060895EDE4F0E0E0935005C6
:1046EA00F09351050895EAE0E0935305E4E5F5E017
:1046FA00FA93EA9308950E941623A1E00C94781B7A
:10470A00E0E0E0930007CC240895E091C006EF5F53
:10471A00E093C806EAEFF0E0E0930107F09302079E
:10472A00E1E0E093C9060895EAEFF0E0E0930107BB
:10473A00F09302070895E0E0E093D706E093D806E5
:10474A00E1E0F0E0E093D906F093DA060895CC248C
:10475A00E0E0E0930007DD240C947508E0E0E093C4
:10476A000C05E0930B050895E6EFF6E0FA93EA9359
:10477A00A09100070C94C513E1E0E0930705E0E07F
:10478A00E093E0060895A091D706B091D80608955F
:10479A00E093D906F093DA060895E091EF06F0E087
:1047AA003197EC5AFA4F0895E1E6F0E0E0935005AC
:1047BA00F09351050895E0936505EAE0E093530507
:1047CA000895E3E0E0930705E1E0E0936805E093EC
:1047DA00EF06E093F0060895E2E0E0930705E1E0D2
:1047EA00E0936805E093EF06E093F0060895E7E5A5
:1047FA00F0E0E0935005F09351050895EFE3F4E0FB
:10480A00E0935005F09351050895E0936505E0E1C2
:10481A00E09353050895E0930705E1E0E093680506
:10482A00E093EF06E0E0E093F306E093F206E1E0BE
:10483A00E093F0060895EFE6FAE0E0935005F0936E
:10484A0051050895E0935305E2E0E5CFE5E3FBE087
:10485A00E0935005F09351050895E4E4FBE0E093FA
:10486A005005F09351050895E0E4F0E0E093500517
:10487A00F09351050895EDE4FBE0E0935005F093C1
:10488A005105E0E0C2CFEDE4FBE0E0935005F09380
:10489A0051050895A09168050C94901BE0E0E093FF
:1048AA006805E093E006E09307050895AD2D0E94A0
:1048BA00F213CE2EE3E0E093DD06A1E00C94D214CD
:1048CA00E3E0E093DD06A1E00895E5E0E093DD068C
:1048DA00A2E00895E091D706F091D8060895E1E0A4
:1048EA00E093E106E0E0E093D706E093D806E09192
:1048FA00E106F0E048DFEA0FFB1F4ADFE0E0E09361
:10490A000007DECFE091E106F0E03DDFEA0FFB1F92
:10491A003FCFE093D706F093D8060895A091680593
:10492A000C94781BE1E0E093EF06E0E0E093F306F5
:10493A00E093F2060895E1E0E0935305A3E00C94B6
:10494A00901BA3E00E94C00EE0915405EF700895F9
:10495A00E6E0E0935305A1E00E94901BE4E5F5E050
:10496A00FA93EA93E6EBF0E0FA93EA930895E4E522
:10497A00F5E0FA93EA930895E12FF0E0EC5AFA4F42
:10498A000895E091F206EF5FE093F20608951E2F74
:10499A00A091F206A33008959DDFFA93EA93A0ED61
:1049AA00B5E00C94751CA0EEB5E00C947622E0E11B
:1049BA00E0935305AC2D0C94901BE0EDF5E0FA93CF
:1049CA00EA930895AC2DB0E0E4E6F0E00E94FB27FC
:1049DA000895EC2DF0E0E456F040DF01EAE0F0E063
:1049EA0008950E94FB27E05DE093DE05F2CF0E9466
:1049FA000328E05DE093DD050895AC2DB0E0EAE020
:104A0A00F0E00E94FB270895E05DE093DD05AC2D00
:104A1A00BB27EAE0F0E00E940328E05DE093DE05B0
:104A2A000895E093DE05AC2DBB27EAE0F0E0DFCF86
:104A3A00AC2DBB27EAE0F0E00E940328E05D089570
:104A4A00E091D906F091DA06FA93EA93A0EEB5E07E
:104A5A000C94751CA0EDB5E00C947622A0EEB5E09E
:104A6A000C94980EEA81FB81FA93EA93A0E00E94E3
:104A7A00061CE881F981FA93EA93A0E40C94061CD7
:104A8A00E981FA81FA93EA930895ADE8B1E00C94CA
:104A9A001623A981BA81EE27A10FBE1F0895A02F60
:104AAA00B0E0AC5ABA4F0895EC5AFA4FE081EC9351
:104ABA000895E02FF0E0EC5AFA4F0895DE011896B7
:104ACA00EE0FFF1FAE0FBF1F08950E942328EA1B97
:104ADA00FB0B0895E0935305A1E00E94901BA1E00F
:104AEA000E94C00EE0915405EF700895E0915505BB
:104AFA00EF70AAE0EA02F001AE2FE0915605EF70DE
:104B0A00EA0F0895A2E00E94901BA2E00E94C00E44
:104B1A00E0915405EF700895A6EAB1E00E941623C9
:104B2A00A3E00C94781BA4E00E94901BA4E00E94CE
:104B3A00C00EE0915405EF700895A5E00E94901B05
:104B4A00A5E00E94C00EE0915405EF700895EF7041
:104B5A00AAE0EA02F0010895A4EAB1E00E9416234D
:104B6A00A2E00C94781BE0935305E3E6E093650515
:104B7A000895A091CC06B091CD060895E093CC0695
:104B8A00F093CD060895ED91FD913196FE93EE9343
:104B9A000895A0EAB1E00E941623A3E00C94781BC2
:104BAA00A4EFB1E00C94C727B0E0EAE0F0E00E947D
:104BBA00FB270895BB27EAE0F0E00E940328E05DA6
:104BCA000895B0E0E4E6F0E00E94FB27E05D089576
:104BDA00E12FF0E0E456F040DF01EAE0F0E008956A
:104BEA00E0935305C4CE0E94781BC1CEAAE0EA0224
:104BFA00F001AE2F08950E94901BFE013296FA939F
:104C0A00EA930895E12FF0E03197E85AF94F0895B1
:104C1A00AB81BC81EE27A10FBE1F0C903ACFE09367
:104C2A00CE06F093CF060895E0E0E0938A001B9841
:104C3A000895A091CE06B091CF060895E091DD06C1
:104C4A00ACE0EA9FF001E058FF4F98CFE1E0F0E0D6
:104C5A00E6CFEFDFE6E0F0E00E9400283097089503
:104C6A00E0EDFFEFE093D206F093D3060895E0E07B
:104C7A00E093D206E093D3060895E091DD06F0E0D2
:104C8A003396ACE0B0E00E94E327A0E8B0E01DCF85
:104C9A0070DFAE17BF070895E0E0E0936A05EAE621
:104CAA00F5E0FA93EA930895EEE0F5E0FA93EA93D1
:104CBA000895ABEBB5E00C949D0EE0E0E093090596
:104CCA00A0E00C94311AE0911205E053EA0FCE2EBF
:104CDA00CC200895E0911407A0911307AE17089508
:104CEA00E0911307F0E0E75FF84F08951F5FE12FA7
:104CFA00F0E0E558FA4F0895AC2D0E94B014F0E0A8
:104D0A00DF01EAE0F0E00895EC93E0910607E03075
:104D1A000895E0930905EACFA083E0910607E03001
:104D2A000895A0E5A083E2CFA3E5A083DFCF1F5FAC
:104D3A00A12FB0E0A558BA4F0895BF01A091D0069F
:104D4A00B091D10608950E94E827E05DDB01EC935B
:104D5A00CDCFE05DDB01EC93C9CFDF01EAE0F0E003
:104D6A000E9403280895A7E4A083C0CFE0E1E0935E
:104D7A005305A0910B050E94901B00E00895E02FB7
:104D8A00F0E092CEACE7A0837ECDE72D7394F0E0FD
:104D9A00E554FA4F0895EF70E05DEC93F6CFBB2728
:104DAA00EAE0F0E00E940328EF70E05DDB01EC939B
:104DBA00ECCFE0E0E0930707E09306070895E0E10F
:104DCA00E0935305E0E0E093650500E0D0CDE12FE4
:104DDA00F0E0E25FFA4F0895A0910C050E94781B5B
:104DEA0052CDE02F0F5FF0E0EC5AFA4FDF01E12FCE
:104DFA001F5FF0E0E25FFA4FE081EC930895E3B1C0
:104E0A00EF70E3B9E3B1E12BE3B90895AA930E94E5
:104E1A004928EC81E0935205F0E031979F01E09137
:104E2A005005F0915105E050F040BF01E091530563
:104E3A00F0E0D9010E94E327E60FF71FE0934E0541
:104E4A00F0934F0508950E94291CAEE00C94291C8A
:104E5A00AFE10E94291CA4E00C94291CA4E00E9442
:104E6A00291CA4E00E94291CA4E00C94291CAA93E2
:104E7A000E944B1CE5B3EF70E5BBE5B3AE2FE881AA
:104E8A00E07F0895EA2BE5BB0C946B1CE5B3EF7049
:104E9A00E5BBE5B3AE2FE881E29508950E9416239B
:104EAA00A981BA811D96E1E0EC93A981BA811F9686
:104EBA00E2E0EC930895AA81BB810C9428220E9417
:104ECA001623E091110543CEAE2FE0911205EF7043
:104EDA00EA0FEA93F0CFE0911705A981BA81EC9322
:104EEA00E0911605A981BA811196EC93E091150516
:104EFA00A981BA811296EC93E0911405A981BA812D
:104F0A001396EC93E0911305A981BA811496EC9358
:104F1A00A981BA811696E0E2EC93A981BA81179623
:104F2A00E0E0EC9308950E941623A0E020FCA1E0A3
:104F3A00A13008950E941623E2E0E09367050895E0
:104F4A000E941623E0916805EA93B5CFAFEAB5E06F
:104F5A000C941623EE81F0E0E456F0400895DF0148
:104F6A00EAE0F0E00E94FB27E05DE983F3CFAA8143
:104F7A00BB81EE27A00FBE1F0895E02FF0E0AFE03F
:104F8A00B0E0A3CD109639F088EE93E00197F1F7DF
:104F9A00A8951197C9F70895F195E195F0400895FC
:104FAA00FA9FF02DEB9FF00DEA9FE02DF10D089589
:104FBA006E2F6A9FF0016B9FF00D08952DD0F0DFE0
:104FCA000EF4EADF08950024112490E1AA0FBB1F12
:104FDA00001C111C0E1A1F0A18F40E0E1F1E01C007
:104FEA00A1609A9599F7FD01D001089515D0EBDFDC
:104FFA000EF4D2DF0895E7DFFD010895E894B7FFC4
:10500A0004C0A095B09511966894F7FDC5DFDBDF63
:10501A00FD010EF4C1DF0895E894F7FF02C0BCDF7A
:10502A006894B7FF06C0A095B095119600F803944E
:10503A0000FA0895ED91FC91119708951B2EBF2F48
:10504A00F12D1A2EAE2FE12D0895E199FECFFF938F
:10505A00FFB7F894AEBBBFBBE09AEDB3FFBFFF91B9
:10506A000895E19B02C0A895FCCF9FB7F894AEBB08
:10507A00BFBBE09A8DB3E81719F0EDBBE29AE19A4B
:10508A009FBF08955A934A933A932A931A930A937D
:10509A0008955D814C813B812A8119810881089597
:00000001FF
