:0E0000000C946E040C9400000C9400000C9400
:10000E0000000C9400000C9400000C9400000C9462
:10001E0000000C9400000C9438110C9400000C9409
:10002E0000000C9400000C9400000C9400000C9442
:10003E0000000C9463050C9400000C94A1040C9425
:10004E001D050C9407050C9400000C9400000C94F4
:10005E0000000C9400000C9400000C9400000C9412
:10006E0000000C9400000C9400000C9400000C9402
:10007E0000000C9400000C9400000C94000010275B
:10008E00E80364000A0001000010000110000100E6
:10009E00000000000000313233343536202020209D
:1000AE002020202020202000332E362E30342E31DA
:1000BE003238002020202020202020202020202028
:1000CE002020200052696E677320746F206170705B
:1000DE00203330200020EEF6ECF6EC20ECE3E9F8CD
:1000EE00E420333020004469616C7320746F20610A
:1000FE007070203330200020EEFAF7F9F820ECE390
:10010E00E9F8E420333020004661696C20636F6E9D
:10011E006E656374203330200020ECE020EEE7E5BE
:10012E00E1F820E327203330200043616C6C20740B
:10013E00696D656F7574203330200020F9E9E7E4AE
:10014E0020E4F1FAE9EEE42033302000202053744D
:10015E006172742074616C6B2033302000E4FAE716
:10016E00EC20F9E9E7E420E327203330200041704A
:10017E00702033302020707265737320202024008D
:10018E00E3E9F8E420333020ECF6ECF6E5EC20243D
:10019E0000303330003030310030393900303130FA
:1001AE0000313830003032300031323300313233EA
:1001BE00343536003235323532350030303000309D
:1001CE00303500303630004170617274202331209A
:1001DE0020202000E3E9F8E4202331004170617211
:1001EE00742023322020202000E3E9F8E42023327B
:1001FE000041706172742023332020202000E3E937
:10020E00F8E420233300202020202020202020204E
:10021E00202020202020000048656C6C6F2C20557B
:10022E00736520202020202000546F20736561729A
:10023E0063682061206E616D6500546865206C6195
:10024E0074636800697320756E6C6F636B65640010
:10025E00576169742074696C6C00656E64206F66FA
:10026E002064656C617900202020726573657420AE
:10027E00646F6E652E2E2E004E6F20616E73776545
:10028E00720053797374656D206572726F720043DC
:10029E006F6E6E656374656400506C656173652086
:1002AE0074616C6B004C696E6520697320627573A6
:1002BE007900506C656173652077616974005365D0
:1002CE006E64656420206E6F20230053656E646932
:1002DE006E6720646F6E652E005265636569766584
:1002EE0064206E6F20230052656365697665206415
:1002FE006F6E652E004661696C206F766572207494
:10030E006F2047534D004E6F2047534D20756E6939
:10031E00742E004E6F2047534D2063616C6C00535A
:10032E00656E646564206E616D65202300566F6C8A
:10033E00746167652061707020230050524F472E04
:10034E00204D454E550041636365737320636F64A2
:10035E006573004D617374657220436F646500555B
:10036E0073657220636F64650054656E616E74739D
:10037E000052656C61797320746F204170617274E4
:10038E002E0054696D696E677320287365632900AA
:10039E0053657474696E67730046572056657273A1
:1003AE00696F6E730050686F6E65730050686F6E84
:1003BE0065732067726F757020320050686F6E65BE
:1003CE00732067726F757020330043616C6C20660A
:1003DE006F7277617264696E670050686F6E652028
:1003EE00666F7220230050686F6E65203220666F34
:1003FE007220230050686F6E65203320666F722066
:10040E00230043616C6C20666F7277617264230007
:10041E00456E74657220636F6465202300536574A6
:10042E00206D617374657220636F6465005365742B
:10043E00207573657220636F646500456E74657216
:10044E00206E616D6520230052656C617920746F9A
:10045E002041702E230044656C61792054696D65CE
:10046E0000446F6F72204F70656E696E6700496C45
:10047E006C756D696E6174696F6E004469616C2094
:10048E0054696D650054616C6B2054696D65004450
:10049E006F6F722049442028317E342900536F75C6
:1004AE006E6420747970652028317E332900526580
:1004BE0073657420747970652028317E3629004F5B
:1004CE00464620616674657220756E6C6F636B00B4
:1004DE00466F7263652063616C6C2028307E312913
:1004EE000053656E64696E672070686F6E65730089
:1004FE00476574696E672070686F6E65730044653A
:10050E00627567206D6F64652028307E3129005733
:10051E006F726B206D6F64652028317E3429004C1C
:10052E0043442046572E56455200322D5769726568
:10053E002046572E56455200F9ECE5ED2CE4F9FA1B
:10054E00EEF920E1202020200020ECE7E9F4E5F987
:10055E0020E3E9E9F8E9ED2E00F0E020ECF4FAE50D
:10056E00E72020202020202020002020202020E016
:10057E00FA20E4E3ECFA2121212000F0E020E4EE61
:10058E00FAEF20202020202020202000202020EC08
:10059E00F4FAE9E7FA20E3ECFA2E2E2E00EEFAE159
:1005AE00F6F220E0E9F4E5F12E2E2E00202020E0D8
:1005BE00E9EF20EEF2F0E42020202000EEEEEEE94E
:1005CE00F820E4E3E52DE2E9E3E900202020E9F953
:1005DE0020EEF2F0E420202020002020F0E020EC9D
:1005EE00E3E1F82E2E2E200020E4F7E520E1F9E9D4
:1005FE00EEE5F92000F9E5E3F820EEF1F4F820231A
:10060E0000F9E9E3E5F820E4F1FAE9E9ED00E4FAAE
:10061E00F7E1EC20EEF1F4F8202300F7E1ECE42012
:10062E00E4F1FAE9E9EEE400E4F2E1F8FA20F9E99E
:10063E00E7E420F0EBF9ECE400E7E9E9E2EF20EC87
:10064E00E020EEE7E5E1F800E7E9E9E2EF20ECE093
:10065E0020EEE7E9E9E200F9E5E3F820F9ED20E321
:10066E00E9F8E4202300EEFAE720E1E3E9F8E420DC
:10067E002300EEF1E3F820F9EEE5FA0020FAF4F8A3
:10068E00E9E820F8E0F9E90020F8F9E9EEFA20E4CB
:10069E00F7E5E3E9ED002020F7E5E320E2E9F9E4F0
:1006AE0020002020F7E5E320ECF7E5E7200020F915
:1006BE00EEE5FA20E4E3E9E9F8E9ED2000F0E9FAE5
:1006CE00E5E120ECF4E920E3E9F8E5FA0020E6EEB6
:1006DE00F0E9ED2029F9F0E9E5FA282000E4E2E35B
:1006EE00F8E5FA20F4F0EC20E3ECFA00E2E9F8F198
:1006FE00FA20FAE5EBF0E400E8ECF4E5F0E9ED20A1
:10070E00ECF4E920E3E9F8E400EEF1F4F8E920E88E
:10071E00ECF4E5EF203200EEF1F4F8E920E8ECF429
:10072E00E5EF203300EEF6E120E4F2E1F8FA20F9ED
:10073E00E9E7E400E8ECF4E5EF20ECE3E9F8E42087
:10074E0000E8ECF4E5EF203220ECE3E9F8E42000D9
:10075E00E8ECF4E5EF203320ECE3E9F8E42000E4E4
:10076E00F2E1F8FA20F9E9E7E420E327200020E49B
:10077E00EBF0F120F7E5E320230020E4EBF0F1208D
:10078E00F7E5E320E2E9F9E4200020E4EBF0F120C4
:10079E00F7E5E320ECF7E5E7200020E4EBF0F120AD
:1007AE00F9ED202300F0E9FAE5E120ECE3E9F8E4C5
:1007BE002023002020E6EEEF20E4EEFAF0E4200005
:1007CE0020E6EEEF20F4FAE9E7FA20E3ECFA200057
:1007DE002020E6EEEF20FAE0E5F8E420002020E607
:1007EE00EEEF20ECEEF2F0E420002020E6EEEF201B
:1007FE00F9E9E7E42000E6E9E4E5E920E3ECFA2094
:10080E003120F2E3203400E4E2E3F8FA20F6ECE9DA
:10081E00EC20302C312C3200E0E9F4E5F120EBEC49
:10082E00ECE92000F0E9FAE5F720ECE0E7F820F437
:10083E00FAE9E7E400EEF6E120E7E8E9F4FA20F958
:10084E00E9E7E400ECF9E3F820E8ECF4E5F0E9ED93
:10085E0000ECF7E1EC20E8ECF4E5F0E9ED00EEF663
:10086E00E120E8F1E800E0E5F4EF20F4F2E5ECFA3F
:10087E0020F4F0EC00E2E9F8F1FA20F4F0EC00E2FA
:10088E00E9F8F1FA20EEEEE9F80001002D4E414EA6
:10089E0000494E460000010002009E0004000400C4
:1008AE00A00001000005B50001000105B500010022
:1008BE000205B50001000305B50001000405B500F1
:1008CE0001000505B5000100520798080000F894D4
:1008DE00EE27ECBBF1E0F5BFE5BFE0936C00F8E16D
:1008EE00F1BDE1BD8DE0A2E0BB27ED938A95E9F75E
:1008FE0080E090E1A0E0B1E0ED930197E9F7E4EA42
:10090E00F8E085919591009761F0A591B5910590CC
:10091E001590BF01F00105900D920197E1F7FB01D3
:10092E00F0CF8BBFEFEFEDBFE0E1EEBFC0E0D5E063
:10093E000C946D050E94D5231A93AF93BF93EF933A
:10094E00FF93AFB7AF9388241CB1E1E0E2BFE7B7E6
:10095E00E160E7BF44FC40C01030B1F1E0917A0590
:10096E00F0E0E25FFA4F1083E0910E05F0E0319671
:10097E00A0917A05B0E0AE17BF0794F0E7B7EE7F0F
:10098E00E7BF992011F4E1E09E2E191511F4689439
:10099E0001C0E89421F8E0E14E2AE7EF4E2207C0AD
:1009AE00A0917A05A13018F0E8E04E2A910EE09160
:1009BE007A05EF5FE0937A05E0917A05F0E0E25F69
:1009CE00FA4FA0E0A08308C0E7EE4E22E0E0E093ED
:1009DE007A05E89421F89924E0917A05F0E03396AF
:1009EE00E134A0E0FA071CF0E0E0E0937A05AF9165
:1009FE00AFBFFF91EF91BF91AF9119910C945C0530
:100A0E00EA93EFB7EA93AF93BF93EF93FF93AFB72A
:100A1E00AF9356981A989924EDEF4E228824AF91F1
:100A2E00AFBFFF91EF91BF91AF914CC00E94D52304
:100A3E00AF93BF93EF93FF93AFB7AF93E091CB0517
:100A4E00E03029F1E0917B05F0E03196A091CB05E5
:100A5E00B0E0EA17FB071CF45598569A17C0E091C0
:100A6E007B05A091CB05EA1730F4992011F4E1E053
:100A7E009E2E9CB806C00E94DC239E0E0E94DC2394
:100A8E00ECB9E091CB05EF5FE093CB0508C00E9477
:100A9E00DC23ECB9E091CB05EF5FE093CB05AF9192
:100AAE00AFBFFF91EF91BF91AF91E991EFBFF99178
:100ABE00E991B991A9911895EA93EFB7EA93E7B73F
:100ACE00EE7FE7BFE991EFBFE9911895EFE1E1BD48
:100ADE00EFE0E1BDE0E0EBBBEFEFEABBE0E8E8BB47
:100AEE00E1E2E7BBE0E0E5BBEFEFE4BBE0EDE2BB4C
:100AFE00909AECE7E1BB8898E7E0E3B9EEEFE2B954
:100B0E00E0E0E0936200EFEFE0936100ECE9E09348
:100B1E006500E4E0E0936400E7E0E3BFE0E0E0BFFF
:100B2E00E1E0E2BFE0E0E1BFEFBDEEBDEDBDECBD4B
:100B3E00EBBDEABDE9BDE8BDE0937900E093780036
:100B4E00E4BDEAEFE3BDEBE0E5BDE3E4E0938B004B
:100B5E00E0E0E0938A00E0938900E0938800E1E012
:100B6E00E0938700E0E0E0938600E0938500E09359
:100B7E008400E0938300E0938200E0936A00EABF72
:100B8E00E9BFE7B7E068E7BFE7B7E469E7BFE7B7F4
:100B9E00EE7FE7BFE0E0E0937D00EBB9E8EDEAB968
:100BAE00E6E0E0939500E9E1E9B9E0E0E09390003A
:100BBE00E0939B00E0939A00E0939D00E0939900F0
:100BCE00E0939800E0E8E8B9E0E0E0BD78940E9498
:100BDE00B71A0E942E1C0E94E323A091F906A2339D
:100BEE0078F4809906C0E0910007EF5FE09300076C
:100BFE0001C006C0E091F906EF5FE093F906EDCF74
:100C0E00A091F906A23310F0E1E001C0E0E0E0931C
:100C1E0006050E94E3230E94970FE0E0E09308058B
:100C2E00689422F8E89421F8E3EBE0931007E7B715
:100C3E00EE7FE7BF559831D2E8E3E0934107C09AC3
:100C4E00A8950E943715E0916300E87051F4A091C9
:100C5E00F906A33328F4E091F906EF5FE093F90665
:100C6E0003C0E0E0E093F906A091F906A23371F417
:100C7E000E94E9230E94F023A4EAB0E00E94F82328
:100C8E00E3E0E0931707A4E00E942015E0916300D3
:100C9E00E07111F0879904C0A0910705A03009F00A
:100CAE000AC0A0910007A33328F4E0910007EF5F7C
:100CBE00E093000703C0E0E0E0930007A091000777
:100CCE00A23339F40E94FD230E940424E4E0E09351
:100CDE001707E0910207E03021F4E0910307E030BE
:100CEE0009F41BC00E94FD23E0E0E0930307E091AE
:100CFE00FB06E03049F00E943723E091FB06EF5FE0
:100D0E00E09304070E941324E1E0E0930507E4E07A
:100D1E00E0931707ABE00E94B117E0910407E030B3
:100D2E0021F4E0910507E03009F412C0E0910705C7
:100D3E00E03011F40E941A24E0E0E09305070E94CF
:100D4E003923E091FE06E03019F0A2E00E94B117BF
:100D5E00E091F806E03031F0E0E0E093F806E3E0F1
:100D6E00E0931707E0911907E03041F0E0E0E093DF
:100D7E001907CC24E0933607DD2496D1BB20E1F48D
:100D8E00E5E0BE2E0E946D1BE0931507E030A1F04A
:100D9E00E091FC06E03021F0EF5FE0930107A89AA6
:100DAE00A6D2E0910507E03021F4E0910705E0308E
:100DBE0009F002C00E94132441FC02C00E941C16BE
:100DCE009CD526FE05C0E89426F8E8E7E093420796
:100DDE0025FE3CC0E89425F8E0910705E03039F097
:100DEE00E0914207E03019F0E150E0934207E091C4
:100DFE004407E03059F1E150E0934407E03031F51B
:100E0E00E0914307E030D9F0E150E0934307E03042
:100E1E0091F4A0914507A03021F4A0910905A030CE
:100E2E0009F004C0A6E00E94B11704C00E94B71AD0
:100E3E000E94262403C0A6E00E94B11707C00E949C
:100E4E00B71AA1E00E94C51A0E942624A09141075C
:100E5E00A23020F0A0910705A03009F019C0E09152
:100E6E003607E03091F00E942C24E13870F40E9495
:100E7E002C24CE2EAC2D0E94F014E03029F0AC2D97
:100E8E000E94F014E13808F0CC24E0E0E09336073D
:100E9E00E0914207E03021F4A0910705A13008F45B
:100EAE0003C015D014D000D1A0914007AE3720F06A
:100EBE00A0910705A23008F404C0E0E0E0934007DB
:100ECE0034D024FEFECFE89424F8BACEFFCFE091C2
:100EDE001A07E03039F4E0E0E0930705E89420F8D3
:100EEE00E3D022C00E943424E0911A07F0E0E45EC1
:100EFE00F84FE081E0931B070E943B24EDE0F0E009
:100F0E000E9486280E944024E0911B07F0E0A091E9
:100F1E001307B0911407AE1BBF0BA0931107B0932C
:100F2E001207E0E0E09368050895A0910705A5304B
:100F3E0009F40895E0912A07E03049F00E94452413
:100F4E00E081E0932B070E944524AEE204C00E948C
:100F5E004524A0912B07A083A0912A07E1E0EA2760
:100F6E00E0932A070895E0E0E09340070E943B24B7
:100F7E005A9739F40E944C24E4E10E9453240E94B3
:100F8E0059240E943B24979739F40E94E923E1E00B
:100F9E000E9453240E9464240E943B24D49739F467
:100FAE000E946F24E1E00E9453240E9464240E9458
:100FBE003B241D9741F40E947624E0E80E947D2494
:100FCE00E4E00E9483240E943B24AE34E0E0BE079E
:100FDE0029F40E949324E0E80E949A240E943B2464
:100FEE00A134E0E0BE0729F40E94A124E5E00E94AE
:100FFE009A240E943B24AB35E0E0BE0759F40E94D0
:10100E00A824E9E0E0936505E1E0E0935305E2E012
:10101E000E9483240E943B24A836E0E0BE0741F4E0
:10102E000E94AF24E2E00E947D24E5E00E9483242A
:10103E000E943B24A238E0E0BE0721F40E94B624B1
:10104E000E9459240E943B24AF38E0E0BE0721F4F1
:10105E000E94B6240E9459240E943B24AC39E0E041
:10106E00BE0721F40E94B6240E9459240E943B24FC
:10107E00A537E0E0BE0751F40E94BE24E0E0E09305
:10108E006505E1E0E09353050E946424E091680554
:10109E00E03011F00E94C52408950E941A240E9487
:1010AE00C9240E94970F08950E941A240E94C924F1
:1010BE00E0E0E0934107E0930A05E093F706089518
:1010CE001A93F2DFA0911507A53169F4E0E0E093E1
:1010DE00F706D394E091F606ED1510F4E1E0DE2E5E
:1010EE000E94D12403C1A0911507A73169F4E0E055
:1010FE00E093F706E1E0ED1518F0D090F60601C08A
:10110E00DA940E94D124F2C0A0911507A63109F0FD
:10111E0049C0E0E0E0933D07E0913607E03041F052
:10112E000E942C24E13820F40E942C24E03011F48B
:10113E00CC2081F1CC2019F40E942C24CE2EE1E09B
:10114E00F0E0E0933E07F0933F07E89425F8E0E0E7
:10115E00E09318070E94B71AAC2D0E94F014E130EC
:10116E0028F0AC2D0E94F014E13808F00DC0A1E07B
:10117E000E94B117E1E0E093F806E0910A07E093D0
:10118E00F7060E94DB2403C0CC240E94E0240E94B8
:10119E00201504C00E94E0240E942015E0E0E09398
:1011AE003607A4C0A0911507A83109F055C0E0E09C
:1011BE00E093F7060E94E0101E2FE0910705E03045
:1011CE0009F042C0113049F4E0E0E0933607CC2438
:1011DE000E9404240E94DB2434C0123041F4A091FA
:1011EE000207A03021F4A0910407A03009F00BC033
:1011FE000E94B71A689426F8E89420F80E943424C6
:10120E000E94E5241EC0133041F4A0910207A030C5
:10121E0021F4A0910407A03009F00EC00E94B71A65
:10122E00689426F8E1E0E093070520F8E0E0E0930B
:10123E001A070E94E52405C0E0E0E09336070E94FD
:10124E00E0240E94201507C0E0E0E09336070E94DC
:10125E00E0240E9420154AC0A0911507A13010F07D
:10126E00AB3008F030C00E94DB240E942015CC2445
:10127E00DD24A0911507AA3019F4E0E0E0931507DC
:10128E00E0913607F0E0E05DF84FA0911507A083DE
:10129E00A0913607A63028F4E0913607EF5FE09371
:1012AE003607E0913D07F0E0E95CF84FA091150795
:1012BE00A083A0913D07A63028F4E0913D07EF5F93
:1012CE00E0933D0713C0A0911507A13179F40E9458
:1012DE00F824E0E0E0933D07E1E0E09319070E9477
:1012EE00DB240E942015A2E00E94B11704C3E091F6
:1012FE000705E03029F4E3E0E0931807E1DE17C1BB
:10130E00A0910705A13009F05CC0E8E7E093420721
:10131E00A0911507A53181F4E0916605A0911B07F8
:10132E00EA1711F4E1E003C0E0911B07EF5FE093D1
:10133E001B070E94FE2444C0A0911507A73179F423
:10134E00A0911B07A13019F4E091660503C0E0914E
:10135E001B07E150E0931B070E94FE2431C0A091B1
:10136E001507A63139F5E0916705F0E03197A091A8
:10137E001A07B0E0AE17BF07DCF4E0911A07F0E0F1
:10138E00E45EF84FA0911B07A083E0911A07EF5F70
:10139E00E0931A07E1E0E0931B07A0911307B091C9
:1013AE001407EDE00E947B280E9405250E94FE2472
:1013BE00DADD06C0A0911507A13111F488DDB0D594
:1013CE00B0C0E0912A07E03009F4AFDDE8E7E09322
:1013DE004207A0911507A831F9F40E943B241D97EE
:1013EE0091F4E0912907EF5FE0932907E0E0E093A5
:1013FE002C07E0915305A0912907EA1718F4E1E0B4
:10140E00E093290708C0A0910705A33021F4E1E07D
:10141E00E09329078DD085C0A0911507A531C1F4A1
:10142E00A0910705A53011F00E940A25E0916505EF
:10143E00A0916805AE1720F4E0916805EF5F01C03A
:10144E00E1E0E09368050E94C5240E940E2569C064
:10145E00A0911507A731B9F4A0910705A53011F099
:10146E000E940A25A0916805A23020F0E09168053F
:10147E00E15002C0E0916505E09368050E940E25DB
:10148E000E94C5244EC0A0911507A131A9F5A091C7
:10149E002907A23048F0E0912907E150E09329078F
:1014AE00E0E0E0932C0727C00E940A250E94A824A2
:1014BE000E9417250E941D25E0932F0708DDE0915D
:1014CE002F07E03019F003DD2BD515C00E94AF2495
:1014DE000E942425A0E10E94A723E03061F00E9423
:1014EE003325E6EBF0E0FA93EA93A0E10E94A723FE
:1014FE00A1E00E94F21B15C0A0911507A63189F03C
:10150E000E943B241D9711F44FD00BC0A0910705EC
:10151E00A53009F40895A0912907A13009F408D047
:10152E0017D0E3E0E0931707A1E00E94201508957D
:10153E001A93E0912907E1501E2FE09153051E17D3
:10154E0030F40E943825A0E2A0831F5FF6CFD3C1EE
:10155E00A0911507A13010F0AB3008F024C0A09177
:10156E001507AA3019F4E0E0E09315070E94452410
:10157E00DF01E0911507E05DEC93E0912907EF5F45
:10158E00E0932907E0915305A0912907EA1740F44B
:10159E00E1E0E0932907A0910705A43009F4C8DF24
:1015AE00E0E0E0932C0708951A93E0E0E0932D0716
:1015BE00A0911507A13010F0AB3008F09CC1A0919E
:1015CE001507AA3019F4E0E0E0931507E09115072E
:1015DE00A0911607EA1711F0E1E003C0E0912C0785
:1015EE00EF5FE0932C07E0911507E0931607A091AB
:1015FE002C07A430C9F4A0911507A730A9F0A93083
:10160E0021F0A0910605A13069F0A0911507A43034
:10161E0041F0A53031F0A93021F0A0910605A0309F
:10162E0009F002C00E943D25A0912C07A63018F0AB
:10163E00E1E0E0932C07A0912C07A53029F4E0916E
:10164E001507E05D1E2F54C1E0912D07E03009F023
:10165E0036C1A0911507A130B1F4A0912C07A1308D
:10166E0009F417E2A0912C07A23009F41DE2A09113
:10167E002C07A33009F41EE2A0912C07A33011F41D
:10168E000E943D251CC1A0911507A230B9F4A0916E
:10169E000605A13021F4E0912C07E05C07C0E09133
:1016AE000605E03021F4E0912C07EE511E2FA0919B
:1016BE002C07A33011F40E943D2501C1A0911507FE
:1016CE00A330B9F4A0910605A13021F4E0912C07C6
:1016DE00ED5B07C0E0910605E03021F4E0912C07A8
:1016EE00E1521E2FA0912C07A33011F40E943D252C
:1016FE00E6C0A0911507A43031F5A0910605A130E2
:10170E0049F4E0912C07EA5B0E94432511F40E94F4
:10171E003D2518C0E0910605E030A1F4A0912C07FC
:10172E00A13009F410EFA0912C07A23009F41FEE9E
:10173E00A0912C07A33009F41EEEA0912C07A43023
:10174E0009F41DEEBCC0A0911507A53031F5A0918E
:10175E000605A13049F4E0912C07E75B0E94432572
:10176E0011F40E943D2518C0E0910605E030A1F469
:10177E00A0912C07A13009F419EEA0912C07A230EC
:10178E0009F41BEEA0912C07A33009F41AEEA091D8
:10179E002C07A43009F41CEE92C0A0911507A630B8
:1017AE00B9F4A0910605A13021F4E0912C07E45B79
:1017BE0007C0E0910605E03021F4E0912C07EB51D3
:1017CE001E2FA0912C07A33011F40E943D2577C047
:1017DE00A0911507A730B1F4A0910605A13029F408
:1017EE00E0912C07E15B1E2F0CC0E0910605E03066
:1017FE0041F4E0912C07E9500E94432511F40E9418
:10180E003D255DC0A0911507A83019F5A0910605DC
:10181E00A13029F4E0912C07ED5A1E2F13C0E09150
:10182E000605E03079F4A0912C07A13009F416EFEB
:10183E00A0912C07A23009F415EFA0912C07A3302C
:10184E0009F417EFA0912C07A33011F40E943D2547
:10185E0036C0A0911507A93011F5A0910605A1304B
:10186E0029F4E0912C07EA5A1E2F18C0E0910605C4
:10187E00E030A1F4A0912C07A13009F411EFA09152
:10188E002C07A23009F412EFA0912C07A33009F413
:10189E0014EFA0912C07A43009F413EF10C0E091BF
:1018AE002C07E35C6E2FE0911507A3E0EA02F0012E
:1018BE00E60F1E2FA0912D07A23009F4105EE091C5
:1018CE001507E030A9F4A0912C07A13009F410E21D
:1018DE00A0912C07A23009F418E2A0912C07A33096
:1018EE0009F419E2A0912C07A33011F40E943D25B2
:1018FE000E9445241083199108950E944825A091B5
:10190E000705A03011F0A13009F40AC0A0EEB5E031
:10191E002AD2A0910705A43011F40E94522510C2BC
:10192E00CC2021F0E091F706E03009F4E7C00E94E8
:10193E007624E0E1E0935305EFEFEC1521F0AC2DAA
:10194E000E940A1C05C00E9456250E945B25CC24CD
:10195E00E0910A05F0E03097A1F4A0910605A130C0
:10196E0029F40E945F25A2EDB0E008C0E0910605C3
:10197E00E03031F40E945F25A3EEB0E00E948E238A
:10198E005FC0E130A0E0FA07A1F4A0910605A130F6
:10199E0029F40E945F25A4EFB0E008C0E09106058F
:1019AE00E03031F40E945F25A5E0B1E00E948E2365
:1019BE0047C0E430A0E0FA07A1F4A0910605A130DB
:1019CE0029F40E945F25A6E1B1E008C0E09106056A
:1019DE00E03031F40E945F25A7E2B1E00E948E2331
:1019EE002FC0E230A0E0FA07A1F4A0910605A130C5
:1019FE0029F40E945F25A8E3B1E008C0E091060536
:101A0E00E03031F40E945F25A9E4B1E00E948E23FC
:101A1E0017C0E530A0E0FA0799F4A0910605A130B1
:101A2E0029F40E945F25AAE5B1E008C0E091060501
:101A3E00E03031F40E945F25ABE6B1E00E948E23C8
:101A4E000E9464253097E1F0A0910605A13051F473
:101A5E000E946425E05DE093DD050E946B25E09316
:101A6E00DF050DC0E0910605E03049F40E946425C3
:101A7E00E05DE093DF050E946B25E093DD0533C04A
:101A8E000E9481253097A1F0A0910605A13031F476
:101A9E000E948125E05D0E94882509C0E09106051F
:101AAE00E03029F40E948125E05D0E9494251BC040
:101ABE00EC2DF0E0309781F0A0910605A13021F4D5
:101ACE00E0E20E94882507C0E0910605E03019F497
:101ADE00E0E20E94942507C0E0E2E093DD05E0938A
:101AEE00DE05E093DF05CC2031F0A0EEB5E03BD172
:101AFE000E94522502C0EFEFCE2E22C1CC2021F043
:101B0E00E0910705E03009F080C00E947624E0E104
:101B1E00E0935305AC2D0E940A1CA0EDB5E023D135
:101B2E00A0910605A13029F40E945625ACE7B1E03C
:101B3E0008C0E0910605E03031F40E945625AEE86B
:101B4E00B1E00E948E23E3E0E093EF050E9464254E
:101B5E00309741F1A0910605A13081F40E946425D1
:101B6E00E05DE093E4050E9481250E94A025E093AC
:101B7E00E5050E94A725E093E60513C0E091060552
:101B8E00E03079F40E946425E05DE093E7050E9461
:101B9E0081250E94A025E093E6050E94A725E093EB
:101BAE00E50532C00E9481253097D1F0A09106053F
:101BBE00A13031F40E948125E05DE093E4050CC074
:101BCE00E0910605E03059F4E0E2E093E7050E946B
:101BDE008125E05DE093E605AC2D0E94AF2514C093
:101BEE00A0910605A13021F4E0E2E093E40509C0DE
:101BFE00E0910605E03041F4E0E2E093E705E09382
:101C0E00E605AC2D0E94AF2597C0E0910805E030A7
:101C1E0009F490C0F0E0E130A0E0FA0749F4E9E001
:101C2E00F0E00E940525EAE0F0E00E94402475C035
:101C3E00E230A0E0FA0749F4EDE0F0E00E9405255D
:101C4E00EEE0F0E00E94402468C0E630A0E0FA0723
:101C5E0049F4E9E0F0E00E940525E4E1F0E00E949D
:101C6E0040245BC0E730A0E0FA0749F4E3E1F0E07E
:101C7E000E940525E5E1F0E00E9440244EC0E430CC
:101C8E00A0E0FA0791F4EFE0F0E00E940525E09164
:101C9E000B05E03019F0EEE0F0E002C0E0E1F0E01C
:101CAE00E0931307F093140738C0E530A0E0FA076D
:101CBE0091F4E1E1F0E00E940525E0910C05E030A1
:101CCE0019F0EEE0F0E002C0E2E1F0E0E09313077D
:101CDE00F093140722C0E830A0E0FA0791F4E6E191
:101CEE00F0E00E940525E0910D05E03019F0EEE0E0
:101CFE00F0E002C0E0E1F0E0E0931307F093140788
:101D0E000CC0E930A0E0FA0741F4E7E1F0E00E94F0
:101D1E000525E8E1F0E00E944024E0E0E0930805AC
:101D2E000E9448250E94B8250E945225E4E0E093C7
:101D3E00180706C00E94B825A0EEB5E00E94EE225C
:101D4E000E94C2250E945F250E94C6250895BA935F
:101D5E00AA930E94CA2583C2BA93AA93552011F062
:101D6E000E94CA257CC2BA93AA931A930E94D825C0
:101D7E000E945B2510E0E09153051E1728F40E9487
:101D8E003825E081E03009F408C00E94DD250E946C
:101D9E003825E081EC931F5FEECF188123960895CE
:101DAE00AA930E94E32811E030E0303039F500E0CC
:101DBE00E09153050E1750F40E94E325A081A03345
:101DCE0010F0AA3308F002C00F5FF2CFE091530576
:101DDE00E017A1F0E1500E2F013058F00E94E825D7
:101DEE00E02FF0E03197EC5AFA4FE081EC9301507E
:101DFE00F3CFE0E3E09354051F5FD7CFAC810E9491
:101E0E00F21B0E94EA2825960895BA93AA93629728
:101E1E00E0E0E883E9830E94E12810E000E020E0A2
:101E2E0040E050E011E0E0916505E11708F474C060
:101E3E00A895A12F0E940A1CA12FB2DF30E020E04E
:101E4E0000E0E09153050E1750F40E94E325E08167
:101E5E00E03029F00E94E325A081A03209F419C0D8
:101E6E00A8950E94E325A081A03311F4303009F02B
:101E7E0001C00DC031E0E22FF0E0DE011896AE0F8A
:101E8E00BF1F0E94E325E081EF70EC932F5F0F5F81
:101E9E00D8CFE1E0F0E0EE83FF8340E050E001E0D8
:101EAE002017E0F0A895A22FBB27E02FF0E00E94AC
:101EBE00ED25DE011896AE0FBF1FEC91F0E0AE815E
:101ECE00BF810E9473284E0F5F1FAE81BF81EAE073
:101EDE000E947B28EE83FF830F5FE2CFEA8DFB8D9E
:101EEE00E417F50718F04A8D5B8D09C0E88DF98D62
:101EFE004E175F0718F0488D598D01C00BC05A93CD
:101F0E004A93A4E5B5E00E943B23A12F49DFA12F00
:101F1E000E94F21B1F5F87CF0E94E8286C960895DF
:101F2E001A93A89594D2A8950E94A124E3E00E944A
:101F3E00F22579F4E0915505EF70E43050F4E0911C
:101F4E005505EF70E33021F4E0915505EF7009F47B
:101F5E0006C00E943325AFE9B1E00E94F8230E942B
:101F6E00FE25E093FA060E940A2621F0E0E3E093B4
:101F7E0054050FC0E0915505E07021F0E091560533
:101F8E00E07009F409C00E943325A3EAB1E00E9473
:101F9E008E23A2E00E94F21B0E94FE25E093FB0618
:101FAE00A3E00E940A1C0E941D2521F00E943325E9
:101FBE000E9414260E94FE25E093FC06A091FC06CA
:101FCE00A33609F4A89AE091FC06E03009F4A8982B
:101FDE000E941B2629F00E943325A7EAB1E008C013
:101FEE00E0915505EF7049F40E943325ABEAB1E05C
:101FFE000E948E23A4E00E94F21BE0915505F0E0B2
:10200E00EF70F070AAE0B0E00E948128DF01E0914D
:10201E005605F0E0EF70F070EA0FFB1FE0930A0731
:10202E00F0930B070E942526E23060F4E13049F46C
:10203E00E0915505EF70E83021F4E0915605EF7010
:10204E0009F405C00E943325AFEAB1E00EC0E0915D
:10205E005405EF7029F4E0915505EF70E23008F069
:10206E0009C00E943325A3EBB1E00E948E23A5E0A8
:10207E000E94F21B0E942F26EF70EA0FE093FD06DE
:10208E000E94A824E1E00E94F225E0932E07A09181
:10209E002E07A53010F4E03009F406C0E0912E07AB
:1020AE00E150E0932E0706C00E943325A5EAB1E069
:1020BE000E94F8230E940A26AE2EE2E0EA1530F4C2
:1020CE00E1E0AE2E0E9433250E9440260E941B2680
:1020DE00E093FE06A091FE06A23058F0E1E3E093F5
:1020EE005405A4E00E94F21BE0915405EF70E093BA
:1020FE00FE06A9E00E940A1CA9E052DEE0915405FA
:10210E00E770E0930F07A0910F07A03011F0A530F4
:10211E0048F0E1E0E0930F07E1E3E0935405A9E016
:10212E000E94F21B0E942526E093FF06A091FF0657
:10213E00A23058F0E1E3E0935405A5E00E94F21BB3
:10214E00E0915405EF70E093FF060E949324E3E0C4
:10215E00E0935305E0E8E0936505E0E0F0E0FA93E4
:10216E00EA93A0E8B0E051DE11E0113848F4A12F57
:10217E000E94F014F0E0EC50FA4F10831F5FF5CF81
:10218E00E0E0E0930705A5E00E94B117A4E00E94ED
:10219E00B1176BD30E941A240E9448250E94B825BD
:1021AE000E94C2250E9452250E945F250E94C625CC
:1021BE001CC30E94E328E0E03E2F1E2FE6E0E093D2
:1021CE0053050E94E923E0913D07E030B1F13F5FF6
:1021DE00A32F0E940A1C00E020E0E0913D072E177D
:1021EE0010F4003009F013C0E22FF0E0EC5AFA4F71
:1021FE00A081E22FF0E0E95CF84FE081F0E0F0968C
:10220E00B0E0EA17FB0709F001E02F5FE6CF0030E0
:10221E0071F411E0E22FF0E0EC5AFA4FA081A132F6
:10222E0020F0A0913D07A63008F001C010E0373134
:10223E0010F4103009F001C0CACF313011F4103053
:10224E0009F401C012E0323011F4103009F401C06B
:10225E0013E0E0E0E0933D07E12F0E94EA28249688
:10226E0008950A921A92FA926A937A938A939A939B
:10227E00AA93BA93EA93FA93EFB7EA93689424F881
:10228E00E0910C07F0910D070E944726EA0FFB1F05
:10229E000E944C26BB2009F0BA94E0910807F091F9
:1022AE000907309779F0A8E0B7E0ED91FD913197ED
:1022BE00FE93EE93E0910807F0910907309711F421
:1022CE000E943115A0910705A23060F0A0913E0743
:1022DE00B0913F07E6E5F0E00E949E28309711F49A
:1022EE000E949C07AEE3B7E00E945126A0913E07E4
:1022FE00B0913F07AA3FE0E0BE0708F49AC0E09114
:10230E003E07F0913F07EA5FF040E0933E07F093FF
:10231E003F07689425F8E091F706E03011F1E0E010
:10232E00E0931807E091F706E150E093F706E0918D
:10233E000A07F0910B073197A091F706B0E0EA1764
:10234E00FB0741F4E4E0E0931707E2E0EA1511F42D
:10235E00A5E06FD3E091F706E03019F4E1E0E093E9
:10236E001907E0910107E03021F0A0910107A33693
:10237E0008F008C0E0910107E150E0930107E0305A
:10238E0009F4A898E0910207E03091F0E0E0E093C4
:10239E001807E4E0F0E00E940525E5E0F0E00E9479
:1023AE004024E0910207E150E0930207A1E041D3FF
:1023BE00E0910407E03091F0E2E0F0E00E940525A4
:1023CE00E3E0F0E00E944024E0910407E150E09346
:1023DE000407E2E0EA1511F4A3E02BD3E09118070D
:1023EE00E03041F0E0914107E03021F4E091070543
:1023FE00E03009F00AC0E0911807E150E0931807A9
:10240E00E03019F4E1E0E0931907E0913607E0308F
:10241E0019F0A0E0CA1609F004C0E0910705E030FB
:10242E0009F004C0E0914107EF5F01C0E0E0E093E6
:10243E004107E991EFBFF991E991B991A99199916C
:10244E00899179916991F9901990099018951A933B
:10245E000E94AF240E942425A09153050E94A72319
:10246E00E03029F50E94A8240E941725E09154051A
:10247E00EF70E0932F07E030D1F4A0915405AF3FF9
:10248E00B1F010E0143698F4E0916300E87029F092
:10249E000E9433250E945726A8C1B79B05C00E94F3
:1024AE0033250E945726A1C100001F5FEBCFE7E046
:1024BE00F0E00E940525E8E0F0E00E9440240E9432
:1024CE0048250E94B8250E94C2250E9452250E94CE
:1024DE005F250E94C625A8950E945E26A895A0910C
:1024EE002F07A130F1F0A23009F468C0A0912F0798
:1024FE00A33009F4BEC0A0912F07A43009F4E3C0A5
:10250E00A0912F07A53021F4E0E0E0932F0709C03A
:10251E00A0912F07A63009F430C1A0912F07A73044
:10252E0029F10E944C24E6E0E0935305E4E1E093A8
:10253E0065050E94DF1B0E943325A7EBB1E00E94C8
:10254E00F823E0912F07E03009F017C10E94E9232C
:10255E000E94F023ABEBB1E00E94F8230E946F249F
:10256E000E94F023A2ECB1E00E94F823A8950E94ED
:10257E00A824E1E00E946226A5EAB1E00E94F823B9
:10258E000E9433250E9440260E9433250E94652614
:10259E00A4E00E9469260E946526A5E00E94F21B17
:1025AE000E946C2620F0A0915405A53338F00E94AD
:1025BE0033250E946526A9E00E94F21B0E94A824E2
:1025CE00E1E0E09353050E946C2620F0A0915405A3
:1025DE00A53348F00E9433250E946526A9E00E948B
:1025EE00F21BE1E003C0E0915405E770E0930F07A2
:1025FE000E949324E3E0E093530511E01138A0F517
:10260E00A895A0910F07A23028F4A13011F4113231
:10261E0008F01DC0143658F40E947326E05DE09356
:10262E0054050E947A26E0935505E0E20DC0A12FD5
:10263E000E948226E09354050E9473260E94A025D4
:10264E00E09355050E947A26E093560508C0E0E314
:10265E00E0935405E0E2E0935505E0935605A12F73
:10266E000E94F21B1F5FCACFE0912F07E03009F0E6
:10267E0084C0A8950E94A124E3E00E946226A9ECE2
:10268E00B1E00E94F8230E943325ADECB1E00E9428
:10269E008E23A2E00E9469260E9414260E943325F2
:1026AE00A3EBB1E00E948E23A4E00E946926A1ED67
:1026BE00B1E00E948E23A5E00E94F21BE0912F074D
:1026CE00E03009F05AC0A8950E947624E0E1E0932C
:1026DE005305E0E8E09365050E94DF1BA091060517
:1026EE00A13029F40E943325A5EDB1E008C0E09198
:1026FE000605E03031F40E943325A2EEB1E00E94CF
:10270E008E23A1E00E94F21BA0910605A13029F4B0
:10271E000E943325AAEEB1E008C0E0910605E03034
:10272E0031F40E943325A7EFB1E00E948E23A2E080
:10273E000E94F21BA0910605A13029F40E943325B8
:10274E00AFEFB1E008C0E0910605E03031F40E9431
:10275E003325ACE0B2E00E948E23A3E00E94F21B70
:10276E0014E0113850F4A8950E9433250E945B2581
:10277E00A12F0E94F21B1F5FF4CFA8950E94A824E0
:10278E00E1E00E946226A1EAB1E00E948E23A6E05B
:10279E000E94F21BA7E00E94F21BA3E00E94F21B14
:1027AE000E94AF24E0E1E0935305A1E00E940A1CD1
:1027BE000E943325A6EBB0E00E947A23E03079F038
:1027CE000E943325A6EBB0E00E94F823E0E3E093ED
:1027DE005405E0E0E0935505A2E00E94F21BE09163
:1027EE000705E03011F4A3E0B5D319910895AA932B
:1027FE00A881A13021F4A981BA81EC91B0C0A88141
:10280E00A23051F4A981BA81EC910E948926E98106
:10281E00FA81E181EA0FA3C0A881A33081F4A981D6
:10282E00BA81EC91A4E6EA02602DE981FA81E18198
:10283E000E948E26E981FA81E281EA0F90C0E0E0E3
:10284E008EC0AA931A9310E0103868F4E12FF0E0CE
:10285E00EB58F94FE081A981EA1719F4E12FEF5FE8
:10286E00E5C01F5FF1CFE0E0E1C060971A930A93D5
:10287E00E9E1F0E00E940525E4E0F0E00E9440244A
:10288E000E9448250E94B8250E94C2250E9452250A
:10289E000E945F250E94C625E0E0E093F6060E94A6
:1028AE007624E0E1E093530511E0113808F03DC0C5
:1028BE00A895A12F0E9494260E943325A0E171D0E5
:1028CE00DE01129636D0E030F1F40E949B26A1E094
:1028DE00A08301E00138B0F4A895A02F0E949426A1
:1028EE00A4E5B5E03ED0E03059F0A4E5B5E021D046
:1028FE00E03031F40E949B26DF01EC91EF5FEC9308
:10290E000F5FE8CF04C00E949B26A0E0A0830E9428
:10291E009B26A081E091F606EA1728F40E949B26DA
:10292E00E081E093F6061F5FC0CF198108816296A1
:10293E000895BA93AA931A9310E0103120F4E091FF
:10294E0053051E1708F009C00E94DD25AC91A03278
:10295E0011F0E0E003C01F5FF0CFE1E01881239695
:10296E000895BA93AA931A9310E0103120F4E091CF
:10297E0053051E1708F012C00E94A126EC91E01517
:10298E0018F4E1E0188123C00E94A126EC910E16E6
:10299E0018F4E0E018811BC01F5FE7CFE0E018815C
:1029AE0016C0AA93E881E03091F0E150E883AB8144
:1029BE00BC81F0E0EA0FFB1F0F01E881A981BA810B
:1029CE00F0E0AE0FBF1FEC91D001EC93EBCF25964C
:1029DE000895AA931A93A981A03011F0A13810F08E
:1029EE00E0E024C00E949324E3E0E0935305A98124
:1029FE000E940A1CA9810E94D70EA0915305A330F4
:102A0E0019F40E942F2607C0E0915405EF700E9422
:102A1E008926E0915505EF70EA0F1E2F113010F048
:102A2E00113808F002C0E12F01C0E0E018812296B3
:102A3E000895AA93AA2059F0E881E0930E07E8EED4
:102A4E00F3E00E94A826EAE1E0938A0001C002D0DA
:102A5E0021960895E0E0E0930E070E94AD260895BA
:102A6E00E0910E07E03009F4DFC0F0E0E130A0E0C5
:102A7E00FA0761F40E94B226A53DE3E0BE0718F006
:102A8E000E94B72602C00E94BF26C6C0E230A0E058
:102A9E00FA0771F40E94B226A939E3E0BE0728F0C6
:102AAE00E0E8F2E00E944C2602C00E94BF26B4C0AD
:102ABE00E330A0E0FA0771F40E94B226AD3BE2E0EB
:102ACE00BE0728F0E0E8F0E00E944C2602C00E940B
:102ADE00BF26A2C0E430A0E0FA0711F50E94B2268C
:102AEE00A73EE3E0BE0718F00E94B72618C00E946A
:102AFE00B226AD3AE3E0BE0780F00E94C22619F47A
:102B0E000E94C92602C00E94D0260E94D6260E948C
:102B1E00E12610F40E94B72602C00E94BF267CC098
:102B2E00E530A0E0FA0709F077C00E94B226A73E72
:102B3E00E3E0BE0718F00E94B7266EC00E94B226D0
:102B4E00AD3AE3E0BE0780F00E94C22619F40E945F
:102B5E00C92602C00E94D0260E94D6260E94E126D7
:102B6E0010F40E94B72658C00E94B226A934E3E0A2
:102B7E00BE0718F00E94AD264FC00E94B226A734A1
:102B8E00E3E0BE0718F00E94B72646C00E94B226A8
:102B9E00AD30E3E0BE0798F0EAE1E0938A000E94D0
:102BAE00C22619F40E94C92602C00E94D0260E9495
:102BBE00D6260E94E12610F40E94B7262DC00E9450
:102BCE00B226A93AE2E0BE0718F00E94AD2624C054
:102BDE000E94B226A73AE2E0BE0718F00E94B7267E
:102BEE001BC00E94B226AD36E2E0BE0798F0EAE1C5
:102BFE00E0938A000E94C22619F40E94C92602C0E0
:102C0E000E94D0260E94D6260E94E12610F40E9431
:102C1E00B72602C00E94BF26E0910707E093870007
:102C2E00E0910607E0938600089544FE89C1EFEE19
:102C3E004E2221FE04C0E0910705E03009F07CC170
:102C4E00E2E0E515B1F4E0E0E093BB050E94E52675
:102C5E000E94ED26A0E10E94C023EAE6F5E0FA9379
:102C6E00EA930E94F2260E945E260E94E5260E94AA
:102C7E00F226E89421F8E0E0E0931807E7B7EE7F3C
:102C8E00E7BFE0E0E0930805E0910F05F0E0E033E8
:102C9E00A0E0FA0771F4A0910905A13031F0A2303D
:102CAE0021F0A53011F0A83019F452D4A6E052D17B
:102CBE0043C1E035A0E0FA0709F064C0A091100509
:102CCE00A734E9F5A0910905A630C9F50E94F626AC
:102CDE00A0911105A63429F40E942624A6E04ED414
:102CEE002EC0E0910C05E030A1F056D431D4E09125
:102CFE000C05EF5FE0930C05A5E040D4A0910C0508
:102D0E00A13220F0E0E0E0930C0536C0A9E022D11C
:102D1E0016C0E0910B05E03091F01AD4E0910B054E
:102D2E00EF5FE0930B05A4E029D4A0910B05A1322F
:102D3E0020F0E0E0E0930B051FC0A7E00BD1A091BF
:102D4E001005AE34F1F4A0910905A730D1F40E941C
:102D5E00F626E0910D05E030A1F0FAD3E0910D05D5
:102D6E00EF5FE0930D05A8E009D4A0910D05A13207
:102D7E0030F0E0E0E0930D05A6E0ECD00895AAE077
:102D8E00E9D0DAC0E934A0E0FA0759F5A0911005B0
:102D9E00A635D9F4A0910905A33019F4E0E0E0932B
:102DAE000905A3E0EBD30E94AF24E0E10E94622666
:102DBE00E1E1F5E0FA93EA93A0910E05A2500E948C
:102DCE00C023A2E00E94F21B0BC0A0911005AD34EF
:102DDE0039F4552029F0E0E0E0930905A9E0CED3BF
:102DEE00A9C0E334A0E0FA0709F051C0A09109058B
:102DFE00A43019F4E0E0E0930905A0910E05A5308A
:102E0E0018F00E94FC2605C0E0911105E0530E94C7
:102E1E008926E0911205E053EA0FCE2ECC2019F44C
:102E2E00EFEFCE2E05C0EC2DF0E0EC50FA4FC08047
:102E3E00A0911005A13441F4E1E0E0930A05E09180
:102E4E000A07E093F70622C0A0911005A53439F4C5
:102E5E00E2E0E0930A05E5E0E093F70617C0A091E3
:102E6E001005A63439F4E4E0E0930A05E5E0E093BA
:102E7E00F7060CC0A0911005A23411F4A2E005C013
:102E8E00A0911005A73411F4A7E078D353C0E43510
:102E9E00A0E0FA0741F5A0910905A43019F4E0E08D
:102EAE00E0930905A0910E05A53018F00E94FC26AE
:102EBE0005C0E0911105E0530E948926E0911205AC
:102ECE00E053EA0FCE2ECC2019F4EFEFCE2E05C034
:102EDE00EC2DF0E0EC50FA4FC080E091FD06E0934F
:102EEE00F706E5E025C0E535A0E0FA0701F5E0912B
:102EFE000207E03021F4E0910407E03009F016C03B
:102F0E00CC24E0E0E0933607E0933D07DD240E94F9
:102F1E005B080E941324E091FA06EF5FE09302072C
:102F2E00E1E0E09303070E94DB2483DD03C0E7E0CA
:102F3E00E0930A05A0E003D3E0E0E0937A0509C030
:102F4E000E94062720F0A0914407A03009F001C08E
:102F5E0007D30895AA931A930A9310E000E0E09124
:102F6E000705E03009F0E7C2E0914407E03011F4C4
:102F7E0041FE13C0A0915107A93018F4AA81A030C8
:102F8E0009F40AC0E0915107EF5FE0935107F0E0BA
:102F9E00EA5BF84FAA81A083CEC2AA81A630F1F4D3
:102FAE00E0910905E03039F00E940C27E081EA83B8
:102FBE00E89427F812C00E94062710F0D1D2BBC2A7
:102FCE00E0E0E0934307E0915007EF5FE093500796
:102FDE00F0E0EA5BF84FE081EA8313C0E091090567
:102FEE00E03049F40E94062728F0BAD20E940C273E
:102FFE00AA81A08306C023FC04C00E940C27E08196
:10300E00EA83EA81E093450710E0F0E03097B1F4EF
:10301E0010E0143040F4E12FF0E0E458FA4FA0E352
:10302E00A0831F5FF6CFE0914307E03019F4E1E093
:10303E00E0934307E3E0E093440706C2E130A0E0EB
:10304E00FA0709F041C0CC2011F48AD274C2E4E030
:10305E00E0930905E0E0E0930A050E941227A3E43D
:10306E00A0830E941227A0E3A0830E941227FF9341
:10307E00EF930E941827DF010E941D27AF91BF9189
:10308E00EC930E941227FF93EF930E9418270E9441
:10309E00A025AF91BF91EC930E941227FF93EF935F
:1030AE000E941827DF01E4E6F0E00E949928E05D17
:1030BE00AF91BF910E94222719F4E2E0E0934307FB
:1030CE00E6E0E0934407C0C1E230A0E0FA07D1F495
:1030DE00E5E00E942727A3E4A0830E941227A5E41F
:1030EE00A0830E941227A0E3A0830E941227A0E3D0
:1030FE000E942A2719F4E2E0E0934307E3E0E0930D
:10310E004407A2C1E330A0E0FA0791F4E2E00E9486
:10311E0027270E942F270E943227A2E50E942A27E6
:10312E0019F4E2E0E0934307E6E0E09344078CC134
:10313E00E430A0E0FA0709F05AC0E2E00E94272727
:10314E000E942F270E943227A0E5A0830E943527D8
:10315E00E0912E07EF5CEC930E9412270E943B2712
:10316E00E4E6F0E00E9441270E943B27EAE0F0E00F
:10317E000E9441270E943B27EAE0F0E00E949E2831
:10318E000E944727BF01A091FD060E948226DB0107
:10319E00EC930E941227BF01A091FD06B0E00E94A1
:1031AE001D27DB01EC930E941227BF01A091FD06A3
:1031BE000E944B270E943527E0910F07EF70E05DCC
:1031CE00EC930E943527E091FF06E170E05DEC93F1
:1031DE000E943527EA2DE370E05D0E94222719F444
:1031EE00E2E0E0934307E3E0E09344072DC1E530CE
:1031FE00A0E0FA0791F4E3E00E942727A9E4A08358
:10320E000E941227A6E50E942A2719F4E2E0E09315
:10321E004307E6E0E093440717C1EB30A0E0FA075E
:10322E0091F4E8E00E942727A5E5A0830E941227CB
:10323E00A1E30E942A2719F4E2E0E0934307E3E0BA
:10324E00E093440701C1E730A0E0FA0709F08BC014
:10325E00E0910B05E03019F4E0E2E0930B05E6E0B7
:10326E000E9427270E942F270E9454270E94322750
:10327E00BF01A0910B050E945727BF01A0910B051E
:10328E000E944B270E94BE240E945D270E94E825C3
:10329E00EC91E03041F0FD01A081A03221F0E091EF
:1032AE0053050E1708F008C00E9435270E94E3252B
:1032BE00E081EC930F5FEACF0E9412270E946627EF
:1032CE000E945D270E94E825EC91E03021F0FD017F
:1032DE00A081A03209F404C0E09153050E1708F046
:1032EE0008C00E9435270E94E325E081EC930F5F12
:1032FE00E9CF0E9412270E9466270E945D270E9436
:10330E00E825EC91E03021F0FD01A081A03209F416
:10331E0004C0E09153050E1708F008C00E9435272F
:10332E000E94E325E081EC930F5FE9CF0E94122704
:10333E000E946627E1E0E0935305A0910B050E94E1
:10334E000A1C0E941227A0915405A0830E941227E6
:10335E00ACE70E942A2719F4E2E0E0934307E6E087
:10336E00E093440771C0E930A0E0FA0731F5E0912F
:10337E000C05E03019F4E0E2E0930B05E6E00E9464
:10338E0027270E942F270E9454270E945427BF01EF
:10339E00A0910C050E945727BF01A0910C050E9419
:1033AE006927E05DDB010E94222719F4E2E0E09339
:1033BE004307E6E0E093440747C0EA30A0E0FA078F
:1033CE0009F042C0E0910D05E03019F4E0E2E0931F
:1033DE000D05E7E00E9427270E942F27AEE4A08369
:1033EE000E9412270E943227BF01A0910D050E9454
:1033FE005727BF01A0910D050E944B270E947624EE
:10340E00E0E1E0935305A0910D050E940A1C00E037
:10341E000E94E325E081E03021F0E09153050E1784
:10342E0008F008C00E9435270E94E325E081EC9346
:10343E000F5FEECFE0914307E03019F4E2E0E09346
:10344E004307E3E0E093440710937B05E12FF0E0A0
:10345E00E458FA4FA0E0A0837894E2E0E51509F075
:10346E005FC0E0E0E0930E05E093BB05EBEBF5E00B
:10347E00FA93EA93EBE7F5E0FA93EA93A6E00E945B
:10348E00C023ABEBB5E00E949B237E2EE6E0E71552
:10349E0008F47E2E0E946F27AEE2A0830E946F2753
:1034AE00DF01E09109050E947527DF01E0915007C9
:1034BE000E947527DF01E09151070E947527BF0119
:1034CE00A09146070E9469270E947927BF01A0910B
:1034DE004707B0E0EAE0F0E00E94A1280E947927B9
:1034EE00BF01A09145070E9469270E947927AEE28D
:1034FE00A0830E946F27A0E0A0830E946F27A0E008
:10350E00A0830E94ED260E94F226AAEFB0E00E9450
:10351E006528E0E0E093BB050E94ED260E94F226AE
:10352E00E0E0E093CB0599241A9AE2E04E2AE0E01F
:10353E00ECB95698559A1981088123960895AA9345
:10354E000E947E27689423F8A88104DD0C94C31C86
:10355E00E0E0E09309050E947E27E89423F80895A1
:10356E00E0E0E09345074424E89423F8E093510704
:10357E00E0935007EDDF609009050895AA93E0E00F
:10358E00E0930A05E09318070E94F824CC24E88102
:10359E00E09308050C94C31C1A930A9316E000E0FE
:1035AE000E94BE240E9484270E945B250E94E32570
:1035BE00A0E0A083E2E0E51591F4E0E0F5E0FA93F7
:1035CE00EA93AEE0B5E00E94B30E0E945E26E1E003
:1035DE00F5E0FA93EA93A2E0B5E00E94B30E0E94E2
:1035EE008C27A081AC3721F0E09153050E1708F01F
:1035FE0009C00E94E8250E948C27E081EC931F5F92
:10360E000F5FEDCF0E94E325A0E0A083E2E0E51579
:10361E0081F40E943325A3E0B5E00E94B30E0E9410
:10362E005E26E4E0F5E0FA93EA93A5E0B5E00E94A9
:10363E00B30E0E948C27A081AC3709F41F5F0E9445
:10364E0091270E9484270E945B250E94E325A0E01B
:10365E00A0830E948C27A081AC3721F0E091530506
:10366E000E1708F003C00E949627F3CF0E94E325A1
:10367E00A0E0A0830E948C27A081AC3709F41F5FC5
:10368E000E9491270E9484270E945B250E94E325B9
:10369E00A0E0A0830E948C27A081AC3721F0E0919E
:1036AE0053050E1708F003C00E949627F3CF0E9411
:1036BE00E325A0E0A0830E948C27A081AC3709F4FB
:1036CE001F5FA0910C050E94F21B6FC01A93109100
:1036DE0069050DD0E0936905103011F4E11719F466
:1036EE00E0E00C94E31CE09169050C94E31C1A9342
:1036FE000A93C69810E10E94A42700E00430E8F572
:10370E0014FF0CC0B29B02C0E1E04FC0B39B02C0DD
:10371E00E2E04BC0B49B02C0E3E047C015FF0CC013
:10372E00B29B02C0E4E041C0B39B02C0E5E03DC0E5
:10373E00B49B02C0E6E039C016FF0CC0B29B02C0BB
:10374E00E7E033C0B39B02C0E8E02FC0B49B02C0D9
:10375E00E9E02BC017FF0CC0B29B02C0E8E125C008
:10376E00B39B02C0EAE021C0B49B02C0E1E11DC0E0
:10377E00110F0E94A4270F5FC1CFE3B1EF70E3B921
:10378E00C69A00E00E3118F400000F5FFBCFB29B1B
:10379E0002C0E5E10AC0B39B02C0E7E106C0B49BDC
:1037AE0002C0E6E102C0C698E0E0099119910895C1
:1037BE001A930E943325A4E1B2E00E948E2311E0F9
:1037CE00E0916505E11728F0A895A12F04D01F5FA1
:1037DE00F7CF0C94E31C0E94AB2710E0E091530549
:1037EE001E1710F4103108F00DC0AEE4B5E00E94C3
:1037FE0051263197DF010E943825E0810E94D028A2
:10380E001F5FECCF72C00E94AB270E943325A4E14C
:10381E00B2E00E948E2310E0E09153051E1710F4C3
:10382E00103108F00FC00E9438250F01AEE4B5E04C
:10383E000E9451263197DF010E94C428D001EC93DB
:10384E001F5FEACF0E943825A0E0A0834EC0A0E300
:10385E0087D0A0E385D0A0E383D0A0E381D0A0E2FF
:10386E007FD0A8E276D0A0E174D0ACE072D0A6E012
:10387E0070D0A1E06ED001D00895AA98AB98A8E4BC
:10388E0068D0A4E00E94C8270E94CD270E94D327AB
:10389E00A0E052D00E94D327A4E04ED0AFE10E9408
:1038AE00C827A4E049D0A0E047D0A4E045D0A4E0CA
:1038BE000E94C827A1E140D00E94CD27A0E03CD0B5
:1038CE00A0E03AD00895AA930E94E32830E0EC815C
:1038DE003E1758F400E010E00436E0E01E0718F43E
:1038EE000F5F1F4FF9CF3F5FF2CF0E94EA28259658
:1038FE000895AA931A93A981A0582BD010E01031E5
:10390E0040F4AA81BB81EE27A10FBE1FEC91E030DF
:10391E0009F409C0AA81BB81EE27A10FBE1FAC918D
:10392E000BD01F5FECCF103120F4A0E205D01F5F4B
:10393E00FACF1881249608950E94DC27E4600E9435
:10394E00E7270E94EB27E07FE4600E94E727AA9812
:10395E0013C00E94DC270E94E7270E94EB2709C0B4
:10396E00AA93A5E0B0DFE5B3EF70E5BBE5B3AE2FEC
:10397E00E881E07F0E94E727219608951A9310E8C8
:10398E00AF9AEFE7E4BBAB9AAA9817FF0FC0AF9AB6
:10399E00000000000000A99A00000000000013B310
:1039AE0017FF13B3AF98A99809D0EFCFEFEFE4BB91
:1039BE00E5B3EF70E5BBAB981991089500000000D8
:1039CE00A99A000000000000A998000000000895C8
:1039DE00BA93AA931A93A0910605A13009F0C9C211
:1039EE00E0910705E03009F024C1EB81FC813097AE
:1039FE0039F40E94D825A6E2B2E00E94F32718C13E
:103A0E00E130A0E0FA0739F40E94D825A7E3B2E02E
:103A1E000E948E230DC1E230A0E0FA0739F40E9415
:103A2E00D825A8E4B2E00E948E2302C1E330A0E0C4
:103A3E00FA0739F40E94D825A2E5B2E00E948E233F
:103A4E00F7C0E430A0E0FA0739F40E94D825AEE5BD
:103A5E00B2E00E948E23ECC0E530A0E0FA0739F404
:103A6E000E94D825A8E6B2E00E948E23E1C0E7307E
:103A7E00A0E0FA0739F40E94D825AEE5B2E00E9424
:103A8E008E23D6C0E830A0E0FA0739F40E94D8257C
:103A9E00A5E7B2E00E948E23CBC0E930A0E0FA0782
:103AAE0039F40E94D825A6E8B2E00E948E23C0C049
:103ABE00EA30A0E0FA0739F40E94D825A0E9B2E076
:103ACE000E948E23B5C0EB30A0E0FA0739F40E94B5
:103ADE00D825ADE9B2E00E948E23AAC0EC30A0E05A
:103AEE00FA0739F40E94D825A7EAB2E00E948E2385
:103AFE009FC0ED30A0E0FA0739F40E94D825A3EB61
:103B0E00B2E00E948E2394C0EE30A0E0FA0739F4A2
:103B1E000E94D825A0ECB2E00E948E2389C0EF301F
:103B2E00A0E0FA0789F40E94D825ACECB2E00E941E
:103B3E008E23E0910B05E03011F0E15001C0E0E280
:103B4E00EA930E94002874C0E031A0E0FA0739F42D
:103B5E000E94D825A9EDB2E00E948E2369C0E13102
:103B6E00A0E0FA0789F40E94D825A7EEB2E00E94E1
:103B7E008E23E0910C05E03011F0E15001C0E0E23F
:103B8E00EA930E94002854C0E231A0E0FA0739F40B
:103B9E000E94D825A5EFB2E00E948E2349C0E331E2
:103BAE00A0E0FA0739F40E94D825A3E0B3E00E9402
:103BBE008E233EC0E431A0E0FA0739F40E94D825E6
:103BCE00A4E1B3E00E948E2333C0E531A0E0FA07F2
:103BDE0039F40E94D825A1E2B3E00E948E2328C0BA
:103BEE00E631A0E0FA0789F40E94D825ADE2B3E0F1
:103BFE000E948E23E0910D05E03011F0E15001C0DE
:103C0E00E0E2EA930E94002813C0E731A0E0FA0731
:103C1E0049F40E94D825ABE3B3E00E9404280E9429
:103C2E000A2806C0E831A0E0FA0711F40E94102815
:103C3E009FC1EB81FC81309761F40E94D825A9E4E5
:103C4E00B3E00E94382810F0E2E001C0E8E0E09313
:103C5E006605AB81BC81129731F40E94D825A4E58C
:103C6E00B3E00E943F28AB81BC81139731F40E94D0
:103C7E00D825A1E6B3E00E943F28AB81BC81149702
:103C8E0031F40E94D825ADE6B3E00E943F28AB8107
:103C9E00BC81119731F40E94D825A7E7B3E00E94AA
:103CAE003F28AB81BC81169731F40E94D825AFE72F
:103CBE00B3E00E943F28AB81BC81159731F40E947E
:103CCE00D825A0E9B3E00E943F28AB81BC811797AD
:103CDE0031F40E94D825AEE9B3E00E943F28AB81B3
:103CEE00BC81189731F40E94D825A7EAB3E00E9450
:103CFE003F28AB81BC811A9731F40E94D825A3EBE3
:103D0E00B3E00E943F28AB81BC811B9731F40E9427
:103D1E00D825AAEBB3E00E943F28AB81BC811C974B
:103D2E0031F40E94D825A9ECB3E00E943F28AB8164
:103D3E00BC81199731F40E94D825A8EDB3E00E94FA
:103D4E003F28AB81BC81A238E0E0BE0731F40E946F
:103D5E00D825A8EEB3E00E944528AB81BC81AF38D0
:103D6E00E0E0BE0731F40E94D825A4EFB3E00E9434
:103D7E004528AB81BC81AC39E0E0BE0731F40E942E
:103D8E00D825A2E0B4E00E944528AB81BC81A537BE
:103D9E00E0E0BE0731F40E94D825A0E1B4E00E9415
:103DAE004528AB81BC815A9731F40E94D825AEE1EB
:103DBE00B4E00E944528AB81BC81979731F40E94F4
:103DCE00D825ABE2B4E00E948E23AB81BC81D497A0
:103DDE0031F40E94D825ABE3B4E00E948E23AB8170
:103DEE00BC811D9731F40E94D825A9E4B4E00E944D
:103DFE004528AB81BC81AE34E0E0BE0731F40E94B1
:103E0E00D825A6E5B4E00E944528AB81BC81A1343B
:103E1E00E0E0BE0791F5A0916805A13031F40E9453
:103E2E00D825A4E6B4E00E948E23A0916805A230A6
:103E3E0031F40E94D825AFE6B4E00E948E23A09103
:103E4E006805A33031F40E94D825ACE7B4E00E9497
:103E5E008E23A0916805A43031F40E94D825A9E8DC
:103E6E00B4E00E948E23A0916805A53031F40E9423
:103E7E00D825A3E9B4E00E948E23AB81BC81AB357B
:103E8E00E0E0BE0709F05AC0A0916805A13031F4F8
:103E9E000E94D825ADE9B4E00E948E23A09168055A
:103EAE00A23031F40E94D825ABEAB4E00E948E23F2
:103EBE00A0916805A33031F40E94D825ACEBB4E094
:103ECE000E948E23A0916805A43031F40E94D8255B
:103EDE00ADECB4E00E948E23A0916805A53031F4BC
:103EEE000E94D825AEEDB4E00E948E23A091680505
:103EFE00A63031F40E94D825AFEEB4E00E948E2396
:103F0E00A0916805A73031F40E94D825AEEFB4E039
:103F1E000E948E23A0916805A83031F40E94D82506
:103F2E00ACE0B5E00E948E23A0916805A93031F473
:103F3E000E94D825ADE1B5E00E948E23AB81BC81F5
:103F4E00A836E0E0BE07A1F4A0916805A13031F4D7
:103F5E000E94D825ADE2B5E00E948E23A09168059F
:103F6E00A23031F40E94D825A8E3B5E00E948E233A
:103F7E00D2C2E0910605E03009F0CDC2E09107050E
:103F8E00E03009F029C1EB81FC81309739F40E94B1
:103F9E00D825A6E4B5E00E94F3271DC1E130A0E0CC
:103FAE00FA0739F40E94D825A7E5B5E00E948E23C2
:103FBE0012C1E230A0E0FA0739F40E94D825A7E634
:103FCE00B5E00E948E2307C1E330A0E0FA0739F472
:103FDE000E94D825A8E7B5E00E948E23FCC0E430ED
:103FEE00A0E0FA0729F40E94D8250E944B28F3C0BE
:103FFE00E530A0E0FA0739F40E94D825AAE9B5E029
:10400E000E948E23E8C0E730A0E0FA0729F40E9450
:10401E00D8250E944B28DFC0E830A0E0FA0739F41B
:10402E000E94D825ABEAB5E00E948E23D4C0E930B9
:10403E00A0E0FA0739F40E94D825AAEBB5E00E9459
:10404E008E23C9C0EA30A0E0FA0739F40E94D825C1
:10405E00AAECB5E00E948E23BEC0EB30A0E0FA07BA
:10406E0039F40E94D825A9EDB5E00E948E23B3C085
:10407E00EC30A0E0FA0739F40E94D825A8EEB5E09E
:10408E000E948E23A8C0ED30A0E0FA0739F40E94FA
:10409E00D825A6EFB5E00E948E239DC0EE30A0E09D
:1040AE00FA0729F40E94D8250E944B2894C0EF30BD
:1040BE00A0E0FA0789F40E94D825A3E0B6E00E949A
:1040CE008E23E0910B05E03011F0E15001C0E0E2EB
:1040DE00EA930E9400287FC0E031A0E0FA0739F48D
:1040EE000E94D825AFE0B6E00E948E2374C0E13165
:1040FE00A0E0FA0789F40E94D825ACE1B6E00E9450
:10410E008E23E0910C05E03011F0E15001C0E0E2A9
:10411E00EA930E9400285FC0E231A0E0FA0739F46A
:10412E000E94D825A9E2B6E00E948E2354C0E33146
:10413E00A0E0FA0739F40E94D825A6E3B6E00E9463
:10414E008E2349C0E431A0E0FA0739F40E94D82545
:10415E00A7E4B6E00E948E233EC0E531A0E0FA0748
:10416E0039F40E94D825A6E5B6E00E948E2333C00E
:10417E00E631A0E0FA0789F40E94D825A5E6B6E05C
:10418E000E948E23E0910D05E03011F0E15001C048
:10419E00E0E2EA930E9400281EC0E731A0E0FA0791
:1041AE0049F40E94D825A4E7B6E00E9404280E9494
:1041BE000A2811C0E831A0E0FA0719F40E9410286D
:1041CE000AC0E931A0E0FA0731F40E94D825A0E830
:1041DE00B6E00E948E239FC1EB81FC81309761F483
:1041EE000E94D825AAE8B6E00E94382810F0E2E036
:1041FE0001C0E8E0E0936605AB81BC81129731F413
:10420E000E94D825A6E9B6E00E943F28AB81BC816A
:10421E00139731F40E94D825A4EAB6E00E943F28F5
:10422E00AB81BC81149731F40E94D825A0EBB6E087
:10423E000E943F28AB81BC81119731F40E94D82592
:10424E00ACEBB6E00E943F28AB81BC81169731F4EF
:10425E000E94D825ABECB6E00E943F28AB81BC8112
:10426E00159731F40E94D825ABEDB6E00E943F2899
:10427E00AB81BC81179731F40E94D825ABEEB6E026
:10428E000E943F28AB81BC81189731F40E94D8253B
:10429E00AAEFB6E00E943F28AB81BC811A9731F499
:1042AE000E94D825A6E0B7E00E943F28AB81BC81D2
:1042BE001B9731F40E94D825A7E1B7E00E943F2852
:1042CE00AB81BC811C9731F40E94D825A5E2B7E0E2
:1042DE000E943F28AB81BC81199731F40E94D825EA
:1042EE00A3E3B7E00E943F28AB81BC81A238E0E097
:1042FE00BE0731F40E94D825A2E4B7E00E944528FB
:10430E00AB81BC81AF38E0E0BE0731F40E94D82506
:10431E00AFE4B7E00E944528AB81BC81AC39E0E048
:10432E00BE0731F40E94D825AEE5B7E00E944528BD
:10433E00AB81BC81A537E0E0BE0731F40E94D825E1
:10434E00ADE6B7E00E944528AB81BC815A9731F4A7
:10435E000E94D825ACE7B7E00E944528AB81BC810E
:10436E00979731F40E94D825A8E8B7E00E948E23D3
:10437E00AB81BC81D49731F40E94D825A8E9B7E06F
:10438E000E948E23AB81BC811D9731F40E94D825EB
:10439E00A8EAB7E00E944528AB81BC81AE34E0E0CC
:1043AE00BE0731F40E94D825A3EBB7E00E94452842
:1043BE00AB81BC81A134E0E0BE0791F5A091680508
:1043CE00A13031F40E94D825A1ECB7E00E948E23D3
:1043DE00A0916805A23031F40E94D825AEECB7E06A
:1043EE000E948E23A0916805A33031F40E94D82537
:1043FE00AEEDB7E00E948E23A0916805A43031F493
:10440E000E94D825ABEEB7E00E948E23A0916805DE
:10441E00A53031F40E94D825A8EFB7E00E948E2374
:10442E00AB81BC81AB35E0E0BE0709F05AC0A0916C
:10443E006805A13031F40E94D825A4E0B8E00E94AE
:10444E008E23A0916805A23031F40E94D825A5E1F3
:10445E00B8E00E948E23A0916805A33031F40E942B
:10446E00D825A6E2B8E00E948E23A0916805A4305C
:10447E0031F40E94D825A2E3B8E00E948E23A091C9
:10448E006805A53031F40E94D825A3E4B8E00E9457
:10449E008E23A0916805A63031F40E94D825A2E59E
:1044AE00B8E00E948E23A0916805A73031F40E94D7
:1044BE00D825AFE5B8E00E948E23A0916805A830FC
:1044CE0031F40E94D825ACE6B8E00E948E23A0916C
:1044DE006805A93031F40E94D825A4E7B8E00E94FF
:1044EE008E23AB81BC81A836E0E0BE07A1F4A0917B
:1044FE006805A13031F40E94D825A3E8B8E00E94E7
:10450E008E23A0916805A23031F40E94D825ADE823
:10451E00B8E00E948E23A981BA810E949B231E2F90
:10452E00103130F40E94DD25E0E2EC931F5FF8CFEE
:10453E00188125960895BA93AA932497A0910605FB
:10454E00A130E9F4AE81A43658F40E944F28E883D6
:10455E00AE810E946927E05DE983E0E0EA830EC048
:10456E00AE810E948226E883AE81B0E00E941D27B4
:10457E000E945728E05DEA83E0E0EB831EC0E091E5
:10458E000605E03011F5AE81A43648F40E944F289E
:10459E000E945728E05DE883E0E0EA830EC0AE811A
:1045AE000E948226EA83AE81B0E00E941D270E94FF
:1045BE005728E05DE883E0E0EB83EC81FD81FA9320
:1045CE00EA93DE0112960E94692327960895BA9304
:1045DE00AA931A930A93A0910605A130E9F100E07F
:1045EE000830D0F50E945A281C91E02FAA81BB8179
:1045FE00F0E0EA0FFB1FBF010E946028AA81BB8179
:10460E00AE0FBF1FEC91DB01EC930E946028AA81D4
:10461E00BB81EA0FFB1F10830E945A28AC91A03E6B
:10462E0028F00E945A28AC91AB3F08F005C00E94BA
:10463E005A28EC91E054EC93103E10F01B3F08F01A
:10464E0009C00E946028AA81BB81AE0FBF1FEC91EA
:10465E00E054EC930F5FC4CF19810881249608951E
:10466E00959A089595980895BA93AA93A991B99198
:10467E00E991F99130962AF4E095F09531966DE234
:10468E006D93E89480E197E20DD088EE93E00AD026
:10469E0084E6992707D08AE005D06E2F10D06627C2
:1046AE006C9308956627E817F90720F06395E81BC9
:1046BE00F90BC9F7662311F416F008956894605D3E
:1046CE006D930895BA93AA93E991F991A991B9912D
:1046DE00CD016D916623E9F7119761916D93662374
:1046EE00E1F7FC010895BA93AA93E991F991A99182
:1046FE00B9911D900590011421F40020D1F7EE27F9
:10470E0008951018E1F3E1E008F4E2500895BA9329
:10471E00AA93E991F991A991B991CD0105900D92C4
:10472E000020E1F7FC010895BA93AA93A991B991DB
:10473E00EE27FF276D91662311F03196FBCF08957A
:10474E00AA93002411246991E991F991A991B99143
:10475E00662349F06A951D900590011421F40020FE
:10476E00B9F7EE2708951018E1F3E1E008F4E250EE
:10477E000895AA937991E991F991A991B991CD01F1
:10478E00772351F07A9561916D936623C9F777235C
:10479E0019F07A956D93FBCFFC010895AA93BA9305
:1047AE00EA93FA93EFB7EA930895E091CB05F0E020
:1047BE00E558FA4FE0810895E0E0E0930007E093BA
:1047CE00F9060895E1E6F0E0E0935005F093510507
:1047DE000895E6E0E0935305E4E5F5E0FA93EA93F5
:1047EE0008950E948E23A1E00C94F21BE0E0E0936A
:1047FE003607E0933D07CC240895E091FA06EF5F6B
:10480E00E0930207EAEFF0E0E0933E07F0933F07F4
:10481E00E1E0E09303070895EAEFF0E0E0933E074E
:10482E00F0933F070895E0E0E0931107E09312073D
:10483E00E1E0F0E0E0931307F09314070895E0E051
:10484E00E0930C05E0930B050895E0E3F7E0FA938F
:10485E00EA93A09136070C94FE13E1E0E09307056E
:10486E00E0E0E0931A070895A0911107B0911207A6
:10487E000895E0931307F09314070895E091290724
:10488E00F0E03197EC5AFA4F0895EDE6F0E0E09340
:10489E005005F09351050895E0936505E6E0E09329
:1048AE0053050895E3E0E0930705E1E0E093680522
:1048BE00E0932907E0932A070895E2E0E0930705C5
:1048CE00E1E0E0936805E0932907E0932A07089555
:1048DE00E7E6F0E0E0935005F09351050895E5EE1C
:1048EE00F0E0E0935005F09351050895E0936505CF
:1048FE00E0E1E09353050895E0930705E1E0E093CE
:10490E006805E0932907E0E0E0932D07E0932C077C
:10491E00E1E0E0932A070895E5EEF8E0E093500514
:10492E00F09351050895E0936505E3E0E093530598
:10493E00E2E0E2CFE5E6FAE0E0935005F0935105B0
:10494E000895E4E7FAE0E0935005F09351050895D9
:10495E00E0E4F0E0E0935005F09351050895EDE7A3
:10496E00FAE0E0935005F0935105E0E0BFCFEDE79C
:10497E00FAE0E0935005F09351050895A091680573
:10498E000C940A1CE0E0E0936805E0931A07E093AC
:10499E0007050895AD2D0E942814CE2EE3E0E09376
:1049AE001707A1E00C942015E3E0E0931707A1E0B0
:1049BE000895E5E0E0931707A2E00895E1E0E093A3
:1049CE001B07E0E0E0931107E0931207E0911B074D
:1049DE00F0E04ADFEA0FFB1F4CDFE0E0E093360722
:1049EE00E3CFE0E0E093F706E09336070895E09119
:1049FE001B07F0E039DFEA0FFB1F3BCFE0931107F7
:104A0E00F09312070895A09168050C94F21BE1E053
:104A1E00E0932907E0E0E0932D07E0932C0708953B
:104A2E00E1E0E0935305A3E00C940A1CA3E00E947E
:104A3E00D70EE0915405EF700895E0E1E093530531
:104A4E00A1E00E940A1CE4E5F5E0FA93EA93E6EB96
:104A5E00F0E0FA93EA930895E4E5F5E0FA93EA9329
:104A6E000895E12FF0E0EC5AFA4F0895E0912C07EB
:104A7E00EF5FE0932C0708951E2FA0912C07A33013
:104A8E000895E0911107F0911207FA93EA93A0EDC1
:104A9E00B5E00C94EF1CA0EEB5E00C94EE22E0EE27
:104AAE00F5E0FA93EA930895A1ECB0E00C948E230E
:104ABE00E0EDF5E0FA93EA930895AC2DB0E0E4E66C
:104ACE00F0E00E9499280895AC2DB0E0EAE0F0E005
:104ADE000E949928DF01EAE0F0E00E94A128E05D43
:104AEE00E093DE05AC2DBB27EAE0F0E00E94A128A2
:104AFE00E05D0895AC2DB0E0EAE0F0E00E94992868
:104B0E000895E093DD05AC2DBB27EAE0F0E00E94AE
:104B1E00A128E05DE093DE050895E093DE05AC2D5F
:104B2E00BB27EAE0F0E00E94A128E05DE093DD05FE
:104B3E000895DF01EAE0F0E00E94A128E05D08950B
:104B4E00AC2DBB27EAE0F0E00E94A128E05D0895BD
:104B5E00BB27EAE0F0E00E94A128E05DE093E505C6
:104B6E000895E0911307F0911407FA93EA93A0EEDB
:104B7E00B5E00C94EF1CA0EDB5E00C94EE22A0EE87
:104B8E00B5E00C94AE0EEA81FB81FA93EA93A0E0B5
:104B9E000E94801CE881F981FA93EA93A0E40C94B8
:104BAE00801CE981FA81FA93EA930895A981BA816A
:104BBE00EE27A10FBE1F0895E02FF0E0EC5AFA4F3A
:104BCE000895A02FB0E0AC5ABA4F08950E94BD28A8
:104BDE00EA1BFB0B0895E0935305A1E00E940A1C0B
:104BEE00A1E00E94D70EE0915405EF700895E09178
:104BFE005505EF70AAE0EA02F001AE2FE0915605DE
:104C0E00EF70EA0F0895A2E00E940A1CA2E00E9433
:104C1E00D70EE0915405EF700895A7EAB1E00E9417
:104C2E008E23A3E00C94F21BA4E00E940A1CA4E0C5
:104C3E000E94D70EE0915405EF700895A5E00E94F2
:104C4E000A1CA5E00E94D70EE0915405EF7008955E
:104C5E00E0915405EF70A4E6EA02602DE09155054F
:104C6E00EF70AAE0EA02F001A62FAE0FE091560512
:104C7E000895A5EAB1E00E948E23A2E00C94F21BE7
:104C8E00A0910607B09107070895E0930607F093E9
:104C9E0007070895ED91FD913196FE93EE930895D9
:104CAE00A1EAB1E00E948E23A3E00C94F21BA4EFC4
:104CBE00B1E00C946528E0935305CECEA5EAB1E0A1
:104CCE000C948E230E94F21BC7CEA9E00E940A1CF0
:104CDE00A0915405A1330895A12FB0E0EAE0F0E0D1
:104CEE000E9499280895A12FBB27EAE0F0E00E94C8
:104CFE00A128E05D0895B0E0E4E6F0E00E94992876
:104D0E00E05D0895AAE0EA02F001AE2F0895AAE050
:104D1E00EA02F001A62FAE0F08950E940A1CFE01B2
:104D2E003296FA93EA930895E12FF0E03197EB581B
:104D3E00F94F0895AB81BC81EE27A10FBE1F0C90D9
:104D4E0035CFE0930807F09309070895E0E0E0936C
:104D5E008A001B980895A0910807B091090708953D
:104D6E00E0911707ACE0EA9FF001E058FF4F8DCFBE
:104D7E00E1E0F0E0E6CFEFDFE6E0F0E00E949E2813
:104D8E0030970895E0EDFFEFE0930C07F0930D07D9
:104D9E000895E0E0E0930C07E0930D070895E0918D
:104DAE001707F0E03396ACE0B0E00E948128A0E84F
:104DBE00B0E00CCF65DFAE17BF070895E0E0E093DB
:104DCE006A05EAE6F5E0FA93EA930895EEE0F5E077
:104DDE00FA93EA930895ABEBB5E00C94B30EE0E0D2
:104DEE00E0930905A0E00C94A61AE0911305E05398
:104DFE00A4E6EA02602DE0911105E05388CFE09120
:104E0E005107A0915007AE170895E0915007F0E0BA
:104E1E00EA5BF84F08951F5FE12FF0E0E558FA4F77
:104E2E000895AC2D0E94F014F0E00895EAE0F0E051
:104E3E000E9499287ECEEC93E0914307E0300895CE
:104E4E00E0930905E8CFA083E0914307E030089591
:104E5E00A0E5A083E0CFA3E5A083DDCF1F5FA12F48
:104E6E00B0E0A558BA4F0895BF01A0910A07B091BE
:104E7E000B0708950E948628E05DDB01EC93CBCFF3
:104E8E00E05DDB01EC93C7CFBB27EAE0F0E00E94C8
:104E9E00A128E05DDB01EC930895A7E4A083BBCFCE
:104EAE00B0E0EAE0F0E00E949928EACFE0E1E0937A
:104EBE005305A0910B050E940A1C00E00895ACE773
:104ECE00A08355CDBB27EAE0F0E00E94A12808950B
:104EDE00E72D7394F0E0E554FA4F0895EF70E05D1E
:104EEE00EC93F6CFEF70E05DDB01EC93F1CFE0E0F9
:104EFE00E0934407E09343070895E0E1E093530500
:104F0E00E0E0E093650500E0A7CDE12FF0E0E25F81
:104F1E00FA4F0895A0910C050E94F21B28CDE02FA8
:104F2E000F5FF0E0EC5AFA4FDF01E12F1F5FF0E068
:104F3E00E25FFA4FE081EC930895E3B1EF70E3B9CD
:104F4E00E3B1E12BE3B90895AA930E94E328EC8123
:104F5E00E0935205F0E031979F01E0915005F091FA
:104F6E005105E050F040BF01E0915305F0E0D9014A
:104F7E000E948128E60FF71FE0934E05F0934F0530
:104F8E0008950E94A31CAEE00C94A31CAFE10E94F6
:104F9E00A31CA4E00C94A31CA4E00E94A31CA4E0F8
:104FAE000E94A31CA4E00C94A31CAA930E94C51CEF
:104FBE00E5B3EF70E5BBE5B3AE2FE881E07F089572
:104FCE00EA2BE5BB0C94E51CE5B3EF70E5BBE5B34E
:104FDE00AE2FE881E29508950E948E23A981BA81B1
:104FEE001D96E1E0EC93A981BA811F96E2E0EC9365
:104FFE000895AA81BB810C94A2220E948E23E09177
:10500E001105EF707FCEE0911205EF70EA0FEA9373
:10501E00F0CFE0911705A981BA81EC93E0911605C6
:10502E00A981BA811196EC93E0911505A981BA81F7
:10503E001296EC93E0911405A981BA811396EC9324
:10504E00E0911305A981BA811496EC93A981BA81D6
:10505E001696E0E2EC93A981BA811796E0E0EC9304
:10506E0008950E948E23A0E020FCA1E0A1300895B7
:10507E000E948E23E2E0E093670508950E948E233E
:10508E00E0916805EA93B5CFA9E8B5E00C948E23BC
:10509E00AE81B0E0EAE0F0E00E949928E05D08956C
:1050AE00E983AE810FCFAA81BB81EE27A00FBE1F71
:1050BE000895E02FF0E0AFE0B0E088CD109639F023
:1050CE0088EE93E00197F1F7A8951197C9F7089527
:1050DE00F195E195F0400895FA9FF02DEB9FF00DBC
:1050EE00EA9FE02DF10D08956E2F6A9FF0016B9FE0
:1050FE00F00D08952DD0F0DF0EF4EADF08950024B0
:10510E00112490E1AA0FBB1F001C111C0E1A1F0ABE
:10511E0018F40E0E1F1E01C0A1609A9599F7FD019D
:10512E00D001089515D0EBDF0EF4D2DF0895E7DF3E
:10513E00FD010895E894B7FF04C0A095B0951196AF
:10514E006894F7FDC5DFDBDFFD010EF4C1DF0895C6
:10515E00E894F7FF02C0BCDF6894B7FF06C0A095C5
:10516E00B095119600F8039400FA08951B2EBF2FE8
:10517E00F12D1A2EAE2FE12D0895E199FECFFF935A
:10518E00FFB7F894AEBBBFBBE09AEDB3FFBFFF9184
:10519E000895E19B02C0A895FCCF9FB7F894AEBBD3
:1051AE00BFBBE09A8DB3E81719F0EDBBE29AE19A16
:1051BE009FBF08955A934A933A932A931A930A9348
:1051CE0008955D814C813B812A8119810881089562
:00000001FF
