:080000000C9489020C9400002D
:100008000C9400000C9400000C9400000C94000068
:100018000C9400000C9400000C9400000C94AD0D9E
:100028000C9400000C9400000C9400000C94000048
:100038000C9400000C9400000C947E030C940000B7
:100048000C94BC020C9438030C9422030C9400000A
:100058000C9400000C9400000C9400000C94000018
:100068000C9400000C9400000C9400000C94000008
:100078000C9400000C9400000C9400000C940000F8
:100088000C9400001027E80364000A000100001027
:10009800000110000100000000000000313233347C
:1000A8003536202020202020202020202000332E1C
:1000B800352E3435650020202043616C6C696E67ED
:1000C8002020232020200020436F6E6E6563746516
:1000D8006420202320202000446973636F6E6E65BE
:1000E800637420202320202000506C6561736520F4
:1000F80074616C6B2023202020004E6F2E2020205E
:10010800202070726573732020002020202020207A
:1001180020202020202020202020003033300030D4
:10012800303100303939003031300031383000306A
:100138003230003132330031323334353600323523
:10014800323532350030303000303035003036301E
:100158000041706172746D656E7420233120004116
:10016800706172746D656E74202332200041706175
:1001780072746D656E742023332000F0E020E4EE85
:10018800FAEF2E2E2E00EEE0F8E2EF20F9EEE5FA77
:100198002100202020202020202020202020202076
:1001A8002020000048656C6C6F2C2055736520205A
:1001B8002020202000546F207365617263682061DD
:1001C800206E616D6500546865206C617463680019
:1001D800497320756E6C6F636B6564005761697451
:1001E8002074696C6C00456E64206F662064656CD1
:1001F80061790053797374656D20726573657469EC
:100208006E67004E6F20616E737765720053797365
:1002180074656D206572726F7200436F6E6E6563F0
:1002280074656400506C656173652074616C6B0063
:100238004C696E65206973206275737900506C652E
:10024800617365207761697400F9E5E3F820EEF1E0
:10025800F4F8202300F9E9E3E5F820E4F1FAE9E904
:10026800ED00E4FAF7E1EC20EEF1F4F8202300F7D2
:10027800E1ECE420E4F1FAE9E9EEE400E4F2E1F883
:10028800FA20F9E9E7E420F0EBF9ECE400E7E9E922
:10029800E2EF20ECE020EEE7E5E1F800E7E9E9E24B
:1002A800EF20ECE020EEE7E9E9E200F9E5E3F820E9
:1002B800F9ED20E3E9F8E4202300EEFAE720E1E392
:1002C800E9F8E420230020FAF4F8E9E820F8E0F956
:1002D800E90020F8F9E9EEFA20E4F7E5E3E9ED00B2
:1002E8002020F7E5E320E2E9F9E420002020F7E503
:1002F800E320ECF7E5E7200020F9EEE5FA20E4E357
:10030800E9E9F8E9ED2000F0E9FAE5E120ECF4E9A3
:1003180020E3E9F8E5FA0020E6EEF0E9ED2029F916
:10032800F0E9E5FA282000E4E2E3F8E5FA20F4F041
:10033800EC20E3ECFA00E2E9F8F1FA20FAE5EBF058
:10034800E400E8ECF4E5F0E9ED20ECF4E920E3E979
:10035800F8E400EEF1F4F8E920E8ECF4E5EF2032F7
:1003680000EEF1F4F8E920E8ECF4E5EF203300EED4
:10037800F6E120E4F2E1F8FA20F9E9E7E400E8EC34
:10038800F4E5EF20ECE3E9F8E42000E8ECF4E5EF2D
:10039800203220ECE3E9F8E42000E8ECF4E5EF2073
:1003A8003320ECE3E9F8E42000E4F2E1F8FA20F97C
:1003B800E9E7E420E327200020E4EBF0F120F7E56B
:1003C800E320230020E4EBF0F120F7E5E320E2E965
:1003D800F9E4200020E4EBF0F120F7E5E320ECF766
:1003E800E5E7200020E4EBF0F120F9ED202300F010
:1003F800E9FAE5E120ECE3E9F8E42023002020E62F
:10040800EEEF20E4EEFAF0E4200020E6EEEF20F430
:10041800FAE9E7FA20E3ECFA20002020E6EEEF20E4
:10042800FAE0E5F8E420002020E6EEEF20ECEEF21A
:10043800F0E420002020E6EEEF20F9E9E7E42000D0
:10044800E6E9E4E5E920E3ECFA203120F2E32034A0
:1004580000E4E2E3F8FA20F6ECE9EC20302C312C49
:100468003200E0E9F4E5F120EBECECE92000F0E9FA
:10047800FAE5F720ECE0E7F820F4FAE9E7E400EE23
:10048800F6E120E7E8E9F4FA20F9E9E7E400ECF915
:10049800E3F820E8ECF4E5F0E9ED00ECF7E1EC2016
:1004A800E8ECF4E5F0E9ED00EEF6E120E8F1E8002B
:1004B800E2E9F8F1FA20F4F0EC00E2E9F8F1FA20C8
:1004C800EEEEE9F8000001002D4E414E00494E467F
:1004D8000000010002009E0004000400A0000100CA
:1004E8000005B50001000105B50001000205B500D1
:1004F80001000305B50001000405B500010005056C
:10050800B50001006C06CE040000F894EE27ECBBA1
:10051800F1E0F5BFE5BFE0936C00F8E1F1BDE1BDA6
:100528008DE0A2E0BB27ED938A95E9F780E090E1A2
:10053800A0E0B1E0ED930197E9F7EAEDF4E08591E9
:100548009591009761F0A591B59105901590BF011F
:10055800F00105900D920197E1F7FB01F0CF8BBFF9
:10056800EFEFEDBFE0E1EEBFC0E0D5E00C9488030B
:100578000E94021D1A93AF93BF93EF93FF93AFB7F7
:10058800AF9388241CB1E1E0E2BFE7B7E160E7BFC1
:1005980044FC40C01030B1F1E0917905F0E0E35F30
:1005A800FA4F1083E0910D05F0E03196A09179059E
:1005B800B0E0AE17BF0794F0E7B7EE7FE7BF99202A
:1005C80011F4E1E09E2E191511F4689401C0E89425
:1005D80021F8E0E14E2AE7EF4E2207C0A091790505
:1005E800A13018F0E8E04E2A910EE0917905EF5F0E
:1005F800E0937905E0917905F0E0E35FFA4FA0E038
:10060800A08308C0E7EE4E22E0E0E0937905E89485
:1006180021F89924E0917905F0E03396E134A0E0DF
:10062800FA071CF0E0E0E0937905AF91AFBFFF91C6
:10063800EF91BF91AF9119910C947703EA93EFB7BB
:10064800EA93AF93BF93EF93FF93AFB7AF935698E7
:100658001A989924EDEF4E228824AF91AFBFFF91ED
:10066800EF91BF91AF914CC00E94021DAF93BF9311
:10067800EF93FF93AFB7AF93E091CA05E03029F14C
:10068800E0917A05F0E03196A091CA05B0E0EA174A
:10069800FB071CF45598569A17C0E0917A05A0916B
:1006A800CA05EA1730F4992011F4E1E09E2E9CB8AF
:1006B80006C00E94091D9E0E0E94091DECB9E0911A
:1006C800CA05EF5FE093CA0508C00E94091DECB98E
:1006D800E091CA05EF5FE093CA05AF91AFBFFF9104
:1006E800EF91BF91AF91E991EFBFF991E991B9917C
:1006F800A9911895EA93EFB7EA93E7B7EE7FE7BFBA
:10070800E991EFBFE9911895EFE1E1BDEFE0E1BDB7
:10071800E0E0EBBBEFEFEABBE0E8E8BBE1E2E7BB18
:10072800E0E0E5BBEFEFE4BBE0EDE2BBE2B3EE7B7C
:10073800E2BBE0E0E1BBE1B3ED67E1BBE7E0E3B9D1
:10074800EEEFE2B9E0E0E0936200EFEFE0936100E2
:10075800ECE9E0936500E4E0E0936400E7E0E3BFE0
:10076800E0E0E0BFE1E0E2BFE0E0E1BFEFBDEEBD09
:10077800EDBDECBDEBBDEABDE9BDE8BDE093790098
:10078800E0937800E4BDEAEFE3BDEBE0E5BDE3E428
:10079800E0938B00E0E0E0938A00E0938900E09327
:1007A8008800E1E0E0938700E0E0E0938600E093D2
:1007B8008500E0938400E0938300E0938200E09357
:1007C8006A00EABFE9BFE7B7E068E7BFE7B7E469EF
:1007D800E7BFE7B7EE7FE7BFE0E0E0937D00EBB966
:1007E800E8EDEAB9E6E0E0939500E9E1E9B9E0E08F
:1007F800E0939000E0939B00E0939A00E0939D00C3
:10080800E0939900E0939800E0E8E8B9E0E0E0BD03
:1008180078940E9470160E9405180E94A20E0E94E9
:100828005A10E0E0E0930705689422F8E89421F86C
:10083800E3EBE0932D06E7B7EE7FE7BF559829D2A3
:10084800E8E3E0935B06C09AA8950E943511E09111
:100858006300E87051F4A0911706A33328F4E091DF
:100868001706EF5FE093170603C0E0E0E093170672
:10087800A0911706A23371F40E94101D0E94171D43
:10088800A4EAB0E00E941F1DE3E0E0933406A4E070
:100898000E941E11E0916300E07111F0879904C075
:1008A800A0910605A03009F00AC0A0911E06A33346
:1008B80028F4E0911E06EF5FE0931E0603C0E0E017
:1008C800E0931E06A0911E06A23339F40E94241D4F
:1008D8000E94291DE4E0E0933406E0912006E03010
:1008E80021F4E0912106E03009F418C00E94241D8B
:1008F800E0E0E0932106E0911906E03049F00E941B
:10090800641CE0911906EF5FE09322060E94381DEF
:10091800E1E0E0932306E4E0E0933406E091220668
:10092800E03021F4E0912306E03009F412C0E091B0
:100938000605E03011F40E943F1DE0E0E093230635
:100948000E94661CE0911C06E03019F0A2E00E94AB
:100958008813E0911606E03031F0E0E0E0931606E7
:10096800E3E0E0933406E0913606E03029F0E0E079
:10097800E09336060E944B1DBB20E1F4E5E0BE2E55
:100988000E943317E0933206E030A1F0E0911A0696
:10099800E03021F0EF5FE0931F06A89A7AD2E09149
:1009A8002306E03021F4E0910605E03009F002C0AA
:1009B8000E94381D41FC02C00E941A12B3D425FEC1
:1009C80005C0E89425F8E8E7E0935C0624FE39C002
:1009D800E89424F8E0910605E03039F0E0915C06EF
:1009E800E03019F0E150E0935C06E0915E06E030FB
:1009F80029F1E150E0935E06E030F9F4E0915D06FC
:100A0800E030C9F0E150E0935D06E03081F4A09158
:100A18005F06A03021F4A0910805A03009F004C0B9
:100A2800A6E00E94881302C00E94521D03C0A6E0DF
:100A38000E94881302C00E94521D03C0A6E00E94B3
:100A48008813A0915B06A33020F0A0910605A03082
:100A580009F00FC00E945D1DE13220F4E0915706B5
:100A6800E03009F403C00E945D1DCE2EE0E0E09363
:100A78005706E0915C06E03021F4A0910605A1300C
:100A880008F403C015D014D00AD1A0915A06AE3785
:100A980020F0A0910605A23008F404C0E0E0E0933D
:100AA8005A0634D023FEFECFE89423F8CDCEFFCFEC
:100AB800E0913706E03039F4E0E0E0930605E89489
:100AC80020F8EDD022C00E94651DE0913706F0E0C5
:100AD800E75CF94FE081E09338060E946C1DEDE079
:100AE800F0E00E943F210E94711DE0913806F0E07D
:100AF800A0913006B0913106AE1BBF0BA0932E0615
:100B0800B0932F06E0E0E09367050895A0910605ED
:100B1800A53009F40895E0914706E03049F00E94B5
:100B2800761DE081E09348060E94761DAEE204C07F
:100B38000E94761DA0914806A083A0914706E1E097
:100B4800EA27E09347060895E0E0E0935A060E94FA
:100B58006C1D5A9739F40E947D1DE0E20E94841DA5
:100B68000E948A1D0E946C1D979739F40E94101DDF
:100B7800E1E00E94841D0E94951D0E946C1DD4977F
:100B880039F40E94A01DE1E00E94841D0E94951D79
:100B98000E946C1D1D9739F40E94A71D0E94AE1D6E
:100BA800E4E00E94B51D0E946C1DAE34E0E0BE0773
:100BB80041F40E94C51DE0E2E0936405E2E00E9472
:100BC800CC1D0E946C1DA134E0E0BE0741F40E94D8
:100BD800D01DE5E0E0936405E3E00E94CC1D0E948F
:100BE8006C1DAB35E0E0BE0741F40E94D71DE8E07C
:100BF800E0936405E1E00E94CC1D0E946C1DA836BC
:100C0800E0E0BE0759F40E94DE1DE2E0E0936405CF
:100C1800E6E0E0935205E5E00E94B51D0E946C1DD8
:100C2800A238E0E0BE0731F40E94E51D0E94AE1D27
:100C38000E948A1D0E946C1DAF38E0E0BE0731F4A7
:100C48000E94EC1D0E94AE1D0E948A1D0E946C1D10
:100C5800AC39E0E0BE0731F40E94F31D0E94AE1DDE
:100C68000E948A1D0E946C1DA537E0E0BE0751F462
:100C78000E94FA1DE0E2E0936405E1E0E09352058A
:100C88000E94951DE0916705E03011F00E94011E59
:100C980008950E943F1D0E94051E98D508950E9440
:100CA8003F1D0E94051EE0E0E0935B06E093090506
:100CB800E093150608951A93F2DFA0913206A53144
:100CC80069F4E0E0E0931506D394E0911406ED157D
:100CD80010F4E1E0DE2E0E940D1EDAC0A09132066B
:100CE800A73169F4E0E0E0931506E1E0ED1518F0AE
:100CF800D090140601C0DA940E940D1EC9C0A091BC
:100D08003206A631A9F5E0915706E03041F00E947D
:100D18005D1DE13220F40E945D1DE03011F4CC200D
:100D2800F9F0CC2019F40E945D1DCE2EE1E0F0E030
:100D3800E0935806F0935906E89424F8E0E0E0932D
:100D480035060E947016A1E00E948813E1E0E09346
:100D58001606E0912806E09315060E94171E02C0A9
:100D68000E941C1E0E941E11E0E0E093570690C0EE
:100D7800A0913206A83109F052C0E0E0E0931506D0
:100D880093D61E2F0E94211E309709F040C01130C3
:100D980039F40E94241D0E94291D0E94171E34C088
:100DA800123041F4A0912006A03021F4A09122062F
:100DB800A03009F00BC00E947016689425F8E894DA
:100DC80020F80E94651D0E94261E1EC0133041F4A3
:100DD800A0912006A03021F4A0912206A03009F0AD
:100DE8000EC00E947016689425F8E1E0E0930605AD
:100DF80020F8E0E0E09337060E94261E05C0E0E0F8
:100E0800E09357060E941C1E0E941E1107C0E0E0D6
:100E1800E09357060E941C1E0E941E1139C0A09123
:100E28003206A13010F0AB3008F01FC00E94171E28
:100E38000E941E11CC24DD24A0913206AA3019F498
:100E4800E0E0E0933206E0915706F0E0E35BF94F0B
:100E5800A0913206A083A0915706AA3028F4E09109
:100E68005706EF5FE093570613C0A0913206A131F1
:100E780079F4E0E0E0931506E0935706E1E0E093AB
:100E880036060E94171E0E941E11A2E00E948813B7
:100E980047C2E0910605E03029F4E3E0E093350627
:100EA8000ADF17C1A0910605A13009F05CC0E8E788
:100EB800E0935C06A0913206A53181F4E0916505C6
:100EC800A0913806EA1711F4E1E003C0E091380672
:100ED800EF5FE09338060E94391E44C0A0913206A5
:100EE800A73179F4A0913806A13019F4E09165058D
:100EF80003C0E0913806E150E09338060E94391E9D
:100F080031C0A0913206A63139F5E0916605F0E0CE
:100F18003197A0913706B0E0AE17BF07DCF4E09137
:100F28003706F0E0E75CF94FA0913806A083E0911E
:100F38003706EF5FE0933706E1E0E0933806A091CB
:100F48003006B0913106EDE00E9434210E94401E27
:100F58000E94391EF9DD06C0A0913206A13111F4B4
:100F68000E94451EB0C0E0914706E03009F4CEDD8E
:100F7800E8E7E0935C06A0913206A831F9F40E94F4
:100F88006C1D1D9791F4E0914606EF5FE0934606CD
:100F9800E0E0E0934906E0915205A0914606EA1781
:100FA80018F4E1E0E093460608C0A0910605A330D6
:100FB80021F4E1E0E09346068DD085C0A091320689
:100FC800A531C1F4A0910605A53011F00E944B1E71
:100FD800E0916405A0916705AE1720F4E0916705DC
:100FE800EF5F01C0E1E0E09367050E94011E0E94E7
:100FF8004F1E69C0A0913206A731B9F4A091060529
:10100800A53011F00E944B1EA0916705A23020F078
:10101800E0916705E15002C0E0916405E09367053F
:101028000E944F1E0E94011E4EC0A0913206A1319F
:10103800A9F5A0914606A23048F0E0914606E15095
:10104800E0934606E0E0E093490627C00E944B1E65
:101058000E94D71D0E94581E0E945E1EE0934C06F7
:1010680027DDE0914C06E03019F00E94451E15C0BE
:101078000E94DE1D0E94651EA6E00E94D41CE0307E
:1010880061F00E94741EE6EBF0E0FA93EA93A6E0A2
:101098000E94D41CA1E00E94C31715C0A09132067B
:1010A800A63189F00E946C1D1D9711F44FD00BC01A
:1010B800A0910605A53009F40895A0914606A1302F
:1010C80009F408D017D0E3E0E0933406A1E00E94C9
:1010D8001E1108951A93E0914606E1501E2FE091E3
:1010E80052051E1730F40E94791EA0E2A0831F5FEC
:1010F800F6CF16C1A0913206A13010F0AB3008F03F
:1011080024C0A0913206AA3019F4E0E0E093320638
:101118000E94761DDF01E0913206E05DEC93E091DC
:101128004606EF5FE0934606E0915205A091460619
:10113800EA1740F4E1E0E0934606A0910605A430E2
:1011480009F4C8DFE0E0E093490608951A93E0E067
:10115800E0934A06A0913206A13010F0AB3008F0B7
:10116800DFC0A0913206AA3019F4E0E0E09332061D
:10117800E0913206A0913306EA1711F0E1E003C0CE
:10118800E0914906EF5FE0934906E0913206E0936B
:101198003306A0914906A43041F4A0913206A73045
:1011A80021F0A93011F00E947E1EA0914906A630B8
:1011B80018F0E1E0E0934906A0914906A53029F42A
:1011C800E0913206E05D1E2FA8C0E0914A06E030AB
:1011D80009F08AC0A0913206A130B1F4A091490665
:1011E800A13009F417E2A0914906A23009F41DE2E2
:1011F800A0914906A33009F41EE2A0914906A33044
:1012080011F40E947E1E70C0A0913206A23049F4EB
:10121800E0914906E05C0E94841E11F40E947E1E43
:1012280063C0A0913206A33049F4E0914906ED5B12
:101238000E94841E11F40E947E1E56C0A0913206A0
:10124800A43049F4E0914906EA5B0E94841E11F437
:101258000E947E1E49C0A0913206A53049F4E09153
:101268004906E75B0E94841E11F40E947E1E3CC062
:10127800A0913206A63049F4E0914906E45B0E9449
:10128800841E11F40E947E1E2FC0A0913206A73042
:1012980029F4E0914906E15B1E2F26C0A091320691
:1012A800A83049F4E0914906ED5A0E94841E11F4D1
:1012B8000E947E1E19C0A0913206A93029F4E0913F
:1012C8004906EA5A1E2F10C0E0914906E35C6E2FCA
:1012D800E0913206A3E0EA02F001E60F1E2FA0918A
:1012E8004A06A23009F4105EE0913206E030A9F413
:1012F800A0914906A13009F410E2A0914906A23054
:1013080009F418E2A0914906A33009F419E2A09162
:101318004906A33011F40E947E1E0E94761D108398
:10132800199108950E94891EA0910605A03011F018
:10133800A13009F40AC0AFEDB5E069D1A091060566
:10134800A43011F40E94901E4FC1CC2021F0E091EE
:101358001506E03009F469C00E94A71D0E94941E7A
:10136800E0910905F0E0309739F40E949A1EAEEB3F
:10137800B0E00E94BB1C2BC0E130A0E0FA0739F4B2
:101388000E949A1EAFECB0E00E94BB1C20C0E43063
:10139800A0E0FA0739F40E949A1EA0EEB0E00E947D
:1013A800BB1C15C0E230A0E0FA0739F40E949A1E6F
:1013B800A0EEB0E00E94BB1C0AC0E530A0E0FA072E
:1013C80031F40E949A1EA1EFB0E00E94BB1C0E945B
:1013D8009F1E3097A1F00E949F1EE05DE093DC0500
:1013E8000E94A61E0E945221E05DE093DD050E9446
:1013F800A61E0E945A21E05DE093DE0512C00E94FD
:10140800AE1E309751F00E94AE1EE05DE093DC0501
:101418000E94B51EE093DD0504C00E94B51EE0934E
:10142800DC05AFEDB5E0F3D0DBC0CC2021F0E091D6
:101438000605E03009F03DC00E94A71D0E94941ED9
:10144800AFECB5E0E4D0EFEDF5E0FA93EA93A2E073
:10145800B1E00E94BB1CE3E0E093EE050E949F1EF2
:101468003097A1F00E949F1EE05DE093E3050E9483
:10147800A61E0E945221E05DE093E4050E94A61E8C
:101488000E945A21E05DE093E50512C00E94AE1E5D
:10149800309751F00E94AE1EE05DE093E3050E9494
:1014A800B51EE093E40504C00E94B51EE093E30571
:1014B80097C0E0910705E03009F490C0F0E0E13012
:1014C800A0E0FA0749F4E9E0F0E00E94401EEAE0F3
:1014D800F0E00E94711D75C0E230A0E0FA0749F4FF
:1014E800EDE0F0E00E94401EEEE0F0E00E94711D89
:1014F80068C0E630A0E0FA0749F4E9E0F0E00E94AD
:10150800401EE4E1F0E00E94711D5BC0E730A0E0FE
:10151800FA0749F4E3E1F0E00E94401EE5E1F0E05B
:101528000E94711D4EC0E430A0E0FA0791F4EFE08C
:10153800F0E00E94401EE0910A05E03019F0EEE06C
:10154800F0E002C0E0E1F0E0E0933006F09331060D
:1015580038C0E530A0E0FA0791F4E1E1F0E00E943C
:10156800401EE0910B05E03019F0EEE0F0E002C01B
:10157800E2E1F0E0E0933006F093310622C0E83073
:10158800A0E0FA0791F4E6E1F0E00E94401EE09145
:101598000C05E03019F0EEE0F0E002C0E0E1F0E028
:1015A800E0933006F09331060CC0E930A0E0FA076A
:1015B80041F4E7E1F0E00E94401EE8E1F0E00E941B
:1015C800711DE0E0E09307050E94891E0E94BD1E80
:1015D8000E94901EE4E0E093350606C00E94BD1EFE
:1015E800AFEDB5E00E94091C0E94C71E0E949A1E1A
:1015F8000E94CB1E0895BA93AA930E94CF1EA7C239
:10160800BA93AA93552011F00E94CF1EA0C2BA9394
:10161800AA931A930E94DD1E0E94E21E10E0E09138
:1016280052051E1728F40E94791EE081E03009F463
:1016380008C00E94E61E0E94791EE081EC931F5F9D
:10164800EECF188128C0AA931A930A9311E0E0916B
:101658005205F0E03197ED5AFA4FA081A03211F00F
:10166800A030A1F4E0915205E1500E2F013048F06E
:101678000E94EC1EE02FF0E031970E94F11E01500D
:10168800F5CFE0E3E09353051F5FE1CFAA810E9405
:10169800C3171981088123960895BA93AA93A2972C
:1016A800E0E0E883E9830E949E2110E000E020E06A
:1016B80011E0E0916405A12FB0E0A7FDBFEFF0E0D5
:1016C800EA17FB070CF47EC0A12F0E94DE17A12F9A
:1016D800BADF30E020E000E0E0915205A02FB0E052
:1016E800A7FDBFEFF0E0AE17BF0754F40E94F61E47
:1016F800E081E03029F00E94F61EA081A03209F4B2
:1017080019C00E94F61EA081A03311F4303009F0F0
:1017180001C00EC031E0E22FF0E00E94FB1E0E94E3
:10172800F61EE081F0E0EF70F070ED93FC932F5F10
:101738000F5FD2CF4FEF5FEF203011F040E050E065
:10174800E1E0F0E0EE83FF8301E02017ECF0A22F48
:10175800B0E0A7FDBFEFE02FF0E0E7FDFFEF0E944C
:10176800021F0E94FB1E0E947621AE81BF810E944B
:101778002C214E0F5F1FAE81BF81EAE00E94342109
:10178800EE83FF830F5FE1CFEAA5FBA54E175F0746
:101798001CF44AA55BA509C0E8A5F9A5E417F50757
:1017A8001CF448A559A501C00BC05A934A93A3E558
:1017B800B5E00E94681CA12F46DFA12F0E94C31725
:1017C8001F5F77CF0E94A521AC960895B7D20E94DB
:1017D800D01DE3E00E94071F79F4E0915405EF70F3
:1017E800E43050F4E0915405EF70E33021F4E091D7
:1017F8005405EF7009F406C00E94741EA3E2B1E01C
:101808000E941F1D0E94131FE09318060E941F1FAD
:1018180021F0E0E3E09353050FC0E0915405E07038
:1018280021F0E0915505E07009F409C00E94741E8A
:10183800A7E2B1E00E94BB1CA2E00E94C3170E946D
:10184800131FE0931906A3E00E94DE170E945E1E94
:1018580021F00E94741E0E94291F0E94131FE0930A
:101868001A06A0911A06A33609F4A89AE0911A0656
:10187800E03009F4A8980E94301F29F00E94741ED5
:10188800ABE2B1E008C0E0915405EF7049F40E9462
:10189800741EAFE2B1E00E94BB1CA4E00E94C31713
:1018A800E0915405F0E0EF70F070AAE0B0E00E941B
:1018B8003A21DF01E0915505F0E0EF70F070EA0F92
:1018C800FB1FE0932806F09329060E943A1FE23096
:1018D80060F4E13049F4E0915405EF70E83021F408
:1018E800E0915505EF7009F405C00E94741EA3E34A
:1018F800B1E00EC0E0915305EF7029F4E091540572
:10190800EF70E23008F009C00E94741EA7E3B1E04E
:101918000E94BB1CA5E00E94C317E0915305EF701D
:10192800A4E6EA02602DE09154050E94441FA62F08
:10193800AE0FE0915505EF70EA0FE0931B060E9489
:10194800D71DE1E00E94071FE0934B06A0914B06CC
:10195800A53010F4E03009F406C0E0914B06E150E0
:10196800E0934B0606C00E94741EA9E2B1E00E94F3
:101978001F1D0E941F1FAE2EE2E0EA1530F4E1E0C1
:10198800AE2E0E94741E0E94491F0E94301FE093D1
:101998001C06A0911C06A23058F0E1E3E093530521
:1019A800A4E00E94C317E0915305EF70E0931C0672
:1019B8000E943A1FE0931D06A0911D06A23058F020
:1019C800E1E3E0935305A5E00E94C317E0915305B6
:1019D800EF70E0931D06A6E00E94DE17A6E033DE56
:1019E800E0915305E170E0930A05A7E00E94DE1735
:1019F800A7E00E94501FE170E0930B05A8E00E9449
:101A0800DE17A8E00E94501FE3705E2EE2E0E515A5
:101A180008F45524E0E3E09353050E94551FA8E01D
:101A28000E94C3170E94FA1D0E945B1FE0E0F0E0CD
:101A3800FA93EA93A1E0B0E030DE0E94C51DE2E02F
:101A48000E94621FE1E0F0E0FA93EA93A0E2B0E0BE
:101A580024DEE0E0E0930605A5E056D6A4E054D6DF
:101A6800E0910A05E03051F0E0E0E0930B05E093E7
:101A78000C05E1E0E0930A05A7E014C0E0910B052E
:101A8800E03041F0E1E0E0930B05E0E0E0930C0585
:101A9800A9E008C0E0910C05E03029F0E1E0E0930E
:101AA8000C05AAE031D608950E94A021E0E03E2F5F
:101AB8001E2FEAE0E09352050E94101DE0915706A0
:101AC800E030B1F13F5FA32F0E94DE1700E020E075
:101AD800E09157062E1710F4003009F013C0E22FDA
:101AE800F0E0ED5AFA4FA081E22FF0E0E35BF94F06
:101AF800E081F0E0F096B0E0EA17FB0709F001E0BA
:101B08002F5FE6CF003071F411E0E22FF0E0ED5ADC
:101B1800FA4FA081A13220F0A0915706AA3008F010
:101B280001C010E0333210F4103009F001C0CACF00
:101B3800313011F4103009F401C012E0323011F4E0
:101B4800103009F401C013E0E12F0E94A721249668
:101B580008950A921A92FA926A937A938A939A93B8
:101B6800AA93BA93EA93FA93EFB7EA93689423F89F
:101B7800E0912A06F0912B060E94681FEA0FFB1FCE
:101B88000E946D1FBB2009F0BA94E0912606F091DF
:101B98002706309771F0A6E2B6E0ED91FD913197F6
:101BA800FE93EE93E0912606F0912706309709F40C
:101BB80052D3A0910605A23060F0A0915806B091CA
:101BC8005906E6E5F0E00E945721309711F40E948B
:101BD8008A05A8E5B6E00E94721FA0915806B09148
:101BE8005906AA3FE0E0BE0708F49AC0E0915806FB
:101BF800F0915906EA5FF040E0935806F0935906D1
:101C0800689424F8E0911506E03011F1E0E0E093E3
:101C18003506E0911506E150E0931506E091280697
:101C2800F09129063197A0911506B0E0EA17FB0755
:101C380041F4E4E0E0933406E2E0EA1511F4A5E0AB
:101C4800F9D2E0911506E03019F4E1E0E0933606A8
:101C5800E0911F06E03021F0A0911F06A33608F09E
:101C680008C0E0911F06E150E0931F06E03009F438
:101C7800A898E0912006E03091F0E0E0E093350686
:101C8800E4E0F0E00E94401EE5E0F0E00E94711DF3
:101C9800E0912006E150E0932006A1E0CBD2E0914C
:101CA8002206E03091F0E2E0F0E00E94401EE3E01E
:101CB800F0E00E94711DE0912206E150E0932206B7
:101CC800E2E0EA1511F4A3E0B5D2E0913506E03080
:101CD80041F0E0915B06E03021F4E0910605E03048
:101CE80009F00AC0E0913506E150E0933506E0308E
:101CF80019F4E1E0E0933606E0915706E03019F078
:101D0800A0E0CA1609F004C0E0910605E03009F029
:101D180004C0E0915B06EF5F01C0E0E0E0935B0682
:101D2800E991EFBFF991E991B991A99199918991B7
:101D380079916991F9901990099018951A930E94D0
:101D4800DE1D0E94651EA09152050E94D41CE03041
:101D580029F50E94D71D0E94581EE0915305EF7087
:101D6800E0934C06E030D1F4A0915305AF3FB1F0B9
:101D780010E0143698F4E0916300E87029F00E94AE
:101D8800741E0E94781F4FC1B79B05C00E94741E25
:101D98000E94781F48C100001F5FEBCFE7E0F0E02A
:101DA8000E94401EE8E0F0E00E94711D0E94891E1A
:101DB8000E94BD1E0E94C71E0E94901E0E949A1E6D
:101DC8000E94CB1E0E947F1FA0914C06A130E1F01B
:101DD800A230E1F1A33009F46DC0A0914C06A43003
:101DE80009F48BC0A0914C06A53021F4E0E0E09303
:101DF8004C060AC0A0914C06A63009F49CC0A091DC
:101E08004C06A73009F4B8C00E947D1DEAE00E9484
:101E1800621F0E94B1170E94741EABE3B1E00E94DA
:101E28001F1DE0914C06E03009F0C0C00E94101D53
:101E38000E94171DAFE3B1E00E941F1D0E94A01D64
:101E48000E94171DA6E4B1E00E941F1D0E94C51D37
:101E5800E2E0E093520511E0113238F5143668F4E7
:101E6800A12F0E94831FE05DE0935305A12F0E94DC
:101E7800891FE0935405E0E211C0A12F0E94901F32
:101E8800E09353050E94971F0E945221E05DE09362
:101E980054050E94971F0E945A21E05DE093550562
:101EA800A12F0E94C3171F5FD7CFE0914C06E030E7
:101EB80009F07CC00E94D01DE3E00E949F1FADE4A2
:101EC800B1E00E941F1D0E94741EA1E5B1E00E94AE
:101ED800A21F0E94291F0E94741EA7E3B1E00E945E
:101EE800A81FA5E5B1E00E94BB1CA5E00E94C3178E
:101EF800E0914C06E03009F059C00E94A71DE0E1CE
:101F08000E94621F0E94B1170E94741EA9E5B1E0E9
:101F18000E941F1D0E94741EA7E6B1E00E94A21F26
:101F2800A5E7B1E00E94BB1CA3E00E94C317E091A3
:101F38004C06E030D9F50E94E51DE0E10E94621FE1
:101F48000E94B1170E94EC1DE0E10E94621F0E94EE
:101F5800B1170E94F31DE0E10E94621F0E94B117B1
:101F68000E94FA1D0E945B1F0E94AE1F0E94A517C7
:101F7800E0914C06E030D1F40E94D71DE1E00E94C8
:101F88009F1FA9E2B1E00E941F1D0E94741E0E94BB
:101F9800491F0E94741EA9E2B1E00E94A81FA9E28D
:101FA800B1E00E94BB1CA5E00E94C3170E94D71D88
:101FB800E1E00E949F1FA5E2B1E00E94BB1C0E94C5
:101FC800551FA3E00E94C3170E94DE1DE6E0E093C0
:101FD8005205A1E00E94DE170E94741EA6EBB0E035
:101FE8000E94A71CE03059F00E94741EA6EBB0E0D6
:101FF8000E941F1D0E94AE1FA2E00E94C317E0911D
:102008000605E03081F40E943F1D0E94891E0E944F
:10201800BD1E0E94C71E0E94901E0E949A1E0E940A
:10202800CB1EA3E071D319910895AA93A881A1307A
:1020380021F4A981BA81EC91A8C0A881A23051F4F9
:10204800A981BA81EC910E94B51FE981FA81E181E9
:10205800EA0F9BC0A881A33099F4A981BA81EC91B9
:10206800A4E6EA02602DE981FA81E181AAE0EA02A8
:10207800F001A62FAE0FE981FA81E281EA0F85C04F
:10208800E0E083C0AA931A9310E0103268F4E12FBD
:10209800F0E0ED50FA4FE081A981EA1719F4E12F39
:1020A800EF5FC5C01F5FF1CFE0E0C1C060971A9332
:1020B8000A930E949A1EA3E8B1E00E94BB1C0E94EA
:1020C800C71EEFEDF5E0FA93EA93AEE8B1E00E949F
:1020D800BB1C0E94901E0E949A1E0E94CB1EE0E02C
:1020E800E09314060E94A71DE0E1E093520511E079
:1020F8001132B0F5A12F0E94BA1F0E94741EA0E1F0
:1021080061D0DE01129630D0E030E1F40E94C11FA8
:10211800A1E0A08301E00132A8F4A02F0E94BA1F19
:10212800A3E5B5E034D0E03059F0A3E5B5E01CD024
:10213800E03031F40E94C11FDF01EC91EF5FEC93B6
:102148000F5FE9CF0E94C11FA081E0911406EA1732
:1021580028F40E94C11FE081E09314061F5FC8CFD6
:102168001981088162960895BA93AA931A9310E088
:10217800103148F40E94E61EAC91A03211F0E0E064
:1021880003C01F5FF5CFE1E0188123960895BA9345
:10219800AA931A9310E0103190F40E94C71FEC9193
:1021A800E01518F4E1E0188123C00E94C71FEC91E4
:1021B8000E1618F4E0E018811BC01F5FECCFE0E0BA
:1021C800188116C0AA93E881E03091F0E150E883C5
:1021D800AB81BC81F0E0EA0FFB1F0F01E881A98108
:1021E800BA81F0E0AE0FBF1FEC91D001EC93EBCFBA
:1021F80025960895AA931A930E94C51DE2E0E093DC
:102208005205A9810E94DE17A9810E94501F0E94D1
:10221800441FAE2FE0915405EF70EA0F1E2F1130C6
:1022280010F0113208F002C0E12F01C0E0E018817F
:1022380022960895AA93AA2059F0E881E0932C06E3
:10224800E8EEF3E00E94CE1FEAE1E0938A0001C0C5
:1022580002D021960895E0E0E0932C060E94D31F57
:102268000895E0912C06E03009F4DFC0F0E0E13099
:10227800A0E0FA0761F40E94D81FA53DE3E0BE077D
:1022880018F00E94DD1F02C00E94E51FC6C0E230A0
:10229800A0E0FA0771F40E94D81FA939E3E0BE074D
:1022A80028F0E0E8F2E00E946D1F02C00E94E51FDE
:1022B800B4C0E330A0E0FA0771F40E94D81FAD3B28
:1022C800E2E0BE0728F0E0E8F0E00E946D1F02C0DF
:1022D8000E94E51FA2C0E430A0E0FA0711F50E94B1
:1022E800D81FA73EE3E0BE0718F00E94DD1F18C004
:1022F8000E94D81FAD3AE3E0BE0780F00E94E81FB5
:1023080019F40E94EF1F02C00E94F61F0E94FC1FD2
:102318000E94072010F40E94DD1F02C00E94E51FE2
:102328007CC0E530A0E0FA0709F077C00E94D81F0A
:10233800A73EE3E0BE0718F00E94DD1F6EC00E94B2
:10234800D81FAD3AE3E0BE0780F00E94E81F19F4F9
:102358000E94EF1F02C00E94F61F0E94FC1F0E94ED
:10236800072010F40E94DD1F58C00E94D81FA9340E
:10237800E3E0BE0718F00E94D31F4FC00E94D81F89
:10238800A734E3E0BE0718F00E94DD1F46C00E9494
:10239800D81FAD30E3E0BE0798F0EAE1E0938A0089
:1023A8000E94E81F19F40E94EF1F02C00E94F61F46
:1023B8000E94FC1F0E94072010F40E94DD1F2DC000
:1023C8000E94D81FA93AE2E0BE0718F00E94D31F66
:1023D80024C00E94D81FA73AE2E0BE0718F00E9466
:1023E800DD1F1BC00E94D81FAD36E2E0BE0798F083
:1023F800EAE1E0938A000E94E81F19F40E94EF1FA7
:1024080002C00E94F61F0E94FC1F0E94072010F4C1
:102418000E94DD1F02C00E94E51FE0912506E0939F
:102428008700E0912406E0938600089544FE62C187
:10243800EFEE4E2221FE04C0E0910605E03009F0DF
:1024480055C1E2E0E515B1F4E0E0E093BA050E9479
:102458000B200E941320A0E10E94ED1CE9E6F5E0A4
:10246800FA93EA930E9418200E947F1F0E940B2073
:102478000E941820E89421F8E0E0E0933506E7B7D9
:10248800EE7FE7BFE0E0E0930705E0910E05F0E09E
:10249800E033A0E0FA0761F4A0910805A13021F02B
:1024A800A23011F0A53019F411D4A6E02DD11EC127
:1024B800E035A0E0FA0709F068C0A0910F05A7343D
:1024C80009F040C0A0910805A630E1F50E941C2043
:1024D800A0911005A63441F4E0E0E0930B05E093E9
:1024E8000A05A6E005D42EC0E0910B05E030A1F066
:1024F8000ED4ECD3E0910B05EF5FE0930B05A5E05C
:10250800F7D3A0910B05A13220F0E0E0E0930B0592
:1025180036C0A9E0F9D016C0E0910A05E03091F084
:10252800D5D3E0910A05EF5FE0930A05A4E0E0D374
:10253800A0910A05A13220F0E0E0E0930A051FC04F
:10254800A7E0E2D0A0910F05AE34F1F4A091080500
:10255800A730D1F40E941C20E0910C05E030A1F0D6
:10256800B5D3E0910C05EF5FE0930C05A8E0C0D36C
:10257800A0910C05A13230F0E0E0E0930C05A6E054
:10258800C3D00895AAE0C0D0B1C0E934A0E0FA07EA
:1025980059F5A0E094D3A0910F05A635C9F4A091F0
:1025A8000805A33019F4E0E0E0930805A3E0A0D300
:1025B8000E94DE1DE6E00E949F1FE0E1F5E0FA932D
:1025C800EA93A6E00E94ED1CA2E00E94C3170BC08C
:1025D800A0910F05AD3439F4552029F0E0E0E093DF
:1025E8000805A9E085D382C0E334A0E0FA0709F022
:1025F80040C0A0910805A43019F4E0E0E093080574
:10260800E0911005E0530E94B51F0E94222011F4AA
:10261800E0E2CE2EA0910F05A13441F4E1E0E09371
:102628000905E0912806E093150622C0A0910F0540
:10263800A53439F4E2E0E0930905E5E0E0931506F6
:1026480017C0A0910F05A63439F4E4E0E09309051A
:10265800E5E0E09315060CC0A0910F05A23411F433
:10266800A2E005C0A0910F05A73411F4A7E040D35C
:102678003BC0E435A0E0FA07B9F4A0910805A430FE
:1026880019F4E0E0E0930805E0911005E0530E949A
:10269800B51F0E94222011F4E0E2CE2EE0911B0625
:1026A800E0931506E5E01EC0E535A0E0FA07C9F499
:1026B800E0912006E03021F4E0912206E03009F0B4
:1026C8000FC00E944B1D0E94381DE0911806EF5F55
:1026D800E0932006E1E0E09321060E94171EAADDA0
:1026E80003C0E7E0E0930905A0E0E9D2E0E0E09369
:1026F800790509C00E94292020F0A0915E06A0302B
:1027080009F001C0E9D20895AA931A930A9310E038
:1027180000E0E0910605E03009F0CDC2E0915E06E8
:10272800E03011F441FE13C0A0916B06A93018F4F3
:10273800AA81A03009F40AC0E0916B06EF5FE0932C
:102748006B06F0E0E05AF94FAA81A083B4C2AA81CF
:10275800A630F1F4E0910805E03039F00E942F200E
:10276800E081EA83E89426F812C00E94292010F03C
:10277800B3D2A1C2E0E0E0935D06E0916A06EF5FA4
:10278800E0936A06F0E0E05AF94FE081EA8311C06D
:10279800E0910805E03049F40E94292028F09CD2F5
:1027A8000E942F20AA81A08304C00E942F20E081CC
:1027B800EA83EA81E0935F0610E0F0E03097B1F435
:1027C80010E0143040F4E12FF0E0E558FA4FA0E3B0
:1027D800A0831F5FF6CFE0915D06E03019F4E1E0D9
:1027E800E0935D06E3E0E0935E06EEC1E130A0E031
:1027F800FA07E1F5CC2011F46FD25DC2E4E0E09372
:102808000805E0E0E09309050E943520A3E4A083D1
:102818000E94FA1DE1E0E0935205AC2D0E94DE17FC
:102828000E943520A0915305A0830E943520FF9374
:10283800EF930E943B200E945221E05DAF91BF912F
:10284800EC930E943520FF93EF930E943B200E9457
:102858005A21E05DAF91BF910E94432019F4E1E055
:10286800E0935D06E9E0E0935E06AEC1E230A0E0E9
:10287800FA07D1F4E5E00E944820A3E4A0830E946F
:102888003520A5E4A0830E943520A0E3A0830E9400
:102898003520A0E30E944B2019F4E1E0E0935D06A7
:1028A800E3E0E0935E0690C1E330A0E0FA0791F41C
:1028B800E2E00E9448200E9450200E945320A2E596
:1028C8000E944B2019F4E1E0E0935D06E9E0E09313
:1028D8005E067AC1E430A0E0FA0709F057C0E2E0EA
:1028E8000E9448200E9450200E945320A0E50E9488
:1028F8005620E0914B06EF5CEC930E9435200E9435
:102908005D20E4E6F0E00E9463200E945D20EAE09A
:10291800F0E00E9463200E945D20EAE0F0E00E945F
:1029280057210E946920BF01A0911B060E94901F99
:10293800DB01EC930E943520BF01A0911B060E9489
:10294800831FDF010E946D200E946920BF01A091B2
:102958001B060E94891FDB01EC930E943520A0E32F
:102968000E945620E0911D06E170E05DEC930E9404
:102978007220EA2DE370E05D0E94432019F4E1E043
:10298800E0935D06E3E0E0935E061EC1E530A0E05B
:10299800FA0791F4E3E00E944820A9E4A0830E948A
:1029A8003520A6E50E944B2019F4E1E0E0935D068E
:1029B800E9E0E0935E0608C1E730A0E0FA0709F015
:1029C8008FC0E0910A05E03019F4E0E2E0930A05CF
:1029D800E6E00E9448200E9450200E9478200E9431
:1029E8005320BF01A0910A050E94831F0E946920FD
:1029F800BF01A0910A050E94891FDB01EC930E9488
:102A0800E51D0E947B200E94EC1EEC91E03041F015
:102A1800FD01A081A03221F0E09152050E1708F0C7
:102A280006C00E9472200E9484200F5FECCF0E9493
:102A38003520ACE7A0830E94EC1D0E947B200E94F9
:102A4800EC1EEC91E03021F0FD01A081A03209F4E8
:102A580004C0E09152050E1708F006C00E947220CB
:102A68000E9484200F5FEBCF0E943520ACE7A08343
:102A78000E94F31D0E947B200E94EC1EEC91E03026
:102A880021F0FD01A081A03209F404C0E0915205B3
:102A98000E1708F006C00E9472200E9484200F5F63
:102AA800EBCF0E943520ACE7A0830E94FA1DE1E03D
:102AB800E0935205A0910A050E94DE170E94352076
:102AC800A0915305A0830E943520ACE70E944B20BB
:102AD80019F4E1E0E0935D06E9E0E0935E0674C076
:102AE800E930A0E0FA0739F5E0910B05E03019F478
:102AF800E0E2E0930A05E6E00E9448200E945020A8
:102B08000E9478200E947820BF01A0910B050E94A6
:102B1800831F0E946920BF01A0910B050E94891F95
:102B2800DB010E94432019F4E1E0E0935D06E9E04F
:102B3800E0935E0649C0EA30A0E0FA0709F044C015
:102B4800E0910C05E03019F4E0E2E0930C05E7E0D1
:102B58000E9448200E945020AEE4A0830E943520A5
:102B68000E945320BF01A0910C050E94831F0E9460
:102B78006920BF01A0910C050E94891FDB01EC931D
:102B88000E94A71DE0E1E0935205A0910C050E9468
:102B9800DE1700E00E94F61EE081E03021F0E091AF
:102BA80052050E1708F006C00E9472200E94842069
:102BB8000F5FF0CFE0915D06E03019F4E1E0E093BB
:102BC8005D06E3E0E0935E0610937A05E12FF0E0FE
:102BD800E558FA4FA0E0A0837894E2E0E51509F003
:102BE8005FC0E0E0E0930D05E093BA05EAEBF5E09D
:102BF800FA93EA93EAE7F5E0FA93EA93A6E00E94EB
:102C0800ED1CAAEBB5E00E94C81C7E2EE6E0E71595
:102C180008F47E2E0E948720AEE2A0830E948720BF
:102C2800DF01E09108050E948D20DF01E0916A062E
:102C38000E948D20DF01E0916B060E948D20BF016C
:102C4800A0916006BB270E946D200E949120BF01C1
:102C5800A0916106B0E00E946D200E949120BF0102
:102C6800A0915F06BB270E946D200E949120AEE2D2
:102C7800A0830E948720A0E0A0830E948720A0E074
:102C8800A0830E9413200E941820AAEFB0E00E949F
:102C98001E21E0E0E093BA050E9413200E9418204C
:102CA800E0E0E093CA0599241A9AE2E04E2AE0E0AF
:102CB800ECB95698559A1981088123960895AA93D4
:102CC8000E949620A88120DD0C949A18E0E0E093F9
:102CD80008050E9496200895E0E0E0935F064424EA
:102CE800E0936B06E0936A06F1DF609008050895AB
:102CF800AA93E0E0E0930905E0933506E093150612
:102D08000E94241DE881E09307050C949A181A93F1
:102D18000A9316E000E00E94E51DE0E10E94621FB0
:102D280000E00E94741E0E94E21E0E94F61EA0E0AF
:102D3800A083E2E0E51591F4E0E0F5E0FA93EA9388
:102D4800ADE0B5E00E94040B0E947F1FE1E0F5E0D2
:102D5800FA93EA93A2E0B5E00E94040B0E949C203B
:102D6800A081AC3721F0E09152050E1708F009C098
:102D78000E94EC1E0E949C20E081EC931F5F0F5F75
:102D8800EDCF0E94F61EA0E0A083E2E0E51581F4F5
:102D98000E94741EA3E0B5E00E94040B0E947F1FEE
:102DA800E4E0F5E0FA93EA93A5E0B5E00E94040BAD
:102DB8000E949C20A081AC3709F41F5F0E94A120CB
:102DC8000E94EC1DE0E10E94621F00E00E94741E58
:102DD8000E94E21E0E94F61EA0E0A0830E949C2092
:102DE800A081AC3721F0E09152050E1708F003C01E
:102DF8000E94A520F3CF0E94F61EA0E0A0830E94A7
:102E08009C20A081AC3709F41F5F0E94A1200E947A
:102E1800F31DE0E10E94621F00E00E94741E0E9400
:102E2800E21E0E94F61EA0E0A0830E949C20A081C2
:102E3800AC3721F0E09152050E1708F003C00E944C
:102E4800A520F3CF0E94F61EA0E0A0830E949C203C
:102E5800A081AC3709F41F5F0E94A1206FC01A93AC
:102E6800109168050DD0E0936805103011F4E11752
:102E780019F4E0E00C94BA18E09168050C94BA18BB
:102E88001A930A93C69810E10E94B32000E0043018
:102E9800E8F514FF0CC0B29B02C0E1E04FC0B39B41
:102EA80002C0E2E04BC0B49B02C0E3E047C015FF9C
:102EB8000CC0B29B02C0E4E041C0B39B02C0E5E095
:102EC8003DC0B49B02C0E6E039C016FF0CC0B29BFF
:102ED80002C0E7E033C0B39B02C0E8E02FC0B49B58
:102EE80002C0E9E02BC017FF0CC0B29B02C0E8E1AA
:102EF80025C0B39B02C0EAE021C0B49B02C0E1E157
:102F08001DC0110F0E94B3200F5FC1CFE3B1EF7056
:102F1800E3B9C69A00E00E3118F400000F5FFBCF4A
:102F2800B29B02C0E5E10AC0B39B02C0E7E106C05C
:102F3800B49B02C0E6E102C0C698E0E0099119918D
:102F480008951A9311E0E0916405E11720F0A12F8C
:102F580016D01F5FF8CF0C94BA181A930E94741EEB
:102F6800AAE9B1E00E94BB1C11E0E0916405E117F9
:102F780020F0A12F04D01F5FF8CF0C94BA180E943C
:102F8800BA2010E0E09152051E1710F4103108F035
:102F98000DC0ADE4B5E00E94721F3197DF010E94B9
:102FA800791EE0810E948D211F5FECCF0E94A7212E
:102FB8000C94D21B0E94BA200E94741EAAE9B1E0A8
:102FC8000E94BB1C10E0E09152051E1710F410314E
:102FD80008F00FC00E94791E0F01ADE4B5E00E9411
:102FE800721F3197DF010E948121D001EC931F5F8E
:102FF800EACF0E94791EA0E0A0830E94A7210C942A
:10300800D21BA0E387D0A0E385D0A0E383D0A0E3C0
:1030180081D0A0E27FD0A8E276D0A0E174D0ACE065
:1030280072D0A6E070D0A1E06ED001D00895AA9821
:10303800AB98A8E468D0A4E00E94D7200E94DC20C6
:103048000E94E220A0E052D00E94E220A4E04ED0EC
:10305800AFE10E94D720A4E049D0A0E047D0A4E087
:1030680045D0A4E00E94D720A1E140D00E94DC20F6
:10307800A0E03CD0A0E03AD00895AA930E94A021F5
:1030880030E0EC813E1758F400E010E00436E0E050
:103098001E0718F40F5F1F4FF9CF3F5FF2CF0E9452
:1030A800A7210C94D21BAA931A93A981A0582BD0BC
:1030B80010E0103140F4AA81BB81EE27A10FBE1F9A
:1030C800EC91E03009F409C0AA81BB81EE27A10F79
:1030D800BE1FAC910BD01F5FECCF103120F4A0E2E3
:1030E80005D01F5FFACF18810C94621C0E94EB2058
:1030F800E4600E94F6200E94FA20E07FE4600E94CB
:10310800F620AA9813C00E94EB200E94F6200E9485
:10311800FA2009C0AA93A5E0B0DFE5B3EF70E5BBDC
:10312800E5B3AE2FE881E07F0E94F620219608954E
:103138001A9310E8AF9AEFE7E4BBAB9AAA9817FF87
:103148000FC0AF9A000000000000A99A000000001C
:10315800000013B317FF13B3AF98A99809D0EFCFA6
:10316800EFEFE4BBE5B3EF70E5BBAB9819910895B9
:1031780000000000A99A000000000000A9980000C3
:1031880000000895BA93AA931A93E0910605E030D7
:1031980009F05DC1EB81FC81309789F40E94DD1E46
:1031A800ACEAB1E00E94BB1CA981BA811D96E1E09E
:1031B800EC93A981BA811F96E2E0EC9347C1E13014
:1031C800A0E0FA0739F40E94DD1EADEBB1E00E94E1
:1031D800BB1C3CC1E230A0E0FA0739F40E94DD1EB6
:1031E800AEECB1E00E94BB1C31C1E330A0E0FA07AD
:1031F80039F40E94DD1EA8EDB1E00E94BB1C26C177
:10320800E430A0E0FA0739F40E94DD1EA4EEB1E034
:103218000E94BB1C1BC1E530A0E0FA0739F40E94EC
:10322800DD1EAEEEB1E00E94BB1C10C1E730A0E08D
:10323800FA0739F40E94DD1EA4EEB1E00E94BB1C1F
:1032480005C1E830A0E0FA0739F40E94DD1EABEFB3
:10325800B1E00E94BB1CFAC0E930A0E0FA0739F4DB
:103268000E94DD1EABE0B2E00E94BB1CEFC0EA305A
:10327800A0E0FA0739F40E94DD1EA5E1B2E00E9441
:10328800BB1CE4C0EB30A0E0FA0739F40E94DD1E55
:10329800A2E2B2E00E94BB1CD9C0EC30A0E0FA0761
:1032A80039F40E94DD1EACE2B2E00E94BB1CCEC025
:1032B800ED30A0E0FA0739F40E94DD1EA8E3B2E081
:1032C8000E94BB1CC3C0EE30A0E0FA0739F40E948C
:1032D800DD1EA5E4B2E00E94BB1CB8C0EF30A0E040
:1032E800FA0789F40E94DD1EA1E5B2E00E94BB1C2A
:1032F800E0910A05E03011F0E15001C0E0E2EA9304
:103308000E940221A3C0E031A0E0FA0739F40E942C
:10331800DD1EADE5B2E00E94BB1C98C0E131A0E023
:10332800FA0789F40E94DD1EAAE6B2E00E94BB1CDF
:10333800E0910B05E03011F0E15001C0E0E2EA93C2
:103348000E94022183C0E231A0E0FA0739F40E940A
:10335800DD1EA7E7B2E00E94BB1C78C0E331A0E005
:10336800FA0739F40E94DD1EA4E8B2E00E94BB1CF3
:103378006DC0E431A0E0FA0739F40E94DD1EA5E92A
:10338800B2E00E94BB1C62C0E531A0E0FA0739F444
:103398000E94DD1EA4EAB2E00E94BB1C57C0E631C1
:1033A800A0E0FA0789F40E94DD1EA3EBB2E00E94B8
:1033B800BB1CE0910C05E03011F0E15001C0E0E2E7
:1033C800EA930E94022142C0E731A0E0FA0799F48B
:1033D8000E94DD1EA2ECB2E00E94BB1CE091100529
:1033E8000E94441FAE2FE0911105EF70EA0FEA9397
:1033F8000E9402212BC0E831A0E0FA0739F5E091DC
:103408001605A981BA81EC93E0911505A981BA81C5
:103418001196EC93E0911405A981BA811296EC9368
:10342800E0911305A981BA811396EC93E0911205F6
:10343800A981BA811496EC93A981BA811696E0E223
:10344800EC93A981BA811796E0E0EC9399C1EB81DE
:10345800FC81309781F40E94DD1EAEECB2E00E9440
:10346800BB1CA0E020FCA1E0A13010F0E2E001C00C
:10347800EAE0E0936505AB81BC81129731F40E94C4
:10348800DD1EAAEDB2E00E940621AB81BC81139734
:1034980031F40E94DD1EA8EEB2E00E940621AB8145
:1034A800BC81149731F40E94DD1EA4EFB2E00E94A3
:1034B8000621AB81BC81119731F40E94DD1EA0E08A
:1034C800B3E00E940621AB81BC81169731F40E94BB
:1034D800DD1EAFE0B3E00E940621AB81BC811597E9
:1034E80031F40E94DD1EAFE1B3E00E940621AB81FA
:1034F800BC81179731F40E94DD1EAFE2B3E00E9451
:103508000621AB81BC81189731F40E94DD1EAEE321
:10351800B3E00E940621AB81BC811A9731F40E9466
:10352800DD1EAAE4B3E00E940621AB81BC811B9793
:1035380031F40E94DD1EABE5B3E00E940621AB81A9
:10354800BC811C9731F40E94DD1EA9E6B3E00E94FD
:103558000621AB81BC81199731F40E94DD1EA7E7D3
:10356800B3E00E940621AB81BC81A238E0E0BE072F
:1035780031F40E94DD1EA6E8B3E00E940C21AB8165
:10358800BC81AF38E0E0BE0731F40E94DD1EA3E93C
:10359800B3E00E940C21AB81BC81AC39E0E0BE07EE
:1035A80031F40E94DD1EA2EAB3E00E940C21AB8137
:1035B800BC81A537E0E0BE0731F40E94DD1EA1EB17
:1035C800B3E00E940C21AB81BC815A9731F40E9470
:1035D800DD1EA0ECB3E00E940C21AB81BC81979763
:1035E80031F40E94DD1EACECB3E00E94BB1CAB8141
:1035F800BC81D49731F40E94DD1EACEDB3E00E948B
:10360800BB1CAB81BC811D9731F40E94DD1EACEE62
:10361800B3E00E940C21AB81BC81AE34E0E0BE0770
:1036280031F40E94DD1EA7EFB3E00E940C21AB81AC
:10363800BC81A134E0E0BE0791F5A0916705A130F7
:1036480031F40E94DD1EA5E0B4E00E94BB1CA091ED
:103658006705A23031F40E94DD1EA2E1B4E00E94A9
:10366800BB1CA0916705A33031F40E94DD1EA2E2C5
:10367800B4E00E94BB1CA0916705A43031F40E94FD
:10368800DD1EAFE2B4E00E94BB1CA0916705A53027
:1036980031F40E94DD1EACE3B4E00E94BB1CAB8198
:1036A800BC81AB35E0E0BE0709F050C0A0916705CA
:1036B800A13031F40E94DD1EA8E4B4E00E94BB1CD6
:1036C800A0916705A23031F40E94DD1EA9E5B4E09F
:1036D8000E94BB1CA0916705A33031F40E94DD1E37
:1036E800AAE6B4E00E94BB1CA0916705A43031F49F
:1036F8000E94DD1EA6E7B4E00E94BB1CA0916705EE
:10370800A53031F40E94DD1EA7E8B4E00E94BB1C7E
:10371800A0916705A63031F40E94DD1EA6E9B4E049
:103728000E94BB1CA0916705A73031F40E94DD1EE2
:10373800A3EAB4E00E94BB1CA0916705A83031F44D
:103748000E94DD1EA0EBB4E00E94BB1CAB81BC81D3
:10375800A836E0E0BE07A1F4A0916705A13031F4D6
:103768000E94DD1EA8EBB4E00E94BB1CA091670577
:10377800A23031F40E94DD1EA2ECB4E00E94BB1C12
:10378800A981BA810E94C81C1E2F103130F40E94F2
:10379800E61EE0E2EC931F5FF8CF188125960895A6
:1037A800BA93AA932497AE81A43658F40E94831F33
:1037B800E05DE983AE810E94891FE883E0E0EA8347
:1037C8001AC0AE810E94901FEA83EE81F0E0E456B1
:1037D800F040DF01EAE0F0E00E945221E05DE98379
:1037E800EE81F0E0E456F040DF010E946D20E05DDC
:1037F800E883E0E0EB83EC81FD81FA93EA93DE0154
:1038080012960E94961C27960895BA93AA931A9323
:103818000A9300E0003160F40E941221A03E20F0DB
:103828000E941221AB3F08F001C002C00F5FF2CF27
:10383800003109F441C000E00830F0F5AA81BB81ED
:10384800EE27A00FBE1F1C91E02FAA81BB81F0E0DC
:10385800EA0FFB1FBF010E941921AA81BB81AE0F8D
:10386800BF1FEC91DB01EC930E941921AA81BB8157
:10387800EA0FFB1F10830E941221A03E20F00E9435
:103888001221AB3F08F008C0AA81BB81EE27A00F28
:10389800BE1FEC91E054EC93103E10F01B3F08F073
:1038A80009C00E941921AA81BB81AE0FBF1FEC91EC
:1038B800E054EC930F5FC0CF1981088124960895D6
:1038C800959A089595980895BA93AA93A991B9914C
:1038D800E991F99130962AF4E095F09531966DE2E8
:1038E8006D93E89480E197E20DD088EE93E00AD0DA
:1038F80084E6992707D08AE005D06E2F10D0662776
:103908006C9308956627E817F90720F06395E81B7C
:10391800F90BC9F7662311F416F008956894605DF1
:103928006D930895BA93AA93E991F991A991B991E0
:10393800CD016D916623E9F7119761916D93662327
:10394800E1F7FC010895BA93AA93E991F991A99135
:10395800B9911D900590011421F40020D1F7EE27AC
:1039680008951018E1F3E1E008F4E2500895BA93DD
:10397800AA93E991F991A991B991CD0105900D9278
:103988000020E1F7FC010895BA93AA93A991B9918F
:10399800EE27FF276D91662311F03196FBCF08952E
:1039A800AA93002411246991E991F991A991B991F7
:1039B800662349F06A951D900590011421F40020B2
:1039C800B9F7EE2708951018E1F3E1E008F4E250A2
:1039D8000895AA937991E991F991A991B991CD01A5
:1039E800772351F07A9561916D936623C9F7772310
:1039F80019F07A956D93FBCFFC010895AA93BA93B9
:103A0800EA93FA93EFB7EA930895E091CA05F0E0D4
:103A1800E658FA4FE0810895EDE4F0E0E0934F05B1
:103A2800F09350050895EAE0E0935205E3E5F5E0E8
:103A3800FA93EA9308950E94BB1CA1E00C94C31763
:103A4800E0E0E0935706CC240895E0911806EF5F74
:103A5800E0932006EAEFF0E0E0935806F093590669
:103A6800E1E0E09321060895EAEFF0E0E0935806DC
:103A7800F09359060895E0E0E0932E06E0932F06B0
:103A8800E1E0F0E0E0933006F09331060895CC24AD
:103A9800E0E0E0935706DD240C9453060E9470166C
:103AA800A1E00E947C16E0E0E0930B05E0930A0594
:103AB8000895EDE4F6E0FA93EA93A09157060C9482
:103AC8001910E1E0E0930605E0E0E0933706089579
:103AD800A0912E06B0912F060895E0933006F0933A
:103AE80031060895E0914606F0E03197ED5AFA4F15
:103AF8000895E1E6F0E0E0934F05F093500508954E
:103B0800E0936405EAE0E09352050895E3E0E0936A
:103B18000605E1E0E0936705E0934606E093470673
:103B28000895E2E0E0930605E1E0E0936705E0939D
:103B38004606E09347060895E7E5F0E0E0934F0571
:103B4800F09350050895E1EAF1E0E0934F05F09312
:103B580050050895E0E2E0936405E0E1E093520542
:103B68000895E0930605E1E0E0936705E0934606D3
:103B7800E0E0E0934A06E0934906E1E0E093470677
:103B88000895E1EAF3E0E0934F05F09350050895B6
:103B9800E0935205E2E0E5CFE1EEF3E0E0934F0574
:103BA800F09350050895E0EFF3E0E0934F05F093AC
:103BB80050050895E0E4F0E0E0934F05F0935005D8
:103BC8000895E8EFF3E0E0934F05F093500508956A
:103BD800E8EFF5E0E0934F05F09350050895E8EF1E
:103BE800F7E0E0934F05F09350050895E8EFF9E00A
:103BF800E0934F05F09350050895A09167050C9444
:103C0800DE17E0E0E0936705E0933706E0930605EA
:103C18000895AD2D0E944610CE2EE3E0E0933406C1
:103C2800A1E00C941E11E3E0E0933406A1E00895AE
:103C3800E5E0E0933406A2E00895E0912E06F091C5
:103C48002F060895E1E0E0933806E0E0E0932E06C1
:103C5800E0932F06E0913806F0E03ADFEA0FFB1F09
:103C68003CDFE0E0E0935706DECFE0913806F0E075
:103C78002FDFEA0FFB1F31CFE0932E06F0932F06BC
:103C880008950E945C050E94EA0B0C945A10A091BA
:103C980067050C94C317E1E0E0934606E0E0E09383
:103CA8004A06E09349060895E1E0E0935205A3E04F
:103CB8000C94DE17A3E00E94270BE0915305EF70E8
:103CC8000895E6E0E0935205A1E00E94DE17E3E5DF
:103CD800F5E0FA93EA93E6EBF0E0FA93EA930895B5
:103CE800E3E5F5E0FA93EA930895E12FF0E0ED5A61
:103CF800FA4F0895E0914906EF5FE0934906089569
:103D08001E2FA0914906A330089597DFFA93EA93EE
:103D1800AFECB5E00C94C618AFEDB5E00C94091CF7
:103D2800E0E1E0935205AC2D0C94DE17EFECF5E0E2
:103D3800FA93EA930895AC2DB0E0E4E6F0E00E942F
:103D480052210895EC2DF0E0E456F040DF01EAE05E
:103D5800F0E00895AC2DB0E0EAE0F0E00E945221D6
:103D68000895AC2DBB27EAE0F0E00E945A21E05DFF
:103D78000895E0913006F0913106FA93EA93AFED99
:103D8800B5E00C94C618AFECB5E00C94091CAFED87
:103D9800B5E00C94FF0AEA81FB81FA93EA93A0E06C
:103DA8000E945718E881F981FA93EA93A0E40C94E9
:103DB8005718E981FA81FA93EA930895A2E1B1E0EC
:103DC8000C94BB1CA981BA81EE27A10FBE1F0895D0
:103DD800A02FB0E0AD5ABA4F0895ED5AFA4FE081DE
:103DE800EC930895E02FF0E0ED5AFA4F0895DE01C4
:103DF8001896EE0FFF1FAE0FBF1F08950E947A217D
:103E0800EA1BFB0B0895E0935205A1E00E94DE1720
:103E1800A1E00E94270BE0915305EF700895E0910F
:103E28005405EF70AAE0EA02F001AE2FE0915505C3
:103E3800EF70EA0F0895A2E00E94DE17A2E00E9448
:103E4800270BE0915305EF700895ABE2B1E00E94B3
:103E5800BB1CA3E00C94C317A4E00E94DE17A4E0E7
:103E68000E94270BE0915305EF700895A5E00E948A
:103E7800DE17A5E00E94270BE0915305EF70089527
:103E8800EF70AAE0EA02F0010895A9E2B1E00E9409
:103E9800BB1CA2E00C94C3170E94270BE0915305AA
:103EA8000895A6E00E94C317A7E00C94C317E1E0A9
:103EB800E0935205E0E2E09364050895E09352052B
:103EC800E0E2E09364050895A0912406B0912506E8
:103ED8000895E0932406F09325060895ED91FD9149
:103EE8003196FE93EE930895A5E2B1E00E94BB1CC3
:103EF800A3E00C94C317A4EFB1E00C941E21B0E02A
:103F0800EAE0F0E00E9452210895BB27EAE0F0E0E1
:103F18000E945A21E05D0895B0E0E4E6F0E00E94D6
:103F28005221E05D0895E12FF0E0E456F040DF0112
:103F3800EAE0F0E00895E0935205D2CE0E94BB1C5F
:103F4800A2E00E94C317CCCE0E94BB1CA4E00E9432
:103F5800C317C6CEE0E3E0935305E0E0E0935405D1
:103F68000895AAE0EA02F001AE2F08950E94DE1734
:103F7800FE013296FA93EA930895E12FF0E0319723
:103F8800ED50FA4F0895AB81BC81EE27A10FBE1FFB
:103F98000C9018CFE0932606F09327060895E0E0EA
:103FA800E0938A001B980895A0912606B0912706F1
:103FB8000895E0913406ACE0EA9FF001E058FF4F25
:103FC80088CFE1E0F0E0E6CFEFDFE6E0F0E00E9446
:103FD800572130970895E0EDFFEFE0932A06F0931C
:103FE8002B060895E0E0E0932A06E0932B06089557
:103FF800E0913406F0E03396ACE0B0E00E943A215C
:10400800A0E8B0E0FBCE60DFAE17BF070895E0E0A0
:10401800E0936905E9E6F5E0FA93EA930895EDE09F
:10402800F5E0FA93EA930895AAEBB5E00C94040B33
:10403800E0E0E0930805A0E00C946316E091110518
:10404800E053EA0FCE2ECC200895E0916B06A091A4
:104058006A06AE170895E0916A06F0E0E05AF94F53
:1040680008951F5FE12FF0E0E658FA4F0895AC2D50
:104078000E94FE10F0E0DF01EAE0F0E00895EC9322
:10408800E0915D06E0300895E0930805EACFA0834B
:10409800E0915D06E0300895A0E5A083E2CFA3E5B6
:1040A800A083DFCFA0831F5FA12FB0E0A658BA4F2F
:1040B8000895BF01A0912806B091290608950E948D
:1040C8003F21E05DDB01EC93CCCFE05DDB01EC93BD
:1040D800C8CFEAE0F0E00E945A2108951F5FA12F9F
:1040E800B0E0A658BA4F0895A7E4A083BACFE0E19C
:1040F800E0935205A0910A050E94DE1700E008959A
:10410800E02FF0E06ACEE72D7394F0E0E654FA4F22
:104118000895EF70E05DEC93F6CFEF70E05DDB01A2
:10412800EC93F1CFE0E0E0935E06E0935D0608953E
:10413800E12FF0E0E35FFA4F0895A0910B050C948E
:10414800C317E02F0F5FF0E0ED5AFA4FDF01E12FC0
:104158001F5FF0E0E35FFA4FE081EC930895E3B16D
:10416800EF70E3B9E3B1E12BE3B90895AA930E9494
:10417800A021EC81E0935105F0E031979F01E09197
:104188004F05F0915005E050F040BF01E091520515
:10419800F0E0D9010E943A21E60FF71FE0934D05A0
:1041A800F0934E0508950E947A18AEE00C947A18A0
:1041B800AFE10E947A18A4E00C947A18A4E00E9457
:1041C8007A18A4E00E947A18A4E00C947A18AA93AA
:1041D8000E949C18E5B3EF70E5BBE5B3AE2FE8810C
:1041E800E07F0895EA2BE5BB0C94BC18E5B3EF70AB
:1041F800E5BBE5B3AE2FE881E2950895AA81BB81BE
:104208000C94D41B0E94BB1CE2E0E0936605089561
:104218000E94BB1CE0916705EA93F0CFAA81BB819D
:10422800EE27A00FBE1FAC910895E02FF0E0AFE09D
:10423800B0E0E4CD109639F088EE93E00197F1F7FD
:10424800A8951197C9F70895F195E195F04008955B
:10425800FA9FF02DEB9FF00DEA9FE02DF10D0895E8
:104268006E2F6A9FF0016B9FF00D08952DD0F0DF3F
:104278000EF4EADF08950024112490E1AA0FBB1F71
:10428800001C111C0E1A1F0A18F40E0E1F1E01C066
:10429800A1609A9599F7FD01D001089515D0EBDF3B
:1042A8000EF4D2DF0895E7DFFD010895E894B7FF23
:1042B80004C0A095B09511966894F7FDC5DFDBDFC3
:1042C800FD010EF4C1DF0895E894F7FF02C0BCDFDA
:1042D8006894B7FF06C0A095B095119600F80394AE
:1042E80000FA0895ED91FC91119708951B2EBF2FA8
:1042F800F12D1A2EAE2FE12D0895E199FECFFF93EF
:10430800FFB7F894AEBBBFBBE09AEDB3FFBFFF9118
:104318000895E19B02C0A895FCCF9FB7F894AEBB67
:10432800BFBBE09A8DB3E81719F0EDBBE29AE19AAA
:104338009FBF08955A934A933A932A931A930A93DC
:1043480008955D814C813B812A81198108810895F6
:00000001FF
