:0A0000000C946C040C9400000C94A6
:10000A0000000C9400000C9400000C9400000C9466
:10001A0000000C9400000C9400000C94FD100C9449
:10002A0000000C9400000C9400000C9400000C9446
:10003A0000000C9400000C9461050C9400000C94D0
:10004A009F040C941B050C9405050C9400000C9459
:10005A0000000C9400000C9400000C9400000C9416
:10006A0000000C9400000C9400000C9400000C9406
:10007A0000000C9400000C9400000C9400000C94F6
:10008A0000001027E80364000A00010000100001C4
:10009A001000010000000000000031323334353610
:1000AA00202020202020202020202000332E362E21
:1000BA0030310052696E677320746F20617070204E
:1000CA003330200020EEF6ECF6EC20ECE3E9F8E41D
:1000DA0020333020004469616C7320746F20617092
:1000EA0070203330200020EEFAF7F9F820ECE3E92B
:1000FA00F8E420333020004661696C20636F6E6E2D
:10010A00656374203330200020ECE020EEE7E5E15F
:10011A00F820E327203330200043616C6C20746997
:10012A006D656F7574203330200020F9E9E7E4200B
:10013A00E4F1FAE9EEE42033302000202053746120
:10014A0072742074616C6B2033302000E4FAE7EC9F
:10015A0020F9E9E7E420E3272033302000417070DA
:10016A00203330202070726573732020202400E32E
:10017A00E9F8E420333020ECF6ECF6E5EC20240034
:10018A002020202020202020202020202020202065
:10019A0000303330003030310030393900303130FE
:1001AA0000313830003032300031323300313233EE
:1001BA0034353600323532353235003030300030A1
:1001CA00303500303630004170617274202331209E
:1001DA0020202000E3E9F8E4202331004170617215
:1001EA00742023322020202000E3E9F8E42023327F
:1001FA000041706172742023332020202000E3E93B
:10020A00F8E4202333002020202020202020202052
:10021A00202020202020000048656C6C6F2C20557F
:10022A00736520202020202000546F20736561729E
:10023A0063682061206E616D6500546865206C6199
:10024A0074636800697320756E6C6F636B65640014
:10025A00576169742074696C6C00656E64206F66FE
:10026A002064656C617900202020726573657420B2
:10027A00646F6E652E2E2E004E6F20616E73776549
:10028A00720053797374656D206572726F720043E0
:10029A006F6E6E656374656400506C65617365208A
:1002AA0074616C6B004C696E6520697320627573AA
:1002BA007900506C656173652077616974005365D4
:1002CA006E64656420206E6F20230053656E646936
:1002DA006E6720646F6E652E005265636569766588
:1002EA0064206E6F20230052656365697665206419
:1002FA006F6E652E004661696C206F766572207498
:10030A006F2047534D004E6F2047534D20756E693D
:10031A00742E004E6F2047534D2063616C6C00535E
:10032A00656E646564206E616D65202300566F6C8E
:10033A00746167652061707020230050524F472E08
:10034A00204D454E550041636365737320636F64A6
:10035A006573004D617374657220436F646500555F
:10036A0073657220636F64650054656E616E7473A1
:10037A000052656C61797320746F204170617274E8
:10038A002E0054696D696E677320287365632900AE
:10039A0053657474696E67730046572056657273A5
:1003AA00696F6E730050686F6E65730050686F6E88
:1003BA0065732067726F757020320050686F6E65C2
:1003CA00732067726F757020330043616C6C20660E
:1003DA006F7277617264696E670050686F6E65202C
:1003EA00666F7220230050686F6E65203220666F38
:1003FA007220230050686F6E65203320666F72206A
:10040A00230043616C6C20666F727761726423000B
:10041A00456E74657220636F6465202300536574AA
:10042A00206D617374657220636F6465005365742F
:10043A00207573657220636F646500456E7465721A
:10044A00206E616D6520230052656C617920746F9E
:10045A002041702E230044656C61792054696D65D2
:10046A0000446F6F72204F70656E696E6700496C49
:10047A006C756D696E6174696F6E004469616C2098
:10048A0054696D650054616C6B2054696D65004454
:10049A006F6F722049442028317E342900536F75CA
:1004AA006E6420747970652028317E332900526584
:1004BA0073657420747970652028317E3629004F5F
:1004CA00464620616674657220756E6C6F636B00B8
:1004DA00466F7263652063616C6C2028307E312917
:1004EA000053656E64696E672070686F6E6573008D
:1004FA00476574696E672070686F6E65730044653E
:10050A00627567206D6F64652028307E3129005737
:10051A006F726B206D6F64652028317E3429004C20
:10052A0043442046572E56455200322D576972656C
:10053A002046572E56455200F9ECE5ED2CE4F9FA1F
:10054A00EEF920E1202020200020ECE7E9F4E5F98B
:10055A0020E3E9E9F8E9ED2E00F0E020ECF4FAE511
:10056A00E72020202020202020002020202020E01A
:10057A00FA20E4E3ECFA2121212000F0E020E4EE65
:10058A00FAEF20202020202020202000202020EC0C
:10059A00F4FAE9E7FA20E3ECFA2E2E2E00EEFAE15D
:1005AA00F6F220E0E9F4E5F12E2E2E00202020E0DC
:1005BA00E9EF20EEF2F0E42020202000EEEEEEE952
:1005CA00F820E4E3E52DE2E9E3E900202020E9F957
:1005DA0020EEF2F0E420202020002020F0E020ECA1
:1005EA00E3E1F82E2E2E200020E4F7E520E1F9E9D8
:1005FA00EEE5F92000F9E5E3F820EEF1F4F820231E
:10060A0000F9E9E3E5F820E4F1FAE9E9ED00E4FAB2
:10061A00F7E1EC20EEF1F4F8202300F7E1ECE42016
:10062A00E4F1FAE9E9EEE400E4F2E1F8FA20F9E9A2
:10063A00E7E420F0EBF9ECE400E7E9E9E2EF20EC8B
:10064A00E020EEE7E5E1F800E7E9E9E2EF20ECE097
:10065A0020EEE7E9E9E200F9E5E3F820F9ED20E325
:10066A00E9F8E4202300EEFAE720E1E3E9F8E420E0
:10067A002300EEF1E3F820F9EEE5FA0020FAF4F8A7
:10068A00E9E820F8E0F9E90020F8F9E9EEFA20E4CF
:10069A00F7E5E3E9ED002020F7E5E320E2E9F9E4F4
:1006AA0020002020F7E5E320ECF7E5E7200020F919
:1006BA00EEE5FA20E4E3E9E9F8E9ED2000F0E9FAE9
:1006CA00E5E120ECF4E920E3E9F8E5FA0020E6EEBA
:1006DA00F0E9ED2029F9F0E9E5FA282000E4E2E35F
:1006EA00F8E5FA20F4F0EC20E3ECFA00E2E9F8F19C
:1006FA00FA20FAE5EBF0E400E8ECF4E5F0E9ED20A5
:10070A00ECF4E920E3E9F8E400EEF1F4F8E920E892
:10071A00ECF4E5EF203200EEF1F4F8E920E8ECF42D
:10072A00E5EF203300EEF6E120E4F2E1F8FA20F9F1
:10073A00E9E7E400E8ECF4E5EF20ECE3E9F8E4208B
:10074A0000E8ECF4E5EF203220ECE3E9F8E42000DD
:10075A00E8ECF4E5EF203320ECE3E9F8E42000E4E8
:10076A00F2E1F8FA20F9E9E7E420E327200020E49F
:10077A00EBF0F120F7E5E320230020E4EBF0F12091
:10078A00F7E5E320E2E9F9E4200020E4EBF0F120C8
:10079A00F7E5E320ECF7E5E7200020E4EBF0F120B1
:1007AA00F9ED202300F0E9FAE5E120ECE3E9F8E4C9
:1007BA002023002020E6EEEF20E4EEFAF0E4200009
:1007CA0020E6EEEF20F4FAE9E7FA20E3ECFA20005B
:1007DA002020E6EEEF20FAE0E5F8E420002020E60B
:1007EA00EEEF20ECEEF2F0E420002020E6EEEF201F
:1007FA00F9E9E7E42000E6E9E4E5E920E3ECFA2098
:10080A003120F2E3203400E4E2E3F8FA20F6ECE9DE
:10081A00EC20302C312C3200E0E9F4E5F120EBEC4D
:10082A00ECE92000F0E9FAE5F720ECE0E7F820F43B
:10083A00FAE9E7E400EEF6E120E7E8E9F4FA20F95C
:10084A00E9E7E400ECF9E3F820E8ECF4E5F0E9ED97
:10085A0000ECF7E1EC20E8ECF4E5F0E9ED00EEF667
:10086A00E120E8F1E800E0E5F4EF20F4F2E5ECFA43
:10087A0020F4F0EC00E2E9F8F1FA20F4F0EC00E2FE
:10088A00E9F8F1FA20EEEEE9F80001002D4E414EAA
:10089A0000494E460000010002009E0004000400C8
:1008AA00A00001000005B50001000105B500010026
:1008BA000205B50001000305B50001000405B500F5
:1008CA0001000505B50001003F0894080000F894EE
:1008DA00EE27ECBBF1E0F5BFE5BFE0936C00F8E171
:1008EA00F1BDE1BD8DE0A2E0BB27ED938A95E9F762
:1008FA0080E090E1A0E0B1E0ED930197E9F7E0EA4A
:10090A00F8E085919591009761F0A591B5910590D0
:10091A001590BF01F00105900D920197E1F7FB01D7
:10092A00F0CF8BBFEFEFEDBFE0E1EEBFC0E0D5E067
:10093A000C946B050E9492231A93AF93BF93EF9383
:10094A00FF93AFB7AF9388241CB1E1E0E2BFE7B7EA
:10095A00E160E7BF44FC40C01030B1F1E0917A0594
:10096A00F0E0E25FFA4F1083E0910E05F0E0319675
:10097A00A0917A05B0E0AE17BF0794F0E7B7EE7F13
:10098A00E7BF992011F4E1E09E2E191511F468943D
:10099A0001C0E89421F8E0E14E2AE7EF4E2207C0B1
:1009AA00A0917A05A13018F0E8E04E2A910EE09164
:1009BA007A05EF5FE0937A05E0917A05F0E0E25F6D
:1009CA00FA4FA0E0A08308C0E7EE4E22E0E0E093F1
:1009DA007A05E89421F89924E0917A05F0E03396B3
:1009EA00E134A0E0FA071CF0E0E0E0937A05AF9169
:1009FA00AFBFFF91EF91BF91AF9119910C945A0536
:100A0A00EA93EFB7EA93AF93BF93EF93FF93AFB72E
:100A1A00AF9356981A989924EDEF4E228824AF91F5
:100A2A00AFBFFF91EF91BF91AF914CC00E9492234B
:100A3A00AF93BF93EF93FF93AFB7AF93E091CB051B
:100A4A00E03029F1E0917B05F0E03196A091CB05E9
:100A5A00B0E0EA17FB071CF45598569A17C0E091C4
:100A6A007B05A091CB05EA1730F4992011F4E1E057
:100A7A009E2E9CB806C00E9499239E0E0E9499231E
:100A8A00ECB9E091CB05EF5FE093CB0508C00E947B
:100A9A009923ECB9E091CB05EF5FE093CB05AF91D9
:100AAA00AFBFFF91EF91BF91AF91E991EFBFF9917C
:100ABA00E991B991A9911895EA93EFB7EA93E7B743
:100ACA00EE7FE7BFE991EFBFE9911895EFE1E1BD4C
:100ADA00EFE0E1BDE0E0EBBBEFEFEABBE0E8E8BB4B
:100AEA00E1E2E7BBE0E0E5BBEFEFE4BBE0EDE2BB50
:100AFA00909AECE7E1BB8898E7E0E3B9EEEFE2B958
:100B0A00E0E0E0936200EFEFE0936100ECE9E0934C
:100B1A006500E4E0E0936400E7E0E3BFE0E0E0BF03
:100B2A00E1E0E2BFE0E0E1BFEFBDEEBDEDBDECBD4F
:100B3A00EBBDEABDE9BDE8BDE0937900E09378003A
:100B4A00E4BDEAEFE3BDEBE0E5BDE3E4E0938B004F
:100B5A00E0E0E0938A00E0938900E0938800E1E016
:100B6A00E0938700E0E0E0938600E0938500E0935D
:100B7A008400E0938300E0938200E0936A00EABF76
:100B8A00E9BFE7B7E068E7BFE7B7E469E7BFE7B7F8
:100B9A00EE7FE7BFE0E0E0937D00EBB9E8EDEAB96C
:100BAA00E6E0E0939500E9E1E9B9E0E0E09390003E
:100BBA00E0939B00E0939A00E0939D00E0939900F4
:100BCA00E0939800E0E8E8B9E0E0E0BD78940E949C
:100BDA00731A0E94EB1B0E94A023A091ED07A23377
:100BEA0078F4809906C0E091F407EF5FE093F40788
:100BFA0001C006C0E091ED07EF5FE093ED07EDCF8E
:100C0A00A091ED07A23310F0E1E001C0E0E0E0932B
:100C1A0006050E94A0230E945F0FE0E0E09308050A
:100C2A00689422F8E89421F8E3EBE0930408E7B724
:100C3A00EE7FE7BF559831D2E8E3E0932E08C09AD9
:100C4A00A8950E94FF14E0916300E87051F4A09106
:100C5A00ED07A33328F4E091ED07EF5FE093ED078A
:100C6A0003C0E0E0E093ED07A091ED07A23371F431
:100C7A000E94A6230E94AD23A4EAB0E00E94B523F5
:100C8A00E3E0E0930B08A4E00E94E814E09163001B
:100C9A00E07111F0879904C0A0910705A03009F00E
:100CAA000AC0A091F407A33328F4E091F407EF5F98
:100CBA00E093F40703C0E0E0E093F407A091F4079F
:100CCA00A23339F40E94BA230E94BF23E4E0E093DE
:100CDA000B08E091F607E03021F4E091F707E030E5
:100CEA0009F41BC00E94BA23E0E0E093F707E09101
:100CFA00EF07E03049F00E94F422E091EF07EF5F3E
:100D0A00E093F8070E94CE23E1E0E093F907E4E0DC
:100D1A00E0930B08ABE00E946D17E091F807E03012
:100D2A0021F4E091F907E03009F412C0E0910705D7
:100D3A00E03011F40E94D523E0E0E093F9070E9425
:100D4A00F622E091F207E03019F0A2E00E946D1756
:100D5A00E091EC07E03031F0E0E0E093EC07E3E00B
:100D6A00E0930B08E0910D08E03029F0E0E0E09311
:100D7A000D080E94E123BB20E1F4E5E0BE2E0E94AB
:100D8A002A1BE0930908E030A1F0E091F007E03077
:100D9A0021F0EF5FE093F507A89A93D2E091F90763
:100DAA00E03021F4E0910705E03009F002C00E942A
:100DBA00CE2341FC02C00E94E41589D526FE05C057
:100DCA00E89426F8E8E7E0932F0825FE3CC0E8946B
:100DDA0025F8E0910705E03039F0E0912F08E0307E
:100DEA0019F0E150E0932F08E0913108E03059F111
:100DFA00E150E0933108E03031F5E0913008E0301D
:100E0A00D9F0E150E0933008E03091F4A091320833
:100E1A00A03021F4A0910905A03009F004C0A6E091
:100E2A000E946D1704C00E94731A0E94E82303C02F
:100E3A00A6E00E946D1707C00E94731AA1E00E94E3
:100E4A00811A0E94E823A0912E08A23020F0A091D6
:100E5A000705A03009F019C0E0912A08E03091F0A6
:100E6A000E94EE23EB3F70F40E94EE23CE2EAC2DAF
:100E7A000E94B814E03029F0AC2D0E94B814EB3F60
:100E8A0008F0CC24E0E0E0932A08E0912F08E03053
:100E9A0021F4A0910705A13008F403C015D014D09D
:100EAA0003D1A0912D08AE3720F0A0910705A230FA
:100EBA0008F404C0E0E0E0932D0834D024FEFECF0D
:100ECA00E89424F8BDCEFFCFE0910E08E03039F463
:100EDA00E0E0E0930705E89420F8E6D022C00E94FB
:100EEA00F623E0910E08F0E0E05FF74FE081E0932F
:100EFA000F080E94FD23EDE0F0E00E943C280E94CA
:100F0A000224E0910F08F0E0A0910708B0910808C8
:100F1A00AE1BBF0BA0930508B0930608E0E0E09370
:100F2A0068050895A0910705A53009F40895E09190
:100F3A001E08E03049F00E940724E081E0931F0870
:100F4A000E940724AEE204C00E940724A0911F0851
:100F5A00A083A0911E08E1E0EA27E0931E08089505
:100F6A00E0E0E0932D080E94FD235A9739F40E948D
:100F7A000E24E5E00E9415240E941B240E94FD23F2
:100F8A00979739F40E94A623E1E00E9415240E9453
:100F9A0026240E94FD23D49739F40E943124E1E0EB
:100FAA000E9415240E9426240E94FD231D9759F4AD
:100FBA000E943824EAEFE0936505EAE0E0935305DE
:100FCA00E4E00E943F240E94FD23AE34E0E0BE0725
:100FDA0029F40E944F24EAEF0E9456240E94FD231E
:100FEA00A134E0E0BE0729F40E945D24E5E00E94F6
:100FFA0056240E94FD23AB35E0E0BE0759F40E9457
:10100A006424E9E0E0936505E1E0E0935305E2E05A
:10101A000E943F240E94FD23A836E0E0BE0741F467
:10102A000E946B24E2E00E947224E5E00E943F24C1
:10103A000E94FD23A238E0E0BE0721F40E94782432
:10104A000E941B240E94FD23AF38E0E0BE0721F472
:10105A000E9478240E941B240E94FD23AC39E0E000
:10106A00BE0721F40E9478240E941B240E94FD23BB
:10107A00A537E0E0BE0751F40E948024E0E0E09347
:10108A006505E1E0E09353050E942624E091680596
:10109A00E03011F00E94872408950E94D5230E940F
:1010AA008B240E945F0F08950E94D5230E948B24EF
:1010BA00E0E0E0932E08E0930A05E093EB07089539
:1010CA001A93F2DFA0910908A53169F4E0E0E093F0
:1010DA00EB07D394E091EA07ED1510F4E1E0DE2E78
:1010EA000E949324EDC0A0910908A73169F4E0E0B9
:1010FA00E093EB07E1E0ED1518F0D090EA0701C0A4
:10110A00DA940E949324DCC0A0910908A63109F060
:10111A0046C0E0912A08E03041F00E94EE23EB3FFE
:10112A0020F40E94EE23E03011F4CC2081F1CC208F
:10113A0019F40E94EE23CE2EE1E0F0E0E0932B08B2
:10114A00F0932C08E89425F8E0E0E0930C080E945C
:10115A00731AAC2D0E94B814E13028F0AC2D0E940D
:10116A00B814EB3F08F00DC0A1E00E946D17E1E052
:10117A00E093EC07E091FE07E093EB070E949D24C1
:10118A0003C0CC240E94A2240E94E81404C00E9436
:10119A00A2240E94E814E0E0E0932A0891C0A091FA
:1011AA000908A83109F053C0E0E0E093EB070E9478
:1011BA00A8101E2F0E94A724309709F040C01130B2
:1011CA0039F40E94BA230E94BF230E949D2434C08E
:1011DA00123041F4A091F607A03021F4A091F8074B
:1011EA00A03009F00BC00E94731A689426F8E8949C
:1011FA0020F80E94F6230E94AC241EC0133041F44A
:10120A00A091F607A03021F4A091F807A03009F0C8
:10121A000EC00E94731A689426F8E1E0E09307056D
:10122A0020F8E0E0E0930E080E94AC2405C0E0E05C
:10123A00E0932A080E94A2240E94E81407C0E0E072
:10124A00E0932A080E94A2240E94E81439C0A091BF
:10125A000908A13010F0AB3008F01FC00E949D248D
:10126A000E94E814CC24DD24A0910908AA3019F4BC
:10127A00E0E0E0930908E0912A08F0E0EC5DF74F1E
:10128A00A0910908A083A0912A08A63028F4E09129
:10129A002A08EF5FE0932A0813C0A0910908A13138
:1012AA0079F4E0E0E093EB07E0932A08E1E0E093C9
:1012BA000D080E949D240E94E814A2E00E946D1766
:1012CA0004C3E0910705E03029F4E3E0E0930C0859
:1012DA00F7DE17C1A0910705A13009F05CC0E8E765
:1012EA00E0932F08A0910908A53181F4E0916605E1
:1012FA00A0910F08EA1711F4E1E003C0E0910F088A
:10130A00EF5FE0930F080E94BF2444C0A091090830
:10131A00A73179F4A0910F08A13019F4E09166057C
:10132A0003C0E0910F08E150E0930F080E94BF2428
:10133A0031C0A0910908A63139F5E0916705F0E0BE
:10134A003197A0910E08B0E0AE17BF07DCF4E09128
:10135A000E08F0E0E05FF74FA0910F08A083E0913C
:10136A000E08EF5FE0930E08E1E0E0930F08A0910A
:10137A000708B0910808EDE00E9431280E94C624AF
:10138A000E94BF24EDDD06C0A0910908A13111F425
:10139A009BDD90D5B0C0E0911E08E03009F4C2DDB3
:1013AA00E8E7E0932F08A0910908A831F9F40E9410
:1013BA00FD231D9791F4E0911D08EF5FE0931D084E
:1013CA00E0E0E0932008E0915305A0911D08EA1798
:1013DA0018F4E1E0E0931D0808C0A0910705A330C6
:1013EA0021F4E1E0E0931D088DD085C0A0910908A1
:1013FA00A531C1F4A0910705A53011F00E94CB24B4
:10140A00E0916505A0916805AE1720F4E0916805A2
:10141A00EF5F01C0E1E0E09368050E9487240E9423
:10142A00CF2469C0A0910908A731B9F4A091070592
:10143A00A53011F00E94CB24A0916805A23020F0BB
:10144A00E0916805E15002C0E0916505E093680506
:10145A000E94CF240E9487244EC0A0910908A1317E
:10146A00A9F5A0911D08A23048F0E0911D08E150AD
:10147A00E0931D08E0E0E093200827C00E94CB24F7
:10148A000E9464240E94D8240E94DE24E093230848
:10149A001BDDE0912308E03019F016DD0BD515C0ED
:1014AA000E946B240E94E524A0E10E946423E0309C
:1014BA0061F00E94F424E6EBF0E0FA93EA93A0E1EB
:1014CA000E946423A1E00E94AF1B15C0A0910908E5
:1014DA00A63189F00E94FD231D9711F44FD00BC04D
:1014EA00A0910705A53009F40895A0911D08A1301F
:1014FA0009F408D017D0E3E0E0930B08A1E00E94BA
:10150A00E81408951A93E0911D08E1501E2FE09106
:10151A0053051E1730F40E94F924A0E2A0831F5F2E
:10152A00F6CFD3C1A0910908A13010F0AB3008F072
:10153A0024C0A0910908AA3019F4E0E0E093090850
:10154A000E940724DF01E0910908E05DEC93E09135
:10155A001D08EF5FE0931D08E0915305A0911D0857
:10156A00EA1740F4E1E0E0931D08A0910705A430D2
:10157A0009F4C8DFE0E0E093200808951A93E0E058
:10158A00E0932108A0910908A13010F0AB3008F0CF
:10159A009CC1A0910908AA3019F4E0E0E093090877
:1015AA00E0910908A0910A08EA1711F0E1E003C0E6
:1015BA00E0912008EF5FE0932008E0910908E093AA
:1015CA000A08A0912008A430C9F4A0910908A730FC
:1015DA00A9F0A93021F0A0910605A13069F0A091E7
:1015EA000908A43041F0A53031F0A93021F0A091CA
:1015FA000605A03009F002C00E94FE24A09120082E
:10160A00A63018F0E1E0E0932008A0912008A53068
:10161A0029F4E0910908E05D1E2F54C1E0912108E8
:10162A00E03009F036C1A0910908A130B1F4A091C7
:10163A002008A13009F417E2A0912008A23009F489
:10164A001DE2A0912008A33009F41EE2A09120080F
:10165A00A33011F40E94FE241CC1A0910908A230F3
:10166A00B9F4A0910605A13021F4E0912008E05CCC
:10167A0007C0E0910605E03021F4E0912008EE5120
:10168A001E2FA0912008A33011F40E94FE2401C14C
:10169A00A0910908A330B9F4A0910605A13021F45C
:1016AA00E0912008ED5B07C0E0910605E03021F4E7
:1016BA00E0912008E1521E2FA0912008A33011F4D6
:1016CA000E94FE24E6C0A0910908A43031F5A09139
:1016DA000605A13049F4E0912008EA5B0E9404253E
:1016EA0011F40E94FE2418C0E0910605E030A1F42E
:1016FA00A0912008A13009F410EFA0912008A2308F
:10170A0009F41FEEA0912008A33009F41EEEA0915F
:10171A002008A43009F41DEEBCC0A0910908A53028
:10172A0031F5A0910605A13049F4E0912008E75B64
:10173A000E94042511F40E94FE2418C0E0910605B7
:10174A00E030A1F4A0912008A13009F419EEA0918B
:10175A002008A23009F41BEEA0912008A33009F456
:10176A001AEEA0912008A43009F41CEE92C0A091B0
:10177A000908A630B9F4A0910605A13021F4E09138
:10178A002008E45B07C0E0910605E03021F4E0910F
:10179A002008EB511E2FA0912008A33011F40E94BB
:1017AA00FE2477C0A0910908A730B1F4A0910605DC
:1017BA00A13029F4E0912008E15B1E2F0CC0E091D2
:1017CA000605E03041F4E0912008E9500E94042522
:1017DA0011F40E94FE245DC0A0910908A83019F5F1
:1017EA00A0910605A13029F4E0912008ED5A1E2F98
:1017FA0013C0E0910605E03079F4A0912008A130E9
:10180A0009F416EFA0912008A23009F415EFA0916F
:10181A002008A33009F417EFA0912008A33011F48F
:10182A000E94FE2436C0A0910908A93011F5A091A2
:10183A000605A13029F4E0912008EA5A1E2F18C0A3
:10184A00E0910605E030A1F4A0912008A13009F446
:10185A0011EFA0912008A23009F412EFA0912008FC
:10186A00A33009F414EFA0912008A43009F413EF6F
:10187A0010C0E0912008E35C6E2FE0910908A3E014
:10188A00EA02F001E60F1E2FA0912108A23009F406
:10189A00105EE0910908E030A9F4A0912008A13077
:1018AA0009F410E2A0912008A23009F418E2A091EC
:1018BA002008A33009F419E2A0912008A33011F4FA
:1018CA000E94FE240E9407241083199108950E9401
:1018DA000925A0910705A03011F0A13009F40AC02A
:1018EA00A0EEB5E00AD2A0910705A43011F40E9437
:1018FA001025F0C1CC2021F0E091EB07E03009F48B
:10190A00C7C00E9438240E941425E0910A05F0E01D
:10191A003097A1F4A0910605A13029F40E941A2556
:10192A00ADEBB0E008C0E0910605E03031F40E946A
:10193A001A25AEECB0E00E944B235FC0E130A0E074
:10194A00FA07A1F4A0910605A13029F40E941A25EC
:10195A00AFEDB0E008C0E0910605E03031F40E9436
:10196A001A25A0EFB0E00E944B2347C0E430A0E064
:10197A00FA07A1F4A0910605A13029F40E941A25BC
:10198A00A1E0B1E008C0E0910605E03031F40E9420
:10199A001A25A2E1B1E00E944B232FC0E230A0E059
:1019AA00FA07A1F4A0910605A13029F40E941A258C
:1019BA00A3E2B1E008C0E0910605E03031F40E94EC
:1019CA001A25A4E3B1E00E944B2317C0E530A0E03A
:1019DA00FA0799F4A0910605A13029F40E941A2564
:1019EA00A5E4B1E008C0E0910605E03031F40E94B8
:1019FA001A25A6E5B1E00E944B230E941F253097C5
:101A0A00E1F0A0910605A13051F40E941F25E05D86
:101A1A00E093DD050E942625E093DF050DC0E091E5
:101A2A000605E03049F40E941F25E05DE093DF05DA
:101A3A000E942625E093DD0527C00E943C253097A9
:101A4A00A1F0A0910605A13031F40E943C25E05D89
:101A5A000E94432509C0E0910605E03029F40E945E
:101A6A003C25E05D0E944F250FC0A0910605A130DC
:101A7A0021F4E0E20E94432507C0E0910605E03028
:101A8A0019F4E0E20E944F25A0EEB5E036D11EC15E
:101A9A00CC2021F0E0910705E03009F080C00E94D7
:101AAA0038240E941425A0EDB5E027D1A09106059F
:101ABA00A13039F4E0EEF5E0FA93EA93A7E6B1E053
:101ACA000AC0E0910605E03041F4E0EEF5E0FA9351
:101ADA00EA93A9E7B1E00E944B23E3E0E093EF0524
:101AEA000E941F25309741F1A0910605A13081F48B
:101AFA000E941F25E05DE093E4050E943C250E94B8
:101B0A005B25E093E5050E946225E093E60513C094
:101B1A00E0910605E03079F40E941F25E05DE0932C
:101B2A00E7050E943C250E945B25E093E6050E949A
:101B3A006225E093E50532C00E943C253097D1F03A
:101B4A00A0910605A13031F40E943C25E05DE093A6
:101B5A00E4050CC0E0910605E03059F4E0E2E093B8
:101B6A00E7050E943C25E05DE093E605AC2D0E9466
:101B7A006A2514C0A0910605A13021F4E0E2E093A1
:101B8A00E40509C0E0910605E03041F4E0E2E093A3
:101B9A00E705E093E605AC2D0E946A2597C0E0911F
:101BAA000805E03009F490C0F0E0E130A0E0FA075F
:101BBA0049F4E9E0F0E00E94C624EAE0F0E00E947D
:101BCA00022475C0E230A0E0FA0749F4EDE0F0E043
:101BDA000E94C624EEE0F0E00E94022468C0E630CB
:101BEA00A0E0FA0749F4E9E0F0E00E94C624E4E143
:101BFA00F0E00E9402245BC0E730A0E0FA0749F453
:101C0A00E3E1F0E00E94C624E5E1F0E00E9402244C
:101C1A004EC0E430A0E0FA0791F4EFE0F0E00E9451
:101C2A00C624E0910B05E03019F0EEE0F0E002C0C6
:101C3A00E0E1F0E0E0930708F093080838C0E530E7
:101C4A00A0E0FA0791F4E1E1F0E00E94C624E091F5
:101C5A000C05E03019F0EEE0F0E002C0E2E1F0E05D
:101C6A00E0930708F093080822C0E830A0E0FA07DA
:101C7A0091F4E6E1F0E00E94C624E0910D05E0301F
:101C8A0019F0EEE0F0E002C0E0E1F0E0E0930708CE
:101C9A00F09308080CC0E930A0E0FA0741F4E7E144
:101CAA00F0E00E94C624E8E1F0E00E940224E0E0AD
:101CBA00E09308050E9409250E9473250E941025B9
:101CCA00E4E0E0930C0806C00E947325A0EEB5E09C
:101CDA000E94AB220E947D250E941A250E9481251E
:101CEA000895BA93AA930E94852580C2BA93AA93AB
:101CFA00552011F00E94852579C2BA93AA931A93A6
:101D0A000E9493250E94982510E0E09153051E1722
:101D1A0028F40E94F924E081E03009F408C00E9406
:101D2A009C250E94F924E081EC931F5FEECF188175
:101D3A0023960895AA930E94992811E030E0303042
:101D4A0039F500E0E09153050E1750F40E94A225E0
:101D5A00A081A03310F0AA3308F002C00F5FF2CFBF
:101D6A00E0915305E017A1F0E1500E2F013058F031
:101D7A000E94A725E02FF0E03197EC5AFA4FE08154
:101D8A00EC930150F3CFE0E3E09354051F5FD7CF04
:101D9A00AC810E94AF1B0E94A02825960895BA9391
:101DAA00AA936297E0E0E883E9830E94972810E00B
:101DBA0000E020E040E050E011E0E0916505E11725
:101DCA0008F474C0A895A12F0E94C71BA12FB2DFE7
:101DDA0030E020E000E0E09153050E1750F40E9435
:101DEA00A225E081E03029F00E94A225A081A0323C
:101DFA0009F419C0A8950E94A225A081A03311F464
:101E0A00303009F001C00DC031E0E22FF0E0DE0110
:101E1A001896AE0FBF1F0E94A225E081EF70EC93C7
:101E2A002F5F0F5FD8CFE1E0F0E0EE83FF8340E061
:101E3A0050E001E02017E0F0A895A22FBB27E02F81
:101E4A00F0E00E94AC25DE011896AE0FBF1FEC91A0
:101E5A00F0E0AE81BF810E9429284E0F5F1FAE813C
:101E6A00BF81EAE00E943128EE83FF830F5FE2CF51
:101E7A00EA8DFB8DE417F50718F04A8D5B8D09C0D2
:101E8A00E88DF98D4E175F0718F0488D598D01C0FE
:101E9A000BC05A934A93A4E5B5E00E94F822A12FF9
:101EAA0049DFA12F0E94AF1B1F5F87CF0E949E2888
:101EBA006C9608951A93A89591D2A8950E945D24CC
:101ECA00E3E00E94B12579F4E0915505EF70E43022
:101EDA0050F4E0915505EF70E33021F4E091550597
:101EEA00EF7009F406C00E94F424ABE9B1E00E9445
:101EFA00B5230E94BD25E093EE070E94C92521F073
:101F0A00E0E3E09354050FC0E0915505E07021F03D
:101F1A00E0915605E07009F409C00E94F424AFE983
:101F2A00B1E00E944B23A2E00E94AF1B0E94BD2594
:101F3A00E093EF07A3E00E94C71B0E94DE2421F072
:101F4A000E94F4240E94D3250E94BD25E093F00745
:101F5A00A091F007A33609F4A89AE091F007E030BF
:101F6A0009F4A8980E94DA2529F00E94F424A3EA29
:101F7A00B1E008C0E0915505EF7049F40E94F424DD
:101F8A00A7EAB1E00E944B23A4E00E94AF1BE091B4
:101F9A005505F0E0EF70F070AAE0B0E00E94372833
:101FAA00DF01E0915605F0E0EF70F070EA0FFB1FD9
:101FBA00E093FE07F093FF070E94E425E23060F405
:101FCA00E13049F4E0915505EF70E83021F4E091F1
:101FDA005605EF7009F405C00E94F424ABEAB1E09B
:101FEA000EC0E0915405EF7029F4E0915505EF70A9
:101FFA00E23008F009C00E94F424AFEAB1E00E947E
:10200A004B23A5E00E94AF1B0E94EE25EF70EA0F5A
:10201A00E093F1070E946424E1E00E94B125E09375
:10202A002208A0912208A53010F4E03009F406C075
:10203A00E0912208E150E093220806C00E94F424AD
:10204A00ABEBB0E00E94B5230E94C925AE2EE2E0B8
:10205A00EA1530F4E1E0AE2E0E94F4240E94FF2536
:10206A000E94DA25E093F207A091F207A23058F015
:10207A00E1E3E0935405A4E00E94AF1BE09154050C
:10208A00EF70E093F207A9E00E94C71BA9E052DEB5
:10209A00E0915405E770E0930308A0910308A0308B
:1020AA0011F0A53048F0E1E0E0930308E1E3E093A2
:1020BA005405A9E00E94AF1B0E94E425E093F307B0
:1020CA00A091F307A23058F0E1E3E0935405A5E0AC
:1020DA000E94AF1BE0915405EF70E093F3070E9452
:1020EA004F24E3E0E0935305EAEFE0936505E0E06F
:1020FA00F0E0FA93EA93AAEFB0E051DE11E01B3F59
:10210A0048F4A12F0E94B814F0E0EC50FA4F108363
:10211A001F5FF5CFE0E0E0930705A5E00E946D1789
:10212A00A4E00E946D176BD30E94D5230E94092553
:10213A000E9473250E947D250E9410250E941A255F
:10214A000E94812519C30E949928E0E03E2F1E2F84
:10215A00E6E0E09353050E94A623E0912A08E030C6
:10216A00B1F13F5FA32F0E94C71B00E020E0E0917E
:10217A002A082E1710F4003009F013C0E22FF0E0FD
:10218A00EC5AFA4FA081E22FF0E0EC5DF74FE081C4
:10219A00F0E0F096B0E0EA17FB0709F001E02F5FE4
:1021AA00E6CF003071F411E0E22FF0E0EC5AFA4F7A
:1021BA00A081A13220F0A0912A08A63008F001C01F
:1021CA0010E0383010F4103009F001C0CACF3130B5
:1021DA0011F4103009F401C012E0323011F4103059
:1021EA0009F401C013E0E12F0E94A0282496089563
:1021FA000A921A92FA926A937A938A939A93AA9370
:10220A00BA93EA93FA93EFB7EA93689424F8E091C1
:10221A000008F09101080E940626EA0FFB1F0E949F
:10222A000B26BB2009F0BA94E091FC07F091FD0758
:10223A00309779F0ACEFB7E0ED91FD913197FE93CD
:10224A00EE93E091FC07F091FD07309711F40E949C
:10225A00F914A0910705A23060F0A0912B08B09163
:10226A002C08E6E5F0E00E945428309711F40E9409
:10227A009707ABE2B8E00E941026A0912B08B09114
:10228A002C08AA3FE0E0BE0708F49AC0E0912B08A8
:10229A00F0912C08EA5FF040E0932B08F0932C08A9
:1022AA00689425F8E091EB07E03011F1E0E0E09363
:1022BA000C08E091EB07E150E093EB07E091FE0791
:1022CA00F091FF073197A091EB07B0E0EA17FB07FF
:1022DA0041F4E4E0E0930B08E2E0EA1511F4A5E02A
:1022EA0072D3E091EB07E03019F4E1E0E0930D08D6
:1022FA00E091F507E03021F0A091F507A33608F048
:10230A0008C0E091F507E150E093F507E03009F4E1
:10231A00A898E091F607E03091F0E0E0E0930C082D
:10232A00E4E0F0E00E94C624E5E0F0E00E94022426
:10233A00E091F607E150E093F607A1E044D3E0917B
:10234A00F807E03091F0E2E0F0E00E94C624E3E012
:10235A00F0E00E940224E091F807E150E093F807C8
:10236A00E2E0EA1511F4A3E02ED3E0910C08E03084
:10237A0041F0E0912E08E03021F4E0910705E030C9
:10238A0009F00AC0E0910C08E150E0930C08E03033
:10239A0019F4E1E0E0930D08E0912A08E03019F021
:1023AA00A0E0CA1609F004C0E0910705E03009F080
:1023BA0004C0E0912E08EF5F01C0E0E0E0932E0830
:1023CA00E991EFBFF991E991B991A991999189910F
:1023DA0079916991F9901990099018951A930E9428
:1023EA006B240E94E524A09153050E946423E030E7
:1023FA0029F50E9464240E94D824E0915405EF70C4
:10240A00E0932308E030D1F4A0915405AF3FB1F036
:10241A0010E0143698F4E0916300E87029F00E9405
:10242A00F4240E941626A8C1B79B05C00E94F42472
:10243A000E941626A1C100001F5FEBCFE7E0F0E083
:10244A000E94C624E8E0F0E00E9402240E940925C6
:10245A000E9473250E947D250E9410250E941A253C
:10246A000E948125A8950E941D26A895A09123085F
:10247A00A130F1F0A23009F468C0A0912308A3307A
:10248A0009F4BEC0A0912308A43009F4E3C0A091C6
:10249A002308A53021F4E0E0E093230809C0A091C5
:1024AA002308A63009F430C1A0912308A73029F1E6
:1024BA000E940E24E6E0E0935305E5E0E09365050B
:1024CA000E949C1B0E94F424A3EBB1E00E94B52356
:1024DA00E0912308E03009F017C10E94A6230E9468
:1024EA00AD23A7EBB1E00E94B5230E9431240E94DC
:1024FA00AD23AEEBB1E00E94B523A8950E946424F7
:10250A00E1E00E942126ABEBB0E00E94B5230E94D5
:10251A00F4240E94FF250E94F4240E942426A4E0A9
:10252A000E9428260E942426A5E00E94AF1B0E9432
:10253A002B2620F0A0915405A53338F00E94F424EC
:10254A000E942426A9E00E94AF1B0E946424E1E0B5
:10255A00E09353050E942B2620F0A0915405A53341
:10256A0048F00E94F4240E942426A9E00E94AF1B8E
:10257A00E1E003C0E0915405E770E09303080E948C
:10258A004F24E3E0E093530511E01B3FA0F5A89523
:10259A00A0910308A23028F4A13011F4113208F0F6
:1025AA001DC0143658F40E943226E05DE0935405AB
:1025BA000E943926E0935505E0E20DC0A12F0E9442
:1025CA004126E09354050E9432260E945B25E0933F
:1025DA0055050E943926E093560508C0E0E3E093CA
:1025EA005405E0E2E0935505E0935605A12F0E94B9
:1025FA00AF1B1F5FCACFE0912308E03009F084C007
:10260A00A8950E945D24E3E00E942126A5ECB1E092
:10261A000E94B5230E94F424A9ECB1E00E944B2346
:10262A00A2E00E9428260E94D3250E94F424AFEA41
:10263A00B1E00E944B23A4E00E942826ADECB1E051
:10264A000E944B23A5E00E94AF1BE0912308E030D3
:10265A0009F05AC0A8950E943824EAE0E09353058D
:10266A00EAEFE09365050E949C1BA0910605A13044
:10267A0029F40E94F424A1EDB1E008C0E091060516
:10268A00E03031F40E94F424AEEDB1E00E944B2315
:10269A00A1E00E94AF1BA0910605A13029F40E9477
:1026AA00F424A6EEB1E008C0E0910605E03031F46A
:1026BA000E94F424A3EFB1E00E944B23A2E00E94FF
:1026CA00AF1BA0910605A13029F40E94F424ABEFB8
:1026DA00B1E008C0E0910605E03031F40E94F4242C
:1026EA00A8E0B2E00E944B23A3E00E94AF1B14E0D3
:1026FA001B3F50F4A8950E94F4240E949825A12F0C
:10270A000E94AF1B1F5FF4CFA8950E946424E1E0EA
:10271A000E942126ADE9B1E00E944B23A6E00E9467
:10272A00AF1BA7E00E94AF1BA3E00E94AF1B0E9451
:10273A006B24E0E1E0935305A1E00E94C71B0E94CD
:10274A00F424A6EBB0E00E943723E03079F00E942F
:10275A00F424A6EBB0E00E94B523E0E3E09354052D
:10276A00E0E0E0935505A2E00E94AF1BE091070567
:10277A00E03011F4A3E0ACD319910895AA93A8818B
:10278A00A13021F4A981BA81EC91B3C0A881A23009
:10279A0051F4A981BA81EC910E944826E981FA8113
:1027AA00E181EA0FA6C0A881A33099F4A981BA8170
:1027BA00EC91A4E6EA02602DE981FA81E181AAE0BE
:1027CA00EA02F001A62FAE0FE981FA81E281EA0F4F
:1027DA0090C0E0E08EC0AA931A9310E01A3F68F402
:1027EA00E12FF0E0E151F94FE081A981EA1719F4EC
:1027FA00E12FEF5FE5C01F5FF1CFE0E0E1C02A976C
:10280A001A930A93E9E1F0E00E94C624E4E0F0E0BA
:10281A000E9402240E9409250E9473250E947D2598
:10282A000E9410250E941A250E948125E0E0E0936B
:10283A00EA070E943824EAE0E093530511E01B3FBF
:10284A0008F03DC0A895A12F0E944D260E94F424AD
:10285A00AAE071D0DE01129636D0E030F1F40E947F
:10286A005426A1E0A08301E00B3FB0F4A895A02F65
:10287A000E944D26A4E5B5E03ED0E03059F0A4E52B
:10288A00B5E021D0E03031F40E945426DF01EC910A
:10289A00EF5FEC930F5FE8CF04C00E945426A0E0DC
:1028AA00A0830E945426A081E091EA07EA1728F43F
:1028BA000E945426E081E093EA071F5FC0CF198186
:1028CA0008812C960895BA93AA931A9310E01031AE
:1028DA0020F4E09153051E1708F009C00E949C25B8
:1028EA00AC91A03211F0E0E003C01F5FF0CFE1E04D
:1028FA00188123960895BA93AA931A9310E0103177
:10290A0020F4E09153051E1708F012C00E945A26BF
:10291A00EC91E01518F4E1E0188123C00E945A26D0
:10292A00EC910E1618F4E0E018811BC01F5FE7CF88
:10293A00E0E0188116C0AA93E881E03091F0E150F6
:10294A00E883AB81BC81F0E0EA0FFB1F0F01E8814D
:10295A00A981BA81F0E0AE0FBF1FEC91D001EC93D0
:10296A00EBCF25960895AA931A93A981A03011F066
:10297A00AB3F10F0E0E024C00E944F24E3E0E09374
:10298A005305A9810E94C71BA9810E949F0EA0918D
:10299A005305A33019F40E94EE2507C0E0915405AF
:1029AA00EF700E944826E0915505EF70EA0F1E2F3E
:1029BA00113010F01B3F08F002C0E12F01C0E0E027
:1029CA00188122960895AA93AA2059F0E881E093E3
:1029DA000208E8EEF3E00E946126EAE1E0938A0049
:1029EA0001C002D021960895E0E0E09302080E9417
:1029FA0066260895E0910208E03009F4DFC0F0E0AD
:102A0A00E130A0E0FA0761F40E946B26A53DE3E0FD
:102A1A00BE0718F00E94702602C00E947826C6C01F
:102A2A00E230A0E0FA0771F40E946B26A939E3E0CC
:102A3A00BE0728F0E0E8F2E00E940B2602C00E94DE
:102A4A007826B4C0E330A0E0FA0771F40E946B263E
:102A5A00AD3BE2E0BE0728F0E0E8F0E00E940B267A
:102A6A0002C00E947826A2C0E430A0E0FA0711F55D
:102A7A000E946B26A73EE3E0BE0718F00E9470266C
:102A8A0018C00E946B26AD3AE3E0BE0780F00E94B0
:102A9A007B2619F40E94822602C00E9489260E947F
:102AAA008F260E949A2610F40E94702602C00E9465
:102ABA0078267CC0E530A0E0FA0709F077C00E94CA
:102ACA006B26A73EE3E0BE0718F00E9470266EC090
:102ADA000E946B26AD3AE3E0BE0780F00E947B2697
:102AEA0019F40E94822602C00E9489260E948F261B
:102AFA000E949A2610F40E94702658C00E946B26E3
:102B0A00A934E3E0BE0718F00E9466264FC00E946F
:102B1A006B26A734E3E0BE0718F00E94702646C071
:102B2A000E946B26AD30E3E0BE0798F0EAE1E0933D
:102B3A008A000E947B2619F40E94822602C00E9403
:102B4A0089260E948F260E949A2610F40E947026D7
:102B5A002DC00E946B26A93AE2E0BE0718F00E9437
:102B6A00662624C00E946B26A73AE2E0BE0718F048
:102B7A000E9470261BC00E946B26AD36E2E0BE079B
:102B8A0098F0EAE1E0938A000E947B2619F40E94F9
:102B9A00822602C00E9489260E948F260E949A26B7
:102BAA0010F40E94702602C00E947826E091FB076A
:102BBA00E0938700E091FA07E0938600089544FEC7
:102BCA007DC1EFEE4E2221FE04C0E0910705E03000
:102BDA0009F070C1E2E0E515B1F4E0E0E093BB056D
:102BEA000E949E260E94A626A0E10E947D23EAE674
:102BFA00F5E0FA93EA930E94AB260E941D260E94F2
:102C0A009E260E94AB26E89421F8E0E0E0930C08A7
:102C1A00E7B7EE7FE7BFE0E0E0930805E0910F0534
:102C2A00F0E0E033A0E0FA0771F4A0910905A130C1
:102C3A0031F0A23021F0A53011F0A83019F446D4B1
:102C4A00A6E046D137C1E035A0E0FA0709F064C032
:102C5A00A0911005A734E9F5A0910905A630C9F598
:102C6A000E94AF26A0911105A63429F40E94E823F8
:102C7A00A6E042D42EC0E0910C05E030A1F04BD47E
:102C8A0025D4E0910C05EF5FE0930C05A5E034D460
:102C9A00A0910C05A13220F0E0E0E0930C0536C0CB
:102CAA00A9E016D116C0E0910B05E03091F00ED4E0
:102CBA00E0910B05EF5FE0930B05A4E01DD4A09112
:102CCA000B05A13220F0E0E0E0930B051FC0A7E05E
:102CDA00FFD0A0911005AE34F1F4A0910905A730F8
:102CEA00D1F40E94AF26E0910D05E030A1F0EED3B9
:102CFA00E0910D05EF5FE0930D05A8E0FDD3A091EB
:102D0A000D05A13230F0E0E0E0930D05A6E0E0D039
:102D1A000895AAE0DDD0CEC0E934A0E0FA0759F55B
:102D2A00A0911005A635D9F4A0910905A33019F48C
:102D3A00E0E0E0930905A3E0DFD30E946B24E0E121
:102D4A000E942126E1E1F5E0FA93EA93A0910E05AB
:102D5A00A2500E947D23A2E00E94AF1B0BC0A0914B
:102D6A001005AD3439F4552029F0E0E0E093090567
:102D7A00A9E0C2D39DC0E334A0E0FA0709F04EC02F
:102D8A00A0910905A43019F4E0E0E0930905E09167
:102D9A001305E053A4E6EA02602DE0911105E05321
:102DAA00AAE0EA02F001A62FAE0F0E94B52611F49E
:102DBA00E0E2CE2EEC2DF0E0EC50FA4FC080A0916C
:102DCA001005A13441F4E1E0E0930A05E091FE0721
:102DDA00E093EB0722C0A0911005A53439F4E2E094
:102DEA00E0930A05E5E0E093EB0717C0A091100510
:102DFA00A63439F4E4E0E0930A05E5E0E093EB0752
:102E0A000CC0A0911005A23411F4A2E005C0A09153
:102E1A001005A73411F4A7E06FD34AC0E435A0E047
:102E2A00FA0731F5A0910905A43019F4E0E0E0931E
:102E3A000905E0911305E053A4E6EA02F001AE2F7A
:102E4A00E0911105AE0FA053EAE0EA02F001AE2FBD
:102E5A000E94B52611F4E0E2CE2EEC2DF0E0EC5003
:102E6A00FA4FC080E091F107E093EB07E5E01EC05E
:102E7A00E535A0E0FA07C9F4E091F607E03021F45D
:102E8A00E091F807E03009F00FC00E94E1230E94A8
:102E9A00CE23E091EE07EF5FE093F607E1E0E093DF
:102EAA00F7070E949D248FDD03C0E7E0E0930A053F
:102EBA00A0E003D3E0E0E0937A0509C00E94BC26B3
:102ECA0020F0A0913108A03009F001C007D308957D
:102EDA00AA931A930A9310E000E0E0910705E03004
:102EEA0009F0E7C2E0913108E03011F441FE13C065
:102EFA00A0913E08A93018F4AA81A03009F40AC0AA
:102F0A00E0913E08EF5FE0933E08F0E0ED5CF74F9A
:102F1A00AA81A083CEC2AA81A630F1F4E091090564
:102F2A00E03039F00E94C226E081EA83E89427F86B
:102F3A0012C00E94BC2610F0D1D2BBC2E0E0E093DE
:102F4A003008E0913D08EF5FE0933D08F0E0ED5C6A
:102F5A00F74FE081EA8313C0E0910905E03049F4B4
:102F6A000E94BC2628F0BAD20E94C226AA81A08357
:102F7A0006C023FC04C00E94C226E081EA83EA81DB
:102F8A00E093320810E0F0E03097B1F410E014302A
:102F9A0040F4E12FF0E0E458FA4FA0E3A0831F5F6A
:102FAA00F6CFE0913008E03019F4E1E0E093300820
:102FBA00E3E0E093310806C2E130A0E0FA0709F045
:102FCA0041C0CC2011F48AD274C2E4E0E09309052E
:102FDA00E0E0E0930A050E94C826A3E4A0830E94C9
:102FEA00C826A0E3A0830E94C826FF93EF930E94FD
:102FFA00CE26DF010E94D326AF91BF91EC930E94A7
:10300A00C826FF93EF930E94CE260E945B25AF91BC
:10301A00BF91EC930E94C826FF93EF930E94CE269D
:10302A00DF01E4E6F0E00E944F28E05DAF91BF9136
:10303A000E94D82619F4E2E0E0933008E6E0E09333
:10304A003108C0C1E230A0E0FA07D1F4E5E00E94FD
:10305A00DD26A3E4A0830E94C826A5E4A0830E94DB
:10306A00C826A0E3A0830E94C826A0E30E94E02607
:10307A0019F4E2E0E0933008E3E0E0933108A2C1FA
:10308A00E330A0E0FA0791F4E2E00E94DD260E9414
:10309A00E5260E94E826A2E50E94E02619F4E2E06D
:1030AA00E0933008E6E0E09331088CC1E430A0E018
:1030BA00FA0709F05AC0E2E00E94DD260E94E526DE
:1030CA000E94E826A0E5A0830E94EB26E091220850
:1030DA00EF5CEC930E94C8260E94F126E4E6F0E039
:1030EA000E94F7260E94F126EAE0F0E00E94F72605
:1030FA000E94F126EAE0F0E00E9454280E94FD2690
:10310A00BF01A091F1070E944126DB01EC930E94C6
:10311A00C826BF01A091F107B0E00E94D326DB01C7
:10312A00EC930E94C826BF01A091F1070E940127D3
:10313A000E94EB26E0910308EF70E05DEC930E9499
:10314A00EB26E091F307E170E05DEC930E94EB2639
:10315A00EA2DE370E05D0E94D82619F4E2E0E093DC
:10316A003008E3E0E09331082DC1E530A0E0FA072A
:10317A0091F4E3E00E94DD26A9E4A0830E94C82618
:10318A00A6E50E94E02619F4E2E0E0933008E6E0C2
:10319A00E093310817C1EB30A0E0FA0791F4E8E0B8
:1031AA000E94DD26A5E5A0830E94C826A1E30E940D
:1031BA00E02619F4E2E0E0933008E3E0E093310816
:1031CA0001C1E730A0E0FA0709F08BC0E0910B05D6
:1031DA00E03019F4E0E2E0930B05E6E00E94DD2618
:1031EA000E94E5260E940A270E94E826BF01A091B4
:1031FA000B050E940D27BF01A0910B050E94012714
:10320A000E9480240E9413270E94A725EC91E03097
:10321A0041F0FD01A081A03221F0E09153050E1783
:10322A0008F008C00E94EB260E94A225E081EC93D8
:10323A000F5FEACF0E94C8260E941C270E9413270C
:10324A000E94A725EC91E03021F0FD01A081A03277
:10325A0009F404C0E09153050E1708F008C00E9453
:10326A00EB260E94A225E081EC930F5FE9CF0E9432
:10327A00C8260E941C270E9413270E94A725EC91AA
:10328A00E03021F0FD01A081A03209F404C0E091F0
:10329A0053050E1708F008C00E94EB260E94A225CB
:1032AA00E081EC930F5FE9CF0E94C8260E941C2799
:1032BA00E1E0E0935305A0910B050E94C71B0E9411
:1032CA00C826A0915405A0830E94C826ACE70E9494
:1032DA00E02619F4E2E0E0933008E6E0E0933108F2
:1032EA0071C0E930A0E0FA0731F5E0910C05E03051
:1032FA0019F4E0E2E0930B05E6E00E94DD260E9465
:10330A00E5260E940A270E940A27BF01A0910C0500
:10331A000E940D27BF01A0910C050E941F27E05DA6
:10332A00DB010E94D82619F4E2E0E0933008E6E0D7
:10333A00E093310847C0EA30A0E0FA0709F042C03A
:10334A00E0910D05E03019F4E0E2E0930D05E7E0C5
:10335A000E94DD260E94E526AEE4A0830E94C826CC
:10336A000E94E826BF01A0910D050E940D27BF010A
:10337A00A0910D050E9401270E943824EAE0E093FB
:10338A005305A0910D050E94C71B00E00E94A225CB
:10339A00E081E03021F0E09153050E1708F008C0F3
:1033AA000E94EB260E94A225E081EC930F5FEECFEC
:1033BA00E0913008E03019F4E2E0E0933008E3E00D
:1033CA00E093310810937B05E12FF0E0E458FA4FBF
:1033DA00A0E0A0837894E2E0E51509F05FC0E0E0A0
:1033EA00E0930E05E093BB05EBEBF5E0FA93EA9365
:1033FA00EBE7F5E0FA93EA93A6E00E947D23ABEBB4
:10340A00B5E00E9458237E2EE6E0E71508F47E2EEA
:10341A000E942527AEE2A0830E942527DF01E091C2
:10342A0009050E942B27DF01E0913D080E942B2706
:10343A00DF01E0913E080E942B27BF01A0913308CB
:10344A000E941F270E942F27BF01A0913408B0E0D5
:10345A00EAE0F0E00E9457280E942F27BF01A091BE
:10346A0032080E941F270E942F27AEE2A0830E94E3
:10347A002527A0E0A0830E942527A0E0A0830E9420
:10348A00A6260E94AB26AAEFB0E00E941B28E0E025
:10349A00E093BB050E94A6260E94AB26E0E0E093DB
:1034AA00CB0599241A9AE2E04E2AE0E0ECB9569844
:1034BA00559A1981088123960895AA930E94342760
:1034CA00689423F8A88104DD0C94801CE0E0E09362
:1034DA0009050E943427E89423F80895E0E0E09370
:1034EA0032084424E89423F8E0933E08E0933D0828
:1034FA00EDDF609009050895AA93E0E0E0930A05DC
:10350A00E0930C08E093EB070E94BA23E881E0936A
:10351A0008050C94801C1A930A9316E000E00E9496
:10352A0080240E943A270E9498250E94A225A0E0A2
:10353A00A083E2E0E51591F4E0E0F5E0FA93EA937E
:10354A00AEE0B5E00E947B0E0E941D26E1E0F5E0A8
:10355A00FA93EA93A2E0B5E00E947B0E0E9442270A
:10356A00A081AC3721F0E09153050E1708F009C08D
:10357A000E94A7250E944227E081EC931F5F0F5FFC
:10358A00EDCF0E94A225A0E0A083E2E0E51581F438
:10359A000E94F424A3E0B5E00E947B0E0E941D263F
:1035AA00E4E0F5E0FA93EA93A5E0B5E00E947B0E29
:1035BA000E944227A081AC3709F41F5F0E94472767
:1035CA000E943A270E9498250E94A225A0E0A08383
:1035DA000E944227A081AC3721F0E09153050E17D3
:1035EA0008F003C00E944C27F3CF0E94A225A0E056
:1035FA00A0830E944227A081AC3709F41F5F0E9472
:10360A0047270E943A270E9498250E94A225A0E0F7
:10361A00A0830E944227A081AC3721F0E091530594
:10362A000E1708F003C00E944C27F3CF0E94A22570
:10363A00A0E0A0830E944227A081AC3709F41F5F53
:10364A00A0910C050E94AF1B6FC01A9310916905D7
:10365A000DD0E0936905103011F4E11719F4E0E098
:10366A000C94A01CE09169050C94A01C1A930A936F
:10367A00C69810E10E945A2700E00430E8F514FFCA
:10368A000CC0B29B02C0E1E04FC0B39B02C0E2E0B3
:10369A004BC0B49B02C0E3E047C015FF0CC0B29B0D
:1036AA0002C0E4E041C0B39B02C0E5E03DC0B49B68
:1036BA0002C0E6E039C016FF0CC0B29B02C0E7E0C8
:1036CA0033C0B39B02C0E8E02FC0B49B02C0E9E05C
:1036DA002BC017FF0CC0B29B02C0E8E125C0B39B08
:1036EA0002C0EAE021C0B49B02C0E1E11DC0110F93
:1036FA000E945A270F5FC1CFE3B1EF70E3B9C69AB0
:10370A0000E00E3118F400000F5FFBCFB29B02C03D
:10371A00E5E10AC0B39B02C0E7E106C0B49B02C060
:10372A00E6E102C0C698E0E00991199108951A935A
:10373A000E94F424A0E1B2E00E944B2311E0E09140
:10374A006505E11728F0A895A12F04D01F5FF7CFD0
:10375A000C94A01C0E94612710E0E09153051E17EB
:10376A0010F4103108F00DC0AEE4B5E00E94102646
:10377A003197DF010E94F924E0810E9486281F5FA9
:10378A00ECCF72C00E9461270E94F424A0E1B2E04B
:10379A000E944B2310E0E09153051E1710F41031DC
:1037AA0008F00FC00E94F9240F01AEE4B5E00E94B0
:1037BA0010263197DF010E947A28D001EC931F5F0F
:1037CA00EACF0E94F924A0E0A0834EC0A0E387D0EC
:1037DA00A0E385D0A0E383D0A0E381D0A0E27FD08C
:1037EA00A8E276D0A0E174D0ACE072D0A6E070D0A6
:1037FA00A1E06ED001D00895AA98AB98A8E468D049
:10380A00A4E00E947E270E9483270E948927A0E0C5
:10381A0052D00E948927A4E04ED0AFE10E947E27B1
:10382A00A4E049D0A0E047D0A4E045D0A4E00E949B
:10383A007E27A1E140D00E948327A0E03CD0A0E0EF
:10384A003AD00895AA930E94992830E0EC813E1755
:10385A0058F400E010E00436E0E01E0718F40F5FA9
:10386A001F4FF9CF3F5FF2CF0E94A02825960895F7
:10387A00AA931A93A981A0582BD010E0103140F4D2
:10388A00AA81BB81EE27A10FBE1FEC91E03009F49B
:10389A0009C0AA81BB81EE27A10FBE1FAC910BD034
:1038AA001F5FECCF103120F4A0E205D01F5FFACFE2
:1038BA001881249608950E949227E4600E949D2709
:1038CA000E94A127E07FE4600E949D27AA9813C066
:1038DA000E9492270E949D270E94A12709C0AA93AD
:1038EA00A5E0B0DFE5B3EF70E5BBE5B3AE2FE88145
:1038FA00E07F0E949D27219608951A9310E8AF9AB7
:10390A00EFE7E4BBAB9AAA9817FF0FC0AF9A000083
:10391A0000000000A99A00000000000013B317FF7E
:10392A0013B3AF98A99809D0EFCFEFEFE4BBE5B393
:10393A00EF70E5BBAB981991089500000000A99AB1
:10394A00000000000000A998000000000895BA9342
:10395A00AA931A93A0910605A13009F0C9C2E09171
:10396A000705E03009F024C1EB81FC81309739F476
:10397A000E949325A2E2B2E00E94A92718C1E13071
:10398A00A0E0FA0739F40E949325A3E3B2E00E946B
:10399A004B230DC1E230A0E0FA0739F40E949325C7
:1039AA00A4E4B2E00E944B2302C1E330A0E0FA078C
:1039BA0039F40E949325AEE4B2E00E944B23F7C08B
:1039CA00E430A0E0FA0739F40E949325AAE5B2E0B0
:1039DA000E944B23ECC0E530A0E0FA0739F40E94BC
:1039EA009325A4E6B2E00E944B23E1C0E730A0E0B1
:1039FA00FA0739F40E949325AAE5B2E00E944B2304
:103A0A00D6C0E830A0E0FA0739F40E949325A1E76E
:103A1A00B2E00E944B23CBC0E930A0E0FA0739F4A8
:103A2A000E949325A2E8B2E00E944B23C0C0EA306C
:103A3A00A0E0FA0739F40E949325ACE8B2E00E94AC
:103A4A004B23B5C0EB30A0E0FA0739F40E94932566
:103A5A00A9E9B2E00E944B23AAC0EC30A0E0FA0721
:103A6A0039F40E949325A3EAB2E00E944B239FC037
:103A7A00ED30A0E0FA0739F40E949325AFEAB2E0EC
:103A8A000E944B2394C0EE30A0E0FA0739F40E945A
:103A9A009325ACEBB2E00E944B2389C0EF30A0E043
:103AAA00FA0789F40E949325A8ECB2E00E944B23FE
:103ABA00E0910B05E03011F0E15001C0E0E2EA9339
:103ACA000E94B62774C0E031A0E0FA0739F40E94D8
:103ADA009325A5EDB2E00E944B2369C0E131A0E035
:103AEA00FA0789F40E949325A3EEB2E00E944B23C1
:103AFA00E0910C05E03011F0E15001C0E0E2EA93F8
:103B0A000E94B62754C0E231A0E0FA0739F40E94B5
:103B1A009325A1EFB2E00E944B2349C0E331A0E014
:103B2A00FA0739F40E949325AFEFB2E00E944B23C3
:103B3A003EC0E431A0E0FA0739F40E949325A0E1DF
:103B4A00B3E00E944B2333C0E531A0E0FA0739F411
:103B5A000E949325ADE1B3E00E944B2328C0E631D1
:103B6A00A0E0FA0789F40E949325A9E2B3E00E9433
:103B7A004B23E0910D05E03011F0E15001C0E0E285
:103B8A00EA930E94B62713C0E731A0E0FA0749F486
:103B9A000E949325A7E3B3E00E94BA270E94C02798
:103BAA0006C0E831A0E0FA0711F40E94C6279FC1B7
:103BBA00EB81FC81309761F40E949325A5E4B3E080
:103BCA000E94EE2710F0E2E001C0E8E0E09366050B
:103BDA00AB81BC81129731F40E949325A0E5B3E032
:103BEA000E94F527AB81BC81139731F40E9493257B
:103BFA00ADE5B3E00E94F527AB81BC81149731F49F
:103C0A000E949325A9E6B3E00E94F527AB81BC8107
:103C1A00119731F40E949325A3E7B3E00E94F52798
:103C2A00AB81BC81169731F40E949325ABE7B3E0D0
:103C3A000E94F527AB81BC81159731F40E94932528
:103C4A00ACE8B3E00E94F527AB81BC81179731F449
:103C5A000E949325AAE9B3E00E94F527AB81BC81B3
:103C6A00189731F40E949325A3EAB3E00E94F5273E
:103C7A00AB81BC811A9731F40E949325AFEAB3E075
:103C8A000E94F527AB81BC811B9731F40E949325D2
:103C9A00A6EBB3E00E94F527AB81BC811C9731F4F7
:103CAA000E949325A5ECB3E00E94F527AB81BC8165
:103CBA00199731F40E949325A4EDB3E00E94F527E9
:103CCA00AB81BC81A238E0E0BE0731F40E949325A3
:103CDA00A4EEB3E00E94FB27AB81BC81AF38E0E0E1
:103CEA00BE0731F40E949325A0EFB3E00E94FB27A0
:103CFA00AB81BC81AC39E0E0BE0731F40E94932568
:103D0A00AEEFB3E00E94FB27AB81BC81A537E0E0B0
:103D1A00BE0731F40E949325ACE0B4E00E94FB2771
:103D2A00AB81BC815A9731F40E949325AAE1B4E091
:103D3A000E94FB27AB81BC81979731F40E9493259F
:103D4A00A7E2B4E00E944B23AB81BC81D49731F443
:103D5A000E949325A7E3B4E00E944B23AB81BC8168
:103D6A001D9731F40E949325A5E4B4E00E94FB2735
:103D7A00AB81BC81AE34E0E0BE0731F40E949325EA
:103D8A00A2E5B4E00E94FB27AB81BC81A134E0E04C
:103D9A00BE0791F5A0916805A13031F40E949325E0
:103DAA00A0E6B4E00E944B23A0916805A23031F44A
:103DBA000E949325ABE6B4E00E944B23A0916805CC
:103DCA00A33031F40E949325A8E7B4E00E944B2364
:103DDA00A0916805A43031F40E949325A5E8B4E0C7
:103DEA000E944B23A0916805A53031F40E949325C7
:103DFA00AFE8B4E00E944B23AB81BC81AB35E0E075
:103E0A00BE0709F05AC0A0916805A13031F40E949A
:103E1A009325A9E9B4E00E944B23A0916805A2303A
:103E2A0031F40E949325A7EAB4E00E944B23A091A3
:103E3A006805A33031F40E949325A8EBB4E00E94F0
:103E4A004B23A0916805A43031F40E949325A9EC74
:103E5A00B4E00E944B23A0916805A53031F40E947A
:103E6A009325AAEDB4E00E944B23A0916805A630E1
:103E7A0031F40E949325ABEEB4E00E944B23A0914B
:103E8A006805A73031F40E949325AAEFB4E00E9496
:103E9A004B23A0916805A83031F40E949325A8E02D
:103EAA00B5E00E944B23A0916805A93031F40E9425
:103EBA009325A9E1B5E00E944B23AB81BC81A836CA
:103ECA00E0E0BE07A1F4A0916805A13031F40E9498
:103EDA009325A9E2B5E00E944B23A0916805A23080
:103EEA0031F40E949325A4E3B5E00E944B23D2C289
:103EFA00E0910605E03009F0CDC2E0910705E03017
:103F0A0009F029C1EB81FC81309739F40E9493258D
:103F1A00A2E4B5E00E94A9271DC1E130A0E0FA079A
:103F2A0039F40E949325A3E5B5E00E944B2312C100
:103F3A00E230A0E0FA0739F40E949325A3E6B5E03F
:103F4A000E944B2307C1E330A0E0FA0739F40E942C
:103F5A009325A4E7B5E00E944B23FCC0E430A0E01F
:103F6A00FA0729F40E9493250E940128F3C0E5303C
:103F7A00A0E0FA0739F40E949325A6E9B5E00E9469
:103F8A004B23E8C0E730A0E0FA0729F40E94932502
:103F9A000E940128DFC0E830A0E0FA0739F40E9445
:103FAA009325A7EAB5E00E944B23D4C0E930A0E0EC
:103FBA00FA0739F40E949325A6EBB5E00E944B2339
:103FCA00C9C0EA30A0E0FA0739F40E949325A6ECAA
:103FDA00B5E00E944B23BEC0EB30A0E0FA0739F4EB
:103FEA000E949325A5EDB5E00E944B23B3C0EC30A7
:103FFA00A0E0FA0739F40E949325A4EEB5E00E94E6
:10400A004B23A8C0ED30A0E0FA0739F40E949325AB
:10401A00A2EFB5E00E944B239DC0EE30A0E0FA0764
:10402A0029F40E9493250E94012894C0EF30A0E051
:10403A00FA0789F40E949325AFEFB5E00E944B235B
:10404A00E0910B05E03011F0E15001C0E0E2EA93A3
:10405A000E94B6277FC0E031A0E0FA0739F40E9437
:10406A009325ABE0B6E00E944B2374C0E131A0E097
:10407A00FA0789F40E949325A8E1B6E00E944B232F
:10408A00E0910C05E03011F0E15001C0E0E2EA9362
:10409A000E94B6275FC0E231A0E0FA0739F40E9415
:1040AA009325A5E2B6E00E944B2354C0E331A0E079
:1040BA00FA0739F40E949325A2E3B6E00E944B2343
:1040CA0049C0E431A0E0FA0739F40E949325A3E439
:1040DA00B6E00E944B233EC0E531A0E0FA0739F46E
:1040EA000E949325A2E5B6E00E944B2333C0E63135
:1040FA00A0E0FA0789F40E949325A1E6B6E00E949F
:10410A004B23E0910D05E03011F0E15001C0E0E2EF
:10411A00EA930E94B6271EC0E731A0E0FA0749F4E5
:10412A000E949325A0E7B6E00E94BA270E94C02702
:10413A0011C0E831A0E0FA0719F40E94C6270AC0A4
:10414A00E931A0E0FA0731F40E949325ACE7B6E022
:10415A000E944B239FC1EB81FC81309761F40E943E
:10416A009325A6E8B6E00E94EE2710F0E2E001C02F
:10417A00E8E0E0936605AB81BC81129731F40E94B6
:10418A009325A2E9B6E00E94F527AB81BC8113977B
:10419A0031F40E949325A0EAB6E00E94F527AB818C
:1041AA00BC81149731F40E949325ACEAB6E00E94D0
:1041BA00F527AB81BC81119731F40E949325A8EBB6
:1041CA00B6E00E94F527AB81BC81169731F40E94B4
:1041DA009325A7ECB6E00E94F527AB81BC81159721
:1041EA0031F40E949325A7EDB6E00E94F527AB8132
:1041FA00BC81179731F40E949325A7EEB6E00E947E
:10420A00F527AB81BC81189731F40E949325A6EF5C
:10421A00B6E00E94F527AB81BC811A9731F40E945F
:10422A009325A2E0B7E00E94F527AB81BC811B97DA
:10423A0031F40E949325A3E1B7E00E94F527AB81F0
:10424A00BC811C9731F40E949325A1E2B7E00E9439
:10425A00F527AB81BC81199731F40E949325AFE20F
:10426A00B7E00E94F527AB81BC81A238E0E0BE0727
:10427A0031F40E949325AEE3B7E00E94FB27AB819D
:10428A00BC81AF38E0E0BE0731F40E949325ABE46D
:10429A00B7E00E94FB27AB81BC81AC39E0E0BE07E6
:1042AA0031F40E949325AAE5B7E00E94FB27AB816F
:1042BA00BC81A537E0E0BE0731F40E949325A9E648
:1042CA00B7E00E94FB27AB81BC815A9731F40E9468
:1042DA009325A8E7B7E00E94FB27AB81BC8197979B
:1042EA0031F40E949325A4E8B7E00E944B23AB81E6
:1042FA00BC81D49731F40E949325A4E9B7E00E94C7
:10430A004B23AB81BC811D9731F40E949325A4EA0B
:10431A00B7E00E94FB27AB81BC81AE34E0E0BE0768
:10432A0031F40E949325AFEAB7E00E94FB27AB81E4
:10433A00BC81A134E0E0BE0791F5A0916805A130E7
:10434A0031F40E949325ADEBB7E00E944B23A09174
:10435A006805A23031F40E949325AAECB7E00E94C6
:10436A004B23A0916805A33031F40E949325AAED4E
:10437A00B7E00E944B23A0916805A43031F40E9453
:10438A009325A7EEB7E00E944B23A0916805A530BC
:10439A0031F40E949325A4EFB7E00E944B23AB812E
:1043AA00BC81AB35E0E0BE0709F05AC0A0916805B0
:1043BA00A13031F40E949325A0E0B8E00E944B237B
:1043CA00A0916805A23031F40E949325A1E1B8E0DA
:1043DA000E944B23A0916805A33031F40E949325D3
:1043EA00A2E2B8E00E944B23A0916805A43031F400
:1043FA000E949325AEE2B8E00E944B23A091680583
:10440A00A53031F40E949325AFE3B8E00E944B2314
:10441A00A0916805A63031F40E949325AEE4B8E075
:10442A000E944B23A0916805A73031F40E9493257E
:10443A00ABE5B8E00E944B23A0916805A83031F49F
:10444A000E949325A8E6B8E00E944B23A091680534
:10445A00A93031F40E949325A0E7B8E00E944B23CB
:10446A00AB81BC81A836E0E0BE07A1F4A091680543
:10447A00A13031F40E949325AFE7B8E00E944B23A4
:10448A00A0916805A23031F40E949325A9E8B8E00A
:10449A000E944B23A981BA810E9458231E2F1031F2
:1044AA0030F40E949C25E0E2EC931F5FF8CF18815C
:1044BA0025960895BA93AA932497A0910605A13048
:1044CA00E9F4AE81A43658F40E940528E883AE8147
:1044DA000E941F27E05DE983E0E0EA830EC0AE8117
:1044EA000E944126E883AE81B0E00E94D3260E9452
:1044FA000D28E05DEA83E0E0EB831EC0E09106054B
:10450A00E03011F5AE81A43648F40E9405280E94D5
:10451A000D28E05DE883E0E0EA830EC0AE810E94E8
:10452A004126EA83AE81B0E00E94D3260E940D287C
:10453A00E05DE883E0E0EB83EC81FD81FA93EA93A6
:10454A00DE0112960E94262327960895BA93AA930B
:10455A001A930A93A0910605A130E9F100E0083008
:10456A00D0F50E9410281C91E02FAA81BB81F0E0AF
:10457A00EA0FFB1FBF010E941628AA81BB81AE0F5A
:10458A00BF1FEC91DB01EC930E941628AA81BB8124
:10459A00EA0FFB1F10830E941028AC91A03E28F05E
:1045AA000E941028AC91AB3F08F005C00E94102869
:1045BA00EC91E054EC93103E10F01B3F08F009C058
:1045CA000E941628AA81BB81AE0FBF1FEC91E0544E
:1045DA00EC930F5FC4CF1981088124960895959AA8
:1045EA00089595980895BA93AA93A991B991E991D2
:1045FA00F99130962AF4E095F09531966DE26D9333
:10460A00E89480E197E20DD088EE93E00AD084E640
:10461A00992707D08AE005D06E2F10D066276C93B1
:10462A0008956627E817F90720F06395E81BF90B48
:10463A00C9F7662311F416F008956894605D6D93C6
:10464A000895BA93AA93E991F991A991B991CD01E3
:10465A006D916623E9F7119761916D936623E1F7EE
:10466A00FC010895BA93AA93E991F991A991B99194
:10467A001D900590011421F40020D1F7EE2708952A
:10468A001018E1F3E1E008F4E2500895BA93AA930E
:10469A00E991F991A991B991CD0105900D92002066
:1046AA00E1F7FC010895BA93AA93A991B991EE276B
:1046BA00FF276D91662311F03196FBCF0895AA93D7
:1046CA00002411246991E991F991A991B99166237C
:1046DA0049F06A951D900590011421F40020B9F75C
:1046EA00EE2708951018E1F3E1E008F4E250089586
:1046FA00AA937991E991F991A991B991CD01772379
:10470A0051F07A9561916D936623C9F7772319F071
:10471A007A956D93FBCFFC010895AA93BA93EA9315
:10472A00FA93EFB7EA930895E091CB05F0E0E558E4
:10473A00FA4FE0810895E0E0E093F407E093ED0793
:10474A000895E1E6F0E0E0935005F09351050895ED
:10475A00E6E0E0935305E4E5F5E0FA93EA93089579
:10476A000E944B23A1E00C94AF1BE0E0E0932A08DF
:10477A00CC240895E091EE07EF5FE093F607EAEFA5
:10478A00F0E0E0932B08F0932C08E1E0E093F707C0
:10479A000895EAEFF0E0E0932B08F0932C080895CF
:1047AA00E0E0E0930508E0930608E1E0F0E0E0933A
:1047BA000708F09308080895CC24E0E0E0932A085B
:1047CA00DD240C945908E0E0E0930C05E0930B0516
:1047DA000895E4E2F8E0FA93EA93A0912A080C9487
:1047EA00C313E1E0E0930705E0E0E0930E080895C3
:1047FA00A0910508B09106080895E0930708F09380
:10480A0008080895E0911D08F0E03197EC5AFA4F34
:10481A000895EDE6F0E0E0935005F0935105089510
:10482A00E0936505E6E0E09353050895E3E0E0933D
:10483A000705E1E0E0936805E0931D08E0931E0890
:10484A000895E2E0E0930705E1E0E0936805E0936C
:10485A001D08E0931E080895E7E6F0E0E09350058E
:10486A00F09351050895EBE8F0E0E0935005F093DA
:10487A0051050895E0930705E1E0E0936805E093A8
:10488A001D08E0E0E0932108E0932008E1E0E093CE
:10489A001E080895EFE4FAE0E0935005F0935105FD
:1048AA000895E0936505E3E0E0935305E2E0E2CF83
:1048BA00EDE3FDE0E0935005F09351050895ECE433
:1048CA00FDE0E0935005F09351050895E0E4F0E02F
:1048DA00E0935005F09351050895E0936505E0E1F2
:1048EA00E09353050895E5E5FDE0E0935005F09364
:1048FA005105E0E0F2CFE5E5FDE0E0935005F093E5
:10490A0051050895A09168050C94C71BE0E0E09357
:10491A006805E0930E08E09307050895AD2D0E94FF
:10492A00F013CE2EE3E0E0930B08A1E00C94E81418
:10493A00E3E0E0930B08A1E00895E5E0E0930B08BB
:10494A00A2E00895E0910508F09106080895E1E0D3
:10495A00E0930F08E0E0E0930508E0930608E09191
:10496A000F08F0E045DFEA0FFB1F47DFE0E0E093C6
:10497A002A08DECFE0910F08F0E03ADFEA0FFB1FCA
:10498A003CCFE0930508F09306080895A0916805C6
:10499A000C94AF1BE1E0E0931D08E0E0E0932108EE
:1049AA00E09320080895E1E0E0935305A3E00C9416
:1049BA00C71BA3E00E949F0EE0915405EF70089573
:1049CA00E0E1E0935305A1E00E94C71BE4E5F5E0AE
:1049DA00FA93EA93E6EBF0E0FA93EA930895E4E5B2
:1049EA00F5E0FA93EA930895E12FF0E0EC5AFA4FD2
:1049FA000895E0912008EF5FE093200808951E2FA4
:104A0A00A0912008A33008959DDFFA93EA93A0EDC0
:104A1A00B5E00C94AC1CA0EEB5E00C94AB22EAE035
:104A2A00E0935305AC2D0C94C71BE0EDF5E0FA9327
:104A3A00EA930895AC2DB0E0E4E6F0E00E944F2836
:104A4A000895AC2DB0E0EAE0F0E00E944F28DF01C3
:104A5A00EAE0F0E00E945728E05DE093DE05AC2D25
:104A6A00BB27EAE0F0E00E945728E05D0895AC2DEC
:104A7A00B0E0EAE0F0E00E944F280895E093DD05F7
:104A8A00AC2DBB27EAE0F0E00E945728E05DE093F6
:104A9A00DE050895E093DE05AC2DBB27EAE0F0E0E1
:104AAA000E945728E05DE093DD050895DF01EAE002
:104ABA00F0E00E945728E05D0895AC2DBB27EAE09C
:104ACA00F0E00E945728E05D0895BB27EAE0F0E095
:104ADA000E945728E05DE093E5050895E0910708F4
:104AEA00F0910808FA93EA93A0EEB5E00C94AC1C96
:104AFA00A0EDB5E00C94AB22A0EEB5E00C94760ED6
:104B0A00EA81FB81FA93EA93A0E00E943D1CE881C6
:104B1A00F981FA93EA93A0E40C943D1CE981FA81A5
:104B2A00FA93EA930895AAE8B1E00C944B23A98179
:104B3A00BA81EE27A10FBE1F0895E02FF0E0EC5ACC
:104B4A00FA4F0895A02FB0E0AC5ABA4F08950E94C8
:104B5A007328EA1BFB0B0895E0935305A1E00E941A
:104B6A00C71BA1E00E949F0EE0915405EF700895C3
:104B7A00E0915505EF70AAE0EA02F001AE2FE0914C
:104B8A005605EF70EA0F0895A2E00E94C71BA2E043
:104B9A000E949F0EE0915405EF700895A3EAB1E0D8
:104BAA000E944B23A3E00C94AF1BA4E00E94C71BF6
:104BBA00A4E00E949F0EE0915405EF700895A5E0CD
:104BCA000E94C71BA5E00E949F0EE0915405EF705A
:104BDA000895E0915405EF70A4E6EA02602DE09191
:104BEA005505EF70AAE0EA02F001A62FAE0FE09198
:104BFA0056050895ABEBB0E00E944B23A2E00C945B
:104C0A00AF1BA091FA07B091FB070895E093FA074A
:104C1A00F093FB070895ED91FD913196FE93EE9383
:104C2A000895ADE9B1E00E944B23A3E00C94AF1BB9
:104C3A00A4EFB1E00C941B28E0935305D0CEABEB64
:104C4A00B0E00C944B230E94AF1BC9CEA9E00E948E
:104C5A00C71BA0915405A1330895A12FB0E0EAE043
:104C6A00F0E00E944F280895A12FBB27EAE0F0E068
:104C7A000E945728E05D0895B0E0E4E6F0E00E9463
:104C8A004F28E05D0895AAE0EA02F001AE2F0895E8
:104C9A000E94C71BFE013296FA93EA930895E12F08
:104CAA00F0E03197E151F94F0895AB81BC81EE27CD
:104CBA00A10FBE1F0C903BCFE093FC07F093FD07BA
:104CCA000895E0E0E0938A001B980895A091FC07FC
:104CDA00B091FD070895E0910B08ACE0EA9FF0015E
:104CEA00E058FF4F93CFE1E0F0E0E6CFEFDFE6E0F8
:104CFA00F0E00E94542830970895E0EDFFEFE0932A
:104D0A000008F09301080895E0E0E0930008E093BA
:104D1A0001080895E0910B08F0E03396ACE0B0E0AA
:104D2A000E943728A0E8B0E012CF6BDFAE17BF07AA
:104D3A000895E0E0E0936A05EAE6F5E0FA93EA937B
:104D4A000895EEE0F5E0FA93EA930895ABEBB5E047
:104D5A000C947B0EE0E0E0930905A0E00C94621A43
:104D6A00E0911205E053EA0FCE2ECC200895E0918F
:104D7A003E08A0913D08AE170895E0913D08F0E085
:104D8A00ED5CF74F08951F5FE12FF0E0E558FA4F09
:104D9A000895AC2D0E94B814F0E00895EAE0F0E01E
:104DAA000E944F2883CEEC93E0913008E0300895BA
:104DBA00E0930905E8CFA083E0913008E030089538
:104DCA00A0E5A083E0CFA3E5A083DDCF1F5FA12FDD
:104DDA00B0E0A558BA4F0895BF01A091FE07B0915F
:104DEA00FF0708950E943C28E05DDB01EC93CBCFDE
:104DFA00E05DDB01EC93C7CFBB27EAE0F0E00E945D
:104E0A005728E05DDB01EC930895A7E4A083BBCFAC
:104E1A00B0E0EAE0F0E00E944F28EACFE0E1E09358
:104E2A005305A0910B050E94C71B00E00895ACE74B
:104E3A00A08361CDBB27EAE0F0E00E9457280895DD
:104E4A00E72D7394F0E0E554FA4F0895EF70E05DB2
:104E5A00EC93F6CFEF70E05DDB01EC93F1CFE0E08D
:104E6A00E0933108E09330080895E0E1E0935305B8
:104E7A00E0E0E093650500E0B2CDE12FF0E0E25F0B
:104E8A00FA4F0895A0910C050E94AF1B34CDE02F74
:104E9A000F5FF0E0EC5AFA4FDF01E12F1F5FF0E0FD
:104EAA00E25FFA4FE081EC930895E3B1EF70E3B962
:104EBA00E3B1E12BE3B90895AA930E949928EC8102
:104ECA00E0935205F0E031979F01E0915005F0918F
:104EDA005105E050F040BF01E0915305F0E0D901DF
:104EEA000E943728E60FF71FE0934E05F0934F050F
:104EFA0008950E94601CAEE00C94601CAFE10E9411
:104F0A00601CA4E00C94601CA4E00E94601CA4E055
:104F1A000E94601CA4E00C94601CAA930E94821C4C
:104F2A00E5B3EF70E5BBE5B3AE2FE881E07F089506
:104F3A00EA2BE5BB0C94A21CE5B3EF70E5BBE5B325
:104F4A00AE2FE881E29508950E944B23A981BA8188
:104F5A001D96E1E0EC93A981BA811F96E2E0EC93F9
:104F6A000895AA81BB810C945F220E944B23E09191
:104F7A001105EF7088CEE0911205EF70EA0FEA93FF
:104F8A00F0CFE0911705A981BA81EC93E09116055B
:104F9A00A981BA811196EC93E0911505A981BA818C
:104FAA001296EC93E0911405A981BA811396EC93B9
:104FBA00E0911305A981BA811496EC93A981BA816B
:104FCA001696E0E2EC93A981BA811796E0E0EC9399
:104FDA0008950E944B23A0E020FCA1E0A13008958F
:104FEA000E944B23E2E0E093670508950E944B2359
:104FFA00E0916805EA93B5CFA5E8B5E00C944B2398
:10500A00AE81B0E0EAE0F0E00E944F28E05D08954A
:10501A00E983AE810FCFAA81BB81EE27A00FBE1F05
:10502A000895E02FF0E0AFE0B0E091CD109639F0AE
:10503A0088EE93E00197F1F7A8951197C9F70895BB
:10504A00F195E195F0400895FA9FF02DEB9FF00D50
:10505A00EA9FE02DF10D08956E2F6A9FF0016B9F74
:10506A00F00D08952DD0F0DF0EF4EADF0895002444
:10507A00112490E1AA0FBB1F001C111C0E1A1F0A53
:10508A0018F40E0E1F1E01C0A1609A9599F7FD0132
:10509A00D001089515D0EBDF0EF4D2DF0895E7DFD3
:1050AA00FD010895E894B7FF04C0A095B095119644
:1050BA006894F7FDC5DFDBDFFD010EF4C1DF08955B
:1050CA00E894F7FF02C0BCDF6894B7FF06C0A0955A
:1050DA00B095119600F8039400FA08951B2EBF2F7D
:1050EA00F12D1A2EAE2FE12D0895E199FECFFF93EF
:1050FA00FFB7F894AEBBBFBBE09AEDB3FFBFFF9119
:10510A000895E19B02C0A895FCCF9FB7F894AEBB67
:10511A00BFBBE09A8DB3E81719F0EDBBE29AE19AAA
:10512A009FBF08955A934A933A932A931A930A93DC
:10513A0008955D814C813B812A81198108810895F6
:00000001FF
