:080000000C94A2020C94000014
:100008000C9400000C9400000C9400000C94000068
:100018000C9400000C9400000C9400000C94F80D53
:100028000C9400000C9400000C9400000C94000048
:100038000C9400000C9400000C9497030C9400009E
:100048000C94D5020C9451030C943B030C940000BF
:100058000C9400000C9400000C9400000C94000018
:100068000C9400000C9400000C9400000C94000008
:100078000C9400000C9400000C9400000C940000F8
:100088000C9400001027E80364000A000100001027
:10009800000110000100000000000000313233347C
:1000A8003536202020202020202020202000332E1C
:1000B800352E34350020EEF6ECF6EC20ECE3E9F8CA
:1000C800E4203330200020EEFAF7F9F820ECE3E9D9
:1000D800F8E4203330200020ECE020EEE7E5E1F8FA
:1000E80020E327203330200020F9E9E7E420E4F179
:1000F800FAE9EEE42033302000E4FAE7EC20F9E9ED
:10010800E7E420E3272033302000E3E9F8E4203354
:100118003020ECF6ECF6E5EC20240020202020200E
:1001280020202020202020202020200030333000D4
:10013800303031003039390030313000313830005A
:100148003032300031323300313233343536003218
:100158003532353235003030300030303500303609
:10016800300020E3E9F8E420EEF1F4F82031202013
:1001780020200020E3E9F8E420EEF1F4F820322012
:100188002020200020E3E9F8E420EEF1F4F8203301
:100198002020202000F0E020E4EEFAEF2E2E2E00A2
:1001A800EEE0F8E2EF20F9EEE5FA21002020202029
:1001B8002020202020202020202020200000F9ECD2
:1001C800E5ED2CE4F9FAEEF920E1202020200020CA
:1001D800ECE7E9F4E5F920E3E9E9F8E9ED2E00F0C8
:1001E800E020ECF4FAE5E720202020202020200061
:1001F8002020202020E0FA20E4E3ECFA212121202D
:1002080000F0E020E4EEFAEF20202020202020203B
:100218002000202020ECF4FAE9E7FA20E3ECFA2E9B
:100228002E2E00EEFAE1F6F220E0E9F4E5F12E2EAA
:100238002E00202020E0E9EF20EEF2F0E42020203C
:100248002000EEEEEEE9F820E4E3E52DE2E9E3E94B
:1002580000202020E9F920EEF2F0E4202020200000
:100268002020F0E020ECE3E1F82E2E2E200020E400
:10027800F7E520E1F9E9EEE5F92000F9E5E3F820F2
:10028800EEF1F4F8202300F9E9E3E5F820E4F1FAC7
:10029800E9E9ED00E4FAF7E1EC20EEF1F4F82023C7
:1002A80000F7E1ECE420E4F1FAE9E9EEE400E4F235
:1002B800E1F8FA20F9E9E7E420F0EBF9ECE400E7EB
:1002C800E9E9E2EF20ECE020EEE7E5E1F800E7E914
:1002D800E9E2EF20ECE020EEE7E9E9E200F9E5E306
:1002E800F820F9ED20E3E9F8E4202300EEFAE7200E
:1002F800E1E3E9F8E420230020FAF4F8E9E820F83B
:10030800E0F9E90020F8F9E9EEFA20E4F7E5E3E995
:10031800ED002020F7E5E320E2E9F9E420002020C1
:10032800F7E5E320ECF7E5E7200020F9EEE5FA2011
:10033800E4E3E9E9F8E9ED2000F0E9FAE5E120EC89
:10034800F4E920E3E9F8E5FA0020E6EEF0E9ED202B
:1003580029F9F0E9E5FA282000E4E2E3F8E5FA20D3
:10036800F4F0EC20E3ECFA00E2E9F8F1FA20FAE51F
:10037800EBF0E400E8ECF4E5F0E9ED20ECF4E9203A
:10038800E3E9F8E400EEF1F4F8E920E8ECF4E5EF4D
:10039800203200EEF1F4F8E920E8ECF4E5EF203340
:1003A80000EEF6E120E4F2E1F8FA20F9E9E7E400EA
:1003B800E8ECF4E5EF20ECE3E9F8E42000E8ECF4FD
:1003C800E5EF203220ECE3E9F8E42000E8ECF4E57E
:1003D800EF203320ECE3E9F8E42000E4F2E1F8FA56
:1003E80020F9E9E7E420E327200020E4EBF0F120FE
:1003F800F7E5E320230020E4EBF0F120F7E5E32024
:10040800E2E9F9E4200020E4EBF0F120F7E5E3204D
:10041800ECF7E5E7200020E4EBF0F120F9ED2023EC
:1004280000F0E9FAE5E120ECE3E9F8E42023002014
:1004380020E6EEEF20E4EEFAF0E4200020E6EEEF0E
:1004480020F4FAE9E7FA20E3ECFA20002020E6EEAF
:10045800EF20FAE0E5F8E420002020E6EEEF20ECBB
:10046800EEF2F0E420002020E6EEEF20F9E9E7E4E0
:100478002000E6E9E4E5E920E3ECFA203120F2E3A4
:10048800203400E4E2E3F8FA20F6ECE9EC20302C22
:10049800312C3200E0E9F4E5F120EBECECE9200046
:1004A800F0E9FAE5F720ECE0E7F820F4FAE9E7E408
:1004B80000EEF6E120E7E8E9F4FA20F9E9E7E400DC
:1004C800ECF9E3F820E8ECF4E5F0E9ED00ECF7E10D
:1004D800EC20E8ECF4E5F0E9ED00EEF6E120E8F1D7
:1004E800E800E2E9F8F1FA20F4F0EC00E2E9F8F1CA
:1004F800FA20EEEEE9F8000001002D4E414E0049C9
:100508004E460000010002009E0004000400A00006
:1005180001000005B50001000105B5000100020554
:10052800B50001000305B50001000405B500010090
:100538000505B50001006C0600050000F894EE27DB
:10054800ECBBF1E0F5BFE5BFE0936C00F8E1F1BD6D
:10055800E1BD8DE0A2E0BB27ED938A95E9F780E045
:1005680090E1A0E0B1E0ED930197E9F7ECE0F5E068
:1005780085919591009761F0A591B5910590159099
:10058800BF01F00105900D920197E1F7FB01F0CF53
:100598008BBFEFEFEDBFE0E1EEBFC0E0D5E00C941C
:1005A800A1030E94371D1A93AF93BF93EF93FF9354
:1005B800AFB7AF9388241CB1E1E0E2BFE7B7E160D1
:1005C800E7BF44FC40C01030B1F1E0917905F0E09C
:1005D800E35FFA4F1083E0910D05F0E03196A091AA
:1005E8007905B0E0AE17BF0794F0E7B7EE7FE7BF35
:1005F800992011F4E1E09E2E191511F4689401C0B8
:10060800E89421F8E0E14E2AE7EF4E2207C0A091D6
:100618007905A13018F0E8E04E2A910EE0917905AD
:10062800EF5FE0937905E0917905F0E0E35FFA4F39
:10063800A0E0A08308C0E7EE4E22E0E0E093790551
:10064800E89421F89924E0917905F0E03396E134B3
:10065800A0E0FA071CF0E0E0E0937905AF91AFBFA6
:10066800FF91EF91BF91AF9119910C949003EA9388
:10067800EFB7EA93AF93BF93EF93FF93AFB7AF93FF
:1006880056981A989924EDEF4E228824AF91AFBF5F
:10069800FF91EF91BF91AF914CC00E94371DAF936E
:1006A800BF93EF93FF93AFB7AF93E091CA05E030E4
:1006B80029F1E0917A05F0E03196A091CA05B0E001
:1006C800EA17FB071CF45598569A17C0E0917A056B
:1006D800A091CA05EA1730F4992011F4E1E09E2EA2
:1006E8009CB806C00E943E1D9E0E0E943E1DECB99D
:1006F800E091CA05EF5FE093CA0508C00E943E1D5D
:10070800ECB9E091CA05EF5FE093CA05AF91AFBFBE
:10071800FF91EF91BF91AF91E991EFBFF991E99105
:10072800B991A9911895EA93EFB7EA93E7B7EE7FE5
:10073800E7BFE991EFBFE9911895EFE1E1BDEFE07F
:10074800E1BDE0E0EBBBEFEFEABBE0E8E8BBE1E2EC
:10075800E7BBE0E0E5BBEFEFE4BBE0EDE2BBE2B313
:10076800EE7BE2BBE0E0E1BBE1B3ED67E1BBE7E0D4
:10077800E3B9EEEFE2B9E0E0E0936200EFEFE09377
:100788006100ECE9E0936500E4E0E0936400E7E0F1
:10079800E3BFE0E0E0BFE1E0E2BFE0E0E1BFEFBDE2
:1007A800EEBDEDBDECBDEBBDEABDE9BDE8BDE09336
:1007B8007900E0937800E4BDEAEFE3BDEBE0E5BD46
:1007C800E3E4E0938B00E0E0E0938A00E0938900A3
:1007D800E0938800E1E0E0938700E0E0E0938600A2
:1007E800E0938500E0938400E0938300E093820027
:1007F800E0936A00EABFE9BFE7B7E068E7BFE7B799
:10080800E469E7BFE7B7EE7FE7BFE0E0E0937D008C
:10081800EBB9E8EDEAB9E6E0E0939500E9E1E9B97A
:10082800E0E0E0939000E0939B00E0939A00E0936F
:100838009D00E0939900E0939800E0E8E8B9E0E0D3
:10084800E0BD78940E94C6160E945B180E94ED0EC7
:100858000E94A810E0E0E0930705689422F8E89465
:1008680021F8E3EBE0932D06E7B7EE7FE7BF559855
:1008780029D2E8E3E0935B06C09AA8950E94831109
:10088800E0916300E87051F4A0911706A33328F4AF
:10089800E0911706EF5FE093170603C0E0E0E093EE
:1008A8001706A0911706A23371F40E94451D0E94F5
:1008B8004C1DA4EAB0E00E94541DE3E0E093340626
:1008C800A4E00E946C11E0916300E07111F0879937
:1008D80004C0A0910605A03009F00AC0A0911E0628
:1008E800A33328F4E0911E06EF5FE0931E0603C0D1
:1008F800E0E0E0931E06A0911E06A23339F40E94A0
:10090800591D0E945E1DE4E0E0933406E091200644
:10091800E03021F4E0912106E03009F418C00E948B
:10092800591DE0E0E0932106E0911906E03049F016
:100938000E94991CE0911906EF5FE09322060E943D
:100948006D1DE1E0E0932306E4E0E0933406E091D6
:100958002206E03021F4E0912306E03009F412C0C9
:10096800E0910605E03011F40E94741DE0E0E09388
:1009780023060E949B1CE0911C06E03019F0A2E0BF
:100988000E94D613E0911606E03031F0E0E0E093E3
:100998001606E3E0E0933406E0913606E03029F0ED
:1009A800E0E0E09336060E94801DBB20E1F4E5E01C
:1009B800BE2E0E948917E0933206E030A1F0E09144
:1009C8001A06E03021F0EF5FE0931F06A89A7AD26A
:1009D800E0912306E03021F4E0910605E03009F0CB
:1009E80002C00E946D1D41FC02C00E946812EED434
:1009F80025FE05C0E89425F8E8E7E0935C0624FEA8
:100A080039C0E89424F8E0910605E03039F0E09127
:100A18005C06E03019F0E150E0935C06E0915E0678
:100A2800E03029F1E150E0935E06E030F9F4E0911E
:100A38005D06E030C9F0E150E0935D06E03081F4F6
:100A4800A0915F06A03021F4A0910805A03009F01C
:100A580004C0A6E00E94D61302C00E94871D03C0EE
:100A6800A6E00E94D61302C00E94871D03C0A6E01C
:100A78000E94D613A0915B06A23020F0A091060533
:100A8800A03009F00FC00E94921DE13220F4E091DD
:100A98005706E03009F403C00E94921DCE2EE0E014
:100AA800E0935706E0915C06E03021F4A09106053A
:100AB800A13008F403C015D014D00AD1A0915A0669
:100AC800AE3720F0A0910605A23008F404C0E0E09B
:100AD800E0935A0634D023FEFECFE89423F8CDCE17
:100AE800FFCFE0913706E03039F4E0E0E093060507
:100AF800E89420F8EDD022C00E949A1DE0913706B4
:100B0800F0E0E75CF94FE081E09338060E94A11D10
:100B1800EDE0F0E00E945F210E94A61DE0913806FA
:100B2800F0E0A0913006B0913106AE1BBF0BA09348
:100B38002E06B0932F06E0E0E09367050895A09194
:100B48000605A53009F40895E0914706E03049F01C
:100B58000E94AB1DE081E09348060E94AB1DAEE207
:100B680004C00E94AB1DA0914806A083A09147062F
:100B7800E1E0EA27E09347060895E0E0E0935A06AB
:100B88000E94A11D5A9739F40E94B21DE0E20E940A
:100B9800B91D0E94BF1D0E94A11D979739F40E949C
:100BA800451DE1E00E94B91D0E94CA1D0E94A11DB9
:100BB800D49739F40E94D51DE1E00E94B91D0E9426
:100BC800CA1D0E94A11D1D9739F40E94DC1D0E94B8
:100BD800E31DE4E00E94EA1D0E94A11DAE34E0E09E
:100BE800BE0741F40E94FA1DE0E2E0936405E2E0EA
:100BF8000E94011E0E94A11DA134E0E0BE0741F43D
:100C08000E94051EE5E0E0936405E3E00E94011EF2
:100C18000E94A11DAB35E0E0BE0741F40E940C1E06
:100C2800E8E0E0936405E1E00E94011E0E94A11D36
:100C3800A836E0E0BE0759F40E94131EE2E0E093F4
:100C48006405E6E0E0935205E5E00E94EA1D0E9493
:100C5800A11DA238E0E0BE0731F40E941A1E0E94CE
:100C6800E31D0E94BF1D0E94A11DAF38E0E0BE0732
:100C780031F40E94211E0E94E31D0E94BF1D0E94A4
:100C8800A11DAC39E0E0BE0731F40E94281E0E9485
:100C9800E31D0E94BF1D0E94A11DA537E0E0BE070D
:100CA80051F40E942F1EE0E2E0936405E1E0E09336
:100CB80052050E94CA1DE0916705E03011F00E94BC
:100CC800361E08950E94741D0E943A1ECAD50895C2
:100CD8000E94741D0E943A1EE0E0E0935B06E093D8
:100CE8000905E093150608951A93F2DFA0913206DC
:100CF800A53169F4E0E0E0931506D394E091140679
:100D0800ED1510F4E1E0DE2E0E94421EDAC0A0913B
:100D18003206A73169F4E0E0E0931506E1E0ED154D
:100D280018F0D090140601C0DA940E94421EC9C07F
:100D3800A0913206A631A9F5E0915706E03041F0BE
:100D48000E94921DE13220F40E94921DE03011F4BD
:100D5800CC20F9F0CC2019F40E94921DCE2EE1E0AF
:100D6800F0E0E0935806F0935906E89424F8E0E0A0
:100D7800E09335060E94C616A1E00E94D613E1E072
:100D8800E0931606E0912806E09315060E944C1E93
:100D980002C00E94511E0E946C11E0E0E0935706C9
:100DA80090C0A0913206A83109F052C0E0E0E0936B
:100DB8001506C5D61E2F0E94561E309709F040C052
:100DC800113039F40E94591D0E945E1D0E944C1E6C
:100DD80034C0123041F4A0912006A03021F4A09133
:100DE8002206A03009F00BC00E94C616689425F8A8
:100DF800E89420F80E949A1D0E945B1E1EC01330C2
:100E080041F4A0912006A03021F4A0912206A03040
:100E180009F00EC00E94C616689425F8E1E0E09338
:100E2800060520F8E0E0E09337060E945B1E05C047
:100E3800E0E0E09357060E94511E0E946C1107C023
:100E4800E0E0E09357060E94511E0E946C1139C0E1
:100E5800A0913206A13010F0AB3008F01FC00E94FC
:100E68004C1E0E946C11CC24DD24A0913206AA30BD
:100E780019F4E0E0E0933206E0915706F0E0E35B16
:100E8800F94FA0913206A083A0915706AA3028F402
:100E9800E0915706EF5FE093570613C0A091320622
:100EA800A13179F4E0E0E0931506E0935706E1E01C
:100EB800E09336060E944C1E0E946C11A2E00E942C
:100EC800D61382C2E0910605E03029F4E3E0E0930E
:100ED80035060ADF17C1A0910605A13009F05CC0EC
:100EE800E8E7E0935C06A0913206A53181F4E09131
:100EF8006505A0913806EA1711F4E1E003C0E09116
:100F08003806EF5FE09338060E946E1E44C0A09139
:100F18003206A73179F4A0913806A13019F4E0918E
:100F2800650503C0E0913806E150E09338060E9459
:100F38006E1E31C0A0913206A63139F5E0916605E2
:100F4800F0E03197A0913706B0E0AE17BF07DCF4A8
:100F5800E0913706F0E0E75CF94FA0913806A083EE
:100F6800E0913706EF5FE0933706E1E0E09338065B
:100F7800A0913006B0913106EDE00E9454210E9404
:100F8800751E0E946E1EF9DD06C0A0913206A131C1
:100F980011F40E947A1EB0C0E0914706E03009F4CF
:100FA800CEDDE8E7E0935C06A0913206A831F9F4BB
:100FB8000E94A11D1D9791F4E0914606EF5FE09312
:100FC8004606E0E0E0934906E0915205A091460606
:100FD800EA1718F4E1E0E093460608C0A091060578
:100FE800A33021F4E1E0E09346068DD085C0A091BE
:100FF8003206A531C1F4A0910605A53011F00E9472
:10100800801EE0916405A0916705AE1720F4E09179
:101018006705EF5F01C0E1E0E09367050E94361EB7
:101028000E94841E69C0A0913206A731B9F4A0912C
:101038000605A53011F00E94801EA0916705A23018
:1010480020F0E0916705E15002C0E0916405E0936B
:1010580067050E94841E0E94361E4EC0A09132066B
:10106800A131A9F5A0914606A23048F0E0914606C4
:10107800E150E0934606E0E0E093490627C00E946D
:10108800801E0E940C1E0E948D1E0E94931EE093DB
:101098004C0627DDE0914C06E03019F00E947A1EDC
:1010A80015C00E94131E0E949A1EA6E00E94091DE8
:1010B800E03061F00E94A91EE6EBF0E0FA93EA93B3
:1010C800A6E00E94091DA1E00E94191815C0A09170
:1010D8003206A63189F00E94A11D1D9711F44FD048
:1010E8000BC0A0910605A53009F40895A091460605
:1010F800A13009F408D017D0E3E0E0933406A1E06A
:101108000E946C1108951A93E0914606E1501E2F33
:10111800E09152051E1730F40E94AE1EA0E2A08393
:101128001F5FF6CF51C1A0913206A13010F0AB304D
:1011380008F024C0A0913206AA3019F4E0E0E09348
:1011480032060E94AB1DDF01E0913206E05DEC93B0
:10115800E0914606EF5FE0934606E0915205A091C4
:101168004606EA1740F4E1E0E0934606A09106053A
:10117800A43009F4C8DFE0E0E093490608951A9323
:10118800E0E0E0934A06A0913206A13010F0AB30BF
:1011980008F01AC1A0913206AA3019F4E0E0E093F1
:1011A8003206E0913206A0913306EA1711F0E1E029
:1011B80003C0E0914906EF5FE0934906E0913206EB
:1011C800E0933306A0914906A43051F4A091320669
:1011D800A43031F0A53021F0A93011F00E94B31EDF
:1011E800A0914906A63018F0E1E0E0934906A091E5
:1011F8004906A53029F4E0913206E05D1E2FE1C0D2
:10120800E0914A06E03009F0C3C0A0913206A1304F
:10121800B1F4A0914906A13009F417E2A09149065A
:10122800A23009F41DE2A0914906A33009F41EE298
:10123800A0914906A33011F40E94B31EA9C0A09141
:101248003206A23049F4E0914906EE510E94B91ED7
:1012580011F40E94B31E9CC0A0913206A33049F439
:10126800E0914906E1520E94B91E11F40E94B31E92
:101278008FC0A0913206A430A9F4A0914906A130EC
:1012880009F410EFA0914906A23009F41FEEA091CD
:101298004906A33009F41EEEA0914906A43009F4CA
:1012A8001DEE76C0A0913206A530A9F4A09149069A
:1012B800A13009F419EEA0914906A23009F41BEEF9
:1012C800A0914906A33009F41AEEA0914906A4306A
:1012D80009F41CEE5DC0A0913206A63049F4E091F5
:1012E8004906EB510E94B91E11F40E94B31E50C06A
:1012F800A0913206A73049F4E0914906E9500E94CE
:10130800B91E11F40E94B31E43C0A0913206A83042
:10131800B1F4A0914906A13009F416EFA09149064D
:10132800A23009F415EFA0914906A33009F417EF8C
:10133800A0914906A33011F40E94B31E29C0A091C0
:101348003206A930A9F4A0914906A13009F411EF99
:10135800A0914906A23009F412EFA0914906A330E2
:1013680009F414EFA0914906A43009F413EF10C052
:10137800E0914906E35C6E2FE0913206A3E0EA02B1
:10138800F001E60F1E2FA0914A06A23009F4105E64
:10139800E0913206E030A9F4A0914906A13009F4A1
:1013A80010E2A0914906A23009F418E2A09149067A
:1013B800A33009F419E2A0914906A33011F40E9460
:1013C800B31E0E94AB1D1083199108950E94BE1E82
:1013D800A0910605A03011F0A13009F40AC0AFEDC4
:1013E800B5E060D1A0910605A43011F40E94C51E95
:1013F80046C1CC2021F0E0911506E03009F464C024
:101408000E94DC1D0E94C91EE0910905F0E030979A
:1014180039F40E94CF1EADEBB0E00E94F01C2BC047
:10142800E130A0E0FA0739F40E94CF1EAEECB0E03C
:101438000E94F01C20C0E430A0E0FA0739F40E94B2
:10144800CF1EAFEDB0E00E94F01C15C0E230A0E066
:10145800FA0739F40E94CF1EA0EFB0E00E94F01CFA
:101468000AC0E530A0E0FA0731F40E94CF1EA1E0DF
:10147800B1E00E94F01C0E94D41E309779F00E94BF
:10148800D41EE05DE093DE050E94DB1E0E94E11E93
:10149800E05DE093DD050E94DB1E0BC00E94E61EA6
:1014A800309729F00E94E61EE05DE093DD05AC2D43
:1014B800BB27EAE0F0E00E947A21E05DE093DC05DA
:1014C800AFEDB5E0EFD0D7C0CC2021F0E091060514
:1014D800E03009F039C00E94DC1D0E94C91EAFEC43
:1014E800B5E0E0D0EFEDF5E0FA93EA93A2E1B1E0E0
:1014F8000E94F01CE3E0E093EE050E94D41E3097B2
:1015080099F00E94D41EE05DE093E5050E94DB1E81
:101518000E94E11EE05DE093E4050E94DB1E0E944C
:10152800E91EE093E3050FC00E94E61E309729F0FC
:101538000E94E61EE05DE093E505AC2DBB270E9406
:10154800E91EE093E40597C0E0910705E03009F44F
:1015580090C0F0E0E130A0E0FA0749F4E9E0F0E0FB
:101568000E94751EEAE0F0E00E94A61D75C0E230F8
:10157800A0E0FA0749F4EDE0F0E00E94751EEEE005
:10158800F0E00E94A61D68C0E630A0E0FA0749F422
:10159800E9E0F0E00E94751EE4E1F0E00E94A61D7B
:1015A8005BC0E730A0E0FA0749F4E3E1F0E00E940D
:1015B800751EE5E1F0E00E94A61D4EC0E430A0E0F3
:1015C800FA0791F4EFE0F0E00E94751EE0910A0539
:1015D800E03019F0EEE0F0E002C0E0E1F0E0E09386
:1015E8003006F093310638C0E530A0E0FA0791F4F0
:1015F800E1E1F0E00E94751EE0910B05E03019F082
:10160800EEE0F0E002C0E2E1F0E0E0933006F093B3
:10161800310622C0E830A0E0FA0791F4E6E1F0E0F4
:101628000E94751EE0910C05E03019F0EEE0F0E044
:1016380002C0E0E1F0E0E0933006F09331060CC020
:10164800E930A0E0FA0741F4E7E1F0E00E94751EF6
:10165800E8E1F0E00E94A61DE0E0E09307050E94A3
:10166800BE1E0E94EF1E0E94C51EE4E0E0933506F0
:1016780006C00E94EF1EAFEDB5E00E94541C0E9408
:10168800F91E0E94CF1E0E94FD1E0895BA93AA93C8
:101698000E94011FA7C2BA93AA93552011F00E9475
:1016A800011FA0C2BA93AA931A930E940F1F0E9407
:1016B800141F10E0E09152051E1728F40E94AE1E78
:1016C800E081E03009F408C00E94181F0E94AE1E95
:1016D800E081EC931F5FEECF188128C0AA931A937C
:1016E8000A9311E0E0915205F0E03197ED5AFA4F74
:1016F800A081A03211F0A030A1F4E0915205E15090
:101708000E2F013048F00E941E1FE02FF0E03197A5
:101718000E94231F0150F5CFE0E3E09353051F5FBC
:10172800E1CFAA810E94191819810881239608958A
:10173800BA93AA93A297E0E0E883E9830E94BE21C6
:1017480010E000E020E011E0E0916405A12FB0E096
:10175800A7FDBFEFF0E0EA17FB070CF47EC0A12F4E
:101768000E943418A12FBADF30E020E000E0E091B9
:101778005205A02FB0E0A7FDBFEFF0E0AE17BF07FE
:1017880054F40E94281FE081E03029F00E94281FAD
:10179800A081A03209F419C00E94281FA081A0339B
:1017A80011F4303009F001C00EC031E0E22FF0E052
:1017B8000E942D1F0E94281FE081F0E0EF70F0705A
:1017C800ED93FC932F5F0F5FD2CF4FEF5FEF203089
:1017D80011F040E050E0E1E0F0E0EE83FF8301E04B
:1017E8002017ECF0A22FB0E0A7FDBFEFE02FF0E04C
:1017F800E7FDFFEF0E94341F0E942D1F0E949621D3
:10180800AE81BF810E944C214E0F5F1FAE81BF8108
:10181800EAE00E945421EE83FF830F5FE1CFEAA53F
:10182800FBA54E175F071CF44AA55BA509C0E8A5F0
:10183800F9A5E417F5071CF448A559A501C00BC084
:101848005A934A93A3E5B5E00E949D1CA12F46DF59
:10185800A12F0E9419181F5F77CF0E94C521AC964F
:101868000895B7D20E94051EE3E00E94391F79F45B
:10187800E0915405EF70E43050F4E0915405EF70B6
:10188800E33021F4E0915405EF7009F406C00E949A
:10189800A91EA4E3B1E00E94541D0E94451FE093D5
:1018A80018060E94511F21F0E0E3E09353050FC092
:1018B800E0915405E07021F0E0915505E07009F4DD
:1018C80009C00E94A91EA8E3B1E00E94F01CA2E092
:1018D8000E9419180E94451FE0931906A3E00E9470
:1018E80034180E94931E21F00E94A91E0E945B1FBB
:1018F8000E94451FE0931A06A0911A06A33609F420
:10190800A89AE0911A06E03009F4A8980E94621F8C
:1019180029F00E94A91EACE3B1E008C0E09154058B
:10192800EF7049F40E94A91EA0E4B1E00E94F01CE7
:10193800A4E00E941918E0915405F0E0EF70F070EF
:10194800AAE0B0E00E945A21DF01E0915505F0E0DD
:10195800EF70F070EA0FFB1FE0932806F09329065A
:101968000E946C1FE23060F4E13049F4E0915405C4
:10197800EF70E83021F4E0915505EF7009F405C0E7
:101988000E94A91EA4E4B1E00EC0E0915305EF70D7
:1019980029F4E0915405EF70E23008F009C00E9484
:1019A800A91EA8E4B1E00E94F01CA5E00E94191845
:1019B800E0915305EF70A4E6EA02602DE09154052A
:1019C8000E94761FA62FAE0FE0915505EF70EA0F23
:1019D800E0931B060E940C1EE1E00E94391FE09371
:1019E8004B06A0914B06A53010F4E03009F406C070
:1019F800E0914B06E150E0934B0606C00E94A91EF9
:101A0800AAE3B1E00E94541D0E94511FAE2EE2E0ED
:101A1800EA1530F4E1E0AE2E0E94A91E0E947B1F59
:101A28000E94621FE0931C06A0911C06A23058F089
:101A3800E1E3E0935305A4E00E941918E0915305EF
:101A4800EF70E0931C060E946C1FE0931D06A091A6
:101A58001D06A23058F0E1E3E0935305A5E00E948B
:101A68001918E0915305EF70E0931D06A6E00E9457
:101A78003418A6E033DEE0915305E170E0930A05DF
:101A8800A7E00E943418A7E00E94821FE170E0934B
:101A98000B05A8E00E943418A8E00E94821FE3709A
:101AA8005E2EE2E0E51508F45524E0E3E0935305E3
:101AB8000E94871FA8E00E9419180E942F1E0E94EA
:101AC8008D1FE0E0F0E0FA93EA93A1E0B0E030DEA9
:101AD8000E94FA1DE2E00E94941FE1E0F0E0FA9310
:101AE800EA93A0E2B0E024DEE0E0E0930605A5E09A
:101AF80059D6A4E057D6E0910A05E03051F0E0E06D
:101B0800E0930B05E0930C05E1E0E0930A05A7E0FC
:101B180014C0E0910B05E03041F0E1E0E0930B05E3
:101B2800E0E0E0930C05A9E008C0E0910C05E03086
:101B380029F0E1E0E0930C05AAE034D608950E946C
:101B4800C021E0E03E2F1E2FEAE0E09352050E94FC
:101B5800451DE0915706E030B1F13F5FA32F0E9489
:101B6800341800E020E0E09157062E1710F40030FA
:101B780009F013C0E22FF0E0ED5AFA4FA081E22FEE
:101B8800F0E0E35BF94FE081F0E0F096B0E0EA17AF
:101B9800FB0709F001E02F5FE6CF003071F411E098
:101BA800E22FF0E0ED5AFA4FA081A13220F0A09187
:101BB8005706AA3008F001C010E0333210F4103094
:101BC80009F001C0CACF313011F4103009F401C056
:101BD80012E0323011F4103009F401C013E0E12FA3
:101BE8000E94C721249608950A921A92FA926A933B
:101BF8007A938A939A93AA93BA93EA93FA93EFB74C
:101C0800EA93689423F8E0912A06F0912B060E9443
:101C18009A1FEA0FFB1F0E949F1FBB2009F0BA946E
:101C2800E0912606F0912706309771F0A6E2B6E01B
:101C3800ED91FD913197FE93EE93E0912606F09198
:101C48002706309709F455D3A0910605A23060F015
:101C5800A0915806B0915906E6E5F0E00E94772178
:101C6800309711F40E94A305A8E5B6E00E94A41FCE
:101C7800A0915806B0915906AA3FE0E0BE0708F4C3
:101C88009AC0E0915806F0915906EA5FF040E09357
:101C98005806F0935906689424F8E0911506E03048
:101CA80011F1E0E0E0933506E0911506E150E0938C
:101CB8001506E0912806F09129063197A09115069E
:101CC800B0E0EA17FB0741F4E4E0E0933406E2E011
:101CD800EA1511F4A5E0FCD2E0911506E03019F4FC
:101CE800E1E0E0933606E0911F06E03021F0A09194
:101CF8001F06A33608F008C0E0911F06E150E093E4
:101D08001F06E03009F4A898E0912006E03091F031
:101D1800E0E0E0933506E4E0F0E00E94751EE5E0BF
:101D2800F0E00E94A61DE0912006E150E093200615
:101D3800A1E0CED2E0912206E03091F0E2E0F0E0BE
:101D48000E94751EE3E0F0E00E94A61DE0912206C5
:101D5800E150E0932206E2E0EA1511F4A3E0B8D2DC
:101D6800E0913506E03041F0E0915B06E03021F487
:101D7800E0910605E03009F00AC0E0913506E1502F
:101D8800E0933506E03019F4E1E0E0933606E0919F
:101D98005706E03019F0A0E0CA1609F004C0E09137
:101DA8000605E03009F004C0E0915B06EF5F01C072
:101DB800E0E0E0935B06E991EFBFF991E991B99111
:101DC800A9919991899179916991F99019900990BE
:101DD80018951A930E94131E0E949A1EA0915205EC
:101DE8000E94091DE03029F50E940C1E0E948D1EDC
:101DF800E0915305EF70E0934C06E030D1F4A091E8
:101E08005305AF3FB1F010E0143698F4E091630049
:101E1800E87029F00E94A91E0E94AA1F52C1B79B10
:101E280005C00E94A91E0E94AA1F4BC100001F5F87
:101E3800EBCFE7E0F0E00E94751EE8E0F0E00E94DA
:101E4800A61D0E94BE1E0E94EF1E0E94F91E0E943F
:101E5800C51E0E94CF1E0E94FD1E0E94B11FA091A8
:101E68004C06A130E1F0A230E1F1A33009F470C0D2
:101E7800A0914C06A43009F48EC0A0914C06A53060
:101E880021F4E0E0E0934C060AC0A0914C06A6308D
:101E980009F49FC0A0914C06A73009F4BBC00E946A
:101EA800B21DEAE00E94941F0E9407180E94A91E12
:101EB800ACE4B1E00E94541DE0914C06E03009F01A
:101EC800C3C00E94451D0E944C1DA0E5B1E00E94C0
:101ED800541D0E94D51D0E944C1DA7E5B1E00E942B
:101EE800541D0E94FA1DE2E0E093520511E0113200
:101EF80050F5143678F4A12FB0E00E94E11EE05DA1
:101F0800E0935305A12FBB270E94E91EE0935405D7
:101F1800E0E212C0A12F0E94B51FE0935305E12F04
:101F28000E94BC1F0E94E11EE05DE0935405E12F72
:101F38000E94BC1F0E94E91EE0935505A12F0E9434
:101F480019181F5FD4CFE0914C06E03009F07CC02F
:101F58000E94051EE3E00E94C11FAEE5B1E00E94A9
:101F6800541D0E94A91EA2E6B1E00E94C41F0E944F
:101F78005B1F0E94A91EA8E4B1E00E94CA1FA6E642
:101F8800B1E00E94F01CA5E00E941918E0914C06EF
:101F9800E03009F059C00E94DC1DE0E10E94941F66
:101FA8000E9407180E94A91EAAE6B1E00E94541DCB
:101FB8000E94A91EABE7B1E00E94C41FACE8B1E0E3
:101FC8000E94F01CA3E00E941918E0914C06E03032
:101FD800D9F50E941A1EE0E10E94941F0E9407187A
:101FE8000E94211EE0E10E94941F0E9407180E948F
:101FF800281EE0E10E94941F0E9407180E942F1ECD
:102008000E948D1F0E94D01F0E94FB17E0914C0672
:10201800E030D1F40E940C1EE1E00E94C11FAAE347
:10202800B1E00E94541D0E94A91E0E947B1F0E94BD
:10203800A91EAAE3B1E00E94CA1FAAE3B1E00E9468
:10204800F01CA5E00E9419180E940C1EE1E00E94F5
:10205800C11FA6E3B1E00E94F01C0E94871FA3E005
:102068000E9419180E94131EE6E0E0935205A1E0B1
:102078000E9434180E94A91EA6EBB0E00E94DC1C46
:10208800E03059F00E94A91EA6EBB0E00E94541D52
:102098000E94D01FA2E00E941918E0910605E030C6
:1020A80081F40E94741D0E94BE1E0E94EF1E0E94B1
:1020B800F91E0E94C51E0E94CF1E0E94FD1EA3E0AD
:1020C80071D319910895AA93A881A13021F4A98107
:1020D800BA81EC91A8C0A881A23051F4A981BA8133
:1020E800EC910E94D71FE981FA81E181EA0F9BC038
:1020F800A881A33099F4A981BA81EC91A4E6EA02F7
:10210800602DE981FA81E181AAE0EA02F001A62FB7
:10211800AE0FE981FA81E281EA0F85C0E0E083C071
:10212800AA931A9310E0103268F4E12FF0E0ED5012
:10213800FA4FE081A981EA1719F4E12FEF5FC5C0D2
:102148001F5FF1CFE0E0C1C060971A930A930E9425
:10215800CF1EADE9B1E00E94F01C0E94F91EEFED20
:10216800F5E0FA93EA93A8EAB1E00E94F01C0E9415
:10217800C51E0E94CF1E0E94FD1EE0E0E0931406DB
:102188000E94DC1DE0E1E093520511E01132B0F548
:10219800A12F0E94DC1F0E94A91EA0E161D0DE01D0
:1021A800129630D0E030E1F40E94E31FA1E0A08352
:1021B80001E00132A8F4A02F0E94DC1FA3E5B5E0DE
:1021C80034D0E03059F0A3E5B5E01CD0E03031F46C
:1021D8000E94E31FDF01EC91EF5FEC930F5FE9CF03
:1021E8000E94E31FA081E0911406EA1728F40E94D8
:1021F800E31FE081E09314061F5FC8CF19810881AF
:1022080062960895BA93AA931A9310E0103148F48D
:102218000E94181FAC91A03211F0E0E003C01F5FCC
:10222800F5CFE1E0188123960895BA93AA931A93FB
:1022380010E0103190F40E94E91FEC91E01518F4B9
:10224800E1E0188123C00E94E91FEC910E1618F4F2
:10225800E0E018811BC01F5FECCFE0E0188116C0DA
:10226800AA93E881E03091F0E150E883AB81BC812A
:10227800F0E0EA0FFB1F0F01E881A981BA81F0E0C5
:10228800AE0FBF1FEC91D001EC93EBCF25960895CC
:10229800AA931A930E94FA1DE2E0E0935205A981DD
:1022A8000E943418A9810E94821F0E94761FAE2FB7
:1022B800E0915405EF70EA0F1E2F113010F0113223
:1022C80008F002C0E12F01C0E0E0188122960895CD
:1022D800AA93AA2059F0E881E0932C06E8EEF3E0EF
:1022E8000E94F01FEAE1E0938A0001C002D0219623
:1022F8000895E0E0E0932C060E94F51F0895E09110
:102308002C06E03009F4DFC0F0E0E130A0E0FA0785
:1023180061F40E94FA1FA53DE3E0BE0718F00E9491
:10232800FF1F02C00E940720C6C0E230A0E0FA07E3
:1023380071F40E94FA1FA939E3E0BE0728F0E0E82B
:10234800F2E00E949F1F02C00E940720B4C0E33041
:10235800A0E0FA0771F40E94FA1FAD3BE2E0BE0765
:1023680028F0E0E8F0E00E949F1F02C00E940720CA
:10237800A2C0E430A0E0FA0711F50E94FA1FA73EB8
:10238800E3E0BE0718F00E94FF1F18C00E94FA1F62
:10239800AD3AE3E0BE0780F00E940A2019F40E94DB
:1023A800112002C00E9418200E941E200E9429208D
:1023B80010F40E94FF1F02C00E9407207CC0E53075
:1023C800A0E0FA0709F077C00E94FA1FA73EE3E0F1
:1023D800BE0718F00E94FF1F6EC00E94FA1FAD3A98
:1023E800E3E0BE0780F00E940A2019F40E94112041
:1023F80002C00E9418200E941E200E94292010F46A
:102408000E94FF1F58C00E94FA1FA934E3E0BE07CC
:1024180018F00E94F51F4FC00E94FA1FA734E3E08E
:10242800BE0718F00E94FF1F46C00E94FA1FAD3079
:10243800E3E0BE0798F0EAE1E0938A000E940A20F0
:1024480019F40E94112002C00E9418200E941E2028
:102458000E94292010F40E94FF1F2DC00E94FA1F1D
:10246800A93AE2E0BE0718F00E94F51F24C00E94B6
:10247800FA1FA73AE2E0BE0718F00E94FF1F1BC030
:102488000E94FA1FAD36E2E0BE0798F0EAE1E09359
:102498008A000E940A2019F40E94112002C00E949A
:1024A80018200E941E200E94292010F40E94FF1F5D
:1024B80002C00E940720E0912506E0938700E09182
:1024C8002406E0938600089544FE62C1EFEE4E2292
:1024D80021FE04C0E0910605E03009F055C1E2E0B4
:1024E800E515B1F4E0E0E093BA050E942D200E94C2
:1024F8003520A0E10E94221DE9E6F5E0FA93EA936F
:102508000E943A200E94B11F0E942D200E943A206A
:10251800E89421F8E0E0E0933506E7B7EE7FE7BFFF
:10252800E0E0E0930705E0910E05F0E0E033A0E07D
:10253800FA0761F4A0910805A13021F0A23011F04A
:10254800A53019F419D4A6E02DD11EC1E035A0E0BC
:10255800FA0709F068C0A0910F05A73409F040C038
:10256800A0910805A630E1F50E943E20A091100533
:10257800A63441F4E0E0E0930B05E0930A05A6E0F9
:102588000DD42EC0E0910B05E030A1F016D4F4D3A1
:10259800E0910B05EF5FE0930B05A5E0FFD3A09159
:1025A8000B05A13220F0E0E0E0930B0536C0A9E06E
:1025B800F9D016C0E0910A05E03091F0DDD3E09142
:1025C8000A05EF5FE0930A05A4E0E8D3A0910A05A5
:1025D800A13220F0E0E0E0930A051FC0A7E0E2D0B6
:1025E800A0910F05AE34F1F4A0910805A730D1F4FD
:1025F8000E943E20E0910C05E030A1F0BDD3E091AF
:102608000C05EF5FE0930C05A8E0C8D3A0910C057A
:10261800A13230F0E0E0E0930C05A6E0C3D00895C5
:10262800AAE0C0D0B1C0E934A0E0FA0759F5A0E0AB
:102638009CD3A0910F05A635C9F4A0910805A33035
:1026480019F4E0E0E0930805A3E0A8D30E94131E64
:10265800E6E00E94C11FE0E1F5E0FA93EA93A6E004
:102668000E94221DA2E00E9419180BC0A0910F051C
:10267800AD3439F4552029F0E0E0E0930805A9E0ED
:102688008DD382C0E334A0E0FA0709F040C0A091DE
:102698000805A43019F4E0E0E0930805E09110057E
:1026A800E0530E94D71F0E94442011F4E0E2CE2E8E
:1026B800A0910F05A13441F4E1E0E0930905E09110
:1026C8002806E093150622C0A0910F05A53439F419
:1026D800E2E0E0930905E5E0E093150617C0A09154
:1026E8000F05A63439F4E4E0E0930905E5E0E0934A
:1026F80015060CC0A0910F05A23411F4A2E005C084
:10270800A0910F05A73411F4A7E048D33BC0E435E6
:10271800A0E0FA07B9F4A0910805A43019F4E0E0A4
:10272800E0930805E0911005E0530E94D71F0E942E
:10273800442011F4E0E2CE2EE0911B06E09315064A
:10274800E5E01EC0E535A0E0FA07C9F4E0912006EF
:10275800E03021F4E0912206E03009F00FC00E9439
:10276800801D0E946D1DE0911806EF5FE093200622
:10277800E1E0E09321060E944C1EAADD03C0E7E0D9
:10278800E0930905A0E0F1D2E0E0E093790509C003
:102798000E944B2020F0A0915E06A03009F001C0F5
:1027A800F1D20895AA931A930A9310E000E0E091F9
:1027B8000605E03009F0D5C2E0915E06E03011F47C
:1027C80041FE13C0A0916B06A93018F4AA81A0306D
:1027D80009F40AC0E0916B06EF5FE0936B06F0E046
:1027E800E05AF94FAA81A083BCC2AA81A630F1F4AD
:1027F800E0910805E03039F00E945120E081EA8339
:10280800E89426F812C00E944B2010F0BBD2A9C24F
:10281800E0E0E0935D06E0916A06EF5FE0936A0608
:10282800F0E0E05AF94FE081EA8311C0E091080531
:10283800E03049F40E944B2028F0A4D20E94512095
:10284800AA81A08304C00E945120E081EA83EA8122
:10285800E0935F0610E0F0E03097B1F410E0143038
:1028680040F4E12FF0E0E558FA4FA0E3A0831F5FA2
:10287800F6CFE0915D06E03019F4E1E0E0935D0603
:10288800E3E0E0935E06F6C1E130A0E0FA0709F064
:102898003FC0CC2011F476D264C2E4E0E09308058E
:1028A800E0E0E09309050E945720A3E4A0830E947A
:1028B8002F1EE1E0E0935205AC2D0E9434180E94CF
:1028C8005720A0915305A0830E945720FF93EF93B0
:1028D800AC2DDEDCF0E0DF010E94E11EE05DAF918F
:1028E800BF91EC930E945720FF93EF93AC2DD0DC5F
:1028F800F0E0DF010E94E91EAF91BF910E945D20C8
:1029080019F4E3E0E0935D06E9E0E0935E06B2C106
:10291800E230A0E0FA07D1F4E5E00E946220A3E4E7
:10292800A0830E945720A5E4A0830E945720A0E31B
:10293800A0830E945720A0E30E94652019F4E3E0D9
:10294800E0935D06E3E0E0935E0694C1E330A0E027
:10295800FA0791F4E2E00E9462200E946A200E9435
:102968006D20A2E50E94652019F4E3E0E0935D067E
:10297800E9E0E0935E067EC1E430A0E0FA0709F0E2
:1029880055C0E2E00E9462200E946A200E946D20E9
:10299800A0E50E947020E0914B06EF5CEC930E944A
:1029A80057200E947720E4E6F0E00E947D200E94F4
:1029B8007720EAE0F0E00E947D200E947720EAE09C
:1029C800F0E00E9477210E948320BF01A0911B069E
:1029D8000E94B51F0E948720BF01A0911B06B0E08E
:1029E8000E94E11EDF010E94E91E0E948720BF01AC
:1029F800A0911B06BB270E94E91E0E948720A0E326
:102A08000E947020E0911D06E170E05DEC930E9449
:102A18008A20EA2DE370E05D0E945D2019F4E3E06E
:102A2800E0935D06E3E0E0935E0624C1E530A0E0B4
:102A3800FA0791F4E3E00E946220A9E4A0830E94CF
:102A48005720A6E50E94652019F4E3E0E0935D06AF
:102A5800E9E0E0935E060EC1E730A0E0FA0709F06E
:102A680091C0E0910A05E03019F4E0E2E0930A052C
:102A7800E6E00E9462200E946A200E9490200E9444
:102A88006D20BF01A0910A05B0E00E94E11E0E94DE
:102A98008320BF01A0910A05BB270E94E91EDB0124
:102AA800EC930E941A1E0E9493200E941E1FEC9114
:102AB800E03041F0FD01A081A03221F0E091520503
:102AC8000E1708F006C00E948A200E949C200F5F03
:102AD800ECCF0E945720ACE7A0830E94211E0E94E1
:102AE80093200E941E1FEC91E03021F0FD01A0818F
:102AF800A03209F404C0E09152050E1708F006C090
:102B08000E948A200E949C200F5FEBCF0E945720D2
:102B1800ACE7A0830E94281E0E9493200E941E1FDB
:102B2800EC91E03021F0FD01A081A03209F404C04D
:102B3800E09152050E1708F006C00E948A200E94F4
:102B48009C200F5FEBCF0E945720ACE7A0830E9428
:102B58002F1EE1E0E0935205A0910A050E94341867
:102B68000E945720A0915305A0830E945720ACE7EC
:102B78000E94652019F4E3E0E0935D06E9E0E09344
:102B88005E0678C0E930A0E0FA0749F5E0910B0548
:102B9800E03019F4E0E2E0930A05E6E00E946220E2
:102BA8000E946A200E9490200E949020BF01A0915C
:102BB8000B05B0E00E94E11E0E948320BF01A09196
:102BC8000B05BB270E94E91EDB010E945D2019F45A
:102BD800E3E0E0935D06E9E0E0935E064BC0EA308F
:102BE800A0E0FA0709F046C0E0910C05E03019F4BE
:102BF800E0E2E0930C05E7E00E9462200E946A2070
:102C0800AEE4A0830E9457200E946D20BF01A091CE
:102C18000C05B0E00E94E11E0E948320BF01A09134
:102C28000C05BB270E94E91EDB01EC930E94DC1D0A
:102C3800E0E1E0935205A0910C050E94341800E0F1
:102C48000E94281FE081E03021F0E09152050E1724
:102C580008F006C00E948A200E949C200F5FF0CFD7
:102C6800E0915D06E03019F4E3E0E0935D06E3E00F
:102C7800E0935E0610937A05E12FF0E0E558FA4FED
:102C8800A0E0A0837894E2E0E51509F05FC0E0E0F9
:102C9800E0930D05E093BA05EAEBF5E0FA93EA93C1
:102CA800EAE7F5E0FA93EA93A6E00E94221DAAEB70
:102CB800B5E00E94FD1C7E2EE6E0E71508F47E2EA6
:102CC8000E949F20AEE2A0830E949F20DF01E09136
:102CD80008050E94A520DF01E0916A060E94A52050
:102CE800DF01E0916B060E94A520BF01A09160065C
:102CF8000E94A920BF01A0916106B0E0EAE0F0E0DF
:102D08000E947A21EF70E05DDB01EC930E949F2026
:102D1800BF01A0915F060E94A920AEE2A0830E9495
:102D28009F20A0E0A0830E949F20A0E0A0830E9493
:102D380035200E943A20AAEFB0E00E943E21E0E050
:102D4800E093BA050E9435200E943A20E0E0E09323
:102D5800CA0599241A9AE2E04E2AE0E0ECB956989E
:102D6800559A1981088123960895AA930E94B32041
:102D7800A88118DD0C94F018E0E0E09308050E94A3
:102D8800B3200895E0E0E0935F064424E0936B06E7
:102D9800E0936A06F1DF609008050895AA93E0E0E1
:102DA800E0930905E0933506E09315060E94591D46
:102DB800E881E09307050C94F0181A930A9316E03B
:102DC80000E00E941A1EE0E10E94941F00E00E94A9
:102DD800A91E0E94141F0E94281FA0E0A083E2E001
:102DE800E51591F4E0E0F5E0FA93EA93ADE0B5E09B
:102DF8000E944F0B0E94B11FE1E0F5E0FA93EA93BD
:102E0800A2E0B5E00E944F0B0E94B920A081AC3728
:102E180021F0E09152050E1708F009C00E941E1F0C
:102E28000E94B920E081EC931F5F0F5FEDCF0E94F5
:102E3800281FA0E0A083E2E0E51581F40E94A91E06
:102E4800A3E0B5E00E944F0B0E94B11FE4E0F5E05B
:102E5800FA93EA93A5E0B5E00E944F0B0E94B920CF
:102E6800A081AC3709F41F5F0E94BE200E94211E7A
:102E7800E0E10E94941F00E00E94A91E0E94141F16
:102E88000E94281FA0E0A0830E94B920A081AC372F
:102E980021F0E09152050E1708F003C00E94C220ED
:102EA800F3CF0E94281FA0E0A0830E94B920A08130
:102EB800AC3709F41F5F0E94BE200E94281EE0E183
:102EC8000E94941F00E00E94A91E0E94141F0E94E5
:102ED800281FA0E0A0830E94B920A081AC3721F070
:102EE800E09152050E1708F003C00E94C220F3CFEC
:102EF8000E94281FA0E0A0830E94B920A081AC37BF
:102F080009F41F5F0E94BE206FC01A9310916805D4
:102F18000DD0E0936805103011F4E11719F4E0E0E2
:102F28000C941019E09168050C9410191A930A93DF
:102F3800C69810E10E94D02000E00430E8F514FFA4
:102F48000CC0B29B02C0E1E04FC0B39B02C0E2E0FC
:102F58004BC0B49B02C0E3E047C015FF0CC0B29B56
:102F680002C0E4E041C0B39B02C0E5E03DC0B49BB1
:102F780002C0E6E039C016FF0CC0B29B02C0E7E011
:102F880033C0B39B02C0E8E02FC0B49B02C0E9E0A5
:102F98002BC017FF0CC0B29B02C0E8E125C0B39B51
:102FA80002C0EAE021C0B49B02C0E1E11DC0110FDC
:102FB8000E94D0200F5FC1CFE3B1EF70E3B9C69A8A
:102FC80000E00E3118F400000F5FFBCFB29B02C087
:102FD800E5E10AC0B39B02C0E7E106C0B49B02C0AA
:102FE800E6E102C0C698E0E00991199108951A93A4
:102FF80011E0E0916405E11720F0A12F16D01F5FC2
:10300800F8CF0C9410191A930E94A91EA4EBB1E0F2
:103018000E94F01C11E0E0916405E11720F0A12F57
:1030280004D01F5FF8CF0C9410190E94D72010E02D
:10303800E09152051E1710F4103108F00DC0ADE4F0
:10304800B5E00E94A41F3197DF010E94AE1EE08107
:103058000E94AD211F5FECCF0E94C7210C94221C57
:103068000E94D7200E94A91EA4EBB1E00E94F01C88
:1030780010E0E09152051E1710F4103108F00FC04F
:103088000E94AE1E0F01ADE4B5E00E94A41F319767
:10309800DF010E94A121D001EC931F5FEACF0E94BB
:1030A800AE1EA0E0A0830E94C7210C94221CA0E3BE
:1030B80087D0A0E385D0A0E383D0A0E381D0A0E2AD
:1030C8007FD0A8E276D0A0E174D0ACE072D0A6E0C0
:1030D80070D0A1E06ED001D00895AA98AB98A8E46A
:1030E80068D0A4E00E94F4200E94F9200E94FF20EA
:1030F800A0E052D00E94FF20A4E04ED0AFE10E9491
:10310800F420A4E049D0A0E047D0A4E045D0A4E052
:103118000E94F420A1E140D00E94F920A0E03CD018
:10312800A0E03AD00895AA930E94C02130E0EC8133
:103138003E1758F400E010E00436E0E01E0718F4EB
:103148000F5F1F4FF9CF3F5FF2CF0E94C7210C944A
:10315800221CAA931A93A981A0582BD010E01031F1
:1031680040F4AA81BB81EE27A10FBE1FEC91E0308D
:1031780009F409C0AA81BB81EE27A10FBE1FAC913B
:103188000BD01F5FECCF103120F4A0E205D01F5FF9
:10319800FACF18810C94971C0E940821E4600E94C1
:1031A80013210E941721E07FE4600E941321AA984E
:1031B80013C00E9408210E9413210E94172109C0F0
:1031C800AA93A5E0B0DFE5B3EF70E5BBE5B3AE2F9A
:1031D800E881E07F0E941321219608951A9310E850
:1031E800AF9AEFE7E4BBAB9AAA9817FF0FC0AF9A64
:1031F800000000000000A99A00000000000013B3BE
:1032080017FF13B3AF98A99809D0EFCFEFEFE4BB3E
:10321800E5B3EF70E5BBAB98199108950000000085
:10322800A99A000000000000A99800000000089575
:10323800BA93AA931A93E0910605E03009F057C1B2
:10324800EB81FC81309789F40E940F1FA6ECB1E056
:103258000E94F01CA981BA811D96E1E0EC93A98136
:10326800BA811F96E2E0EC9341C1E130A0E0FA0791
:1032780039F40E940F1FA7EDB1E00E94F01C36C17F
:10328800E230A0E0FA0739F40E940F1FA7EEB1E080
:103298000E94F01C2BC1E330A0E0FA0739F40E9429
:1032A8000F1FA8EFB1E00E94F01C20C1E430A0E09D
:1032B800FA0729F40E940F1F0E941F2117C1E53049
:1032C800A0E0FA0739F40E940F1FAAE1B2E00E94B9
:1032D800F01C0CC1E730A0E0FA0729F40E940F1F88
:1032E8000E941F2103C1E830A0E0FA0739F40E94C8
:1032F8000F1FABE2B2E00E94F01CF8C0E930A0E07A
:10330800FA0739F40E940F1FAAE3B2E00E94F01CEA
:10331800EDC0EA30A0E0FA0739F40E940F1FAAE4D2
:10332800B2E00E94F01CE2C0EB30A0E0FA0739F4EA
:103338000E940F1FA9E5B2E00E94F01CD7C0EC3034
:10334800A0E0FA0739F40E940F1FA8E6B2E00E9435
:10335800F01CCCC0ED30A0E0FA0739F40E940F1F32
:10336800A6E7B2E00E94F01CC1C0EE30A0E0FA0768
:1033780029F40E940F1F0E941F21B8C0EF30A0E05F
:10338800FA0789F40E940F1FA3E8B2E00E94F01C1C
:10339800E0910A05E03011F0E15001C0E0E2EA9363
:1033A8000E942321A3C0E031A0E0FA0739F40E946B
:1033B8000F1FAFE8B2E00E94F01C98C0E131A0E016
:1033C800FA0789F40E940F1FACE9B2E00E94F01CD2
:1033D800E0910B05E03011F0E15001C0E0E2EA9322
:1033E8000E94232183C0E231A0E0FA0739F40E9449
:1033F8000F1FA9EAB2E00E94F01C78C0E331A0E0F8
:10340800FA0739F40E940F1FA6EBB2E00E94F01CE5
:103418006DC0E431A0E0FA0739F40E940F1FA7EC51
:10342800B2E00E94F01C62C0E531A0E0FA0739F46E
:103438000E940F1FA6EDB2E00E94F01C57C0E631B3
:10344800A0E0FA0789F40E940F1FA5EEB2E00E94DF
:10345800F01CE0910C05E03011F0E15001C0E0E211
:10346800EA930E94232142C0E731A0E0FA0799F4C9
:103478000E940F1FA4EFB2E00E94F01CE09110051B
:103488000E94761FAE2FE0911105EF70EA0FEA93C4
:103498000E9423212BC0E831A0E0FA0739F5E0911A
:1034A8001605A981BA81EC93E0911505A981BA8125
:1034B8001196EC93E0911405A981BA811296EC93C8
:1034C800E0911305A981BA811396EC93E091120556
:1034D800A981BA811496EC93A981BA811696E0E283
:1034E800EC93A981BA811796E0E0EC9399C1EB813E
:1034F800FC81309781F40E940F1FA0E0B3E00E9486
:10350800F01CA0E020FCA1E0A13010F0E2E001C036
:10351800EAE0E0936505AB81BC81129731F40E9423
:103528000F1FACE0B3E00E942721AB81BC81139749
:1035380031F40E940F1FAAE1B3E00E942721AB815A
:10354800BC81149731F40E940F1FA6E2B3E00E94D9
:103558002721AB81BC81119731F40E940F1FA2E390
:10356800B3E00E942721AB81BC81169731F40E94F9
:103578000F1FA1E4B3E00E942721AB81BC811597FE
:1035880031F40E940F1FA1E5B3E00E942721AB810F
:10359800BC81179731F40E940F1FA1E6B3E00E9487
:1035A8002721AB81BC81189731F40E940F1FA0E737
:1035B800B3E00E942721AB81BC811A9731F40E94A5
:1035C8000F1FACE7B3E00E942721AB81BC811B979A
:1035D80031F40E940F1FADE8B3E00E942721AB81B0
:1035E800BC811C9731F40E940F1FABE9B3E00E9425
:1035F8002721AB81BC81199731F40E940F1FA9EADA
:10360800B3E00E942721AB81BC81A238E0E0BE076D
:1036180031F40E940F1FA8EBB3E00E942D21AB816B
:10362800BC81AF38E0E0BE0731F40E940F1FA5EC63
:10363800B3E00E942D21AB81BC81AC39E0E0BE072C
:1036480031F40E940F1FA4EDB3E00E942D21AB813D
:10365800BC81A537E0E0BE0731F40E940F1FA3EE3E
:10366800B3E00E942D21AB81BC815A9731F40E94AE
:103678000F1FA2EFB3E00E942D21AB81BC81979769
:1036880031F40E940F1FAEEFB3E00E94F01CAB8133
:10369800BC81D49731F40E940F1FAEE0B4E00E94C1
:1036A800F01CAB81BC811D9731F40E940F1FAEE165
:1036B800B4E00E942D21AB81BC81AE34E0E0BE07AE
:1036C80031F40E940F1FA9E2B4E00E942D21AB81C2
:1036D800BC81A134E0E0BE0791F5A0916705A13057
:1036E80031F40E940F1FA7E3B4E00E94F01CA091E0
:1036F8006705A23031F40E940F1FA4E4B4E00E94D1
:10370800F01CA0916705A33031F40E940F1FA4E5B7
:10371800B4E00E94F01CA0916705A43031F40E9427
:103728000F1FA1E6B4E00E94F01CA0916705A53028
:1037380031F40E940F1FAEE6B4E00E94F01CAB818A
:10374800BC81AB35E0E0BE0709F050C0A091670529
:10375800A13031F40E940F1FAAE7B4E00E94F01CC8
:10376800A0916705A23031F40E940F1FABE8B4E0C6
:103778000E94F01CA0916705A33031F40E940F1F2E
:10378800ACE9B4E00E94F01CA0916705A43031F4C4
:103798000E940F1FA8EAB4E00E94F01CA0916705E0
:1037A800A53031F40E940F1FA9EBB4E00E94F01C71
:1037B800A0916705A63031F40E940F1FA8ECB4E071
:1037C8000E94F01CA0916705A73031F40E940F1FDA
:1037D800A5EDB4E00E94F01CA0916705A83031F473
:1037E8000E940F1FA2EEB4E00E94F01CAB81BC81C6
:1037F800A836E0E0BE07A1F4A0916705A13031F436
:103808000E940F1FAAEEB4E00E94F01CA091670569
:10381800A23031F40E940F1FA4EFB4E00E94F01C04
:10382800A981BA810E94FD1C1E2F103130F40E941C
:10383800181FE0E2EC931F5FF8CF188125960895D2
:10384800BA93AA932497AE81A43668F4B0E00E9494
:10385800E11EE05DE983AE81BB270E94E91EE88393
:10386800E0E0EA8313C0AE810E94B51FEA83EE81CF
:103878000E94BC1F0E94E11EE05DE983EE810E9468
:10388800BC1F0E94E91EE883E0E0EB83EC81FD8128
:10389800FA93EA93DE0112960E94CB1C27960895AC
:1038A800BA93AA931A930A9300E00830D0F50E94BD
:1038B80033211C91E02FAA81BB81F0E0EA0FFB1FA6
:1038C800BF010E943921AA81BB81AE0FBF1FEC91B5
:1038D800DB01EC930E943921AA81BB81EA0FFB1F0F
:1038E80010830E943321AC91A03E28F00E9433211E
:1038F800AC91AB3F08F005C00E943321EC91E05435
:10390800EC93103E10F01B3F08F009C00E943921CB
:10391800AA81BB81AE0FBF1FEC91E054EC930F5FFF
:10392800C4CF1981088124960895959A0895959889
:103938000895BA93AA93A991B991E991F99130960A
:103948002AF4E095F09531966DE26D93E89480E164
:1039580097E20DD088EE93E00AD084E6992707D045
:103968008AE005D06E2F10D066276C9308956627DD
:10397800E817F90720F06395E81BF90BC9F76623E8
:1039880011F416F008956894605D6D930895BA93E4
:10399800AA93E991F991A991B991CD016D91662305
:1039A800E9F7119761916D936623E1F7FC0108959A
:1039B800BA93AA93E991F991A991B9911D900590AB
:1039C800011421F40020D1F7EE2708951018E1F32F
:1039D800E1E008F4E2500895BA93AA93E991F991C5
:1039E800A991B991CD0105900D920020E1F7FC0154
:1039F8000895BA93AA93A991B991EE27FF276D91DB
:103A0800662311F03196FBCF0895AA930024112460
:103A18006991E991F991A991B991662349F06A955B
:103A28001D900590011421F40020B9F7EE270895A0
:103A38001018E1F3E1E008F4E2500895AA937991AF
:103A4800E991F991A991B991CD01772351F07A952E
:103A580061916D936623C9F7772319F07A956D9371
:103A6800FBCFFC010895AA93BA93EA93FA93EFB7B0
:103A7800EA930895E091CA05F0E0E658FA4FE0812C
:103A88000895EDE4F0E0E0934F05F09350050895B4
:103A9800EAE0E0935205E3E5F5E0FA93EA93089546
:103AA8000E94F01CA1E00C941918E0E0E09357067E
:103AB800CC240895E0911806EF5FE0932006EAEF22
:103AC800F0E0E0935806F0935906E1E0E093210610
:103AD8000895EAEFF0E0E0935806F0935906089548
:103AE800E0E0E0932E06E0932F06E1E0F0E0E093BB
:103AF8003006F09331060895CC24E0E0E0935706B1
:103B0800DD240C946C060E94C616A1E00E94D21611
:103B1800E0E0E0930B05E0930A050895EDE4F6E094
:103B2800FA93EA93A09157060C946710E1E0E093AA
:103B38000605E0E0E09337060895A0912E06B091BF
:103B48002F060895E0933006F09331060895E0912A
:103B58004606F0E03197ED5AFA4F0895E1E6F0E0B5
:103B6800E0934F05F09350050895E0936405EAE06B
:103B7800E09352050895E3E0E0930605E1E0E09361
:103B88006705E0934606E09347060895E2E0E09370
:103B98000605E1E0E0936705E0934606E0934706F3
:103BA8000895E7E5F0E0E0934F05F0935005089598
:103BB800E1EAF1E0E0934F05F09350050895E0E263
:103BC800E0936405E0E1E09352050895E09306056B
:103BD800E1E0E0936705E0934606E0E0E0934A06FB
:103BE800E0934906E1E0E09347060895E1EAF3E04F
:103BF800E0934F05F09350050895E0935205E2E0F5
:103C0800E5CFE1EEF3E0E0934F05F093500508951A
:103C1800E0EFF3E0E0934F05F09350050895E0E4FA
:103C2800F0E0E0934F05F09350050895E8EFF3E0D6
:103C3800E0934F05F09350050895E8EFF5E0E09321
:103C48004F05F09350050895E8EFF7E0E0934F052E
:103C5800F09350050895E8EFF9E0E0934F05F093ED
:103C680050050895A09167050C943418E0E0E0939E
:103C78006705E0933706E09306050895AD2D0E9489
:103C88009410CE2EE3E0E0933406A1E00C946C117E
:103C9800E3E0E0933406A1E00895E5E0E09334061C
:103CA800A2E00895E0912E06F0912F060895E1E034
:103CB800E0933806E0E0E0932E06E0932F06E091CB
:103CC8003806F0E03ADFEA0FFB1F3CDFE0E0E09364
:103CD8005706DECFE0913806F0E02FDFEA0FFB1F32
:103CE80031CFE0932E06F0932F0608950E947505B4
:103CF8000E94350C0C94A810A09167050C94191813
:103D0800E1E0E0934606E0E0E0934A06E0934906E6
:103D18000895E1E0E0935205A3E00C943418A3E081
:103D28000E94720BE0915305EF700895E6E0E0936E
:103D38005205A1E00E943418E3E5F5E0FA93EA930E
:103D4800E6EBF0E0FA93EA930895E3E5F5E0FA93F9
:103D5800EA930895E12FF0E0ED5AFA4F0895E091C3
:103D68004906EF5FE093490608951E2FA091490682
:103D7800A330089597DFFA93EA93AFECB5E00C947B
:103D88001C19AFEDB5E00C94541CE0E1E09352052A
:103D9800AC2D0C943418EFECF5E0FA93EA930895FF
:103DA800AC2DB0E0E4E6F0E00E9472210895EC2D1D
:103DB800F0E0E456F040DF010895EAE0F0E00E9408
:103DC80072210895AC2DB0E0F8CFEAE0F0E00E944F
:103DD8007A21E05D0895E0913006F0913106FA937A
:103DE800EA93AFEDB5E00C941C19AFECB5E00C9478
:103DF800541CAFEDB5E00C944A0BEA81FB81FA93B1
:103E0800EA93A0E00E94AD18E881F981FA93EA9359
:103E1800A0E40C94AD18E981FA81FA93EA93089525
:103E2800A3E2B1E00C94F01CA981BA81EE27A10F9E
:103E3800BE1F0895A02FB0E0AD5ABA4F0895ED5AAD
:103E4800FA4FE081EC930895E02FF0E0ED5AFA4F35
:103E58000895DE011896EE0FFF1FAE0FBF1F0895DD
:103E68000E949A21EA1BFB0B0895E0935205A1E0FA
:103E78000E943418A1E00E94720BE0915305EF7084
:103E88000895E0915405EF70AAE0EA02F001AE2F20
:103E9800E0915505EF70EA0F0895A2E00E943418EA
:103EA800A2E00E94720BE0915305EF700895ACE315
:103EB800B1E00E94F01CA3E00C941918A4E00E9441
:103EC8003418A4E00E94720BE0915305EF70089536
:103ED800A5E00E943418A5E00E94720BE0915305FA
:103EE800EF700895EF70AAE0EA02F0010895AAE3DE
:103EF800B1E00E94F01CA2E00C9419180E94720B09
:103F0800E09153050895A6E00E941918A7E00C94C3
:103F18001918E1E0E0935205E0E2E09364050895A2
:103F2800E0935205E0E2E09364050895A091240629
:103F3800B09125060895E0932406F0932506089588
:103F4800ED91FD913196FE93EE930895A6E3B1E0CD
:103F58000E94F01CA3E00C941918A4EFB1E00C9493
:103F68003E21B0E0E4E6F0E00E947221E05D0895B1
:103F7800F0E0E456F040DF010895E0935205E5CE05
:103F88000E94F01CA2E00E941918DFCE0E94F01CCB
:103F9800A4E00E941918D9CEE0E3E0935305E0E0CD
:103FA800E09354050895AAE0EA02F001AE2F0895BF
:103FB8000E943418FE013296FA93EA930895E12F8D
:103FC800F0E03197ED50FA4F0895AB81BC81EE27B0
:103FD800A10FBE1F0C9028CFE0932606F09327066A
:103FE8000895E0E0E0938A001B980895A0912606C2
:103FF800B09127060895E0913406ACE0EA9FF001FD
:10400800E058FF4F98CFE1E0F0E0E6CFEFDFE6E0E1
:10401800F0E00E94772130970895E0EDFFEFE093FC
:104028002A06F0932B060895E0E0E0932A06E09331
:104038002B060895E0913406F0E03396ACE0B0E04A
:104048000E945A21A0E8B0E00BCF70DFAE17BF077F
:104058000895E0E0E0936905E9E6F5E0FA93EA936C
:104068000895EDE0F5E0FA93EA930895AAEBB5E038
:104078000C944F0BE0E0E0930805A0E00C94B9160F
:10408800E0911105E053EA0FCE2ECC200895E0917F
:104098006B06A0916A06AE170895E0916A06F0E0F3
:1040A800E05AF94F08951F5FE12FF0E0E658FA4F04
:1040B8000895EC93E0915D06E0300895E0930805DB
:1040C800F2CFA083E0915D06E0300895A0E5A083DB
:1040D800EACFA3E5A083E7CFA0831F5FA12FB0E0BD
:1040E800A658BA4F0895BF01A0912806B091290695
:1040F80008950E945F21E05DDB01EC93D4CFE05D81
:10410800DB01EC93D0CFDB01EC93CDCF1F5FA12F68
:10411800B0E0A658BA4F0895A7E4A083C4CFE0E161
:10412800E0935205A0910A050E94341800E0089512
:10413800E02FF0E084CEE72D7394F0E0E654FA4FD8
:104148000895EF70E05DEC93F6CFBB27EAE0F0E06E
:104158000E947A21EF70E05DDB01EC93ECCFE0E0A8
:10416800E0935E06E0935D060895E12FF0E0E35FDB
:10417800FA4F0895A0910B050C941918E02F0F5FC2
:10418800F0E0ED5AFA4FDF01E12F1F5FF0E0E35F47
:10419800FA4FE081EC930895E3B1EF70E3B9E3B12E
:1041A800E12BE3B90895AA930E94C021EC81E09322
:1041B8005105F0E031979F01E0914F05F0915005CE
:1041C800E050F040BF01E0915205F0E0D9010E94B3
:1041D8005A21E60FF71FE0934D05F0934E05089519
:1041E8000E94D018AEE00C94D018AFE10E94D0180D
:1041F800A4E00C94D018A4E00E94D018A4E00E9477
:10420800D018A4E00C94D018AA930E94F218E5B331
:10421800EF70E5BBE5B3AE2FE881E07F0895EA2BA8
:10422800E5BB0C941219E5B3EF70E5BBE5B3AE2F0F
:10423800E881E2950895A9E0B2E00C94F01CAA8107
:10424800BB810C94241C0E94F01CE2E0E0936605FC
:1042580008950E94F01CE0916705EA93F0CFAA81C7
:10426800BB81EE27A00FBE1F0895E02FF0E0AFE05E
:10427800B0E0F6CD109639F080ED97E00197F1F7B0
:10428800A8951197C9F70895F195E195F04008951B
:10429800FA9FF02DEB9FF00DEA9FE02DF10D0895A8
:1042A8006E2F6A9FF0016B9FF00D08952DD0F0DFFF
:1042B8000EF4EADF08950024112490E1AA0FBB1F31
:1042C800001C111C0E1A1F0A18F40E0E1F1E01C026
:1042D800A1609A9599F7FD01D001089515D0EBDFFB
:1042E8000EF4D2DF0895E7DFFD010895E894B7FFE3
:1042F80004C0A095B09511966894F7FDC5DFDBDF83
:10430800FD010EF4C1DF0895E894F7FF02C0BCDF99
:104318006894B7FF06C0A095B095119600F803946D
:1043280000FA0895ED91FC91119708951B2EBF2F67
:10433800F12D1A2EAE2FE12D0895E199FECFFF93AE
:10434800FFB7F894AEBBBFBBE09AEDB3FFBFFF91D8
:104358000895E19B02C0A895FCCF9FB7F894AEBB27
:10436800BFBBE09A8DB3E81719F0EDBBE29AE19A6A
:104378009FBF08955A934A933A932A931A930A939C
:1043880008955D814C813B812A81198108810895B6
:00000001FF
