:0C0000000C949C020C9400000C94000076
:10000C000C9400000C9400000C9400000C94000064
:10001C000C9400000C9400000C94DF0D0C94000068
:10002C000C9400000C9400000C9400000C94000044
:10003C000C9400000C948A030C9400000C94CF02D6
:10004C000C9445030C942F030C9400000C940000AA
:10005C000C9400000C9400000C9400000C94000014
:10006C000C9400000C9400000C9400000C94000004
:10007C000C9400000C9400000C9400000C940000F4
:10008C001027E80364000A000100001000011000B2
:10009C0001000000000000003132333435362020DE
:1000AC0020202020202020202000332E352E3436F6
:1000BC000020EEF6ECF6EC20ECE3E9F8E42033302B
:1000CC00200020EEFAF7F9F820ECE3E9F8E420330D
:1000DC0030200020ECE020EEE7E5E1F820E32720DB
:1000EC003330200020F9E9E7E420E4F1FAE9EEE40A
:1000FC002033302000E4FAE7EC20F9E9E7E420E3D0
:10010C00272033302000E3E9F8E420333020ECF6EC
:10011C00ECF6E5EC202400202020202020202020BC
:10012C0020202020202020003033300030303100BF
:10013C003039390030313000313830003032300055
:10014C0031323300313233343536003235323532D8
:10015C00350030303000303035003036300020E3A0
:10016C00E9F8E420EEF1F4F82031202020200020E2
:10017C00E3E9F8E420EEF1F4F8203220202020000E
:10018C0020E3E9F8E420EEF1F4F8203320202020DD
:10019C000000202020202020202020202020202093
:1001AC0020200000F9ECE5ED2CE4F9FAEEF920E161
:1001BC00202020200020ECE7E9F4E5F920E3E9E930
:1001CC00F8E9ED2E00F0E020ECF4FAE5E720202031
:1001DC002020202020002020202020E0FA20E4E312
:1001EC00ECFA2121212000F0E020E4EEFAEF2020AF
:1001FC002020202020202000202020ECF4FAE9E709
:10020C00FA20E3ECFA2E2E2E00EEFAE1F6F220E0C4
:10021C00E9F4E5F12E2E2E00202020E0E9EF20EE6F
:10022C00F2F0E42020202000EEEEEEE9F820E4E3EA
:10023C00E52DE2E9E3E900202020E9F920EEF2F0D7
:10024C00E420202020002020F0E020ECE3E1F82E38
:10025C002E2E200020E4F7E520E1F9E9EEE5F92067
:10026C0000F9E5E3F820EEF1F4F8202300F9E9E3D6
:10027C00E5F820E4F1FAE9E9ED00E4FAF7E1EC2025
:10028C00EEF1F4F8202300F7E1ECE420E4F1FAE9D4
:10029C00E9EEE400E4F2E1F8FA20F9E9E7E420F011
:1002AC00EBF9ECE400E7E9E9E2EF20ECE020EEE723
:1002BC00E5E1F800E7E9E9E2EF20ECE020EEE7E920
:1002CC00E9E200F9E5E3F820F9ED20E3E9F8E420B0
:1002DC002300EEFAE720E1E3E9F8E4202300EEF155
:1002EC00E3F820F9EEE5FA0020FAF4F8E9E820F852
:1002FC00E0F9E90020F8F9E9EEFA20E4F7E5E3E9A2
:10030C00ED002020F7E5E320E2E9F9E420002020CD
:10031C00F7E5E320ECF7E5E7200020F9EEE5FA201D
:10032C00E4E3E9E9F8E9ED2000F0E9FAE5E120EC95
:10033C00F4E920E3E9F8E5FA0020E6EEF0E9ED2037
:10034C0029F9F0E9E5FA282000E4E2E3F8E5FA20DF
:10035C00F4F0EC20E3ECFA00E2E9F8F1FA20FAE52B
:10036C00EBF0E400E8ECF4E5F0E9ED20ECF4E92046
:10037C00E3E9F8E400EEF1F4F8E920E8ECF4E5EF59
:10038C00203200EEF1F4F8E920E8ECF4E5EF20334C
:10039C0000EEF6E120E4F2E1F8FA20F9E9E7E400F6
:1003AC00E8ECF4E5EF20ECE3E9F8E42000E8ECF409
:1003BC00E5EF203220ECE3E9F8E42000E8ECF4E58A
:1003CC00EF203320ECE3E9F8E42000E4F2E1F8FA62
:1003DC0020F9E9E7E420E327200020E4EBF0F1200A
:1003EC00F7E5E320230020E4EBF0F120F7E5E32030
:1003FC00E2E9F9E4200020E4EBF0F120F7E5E3205A
:10040C00ECF7E5E7200020E4EBF0F120F9ED2023F8
:10041C0000F0E9FAE5E120ECE3E9F8E42023002020
:10042C0020E6EEEF20E4EEFAF0E4200020E6EEEF1A
:10043C0020F4FAE9E7FA20E3ECFA20002020E6EEBB
:10044C00EF20FAE0E5F8E420002020E6EEEF20ECC7
:10045C00EEF2F0E420002020E6EEEF20F9E9E7E4EC
:10046C002000E6E9E4E5E920E3ECFA203120F2E3B0
:10047C00203400E4E2E3F8FA20F6ECE9EC20302C2E
:10048C00312C3200E0E9F4E5F120EBECECE9200052
:10049C00F0E9FAE5F720ECE0E7F820F4FAE9E7E414
:1004AC0000EEF6E120E7E8E9F4FA20F9E9E7E400E8
:1004BC00ECF9E3F820E8ECF4E5F0E9ED00ECF7E119
:1004CC00EC20E8ECF4E5F0E9ED00EEF6E120E8F1E3
:1004DC00E800E2E9F8F1FA20F4F0EC00E2E9F8F1D6
:1004EC00FA20EEEEE9F8000001002D4E414E0049D5
:1004FC004E460000010002009E0001000005B50000
:10050C0001000105B50001000205B500010003055D
:10051C00B50001000405B50001000505B500040097
:10052C000400A00001001307F4040000F894EE2767
:10053C00ECBBF1E0F5BFE5BFE0936C00F8E1F1BD79
:10054C00E1BD8DE0A2E0BB27ED938A95E9F780E051
:10055C0090E1A0E0B1E0ED930197E9F7E0E0F5E080
:10056C0085919591009761F0A591B59105901590A5
:10057C00BF01F00105900D920197E1F7FB01F0CF5F
:10058C008BBFEFEFEDBFE0E1EEBFC0E0D5E00C9428
:10059C0094030E94A41D1A93AF93BF93EF93FF9300
:1005AC00AFB7AF9388241CB1E1E0E2BFE7B7E160DD
:1005BC00E7BF44FC3AC0103081F10E94AB1D1083A0
:1005CC00E0910D05F0E03196A0917905B0E0AE1701
:1005DC00BF0794F0E7B7EE7FE7BF992011F4E1E095
:1005EC009E2E191511F4689401C0E89421F8E0E1ED
:1005FC004E2AE7EF4E2207C0A0917905A13018F0E2
:10060C00E8E04E2A910EE0917905EF5FE0937905D1
:10061C000E94AB1DA0E0A08308C0E7EE4E22E0E0F4
:10062C00E0937905E89421F89924E09179050E94EA
:10063C00B11DE134A0E0FA071CF0E0E0E09379058D
:10064C00AF91AFBFFF91EF91BF91AF9119910C9406
:10065C008303EA93EFB7EA93AF93BF93EF93FF93C0
:10066C00AFB7AF9356981A989924EDEF4E22882481
:10067C00AF91AFBFFF91EF91BF91AF914BC00E9473
:10068C00A41DAF93BF93EF93FF93AFB7AF93E091DC
:10069C00CA05E03021F1E0917A05F0E03196A091A5
:1006AC00CA050E94B41D1CF45598569A17C0E091C7
:1006BC007A05A091CA05EA1730F4992011F4E1E00B
:1006CC009E2E9CB806C00E94B81D9E0E0E94B81D9E
:1006DC00ECB9E091CA05EF5FE093CA0508C00E942F
:1006EC00B81DECB9E091CA05EF5FE093CA05AF9174
:1006FC00AFBFFF91EF91BF91AF91E991EFBFF9912E
:10070C00E991B991A9911895EA93EFB7EA93E7B7F4
:10071C00EE7FE7BFE991EFBFE9911895EFE1E1BDFD
:10072C00EFE0E1BDE0E0EBBBEFEFEABBE0E8E8BBFC
:10073C00E1E2E7BBE0E0E5BBEFEFE4BBE0EDE2BB01
:10074C00E2B3EE7BE2BBE0E0E1BBE1B3ED67E1BB22
:10075C00E7E0E3B9EEEFE2B9E0E0E0936200EFEF3F
:10076C00E0936100ECE9E0936500E4E0E093640061
:10077C00E7E0E3BFE0E0E0BFE1E0E2BFE0E0E1BFE3
:10078C00EFBDEEBDEDBDECBDEBBDEABDE9BDE8BD19
:10079C00E0937900E0937800E4BDEAEFE3BDEBE091
:1007AC00E5BDE3E4E0938B00E0E0E0938A00E093A6
:1007BC008900E0938800E1E0E0938700E0E0E093BB
:1007CC008600E0938500E0938400E0938300E0933F
:1007DC008200E0936A00EABFE9BFE7B7E068E7BFD1
:1007EC00E7B7E469E7BFE7B7EE7FE7BFE0E0E09388
:1007FC007D00EBB9E8EDEAB9E6E0E0939500E9E1BC
:10080C00E9B9E0E0E0939000E0939B00E0939A005C
:10081C00E0939D00E0939900E0939800E0E8E8B93C
:10082C00E0E0E0BD78940E940C170E948C180E94A6
:10083C00500CE0E0E0930705689422F8E89421F866
:10084C00E3EBE093D406E7B7EE7FE7BF55982BD2E6
:10085C00E8E3E0930207C09AA8950E948111E09109
:10086C006300E87051F4A091BE06A33328F4E09124
:10087C00BE06EF5FE093BE0603C0E0E0E093BE0669
:10088C00A091BE06A23389F40E94BF1D0E94C61D12
:10089C00E4EAF0E00E94CE1D0E94D21DE3E0E0935A
:1008AC00DB06E4E0EA930E946B11E0916300E071D7
:1008BC0011F0879904C0A0910605A03009F00AC078
:1008CC00A091C506A33328F4E091C506EF5FE09331
:1008DC00C50603C0E0E0E093C506A091C506A233AF
:1008EC0039F40E94D61D0E94DB1DE4E0E093DB0688
:1008FC00E091C706E03021F4E091C806E03009F43D
:10090C0018C00E94D61DE0E0E093C806E091C00636
:10091C00E03049F00E94121DE091C006EF5FE093B9
:10092C00C9060E94EA1DE1E0E093CA06E4E0E09308
:10093C00DB06E091C906E03021F4E091CA06E03014
:10094C0009F413C0E0910605E03011F40E94F11D8A
:10095C00E0E0E093CA060E94141DE091C306E0306B
:10096C0021F0E2E0EA930E94EC13E091BD06E03046
:10097C0031F0E0E0E093BD06E3E0E093DB06E091CC
:10098C00DD06E03029F0E0E0E093DD060E94FD1D7D
:10099C00BB20E1F4E5E0BE2E0E94C117E093D9061E
:1009AC00E030A1F0E091C106E03021F0EF5FE09380
:1009BC00C606A89A9AD2E091CA06E03021F4E091DA
:1009CC000605E03009F002C00E94EA1D41FC02C09D
:1009DC000E946E1214D525FE05C0E89425F8E8E7B0
:1009EC00E093030724FE36C0E89424F8E091060552
:1009FC00E03039F0E0910307E03019F0E150E0937A
:100A0C000307E0910507E03019F1E150E093050789
:100A1C00E030E9F4E0910407E030B9F0E150E09304
:100A2C000407E03079F4A0910607A03021F4A091DE
:100A3C000805A03009F003C00E94041E02C00E94E9
:100A4C00081E02C00E94041E02C00E94081E02C0A2
:100A5C000E94041EA0910207A23020F0A09106056E
:100A6C00A03009F019C0E091FE06E03091F00E9430
:100A7C00141EE43670F40E94141ECE2ECA920E94EC
:100A8C004C11E03029F0CA920E944C11E13208F06E
:100A9C00CC24E0E0E093FE06E0910307E03021F483
:100AAC00A0910605A13008F403C015D014D001D1D3
:100ABC00A0910107AE3720F0A0910605A23008F4F2
:100ACC0004C0E0E0E093010730D023FEFECFE894B1
:100ADC0023F8C2CEFFCFE091DE06E03039F4E0E03F
:100AEC00E0930605E89420F8E4D01EC00E941D1E79
:100AFC000E94241EE081E093DF060E942A1EEDE096
:100B0C00F0E00E9409220E942F1E0E94341EA09128
:100B1C00D706B091D806AE1BBF0BA093D506B093E9
:100B2C00D606E0E0E09367050895A0910605A53090
:100B3C0009F40895E091EE06E03049F00E94381E69
:100B4C00E081E093EF060E94381EAEE204C00E94E2
:100B5C00381EA091EF06A083A091EE06E1E0EA27F3
:100B6C00E093EE060895E0E0E09301070E942A1E50
:100B7C005A9739F40E943F1EE3E60E94461E0E94DB
:100B8C004C1E0E942A1E979739F40E94BF1DE1E06B
:100B9C000E94461E0E94571E0E942A1ED49739F4AA
:100BAC000E94621EE1E00E94461E0E94571E0E9497
:100BBC002A1E1D9741F40E94691EE3E60E94701ED6
:100BCC00E4E00E94761E0E942A1EAE34E0E0BE07CE
:100BDC0041F40E94861EE3E6E0936405E2E00E9485
:100BEC008D1E0E942A1EA134E0E0BE0741F40E9433
:100BFC00911EE5E0E0936405E3E00E948D1E0E94E7
:100C0C002A1EAB35E0E0BE0741F40E94981EE8E0D6
:100C1C00E0936405E1E00E948D1E0E942A1EA83616
:100C2C00E0E0BE0759F40E949F1EE2E0E0936405E9
:100C3C00E6E0E0935205E5E00E94761E0E942A1E33
:100C4C00A238E0E0BE0721F40E94A61E0E944C1EB2
:100C5C000E942A1EAF38E0E0BE0721F40E94A61EB7
:100C6C000E944C1E0E942A1EAC39E0E0BE0721F403
:100C7C000E94A61E0E944C1E0E942A1EA537E0E070
:100C8C00BE0751F40E94AE1EE0E0E0936405E1E083
:100C9C00E09352050E94571EE0916705E03011F079
:100CAC000E94B51E08950E94F11D0E94BA1EF2D535
:100CBC0008950E94F11D0E94BA1EE0E0E093020725
:100CCC00E0930905E093BC0608951A93F2DFA09116
:100CDC00D906A53169F4E0E0E093BC06D394E09129
:100CEC00BB06ED1510F4E1E0DE2E0E94C21EFCC026
:100CFC00A091D906A73169F4E0E0E093BC06E1E0ED
:100D0C00ED1518F0D090BB0601C0DA940E94C21EFB
:100D1C00EBC0A091D906A63111F00C94DE06E0913F
:100D2C00FE06E03041F00E94141EE43620F40E94CE
:100D3C00141EE03011F4CC2091F1CC2019F40E9457
:100D4C00141ECE2EE1E0F0E0E093FF06F0930007D6
:100D5C00E89424F8E0E0E093DC060E940C17CA92B9
:100D6C000E944C11E13028F0CA920E944C11E132E1
:100D7C0008F00EC0E1E0EA930E94EC13E1E0E0938E
:100D8C00BD06E091CF06E093BC060E94CD1E03C0C9
:100D9C00CC240E94D21EEA930E946B1105C00E94C3
:100DAC00D21EEA930E946B11E0E0E093FE069CC019
:100DBC00A091D906A83111F00C943E07E0E0E09325
:100DCC00BC060E948B0D1E2F0E94D71E309711F06F
:100DDC000C943507113039F40E94D61D0E94DB1D8E
:100DEC000E94CD1E38C0123041F4A091C706A0302D
:100DFC0021F4A091C906A03009F00DC00E940C1777
:100E0C00689425F8E89420F80E941D1E0E94DC1EB0
:100E1C000E94E51E20C0133041F4A091C706A030FB
:100E2C0021F4A091C906A03009F010C00E940C1743
:100E3C00689425F8E1E0E093060520F8E0E0E09303
:100E4C00DE060E94DC1E0E94E51E05C0E0E0E09379
:100E5C00FE060E94D21EEA930E946B1108C0E0E0CD
:100E6C00E093FE060E94D21EEA930E946B113CC0D6
:100E7C00A091D906A13010F0AB3008F020C00E9430
:100E8C00CD1EEA930E946B11CC24DD24A091D906CF
:100E9C00AA3019F4E0E0E093D906E091FE06F0E008
:100EAC00EC50F94FA091D906A083A091FE06AA3070
:100EBC0028F4E091FE06EF5FE093FE0615C0A091CA
:100ECC00D906A13189F4E0E0E093BC06E093FE067C
:100EDC00E1E0E093DD060E94CD1EEA930E946B11C7
:100EEC00E2E0EA930E94EC1388C2E0910605E03040
:100EFC0029F4E3E0E093DC06E8DE1BC1A0910605D3
:100F0C00A13011F00C94E907E8E7E0930307A091F6
:100F1C00D906A53191F4E0916505A091DF06EA1799
:100F2C0011F4E1E003C0E091DF06EF5FE093DF0630
:100F3C000E94341E0E94ED1E45C0A091D906A73117
:100F4C0089F4A091DF06A13019F4E091650503C086
:100F5C00E091DF06E150E093DF060E94341E0E9410
:100F6C00ED1E30C0A091D906A63131F5E091660591
:100F7C000E94F11EA091DE06B0E0AE17BF07D4F4BC
:100F8C000E94241EA091DF06A083E091DE06EF5F95
:100F9C00E093DE06E1E0E093DF06A091D706B09186
:100FAC00D806EDE00E94FE210E94F41E0E94341E21
:100FBC000E94ED1ED8DD06C0A091D906A13111F416
:100FCC008ADD68D4AFC0E091EE06E03009F4ADDD07
:100FDC00E8E7E0930307A091D906A831F9F40E9441
:100FEC002A1E1D9791F4E091ED06EF5FE093ED065C
:100FFC00E0E0E093F006E0915205A091ED06EA17CF
:10100C0018F4E1E0E093ED0608C0A0910605A330CA
:10101C0021F4E1E0E093ED068DD084C0A091D906D7
:10102C00A531C1F4A0910605A53011F00E94F91E5E
:10103C00E0916405A0916705AE1720F4E091670577
:10104C00EF5F01C0E1E0E09367050E94B51E0E94CE
:10105C00FE1E68C0A091D906A731B9F4A09106056F
:10106C00A53011F00E94F91EA0916705A23020F066
:10107C00E0916705E15002C0E0916405E0936705DB
:10108C000E94FE1E0E94B51E4DC0A091D906A13132
:10109C00A1F5A091ED06A23048F0E091ED06E150EB
:1010AC00E093ED06E0E0E093F00626C00E94F91E06
:1010BC000E94981E0E94071F0E940E1FE093F306C9
:1010CC000ADDE091F306E03019F005DDE3D314C03E
:1010DC000E949F1E0E94161FE6E0EA930E94781D54
:1010EC00E03051F00E94261FE6EBF0E00E942B1F2F
:1010FC000E94781D0E94D21D15C0A091D906A63160
:10110C0089F00E942A1E1D9711F451D00BC0A0919A
:10111C000605A53009F40895A091ED06A13009F457
:10112C0009D019D0E3E0E093DB06E1E0EA930E94FA
:10113C006B1108951A93E091ED060E94F11E1E2F7B
:10114C00E09152051E1730F40E94301FA0E2A083DC
:10115C001F5FF6CF52C1A091D906A13010F0AB3071
:10116C0008F024C0A091D906AA3019F4E0E0E0936D
:10117C00D9060E94381EDF01E091D906E05DEC93A0
:10118C00E091ED06EF5FE093ED06E0915205A09142
:10119C00ED06EA1740F4E1E0E093ED06A0910605B8
:1011AC00A43009F4C7DFE0E0E093F00608951A9349
:1011BC00E0E0E093F106A091D906A13010F0AB303D
:1011CC0008F01BC1A091D906AA3019F4E0E0E09315
:1011DC00D906E091D906A091DA06EA1711F0E1E000
:1011EC0003C0E091F006EF5FE093F006E091D906C2
:1011FC00E093DA06A091F006A43051F4A091D90640
:10120C00A43031F0A53021F0A93011F00E94351F27
:10121C00A091F006A63018F0E1E0E093F006A09162
:10122C00F006A53029F4E091D906E05D1E2FE2C04E
:10123C00E091F106E03011F00C94E709A091D90689
:10124C00A130B1F4A091F006A13009F417E2A091FD
:10125C00F006A23009F41DE2A091F006A33009F4C7
:10126C001EE2A091F006A33011F40E94351FA9C014
:10127C00A091D906A23049F4E091F006EE510E94FB
:10128C003B1F11F40E94351F9CC0A091D906A330BE
:10129C0049F4E091F006E1520E943B1F11F40E94C8
:1012AC00351F8FC0A091D906A430A9F4A091F006E7
:1012BC00A13009F410EFA091F006A23009F41FEE52
:1012CC00A091F006A33009F41EEEA091F006A43014
:1012DC0009F41DEE76C0A091D906A530A9F4A09111
:1012EC00F006A13009F419EEA091F006A23009F431
:1012FC001BEEA091F006A33009F41AEEA091F006B3
:10130C00A43009F41CEE5DC0A091D906A63049F4B6
:10131C00E091F006EB510E943B1F11F40E94351F27
:10132C0050C0A091D906A73049F4E091F006E950DD
:10133C000E943B1F11F40E94351F43C0A091D90697
:10134C00A830B1F4A091F006A13009F416EFA091E9
:10135C00F006A23009F415EFA091F006A33009F4C1
:10136C0017EFA091F006A33011F40E94351F29C08D
:10137C00A091D906A930A9F4A091F006A13009F4E6
:10138C0011EFA091F006A23009F412EFA091F00633
:10139C00A33009F414EFA091F006A43009F413EF74
:1013AC0010C0E091F006E35C6E2FE091D906A3E04B
:1013BC00EA02F001E60F1E2FA091F106A23009F40B
:1013CC00105EE091D906E030A9F4A091F006A130AE
:1013DC0009F410E2A091F006A23009F418E2A091F1
:1013EC00F006A33009F419E2A091F006A33011F431
:1013FC000E94351F0E94381E1083199108950E9477
:10140C00401FA0910605A03011F0A13009F40CC0CA
:10141C000E94491F64D1A0910605A43021F40E94BA
:10142C00491F0E94D11C4BC1CC2021F0E091BC067D
:10143C00E03009F464C00E94691E0E944E1FE091C6
:10144C000905F0E0309739F40E94541FEDEBF0E001
:10145C000E94CE1D2BC0E130A0E0FA0739F40E94A7
:10146C00541FEEECF0E00E94CE1D20C0E430A0E052
:10147C00FA0739F40E94541FEFEDF0E00E94CE1DE4
:10148C0015C0E230A0E0FA0739F40E94541FE0EFD7
:10149C00F0E00E94CE1D0AC0E530A0E0FA0731F45E
:1014AC000E94541FE1E0F1E00E94CE1D0E94591FE2
:1014BC00309779F00E94591FE05DE093DE050E94A1
:1014CC00601F0E94661FE05DE093DD050E94601FB7
:1014DC000BC00E946B1F309729F00E946B1FE05DC0
:1014EC00E093DD05AC2DBB27EAE0F0E00E9424225E
:1014FC00E05DE093DC050E94491FF1D0DAC0CC20FE
:10150C0021F0E0910605E03009F037C00E94691E19
:10151C000E944E1F0E94541FE2D00E94491FE2E11C
:10152C00F1E00E94CE1DE3E0E093EE050E94591F0E
:10153C00309799F00E94591FE05DE093E5050E94F9
:10154C00601F0E94661FE05DE093E4050E94601F2F
:10155C000E946E1FE093E3050FC00E946B1F309733
:10156C0029F00E946B1FE05DE093E505AC2DBB27D5
:10157C000E946E1FE093E4059CC0E0910705E030EB
:10158C0011F40C945B0B0E94741F49F4E9E0F0E039
:10159C000E94F41EEAE0F0E00E942F1E75C0E230BB
:1015AC00A0E0FA0749F4EDE0F0E00E94F41EEEE052
:1015BC00F0E00E942F1E68C0E630A0E0FA0749F464
:1015CC00E9E0F0E00E94F41EE4E1F0E00E942F1E3E
:1015DC005BC0E730A0E0FA0749F4E3E1F0E00E94D9
:1015EC00F41EE5E1F0E00E942F1E4EC0E430A0E0B6
:1015FC00FA0791F4EFE0F0E00E94F41EE0910A0586
:10160C00E03019F0EEE0F0E002C0E0E1F0E0E09351
:10161C00D706F093D80638C0E530A0E0FA0791F46D
:10162C00E1E1F0E00E94F41EE0910B05E03019F0CE
:10163C00EEE0F0E002C0E2E1F0E0E093D706F093D8
:10164C00D80622C0E830A0E0FA0791F4E6E1F0E019
:10165C000E94F41EE0910C05E03019F0EEE0F0E091
:10166C0002C0E0E1F0E0E093D706F093D8060CC09E
:10167C00E930A0E0FA0741F4E7E1F0E00E94F41E43
:10168C00E8E1F0E00E942F1EE0E0E09307050E94E5
:10169C00401F0E94791F0E945B190E94491F0E94E3
:1016AC00D11CE4E0E093DC060AC00E94791F0E9482
:1016BC005B19EFEDF5E0FA93EA930E94D11C0E94BE
:1016CC00541F0E94801F0E94491F01D008950E9440
:1016DC00831F6DC2552011F00E94831F68C21A939C
:1016EC000E94931F0E94981F10E0E09152051E1754
:1016FC0028F40E94301FE081E03009F408C00E94F9
:10170C009B1F0E94301FE081EC931F5FEECF18816E
:10171C0029C01A930A9311E0E09152050E94F11E20
:10172C00ED5AFA4FA081A03211F0A030A9F4E0914B
:10173C0052050E94F11E0E2F013048F00E94A11F8D
:10174C00E02F0E94F11E0E94A61F0150F5CFE0E38E
:10175C00E09353051F5FE0CFEA81EA930E9446189D
:10176C001981088123960895A297E0E0E883E98324
:10177C000E94682210E000E020E011E0E091640596
:10178C00A12F0E94AB1FEA17FB0714F40C944C0C0E
:10179C00A8951A930E9463181A93BBDF30E020E0DF
:1017AC0000E0E0915205A02F0E94AB1FAE17BF07BF
:1017BC0054F40E94B01FE081E03029F00E94B01F69
:1017CC00A081A03209F419C0A8950E94B01FA08175
:1017DC00A03311F4303009F001C00DC031E00E948B
:1017EC00B51F0E94B81F0E94B01FE0810E94BF1F4E
:1017FC00ED93FC932F5F0F5FD4CF4FEF5FEF203053
:10180C0011F040E050E0E1E0F0E0EE83FF8301E016
:10181C002017F4F0A895A22FB0E0A7FDBFEFE02FA2
:10182C00F0E0E7FDFFEF0E94C31F0E94B81F0E946B
:10183C004022AE81BF810E94F6214E0F5F1FAE8108
:10184C00BF81EAE00E94FE21EE83FF830F5FE0CFB1
:10185C00EAA5FBA54E175F071CF44AA55BA509C0BA
:10186C00E8A5F9A5E417F5071CF448A559A501C08E
:10187C000BC05A934A930E94261F0E94161D1A935E
:10188C0048DF1A930E9446181F5F78CF0E946F2280
:10189C00AC9608951A93A89584D2A8950E94911E8F
:1018AC00E3E00E94C81F79F4E0915405EF70E43036
:1018BC0050F4E0915405EF70E33021F4E0915405BD
:1018CC00EF7009F408C00E94261FE4E3F1E00E94C7
:1018DC00CE1D0E94D21D0E94D61FE093BF060E940F
:1018EC00E21F21F0E0E3E09353050FC0E0915405B3
:1018FC00E07021F0E0915505E07009F40AC00E94F7
:10190C00261FE8E3F1E00E94CE1DE2E0EA930E947C
:10191C0046180E94D61FE093C006E3E0EA930E94AB
:10192C0063180E940E1F41F00E94261FECE3F1E0A9
:10193C000E94CE1D0E94EE1F0E94D61FE093C1068E
:10194C00A091C106A33609F4A89AE091C106E03033
:10195C0009F4A8980E94F21F29F00E94261FECE3BC
:10196C00F1E008C0E0915405EF7051F40E94261F7D
:10197C00E0E4F1E0FA93EA930E94631D0E94FE1FDB
:10198C00E09154050E94BF1FAAE0B0E00E9404221F
:10199C00DF01E09155050E94BF1FEA0FFB1FE0938A
:1019AC00CF06F093D006E5E0EA930E946318E5E0D9
:1019BC000E940220E23060F4E13049F4E0915405D9
:1019CC00EF70E83021F4E0915505EF7009F405C093
:1019DC000E94261FE4E4F1E00EC0E0915305EF7085
:1019EC0029F4E0915405EF70E23008F00AC00E942F
:1019FC00261FE8E4F1E0FA93EA930E94631D0E942B
:101A0C000920E0915305EF70A4E6EA02602DE09105
:101A1C005405EF70AAE0EA02F001A62FAE0FE09198
:101A2C005505EF70EA0FE093C2060E94981EE1E0A4
:101A3C000E94C81FE093F206A091F206A53010F4A4
:101A4C00E03009F407C0E091F2060E94F11EE09329
:101A5C00F20606C00E94261F0E940D200E94D21D75
:101A6C000E94E21FAE2EE2E0EA1540F4E1E0AE2E59
:101A7C000E94261F0E940D200E9410200E94F21F1F
:101A8C00E093C306A091C306A23050F0E1E3E093CB
:101A9C0053050E94FE1FE0915305EF70E093C306BF
:101AAC000E94861EE2E00E941420E1E0F0E0FA932E
:101ABC00EA93E3E6F0E0FA93EA9356DE11E014368B
:101ACC0040F41A930E941A20ED50FA4F10831F5FB6
:101ADC00F6CFE0E0E0930605E5E0EA930E94EC1314
:101AEC00E4E0EA930E94EC1323D30E94F11D0E94C0
:101AFC00401F0E94791F0E941E200E9421200E94DC
:101B0C00801F0E94491FE3DDCFC20E946A22E0E0E1
:101B1C003E2F1E2FEAE0E09352050E94BF1DE0917C
:101B2C00FE06E030A9F13F5F3A930E94631800E093
:101B3C0020E0E091FE062E1710F4003009F012C0E0
:101B4C000E94B51F0F01ED5AFA4FA081F001EC5025
:101B5C00F94FE081F0E0F0960E94B41D09F001E02D
:101B6C002F5FE7CF003071F411E00E94B51FED5AE2
:101B7C00FA4FA081A13220F0A091FE06AA3008F005
:101B8C0001C010E0363610F4103009F001C0CBCF94
:101B9C00313011F4103009F401C012E0323011F47C
:101BAC00103009F401C013E0E12F0E947122249639
:101BBC0008950A921A92FA926A937A938A939A9354
:101BCC00AA93BA93EA93FA93EFB7EA93689423F83B
:101BDC00E091D106F091D2060E942420EA0FFB1F5F
:101BEC000E942920BB2009F0BA94E091CD06F09117
:101BFC00CE06309771F0ADECB6E0ED91FD913197DA
:101C0C00FE93EE93E091CD06F091CE06309709F459
:101C1C006CD3A0910605A23060F0A091FF06B091A4
:101C2C000007E6E5F0E00E942122309711F40E94B3
:101C3C009B05AFEFB6E00E942E20A091FF06B0915D
:101C4C000007AA3FE0E0BE0710F40C94C90EE09127
:101C5C00FF06F0910007EA5FF040E093FF06F09377
:101C6C000007689424F8E091BC06E03011F1E0E044
:101C7C00E093DC06E091BC06E150E093BC06E091F9
:101C8C00CF06F091D0063197A091BC060E94B41DEE
:101C9C0049F4E4E0E093DB06E2E0EA1519F4E5E050
:101CAC00EA9313D3E091BC06E03019F4E1E0E09341
:101CBC00DD06E091C606E03021F0A091C606A33601
:101CCC0008F008C0E091C606E150E093C606E0308B
:101CDC0009F4A898E091C706E03099F0E0E0E093B1
:101CEC00DC06E4E0F0E00E94F41EE5E0F0E00E9487
:101CFC002F1EE091C706E150E093C706E1E0EA939E
:101D0C00E4D2E091C906E03099F0E2E0F0E00E9404
:101D1C00F41EE3E0F0E00E942F1EE091C906E150B2
:101D2C00E093C906E2E0EA1519F4E3E0EA93CDD2B8
:101D3C00E091DC06E03041F0E0910207E03021F464
:101D4C00E0910605E03009F00AC0E091DC06E150B4
:101D5C00E093DC06E03019F4E1E0E093DD06E0917D
:101D6C00FE06E03019F0A0E0CA1609F004C0E091BC
:101D7C000605E03009F004C0E0910207EF5F01C0F6
:101D8C00E0E0E0930207E991EFBFF991E991B99195
:101D9C00A9919991899179916991F99019900990EA
:101DAC0018951A930E949F1E0E94161FE0915205CF
:101DBC00EA930E94781DE03049F50E94981E0E941B
:101DCC00071FE0915305EF70E093F306E030F1F458
:101DDC00A0915305AF3FD1F010E01436B8F4E09168
:101DEC006300E87039F00E94261F0E9434200E9484
:101DFC00EE1F5AC1B79B07C00E94261F0E943420B9
:101E0C000E94EE1F51C100001F5FE7CFE7E0F0E03A
:101E1C000E94F41EE8E0F0E00E942F1E0E94401F7A
:101E2C000E94791F0E941E200E9421200E94801F68
:101E3C000E94491F4CDCA8950E943720A895A091C0
:101E4C00F306A130F9F0A23009F444C0A091F306D6
:101E5C00A33009F476C0A091F306A43009F4A2C013
:101E6C00A091F306A53021F4E0E0E093F3060AC05C
:101E7C00A091F306A63009F4C6C0A091F306A730D2
:101E8C0009F4C5C00E943F1EEAE00E9414200E9483
:101E9C0033180E94261FECE4F1E00E94CE1D0E9434
:101EAC00D21DE091F306E03009F0CDC00E94BF1DB9
:101EBC000E94C61DE0E5F1E00E94CE1D0E94D21DDD
:101ECC000E94621E0E94C61DE7E5F1E00E94CE1D35
:101EDC000E94D21D0E94861EE2E0E093520511E0A2
:101EEC00143650F5A895143678F40E943D200E94C3
:101EFC00661FE05DE0935305A12FBB270E946E1F68
:101F0C00E0935405E0E211C00E943D200E94402065
:101F1C00E09353050E9446200E94661FE05DE0930B
:101F2C0054050E9446200E946E1FE09355051A939B
:101F3C000E9446181F5FD4CFE091F306E03009F001
:101F4C0082C0A8950E94911EE3E00E944C20EEE511
:101F5C00F1E00E94CE1D0E94D21D0E94261FE2E6D7
:101F6C00F1E00E94CE1D0E9410200E94261FECE37F
:101F7C00F1E00E94CE1D0E94EE1F0E94261FE8E495
:101F8C00F1E00E94CE1D0E94FE1F0E94261FE6E675
:101F9C00F1E00E94CE1D0E940920E091F306E03092
:101FAC0009F051C0A8950E94691EE0E10E9414201E
:101FBC000E9433180E94261FEAE6F1E00E94CE1D13
:101FCC000E94D21D0E94261FEBE7F1E00E94CE1D5D
:101FDC000E9410200E94261FECE8F1E00E94CE1D0A
:101FEC000E94EE1F14E0143650F4A8950E94261F90
:101FFC000E94981F1A930E9446181F5FF4CFE0911D
:10200C00F306E03001F5E091F306E030E1F4A89539
:10201C000E94981EE1E00E944C200E940D200E941C
:10202C00D21D0E94261F0E940D200E9410200E948B
:10203C00261F0E940D200E94FE1F0E94261F0E9438
:10204C000D200E940920A8950E94981EE1E00E9494
:10205C004C200E943420E6E0EA930E944618E7E008
:10206C00EA930E9446180E94EE1F0E949F1E0E9437
:10207C00161F0E94511DE03081F00E94261FE6EBD6
:10208C00F0E00E94CE1D0E94D21DE0E3E0935305C8
:10209C00E0E0E09354050E941020E0910605E0304A
:1020AC0019F4E3E0EA9392D319910895A881A13031
:1020BC0021F4A981BA81EC91B7C0A881A23059F45E
:1020CC00A981BA81EC91AAE0EA02A981BA811196A0
:1020DC00EC91E00DA9C0A881A330A9F4A981BA8123
:1020EC00EC91A4E6EA02602DA981BA811196EC91DB
:1020FC00AAE0EA02F001E60F0E2EA981BA8112962F
:10210C00EC91E00D91C0E0E08FC01A9310E0133613
:10211C0068F40E944F20E95AF94FE081A981EA172F
:10212C0019F4E12FEF5FCEC01F5FF1CFE0E0CAC022
:10213C0060971A930A93E9E1F0E00E94F41EE4E040
:10214C00F0E00E942F1E0E94401F0E94791F0E94E7
:10215C001E200E9421200E94801F0E94491F0E9465
:10216C006D0BE0E0E093BB060E94691EE0E1E0939A
:10217C00520511E0143610F00C940711A8951A931F
:10218C000E945220E0E1EA936AD0FE013296FA9363
:10219C00EA933BD0E03009F5E12F0E94F11EE95A99
:1021AC00F94FA1E0A08301E00436B8F4A8950A9396
:1021BC000E9452203BD0E03071F00E94261F25D0A7
:1021CC00E03049F4E12F0E94F11EE95AF94FDF018A
:1021DC00EC91EF5FEC930F5FE7CFE12F0E94F11EC4
:1021EC00E95AF94FA081E091BB06EA1740F4E12FC0
:1021FC000E94F11EE95AF94FE081E093BB061F5F84
:10220C00B9CF19810881629608951A9310E01031A4
:10221C0048F40E949B1FAC91A03211F0E0E003C087
:10222C001F5FF5CFE1E01881239608951A9310E013
:10223C00103190F40E945920EC91E01518F4E1E073
:10224C00188122C00E945920EC910E1618F4E0E07F
:10225C0018811AC01F5FECCFE0E0188115C0E8812F
:10226C00E03091F0E150E883AB81BC81F0E0EA0F03
:10227C00FB1F0F01E881A981BA81F0E0AE0FBF1FEF
:10228C00EC91D001EC93EBCF259608951A930E9414
:10229C00861EE2E0E0935205E981EA930E946318FE
:1022AC00E9810E9402200E946020E0915405EF70A9
:1022BC00EA0F1E2F113010F0143608F002C0E12F77
:1022CC0001C0E0E0188122960895AA2059F0E88117
:1022DC00E093D306E8EEF3E00E946520EAE1E09398
:1022EC008A0001C002D021960895E0E0E093D30665
:1022FC000E946A200895E091D306E03011F40C940A
:10230C006D120E94741F61F40E946F20A53DE3E0E2
:10231C00BE0718F00E94742002C00E947C20CFC01F
:10232C00E230A0E0FA0771F40E946F20A939E3E0D3
:10233C00BE0728F0E0E8F2E00E94292002C00E94CB
:10234C007C20BDC0E330A0E0FA0771F40E946F203E
:10235C00AD3BE2E0BE0728F0E0E8F0E00E94292067
:10236C0002C00E947C20ABC0E430A0E0FA0721F54B
:10237C000E946F20A73EE3E0BE0718F00E94742075
:10238C001AC00E946F20AD3AE3E0BE0790F00E94A5
:10239C007F2019F40E94862002C00E948D200E948A
:1023AC0093200E9496200E949D2010F40E9474207D
:1023BC0002C00E947C2083C0E530A0E0FA0711F037
:1023CC000C9465120E946F20A73EE3E0BE0718F044
:1023DC000E94742074C00E946F20AD3AE3E0BE07E7
:1023EC0090F00E947F2019F40E94862002C00E9467
:1023FC008D200E9493200E9496200E949D2010F414
:10240C000E9474205CC00E946F20A934E3E0BE07D8
:10241C0018F00E946A2053C00E946F20A734E3E09A
:10242C00BE0718F00E9474204AC00E946F20AD3085
:10243C00E3E0BE07A8F0EAE1E0938A000E947F2067
:10244C0019F40E94862002C00E948D200E949320C5
:10245C000E9496200E949D2010F40E9474202FC090
:10246C000E946F20A93AE2E0BE0718F00E946A2091
:10247C0026C00E946F20A73AE2E0BE0718F00E9427
:10248C0074201DC00E946F20AD36E2E0BE07A8F09C
:10249C00EAE1E0938A000E947F2019F40E948620D2
:1024AC0002C00E948D200E9493200E9496200E94C0
:1024BC009D2010F40E94742002C00E947C20E091A8
:1024CC00CC06E0938700E091CB06E093860008955C
:1024DC0044FE72C1EFEE4E2221FE04C0E0910605CF
:1024EC00E03009F065C1E2E0E515B9F4E0E0E09315
:1024FC00BA050E94A1200E94A920E0E1EA930E9463
:10250C00901DE9E6F5E0FA93EA930E94AE200E9452
:10251C0037200E94A1200E94AE20E89421F8E0E030
:10252C00E093DC06E7B7EE7FE7BFE0E0E09307055A
:10253C00E0910E05F0E0E033A0E0FA0761F4A09121
:10254C000805A13021F0A23011F0A53019F458D4AF
:10255C000E94041E2DC1E035A0E0FA0711F00C9486
:10256C002A13A0910F05A73411F00C940413A09119
:10257C000805A63011F00C9404130E94B420A0910D
:10258C001005A63449F4E0E0E0930B05E0930A054E
:10259C00E6E0EA9347D432C0E0910B05E030B1F0AD
:1025AC004FD42ED4E0910B05EF5FE0930B05E5E0E3
:1025BC00EA9338D4A0910B05A13220F0E0E0E0932F
:1025CC000B053AC0E9E0EA9301D118C0E0910A0585
:1025DC00E030A1F015D4E0910A05EF5FE0930A0515
:1025EC00E4E0EA931FD4A0910A05A13220F0E0E0C8
:1025FC00E0930A0521C0E7E0EA93E8D0A0910F052B
:10260C00AE3409F5A0910805A730E9F40E94B42076
:10261C00E0910C05E030B9F0F3D3E0910C05EF5FDD
:10262C00E0930C05E8E0EA93FDD3A0910C05A132F0
:10263C0038F0E0E0E0930C05E6E0EA93C7D00895AB
:10264C00EAE0EA93C3D0B4C0E934A0E0FA0761F53C
:10265C00E0E0EA93CED3A0910F05A635C1F4A0918A
:10266C000805A33019F4E0E0E0930805E3E0EA93F1
:10267C00D9D30E949F1EE6E00E944C20E0E1F5E0D9
:10268C000E942B1F0E94901D0E9410200CC0A09134
:10269C000F05AD3441F4552031F0E0E0E09308052E
:1026AC00E9E0EA93BFD384C0E334A0E0FA0711F069
:1026BC000C94A013A0910805A43019F4E0E0E09369
:1026CC0008050E94BA200E94BF2011F4E0E2CE2E31
:1026DC000E94C720A0910F05A13441F4E1E0E093E2
:1026EC000905E091CF06E093BC0623C0A0910F052D
:1026FC00A53439F4E2E0E0930905E5E0E093BC068B
:10270C0018C0A0910F05A63439F4E4E0E093090554
:10271C00E5E0E093BC060DC0A0910F05A23411F4C6
:10272C00E2E005C0A0910F05A73419F4E7E0EA93A5
:10273C0079D33BC0E435A0E0FA07B1F4A0910805C9
:10274C00A43019F4E0E0E09308050E94BA200E943E
:10275C00BF2011F4E0E2CE2E0E94C720E091C20609
:10276C00E093BC06E5E01FC0E535A0E0FA07D1F424
:10277C00E091C706E03021F4E091C906E03009F0A1
:10278C0010C00E94FD1D0E94EA1DE091BF06EF5F84
:10279C00E093C706E1E0E093C8060E94CD1EEA93E1
:1027AC0094DD03C0E7E0E0930905E0E0EA9321D370
:1027BC00E0E0E093790509C00E94CD2020F0A091C3
:1027CC000507A03009F001C021D308951A930A938C
:1027DC0010E000E0E0910605E03009F006C3E0915E
:1027EC000507E03011F441FE12C0A0911207A93088
:1027FC0018F4AA81A03009F409C0E0911207EF5F28
:10280C00E09312070E94D320AA81A083EEC2AA8172
:10281C00A630E9F4E0910805E03039F00E94D720A9
:10282C00E081EA83E89426F811C00E94CD2010F0D4
:10283C00EDD2DBC2E0E0E0930407E0911107EF5F1B
:10284C00E09311070E94D320E081EA8311C0E0914C
:10285C000805E03049F40E94CD2028F0D7D20E9420
:10286C00D720AA81A08304C00E94D720E081EA83EC
:10287C00EA81E093060710E0F0E03097B1F410E045
:10288C00143040F40E944F20E558FA4FA0E3A08387
:10289C001F5FF6CFE0910407E03019F4E1E0E0931C
:1028AC000407E3E0E093050725C2E130A0E0FA0756
:1028BC0011F00C94A414CC2011F4A8D296C2E4E02C
:1028CC00E0930805E0E0E09309051F5F0E944F20AC
:1028DC00E658FA4FA3E4A0830E94AE1EE1E0E09319
:1028EC005205CA920E9463181F5F0E944F200E94DB
:1028FC00DA20E658FA4FFF93EF93CA920E941A20FF
:10290C00DF010E94661FE05DAF91BF910E94E12044
:10291C00E658FA4FFF93EF93CA920E941A20DF01F8
:10292C000E946E1FAF91BF910E94E42019F4E3E066
:10293C00E0930407E9E0E0930507DCC1E230A0E096
:10294C00FA07F9F4E5E00E94E920E658FA4FA3E40F
:10295C000E94ED20E658FA4FA5E40E94ED20E658BF
:10296C00FA4FA0E30E94ED20E658FA4FA0E30E9434
:10297C00F02019F4E3E0E0930407E3E0E0930507AB
:10298C00B9C1E330A0E0FA07A1F4E2E00E94E9202B
:10299C000E94F5200E94F920E658FA4FA2E50E9409
:1029AC00F02019F4E3E0E0930407E9E0E093050775
:1029BC00A1C1E430A0E0FA0711F00C944A15E2E052
:1029CC000E94E9200E94F5200E94F920E658FA4F57
:1029DC00A0E5A0831F5F0E943D20A658BA4FE0914E
:1029EC00F206EF5C0E94E1200E94FD20E4E6F0E09C
:1029FC000E9405210E94FD20EAE0F0E00E940521E2
:102A0C000E94FD20EAE0F0E00E9421220E940A21AF
:102A1C000E940D210E944020DB010E94E1200E94B7
:102A2C000D210E94661FDF010E946E1FDB010E94B8
:102A3C00E120E658FA4FBF01A091C206BB270E94C5
:102A4C006E1FDB010E94E120E658FA4FA0E3A08341
:102A5C001F5F0E943D20A658BA4FE091C406E1705A
:102A6C00E05DEC931F5F0E943D20A658BA4FEA2D03
:102A7C00E370E05D0E94E42019F4E3E0E0930407C6
:102A8C00E3E0E093050736C1E530A0E0FA07A9F4CE
:102A9C00E3E00E94E920E658FA4FA9E40E94ED20F9
:102AAC00E658FA4FA6E50E94F02019F4E3E0E09313
:102ABC000407E9E0E09305071DC1E730A0E0FA0741
:102ACC0011F00C94FE15E0910A05E03019F4E0E2E7
:102ADC00E0930A05E6E00E94E9200E94F5200E949E
:102AEC0014210E94F920E658FA4FBF01A0910A0563
:102AFC000E9418210E940A21E658FA4FBF01A091AA
:102B0C000A05BB270E946E1FDB01EC930E94AE1ED0
:102B1C000E941A210E94A11FEC91E03041F0FD01AE
:102B2C00A081A03221F0E09152050E1708F007C0E9
:102B3C001F5F0E943D200E9424210F5FEBCF1F5F7F
:102B4C000E944F200E9429210E941A210E94A11F3D
:102B5C00EC91E03021F0FD01A081A03209F404C019
:102B6C00E09152050E1708F007C01F5F0E943D2030
:102B7C000E9424210F5FEACF1F5F0E944F200E940A
:102B8C0029210E941A210E94A11FEC91E03021F012
:102B9C00FD01A081A03209F404C0E09152050E178A
:102BAC0008F007C01F5F0E943D200E9424210F5F88
:102BBC00EACF1F5F0E944F200E942921E1E0E093A1
:102BCC005205E0910A05EA930E9463181F5F0E9468
:102BDC004F200E94DA20E658FA4FACE70E94F02012
:102BEC0019F4E3E0E0930407E9E0E093050782C001
:102BFC00E930A0E0FA0761F5E0910B05E03019F43B
:102C0C00E0E2E0930A05E6E00E94E9200E94F5204C
:102C1C000E9414210E941421E658FA4FBF01A09182
:102C2C000B050E9418210E940A21E658FA4FBF0199
:102C3C00A0910B05BB270E946E1FDB010E94E420B4
:102C4C0019F4E3E0E0930407E9E0E093050752C0D0
:102C5C00EA30A0E0FA0711F00C948016E0910C0514
:102C6C00E03019F4E0E2E0930C05E7E00E94E92083
:102C7C000E94F520E658FA4FAEE40E94ED200E9427
:102C8C00F920E658FA4FBF01A0910C050E941821BB
:102C9C000E940A21E658FA4FBF01A0910C05BB27F0
:102CAC000E946E1FDB01EC930E94691EE0E1E09331
:102CBC005205E0910C05EA930E94631800E00E9413
:102CCC00B01FE081E03021F0E09152050E1708F0C2
:102CDC0007C01F5F0E943D200E9424210F5FEFCF91
:102CEC00E0910407E03019F4E3E0E0930407E3E03B
:102CFC00E093050710937A050E944F20E558FA4F90
:102D0C00A0E0A0837894E2E0E51511F00C94F016A5
:102D1C00E0E0E0930D05E093BA05EAEBF5E0FA93F9
:102D2C00EA93EAE7F5E00E942B1F0E94901DEAEB64
:102D3C00F5E0FA93EA930E946E1D7E2EE6E0E7150D
:102D4C0008F47E2E0E942E21AEE2A0830E942E213A
:102D5C00DF01E09108050E943421DF01E0911107A9
:102D6C000E943421DF01E09112070E943421BF013F
:102D7C00A09107070E943821BF01A0910807B0E07D
:102D8C00EAE0F0E00E942422EF70E05DDB01EC93BE
:102D9C000E942E21BF01A09106070E943821AEE2AD
:102DAC00A0830E942E21A0E0A0830E942E21A0E0EF
:102DBC00A0830E94A9200E94AE20EAEFF0E0FA93D3
:102DCC00EA930E94E621E0E0E093BA050E94A92074
:102DDC000E94AE20E0E0E093CA0599241A9AE2E042
:102DEC004E2AE0E0ECB95698559A19810881239641
:102DFC0008950E944221E881EA93E8DC0C942F1993
:102E0C00E0E0E09308050E9442210895E0E0E093A1
:102E1C0006074424E0931207E0931107F1DF60905A
:102E2C0008050895E0E0E0930905E093DC06E093E3
:102E3C00BC060E94D61DE881E09307050C942F195F
:102E4C001A930A9316E000E00E94AE1E0E944821DD
:102E5C000E94981F0E94B01FA0E0A083E2E0E5153D
:102E6C0091F4E0E0F5E0FA93EA930E94A9200E9425
:102E7C00700B0E943720E1E0F5E0FA93EA93E2E070
:102E8C00F5E00E9450210E944F200E94542121F015
:102E9C00E09152050E1708F009C00E94A11F0E9474
:102EAC004F200E9459211F5F0F5FEDCF0E94B01F72
:102EBC00A0E0A083E2E0E51581F40E94261FE3E088
:102ECC00F5E00E9450210E943720E4E0F5E0FA93EF
:102EDC00EA93E5E0F5E00E9450210E944F200E9409
:102EEC00542109F41F5F0E945E210E9448210E9418
:102EFC00981F0E94B01FA0E0A0830E944F200E9448
:102F0C00542121F0E09152050E1708F003C00E94E5
:102F1C006421F3CF0E94B01FA0E0A0830E944F2039
:102F2C000E94542109F41F5F0E945E210E944821D7
:102F3C000E94981F0E94B01FA0E0A0830E944F2007
:102F4C000E94542121F0E09152050E1708F003C0A5
:102F5C000E946421F3CF0E94B01FA0E0A0830E94C6
:102F6C004F200E94542109F41F5FE0910B05EA9356
:102F7C000E9446186FC01A93109168050DD0E0930B
:102F8C006805103011F4E11719F4E0E00C944F19B6
:102F9C00E09168050C944F191A930A93C69810E1A6
:102FAC000E946E2100E00430E8F514FF0CC0B29BC7
:102FBC0002C0E1E04FC0B39B02C0E2E04BC0B49B47
:102FCC0002C0E3E047C015FF0CC0B29B02C0E4E0B6
:102FDC0041C0B39B02C0E5E03DC0B49B02C0E6E03B
:102FEC0039C016FF0CC0B29B02C0E7E033C0B39BE4
:102FFC0002C0E8E02FC0B49B02C0E9E02BC017FF71
:10300C000CC0B29B02C0E8E125C0B39B02C0EAE051
:10301C0021C0B49B02C0E1E11DC0110F0E946E21C2
:10302C000F5FC1CFE3B1EF70E3B9C69A00E00E3188
:10303C0018F400000F5FFBCFB29B02C0E5E10AC0A1
:10304C00B39B02C0E7E106C0B49B02C0E6E102C03C
:10305C00C698E0E00991199108951A930E94261FD1
:10306C00EEE9F1E00E94CE1D11E0E0916405E1175C
:10307C0028F0A8951A9304D01F5FF7CF0C944F1922
:10308C000E9475210E947B2110E0E09152051E17D1
:10309C0010F4103108F00DC0ADE4B5E00E942E2004
:1030AC003197DF010E94301FE0810E9457221F5F81
:1030BC00ECCF0E9471220C94A11C0E9475210E94DD
:1030CC007B210E94261FEEE9F1E00E94CE1D10E04C
:1030DC00E09152051E1710F4103108F00FC00E9439
:1030EC00301F0F01ADE4B5E00E942E203197DF01B7
:1030FC000E944B22D001EC931F5FEACF0E94301F3D
:10310C00A0E0A0830E9471220C94A11C0E9490212B
:10311C000E9490210E9490210E949021E0E2EA936B
:10312C008CD0E8E2EA9382D0E0E1EA937FD0ECE045
:10313C00EA937CD0E6E0EA9379D0E1E0EA9376D0AA
:10314C0001D00895AA98AB98E8E4EA936FD00E9456
:10315C0094210E9498210E949C210E9494210E94FB
:10316C0094210E9494210E9494210E94A0210E94EB
:10317C0094210E9494210E9494210E949C210E94DF
:10318C0098210E9494210E94A0210E9494210E94C7
:10319C009821E1E1EA933DD00E949C210E94942168
:1031AC00E0E0EA9336D0E0E0EA9333D008950E9451
:1031BC006A2230E0EC813E1758F400E010E004364F
:1031CC00E0E01E0718F40F5F1F4FF9CF3F5FF2CFFF
:1031DC000E9471220C94A11C1A93E981E058EA9385
:1031EC0025D010E0103120F40E94A521E03009F424
:1031FC0006C00E94A521EA930CD01F5FF3CF1031BB
:10320C0028F4E0E2EA9305D01F5FF9CF18810C9403
:10321C00101D0E94AC21E4600E94B6210E94BA21CC
:10322C00E07FE4600E94B621AA9813C00E94AC21F2
:10323C000E94B6210E94BA2109C0E5E0EA93B7DFEB
:10324C00E5B3EF70E5BBE5B3AE2FE881E07F0E94FC
:10325C00B621219608951A9310E8AF9AEFE7E4BBD4
:10326C00AB9AAA9817FF0FC0AF9A0000000000009D
:10327C00A99A00000000000013B317FF13B3AF9816
:10328C00A99809D0EFCFEFEFE4BBE5B3EF70E5BB46
:10329C00AB981991089500000000A99A0000000055
:1032AC000000A9980000000008951A93E09106050B
:1032BC00E03011F00C94C71AEB81FC81309789F443
:1032CC000E94931FE0EBF1E00E94CE1DA981BA8110
:1032DC001D96E1E0EC93A981BA811F96E2E0EC9394
:1032EC004FC1E130A0E0FA0739F40E94931FE1ECE2
:1032FC00F1E00E94CE1D44C1E230A0E0FA0739F49F
:10330C000E94931FE1EDF1E00E94CE1D39C1E33024
:10331C00A0E0FA0739F40E94931FE2EEF1E00E945C
:10332C00CE1D2EC1E430A0E0FA0729F40E94931FB1
:10333C000E94C22125C1E530A0E0FA0739F40E94B1
:10334C00931FE4E0F2E00E94CE1D1AC1E730A0E02A
:10335C00FA0729F40E94931F0E94C22111C1E83080
:10336C00A0E0FA0739F40E94931FE5E1F2E00E9415
:10337C00CE1D06C1E930A0E0FA0739F40E94931F74
:10338C00E4E2F2E00E94CE1DFBC0EA30A0E0FA07B6
:10339C0039F40E94931FE4E3F2E00E94CE1DF0C0CA
:1033AC00EB30A0E0FA0739F40E94931FE3E4F2E05B
:1033BC000E94CE1DE5C0EC30A0E0FA0739F40E9463
:1033CC00931FE2E5F2E00E94CE1DDAC0ED30A0E0E2
:1033DC00FA0739F40E94931FE0E6F2E00E94CE1D3A
:1033EC00CFC0EE30A0E0FA0729F40E94931F0E9490
:1033FC00C221C6C0EF30A0E0FA0791F40E94931FDF
:10340C00EDE6F2E00E94CE1DE0910A05E03019F0E5
:10341C000E94F11E01C0E0E2EA930E94C521B0C0F7
:10342C00E031A0E0FA0739F40E94931FE9E7F2E0DB
:10343C000E94CE1DA5C0E131A0E0FA0791F40E94D4
:10344C00931FE6E8F2E00E94CE1DE0910B05E03000
:10345C0019F00E94F11E01C0E0E2EA930E94C5211E
:10346C008FC0E231A0E0FA0739F40E94931FE3E920
:10347C00F2E00E94CE1D84C0E331A0E0FA0739F4DB
:10348C000E94931FE0EAF2E00E94CE1D79C0E43165
:10349C00A0E0FA0739F40E94931FE1EBF2E00E94DE
:1034AC00CE1D6EC0E531A0E0FA0739F40E94931FDF
:1034BC00E0ECF2E00E94CE1D63C0E631A0E0FA071A
:1034CC0091F40E94931FEFECF2E00E94CE1DE0916C
:1034DC000C05E03019F00E94F11E01C0E0E2EA9305
:1034EC000E94C5214DC0E731A0E0FA0799F40E9473
:1034FC00931FEEEDF2E00E94CE1DE0911005EF70EF
:10350C000E946020E0911105EF70EA0FEA930E948F
:10351C00C52136C0E831A0E0FA0741F5E091160567
:10352C00A981BA81EC93E0911505A981BA81119614
:10353C00EC93E0911405A981BA811296EC93E09179
:10354C001305A981BA811396EC93E0911205A98118
:10355C00BA811496EC93A981BA811696E0E2EC93A9
:10356C00A981BA811796E0E0EC930AC0E931A0E09A
:10357C00FA0731F40E94931FEAEEF2E00E94CE1D8E
:10358C00CCC1EB81FC81309781F40E94931FE4EF56
:10359C00F2E00E94CE1DA0E020FCA1E0A13010F0D2
:1035AC00E2E001C0E8E0E0936505AB81BC811297D5
:1035BC0049F40E94931FE0E0F3E00E94CE1DE2E08C
:1035CC00E0936605AB81BC81139749F40E94931F6D
:1035DC00EEE0F3E00E94CE1DE2E0E0936605AB81E5
:1035EC00BC81149749F40E94931FEAE1F3E00E9416
:1035FC00CE1DE2E0E0936605AB81BC81119749F4E6
:10360C000E94931FE6E2F3E00E94CE1DE2E0E093FD
:10361C006605AB81BC81169749F40E94931FE5E3C4
:10362C00F3E00E94CE1DE2E0E0936605AB81BC8125
:10363C00159749F40E94931FE5E4F3E00E94CE1D18
:10364C00E2E0E0936605AB81BC81179749F40E94D8
:10365C00931FE5E5F3E00E94CE1DE2E0E0936605E2
:10366C00AB81BC81189749F40E94931FE4E6F3E008
:10367C000E94CE1DE2E0E0936605AB81BC811A97F7
:10368C0049F40E94931FE0E7F3E00E94CE1DE2E0B4
:10369C00E0936605AB81BC811B9749F40E94931F94
:1036AC00E1E8F3E00E94CE1DE2E0E0936605AB8119
:1036BC00BC811C9749F40E94931FEFE8F3E00E9431
:1036CC00CE1DE2E0E0936605AB81BC81199749F40D
:1036DC000E94931FEDE9F3E00E94CE1DE2E0E0931F
:1036EC006605AB81BC81A238E0E0BE0741F40E94C4
:1036FC00931FECEAF3E00E94CE1D0E94CB21AB811C
:10370C00BC81AF38E0E0BE0741F40E94931FE9EBA7
:10371C00F3E00E94CE1D0E94CB21AB81BC81AC3961
:10372C00E0E0BE0741F40E94931FE8ECF3E00E9436
:10373C00CE1D0E94CB21AB81BC81A537E0E0BE073A
:10374C0041F40E94931FE7EDF3E00E94CE1D0E940E
:10375C00CB21AB81BC815A9741F40E94931FE6EEBA
:10376C00F3E00E94CE1D0E94CB21AB81BC819797C8
:10377C0031F40E94931FE2EFF3E00E94CE1DAB8167
:10378C00BC81D49731F40E94931FE2E0F4E00E94D4
:10379C00CE1DAB81BC811D9741F40E94931FE2E1C9
:1037AC00F4E00E94CE1D0E94CB21AB81BC81AE34D3
:1037BC00E0E0BE0741F40E94931FEDE1F4E00E94AB
:1037CC00CE1D0E94CB21AB81BC81A134E0E0BE07B1
:1037DC0091F5A0916705A13031F40E94931FEBE2A3
:1037EC00F4E00E94CE1DA0916705A23031F40E9436
:1037FC00931FE8E3F4E00E94CE1DA0916705A3306F
:10380C0031F40E94931FE8E4F4E00E94CE1DA091D5
:10381C006705A43031F40E94931FE5E5F4E00E94A3
:10382C00CE1DA0916705A53031F40E94931FE2E6EE
:10383C00F4E00E94CE1DAB81BC81AB35E0E0BE074D
:10384C0011F00C94791CA0916705A13031F40E9401
:10385C00931FEEE6F4E00E94CE1DA0916705A23006
:10386C0031F40E94931FEFE7F4E00E94CE1DA0916B
:10387C006705A33031F40E94931FE0E9F4E00E9445
:10388C00CE1DA0916705A43031F40E94931FECE982
:10389C00F4E00E94CE1DA0916705A53031F40E9482
:1038AC00931FEDEAF4E00E94CE1DA0916705A630AF
:1038BC0031F40E94931FECEBF4E00E94CE1DA0911A
:1038CC006705A73031F40E94931FE9ECF4E00E94E5
:1038DC00CE1DA0916705A83031F40E94931FE6ED30
:1038EC00F4E00E94CE1DAB81BC81A836E0E0BE079F
:1038FC00A1F4A0916705A13031F40E94931FEEED65
:10390C00F4E00E94CE1DA0916705A23031F40E9414
:10391C00931FE8EEF4E00E94CE1D0E94931F0E94BC
:10392C006E1D1E2F103130F40E949B1FE0E2EC93B1
:10393C001F5FF8CF1881259608952497AE81A43681
:10394C0060F40E941821E05DE983AE81BB270E94E0
:10395C006E1FE883E0E0EA8312C0AE81B0E00E9403
:10396C004020EA830E94CF210E94661FE05DE9831C
:10397C000E94CF210E946E1FE883E0E0EB83EC8174
:10398C00FD81FA93EA93FE013296FA93EA930E9430
:10399C00421D279608951A930A9300E00830C0F54B
:1039AC000E94D5211C91E02FAA81BB81F0E0EA0F87
:1039BC00FB1FBF010E94DB21AA81BB81AE0FBF1F81
:1039CC00EC91DB01EC930E94DB21AA81BB81EA0F15
:1039DC00FB1F10830E94D521AC91A03E28F00E94C1
:1039EC00D521AC91AB3F08F004C00E94D5210E94B8
:1039FC00E021103E10F01B3F08F008C00E94DB21B4
:103A0C00AA81BB81AE0FBF1F0E94E0210F5FC6CF02
:103A1C001981088124960895959A0895959808958A
:103A2C00A991B991E991F99130962AF4E095F09524
:103A3C0031966DE26D93E89480E197E20DD088EEBB
:103A4C0093E00AD084E6992707D08AE005D06E2F40
:103A5C0010D066276C9308956627E817F90720F0B5
:103A6C006395E81BF90BC9F7662311F416F008955A
:103A7C006894605D6D930895E991F991A991B9915C
:103A8C00CD016D916623E9F7119761916D936623D2
:103A9C00E1F7FC010895E991F991A991B9911D9073
:103AAC000590011421F40020D1F7EE270895101889
:103ABC00E1F3E1E008F4E2500895E991F991A9915C
:103ACC00B991CD0105900D920020E1F7FC0108950C
:103ADC00A991B991EE27FF276D91662311F03196CC
:103AEC00FBCF0895002411246991E991F991A991D2
:103AFC00B991662349F06A951D900590011421F443
:103B0C000020B9F7EE2708951018E1F3E1E008F46E
:103B1C00E25008957991E991F991A991B991CD016A
:103B2C00772351F07A9561916D936623C9F77723CA
:103B3C0019F07A956D93FBCFFC010895AA93BA9373
:103B4C00EA93FA93EFB7EA930895E0917905F0E0E0
:103B5C00E35FFA4F0895F0E033960895B0E0EA176A
:103B6C00FB070895E091CA05F0E0E658FA4FE081B2
:103B7C000895EDE4F0E0E0934F05F09350050895BF
:103B8C00EAE0E0935205E3E5F5E0FA93EA93089551
:103B9C00FA93EA930C94631DE1E0EA930C944618B3
:103BAC00E0E0E093FE06CC240895E091BF06EF5FC1
:103BBC00E093C706EAEFF0E0E093FF06F09300070E
:103BCC00E1E0E093C8060895EAEFF0E0E093FF0629
:103BDC00F09300070895E0E0E093D506E093D60655
:103BEC00E1E0F0E0E093D706F093D8060895CC24FA
:103BFC00E0E0E093FE06DD240C945F06E6E0EA9339
:103C0C000C94EC130E940C17E1E0EA930E94181735
:103C1C00E0E0E0930B05E0930A050895E4EFF6E08D
:103C2C00FA93EA93E091FE06EA930C945C10E1E0BF
:103C3C00E0930605E0E0E093DE060895E091DE06F1
:103C4C00F0E0E052F94F0895A091D506B091D60658
:103C5C000895E093D706F093D8060895E091DF0617
:103C6C00F0E00895E091ED06F0E03197ED5AFA4F4F
:103C7C000895E1E6F0E0E0934F05F09350050895C8
:103C8C00E0936405EAE0E09352050895E3E0E093E5
:103C9C000605E1E0E0936705E093ED06E093EE06A0
:103CAC000895E2E0E0930605E1E0E0936705E09318
:103CBC00ED06E093EE060895E7E5F0E0E0934F059E
:103CCC00F09350050895EFE3F4E0E0934F05F09383
:103CDC0050050895E0936405E0E1E09352050895E2
:103CEC00E0930605E1E0E0936705E093ED06E0E084
:103CFC00E093F106E093F006E1E0E093EE06089520
:103D0C00EFE6FAE0E0934F05F09350050895E09349
:103D1C005205E2E0E5CFE5E3FBE0E0934F05F093DD
:103D2C0050050895E4E4FBE0E0934F05F093500553
:103D3C000895E0E4F0E0E0934F05F093500508950A
:103D4C00ECE4FBE0E0934F05F0935005E0E0C2CFCC
:103D5C00ECE4FBE0E0934F05F09350050895E091FF
:103D6C006705EA930C946318E0E0E0936705E09331
:103D7C00DE06E09306050895DA920E948B10CE2E93
:103D8C00E3E0E093DB06E1E0EA930C946B11E3E0F3
:103D9C00E093DB06E1E00895E5E0E093DB06E2E08A
:103DAC000895E091D506F091D6060895E1E0E093F0
:103DBC00DF06E0E0E093D506E093D6064FCF44DF74
:103DCC00EA0FFB1F46DFE0E0E093FE06E0CF3CDFAE
:103DDC00EA0FFB1F3ECFF0E031970895E093D50634
:103DEC00F093D6060895E0916705EA930C94461873
:103DFC00E1E0E093ED06E0E0E093F106E093F006FD
:103E0C000895E1E0E0935205E3E0EA930C94631823
:103E1C00E3E0EA930E948F0BE0915305EF70089555
:103E2C00E6E0E0935205E1E0EA930E946318E3E5D3
:103E3C00F5E0FA93EA93E6EBF0E0FA93EA9308954F
:103E4C00E3E5F5E0FA93EA930895FA93EA93E6E052
:103E5C00EA930895E12FF0E0ED5AFA4F0895E091BE
:103E6C00F006EF5FE093F00608951E2FA091F00688
:103E7C00A330089596DFFA93EA93EFECF5E0FA930A
:103E8C00EA930C945B19EFEDF5E0FA93EA9308953D
:103E9C00E0E1E0935205CA920C946318EFECF5E064
:103EAC00FA93EA930895AC2DB0E0E4E6F0E00E94BA
:103EBC001C220895EC2DF0E0E456F040DF0108954B
:103ECC00EAE0F0E00E941C220895AC2DB0E0F8CF9F
:103EDC00EAE0F0E00E942422E05D0895F0E0E13099
:103EEC00A0E0FA070895E091D706F091D806FA936E
:103EFC00EA93C9CF0E94D11CD1CFEA81FB81FA93FE
:103F0C00EA93E0E0EA930E94F218E881F981FA93CF
:103F1C00EA93E0E4EA930C94F218E981FA81FA93BB
:103F2C00EA930895E3E2F1E033CEA981BA81EE275A
:103F3C00A10FBE1F0895A02FB0E0AD5ABA4F08953F
:103F4C00ED5AFA4FE081EC930895B0E0A7FDBFEF76
:103F5C00F0E00895E02FF0E0ED5AFA4F0895E22FCB
:103F6C00F0E00895DE011896EE0FFF1FAE0FBF1F95
:103F7C000895F0E0EF70F07008950E944422EA1B5F
:103F8C00FB0B0895E0935205E1E0EA930E9463185D
:103F9C00E1E0EA930E948F0BE0915305EF700895D6
:103FAC00E0915405EF70AAE0EA02F001AE2FE09127
:103FBC005505EF70EA0F0895E2E0EA930E9463184A
:103FCC00E2E0EA930E948F0BE0915305EF700895A5
:103FDC00E3E0EA930C944618E4E0EA930E94631839
:103FEC00E4E0EA930E948F0BE0915305EF70089583
:103FFC00E4E0EA930C944618EA930E948F0BE0914C
:10400C005305EF700895E5E0EA930C944618EAE343
:10401C00F1E0BECDE2E0EA930C944618E093520531
:10402C00E3E6E093640508950E944C11F0E00895D6
:10403C000E945B1933CF0E94D11C25CFA091CB06D7
:10404C00B091CC060895E093CB06F093CC0608957E
:10405C00ED91FD913196FE93EE930895E6E3F1E038
:10406C0097CDE4EFF1E0FA93EA930C94E621A12FBB
:10407C00B0E00895E4E6F0E00E941C22E05D0895B3
:10408C00E12FF0E0E456F040DF010895E093520593
:10409C00D7CEE12FF0E008950E946318FE0132960E
:1040AC00FA93EA93CDCEAB81BC81EE27A10FBE1F54
:1040BC000C903BCFAAE0EA02F001AE2F0895E093FA
:1040CC00CD06F093CE060895E0E0E0938A001B98AD
:1040DC000895A091CD06B091CE060895E091DB062F
:1040EC00ACE0EA9FF001E058FF4FADCFE1E0F0E02B
:1040FC00E6CFEFDFE6E0F0E00E9421223097089552
:10410C00E0EDFFEFE093D106F093D2060895E0E0E6
:10411C00E093D106E093D2060895E091DB061BCD27
:10412C00ACE0B0E00E940422A0E8B0E026CF86DF2D
:10413C00AE17BF070895E0E0E0936905E9E6F5E006
:10414C00FA93EA930895EDE0F5E0FA93EA93089573
:10415C00EAEBF5E0FA93EA930C94700BE0E0E09351
:10416C000805EA930C94FF16E0911005F0E0F09727
:10417C00A1CFE0911105F0E0F097EA0FCE2ECC2004
:10418C000895EC2DF0E0ED50FA4FC0800895E091C9
:10419C001207A0911107AE170895F0E0E95FF84FF0
:1041AC000895E0911107F9CFE658FA4FA091530505
:1041BC00A0831F5F6ECFEC931F5F6BCFEC93E091EE
:1041CC000407E0300895E09308051F5F62CFA083D9
:1041DC001F5F5FCFA083E0910407E0300895E6589D
:1041EC00FA4FA0E5F4CFE658FA4FA3E5F0CFE65826
:1041FC00FA4FBF01A091CF06B091D00608950E944E
:10420C000922E05DDB01D7CFE05DDB01D4CFE658BE
:10421C00FA4FBF01A091C206B0E00895E658FA4FDC
:10422C00A7E4D5CFB0E04CCEE0E1E0935205E091AD
:10423C000A05EA930E94631800E00895A658BA4F45
:10424C00E02FF0E07DCEE658FA4FACE7A08380CDAE
:10425C00E72D7394F0E0E654FA4F0895EF70E05DAB
:10426C00EC93F6CFBB27EAE0F0E00E942422EF703B
:10427C00E05DDB01EC93ECCFE0E0E0930507E0932D
:10428C0004070895E0E1E0935205E0E0E093640553
:10429C0000E0D6CDFA93EA930C94700BE35FFA4FDF
:1042AC00A081AC370895E35FFA4FE081EC93089559
:1042BC00E0910B05EA930E9446184ACDE02F0F5F60
:1042CC00F0E0ED5AFA4FDF01E12F1F5FF0E0EBCF8A
:1042DC00E3B1EF70E3B9E3B1E12BE3B908950E94C8
:1042EC006A22EC81E093510576CD9F01E0914F0558
:1042FC00F0915005E050F040BF01E0915205F0E024
:10430C00D9010E940422E60FF71FE0934D05F093AC
:10431C004E050895E0E3EA930C942319E4E0EA9344
:10432C000C940F19EEE0EA930C940F19EFE1EA9359
:10433C000C940F19E0E0EA930E940F19EFCFAA81B9
:10434C00BB81EE27A10FBE1FEC9108950E9431197D
:10435C00E5B3EF70E5BBE5B3AE2FE881E07F0895E0
:10436C00EA2BE5BB0C945119E5B3EF70E5BBE5B353
:10437C00AE2FE881E2950895E3EFF1E009CCEA81F4
:10438C00FB81FA93EA930C94A31CE0916705EA93E2
:10439C00F6CFEE81F0E0E456F040DF010895AA81FB
:1043AC00BB81EE27A00FBE1F0895E02FF0E0AFE019
:1043BC00B0E0E3CDEC91F0E0E054F040EC930895E4
:1043CC00E991F991309639F088EE93E00197F1F785
:1043DC00A8953197C9F70895F195E195F0400895A6
:1043EC00FA9FF02DEB9FF00DEA9FE02DF10D089553
:1043FC006E2F6A9FF0016B9FF00D08952DD0F0DFAA
:10440C000EF4EADF08950024112490E1AA0FBB1FDB
:10441C00001C111C0E1A1F0A18F40E0E1F1E01C0D0
:10442C00A1609A9599F7FD01D001089515D0EBDFA5
:10443C000EF4D2DF0895E7DFFD010895E894B7FF8D
:10444C0004C0A095B09511966894F7FDC5DFDBDF2D
:10445C00FD010EF4C1DF0895E894F7FF02C0BCDF44
:10446C006894B7FF06C0A095B095119600F8039418
:10447C0000FA0895ED91FC91119708951B2EBF2F12
:10448C00F12D1A2EAE2FE12D0895E199FECFFF9359
:10449C00FFB7F894AEBBBFBBE09AEDB3FFBFFF9183
:1044AC000895E19B02C0A895FCCF9FB7F894AEBBD2
:1044BC00BFBBE09A8DB3E81719F0EDBBE29AE19A15
:1044CC009FBF08955A934A933A932A931A930A9347
:1044DC0008955D814C813B812A8119810881089561
:00000001FF
