:020000040800F2
:100000009810002055DF000849DC00084BDC000890
:100010004DDC00084FDC000851DC00080000000047
:1000200000000000000000000000000053DC000899
:1000300055DC00080000000057DC000859DC00080F
:1000400031E0000835E0000839E000083DE0000834
:1000500041E0000845E0000849E000084DE00008E4
:1000600051E0000855E0000859E000085DE0000894
:1000700061E0000867DC000871DC000889DC00082A
:1000800065E0000869E000086DE0000871E0000824
:1000900075E0000893DC000879E000087DE00008C6
:1000A0000000000081E0000885E0000889E0000809
:1000B0008DE000089DDC0008A7DC000891E0000846
:1000C00095E0000899E000089DE00008A1E0000824
:1000D000A5E00008A9E00008ADE00008B1E00008D4
:1000E000B5E00008B9E00008BDE00008B1DC000898
:1000F000C1E0000800000000C5E00008C9E00008F9
:100100000000000000000000CDE00008D1E0000881
:10011000D5E00008D9E00008DDE00008000000009C
:10012000E1E0000810B5DFF8C8090078401CDFF8EE
:10013000C0190870DFF8B8090078052809DB00202D
:10014000DFF8AC190870DFF8AC090068002801D1AD
:1001500014E0D7E1DFF89C090068401EDFF894192D
:100160000860DFF890090068002807D1DFF88809E7
:10017000007850F02000DFF880190870DFF87C0963
:1001800090F8C6020400DFF87809006800282BD038
:10019000DFF86C090068401EDFF864190860DFF8BA
:1001A00060090068002851D1DFF85809007840073D
:1001B00004D50020DFF84C19087047E0DFF8480943
:1001C0000078002842D0DFF840090078401EDFF8B0
:1001D00038190870DFF830090078002836D001207F
:1001E000DFF82819087031E0DFF81C0900780028D2
:1001F0002CD1DFF810090078002827D1DFF80C098E
:100200000078002822D1DFF80809007800281DD1E5
:100210002000DFF8E81891F8C512C0B288420DD26C
:10022000DFF8D80890F8C602401CDFF8D01881F833
:10023000C6020120DFF8D418087007E00120DFF8BB
:10024000D01808700020DFF8C4180870DFF8C40860
:100250000078401CDFF8BC1808700120DFF8B818DF
:10026000087001F0E6FEDFF8AC080078FB28C0F269
:1002700045810020DFF89C180870DFF8A00800789E
:1002800000280ED0DFF894080078401EDFF88C18A4
:100290000870DFF888080078002802D1002003F0F9
:1002A00073F9DFF87C08006800280FD0DFF87008C9
:1002B0000068401EDFF868180860DFF8640800680E
:1002C000002803D10120DFF85C180870DFF8580817
:1002D0000078002809D0DFF850080078401EDFF8C9
:1002E00048180870DFF840080078DFF84008007808
:1002F000002809D1DFF838080078002804D104214B
:10030000DFF8300804F028FADFF82C08007800281D
:100310000AD0DFF824080078401EDFF81C180870A7
:10032000002001F001FE7EE0DFF8000800780028E0
:1003300048D0DFF8540C0078002810D1DFF8FC0713
:100340000078002805D00021DFF8F407007802F0DB
:1003500087FA4FF4FA71DFF8340C04F0CBFC01207B
:10036000DFF8241C0870DFF8C4070078401EDFF8AF
:10037000BC1708700220DFF8181C08703220DFF864
:10038000141C0870DFF8100C0078002806D04FF419
:100390000061DFF8080C04F0D5F905E04FF40061C6
:1003A000DFF8F80B04F0D8F90421DFF8880704F02F
:1003B000C9F9DFF8EC0B0078002834D0042001F0F4
:1003C000B3FD30E0DFF8C00B007800282BD0002010
:1003D000DFF8B41B08700020DFF8B41B0870DFF8EA
:1003E000B80B0078002806D04FF40061DFF8AC0BA2
:1003F00004F0B2F905E04FF40061DFF8A00B04F05F
:10040000A1F9DFF8A00B007800280CD0DFF8980BDA
:100410000078002807D10920DFF8901B0870012020
:10042000DFF800170870DFF8880B007800280AD082
:10043000DFF87C0B0078401EDFF8741B087000208A
:1004400001F072FD5AE0DFF8E8060078002836D0A7
:10045000DFF8540B0078002810D1DFF8E0060078B0
:10046000002805D00121DFF84C0B007802F0F8F9E4
:100470004FF4FA71DFF8140B04F03CFC0220DFF8B3
:10048000101B08703220DFF80C1B08700120DFF809
:10049000181B0870DFF898060078401EDFF89016E9
:1004A00008700421DFF88C0604F04CF9DFF8F00A3C
:1004B0000078002822D0042001F036FD1EE0DFF88D
:1004C000E80A0078002819D00020DFF8DC1A08704C
:1004D0000020DFF8BC1A0870DFF8C80A007800288E
:1004E0000CD0DFF8A40A0078002807D10920DFF833
:1004F000BC1A08700120DFF82C1608700020DFF805
:10050000B81A087010BD70B500260A20DFF8AC1AC2
:1005100008600620DFF8A81A08700120DFF8A41A86
:100520000870002005002800DFF8981A0978C0B28A
:10053000884236D2EDB2280004F0C4FEDFF8880A03
:1005400004F008FFDFF8841A0978884227D10220D6
:100550000600002004002000DFF8641A0978C0B209
:10056000884216D2DFF8600AE4B2005D002810D09D
:10057000F6B2002E0DD0DFF8580AE4B2005DDFF8C5
:10058000481AE4B2095D884201D000200600641CCC
:10059000E1E7F6B2002E02D03000C0B25FE06D1C81
:1005A000C1E71020DFF8141A08600620DFF8101ADF
:1005B00008703220DFF80C1A0870002005002800AF
:1005C000DFF8001A0978C0B2884246D2EDB228009E
:1005D00004F078FEDFF8F00904F0BCFEDFF8EC1957
:1005E0000978884237D1012006000020040020004D
:1005F000DFF8CC190978C0B2884216D2DFF8C809F2
:10060000E4B2005D002810D0F6B2002E0DD0DFF865
:10061000C009E4B2005DDFF8B019E4B2095D8842B8
:1006200001D000200600641CE1E7F6B2002E12D0D3
:100630002800DFF8A0190978C0B2884204D201204E
:10064000DFF89419087003E00020DFF88C190870B7
:100650003000C0B203E06D1CB1E73000C0B270BD25
:1006600080B504F065F80A20DFF85019086006200C
:10067000DFF84C1908700120DFF84819087004F001
:100680004DFEDFF85819DFF8400904F07FFE002026
:1006900004F0EEFD1020DFF8241908600620DFF8D2
:1006A000201908703220DFF81C19087004F036FE9B
:1006B000E7A1DFF8140904F069FE002004F0D8FD7A
:1006C0004FF49E70DFF8F41808600220DFF8F0188D
:1006D00008700220DFF8EC18087004F01FFEDDA19E
:1006E000DFF8E40804F052FE002004F0C1FDD9A1B7
:1006F000DFF8D40804F04AFE012004F0B9FD4FF4FD
:10070000A070DFF8B81808600120DFF8B41808708E
:100710000120DFF8B018087004F000FECEA1DFF869
:10072000A80804F033FE002004F0A2FD40F24110BE
:10073000DFF8881808600320DFF8841808700120AB
:10074000DFF88018087004F0E9FDC4A1DFF878082C
:1007500004F01CFE002004F08BFD4FF4A270DFF8C3
:100760005C1808600320DFF8581808700120DFF8D3
:100770005418087004F0D2FDB9A1DFF84C0804F059
:1007800005FE002004F074FD03F0D2FF40F24F108C
:10079000DFF8281808600220DFF82418087001200C
:1007A000DFF82018087004F0B9FDAEA1DFF81808D2
:1007B00004F0ECFD002004F05BFD0121002001F0BD
:1007C000C3FA4FF4A970DFF8F41708600120DFF8CE
:1007D000F01708700120DFF8EC17087004F09EFD98
:1007E0009DA1DFF8E40704F0D1FD002004F040FDF6
:1007F00040F25B10DFF8C41708600220DFF8C01772
:1008000008700120DFF8BC17087004F087FDB3A161
:10081000DFF8B40704F0BAFD002004F029FD40F22F
:100820005310DFF8981708600220DFF8941708705B
:100830000120DFF89017087004F070FDA7A1DFF821
:10084000880704F0A3FD002004F012FD40F25510CB
:10085000DFF8681708600220DFF8641708700220CC
:10086000DFF86017087004F059FD9CA1DFF8580705
:1008700004F08CFD002004F0FBFC98A1DFF8480791
:1008800004F084FD012004F0F3FC40F25910DFF87D
:100890002C1708600120DFF8281708700120DFF806
:1008A0002417087004F03AFD6BA1DFF81C0704F070
:1008B0006DFD002004F0DCFC4FF4AD70DFF8FC1699
:1008C00008600120DFF8F81608700120DFF8F41640
:1008D000087004F023FD60A1DFF8EC0604F056FD7B
:1008E000002004F0C5FC03F023FF40F25D10DFF8A8
:1008F000CC1608600120DFF8C81608702020DFF849
:10090000C416087004F00AFD40F27D10DFF8AC1642
:1009100008600120DFF8A81608700120DFF8A4168F
:10092000087004F0FBFC6EA1DFF89C0604F02EFDBD
:10093000002004F09DFC4FF4BF70DFF880160860C3
:100940000120DFF87C1608700120DFF878160870A7
:1009500004F0E4FC40A1DFF8700604F017FD00206D
:1009600004F086FC40F27F10DFF85016086001208A
:10097000DFF84C1608700120DFF84816087004F004
:10098000CDFC35A1DFF8400604F000FD002004F0A6
:100990006FFC4FF4C070DFF8241608600120DFF808
:1009A000201608700120DFF81C16087004F0B6FC51
:1009B0004CA1DFF8140604F0E9FC002004F058FC18
:1009C00040F28110DFF8F41508600120DFF8F0151F
:1009D00008700120DFF8EC15087004F09FFC42A1BC
:1009E000DFF8E40504F0D2FC002004F041FC4FF4F1
:1009F000C170DFF8C81508600120DFF8C415087061
:100A00000120DFF8C015087004F088FC37A1DFF87A
:100A1000B80504F0BBFC002004F02AFC0020DFF83D
:100A20009C1508600A20DFF8981508700120DFF88F
:100A30009415087004F072FC0A22DFF8B01BDFF88E
:100A4000880504F0C5FC002004F012FC01BD000084
:100A500031323300303300003100000030363000D6
:100A6000303435003430000030B40200002400255A
:100A7000DFF84C0590F90000401E03005BB2002B2C
:100A80001DD4DFF844055BB2C05C10F0F0003028E4
:100A900002D052B210001FE0E4B2002C02D00A20B3
:100AA000444301E001200400DFF81C055BB2C05C98
:100AB00010F00F00E4B204FB00555B1EDEE752B2FB
:100AC000954202DA52B2100006E0C9B2A94202DA37
:100AD000C9B2080000E0280030BC70473030000088
:100AE0003000000035000000370000003400000036
:100AF0007C4A00200C4A00207D4A00204439002016
:100B0000184A00209E4A0020A54A0020A34A00203F
:100B1000A44A0020624A00206C4A00204E4A00206D
:100B2000F8490020684A0020674A0020634A0020F4
:100B3000644A002000040240654A0020794A0020EF
:100B40006D4A002010B5002403F0F2FD4FF49E70B2
:100B5000DFF8681408600220DFF8641408700020D1
:100B600004F0B0FB1E210120FFF77EFFDFF8E81B39
:100B70000870012004F0A6FB1E210120FFF774FF7E
:100B8000DFF83014087040F25310DFF830140860BA
:100B90000220DFF82C140870002004F093FB1E21C3
:100BA0000020FFF761FFDFF8B41B087040F255101A
:100BB000DFF8081408600220DFF804140870002031
:100BC00004F080FB1E210020FFF74EFFDFF8901B92
:100BD0000870012004F076FB1E210020FFF744FF7F
:100BE000DFF8801B087040F25B10DFF8D01308605C
:100BF0000220DFF8CC130870002004F063FBDFF85C
:100C0000C803007810F00100DFF88C130870DFF8DB
:100C100088030078002806D04FF40061DFF87C03D9
:100C200003F09AFD05E04FF40061DFF8700303F074
:100C300089FD03F07DFD4FF4A070DFF8801308609C
:100C40000120DFF87C130870002004F03BFB042136
:100C50000120FFF709FF401EDFF8701B087040F20B
:100C60004110D64908600320D5490870002004F0DF
:100C700029FBB4211420FFF7F7FEDFF8541B0860AE
:100C80004FF4A270CD4908600320CD4908700020C0
:100C900004F018FB63210A20FFF7E6FEDFF8341B9F
:100CA000086040F24710C54908600220C449087036
:100CB00000200400E4B2042C0FDAE4B2200004F0B7
:100CC00001FB20215FF0FF30FFF7CEFEDFF8081BAD
:100CD000E4B241F82400641CECE703F029FD40F283
:100CE0005D10B64908600120B54908702020B5495B
:100CF00008700221002000F063FF00200400E4B22D
:100D0000202C0DDAE4B2200004F0DCFA01210020EE
:100D1000FFF7AAFEDFF8C41AE4B20855641CEEE738
:100D200040F24F10A54908600220A5490870002034
:100D300004F0C8FA32210020FFF796FEA54908709A
:100D400040F251109D49086001209D490870002023
:100D500004F0B8FA06210020FFF786FEDFF8801ABB
:100D60000870DFF87C0A0078002809D0022819D022
:100D70000FD3042828D01ED3062837D02DD33EE029
:100D80000020DFF8601A08700020DFF8201B0870D0
:100D900035E00120DFF84C1A08700120DFF80C1B49
:100DA00008702CE00220DFF83C1A08700220DFF8FF
:100DB000FC1A087023E00320DFF8281A08700320CB
:100DC000DFF8E81A08701AE00420DFF8181A087033
:100DD0000420DFF8D81A087011E00120DFF8041AA7
:100DE00008700520DFF8C41A087008E00120DFF859
:100DF000F41908700620DFF8B41A0870FFE74FF402
:100E0000A9706E49086001206D490870002004F047
:100E100059FA6D48007810F001006249087040F2FC
:100E2000591066490860012065490870002004F0E7
:100E300049FA6548007810F00100594908704FF4EC
:100E4000AD705E49086001205D490870002004F023
:100E500039FA5D48007810F00100DFF8541A087084
:100E600040F27D1055490860012055490870012065
:100E7000544908700121002000F0A2FE002004F077
:100E800021FA5148007810F00100DFF8281A0870A4
:100E900040F27F104949086001204949087001204B
:100EA000484908700221002000F08AFE002004F06A
:100EB00009FA4548007810F00F00DFF8FC190870B7
:100EC0004FF4C0703D49086001203D490870012081
:100ED0003C4908700921002000F072FE002004F057
:100EE000F1F93948007810F00F00DFF8D0190870D8
:100EF00040F2811031490860012031490870012019
:100F0000304908700921002000F05AFE002004F04A
:100F1000D9F92D48007810F00F00DFF8A4190870F7
:100F20004FF4C1702549086001202549087001204F
:100F3000244908700921002000F042FE002004F03E
:100F4000C1F92148007810F00F00DFF8041B087089
:100F500001201B4908704FF4BF7018490860012038
:100F6000184908700121002000F02AFE002004F03A
:100F7000A9F91548007810F00100DFF81C1C087072
:100F8000012000F0D1FF10BD9300002070DF0008A9
:100F9000964A0020774A0020724A00200000024052
:100FA0007B4A0020754A002094000020984A0020C7
:100FB000664A00206E4A00206A4A0020E849002064
:100FC000514A0020524A002080490020504A002007
:100FD00094490020734A0020534A002008E000088A
:100FE00080B5DFF8700A0068002822D0DFF8640AB4
:100FF0000068401EDFF85C1A0860DFF8580A0068D5
:1010000000283BD1DFF8140D0078800709D4DFF801
:10101000D40A0078002804D1DFF8CC0A0068002840
:1010200003D0022002F0B0FA28E0002002F0ACFA6F
:1010300024E0DFF8E80C0078800709D4DFF8A40A80
:101040000078002804D1DFF8A00A0068002803D047
:10105000032002F099FA11E0DFF8C00C00780028B4
:101060000CD1DFF8800A0078002807D1DFF8780A71
:101070000068002802D1002002F086FADFF81C0B7D
:10108000007800072AD5DFF8140B007810F0F7007D
:10109000DFF8081B087003F04BFBDFF8500A01F083
:1010A00008F90028EAD0DFF8F40A007810F0DF0031
:1010B000DFF8E81A08700020DFF8E41A0860002062
:1010C000DFF8B81A0870DFF8240A0079042802D182
:1010D00001F038FFD2E701F03FFDCFE7DFF8BC0AAF
:1010E0000078800640F19E80DFF8900A00780028A2
:1010F00000F09080DFF8AC0A0078012801D002F0FF
:10110000CBF9DFF8780A0078401EDFF8701A087013
:10111000DFF8680A007800287CD1DFF88C0A0078B4
:10112000002802D1032000F0FFFEDFF8800A0078DB
:1011300000280ED1DFF8780A0078002809D1DFF8FE
:10114000740A0078002804D1DFF8D40B0078002856
:101150000DD0DFF85C0A0078002803D00C2004F0E2
:10116000ABFC90E10820DFF8BC1B087052E0DFF810
:10117000480A007800284DD0DFF86006DFF8A81B89
:1011800091F90010405C002803D10520DFF8941B82
:101190000870DFF8880B0078C00708D5DFF8180A58
:1011A0000078002836D0002000F08CFB32E0DFF819
:1011B0002C06DFF8741B91F90010405C00280BD05E
:1011C000DFF8E4090078002806D1DFF85C0B00782E
:1011D000C0B200F07FFA56E10520DFF8481B087026
:1011E000DFF8400B0078052803D1042004F064FCEC
:1011F00008E0DFF8300B0078082803D10B2004F05A
:101200005BFCFFE700F0F1FA4FF4FA71DFF8AC098C
:1012100003F070FDDFF88409007810F0DF00DFF8DC
:101220007C190870DFF854090078002815D1DFF820
:10123000EC0A0078002810D1DFF860090078002857
:101240000BD1DFF874090078002806D00120DFF800
:10125000DC1A0870042004F02FFCDFF8C00A0078C4
:10126000182108420CD0DFF8C80A0078002807D1FE
:101270000120DFF8BC1A08703C20DFF8EC1B086086
:10128000DFF8A80A007800280FD00020DFF89C1AA9
:101290000870DFF8880A00781921084201D000F0B0
:1012A000DBF9002000F00EFB58E0DFF8BC0B006813
:1012B000002853D0DFF8640A0078C0064ED4DFF867
:1012C0005C0A0078C00749D54FF40061DFF89C0B39
:1012D00003F042FA4FF48051DFF8900B03F03CFA30
:1012E0002021DFF8500A03F0ADFA002816D1DFF80C
:1012F000480A0068401CDFF8401A0860DFF8380A26
:101300000068B0F5FA7F0DD90020DFF82C1A0860CC
:101310000121DFF8280A03F01FFA03E00020DFF8BC
:10132000181A0860DFF8F4090078800703D5032055
:1013300002F02AF912E0DFF8080A007800280DD040
:10134000DFF82C0B0078822190FBF1F201FB1200F8
:10135000002803D10020DFF8E8190870DFF8140B2B
:101360000078012804D0DFF80C0B007802281ED189
:10137000DFF8CC090078002819D0DFF8F40A0078EB
:10138000DFF8C019097890FBF1F201FB1200002888
:101390000DD10020DFF8A8190870DFF8D80A00780E
:1013A000012804D10421DFF88C0903F0DFF9DFF80C
:1013B000D00A0068DFF8C80A006800285FD0DFF8AC
:1013C000F0040078002812D1DFF8500900780007F7
:1013D0000DD5032000F0A8FD0020DFF8A41A086056
:1013E0004FF4FA71DFF89C0A03F084FC4BE0DFF85D
:1013F000F00300780A2814D1002000F095FDDFF8F2
:10140000800A0068012803D1002000F03DF836E092
:10141000DFF86C0A0068022831D1102000F034F89F
:101420002DE0DFF8B403DFF8581A096800EB8100FB
:1014300050F8040C10F1010F04D1DFF8580A0078BD
:10144000002819D0002000F06FFDDFF8480A00786E
:10145000002805D0DFF8280A006800F015F80EE033
:10146000DFF87403DFF8181A096800EB810050F800
:10147000040C00F009F802E0032000F055FD002004
:10148000DFF8FC19086001BD38B50400DFF80C0A6C
:1014900005780020DFF8E81908600020DFF8001A5E
:1014A00008700020DFF8F4190870DFF800040078F5
:1014B000032804D0DFF8F403007804281AD1202090
:1014C00094FBF0F100FB1140002807D0202094FB92
:1014D000F0F0401CDFF8C419087005E0202094FBF0
:1014E000F0F0DFF8B8190870202094FBF0F100FB51
:1014F00011440FE0DFF8B4030078022805D1802002
:1015000094FBF0F100FB114404E0202094FBF0F187
:1015100000FB1144DFF804080078C0065FD42800FF
:10152000DFF878190978C0B2884205D1DFF8F807EA
:1015300090F90000A04220D0DFF8E0070078C00753
:101540001BD500F089F80620DFF8D81708700920AD
:10155000DFF850190870002000F0B4F90A2003F0F9
:101560001DF9DFF8C40704700120DFF84C1608707D
:1015700001F0EDFF00F03CF837E0DFF8A00700785D
:10158000800728D4DFF8A007047001F0E0FFDFF83F
:101590008C070078C00717D5DFF808090078042801
:1015A00012D000F0EDFA002803D17D2000F0CFFE2C
:1015B00002E0A82000F0CBFE0020DFF8FC15087048
:1015C000012000F07FF910E00120DFF8EC15087031
:1015D00000F00EF809E0062004F06EFA05E04FF482
:1015E000FA71DFF8A00803F085FB31BD10E00008B8
:1015F00080B57B480078002814D1DFF82C0790F9DB
:101600000000002805D0DFF8200790F9000010281E
:1016100004D10020DFF89018087003E00120DFF803
:1016200088180870A1480078032806D1502000F0DF
:101630004FFE002000F06AFF0DE09C48007804286F
:1016400006D1502000F044FE002000F0D6FF02E05A
:10165000722000F07CFE01BD80B500F091FA0028F8
:1016600002D1712000F073FE562000F031FE00F030
:1016700087FA002810D08D480078042809D1052069
:1016800001F059F8002001F09FF8662000F020FEDC
:1016900002E0712000F05BFE01BD80B58348007858
:1016A000042803D0C82003F079F802E0142003F0E6
:1016B00075F800F065FA002803D17E2000F047FE9F
:1016C00002E0762000F043FE01BD80B5762000F0F8
:1016D000ADFE01BD10B5040014F01F040020DFF8BA
:1016E000D81408700020DFF8B8170870DFF82C064F
:1016F0000078C0062ED4DFF8300690F900002100F3
:10170000C9B200B209B2884217D0FFF7A5FF062080
:10171000DFF8101608700920DFF88817087000201D
:1017200000F0D0F80A2003F039F8DFF8FC05047067
:1017300001F00DFF01F0D0F90CE0DFF8E0050078D2
:10174000800704D401F003FF01F0C6F902E006208F
:1017500004F0B2F910BD00006D4A00206F4A00206D
:10176000704A0020714A002080B50020DFF83C1745
:1017700008600A20DFF838170870002003F0A2FD87
:101780000A22DFF83817DFF8300705F097FB00284A
:1017900001D0FEF765FF01BD80B50A20DFF80C1708
:1017A00008600620DFF8081708700120DFF804172A
:1017B000087003F0B3FDDFF80817DFF8FC0603F04C
:1017C000E5FD002003F054FD01BD0000844A002027
:1017D000004A0020044A0020BC4900203049002073
:1017E000744A00209A4A00207047DFF840050078CC
:1017F00000285AD10020DFF8CC1608700020DFF84E
:10180000C81608700020DFF8C41608700020DFF842
:10181000A81308700020DFF8B81608700020DFF861
:10182000B41608700020DFF8881308700020DFF875
:101830007C1308700020DFF87C1308700020DFF8AC
:10184000E01408700020D84908700020DFF8CC149C
:1018500008700020D14908700020DFF8D414087007
:101860000020DFF8041608600020CD490860002041
:10187000DFF8B01408700020CA490870DFF8F405DA
:101880000078012803D10020DFF8E8150870DFF8A0
:1018900014060078042808D0DFF808060078092824
:1018A00003D00020DFF8FC15087070479B4A002029
:1018B000764A0020784A0020A74A0020A84A002043
:1018C000544A002038B50400E4B2002C49D0012C61
:1018D00040F0BD800020DFF84C140870012004F0B7
:1018E000EBF8DFF838040078C00700F1B080002082
:1018F00000F01AFBDFF82404007850F00100DFF854
:101900001C1408700020DFF868150870DFF8C8059F
:101910000068DFF8541508600020A7490870DFF858
:10192000FC030078400705D44FF4FA71DFF8AC05EA
:1019300003F0E0F9DFF8A8050078322810D1DFF8CD
:10194000A4050078002800F08280DFF89805007870
:10195000401CDFF894150870FA20DFF814150870A1
:1019600075E0DFF8B8030078C00702D50120050054
:1019700001E0002005000020DFF8EC140860DFF82B
:1019800068050078002803D00120DFF85C15087096
:10199000002000F061F84FF40061DFF8D00402F09D
:1019A000D1FE4FF48051DFF8C40402F0CBFE0121D8
:1019B000DFF8880302F0C6FEDFF868030078052828
:1019C00003D1042004F078F813E0D6480078082802
:1019D00003D10B2004F070F80BE0DFF8100500785D
:1019E000062806D0CD480078C00702D5022004F0B2
:1019F00063F8FFF7FAFEEDB2002D27D0DFF8A4045C
:101A00000078042818D0DFF89C040078092813D047
:101A10000020DFF890140870DFF8D404C24991F96F
:101A20000010405C012804D1BF480078C0B2FFF725
:101A300051FE0020050003E00020DFF86814087064
:101A40004FF4FA71DFF8AC0403F054F9FFE731BD4D
:101A5000554A0020104A002010B50400E4B2002CC2
:101A600035D0012C3DD1AD480078800702D400204C
:101A700000F05AFADFF87804DFF87C1491F90010CE
:101A8000405C022805D1DFF8700490F90000FFF7F0
:101A9000FBFCA248007850F00200A049087000202A
:101AA000DFF8CC130870DFF854040068DFF8B813CF
:101AB0000860062004F000F898480078400705D434
:101AC0004FF4FA71DFF8380403F014F909E0934891
:101AD000007810F0FD0091490870002001F054FDDD
:101AE000FFE710BD4D4A0020244A0020BC440020DE
:101AF00010B50400E4B22000012802D0022822D050
:101B00003BE0DFF800040078002836D12248007856
:101B1000002805D00021DFF8F003007800F0A0FED7
:101B2000DFF8E8030078DFF8E8130870DFF8D8037F
:101B30000078DFF8D0130870FA20CD49087007202C
:101B400003F0BAFF19E0DFF8CC030078002814D1C5
:101B5000DFF88C03007832280EDADFF8BC03007857
:101B6000DFF8B8130870DFF8B8030078DFF8A413C3
:101B70000870FA20BE490870FFE710BD944A0020A3
:101B8000DFF8A0030078002802D1C748007802E0FF
:101B9000DFF8900300787047794A00207D4A0020E2
:101BA0000C4A0020994A0020934A0020904A0020C5
:101BB0008F4A0020914A0020894A00207CDF0008DB
:101BC0002DE9F04F91B004000D0000275FF0000BED
:101BD0005FF000085FF0000A00200700380040B204
:101BE000B449097800B209B2884280F294807FB289
:101BF000380003F067FB002006000020804600202C
:101C00008346584640B2AA49097800B209B28842D0
:101C10002ADAA9484FFA8BFB10F80B00002823D0D2
:101C2000A5484FFA8BFB10F80B0020281CD0A248C7
:101C30004FFA8BFB10F80B00302802D176B2002E41
:101C40000FD0012006009C484FFA8BFB10F80B00C8
:101C500010F00F0069464FFA88F841F8280018F193
:101C600001081BF1010BCCE75FF0FF3081464FFA12
:101C700088F8B8F1000F01D000208146012082468B
:101C8000012083464046594640B249B2884210DBA3
:101C900068464FFA88F84FFA8BFBB8EB0B0150F807
:101CA00021000AFB00990A2000FB0AFA1BF1010B34
:101CB000E8E7A14501DAA14604E04D4501DAA9466D
:101CC00000E026E0002083460A2099FBF0F000287F
:101CD00010D00A2099FBF0F100FB119030307649CA
:101CE0004FFA8BFB01F80B001BF1010B0A2099FB4B
:101CF000F0F9E9E70A2099FBF0F100FB1190303090
:101D00006D494FFA8BFB01F80B007FB2380003F0EE
:101D1000AFFA7F1C62E711B0BDE8F08F604A002087
:101D2000924A00209D4A0020864A0020684A0020EE
:101D3000694A002000040240084A002000000240D6
:101D40006C4A0020774A002038B504000D0040F2AC
:101D50005110564908600120554908700120554925
:101D6000087003F0DBFA14F00F0050F03000524915
:101D70000870002050494870002003F079FAE4B25E
:101D8000002C19D140F24710484908600220484908
:101D9000087004204749087003F0C0FA36A146488D
:101DA00003F0F4FA002003F063FA34A1424803F090
:101DB000EDFA012003F05CFAEDB2002D53D0E4B24D
:101DC000002C28D140F247103849086002203849D9
:101DD000087004203749087003F0A0FA26A136489D
:101DE00003F0D4FA002003F043FA24A1324803F0B0
:101DF000CDFA012003F03CFA23A12F4803F0C6FAE4
:101E0000022003F035FA21A12B4803F0BFFA03208A
:101E100003F02EFA27E040F2471024490860022020
:101E20002349087004202349087003F077FA18A1A9
:101E3000214803F0ABFA002003F01AFA16A11E485D
:101E400003F0A4FA012003F013FA0FA11A4803F0DB
:101E50009DFA022003F00CFA0CA1174803F096FA41
:101E6000032003F005FA31BDF849002000080240C4
:101E7000624A0020964A00203030000031360000CF
:101E8000FC49002088DF00083033000030340000B7
:101E900030310000A64A002030320000884A00207D
:101EA000874A0020984A00207A4A0020E84900200A
:101EB000514A0020524A00208049002010E00008CA
:101EC00008E000088B4A00208C4A00208A4A002043
:101ED0008D4A00208E4A0020044A002094DF00082A
:101EE000734A00206F4A0020674A00209D4A002064
:101EF00030490020A0DF0008864A0020004A002068
:101F0000ACDF0008634A00206D4A0020704A0020C0
:101F1000654A0020644A0020714A0020664A002079
:101F20006E4A0020744A002010B504007B480078F7
:101F3000002803D17A480068002800D056E001202C
:101F400075490870002071490870002075490860C3
:101F5000032001F019FB022001F016FB7248007803
:101F6000002808D0E4B2002C05D0E4B2022C02D044
:101F7000E4B2032C3AD1E4B2002C0AD0022C08D0EF
:101F800019D3042C1BD008D3062C01D01ED32AE071
:101F90002CE019205C49087025E01E205949087082
:101FA0005848007858490870032058490870142090
:101FB0005749087017E032205349087013E0012098
:101FC00000F015F8FA20504908700CE028204D491F
:101FD000087002204C49087001204C490870FA2012
:101FE0004B490870FFE7012000F001F810BD10B563
:101FF0000400E4B2012C02D102F0C1FB01E002F0C6
:10200000C4FB10BD80B500203E49087000203E4949
:10201000087000203D49087000203D4908700020EC
:102020003C4908700020FFF7E2FF00203A490870A1
:1020300001BD80B53848007800280DD039480068C7
:10204000002809D036480068002802D1022037490C
:1020500008700120334908602E480078002812D00B
:102060002C480078401E2B4908702A480078002828
:1020700009D12448007824490870022001F084FA2C
:102080000120FFF7B4FF2048007800282ED01E481A
:102090000078401E1C4908701B48007800282FD18A
:1020A0001A480078002809D018480078401E1749BF
:1020B0000870174800781749087013E0002011498C
:1020C000087000201249087019480078C00706D42B
:1020D00013480068002802D102201449087000202B
:1020E0000D4908700020FFF782FF09E007480078DB
:1020F000002805D10020FFF77AFF0020064908706C
:1021000001BD0000484A0020494A00204A4A0020F8
:102110004B4A00204C4A00204D4A00204F4A0020E4
:10212000244A0020104A0020A74A00204E4A0020DE
:10213000604A002080B5DFF8F0090068002801D06F
:1021400002F0BAFF782002F029FB02F05FF8DFF816
:10215000DC09007810F07F00DFF8D0190870DFF894
:10216000CC0900780006FAD5012002F017FB962072
:10217000DFF8BC19086001BDDFF8B8090078022853
:1021800015D0DFF8B409407838281DD0DFF8A80949
:102190004078C0F38400DFF8A4190870DFF89809CC
:1021A000407810F00300DFF8981908700CE0DFF8B1
:1021B000880990F9010010F07F00DFF8801908709D
:1021C0000020DFF87C190870DFF86C0990F9000036
:1021D00010F00300DFF86C190870DFF85C09007874
:1021E000C0B28008DFF8601908707047DFF848094E
:1021F00090F9010010F00300DFF848190870DFF8CB
:1022000038094078C0B28008DFF83C190870DFF860
:1022100024090078022810D0DFF81C090078C0F3E8
:102220008400DFF818190870DFF80C09007810F046
:102230000300DFF80C1908700CE0DFF8FC0890F9D7
:10224000000010F07F00DFF8F41808700020DFF8BD
:10225000F0180870704730B4010000200A79E023BC
:102260001A4214D012F01F02521D00231C00150048
:10227000E4B2EDB2AC4207D2DBB2032B02D0DBB248
:10228000CC5C60405B1CF1E7C0B2C0430EE00023B1
:102290001C001500E4B2EDB2AC4207D2DBB2032B56
:1022A00002D0DBB2CC5C20185B1CF1E7C0B230BCC2
:1022B000704710B504002000FFF7CDFF01000800B3
:1022C000E278C0B2904201D1012000E0002010BDB0
:1022D00038B50400DFF85C0C05780020DFF8541CEA
:1022E0000870DFF84808007841210842F9D10D2034
:1022F000DFF8581808700420DFF850180871DFF86C
:102300004C0800788000DFF844180870DFF83C08BB
:102310000078DFF8401891F900100843DFF82C1816
:1023200008703820DFF824184870DFF8200884701F
:10233000DFF81808FFF78FFFDFF81018C870FFF7F5
:10234000F9FEFFF7F7FEDFF8EC0B057031BD38B58D
:102350000400DFF8E00B05780020DFF8D81B0870D8
:10236000DFF8C807007841210842F9D10420DFF8DE
:10237000DC1708710D20DFF8D4170870DFF8CC07E0
:1023800000788000DFF8C4170870DFF8C007007815
:10239000DFF8C01791F900100843DFF8B017087094
:1023A000DFF890070078022806D1DFF8A40700784C
:1023B000DFF89817487018E0DFF894070078DFF826
:1023C0008C174870DFF8840740788000DFF87C17AE
:1023D0004870DFF878074078DFF86417097811F063
:1023E00003010843DFF864174870DFF8600740789E
:1023F00050F08000DFF854174870DFF83807007895
:10240000042803D12C20DFF844174870DFF83C077C
:102410008470DFF83807FFF71EFFDFF83017C87049
:10242000FFF788FEDFF80C0B057031BD38B50400EE
:10243000DFF8000B05780020DFF8F81A0870DFF8E5
:10244000EC06007841210842F9D10420DFF8FC169F
:1024500008710D20DFF8F4160870DFF8F006007838
:102460008000DFF8E8160870DFF8E0060078DFF893
:10247000E41691F900100843DFF8D0160870DFF871
:10248000B8060078DFF8C4164870DFF8C00684701C
:10249000DFF8B806FFF7DFFEDFF8B016C870FFF709
:1024A00049FEDFF8900A057031BD10B5DFF8840AE7
:1024B00004780020DFF87C1A08700420DFF88C16FE
:1024C0000871DFF88C0690F90000800050F0800061
:1024D000DFF878160870DFF874060078DFF86C16FD
:1024E0004870F820DFF864168870DFF86006FFF7A0
:1024F000B2FEDFF85816C8700720DFF83C1A0870E3
:10250000FFF718FEDFF82C0A047010BD10B50400A8
:102510000120DFF8201A08700D20DFF8301608704F
:10252000DFF8280600788000DFF820160870DFF852
:102530001C060078DFF81C1691F900100843DFF83C
:102540000C160870E4B2002C01D1652000E0662072
:10255000DFF8F81548702020DFF8F0158870E4B235
:10256000002C01D1E72000E0E920DFF8E015087138
:102570000020DFF8D81548710120DFF8D0158871E8
:10258000DFF8C8054079DFF8C415C871DFF8BC056D
:102590000078DFF8B8150872DFF8A0090078DFF8D6
:1025A000AC154872DFF8A80590F90000DFF8901527
:1025B000097851EA800050F08000DFF890158872A9
:1025C0000820DFF88815C872E4B2002C07D0DFF8C5
:1025D0007C050473FF20DFF87415487303E00220C4
:1025E000DFF850190870DFF86405FFF734FEDFF8F4
:1025F0005C15C870FFF79EFD10BD38B50400DFF80C
:10260000500590F900000500002D01D120200500A3
:10261000DFF828090078401E15EB40150120DFF88F
:10262000141908700D20DFF824150870DFF81C0558
:1026300000788000DFF814150870DFF810050078C6
:10264000DFF8101591F900100843DFF80015087045
:10265000C920DFF8F81448702020DFF8F0148870E3
:10266000EF20DFF8E81408710020DFF8E01448716B
:102670000120DFF8D8148871DFF8D0044079DFF842
:10268000CC14C871DFF8C4040078DFF8C0140872F5
:102690000220DFF8B81448722020DFF8B0148872E6
:1026A0002020DFF8A814C8722020DFF8A0140873D7
:1026B0002020DFF8981448732020DFF890148873E6
:1026C0002020DFF88814C8736420B5FBF0F00028E0
:1026D00006D06420B5FBF0F03030DFF87014C8731A
:1026E0000A20B5FBF0F00A21B0FBF1F201FB120069
:1026F0003030DFF8581408740A20B5FBF0F100FB05
:1027000011503030DFF8441448740020DFF83C14D6
:1027100048710020DFF8341448710220DFF81418E3
:102720000870DFF82804FFF796FDDFF82014C87062
:10273000FFF700FD31BD10B504000120DFF8F417EC
:1027400008700D20DFF804140870DFF8000400782A
:102750008000DFF8F8130870DFF8F0030078DFF886
:10276000F41391F900100843DFF8E0130870CA2051
:10277000DFF8D81348702020DFF8D0138870E620E7
:10278000DFF8C81308710020DFF8C013487101207A
:10279000DFF8B81388710020DFF8B013C871352056
:1027A000DFF8A8130872DFF8A4034472FF20DFF8F3
:1027B0009C138872DFF89403FFF74DFDDFF88C134C
:1027C000C870FFF7B7FC10BD10B504000120DFF89A
:1027D000641708700D20DFF874130870DFF86C03BD
:1027E00000788000DFF864130870DFF86003007879
:1027F000DFF8601391F900100843DFF850130870F8
:102800000220DFF8481348702020DFF8401388705A
:10281000E220DFF8381308710020DFF83013487128
:10282000E4B2002C12D0C3480078042809D1DFF8A4
:1028300010070078400704D5B4F14000C3498871FF
:1028400006E0B4F16000C149887101E0BF488471BD
:10285000BE48FFF700FDBD49C870FFF76BFC10BD17
:1028600038B504000D000D20B8490870B74800784D
:102870008000B6490870B5480078B64991F9001053
:102880000843B2490870EDB2002D1FD1B14890F94C
:102890000000002801D10D2015E0AE4890F900009D
:1028A000012801D110200EE0AA4890F9000002286A
:1028B00001D1142007E0A74890F90000032801D1B6
:1028C000182000E00D20A14948701EE0A14890F9B1
:1028D0000000002801D10B2015E09E4890F900006F
:1028E000012801D112200EE09A4890F90000022838
:1028F00001D1162007E0974890F90000032801D184
:102900001A2000E00B209149487020208F498870E0
:10291000E3208E49087100208C49487101208B49C1
:1029200088718A48C4718948FFF795FC8749C87047
:10293000FFF700FC31BD10B505242000C0B203F044
:102940007DFF824908710D20804908707F4800781A
:1029500080007E4908707D4800787E4991F900101A
:1029600008437A49087038207849487040207749F0
:1029700088707648FFF76FFC7449C870FFF7DAFB80
:1029800010BD10B506242000C0B203F0A7FF6F49A8
:1029900008716F4890F90000800050F080006B498A
:1029A00008706A480078694948703420674988701F
:1029B00066480078654948716448FFF74CFC6349F4
:1029C000C8700520DFF870150870DFF8B00B0078CC
:1029D000002802D1FFF7AEFB2EE00020040020000B
:1029E0005A490979C0B288421BD2DFF8940B584982
:1029F00091F900101E2251430844E4B25349E4B255
:102A0000095D0155DFF8780B514991F900101E223C
:102A100051430844E4B2005D4749E4B20855641CE0
:102A2000DDE7DFF85C0B4A4991F900101E225143A3
:102A30000844E4B20021015510BD10B505244448F6
:102A400090F90000800050F08000404908703F4835
:102A500000783E49487035203C4988703B480078F2
:102A60003A49E4B20855641C384804713748FFF706
:102A7000F2FB3649C8700620DFF8BC140870DFF896
:102A8000FC0A0078002802D1FFF754FB23E0002065
:102A900004002000DFF8E81A2D4A92F900201E23D6
:102AA0005A4311440979C0B288420FD2DFF8D00AE4
:102AB000274991F900101E2251430844E4B2005DF9
:102AC000DFF8E01BE4B20855641CE2E70020DFF801
:102AD000D41BE4B2085510BD80B50820DFF85814A7
:102AE00008700120DFF89C1A08700420174908714B
:102AF000174890F90000800050F0800013490870DA
:102B0000134890F90000800050F080000F49487091
:102B100037200E4988700D48FFF79DFB0B49C870A0
:102B2000FFF708FB01BD0000244A00207D4A002079
:102B30000C4A00209B4A0020BC440020854A00200B
:102B4000874A0020834A0020954A002084450020BF
:102B5000864A0020844A002010B5DFF8480B007830
:102B6000000640F1C980FFF741FBDFF8380B007821
:102B70000400DFF8300B8078302846D0362802D0A9
:102B800042285AD0B7E0DFF8200B90F90000DFF8B8
:102B90001C1B91F90010884240F0CB81DFF8040B38
:102BA00040782100C9B2884240F0C381DFF8F40ABE
:102BB00040792100C9B2884240F0BB81DFF8F00AB9
:102BC0000078002815D0062004002000DFF8E41A61
:102BD0000979C0B288420CD2DFF8D80AE4B2005DAD
:102BE000DFF8C01AE4B2095D884240F0A281641C9B
:102BF000EBE70020DFF8C01A08700020DFF8B01AF9
:102C000008700A2002F058FF93E1DFF89C0A90F95F
:102C10000000DFF8981A91F90010884240F089818D
:102C2000DFF8980A0078002803D00020DFF88C1A1B
:102C300008700E2002F040FF7BE1DFF8680A40795F
:102C40003038DFF8601A4871DFF8580A807910F0E0
:102C50000100DFF8501A8871DFF8480A407900282F
:102C600028D04FF49E70DFF8581A08600220DFF871
:102C7000541A0870DFF82C0A40790A2190FBF1F011
:102C80003030DFF8441A0870DFF8180A40790A215A
:102C900090FBF1F201FB12003030DFF82C1A487083
:102CA0000020DFF8241A8870002002F0E1FA0220E8
:102CB000FFF73AF940F25B10DFF8041A08600220CF
:102CC000DFF8001A0870DFF8DC0980793030DFF8AF
:102CD000F81908703020DFF8F01948700020DFF88C
:102CE000E8198870002002F0C3FAFDF72BFF0220DC
:102CF000FFF71AF91DE11CE1DFF8A80900782C287C
:102D000071D1DFF8A00990F9080010F00300DFF896
:102D1000BC190870DFF8B40990F90000DFF8B019A9
:102D200091F90010884240F00481DFF8780940787A
:102D3000CB280AD101207F49087000F017FC4FF41E
:102D4000C870DFF890190860F3E0DFF858094078A0
:102D5000CA2840F0EE80012076490870DFF8440967
:102D6000407A012813D1DFF870090078C0070AD42F
:102D70005520FFF7ADFADFF8580990F90000401C24
:102D8000C0B2FFF721FD0120FEF79CFDD1E0DFF886
:102D90001409407A02280ED1DFF83C090078C007F8
:102DA00005D50320FFF7C7FC6220FFF791FA012049
:102DB000FEF752FEBDE0DFF8EC08407A042840F050
:102DC000B880DFF814090078C00708D55620FFF74F
:102DD0007FFA0020FFF7F8FC0620FFF797FB0020A2
:102DE000FEF770FDA5E0DFF8BC0800787428C0F29B
:102DF000A080DFF8B00800787C2880F29A8001205B
:102E00004E490870DFF89C08807A10F00300DFF864
:102E1000CC180870DFF88C0890F9080010F0030057
:102E2000DFF8A8180870DFF87C08807AC0F3840007
:102E3000DFF878180870DFF8980890F90000DFF8DC
:102E40008C1891F90010884213D1DFF85C0890F9D2
:102E50000000DFF8581891F90010884204D0DFF81C
:102E600078080078002804D0DFF838088078202817
:102E700000D05EE0DFF82C08407867280AD10120F6
:102E80002C49087000F072FB4FF4C870DFF844184A
:102E900008604EE0DFF80C084078662849D1DFF87A
:102EA00004084079C0B2000924490870DFF8F4072B
:102EB000007B012813D1DFF820080078C0070AD46E
:102EC0005520FFF705FADFF8080890F90000401CCC
:102ED000C0B2FFF779FC0120FEF7F4FC29E0DFF82F
:102EE000C407007B02280ED1DFF8EC070078C0078A
:102EF00005D50320FFF70AFB6220FFF7E9F901205F
:102F0000FEF7AAFD15E0DFF89C07007B042810D12E
:102F1000DFF8C4070078C00708D55620FFF7D8F9B6
:102F20000020FFF751FC0620FFF7F0FA0020FEF723
:102F3000C9FC10BD994A0020984A0020884A002008
:102F4000604A002010B5DFF85C070078000605D461
:102F5000DFF8500700782C2840F06A82FFF746F926
:102F6000DFF8400700780400DFF83807807836285B
:102F700061D0802800F0B981812800F0CB818228BF
:102F800000F01182832800F08981852800F03F81BC
:102F9000862800F0AB80872800F0E681882800F0C2
:102FA000F7808D2800F0CB81982800F01B82F02854
:102FB00054D0F92840F03B82DFF8EC0690F900008D
:102FC000DFF8E81691F90010884240F06482200092
:102FD000DFF8D0164978C0B2884240F05C82002009
:102FE000DFF8FC160870DFF89C05007800280ED08A
:102FF0000020DFF8901508700420DFF8E81608704C
:103000000120FEF75FFCF920FFF7A1F912E0DFF8DD
:10301000A8060078002804D000F0A0FAFFF70DFD04
:1030200008E0DFF88C060078002803D000F096FA5C
:10303000FFF7A7FC2FE2DFF8700690F90000DFF839
:103040006C1691F90010884240F025820020DFF8CC
:1030500034150870F920FFF77AF91CE2DFF848060A
:1030600090F90000DFF8441691F90010884213D15E
:10307000DFF85C0690F90000DFF8501691F90010B7
:10308000884209D1DFF850060078C00714D5DFF870
:103090005806007800280FD10920DFF8481608707C
:1030A0000020FEF70FFCDFF83006007850F0080033
:1030B000DFF82416087018E0DFF82C0600780128E5
:1030C00013D15020FFF704F9FEF75AFD002803D171
:1030D0007D20FFF73CF902E07020FFF738F902206D
:1030E000DFF80416087000F032FAD4E1DFF8FC05CE
:1030F0000078052800F0CF81DFF8D40590F90000B2
:10310000DFF8C81591F90010884240D1DFF8DC05DE
:103110000078062810D1DFF8D8050068DFF8881598
:103120000870DFF8840590F90000DFF8801591F948
:103130000010884206D0AEE1DFF870050078DFF8B5
:1031400068150870FEF7A9FADFF88C05007850F0D2
:103150000400DFF8841508705720FFF7B9F8DFF88E
:103160008C05007804280AD1DFF8640590F9000086
:10317000401CC0B2FFF728FB5720FFF7A9F8DFF883
:1031800074050078000602D50120FEF79BFB82E162
:10319000DFF858050078052800F07D81DFF830055C
:1031A00090F90000DFF8241591F9001088422DD124
:1031B000DFF838050078062810D1DFF834050068FC
:1031C000DFF8E4140870DFF8E00490F90000DFF89D
:1031D000DC1491F90010884206D05CE1DFF8CC04E1
:1031E0000078DFF8C4140870FEF757FADFF804051A
:1031F000007800060AD55720FFF76AF8DFF8F404D4
:103200000078000602D50120FEF75CFB43E1DFF801
:10321000DC040078052800F03E81DFF8B40490F962
:103220000000DFF8A81491F90010884235D1DFF8CA
:10323000BC040078062810D1DFF8B4040068DFF879
:1032400068140870DFF8600490F90000DFF85C147F
:1032500091F90010884206D01DE1DFF85004007893
:10326000DFF844140870FEF718FADFF86C040078F1
:1032700050F00400DFF860140870DFF87004007884
:1032800004280AD1DFF8480490F90000401CC0B2BD
:10329000FFF79AFA5720FFF71BF8FCE0DFF8080465
:1032A00090F90000DFF8041491F90010884240F012
:1032B000F280DFF834040078022815D10020DFF80E
:1032C00028140870FEF75CFC002802D17B20FFF771
:1032D0003EF8DFF804040078C00702D45520FEF75A
:1032E000F7FF0120FEF7EEFAD5E0DFF8EC030078F7
:1032F000C0070ED5FEF7D1F9FEF742FC002802D137
:103300007C20FFF724F86220FEF7E2FF0120FEF7A1
:10331000A3FBC0E0DFF8B80390F90000DFF8AC13BE
:1033200091F90010884209D1DFF8AC030078C0079A
:1033300004D5FEF7B2F90120FEF7DAFBABE0DFF8C7
:10334000900390F90000DFF8841391F9001088428F
:1033500009D1DFF884030078C00704D5FEF79DF992
:103360000220FEF7C5FB96E00920DFF8781308700D
:103370000020FEF7A7FADFF8580390F90000DFF805
:103380004C1391F9001088420CD1FEF786F95820B1
:10339000FEF79EFFDFF854030078042802D10020D6
:1033A000FFF712FA77E00920DFF8381308700020E1
:1033B000FEF788FADFF8180390F90000DFF80C1325
:1033C00091F9001088420CD1FEF767F95620FEF7FC
:1033D0007FFFDFF818030078042802D10020FFF7F0
:1033E000F3F958E0DFF80403007805281ED140F215
:1033F0004710B34908600220B2490870002001F06C
:1034000061FFBB480068A8490870A74890F9000010
:10341000A64991F90010884208D1B74800780F28D2
:1034200004D1A14890F90000FEF72EF833E032E015
:10343000FEF7A2FE9B48807871281AD07E2802D021
:1034400085281DD027E0A4480078000706D4A248AC
:10345000007850F00800A049087009E09E48007804
:10346000C00605D49C48007850F010009A490870B6
:1034700011E009209B4908700020FEF723FA0AE0BA
:10348000934800788749497811F00301884201D1B7
:10349000FEF71BF9FFE710BD80B5934800780028C0
:1034A00028D08D480078C0070ED5FEF769FB0028AC
:1034B00003D17D20FEF74BFF02E0A820FEF747FF77
:1034C00002208949087041E00120874908708B4833
:1034D0000078002803D17220FEF739FF36E08748D4
:1034E0000078022832D10520FFF710F80120844926
:1034F00008702BE07C480078022803D17D20FEF77D
:1035000026FF23E01F480078002802D0FFF7E4FAE6
:103510001CE073480078002807D16748007800282D
:1035200003D163480078002802D0FEF7BEFF0DE00B
:1035300062480078002809D07320FEF708FF4FF496
:10354000167001F02BF97420FEF701FF01BD032076
:103550006B49087096205F490860704703206849EE
:1035600008704FF4C8705B490860704701206449D7
:10357000087096205749086070470000824A002072
:10358000983000208F4A002010B50400E4B2002CCF
:103590003ED0022C6CD05FD3042C6FD07DD2594822
:1035A000007803281CD05748047057480078012839
:1035B0000CD056480068002808D1FA205449086009
:1035C0004FF40041534801F0C7F809E04FF40041BF
:1035D000504801F0B7F84FF480614F4801F0BCF853
:1035E0004B480068002858D13B480078800709D52F
:1035F00010214A4801F0B0F849480078002801D16C
:1036000003F090FC4FF48061434801F0A5F844E0DA
:103610001021424801F096F803F0E4FC3C480068B1
:1036200000283AD14FF480613B4801F08BF83748CD
:103630000068002804D14FF40041364801F08CF8AE
:1036400032480068002806D12E4804704FF480618B
:10365000314801F077F820E0FA202D490860294828
:103660000078032801D12948006803F0BBFC14E06E
:103670004FF40041274801F065F80EE04FF48061F7
:10368000254801F069F827480078002804D14FF454
:103690000041204801F056F8FFE7012001F07EF8D4
:1036A00010BD0000BC440020864A0020854A00204E
:1036B000924A0020E8450020914A0020934A0020C9
:1036C000E8490020514A002080490020834A002018
:1036D000844A00200C4A0020604A0020874A0020CB
:1036E000904A0020984A0020894A00209B4A0020E6
:1036F000BC4900207D4A0020954A0020994A0020BC
:10370000944A0020974A0020504A0020244A002072
:10371000104A00200000024000080240000402405D
:10372000564A00207E4A002070B50024002500265D
:103730000020DFF8741B087003F07EFC00F088F9AD
:1037400000F098FC00F06DFC00F0C2F900F017FAF0
:1037500000F06AFA00F0D2FA00F099FB00F04EFB9C
:1037600000F0FFFB00F023FA00F0D8F900F02DFC88
:1037700000224FF40051DFF8340B03F05AFD002013
:10378000DFF82C1B08600420FFF7FEFE03F0ACFB03
:10379000002800D0FEE70020DFF8141D087010217B
:1037A000DFF8100B03F039FD002801D0012000E004
:1037B0000020DFF8FC1C097851EA8000DFF8F01CDB
:1037C00008704FF48041DFF8EC0A03F026FD002872
:1037D00001D0012000E00020DFF8D41C097851EA74
:1037E0008010DFF8CC1C08700221DFF8C80A03F053
:1037F00014FD002801D0012000E00020DFF8B01CFB
:10380000097851EAC010DFF8A81C0870FDF7ECFF3A
:10381000FDF7AAFF62B6FDF795F90222DFF8981AC4
:10382000DFF8900C03F006FE0121DFF88C0C04F0A9
:10383000A0F8B9A0DFF8841A0860B7A0DFF8801AF2
:103840000860DFF8800A0078022840DA1021DFF8EB
:10385000640A00F0F7FF002811D04FF48041DFF830
:10386000540A00F0EFFF002809D0ADB2C82D01DAEC
:103870006D1C2CE0002004000020060027E0E4B2CC
:10388000002C24D1B6B2B6F5FA6F01DA761C1EE030
:103890000120040000200500DFF8280A0078401C01
:1038A000DFF8201A0870DFF81C0A0078022806DA10
:1038B0000020FEF739FB0020FEF736FB07E0002072
:1038C000FEF732FB0320FEF72FFBFDF765FFDFF865
:1038D000EC0B04F0FEFBDFF8E80B0068002803D0D7
:1038E0000320DFF8E0190870FDF77AFB0120DFF80C
:1038F000D41B0870DFF8CC09007801280BD0DFF862
:10390000C4090078022806D0DFF8BC0B0068002844
:1039100001D104F0E5FB0020DFF8A81B087001F0DE
:103920008DFDDFF8A80B0088002843D0DFF8A00B3E
:10393000007800283ED1DFF878090068002839D1E6
:10394000DFF8840B0068002834D1DFF8800B008892
:10395000401EDFF8781B0880DFF8700B0088002815
:1039600028D1DFF85809006801F0EEF9DFF85009B6
:1039700000680078002819D0DFF844090068DFF8F3
:103980003C19086064A0DFF838190860DFF8440BC0
:10399000008800280ED0DFF83C0B0088DFF82C1BD5
:1039A00008800020DFF82C1B088003E05AA0DFF815
:1039B0000C1908600120DFF8201B0870DFF8180BD5
:1039C0000078002802D001F01DFBF7E7DFF8F408CB
:1039D000007801280BD0DFF8EC080078022806D028
:1039E000DFF8E40A0068002801D100F0E7FEFCF7E8
:1039F00099FBDFF8D008007802287FF422AF10216D
:103A0000DFF8B00803F009FC00283FF41AAF4FF4C8
:103A10008041DFF8A00803F000FC00283FF411AF5C
:103A2000DFF8A0080078401CDFF898180870DFF86D
:103A3000800A007850F00400DFF8741A0870DFF88C
:103A4000700A007850F04000DFF8641A0870F8E659
:103A500000B593B005A8342105F028FE684614216E
:103A600005F024FEDFF8C00D006830F4C05050F4BB
:103A70000060DFF8B41D0860092005900120069061
:103A800001200A9002200E905FF480300F905FF4C6
:103A9000801010905FF40000119005A805F00AFE58
:103AA000002801D000F0CEFF0F20009003200190ED
:103AB000002002900020039000200490012168461D
:103AC00006F0CFF8002801D000F0BCFF13B000BD15
:103AD00000B583B0DFF8040AD0E90023CDE9002364
:103AE000DFF8FC09DFF8441D0860DFF8400D06F040
:103AF0007FFA002801D000F0A5FF042000900020EC
:103B0000019010226946DFF8240D06F094FB00288E
:103B100001D000F097FF07BD0000000080B5DFF87E
:103B20001C0CDFF80C1D0860DFF8140CDFF8001D1A
:103B300048600020DFF8F81C88600020DFF8F01CE7
:103B4000C8604FF48040DFF8E81C08610020DFF80F
:103B5000E01C48610020DFF8D81C88610020DFF8F5
:103B6000D01CC8610020DFF8C81C0862DFF8C00C58
:103B700006F0B4FB002801D000F064FF01BD80B561
:103B8000DFF8140CDFF8341908600620DFF82C1970
:103B900048604FF49070DFF824198860DFF81C0942
:103BA00004F06FFA002801D000F04CFF01BD80B591
:103BB000DFF8040CDFF87C1C08604FF48270DFF83B
:103BC000741C48600020DFF86C1C88600020DFF85F
:103BD000641CC8600020DFF85C1C08610020DFF86E
:103BE000541C48614FF40070DFF8481C88610020C5
:103BF000DFF8401CC8610020DFF8381C0862002094
:103C0000DFF8301C48620020DFF8281C88620A2098
:103C1000DFF8201CC862DFF81C0C06F07FFE0028CD
:103C200001D000F00FFF01BD00B58BB006A8102138
:103C300005F03CFDDFF8000CD0E90023CDE90023BE
:103C400002A8102105F032FD5FF08040DFF8301D42
:103C500008601F20DFF8281D48600020DFF8201DC5
:103C600088600520DFF8181DC8600020DFF8101DEF
:103C700008610020DFF8081D4861DFF8040D03F03B
:103C8000A1FD002801D000F0DDFE4FF48050069029
:103C900006A9DFF8EC0C03F0E7FF002801D000F0E4
:103CA000D1FEDFF8DC0C03F0FFFD002801D000F0AE
:103CB000C9FE00200090002001906946DFF8C00C8A
:103CC00007F09CF9002801D000F0BCFE30200290E3
:103CD000002003900220049000200590082202A9F1
:103CE000DFF89C0C03F01FFF002801D000F0AAFEB3
:103CF000DFF88C0C07F0B0FB0BB000BD00B58BB04B
:103D000006A8102105F0D2FCDFF8300BD0E9002323
:103D1000CDE9002302A8102105F0C8FCDFF8200B34
:103D2000DFF8941708601F20DFF88C174860002028
:103D3000DFF88417886041F28730DFF87C17C860AD
:103D40000020DFF8741708610020DFF86C17486165
:103D5000DFF8640703F036FD002801D000F072FEA2
:103D60004FF48050069006A9DFF84C0703F07CFF63
:103D7000002801D000F066FEDFF83C0703F0DDFD0F
:103D8000002801D000F05EFE00200090002001908D
:103D90006946DFF8240707F031F9002801D000F068
:103DA00051FE022002900120039000200490082080
:103DB0000590002202A9DFF8000703F0EAFE0028C0
:103DC00001D000F03FFE0020DFF8B81B0880002083
:103DD000DFF8B41B0860DFF8B40B006850F0200077
:103DE000DFF8A81B08600021DFF8CC0603F0C1FD56
:103DF000002801D000F026FE0BB000BD00B587B052
:103E000002A8102105F052FCDFF8840BD0E9002352
:103E1000CDE90023DFF87C0BDFF87C1B08601F2056
:103E2000DFF8741B48600020DFF86C1B88604FF4DB
:103E30001670DFF8641BC8600020DFF85C1B0861A7
:103E40000020DFF8541B4861DFF84C0B03F0BAFC8C
:103E5000002801D000F0F6FD4FF48050029002A936
:103E6000DFF8340B03F000FF002801D000F0EAFD7A
:103E700000200090002001906946DFF81C0B07F03D
:103E8000BDF8002801D000F0DDFD07B000BD00B591
:103E90008BB006A8102105F009FCDFF8000BD0E973
:103EA0000023CDE9002302A8102105F0FFFBDFF875
:103EB000F00ADFF8F01A08601F20DFF8E81A4860FF
:103EC0000020DFF8E01A8860F920DFF8D81AC8600F
:103ED0000020DFF8D01A08610020DFF8C81A486116
:103EE000DFF8C00A03F06EFC002801D000F0AAFD44
:103EF0004FF48050069006A9DFF8A80A03F0B4FE3C
:103F0000002801D000F09EFDDFF8980A03F0CCFCF9
:103F1000002801D000F096FD0020009000200190C4
:103F20006946DFF8800A07F069F8002801D000F040
:103F300089FD302002900020039002200490002090
:103F400005900C2202A9DFF85C0A03F0ECFD0028C2
:103F500001D000F077FDDFF84C0A07F07DFA0BB0D6
:103F600000BD00B583B0DFF8400AD0E90023CDE9F9
:103F70000023DFF8380ADFF8381A08600020DFF87D
:103F8000301A48600020DFF8281A886040F6543064
:103F9000DFF81C1AC8600020DFF8141A4861DFF847
:103FA000100A03F00FFC002801D000F04BFD202088
:103FB0000090002001906946DFF8F40907F01EF830
:103FC000002801D000F03EFD07BD80B5DFF8E40910
:103FD000DFF8E01408604FF41650DFF8D81448609A
:103FE0000020DFF8D01488600020DFF8C814C86013
:103FF0000020DFF8C01408610C20DFF8B814486115
:104000000020DFF8B01488610020DFF8A814C86130
:10401000DFF8A00403F038F9002801D000F012FD09
:1040200001BD80B5DFF89009006850F08070DFF8BE
:1040300088190860DFF88009006810F0807000902F
:104040000098002200210D2007F017FB0D2007F03B
:1040500027FB002200210E2007F00FFB0E2007F0A7
:104060001FFB002200210F2007F007FB0F2007F0A5
:1040700017FB01BD00B587B001A8142105F016FBA0
:10408000DFF83409006850F00400DFF82C190860EC
:10409000DFF82409006810F0040000900098DFF8B1
:1040A0001809006850F02000DFF80C190860DFF8EC
:1040B0000809006810F0200000900098DFF8F80868
:1040C000006850F00100DFF8F0180860DFF8E80839
:1040D000006810F0010000900098DFF8DC0800682C
:1040E00050F00200DFF8D0180860DFF8CC08006854
:1040F00010F002000090009800224FF470516D48BB
:1041000003F097F8012240F201216A4803F091F888
:10411000002248F60101DFF8A40803F08AF8012222
:1041200040F20271DFF8940803F083F800221121B5
:104130005E4803F07EF8012241F204015B4803F07F
:1041400078F843F60140019001200290002003908E
:104150000020049001A9574802F080FF4CF2DE10C5
:104160000190002002900120039001A9514802F023
:1041700075FF48F603000190012002900020039093
:104180000020049001A9DFF8340802F067FF102036
:104190000190002002900120039001A9DFF81C0883
:1041A00002F05CFF41F21500019001200290002016
:1041B00003900020049001A93C4802F04FFF222008
:1041C0000190002002900120039001A9374802F0DD
:1041D00045FF4FF4007001901120029000200390E1
:1041E0000020049001A9334802F038FF4FF4E0604A
:1041F000019011200290002003900020049001A95A
:10420000DFF8B80702F02AFF07B000BD80B5002034
:10421000DFF8AC1708800020DFF8A817087000202E
:10422000DFF8A4170870DFF8A4070079DFF8A017FB
:104230000880DFF89C070078E02108420FD0DFF803
:10424000900700884FF61F710840DFF88417088038
:10425000DFF87C070088401DDFF874170880012014
:10426000DFF870170870DFF870070078002804D0B6
:104270007820DFF86817086004E04FF41670DFF864
:104280005C1708600020DFF8581708607FF0010015
:10429000DFF850170860DFF8000703F0DAFA0120B2
:1042A000DFF84417087001BD5E4A00200004024098
:1042B000104A002000080240453900201C4A002016
:1042C000204A00205F4A002038B50400DFF8F006DD
:1042D0000088DFF8F81680B20D5C2068DFF8B416AD
:1042E000884240F08780DFF8EC060078002807D08D
:1042F00000220121DFF8F40602F09BFF8020050078
:104300008020DFF8C01691F9001008412900C9B2D9
:10431000014210D0DFF8B0060078012805D008214E
:10432000DFF85C0603F0F3FA15E00821DFF8500629
:1043300003F0D6FA0FE0DFF890060078022805D1E6
:104340000821DFF83C0603F0E2FA04E00821DFF878
:10435000300603F0C5FADFF870060078401CDFF87D
:1043600068160870C0B2032840F0A1800020DFF872
:1043700058160870DFF85C060078002835D1DFF8A1
:1043800044060078401CDFF83C160870C0B20828CC
:1043900040F08D800020DFF82C160870DFF8200632
:1043A0000088401CDFF818160880DFF824160988FA
:1043B00080B288427BD3DFF818060088DFF8001649
:1043C000088001220121DFF8240602F032FF0821D3
:1043D000DFF8AC0503F09BFADFF8BC0503F04FFAF9
:1043E0000220DFF80416087061E00020DFF8E41511
:1043F00008705CE02068DFF84814884257D100203C
:10440000DFF8EC150870FA20DFF8E815086020687E
:10441000C068400840002168C8602068006A50F009
:10442000020021680862DFF8C005007800281DD06E
:10443000DFF8B4050078022817D10020DFF8B8159E
:1044400008700020DFF8B41508700020DFF8B01500
:1044500008700020DFF890150870DFF8A8050078D4
:1044600050F08000DFF89C15087020E0DFF8880528
:10447000007800281BD1DFF8840590F9000003289C
:1044800015DB0020DFF878150870DFF8700590F96B
:104490000000042803D10420DFF86C150871DFF850
:1044A0006405007850F00800DFF85815087031BD39
:1044B0009C4A0020C447002040480020CC490020EE
:1044C000FC4900205D4A0020244A0020444A002084
:1044D0004D4A0020464A00206A4A0020D8DF0008E2
:1044E00000740040F8B504002068456BDFF80C0547
:1044F0000678DFF8180507782068006930F4007046
:1045000021680861DFF808050068002805D14FF42C
:104510000041DFF8A80400F01FF94021DFF89C04F7
:1045200002F07BFE002800F0D780ADB23C2D05DB09
:104530002068006940F20121084217D0DFF8BC046E
:1045400090F90000042880F2B7800020DFF8B01452
:1045500008700020DFF8A41408700020DFF8981419
:1045600008700020DFF8A0140870A5E0DFF89004C0
:104570000078002806D10120DFF88414087002F0CA
:1045800031FD99E0DFF88C040068FF280BD2DFF8DA
:1045900084040068411CDFF87C241160ADB2DFF8B0
:1045A000781441F82050DFF8540400780600ADB2CA
:1045B000C82D0ADADFF85004F6B2805D50F0010031
:1045C000DFF84414F6B288551AE0ADB2B5F5C87FED
:1045D00016DBADB2B5F5487F0ADADFF82C04F6B287
:1045E000805D50F00100DFF82014F6B2885507E036
:1045F000ADB2B5F5C86F03DB0020DFF80414087016
:10460000DFF80404F6B2805DDFF81014FFB2C8557D
:10461000DFF8EC03007800283ED0DFF8DC030078F8
:10462000401CDFF8D4130870DFF8CC0300780828AA
:1046300024DBDFF8C8030078401CDFF8C0130870E3
:10464000DFF8C8030078642807DADFF8C0030078D1
:10465000401CDFF8B813087003E00020DFF8AC134B
:1046600008700020DFF8901308700020DFF898131E
:10467000DFF8882392F9002088541DE0DFF87C03DE
:1046800000780600DFF88003F6B2805D4000DFF8B6
:104690007813F6B288550FE00020DFF85C1308703D
:1046A0000020DFF8581308700020DFF85C13087052
:1046B0000420DFF8541308712068006A50F00200EB
:1046C000216808622068C06850F001002168C86055
:1046D0000020AC4908802AE0002021684862206858
:1046E0000069C00713D57FF00100216808617FF0E1
:1046F0000100CB4908600020C14908700020BE4974
:1047000008700020BD4908700020BF49087020686B
:10471000406B9C4908802068006A30F002002168E4
:1047200008622068C068400840002168C860F1BD88
:1047300080B5BC4803F0CDFC01BD00000054004032
:10474000A086010038B504000D000022290089B2BE
:10475000200002F06EFD31BD38B504000D000122CD
:10476000290089B2200002F064FD31BD38B5040093
:104770000D00290089B2200002F065FD31BD80B531
:104780000C21884803F0ACF801BD80B50C218548A8
:1047900003F0BDF801BD0000003000409C490968ED
:1047A000002908D1401E80B2002804D09E49096823
:1047B000C903F7D4FAE770470038004080B59B483A
:1047C0000078002805D1032300220421984800F036
:1047D00042F8012302221021954800F03CF893484A
:1047E000007800281FD0012303224FF480719048E5
:1047F00000F031F80123042280218D4800F02BF8CD
:104800000123052240218A4800F025F801230622D1
:104810004FF48041864800F01EF801230722022150
:10482000834800F018F801BD00700040A84900203E
:10483000A44600204C460020E0DF0008E8DF000826
:104840000004004038B504000D00290089B22000A2
:1048500002F0E3FC32BDF8B504000D0016001F00A5
:10486000290089B22000FFF7EDFF00283CD17148F4
:1048700000780121B140084236D06F48F6B2805D21
:10488000411C6D4AF6B29155C0B2042802DAFFB25B
:10489000022F74D100206849F6B288556548007827
:1048A0000121B140884363490870F6B2002E09D057
:1048B000022E12D00AD3042E10D00FD3062E11D000
:1048C0000CD310E00120FDF713F958E0012101207D
:1048D000FDF73AFAFCF736F951E050E0012057496C
:1048E00008704CE04BE04AE0290089B22000FFF755
:1048F000A9FF00283FD04F4800780121B14008426D
:1049000039D14D48F6B2805D411C4B4AF6B2915503
:10491000C0B2042802DAFFB2012F30D1002046498C
:10492000F6B28855434800780121B1400843414917
:104930000870F6B23000002808D0012807D00228FD
:104940000CD006280ED0072810D013E017E0012164
:104950000020FDF7F9F9FCF7F5F810E001203849DF
:1049600008600CE001203649086008E00220344964
:10497000086004E003E000202F49F6B28855F1BD3D
:10498000044800203E4A0020240400402004004047
:10499000F0DF0008000800407C480020F8DF000835
:1049A000000C0040B848002000E000080010004063
:1049B000F4480020004800401C380240000002403B
:1049C000424A00205A4A00205B4A002084450020C9
:1049D000404A002092000020994A00202C08004004
:1049E00024080040100800405C4A002000040240F7
:1049F0007E4A0020104A0020804A00207F4A002082
:104A0000594A00207D4A0020BC440020814A0020F1
:104A1000244A0020F4490020483500202045002089
:104A200010040040CC49002010E000E05D4A002066
:104A3000000802409C4A0020D8490020614A00201A
:104A4000FC490020704700002DE9F04104000D00F2
:104A5000287806F043FE0600002E01D120001AE05F
:104A60002078002816D0207806F038FEB0420FD10A
:104A700000277F1CE85D002801D120000BE0E05DED
:104A800006F02CFE8046E85D06F028FE8045F0D05A
:104A9000641CE5E70020BDE8F081F8B504000025BE
:104AA00000262700012304220021380000F040FBEB
:104AB0000500DFF8F006854201D0012019E100234E
:104AC00004220421380000F033FBDFF8DC16086014
:104AD000012304220821380000F02AFB0500DFF83A
:104AE000CC06854201D0022003E1012304220C21DF
:104AF000380000F01DFB0500DFF8B406854201D048
:104B00000320F6E0002304221021380000F010FBFF
:104B10000500102D01D001200600002302221421DF
:104B2000380000F005FBDFF880168880DFF8780693
:104B30008088012801D00420DBE000230222162116
:104B4000380000F0F5FADFF86016C8800023042270
:104B50001821380000F0ECFADFF84C168860DFF816
:104B600048068068B0F5FA5F12D042F611318842EB
:104B70001AD0B0F57A5F11D045F22261884219D07F
:104B8000B0F5FA4F1CD04AF6444188421ED023E0CB
:104B900041F27070DFF81C1608801FE040F6B83054
:104BA000DFF81016088019E041F20110DFF8041652
:104BB000088013E04FF40860DFF8F81508800DE076
:104BC00040F2DC50DFF8EC15088007E04FF4886015
:104BD000DFF8E015088001E006208AE0DFF8D8055C
:104BE000DFF8C4158968B0FBF1F0DFF8C81508805C
:104BF000002304221C21380000F09AFADFF8A815DF
:104C0000C860002302222021380000F091FADFF86A
:104C100098150882002302222221380000F088FA29
:104C2000DFF884154882DFF88005408A102801D01B
:104C300007205EE02420DFF884150860012E27D1CC
:104C4000002302222421380000F072FA0500002D12
:104C500001D009204DE0012304222621380000F074
:104C600067FA0500DFF85805854201D00A2040E0C8
:104C7000002304222A21380000F05AFA0500DFF848
:104C80003C05006815F10A010818DFF830150860C6
:104C900001230422DFF824050168C9B2380000F0BE
:104CA00047FA0500DFF814050068001DDFF80C1551
:104CB0000860DFF81005854201D0082019E00023C4
:104CC0000422DFF8F8040168C9B2380000F030FAB5
:104CD000DFF8D4144861DFF8E4040068001DDFF851
:104CE000DC140860DFF8D4040068DFF8DC14086026
:104CF0000020F2BDDFF8D42412681278002A0ED109
:104D000010A2DFF8CC341A600022DFF8C8341A8011
:104D1000DFF8B8241060DFF8C024118011E0DFF85C
:104D2000AC2412681278002A0BD0DFF8A424126891
:104D30001278002A05D1DFF898241060DFF8942457
:104D40001180704700000000F0B58BB00400DFF860
:104D50008C040078002801D100204EE1DFF88004A7
:104D60000068002801D0002047E1FDF74BF9012041
:104D7000DFF8701408700122A1A1DFF86C0407F0BD
:104D8000A3FD0500EDB2002D16D1DFF8601402A8D6
:104D900000F0FCFA012202A9DFF8540407F0D4FD68
:104DA0000500DFF850344FF40072DFF84C14DFF8E0
:104DB000400407F0AFFE0500DFF8401402A800F041
:104DC000E5FADFF818040078032803DB0220DFF897
:104DD0000C140870DFF8040400782F308DF80400FC
:104DE0005F208DF8050000208DF8060000274FF4A5
:104DF000FA723021DFF80004BB0800EB830008F0F2
:104E0000DDF80600002E19D1DFF8E8030068B0F5E0
:104E1000007F01D20020F0E0DFF8D8334FF40072B9
:104E2000DFF8D413DFF8C80307F074FE0500C0B242
:104E3000002801D00020E0E000200700300000F052
:104E400089FAC019070021003000FFF7FDFD002896
:104E500014D001A93000FFF7F7FD00280ED0310073
:104E600002A800F093FA012202A9DFF8840307F0F8
:104E70006BFD0500C0B2002801D102E0B7E70020B9
:104E8000BBE0DFF870334FF40072DFF86C13DFF82B
:104E9000600307F03FFE0500C0B2002801D00020EB
:104EA000ABE0DFF85403FFF7F8FDDFF838130870C4
:104EB000DFF84C0303F00DF9DFF828030078002831
:104EC00015D1B9484069DFF83C130860B94800883B
:104ED000DFF834130968C862BB480168DFF81003C3
:104EE00007F099FF0500C0B2002802D103E00020BE
:104EF00083E0002081E0BF4B4FF48072BE49BC4884
:104F000007F008FE0500C0B2002801D0002074E0C0
:104F10004021B94800F026F90120BC490860B54B92
:104F20004FF48072BA49B24807F0F4FD0500C0B2F0
:104F3000002801D0002060E04021B54800F012F9BF
:104F4000B4480068006830F00E00B2490968086093
:104F50000020AD4909688862AF48AE490968886099
:104F6000A548AC490968C8604FF48070A949096830
:104F70004860A8480068006850F02000A54909680A
:104F80000860A4480068006850F01000A149096852
:104F90000860A0480068006850F001009D49096859
:104FA00008609E480068006850F080509B4909687E
:104FB00008609A480068006850F480309749096892
:104FC0000860974800684008400095490860012043
:104FD0008349086000208D490860042000904FF448
:104FE0008073854A10218D4805F018F8864802F034
:104FF00005FC0620FCF798FF01200BB0F0BD000077
:105000000000000010B587480068022839D07F48AA
:10501000006800284FD07D480068022816D1002083
:105020007A49086073480068FF282AD9714B4FF409
:10503000807277496E4807F06DFD0400C0B2002809
:105040001FD14021724800F08DF819E06F480068C8
:10505000012815D100206D49086066480068FF28C6
:105060000FD9644B4FF480726349614807F052FDD9
:105070000400C0B2002804D140215F4800F072F85B
:1050800019E0614802F0D0FB1021644805F062F895
:10509000574807F0ABFE64480078800703D402202D
:1050A0006249087001E001F03DFF0020604908708E
:1050B00000204B49086010BD80B5534802F0B4FB96
:1050C0001021564805F046F8494807F08FFE56482B
:1050D0000078800703D402205449087001E001F0F1
:1050E00021FF00205249087000203D49086001BDA1
:1050F0004C490968002903D00221444A116002E0AA
:105100000221484A1160704746490968002903D0C6
:1051100001213E4A116002E00221424A11607047BB
:105120000121404A1160704702213E4A11607047D8
:10513000F0B404000025002000263500D2B29542CC
:1051400009D2C9B26E18A65D2F00FFB2FF00BE40A3
:1051500030436D1CF2E7DBB2012B01D106BA3000FF
:10516000F0BC704770B402000023324C2478C4F3C2
:105170004204D4F1040400252B008B4210D21568A0
:1051800095F0802515601588ADB2E5401580951C19
:105190002D88ADB2E540961C3580121D5B1CECE7F6
:1051A00070BC7047464649526849002045564157F1
:1051B00020746D66900000200048E801304A00200D
:1051C00074636166617461642C4A00201C4A00208B
:1051D000204A0020464A0020444A0020A74A0020D6
:1051E000244A002095000020643E002020DF0008B3
:1051F00094400020344A0020BC42002028E00008EF
:10520000CC490020284A0020F44800201800002043
:10521000BC430020F846002018740040A849002034
:1052200010100040384A0020604A00204E4A0020FA
:105230004D4A0020A84A0020F8B504000D000026C1
:105240003F48071907F0E6FE0600EDB22A003900D4
:10525000002007F0FCFE060007F0EFFE0600F1BD9F
:1052600001000020364A521813781800C0B2704767
:1052700038B504000020050032480078854210DA75
:105280003148405D00280CD02F48415D2F48006810
:105290002C4A127802FB04002818FFF7CDFF6D1C82
:1052A000EAE72848007885420BDA002127480068A1
:1052B000244A127802FB04002818FFF7BDFF6D1C7A
:1052C000EFE731BD38B50400002005001D48007827
:1052D000A84204DB00201C4948556D1CF6E700205D
:1052E000050018480078854217DA18480068154903
:1052F000097801FB04002818FFF7B2FF00280CD042
:10530000124800680F49097801FB04002818FFF7CC
:10531000A7FF0D4948556D1CE3E731BD10B50024CA
:10532000084800780A4909784843844207DA00218E
:10533000064800682018FFF77FFF641CF0E710BDE7
:1053400000000808514A002080490020E849002058
:10535000524A002000F10103810704D010F8011B1C
:1053600089B18107FAD10268B2F10131914311F09C
:10537000803F04BF50F8042FF6E710F8011B11B16D
:1053800010F8011BFBE7C01A704700005FEA000C31
:10539000830706D011F8013B00F8013BB3B1830746
:1053A000F8D10A68B2F1013323EA020313F0803F17
:1053B00002BF40F8042B51F8042FF3E711F8013B2A
:1053C00000F8013B13B111F8013BF9E76046704763
:1053D00001B58B0718D1121F21D351F8043BA3F15B
:1053E000013C2CEA030C1CF0803C04BF40F8043B59
:1053F000F1E79CFA8CFCBCFA8CF1C1F118018B40EE
:10540000CB4040F8043B13E0042A09D311F8013BD8
:10541000521E00F8013B5BB18B07F7D1DBE7121D91
:105420005AB111F8013B521E00F8013B03B1F8D10B
:1054300011001CBF002207F0FDFE01BD80B5DFF8A2
:10544000140600780321084208D100F009F8DFF8BB
:105450000C060078012801D101F09CF901BD000083
:10546000F8B50025DFF8D40586780027DFF8E405D5
:105470000078000740F1E1820020DFF8E0150870B5
:105480000020DFF8D41508700020DFF8C815087078
:105490000020DFF8CC15087000200500280031003E
:1054A000C0B2C9B288420DD2DFF89005EDB22844EF
:1054B000C0780400DFF88405EDB228448470E71951
:1054C0006D1CEBE7FFB2002F01D10120070038006F
:1054D000DFF86815EDB22944C978C0B2884203D11B
:1054E0000120DFF87C15087000200500DFF870054A
:1054F0000078012840F099820120DFF868150870D3
:10550000DFF838058078302800F06782432809D01A
:10551000492800F03582502800F0A080552800F07E
:10552000468282E2DFF81405C078452800F08380C7
:10553000DFF834050078002840F07F82FCF720FB7C
:1055400000281AD140F25110DFF820150860012020
:10555000DFF81C1508700120DFF818150870FFF738
:10556000DDFE3DA1DFF81005FFF710FF0020FFF77B
:105570007FFE0120DFF804150870DFF8C004807991
:10558000302804DBDFF8B40480793A2802DB0020FD
:10559000050006E0DFF8A404807930386421484330
:1055A0000500EDB2DFF89404007930380A2101FBE0
:1055B0000055DFF8880440793038451940F25D1015
:1055C000DFF8A81408600120DFF8A4140870202078
:1055D000DFF8A0140870EDB215F01F00FFF772FE9F
:1055E000DFF894040078DFF85414C978884219D0A1
:1055F000DFF84804C078DFF880140870EDB215F0C9
:105600001F00FFF735FEEDB215F01F00FFF75AFE41
:1056100002210020FBF728FADFF86414EDB215F040
:105620001F0288540120DFF83C140870EDB2DFF847
:10563000540405600FE0DFF80404C07845280AD15F
:105640000920DFF8441408700120DFF840140870C6
:10565000002000F031FAE8E131000000DFF8DC035F
:10566000C078532840F03181DFF8D0030079522808
:1056700007D1FAF7F5FFFBF765FA002000F01CFAF6
:105680007DE1DFF8B8030079502840F078814FF4CD
:10569000A070DFF8D81308600120DFF8D413087079
:1056A0000020FFF70FFEDFF8D0030078DFF88C133F
:1056B0004979884217D0DFF884034079DFF8B813BE
:1056C00008700020DFF8B01348700020FFF7D0FD0D
:1056D0000020FFF7F7FD04210120FBF7C5F9401E6C
:1056E000DFF8AC1308704FF4A270DFF88013086085
:1056F0000320DFF87C1308700120DFF878130870AE
:105700000020FFF7DFFDDFF870034078DFF82C138F
:10571000C979884207D1DFF860038078DFF81C136D
:10572000097A88421ED03020DFF84C130870C34835
:10573000C079DFF844134870C048007ADFF83813A6
:1057400088700020DFF83013C8700020FFF790FD4C
:105750000020FFF7B7FD63210A20FBF785F9DFF88A
:105760003413086040F24110C04908600320C0496A
:1057700008700120BF4908700020FFF7A3FDBE4854
:105780000078AE49497A88420BD1BB484078AB4992
:10579000897A884205D1B8488078A849C97A884270
:1057A0001AD0A648407AB4490870A448807AB24911
:1057B0004870A248C07AB04988700020AE49C870CD
:1057C0000020FFF755FD0020FFF77CFDB4211420D9
:1057D000FBF74AF9B04908604FF4A970A349086083
:1057E0000120A34908700120A24908700020FFF79A
:1057F00069FDA1480078302811D030209E490870FA
:1058000000209D4948700020FFF732FD0020FFF77F
:1058100059FD9948007810F00100A0490870DFF8A0
:10582000380E007850F030008449097B884215D04A
:1058300040F251108D49086001208D490870012007
:105840008C490870FFF76AFD7C48007B8A49087024
:105850000020894948700020FFF70AFD4FF4AD7021
:10586000824908600120824908700120814908703E
:105870000020FFF727FD804800787049497B884267
:1058800012D06E48407B7C49087000207A494870ED
:105890000020FFF7EDFC0020FFF714FD76480078AC
:1058A00010F001007E4908706448807B322803D1E3
:1058B00000207C49087002E001207A490870FBF75B
:1058C00041F9002000F0F8F859E05C48C0784E2813
:1058D00005D1FDF730F80D2000F0EEF84FE0574805
:1058E000C07847284BD15548407910F00F000A2165
:1058F0004843DFF8681D0870DFF8600D00784F49F5
:10590000897911F00F010818DFF8501D0870DFF8D1
:105910004C0D007810F01F00DFF8401D087047485C
:10592000007953280CD160480078002804D0FDF796
:1059300028F80A2000F0C0F801205C49087012E045
:105940003E48007947280ED1002059490871564831
:105950000078002804D0FDF770F80A2000F0ACF8B9
:1059600001205449087050480078002801D1FDF703
:10597000EEFD4D480078002801D1FCF796FD54E07B
:105980002E48C078562803D1092000F095F80DE084
:105990002A48C0784D2809D10120DFF8F41D08708D
:1059A0007320FCF7D4FC7420FCF7D1FC3DE02348C5
:1059B000C078312806D10120FCF79AF8002000F0C9
:1059C0007BF809E01D48C078322805D10220FCF799
:1059D0008FF8002000F070F827E000201A490870C6
:1059E000002018490860154890F8C602092806DA10
:1059F000124890F8C602401C104981F8C6020F48B0
:105A000090F8C602050028000C4991F8C512C0B2F2
:105A1000884206D301200A49087000200F49087007
:105A200002E001200D490870FFE70020034988705B
:105A300002220649064801F0FDFCF1BD4439002070
:105A4000A44A0020184A0020A54A00204539002019
:105A5000C44700209E4A0020A14A0020A34A0020FB
:105A60009F4A0020A64A0020894A0020E8490020D9
:105A7000514A0020524A002080490020744A0020E8
:105A800030490020FC490020984A0020684A002044
:105A9000844A0020044A0020004A0020754A002061
:105AA000764A00204F4A0020824A0020924A002075
:105AB000E8450020914A00202DE9F04104005FF004
:105AC0000008DFF8980B90F900000700002F01D1C3
:105AD00020200700DFF8800B0078032804D0DFF8CF
